:1000000050C400007FC400007DC400007BC4000019
:1000100079C4000077C4000075C4000073C40000F8
:1000200071C400006FC400006DC400006BC4000008
:1000300069C4000067C4000065C4000063C4000018
:1000400061C400005FC400005DC400005BC4000028
:1000500059C4000057C4000055C400000C9412316C
:1000600051C400000C94C02F0C94972F4BC4000077
:1000700049C4000047C4000045C4000043C4000058
:1000800041C400003FC400003DC400003BC4000068
:1000900039C4000037C4000035C4000011C5000099
:1000A00031C400002FC400002DC400002BC4000088
:1000B00029C4000027C4000025C4000023C4000098
:1000C00021C400001FC400001DC400001BC40000A8
:1000D00019C4000017C4000015C4000013C40000B8
:1000E00011C4000022183918BB18AC19CE19E9192F
:1000F000F519A0192530283017301B301F305F301C
:100100002C30303036303A303E30443048304C308D
:100110005F30523056305A3000407A10F35A00A007
:10012000724E18090010A5D4E80000E876481700C0
:1001300000E40B54020000CA9A3B000000E1F50500
:10014000000080969800000040420F000000A0864A
:1001500001000000102700000000E803000000007C
:100160006400000000000A00000000000100000020
:1001700000002C76D888DC674F0823DFC1DFAE593A
:10018000E1B1B796E5E3E453C63AE651997696E8CD
:10019000E6C28426EB898C9B62ED407C6FFCEFBC51
:1001A0009C9F40F2BAA56FA5F490055A2AF75C937C
:1001B0006B6CF9676DC11BFCE0E40D47FEF520E6B2
:1001C000B500D0ED902E0300943577050080841E95
:1001D000080000204E0A000000C80C333333330FF0
:1001E000986E12831141EF8D2114893BE65516CF8D
:1001F000FEE6DB18D1844B381BF77C1D901DA4BB99
:10020000E424203284725E228100C9F124ECA1E54D
:100210003D27E50110E70110E80148EC0109ED0177
:100220006C23016F240157250171E201181B011590
:100230000101001C01031901017F051F018C1F0131
:10024000847F0A1F01947F0A1F01D47F05400D009F
:100250002B293E3D3F24740806070D17500D000260
:100260000116143F0B5B08121819175D01FF1601E8
:10027000082801207F282801387F2828013C020215
:100280000000040200EF060200000802018F800255
:1002900000008202000017010500000000003E5B24
:1002A0004F5B3E3E6B4F6B3E1C3E7C3E1C183C7EC3
:1002B0003C181C577D571C1C5E7F5E1C00183C18A8
:1002C00000FFE7C3E7FF0018241800FFE7DBE7FFA4
:1002D00030483A060E2629792926407F0505074031
:1002E0007F05253F5A3CE73C5A7F3E1C1C08081CF2
:1002F0001C3E7F14227F22145F5F005F5F06097F30
:10030000017F006689956A606060606094A2FFA2C8
:100310009408047E040810207E201008082A1C0877
:10032000081C2A08081E101010100C1E0C1E0C3081
:10033000383E3830060E3E0E060000000000000079
:100340005F00000007000700147F147F14242A7F39
:100350002A12231308646236495620500008070306
:1003600000001C2241000041221C002A1C7F1C2A84
:1003700008083E08080080703000080808080800D7
:100380000060600020100804023E5149453E0042D2
:100390007F400072494949462141494D33181412A2
:1003A0007F1027454545393C4A49493141211109CA
:1003B000073649494936464949291E0000140000BC
:1003C00000403400000008142241141414141400D6
:1003D0004122140802015909063E415D594E7C1222
:1003E00011127C7F494949363E414141227F4141BA
:1003F000413E7F494949417F090909013E41415137
:10040000737F0808087F00417F41002040413F0181
:100410007F081422417F404040407F021C027F7FC2
:100420000408107F3E4141413E7F090909063E41D3
:1004300051215E7F09192946264949493203017F26
:1004400001033F4040403F1F2040201F3F403840B5
:100450003F631408146303047804036159494D434E
:10046000007F4141410204081020004141417F04C6
:1004700002010204404040404000030708002054AD
:100480005478407F2844443838444444283844440D
:10049000287F385454541800087E090218A4A49CDC
:1004A000787F0804047800447D40002040403D00EF
:1004B0007F1028440000417F40007C047804787C51
:1004C000080404783844444438FC182424181824B8
:1004D0002418FC7C08040408485454542404043FA1
:1004E00044243C4040207C1C2040201C3C403040A8
:1004F0003C44281028444C9090907C4464544C44D4
:100500000008364100000077000000413608000274
:10051000010204023C2623263C1EA1A161123A409E
:1005200040207A3854545559215555794122545414
:100530007842215554784020545579400C1E52720F
:1005400012395555555939545454593955545458EC
:100550000000457C410002457D420001457C407D14
:100560001211127DF0282528F07C545545002054A6
:10057000547C547C0A097F4932494949323A4444FF
:10058000443A324A4848303A4141217A3A4240207E
:1005900078009DA0A07D3D4242423D3D4040403D0F
:1005A0003C24FF2424487E4943662B2FFC2F2BFF3D
:1005B0000929F620C0887E0903205454794100009F
:1005C000447D413048484A32384040227A007A0A15
:1005D0000A727D0D19317D2629292F2826292929DE
:1005E0002630484D40203808080808080808083810
:1005F0002F10C8ACBA2F102834FA00007B00000876
:10060000142A142222142A14085500550055AA55FC
:10061000AA55AAFF55FF55FF000000FF001010105B
:10062000FF00141414FF001010FF00FF1010F01052
:10063000F0141414FC001414F700FF0000FF00FF76
:100640001414F404FC141417101F10101F101F149E
:1006500014141F00101010F0000000001F101010E4
:10066000101F10101010F010000000FF10101010DC
:100670001010101010FF10000000FF140000FF0009
:10068000FF00001F10170000FC04F41414171017CB
:100690001414F404F40000FF00F7141414141414D8
:1006A00014F700F7141414171410101F101F14144B
:1006B00014F4141010F010F000001F101F000000C0
:1006C0001F14000000FC140000F010F01010FF10C8
:1006D000FF141414FF141010101F00000000F0107D
:1006E000FFFFFFFFFFF0F0F0F0F0FFFFFF00000062
:1006F0000000FFFF0F0F0F0F0F3844443844FC4A2F
:100700004A4A347E02020606027E027E0263554990
:1007100041633844443C04407E201E2006027E0291
:100720000299A5E7A5991C2A492A1C4C7201724C12
:10073000304A4D4D303048784830BC625A463D3ED4
:10074000494949007E0101017E2A2A2A2A2A444475
:100750005F444440514A444040444A51400000FFF5
:100760000103E080FF000008086B6B083612362496
:1007700036060F090F0600001818000000101000C0
:100780003040FF0101001F01011E00191D1712005A
:100790003C3C3C3C000000000000002100240027FD
:1007A000002A002D00300033000101000004010781
:1007B000010A0100002200250028002B002E003134
:1007C00000340002010000050108010B01050505C8
:1007D00005070508080808020202020A0A080804B8
:1007E00004040401010101010101010303030303E6
:1007F000030303040707070C0C0C0C0C0C0C0C0275
:1008000002020206060606060606060B0B0B0B0B7B
:100810000B0B0B0102102020080810204010204074
:1008200080020102010804020101020408102040B4
:1008300080804020100804020180040201804020D2
:1008400010080402010804020101020408102040FB
:1008500080010204081020408000000A0B02090CED
:100860000D0E080703040100000000000000000056
:100870000000000000000000000000000000000078
:100880000000000000121110000000000000000035
:100890000000000000000000000000000000000058
:1008A0000F4911241FBECFEFD1E2DEBFCDBF00E064
:1008B0000CBF13E0A0E0B2E0E6E9F2EA00E00BBF13
:1008C00002C007900D92A03AB107D9F728E0A0EA3C
:1008D000B3E001C01D92AC3CB207E1F714E0C1E502
:1008E000D4E000E006C021970109802FFE010E949C
:1008F000014FC035D10780E00807A9F70E944134B5
:100900000C9449517DCB85ED8093BC008091BC0057
:1009100084FDFCCF1092100608954091F103262F1C
:1009200030E0240F311D21323105DCF42091100616
:100930002430C9F4FC0180E090E0861758F430912F
:10094000F1032191DC01A153BC4FA30FB11D2C93E6
:100950000196F3CF8091F103680F6093F10380E07B
:10096000089581E0089582E008950895E091A1033B
:100970008091A003E81730F4F0E0E155FC4F80814E
:1009800090E008958FEF9FEF08959091A1038091DB
:10099000A003981750F4E92FF0E0E155FC4F2081B7
:1009A00030E09F5F9093A10302C02FEF3FEFC9019A
:1009B00008958091A00390E02091A103821B9109EA
:1009C0000895CF92DF92EF92FF920F931F93CF93F0
:1009D000DF937C01262F972F8A01809111068823AF
:1009E00091F0C62FD72F6E01C40ED51ECC15DD0594
:1009F00069F06991D701ED91FC910190F081E02DB2
:100A0000C7011995F3CF642F822F87DFC801DF91CB
:100A1000CF911F910F91FF90EF90DF90CF900895AD
:100A2000CF93DF931F92CDB7DEB769832091110674
:100A30002223D1F020913406203240F021E030E032
:100A4000FC013383228380E090E014C08091120681
:100A5000E82FF0E0ED5EF94F998190838F5F8093EE
:100A600012068093340604C061E0CE01019655DF82
:100A700081E090E00F90DF91CF910895089580E09C
:100A800090E00895EF92FF920F931F93DC01ED9198
:100A9000FC9111971A960D911C911B9718962D9108
:100AA0003C9119970288F389E02D7B0140E050E0EA
:100AB00060E070E019951F910F91FF90EF900895FD
:100AC0001F920F920FB60F9211240BB60F922F9315
:100AD0003F934F935F936F937F938F939F93AF93C6
:100AE000BF93EF93FF938091B900887F803609F41C
:100AF0009CC068F5883209F45BC090F4803109F439
:100B000054C038F4882309F4F6C0883009F44DC085
:100B1000F5C0883109F44CC0803209F45DC0EEC0E4
:100B2000803409F468C048F4803309F455C0883330
:100B300009F0E4C080930E06D8C0803509F44FC098
:100B4000883509F45DC0883409F0D8C0D6C088392A
:100B500009F4C7C0A8F4883709F467C038F48836A8
:100B600009F463C0803709F460C0C8C0883809F44C
:100B7000B8C0803909F45FC0803809F0BFC05BC0DD
:100B8000803B09F486C038F4803A09F466C0883A9C
:100B900009F47FC0B3C0803C09F4A7C0883C09F4C5
:100BA000A4C0883B09F48AC0A9C08091EB0510C09D
:100BB00090910D0680910C06981770F5E0910D0646
:100BC00081E08E0F80930D06F0E0E451FA4F8081B2
:100BD0008093BB0085EC86C080930E068EC0E091AA
:100BE0000D0681E08E0F80930D068091BB00F0E032
:100BF000E451FA4F808390910D0680910C066EC0EF
:100C0000E0910D0681E08E0F80930D068091BB0070
:100C1000F0E0E451FA4F808380910F0681116DC09E
:100C200081E08093EA0584EA61C083E08093100646
:100C300010921504CFCF80911504803208F051C076
:100C4000E091150481E08E0F809315048091BB0024
:100C5000F0E0EB50FC4F8083BDCF85EC8093BC006F
:100C60001092100680911504803230F4E091150442
:100C7000F0E0EB50FC4F10826091150470E0E091C1
:100C8000F303F091F40385EF93E0199510921504A6
:100C900035C084E0809310061092F2031092F103A5
:100CA000E091EF03F091F00319958091F103811128
:100CB00005C081E08093F1031092CF03E091F2032D
:100CC00081E08E0F8093F203F0E0E153FC4F8081CE
:100CD0008093BB009091F2038091F103981708F480
:100CE00079CF85E88093BC0009C085EC8093BC0077
:100CF0001092100603C010920E0605DEFF91EF91D0
:100D0000BF91AF919F918F917F916F915F914F9123
:100D10003F912F910F900BBE0F900FBE0F901F9021
:100D20001895CF93DF93EC010E94063120E63AEE4E
:100D300040E050E00E949B4D88819981B901681B79
:100D4000790BCB01DF91CF910895CF92DF92EF9293
:100D5000FF920F931F93CF93DF938C01EB010E94BF
:100D6000063120E63AEE40E050E00E949B4DCE0175
:100D70000D2E000CAA0BBB0B69017A01C81AD90A07
:100D8000EA0AFB0A21EAC21625E0D206E104F104D0
:100D900028F4F801D183C08381E000C0DF91CF91B6
:100DA0001F910F91FF90EF90DF90CF900895CF9318
:100DB000DF93EC01B6DF9C012F5F3F4F8C859D8553
:100DC000821793072CF48E859F852817390764F0C6
:100DD00088899989821793074CF481E04A895B8955
:100DE0002417350724F002C081E001C080E0DF91C4
:100DF000CF910895CF93DF93EC0193DF9C012F5F98
:100E00003F4F8C819D81821793072CF48E819F81A7
:100E10002817390764F088859985821793074CF461
:100E200081E04A855B852417350724F002C081E004
:100E300001C080E0DF91CF910895FF920F931F933F
:100E4000CF93DF938C0160E00E94DC2BF80180815E
:100E500091E090931106809333061092120610923F
:100E6000340660E086E297E0DBDD81E00E947F2BC4
:100E7000F8012081809110068111FCCF81E08093E0
:100E8000100680930F069FEF90930E0610920D06AA
:100E900080930C068093EB059091EB05822F880FD1
:100EA000892B8093EB058091EA05813061F41092E3
:100EB000EA058091EB058093BB008091BC0083FD27
:100EC000F8CF85EC01C085EE8093BC0080911006C0
:100ED0008130E1F380910D06823018F480910D0687
:100EE00001C082E0ACEEB5E02FEA33E0F9019E2FBD
:100EF000921B981718F49D919193F9CF1092A1032A
:100F00008093A00386E297E040DDF82E86E297E02A
:100F10003CDDEC0161E0C8010E94DC2B60E070E088
:100F20007F2D6C2B7D2B072E000C880B990B0E94BC
:100F3000884C20E030E040E05DE30E94E74C20E098
:100F400030E040E05EE30E94E74CDF91CF911F91DB
:100F50000F91FF9008951F93CF93DF93EC0111E061
:100F60001DA761E08BA50E94F62F19A761E08FA154
:100F7000DF91CF911F910C94F62F2F923F924F92B9
:100F80005F926F927F928F929F92AF92BF92CF9219
:100F9000DF92EF92FF920F931F93CF93DF93CDB722
:100FA000DEB727970FB6F894DEBF0FBECDBF7C012A
:100FB0006A83DC01D7962C9130E0F901E353F84FB6
:100FC000A490FC0184A9A82FB0E0FD01E353F84FE1
:100FD000C490F70166A970E0FB01E353F84F049158
:100FE000F70145A950E0FA01E353F84F8490F90165
:100FF000ED5EF74F7490FD01ED5EF74F6490FB01DD
:10100000ED5EF74F1491FA01ED5EF74F24912B83BB
:1010100060E00E94733060E0D701D5968C910E9409
:101020007330D12CF601EE0FFF1F9F012D54384F66
:101030006901F901A591B4918C91362C30948321EA
:101040008C93912CF401EE0FFF1FAF014D54584FBC
:101050004A01FA01A591B4919C918B8180958923D5
:101060008C9361E0D701D7968C910E94733061E038
:10107000F70186A90E947330B12CF501EE0FFF1F16
:101080009F012D54384F5901F901A591B4918C91CC
:1010900087298C93E02FF0E0EE0FFF1FED54F84FFF
:1010A000A591B491EC911095E123EC93D701D496DE
:1010B0008C910E94AF30AC01F70184A94E835F830D
:1010C0000E94AF302C010FEF13E0081B190B60E0FA
:1010D000D701D7968C910E94733060E0F70186A902
:1010E0000E947330F501A591B4918C91272C209426
:1010F00082218C9361E0D701D4968C910E94733049
:10110000F601A591B491EC916E2A6C9261E0F70121
:1011100085A90E947330D701D6968C910E94AF307A
:101120003C01F70186A90E94AF304E815F816816AD
:10113000790629F4F1E0F9834415550509F019827F
:101140002FEF33E0A901481B590B5D834C8361E00D
:10115000D701D7968C910E947330F501A591B49177
:101160007C9072207C92F401A591B4919C912B818A
:10117000922B9C93F601A591B4918C9183218C9331
:1011800060E0D701D4968C910E947330F70186A954
:101190000E94AF306C01D701D4968C910E94AF3081
:1011A000F701A0ACB1ACA114B10409F440C0BC017A
:1011B000990F880B990B0E94884C2B013C01B601BA
:1011C000DD0C880B990B0E94884C9B01AC01C3017C
:1011D000B2010E944D4E20E030E040E85FE30E9403
:1011E000E84D6B017C01B801012E000C880B990BB6
:1011F0000E94884C9B01AC01C701B6010E94E74CDC
:101200006B017C01B50180E090E00E94864C9B015F
:10121000AC01C701B6010E94E74C20E030E040E895
:101220005AE30E94E74C0E94B54E7B0107C0C81AE2
:10123000D90A7601F1E0EF1AFCEFFF0A29812111AA
:1012400002C0E12CF12C61E088E30E94733061E080
:1012500087E30E947330B701695C71096F31734095
:1012600008F06FC04A814111EDC1C801805392401E
:101270008D38910540F48C819D81845F9140893C3B
:10128000910508F450C198012A543140273931059D
:1012900040F48C819D81845F9140893C910508F4E4
:1012A00044C1C801885592408E35910540F48C8127
:1012B0009D818C5B9240893C910508F438C1C8013E
:1012C000855491408C34910540F48C819D818C5BD8
:1012D0009240893C910508F42CC1C8018E5B9109AC
:1012E0008536910540F44C815D81485A5240413F1A
:1012F000510508F420C10A5312400338110548F47F
:101300002C813D8120543140253B310508F415C125
:101310000BC02D38310540F42C813D8120543140E3
:10132000253B310508F40BC1CD9708F08BC18C81AA
:101330009D81885C91098739910508F083C18BE113
:1013400082C15A81513009F0BCC0C8018453934016
:101350008734910540F48C819D81885C910989379F
:10136000910508F408C1C801845992408437910559
:1013700078F48C819D8188569140899708F4E1C06A
:101380008C819D818C5192408135910508F4DBC0A0
:10139000C801825192408135910578F48C819D81FC
:1013A00088569140899708F4D0C08C819D818C51DA
:1013B00092408135910508F4CAC098012757314001
:1013C0002036310578F48C819D818856914089972B
:1013D00008F4BFC08C819D818C519240813591056C
:1013E00008F4B9C0C801875D91098036910580F481
:1013F0004C815D81485651404932510508F4ADC0D9
:101400004C815D814C5152404135510508F4A7C0D3
:10141000A8014D5A52404E35510580F44C815D81F2
:101420004A5852404135510508F49BC04C815D81BA
:10143000425553404D33510508F495C003501240B6
:101440000A36110588F44C815D814A585240413575
:10145000510508F48AC04C815D81425553404D339B
:101460005105B8F482E1EFC020363105A8F42C8193
:101470003D812A5832402135310508F478C02C814D
:101480003D81225533402D33310508F097C084E16A
:10149000DAC02036310598F38036910508F0D2C0C5
:1014A0008C819D818A5892408135910508F461C0F4
:1014B0008C819D8182559340CD9708F0C3C086E111
:1014C000C2C08A81823009F0BDC0C80184539340F4
:1014D0008734910540F48C819D81885C910989371E
:1014E000910508F448C0C8018B5C9240863591058F
:1014F00038F42C813D81205431402D333105E8F101
:10150000005F11090536110548F42C813D812054F6
:1015100031402D33310598F58DE195C08635910523
:1015200008F451C08FC083E08EC084E08CC081E09D
:101530008AC082E088C085E086C089E184C08AE1F3
:1015400082C087E080C088E07EC089E07CC08AE0FD
:101550007AC08BE078C08CE076C08DE074C08EE0FD
:1015600072C08FE070C080E16EC081E16CC083E129
:101570006AC085E168C086E066C08CE164C08635DB
:10158000910588F18C819D8180599140813591052B
:1015900088F08C819D818A5392408C34910560F053
:1015A0008C819D81895992408734910508F04AC009
:1015B00083E249C08FE147C081E245C08036910592
:1015C00008F476CF3FC0AC81BD81A039B140ACF00A
:1015D000AC81BD81A13EB14014F48EE134C005362A
:1015E000110578F028C02C813D812039314084F7E5
:1015F0002C813D812A3332404CF40536110510F11F
:101600001EC0AC81BD81AA33B24054F0AC81BD8113
:10161000A638B24014F480E216C00536110578F4FD
:101620002C813D81293942E0340764F0203E32406C
:101630004CF482E208C086359105D0F203C08635AD
:10164000910570F380E027960FB6F894DEBF0FBEC9
:10165000CDBFDF91CF911F910F91FF90EF90DF9061
:10166000CF90BF90AF909F908F907F906F905F9042
:101670004F903F902F9008952F923F924F925F92FC
:101680006F927F928F929F92AF92BF92CF92DF9292
:10169000EF92FF920F931F93CF93DF93CDB7DEB7F7
:1016A000AF970FB6F894DEBF0FBECDBF4C017FA73A
:1016B0006EA7B42ED22E1701280160E070E0E2D9A7
:1016C00082E0F401848B8FEF9FEF938B828B918B61
:1016D000808B2A968FAD2A97811103C080E090EF0E
:1016E00002C080EC9FEC7C0103E210E02BE430E0D0
:1016F00046E450E068EC70E0C401A4D52B968FADB1
:101700002B97811103C080E090EF02C080EC9FEC2A
:101710007C0103E210E02BE430E041E950E068ECAA
:1017200070E0C4018FD501ED10E0F4011587048746
:1017300070E5672E712C778666866FEF72E0C401C4
:101740000E941E2DF401158704878BE990E097878E
:1017500086876FEF72E0C4010E941E2DB11017C082
:10176000E12C60EFF62E03E210E020E530E046E4E5
:1017700050E064E670E0C40165D588E790E0F401CC
:10178000958784877786668663ED72E035C0F1E0E1
:10179000BF1218C05CE1E52E55E9F52E03E210E01A
:1017A00020E530E046E450E064E670E0C4014AD54C
:1017B0008EE690E0F401958784877786668665E0FB
:1017C00073E01AC0F2E0BF121AC040ECE42E4FECF6
:1017D000F42E03E210E020E530E046E450E064E659
:1017E00070E0C4012FD58DE790E0F40195878487E0
:1017F000778666866BE073E0C4010E941E2DD110CF
:1018000019C0E12C30EFF32E03E210E020E530E0C8
:1018100041E950E064E670E0C40114D588E790E047
:10182000F401958784878BE990E09787868763ED3D
:1018300072E039C0F1E0DF121AC02CE1E22E25E996
:10184000F22E03E210E020E530E041E950E064E6EA
:1018500070E0C401F7D48EE690E0F40195878487A8
:101860008BE990E09787868765E073E01CC0F2E023
:10187000DF121CC090ECE92E9FECF92E03E210E081
:1018800020E530E041E950E064E670E0C401DAD4DC
:101890008DE790E0F401958784878BE990E0978746
:1018A00086876BE073E0C4010E941E2DF40115864B
:1018B000148680E590E09787868768E573E0C40129
:1018C0000E941E2DF401158614868BE990E09787FF
:1018D000868761E673E0C4010E941E2DF40115861F
:1018E000148603E010E0178706878FEF9FEF918B38
:1018F000808B138A128A68E673E0C4010E94062E68
:1019000080EA90E0F40195878487178706871BA2F9
:101910001AA21DA21CA21FA21EA28E010F5F1F4FA2
:1019200022E044E0C201B1010E94C149BC01CE01E4
:1019300082960E94432CBE016E5D7F4FC4010E94BF
:10194000072ECE0182960E946D2CF4011586148616
:1019500004E110E01787068767E773E0C4010E947F
:101960001E2D87ED90E0F401958784871787068701
:10197000C11003C063ED72E002C06FEC72E0CE01F3
:1019800001960E949D2CBE016F5F7F4FC4010E9493
:10199000072ECE0101960E946D2C6AE873E0C40107
:1019A0000E94062E88E691E0F4019587848784E101
:1019B00090E097878687A11003C063ED72E002C0B4
:1019C0006FEC72E0CE0101960E949D2CBE016F5F0C
:1019D0007F4FC4010E94072ECE0101960E946D2CFC
:1019E0002AE530E04AE550E066E470E0C4010E9478
:1019F0006A2925EA30E045EA50E069EB70E0C4016D
:101A00000E946A29EE24EA94FE2C0EE110E024E6FE
:101A100030E04DEC50E062E271E0C40113D4F40117
:101A2000138A128A118A108A86E391E09587848747
:101A300085ED90E09787868765E073E0C4010E949A
:101A40001E2D8FEF9FEFF401938B828B918B808BF8
:101A500083E0848B87E291E09587848783E790E039
:101A60009787868729964CAD5DAD6EAD7FAD299782
:101A7000C4010E94372D8EE190E0F40195878487A0
:101A800082ED90E0978786878EA59FA56CE370E036
:101A90000E94EE4E6B018C014AE0BC01CE0188969B
:101AA0000E94722C0A3011051CF00AEE12E002C0EE
:101AB00007ED12E04AE0B601CE0182960E94722C38
:101AC000FAE0CF16D1041CF06AEE72E002C067EDB6
:101AD00072E0CE0101960E949D2CBE016E5D7F4F8B
:101AE000CE0101960E94322C64EF72E00E941B2C02
:101AF000B8010E941B2CBE01685D7F4F0E94322CF2
:101B0000BC01C4010E94152ECE0101960E946D2CCD
:101B1000CE0182960E946D2CCE0188960E946D2C7B
:101B2000AF960FB6F894DEBF0FBECDBFDF91CF9159
:101B30001F910F91FF90EF90DF90CF90BF90AF90EB
:101B40009F908F907F906F905F904F903F902F90DD
:101B50000895FC01128260E080810C94F62FDC0174
:101B6000ED91FC91048CF58DE02D1994CF93DF93CA
:101B70001F92CDB7DEB7FC01828D238D24FB992700
:101B800090F99627692F70E0778F668F80FF2DC0C0
:101B90008091A3038823E1F0248D358D273483E8D9
:101BA000380719F02235324531F4911102C082E034
:101BB00007C086E005C0911102C08AE001C088E03C
:101BC0008983AE014F5F5F4F61E081E090E00AC022
:101BD000911103C080E290E002C081E290E040E019
:101BE00050E060E00E94F4232EC0848D958D8732F2
:101BF00022E9920780F4853222E99207A0F480322C
:101C000024E59207C1F0833927E79207A1F08435D4
:101C10009140A9F408C0863223E9920761F0893027
:101C2000954B69F408C0660F771F660F771F6361D5
:101C300087E090E006C0626081E094E002C081E647
:101C400090E00E94F7240F90DF91CF910895FB015F
:101C500041505109460F571FE417F50778F42081CA
:101C600030E0322F22276181260F311D820F931F12
:101C70008217930708F401963296EECFE417F50722
:101C800051F4208130E0322F2227820F931F8217D8
:101C9000930708F4019608959091E805892F8270C2
:101CA00091FF11C02091E60530E043E155E060E08E
:101CB00070E08091E9050E9433338091E8058D7FC3
:101CC0008093E80518C0209107053091080521157B
:101CD000310519F0C9010E9490328093E9058823EB
:101CE00091F0209107053091080543E155E060E04F
:101CF00070E00E9433338091E9050E945C311092BC
:101D0000E90581E0089580E008950895CF92DF927B
:101D1000EF92FF920F931F93CF93DF93A09105054E
:101D2000B09106055C96CD91DC915D9750910405CC
:101D3000209749F556FF6FC0E6E1F4E080E090E0BF
:101D4000208121111AC061E1689F9001699F300DC7
:101D50001124E901CA5EDB4F80618883295E3B4F15
:101D600080E1F90111928A95E9F7209709F453C0AF
:101D70005D96DC93CE935C9706C001967196843095
:101D80009105F1F648C051FF07C080910705909179
:101D90000805892B09F054C0888187FF0EC08F7712
:101DA000888380910405826080930405E091050595
:101DB000F0910605818D8F7E818F80910405982F8B
:101DC0009071D92E84FF7FC07E01E6E0EE0EF11CFB
:101DD0006E01FBE0CF0ED11CF70180810E945C31C7
:101DE000F70111927F01EC15FD05B1F78981882378
:101DF00009F46CC0E0910505F09106058481958198
:101E00009F838E83888180648883E0910505F091AB
:101E10000605158E148EE12CF12CB7018091090571
:101E200090910A05A5D4F0920805E0920705DF918C
:101E3000CF911F910F91FF90EF90DF90CF90089579
:101E40008881807609F0A8CF6E01FFEFCF1ADF0AF4
:101E5000F12CF6018081811122C02091070530917B
:101E600008052115310519F0C9010E949032F601CB
:101E700080838823A1F00091070510910805209127
:101E8000090530910A05235135404091E70560E08E
:101E900070E00E94CC33F4E0FF127ECF0CC0F394CC
:101EA0002FEFC21AD20A35E0F312D3CF8091E805A2
:101EB0008E7F8093E805E0910505F0910605818D00
:101EC0008061818F69CF87FF03C07ECF18829DCF4D
:101ED00080FF0FC08E810E945C31DE011796FE01EB
:101EE0003696CE010A962D912193E817F907D9F776
:101EF0001A86809104058C7009F443C0EE81EE23AC
:101F000009F43FC08F8181110FC0EB84FC84E11480
:101F1000F10409F482CF25E0E29FF0011124EA5494
:101F2000F84FF382E28207C08E2F0E94B1337C010A
:101F3000892B09F472CF8091090590910A0583518C
:101F400095408093E605F701E80FF11DCF01EF2BD7
:101F500019F00E949032D82ED092E905DD2009F4C4
:101F60005CCF6091E60570E0870120E030E04E81B3
:101F70008D2D0E94CC338091E80582608093E80526
:101F80004CCF888185FF47CF8E8181110BC018828D
:101F9000E0910505F0910605158E148E80E1809381
:101FA000040539CFE0910505F0910605818D80612A
:101FB000818F31CF0F931F93CF93DF93EC018B0170
:101FC00010161106B4F4FE01859194912496FE0139
:101FD0003297659174918F3F2FEF920729F480E03B
:101FE00090E00E94CE3002C00E94F72404501109F4
:101FF000E7CFDF91CF911F910F910895BF92CF92BC
:10200000DF92EF92FF920F931F93CF93DF93CDB7A1
:10201000DEB768970FB6F894DEBF0FBECDBF8C0158
:102020007B018EEFC82EDD24DA941E141F0464F5A4
:10203000F80184913196B4900E5F1F4F8F3729F0CD
:10204000202FDE011196F80108C06B2D70E080E0B2
:1020500090E00E94CE30B12C11C09E2F921B9B1598
:1020600020F494919D933196F8CF0B0D111DAE0184
:102070004F5F5F4F6B2D90E00E94F423C6018B19D8
:102080009109E80EF91ED1CF68960FB6F894DEBF1D
:102090000FBECDBFDF91CF911F910F91FF90EF90B9
:1020A000DF90CF90BF9008958F929F92AF92BF9292
:1020B000CF92DF92EF92FF920F931F93CF93DF9314
:1020C00000D01F92CDB7DEB77C014B016A015901E8
:1020D000FC01848D958D8732F3E99F0799F4F70110
:1020E0008589823031F4F0E2CF0ED11C005E1F4FA3
:1020F0001DC08330D9F420E2820E911C80E2A80E2C
:10210000B11C14C08632954189F4F701858980FF9E
:102110000DC0C801841B950B19F40F5F1F4F06C03B
:102120002617370719F4A80EB91E8A01F701828D08
:1021300080FF3BC082A599828A82BB82AC82AE01BD
:102140004F5F5F4F64E090E00E94F423F70186A5A3
:10215000D982CA821B830C83AE014F5F5F4F64E05C
:1021600090E00E94F4238091A303882309F459C0CE
:10217000F701848D958D8536910509F052C09982BD
:102180008A82AE014F5F5F4F62E084A195A10E94F9
:10219000F423D982CA82AE014F5F5F4F62E0F7013C
:1021A00086A197A10E94F4233CC0B401F70184A149
:1021B00095A10E94F724B601F70186A197A10E947C
:1021C000F7248A149B0419F4C016D10651F1F701C3
:1021D000828D85FF0EC0858980FF06C0102F0027E5
:1021E000C02AD12A860105C0BA2CAA248A289B2895
:1021F0005401B401F70182A593A50E94F724B6010A
:10220000F70186A597A50E94F724B501F70184A5DB
:1022100095A50E94F724B801F70180A991A90E9411
:10222000F7240F900F900F900F90DF91CF911F9197
:102230000F91FF90EF90DF90CF90BF90AF909F9065
:102240008F900895AF92BF92CF92DF92EF92FF925C
:102250000F931F93CF93DF93EC018091A203882308
:1022600049F0C7018F719927880F991FE1ECEE2281
:10227000E82AF92A37FF05C0620F731F31952195AF
:102280003109260F371F77FF02C060E070E08885B4
:102290009985821793070CF49C016901C61AD70A25
:1022A00017FF05C0400F511F119501951109040F2B
:1022B000151F57FF02C040E050E08A859B858017BC
:1022C00091070CF48C015801A41AB50A01501109A8
:1022D00021503109CE01E8DE8B988A9888A599A50E
:1022E00050910201292F3327F901E07CFF27B3E049
:1022F000F595E795BA95E1F7B9016370772715E091
:10230000660F771F1A95E1F74E2F462B5778452B0E
:102310004093020165B1A9014C725527440F551F26
:10232000440F551F562F5F74452B45B944B3207198
:102330003327220F331F342F3F7D232B24BB899853
:10234000899A30910201BC01607C7727E3E07595A2
:102350006795EA95E1F7AC0143705527F5E0440F26
:10236000551FFA95E1F7262F242B3778232B20933E
:10237000020145B19C012C723327220F331F220F1B
:10238000331F342F3F74232B25B924B38071992731
:10239000880F991F922F9F7D892B84BB8998899ADA
:1023A0008A9ACA14DB042CF49C2D8D2D6501A92E6C
:1023B000B82E8F2D99279C0123703327A90125E082
:1023C000440F551F2A95E1F79C01207C332753E0E9
:1023D000359527955A95E1F7242BBC016C72772728
:1023E000660F660F80719927880FF701E370FF274A
:1023F00075E0EE0FFF1F7A95E1F7A701407C5527A6
:10240000F3E055954795FA95E1F79E2F942BA70198
:102410004C725527742F770F770F30E1E322FF249A
:10242000EE0C1A141B0444F5A60130910201377812
:10243000322B3093020135B13F74362B35B934B3AA
:102440003F7D382B34BB8998899A309102013778C7
:10245000392B3093020135B13F74372B35B934B382
:102460003F7D3E2934BB8998899A41505109E9F64C
:10247000E1E0AE1AB108D5CF8B9A8A8D80FF08C0F3
:102480008C8D9D8D8632954189F48D8980FF0EC09B
:102490000A851B850150110928853985215031098C
:1024A00040E050E060E070E0CE01FEDDDF91CF91D2
:1024B0001F910F91FF90EF90DF90CF90BF90AF9062
:1024C0000895EF92FF920F931F93CF93DF937C01B8
:1024D000E90177FD29C057FD27C0FC018085918562
:1024E000681779070CF58285938548175907E4F436
:1024F0008091A203882341F0CE018F719927880F24
:10250000991FC17CC82BD92B8A019B01C701CCDD47
:10251000BE01F70180A591A5DF91CF911F910F9189
:10252000FF90EF900C94F724DF91CF911F910F91C2
:10253000FF90EF9008950F931F93CF93DF93009137
:10254000310510913205C0913305D09134050F3F0C
:102550008FEF180741F4CF3F9FEFD90721F486E0B2
:10256000EBE2F2E021C01093E3050093E205D09383
:10257000E505C093E40580E09BE001C08F5F8830F3
:1025800071F1989FF0011124E757FA4F20813181B2
:102590000217130799F722813381C217D30771F706
:1025A0008093E105349686E0A3E1B5E001900D92B9
:1025B0008A95E1F786E0E5E2F2E0A9E1B5E0019075
:1025C0000D928A95E1F788E090E090932005809342
:1025D0001F0580910705909108050E9657C08093BE
:1025E000E10546E050E06FEF70E083E195E00E9486
:1025F0003B5186E0E3E3F5E0DF01982F1D929A95C9
:10260000E9F7E5E2F2E0A9E1B5E0982F01900D923B
:102610009A95E1F7E5E2F2E0A9E2B5E0982F0190A2
:102620000D929A95E1F710933A0500933905D093EE
:102630003C05C0933B051092300510922F05109277
:1026400032051092310520E031E0309328052093C7
:102650002705309322052093210528E030E03093B0
:102660002405209323058093250584E08093260587
:1026700088E096E09093200580931F0589E495E01B
:1026800090930A05809309058AE290E090930805EB
:1026900080930705DF91CF911F910F910895EF92DD
:1026A000FF920F931F93CF93DF939C01FB01109236
:1026B000E10590E08BE0983031F1899F70011124A1
:1026C000E701C757DA4F6881798161157105C9F053
:1026D0004A815B8141155105A1F0D9010D911C91F1
:1026E00011970617170769F412966D917C9113974D
:1026F0006417750731F49093E105D701A357BA4FDA
:102700002AC09F5FD8CF90E08BE0983091F0899FEE
:10271000E0011124C757DA4F48815981452B39F41C
:102720004A815B81452B19F49093E1050AC09F5FB4
:10273000ECCF10928805109287051092E105C9E848
:10274000D5E0D9014D915D916D917C91DE014D9364
:102750005D936D937D9386E001900D928A95E1F7EC
:102760001A86DF91CF911F910F91FF90EF900895FE
:102770009C01AB01709386056093850516161706BC
:1027800054F480918305909184052817390719F036
:10279000B9010C9432510895BF92CF92DF92EF921B
:1027A000FF920F931F93CF93DF93C0910505D091B4
:1027B0000605843009F494C129E435E030930A0514
:1027C000209309053093840520938305833059F4C1
:1027D000898D8F70833009F099C688899989892BF2
:1027E00009F094C67CC0823009F07DC080918205DA
:1027F0008F5F80938205811113C0809181058F5F67
:102800008093810581110CC0809180058F5F80933A
:102810008005811105C080917F058F5F80937F05C2
:1028200010920805109207051092860510928505F2
:10283000898D982F9D7F953041F48A8D8F5F8A8F87
:10284000883709F063C6198E61C6882309F45EC60D
:1028500028893989232B09F43EC09A8D2FEF290F3F
:102860002A8F911153C69B8D983031F02FEF280F8E
:10287000223040F4953031F4198E80E880930405BD
:1028800045DA02C5953038F423E0092E01C0220F45
:102890000A94EAF701C020E32A8F9F5F9B8F8F7015
:1028A0008330A1F048F4813009F4EDC2823009F0A0
:1028B0002DC610924205EAC2863009F4F4C488306D
:1028C00009F4F1C4843009F021C6EDC484E080939A
:1028D00004051CDA0EC58F70833009F017C688E036
:1028E00080930405C6C4853019F5E0910205F09186
:1028F000030584819581892B09F408C61092060589
:10290000109205058DE395E090930A0580930905E3
:102910009093840580938305109286051092850517
:10292000109208051092070588E080930405D6C030
:1029300080912105853409F0E9C5E0902305F12C4B
:10294000FE2CEE2480912405E80EF11C80910705F1
:10295000909108058E159F0508F4D8C5F0920805DA
:10296000E0920705809127058F7309F0CFC5D090BD
:102970002805D110CBC50E94FB20019609F0C6C5E1
:1029800080912A05863009F407C1813191F18130A7
:1029900009F0BCC580913505883009F0B7C51092A3
:1029A00035058091370590913805873F2FEF9207C5
:1029B00010F0099601C0089690933805809337056A
:1029C00080912D0590912E059093320580933105CD
:1029D00080912F05909130059093340580933305B5
:1029E00010922E0510922D051092300510922F0591
:1029F00091C58CE1E81AF108F0920805E09207050C
:102A00008DE395E090930A058093090580913B053D
:102A100090913C05892B99F4209137053091380528
:102A2000409135055091360560912D0570912E0528
:102A3000A0912F05B0913005E6EDF4E00CC081E1E6
:102A40000E946F20019609F061C5E6CF84819581CF
:102A5000009731F43B9685E0E230F807B8F324C0E4
:102A600028173907B9F786819781009719F0481719
:102A7000590781F780819181009729F4C281D38120
:102A8000CD2B49F416C08F3FCFEF9C0721F4C281B4
:102A9000D381219671F068177907E1F682819381DD
:102AA000A817B907B9F605C0F0930305E09302052E
:102AB0002DC5F0930305E0930205109206051092D0
:102AC000050582E0809304058DE395E090938405ED
:102AD0008093830510928605109285050E940A2036
:102AE0008091850590918605009709F40FC59C019A
:102AF000245E3F4F3093080520930705309323054C
:102B000020932405E0910205F09103052085209390
:102B1000290521E120932A050896982789279827D7
:102B200090933A058093390510923C0510923B052D
:102B300084819581909336058093350586819781B0
:102B4000909338058093370510922E0510922D052D
:102B50001092300510922F0580819181909332055B
:102B6000809331058281938190933405809333055E
:102B700089E495E090930A058093090581E10E941C
:102B80006F2080959095009711F48FEF9FEF9093B1
:102B90003C0580933B0598C486E00E946F20019617
:102BA00009F0B4C44091370550913805809135053E
:102BB0009091360560912D0570912E05E0912F05BD
:102BC000F09130050EE514E0E801298D2223A9F0EB
:102BD000AC81BD814A175B0781F4AE81BF818A1742
:102BE0009B0759F4A881B9816A177B0731F4AA8140
:102BF000BB81EA17FB0709F460C1025E1F4FD4E0F6
:102C0000063D1D0709F7809142058F738230A1F4BC
:102C100050937E0540937D0580E0843059F08F5FAE
:102C200041155105D1F710927C0580E0C0E0D0E05D
:102C30009EE174C080937C058091420582FD66C44C
:102C400084E18093420588E290E0909308058093A8
:102C5000070580E58093410530913C058091400552
:102C600080933C0520913B0580913F0580933B0577
:102C700020933F0590913A0580913E0580933A0557
:102C800090933E058091390580937C0540913D05E8
:102C90004093390580933D053F5F309340053111E6
:102CA0000DC02F5F20933F05211108C09F5F9093B7
:102CB0003E05911103C08F5F80933D0580913505DE
:102CC0009091360590937E0580937D052091370580
:102CD00030913805309336052093350590933805AB
:102CE0008093370580912D0590912E0590933205A4
:102CF0008093310580912F05909130059093340594
:102D00008093330510922E0510922D0510923005F8
:102D100010922F05BEC3473099F08F5F8430F1F0D9
:102D2000282F30E0929FF001939FF00D1124E25A7A
:102D3000FB4F418D4111EFCF80937C05EF0110C017
:102D4000209721F0528D4A8D451738F7929FE00168
:102D5000939FD00D1124C25ADB4FDFCF80937C05A7
:102D6000209709F4D3C3D0930605C093050583E0EB
:102D70008A8F888F1E8A84E08F8B1B8E8091370507
:102D8000909138059D838C8380913505909136050F
:102D90009F838E8380912D0590912E059983888342
:102DA00080912F05909130059B838A8381E0898FE4
:102DB00080917F058C87809180058D87809181052A
:102DC0008E87809182058F8781E090E0998B888B38
:102DD00080913C058B8780913B058A8780913A05DD
:102DE000898780913905888781E090E00E94C248F8
:102DF00080914105982F907F913508F444C08295C9
:102E00008F7090E00597880F991F880F991F209168
:102E10007B05ED2DF0E0E817F9078CF5ED5EFA4F34
:102E200026A9211105C0D0927C0510927B052BC0EC
:102E3000213011F4D394EDCF2230E1F437A93430AE
:102E4000C9F4D0927C0520937B0580AD90E0982F4B
:102E5000882721AD822B90937E0580937D0581305C
:102E6000E2E09E0710F080E092E09B8B8A8B9D8BC6
:102E70008C8B09C037A9332311F0D30ECACFD0925F
:102E80007C0520937B0580E180934205809142057B
:102E900082608093420582E08093490594E090939C
:102EA0004A0580934B0510924C058CE290E090937C
:102EB00008058093070580E6A2C2E8011093060585
:102EC000009305051092040590914205F92FF470C6
:102ED000BF2E92FF03C0198E80E239C28091410556
:102EE00082958F70880F880F80937C056701C81AC0
:102EF000D108760184E1E81AF108F0920805E09221
:102F000007052F70223021F4892F8F73823111F140
:102F1000E114F10419F4892F8370E1F0209139054F
:102F2000D80118968C91189728135FC220913A0502
:102F300019968C911997281358C220913B051A961F
:102F40008C911A97281351C220913C051B968C91A5
:102F500028134BC294FF63C0F80160897189611521
:102F6000710509F45CC0C8010C960E94D9483091E3
:102F70003D0580915A04381352C020913E0580913E
:102F80005B0428134CC090913F0580915C0498131A
:102F900046C08091400540915D04841340C0D80133
:102FA0001C963C931C971D962C931D971E969C93E4
:102FB0001E971F968C931F975B968C915B97811140
:102FC00026C056969C91569758968C9158975A962B
:102FD0002C915A97821B292F269526952695821B80
:102FE000980F56969C93569787FD819557962C91EE
:102FF0005797322F36953695231B820F57968C9311
:103000005797969596959695890F58968C9381E04B
:1030100080930405F801808D828F118A108AD8016F
:1030200059962C91E22FEF708E2F90E0FC01319792
:10303000E830F10508F06AC28827EE58FF4F8F4F3D
:103040000C94014F8091040580FF60C283E0F80179
:10305000818F80E480930405118A108AE114F104C1
:1030600009F403C182E480930405C7010E94C248A9
:10307000FCC08091040580FF76C0809142058F736B
:10308000823109F070C080914105982F907F913571
:1030900008F449C082958F7090E00597880F991FBA
:1030A000880F991F20917B05EB2DF0E0E817F907B9
:1030B000B4F5ED5EFA4F26A9211105C0B0927C054A
:1030C00010927B0530C0213011F4B394EDCF223043
:1030D00009F537A93430F1F4B0927C0520937B05D3
:1030E00080AD90E0982F882721AD822B90937E05AC
:1030F00080937D058130F2E09F0710F080E092E040
:10310000D80153969C938E93529755969C938E9389
:10311000549709C037A9332311F0B30EC5CFB0922D
:103120007C0520937B0583E0F801818F8091390530
:10313000808780913A05818780913B0582878091C5
:103140003C05838781E090E00E94C24882E480933E
:103150000405D80151961C921E92509710920805B2
:103160001092070582C080E2809304050E94860EBB
:10317000E801198E61CD8091420580FF27C024FDB2
:1031800025C0F80180899189892B09F0BFC1C6014A
:1031900043970E94C24880910405982F90619093B4
:1031A0000405EF2819F08261809304050E94860EC1
:1031B00081E090E0D80151969C938E93509788E0DF
:1031C00059968C9359975B961C926DC085FF15C0DC
:1031D0008091470590E0982F882730914805832BF0
:1031E000AC01475B5A4F50930A0540930905E81A12
:1031F000F90AF0920805E092070540910705509101
:1032000008054115510551F024FD08C090910405B1
:10321000926090930405CA010E94C24880914305C0
:1032200090E0982F882720914405820F911D90935C
:103230007E0580937D05F801248935892817390793
:1032400010F0892B21F430937E0520937D05809129
:103250007D0590917E05D80153969C938E9352974D
:1032600080910405837009F451C110928605109273
:1032700085050E94860E8091040585FF07C0109287
:10328000860510928505198E84E1B0C084FF0DC0BB
:10329000109286051092850581E090E0998B888BCD
:1032A00084E0898F1B8E81E1A1C02091850530913A
:1032B000860521153105E1F080FF02C0198A188AC0
:1032C00088899989009781F48A899B898217930755
:1032D00020F49093860580938505809185059091D3
:1032E0008605998B888B04C090938605809385050D
:1032F0001B8E809183059091840590930A0580939D
:1033000009058091850590918605892B59F088895A
:103310009989009739F0889690930805809307055E
:1033200088E10BC08091040581FFF0C088E290E045
:10333000909308058093070580E1809342055EC065
:103340008091040580FFE2C0E801198E80E180933E
:1033500004050E94860EDAC0E114F10419F0C701D9
:103360000E94C248909142058091040590FF0EC0D2
:1033700080FF07C087E0F801818F128E118A108AC2
:103380001BC086E0D80159968C9316C080FF1EC0E2
:1033900085E0E801898F198A188AB8C0E114F10420
:1033A00019F0C7010E94C2488091420580FF0EC0FB
:1033B00087E0F801818F128E81E090E00E94C24880
:1033C00080E1809304050E94860E0FC0EF2869F407
:1033D0009DC08091040580FF99C087E0D80159966F
:1033E0008C9359975A961C9291C080E18093420524
:1033F00088E290E0909308058093070580E580932C
:103400004105888580933D05898580933E058A85A1
:1034100080933F058B85809340058C85809339058B
:103420008D8580933A058E8580933B058F858093AB
:103430003C0586E080932A058C819D81909336051A
:10344000809335058E819F81909338058093370551
:1034500010922E0510922D051092300510922F0516
:103460008881998190933205809331058A819B816F
:103470009093340580933305898D84FF05C01092A5
:1034800044051092430505C082E0809343051092E5
:10349000440580E4809329058091070590910805F3
:1034A00090932305809324051092480510924705B8
:1034B000109246051092450586E011D680959095AC
:1034C000909346058093450585E4809321051092ED
:1034D0002205109228051092270580917905909178
:1034E0007A05019690937A05809379059093250546
:1034F0008093260510922C0510922B057CD6809582
:10350000909590932C0580932B0504C0109208058C
:103510001092070510920405DF91CF911F910F9132
:10352000FF90EF90DF90CF90BF9008950F931F937F
:10353000CF93DF93DC0120917705309178052F5FE1
:103540003F4F21158DE7380710F020E030E1522F72
:10355000432FE6EDF4E080E0843041F0C481D58172
:103560008F5F3B96C417D507B9F7E9CF309378053D
:103570002093770590E08BE09430D1F0292F30E054
:1035800041E0490F829FF001839FF00D1124EA5220
:10359000FB4FEF01249604811581012B39F49093A0
:1035A0007C05309741F480E090E02EC0942FE4CF6A
:1035B00090937C05F8CF80917705909178059827B6
:1035C000892798279983888377836683109729F4BE
:1035D00010821182128213820BC08D919C911197DF
:1035E0009183808312968D919C911397938382830C
:1035F0008BE0829FD001839FB00D1124AA52BB4F54
:1036000080E418968C93CF01DF91CF911F910F9199
:103610000895DC011C96ED91FC911D97309731F0D7
:1036200086819781982789279827089580E090E0E0
:103630000895CF93DF93FC01EB01AC85BD85109716
:1036400091F012969C91129713968C9113973C913E
:1036500011962C9147EC52E05183408332832383AF
:103660009483858308C087EC92E0918380831282E3
:10367000138214821582CF01DF91CF910895CF93E9
:10368000DF931F92CDB7DEB7DC01ED91FC91048C86
:10369000F58DE02D41E050E0BE016F5F7F4F199541
:1036A000181619061CF4898190E002C08FEF9FEF75
:1036B0000F90DF91CF910895CF93DF931F92CDB7F5
:1036C000DEB76983DC01ED91FC910280F381E02D8E
:1036D00041E050E0BE016F5F7F4F19950F90DF9181
:1036E000CF91089580E00895CF93DF93EC010E947D
:1036F000850E89890E945C31198ADF91CF910895E6
:10370000CF93DF93EC010E94850E8989DF91CF91E1
:103710000C94B133CF93DF93EC010E94850E89891D
:1037200081110E945C318889898B188ADF91CF9141
:103730000C94B1330F931F93CF93DF931F92CDB7A8
:10374000DEB78C010E94850EF8018189882391F0F3
:1037500041E050E060E070E00E9477338C01BE01F0
:103760006F5F7F4F0E947C310130110519F4898110
:1037700090E002C08FEF9FEF0F90DF91CF911F91EC
:103780000F910895CF92DF92EF92FF920F931F93C4
:10379000CF93DF931F921F92CDB7DEB77C016B01F1
:1037A00049835A830E94850EF701818949815A8194
:1037B000882351F160E070E00E9477338C01B601FC
:1037C0000E947C31F701D1888D2D0E94B1330817FA
:1037D000190731F48D2D0E945C31F701118A12C056
:1037E00085E0D89EF0011124EA54F84F8081918140
:1037F000800F911F9183808382819381801B910B25
:1038000093838283C80102C080E090E00F900F9004
:10381000DF91CF911F910F91FF90EF90DF90CF90AC
:103820000895CF93DF93EC018A89882369F09A0188
:10383000AB016E857F850E9433332E853F85280F2F
:10384000391F3F872E8702C080E090E0DF91CF9143
:103850000895CF93DF93DC011C96ED91FC911D97A9
:103860003097B1F0EC0115821482128611861D8604
:103870001C8689890E945C3188890E945C318A8912
:103880000E945C312E9686E0FE0111928A95E9F73E
:10389000DF91CF910895CF92DF92EF92FF920F9335
:1038A0001F93CF93DF9300D01F92CDB7DEB78C016B
:1038B0006B017A010E94850EF60182819381A481B9
:1038C000B581892B8A2B8B2B41F1E114F10429F16D
:1038D000828190E0982F88272381822B982789273F
:1038E00098279A838983248130E0322F22274581CB
:1038F000242B3227232732273C832B83D8011C9685
:10390000ED91FC911D977E2D6F2D309729F17783D6
:1039100066839183808333832283D8011C968D91A3
:103920009C911D97892BA9F052968C91811111C001
:1039300086E096E00E949032F801828B2AE230E025
:103940003787268721E090E0811101C020E0822F97
:1039500014C080E090E011C0CE010196E7DDD801EF
:103960001D969C938E931C97009799F39801225F64
:103970003F4FFC0132872187D0CF0F900F900F90DF
:103980000F90DF91CF911F910F91FF90EF90DF90FB
:10399000CF9008950F931F93CF93DF93EC018B018A
:1039A0008C859D85892B39F460E070E080E090E0A3
:1039B000BDDD9D878C87EC85FD85309751F0102704
:1039C00001271027158304832E96D287C18781E0B3
:1039D00001C080E0DF91CF911F910F910895CF93A7
:1039E000DF93EC010E949B1220910705309108059E
:1039F0009091E8052A32310521F41092E9059D7F66
:103A000003C01D821C8292609093E805DF91CF91E4
:103A10000C944C0ECF93DF93EC018C859D85892B04
:103A200019F480E090E023C0EA89EE23D1F381E02D
:103A30008B8B8E859F8525E0E29FF0011124EA544F
:103A4000F84F938382838C859D85909303058093A3
:103A5000020585E00E94CC1380910705909108052E
:103A6000892BF9F2CE010E96BADF81E090E0DF916A
:103A7000CF9108954F925F926F927F928F929F9213
:103A8000AF92BF92CF92DF92EF92FF920F931F936C
:103A9000CF93DF93CDB7DEB7E5970FB6F894DEBFCF
:103AA0000FBECDBF7C018B016A0187EC92E09A8347
:103AB00089831C861B8648EE53E060E070E04D87EA
:103AC0005E876F87788B2FE632E03A8729871E8AD8
:103AD0001D8AFE01779626E0DF011D922A95E9F7FF
:103AE0009AA789A71BA61CA61DA61EA680911C0727
:103AF00090911D07A0911E07B0911F078F8F98A36B
:103B0000A9A3BAA38B839C83AD83BE8318861F822F
:103B1000F801D8018D91882331F08E32D9F380538A
:103B20008A30C0F34EC080E090E020E030E05AE000
:103B30004191442311F1243031050CF042C04E3242
:103B400081F48F3F910509F0E4F5ABE2B0E0AC0FF2
:103B5000BD1FA20FB31F8C932F5F3F4F80E090E0FB
:103B6000E7CF589FB001599F700D1124842F440F47
:103B7000990BC097860F971FDBCF8F3F910509F0F8
:103B800004F524303105ECF4FE01E20FF31F83A7A6
:103B9000D701ED91FC910488F589E02D87EC92E046
:103BA0009E8F8D8F8BA59CA5ADA5BEA58F8F98A34D
:103BB000A9A3BAA3A601BE01635E7F4FC7011995F1
:103BC00012C24B815C816D817E8180912207909130
:103BD0002307A0912407B0912507481759076A07C2
:103BE0007B0709F4FEC10E9406316F7077277C5F66
:103BF000CE010996CFDE813009F0F0C187EC92E06A
:103C00009E8F8D8F8B819C81AD81BE818F8F98A37C
:103C1000A9A3BAA345E350E0BE01635E7F4FCE0186
:103C2000099639DE892B19F400E010E0B7C10E9433
:103C3000063178876F8342E050E0BE01695F7F4FB5
:103C4000CE010996EEDD81E090E09E8F8D8F42E0FF
:103C500050E0BE01635E7F4FCE010996E2DD80E059
:103C600091E09E8F8D8F42E050E0BE01635E7F4FFA
:103C7000CE010996D6DD1E8E1D8E42E050E0BE01BB
:103C8000635E7F4FCE010996CCDD42E050E0BE017D
:103C9000635E7F4FCE010996C4DD42E050E0BE0175
:103CA000635E7F4FCE010996BCDD5801F50180812E
:103CB000882309F1F8015F018191811115C0450147
:103CC000801A910A1814190494F48FA641E050E068
:103CD000BE01615D7F4FCE010996A3DDA401B8014D
:103CE000CE0109969EDD03C08E3229F7E8CF85010B
:103CF0000F5F1F4FDBCF1FA641E050E0BE01615DAB
:103D00007F4FCE0109968DDD00E011E01E8F0D8FF3
:103D100042E050E0BE01635E7F4FCE01099681DD37
:103D20001E8F0D8F42E050E0BE01635E7F4FCE01DB
:103D3000099677DDCE0109966DDE892B09F474CFE3
:103D400083E0A82EB12C0E9406312B013C01CE014C
:103D50000996E0DC18161906ACF00E940631DC0169
:103D6000CB0184199509A609B70989389341A105A2
:103D7000B10508F002C162E370E080E090E00E94CB
:103D8000CE30E5CF4B805C806D807E80BE01675F6A
:103D90007F4FCE014D964DDC8F8D98A1A9A1BAA180
:103DA000481659066A067B0609F0EAC0CE01099654
:103DB00030DCC59709F0E4C0CE010996A1DC0C9770
:103DC0000CF4E1C04CE050E0BE01635E7F4FCE01D9
:103DD00009960E94AF0D8F8D98A198278927982763
:103DE0009CAB8BAB4F8158852D8D3E8D4217530771
:103DF00011F497FD06C0CE01099676DC0CEF1FEF9B
:103E0000C4C08F709270892B31F0CE0109966CDCA2
:103E10000BEF1FEFBAC00BA11CA110270127102721
:103E20000115110531F4CE0109965EDC0AEF1FEF92
:103E3000ACC0812C912C89A19AA198278927982719
:103E40008816990648F541E050E0BE01615D7F4F5C
:103E5000CE0109960E94AF0D8FA5811113C08FA5C9
:103E60008111F1CFCE0109960ADCCE01099607DC5B
:103E7000CE01099604DCCE01099601DC2FEF821AEF
:103E8000920AD9CF8FA59FEF980F9FA7882339F368
:103E9000CE010996F4DBF6CF812C912C41E050E065
:103EA000BE016B5C7F4FCE0109960E94AF0D8DA9BC
:103EB000982F907C61F4882371F08DA99FEF980F63
:103EC0009DAB882341F0CE010996D9DBF6CFCE0118
:103ED0000996D5DB1DAA8DA98111E0CF42E050E003
:103EE000BE016F5C7F4FCE0109960E94AF0D42E08C
:103EF00050E0BE01615D7F4FCE0109960E94AF0D7B
:103F0000CE010996BCDBCE010996B9DBCE0109963C
:103F1000B6DBCE010996B3DB42E050E0BE016D5C3A
:103F20007F4FCE0109960E94AF0D89A99AA98115EC
:103F3000914029F48FA598A981159140C1F1612C78
:103F4000712C8BA99CA99827892798276816790630
:103F500038F4CE01099693DBEFEF6E1A7E0AF1CFAB
:103F6000FFEF8F1A9F0A8016910609F097CFCE01B6
:103F70000996BADB06EF1FEF08C00FEF1FEF05C071
:103F80000EEF1FEF02C00DEF1FEF21E0A21AB108E4
:103F900029F00F3F8FEF180709F4D5CECE0109960F
:103FA00058DC0130110509F4F3CDC8011CC08BA900
:103FB0009CA98115944031F0CE01099695DB07EF5D
:103FC0001FEFE3CF44E050E0BE01655D7F4FCE01BF
:103FD00009960E94AF0D01E010E0D7CF80E090E09D
:103FE00002C08EEF9FEFE5960FB6F894DEBF0FBECE
:103FF000CDBFDF91CF911F910F91FF90EF90DF9098
:10400000CF90BF90AF909F908F907F906F905F9078
:104010004F900895FF920F931F93CF93DF93E091FA
:104020000205F0910305C185D285209709F451C09E
:104030008091040581FF31C0FA80F1102EC080917B
:104040003505909136059783868380912D05909153
:104050002E059183808380912F0590913005938365
:1040600082838091390590913A059827892798276E
:10407000089719F00E949032F82EFA82FF2069F01A
:104080008F2D0E94B1338C012AE230E04091E70588
:1040900060E070E08F2D0E94CC338091040583FF97
:1040A00018C08D818823A9F08C818093E9058AE26C
:1040B0008093E605688179816A52710980910905CA
:1040C00090910A05DF91CF911F910F91FF900C9471
:1040D000B813DF91CF911F910F91FF900895EF9248
:1040E000FF920F931F93CF93DF93C82FE090240587
:1040F000F12C84E1E81AF1082091230530E0322FF9
:104100002227E20EF31E48E050E06DE275E0C701A1
:104110008C0F911D0E94270EC13131F0C0914105D5
:10412000C695C695CC7301C0C8E0D0E0AE0165E38A
:1041300075E00E94270E8C01CE15DF0508F04CC0FB
:10414000A7014C1B5D0BBE016E5D7F4F8091E905A1
:104150000E947733EC01219760E085E30E94F62FFF
:104160008AE38EBD0DB407FEFDCFA80160E070E0CC
:104170006C177D07C8F41EBC0DB407FEFDCF2EB52D
:1041800030E0322F22271EBC0DB407FEFDCF8EB5C6
:10419000280F311D420F531F4217530710F44F5F72
:1041A0005F4F6E5F7F4FE4CF8A016C177D0781F40C
:1041B0001EBC0DB407FEFDCF8EB590E0982F88276A
:1041C0008A01080F191F0817190710F40F5F1F4FF6
:1041D00061E085E30E94F62F0115110519F0902F7B
:1041E000812F02C08FEF9FEFDF91CF911F910F9131
:1041F000FF90EF90089544E150E061E275E080E0C7
:1042000090E00E94270E009721F098278927982791
:1042100008958FEF9FEF0895EF92FF920F931F93F2
:10422000DC01ED91FC910288F389E02D780101E039
:1042300010E019951F910F91FF90EF900895EF9264
:10424000FF920F931F93DC01ED91FC910288F3899B
:10425000E02D7801890121E030E019951F910F913F
:10426000FF90EF90089508952F923F924F925F92A2
:104270006F927F928F929F92AF92BF92CF92DF9276
:10428000EF92FF920F931F93CF93DF93CDB7DEB7DB
:104290002D970FB6F894DEBF0FBECDBF9D878C87DC
:1042A0006A30A1F4DC0154962C9154971E968D919E
:1042B0009C911F97B8E02B9F800D911D1124EC85D8
:1042C000FD859787868715861486FBC06D3009F4B7
:1042D000F8C0AC85BD855496BC91B983EC85FD854D
:1042E0000288F389E02DFD83EC83AC85BD85509673
:1042F0000D90BC91A02DBF83AE83EC85FD85868497
:104300009784C484D58480859185C816D906C4F065
:10431000AC85BD8554964C915497242F30E01C9663
:104320008D919C911D97B6E04B9F800D911D11249E
:10433000EC85FD8595878487468941119EC0C1C063
:10434000AC85BD851A968D919C911B978816990610
:10435000FCF6B981AB2EB12CC601E6E0BE9F800D04
:10436000911D1124181619069CF6C50123E0880F2B
:10437000991F2A95E1F7880D991D1816190644F61C
:10438000AC85BD8557968C91811103C0603B08F0C8
:104390006F5FB5E06B9FB001112416011A82FB011B
:1043A000EC19FD09F987E8879401285F3F4F3B87A7
:1043B0002A873A81353049F0E885F985E20DF31D09
:1043C000E756FD4F54915B8301C01B8224013401E9
:1043D0008B8180FF13C0AC85BD85ED91FC91B981C7
:1043E000B13031F40084F185E02D2E813F8119C078
:1043F0000288F389E02DEE80FF801EC0EC81FD81F4
:104400002E813F81E217F307F1F0AC85BD85ED9178
:10441000FC91B981B13059F40084F185E02D2C81F3
:104420003D81A301B1018C859D8519950CC0028841
:10443000F389E02DEC80FD8085019501A201B60194
:104440008C859D851995EB81E695EB83FFEF6F1ABF
:104450007F0A4A0C5B1C2A853B856216730609F0AD
:10446000B7CF3A813F5F3A835FEF251A350ACA0C0E
:10447000DB1C363009F09DCF4BCF4AEF4203B00131
:10448000439F700D1124AC85BD8518964D915C91AC
:104490001997460F571F481759079CF483E0220FBE
:1044A000331F8A95E1F71E968D919C911F97280FD7
:1044B000391F1F963C932E931E971D961C921E9299
:1044C0001C9781E090E02D960FB6F894DEBF0FBEEA
:1044D000CDBFDF91CF911F910F91FF90EF90DF90B3
:1044E000CF90BF90AF909F908F907F906F905F9094
:1044F0004F903F902F900895EF92FF920F931F934C
:10450000DC01ED91FC9111971A960D911C911B976E
:1045100018962D913C9119970288F389E02D7B0123
:1045200040E050E060E070E019951F910F91FF901E
:10453000EF9008956F927F928F929F92AF92BF9269
:10454000CF92DF92EF92FF920F931F93CF93DF935F
:104550006C015A014801EB013B01620E731EC61546
:10456000D70574F4D601ED91FC910484F585E02D16
:1045700087019401A501BE01C60119952196EFCFCF
:10458000DF91CF911F910F91FF90EF90DF90CF902F
:10459000BF90AF909F908F907F906F900895EF9213
:1045A000FF920F931F93DC01ED91FC91260F371FB3
:1045B000215031090284F385E02D78018A01199593
:1045C0001F910F91FF90EF900895EF92FF920F933C
:1045D0001F937801DC01ED91FC91240F351F8901B7
:1045E000015011090284F385E02D9B0119951F915B
:1045F0000F91FF90EF9008956F927F928F929F920C
:10460000AF92BF92CF92DF92EF92FF920F931F93E0
:10461000CF93DF93EC014B015A0169013801E88126
:10462000F9810684F785E02D87011995E881F981E4
:10463000A501460D571D415051090684F785E02D0F
:104640009601B401CE011995E881F9810484F585BC
:10465000E02D9301A501B401CE011995E881F981FE
:10466000C80CD91CB601615071090484F585E02D90
:104670009301A501CE011995DF91CF911F910F9163
:10468000FF90EF90DF90CF90BF90AF909F908F9072
:104690007F906F9008952F923F924F925F926F920A
:1046A0007F928F929F92AF92BF92CF92DF92EF92C2
:1046B000FF920F931F93CF93DF9300D0CDB7DEB758
:1046C0004C017B836A836A01590117019801241BFD
:1046D000350B37FF03C0319521953109C5014A815A
:1046E0005B81841B950B97FF03C091958195910980
:1046F00051E059838217930714F019820BC09A2D49
:104700008B2D5801092F182F9A818B81DB82CA8249
:10471000C92ED82E8A819B81A816B9065CF49C2DDF
:104720008D2D6801092F182F9A818B81BB82AA8257
:10473000A92EB82E2501AA81BB814A1A5B0A38012D
:104740006C187D0877FE03C0719461947108720142
:1047500057FE03C0BFEFEB1AFB0AF594E794C016AF
:10476000D1061CF00FEF1FEF1FC001E010E01CC0CE
:10477000D401ED91FC91B9810084F185E02D910186
:10478000BB23C1F04A815B81B601C4011995E618CB
:10479000F708F7FE04C0C00ED11EE40CF51CEA8138
:1047A000FB813196FB83EA834A815B81A416B506BF
:1047B000FCF604C0A6016A817B81E7CF0F900F90C1
:1047C0000F90DF91CF911F910F91FF90EF90DF90AD
:1047D000CF90BF90AF909F908F907F906F905F90A1
:1047E0004F903F902F900895CF93DF938B988A98A6
:1047F000E0910201292F3327E901C07CDD27F3E096
:10480000D595C795FA95E1F7D901A370BB27D5E0F7
:10481000AA0FBB1FDA95E1F77C2F7A2BE7787E2B66
:104820007093020175B1F901EC72FF27EE0FFF1FC3
:10483000EE0FFF1F7F74E72BE5B974B320713327A8
:10484000220F331F372F3F7D232B24BB8998899A52
:1048500030910201DC01A07CBB27C3E0B595A79590
:10486000CA95E1F7FC01E370FF27D5E0EE0FFF1FCB
:10487000DA95E1F72A2F2E2B3778232B209302018C
:1048800075B19C012C723327220F331F220F331F67
:10489000372F3F74232B25B974B39C012071332724
:1048A000220F331F372F3F7D232B24BB8998899AF2
:1048B0008A9AFA017FEF760F16160CF094C02191B8
:1048C00040910201322F307C369536953695522F25
:1048D000537060E2569FD00111243A2B4778342B55
:1048E0003093020165B1322F3C72A4E03A9FA001DF
:1048F0001124362F3F74432B45B934B32071220F56
:104900003F7D232B24BB8998899A772309F469C0BA
:104910002091A303222309F464C001968A98509140
:104920000201292F3327E901C07CDD2743E0D5951B
:10493000C7954A95E1F7D901A370BB2765E0AA0F97
:10494000BB1F6A95E1F74C2F4A2B5778452B4093B4
:10495000020165B1A9014C725527440F551F440F40
:10496000551F562F5F74452B45B944B3207133272B
:10497000220F331F342F3F7D232B24BB8998899A24
:1049800030910201DC01A07CBB27C3E0B595A7955F
:10499000CA95E1F7AC0143705527D5E0440F551F88
:1049A000DA95E1F72A2F242B3778232B2093020165
:1049B00045B19C012C723327220F331F220F331F66
:1049C000342F3F74232B25B944B39C012071332726
:1049D000220F331F342F3F7D232B24BB8998899AC4
:1049E0008A9A672F67CF8B9ADF91CF910895CF93E3
:1049F000DF938B988A98E2E0F1E05081292F3327EA
:104A0000E901C07CDD2743E0D595C7954A95E1F7DC
:104A1000D901A370BB27D5E0AA0FBB1FDA95E1F738
:104A20004C2F4A2B5778452B4083A5B1A9014C72D6
:104A30005527440F551F440F551F5A2F5F74452BA0
:104A400045B944B320713327220F331F342F3F7DE4
:104A5000232B24BB8998899A3081DC01A07CBB2759
:104A6000D3E0B595A795DA95E1F7AC0143705527EA
:104A700025E0440F551F2A95E1F72A2F242B37787C
:104A8000232B208345B19C012C723327220F331F27
:104A9000220F331F342F3F74232B25B924B3807189
:104AA0009927880F991F922F9F7D892B84BB899806
:104AB000899A8A9A3081872F9927DC01A07CBB27AD
:104AC000C3E0B595A795CA95E1F7AC0143705527AA
:104AD000D5E0440F551FDA95E1F72A2F242B3778BC
:104AE000232B208345B19C012C723327220F331FC7
:104AF000220F331F342F3F74232B25B924B3807129
:104B00009927880F991F922F9F7D892B84BB8998A5
:104B1000899A9081AB01407C5527B3E05595479524
:104B2000BA95E1F79B0123703327C5E0220F331FAD
:104B3000CA95E1F7842F822B9778892B808325B142
:104B4000CB018C729927880F991F880F991F922F7C
:104B50009F74892B85B984B360717727660F771F9F
:104B60008F7D682B64BB8998899A8B9ADF91CF914E
:104B70000895EF92FF920F931F93CF93DF93CDB7DA
:104B8000DEB72A970FB6F894DEBF0FBECDBF7C010B
:104B9000862F8370D70155968C935597462F417079
:104BA00060FF05C016962D913C91179703C0F70141
:104BB00024813581D70119963C932E93189744236D
:104BC00029F014962D913C91159703C0F701268189
:104BD0003781D7011B963C932E931A97823041F070
:104BE000833041F0813011F088E405C088E203C0D1
:104BF00088E901C088EF8A87F701228D338D30FF65
:104C000003C08A8580588A8731FF04C09A8580E472
:104C100089278A8733FF04C09A8588E089278A8795
:104C2000D7015C968D919C915D9720FFD1C0843116
:104C3000B8E69B07F1F49A85892F881F8827881F7B
:104C40008295880F880F807C96FD02C020E001C00D
:104C500020E298729A871F828260822B88878BE37A
:104C60008987AE01495F5F4F63E086EB90E0BCDD72
:104C700084C08336E9E19E0741F08138F4E99F075B
:104C800021F0813125E1920709F52A8527FF02C02D
:104C900021602A872A8526FF02C022602A87833660
:104CA00039E1930719F48A858F730EC0813844E97E
:104CB000940719F48A858F7207C08131954109F0F4
:104CC0005CC08A858F7E806C8A8757C02091A30341
:104CD000222309F452C062E070E0F70175A364A3D7
:104CE00026E030E037A326A3E2E2F0E0D701999670
:104CF000FC93EE9398979B967C936E939A9764E0BF
:104D000070E09D967C936E939C979F963C932E9318
:104D10009E9728E030E0D1963C932E93D09785362D
:104D2000910501F59A8594FD03C081E889278A875A
:104D3000442351F082E890E0F70195A384A380E832
:104D400090E097A386A32EC080E890E0D7019596C7
:104D50009C938E93949782E890E097969C938E9381
:104D6000969720C082359245E9F48A8584FD02C079
:104D7000826001C086608A8715C02AE230E0F701B0
:104D800035A324A38BE290E097A386A34CE250E0E6
:104D900051A740A733A722A735A724A797A786A77F
:104DA00091AB80AB8091A303811103C086E390E0B7
:104DB00002C086E190E0AE01465F5F4F61E014DD26
:104DC0008A8590E0D70191969C938E939097E3C04B
:104DD0002A858339B7E79B0709F448C050F4843526
:104DE000F1E09F0781F0803234E5930709F081C03C
:104DF0003DC0863243E99407C9F18930A5EB9A0793
:104E000009F077C033C087E390E0F70193A782A74A
:104E100086E390E095A784A789E390E097A786A70B
:104E200088E390E091AB80AB80E290E095A384A30F
:104E300081E290E097A386A382E290E091A780A709
:104E4000822F022E000C990B8827990F881F992713
:104E5000982F8827990F26FD03C060E070E002C0FC
:104E600060E071E08862682B792B81C040E052E0FD
:104E7000D70195965C934E93949741E052E09796B4
:104E80005C934E93969742E052E099965C934E93D2
:104E9000989740E152E09B965C934E939A9741E13C
:104EA00052E09D965C934E939C9742E152E09F9610
:104EB0005C934E939E9743E152E0D1965C934E9360
:104EC000D09727FD03C020E030E002C020E030E8AA
:104ED0008632B3E99B0731F08032944519F060E0E7
:104EE0007AE602C060E075E3622B732B80E094E009
:104EF00035C080E290E0D70195969C938E9394976D
:104F000081E290E097969C938E93969782E290E050
:104F100099969C938E93989780E590E09B969C93AE
:104F20008E939A9781E590E09D969C938E939C97A3
:104F300082E590E09F969C938E939E9783E590E008
:104F4000D1969C938E93D09727FD03C060E070E0CC
:104F500002C060E070E8776280E690E048DD8A8514
:104F600086FD03C060E070E002C060E071E081E0B7
:104F700090E03DDD8A8585FD03C060E070E002C001
:104F800068E070E083FD70616063F70171A360A366
:104F900083E090E02CDDD70155968C91559780FFEA
:104FA00036C05A968D919C915B9792FD30C0949635
:104FB0008D919C91959796962D913C91979795966A
:104FC0003C932E93949797969C938E9396979A964C
:104FD0008D919C919B979E962D913C919F979B962E
:104FE0003C932E939A979F969C938E939E979C9614
:104FF0008D919C919D97D0962D913C91D1979D96A6
:105000003C932E939C97D1969C938E93D097F701C7
:105010000285138501501109208531852150310900
:1050200040E050E060E070E0C7010E945410D701FA
:1050300016966D917C9117975C968D919C915D97DA
:105040008732B3E99B0749F4F701258922502230C2
:1050500008F49EC000E010E09DC000E010E020E0F9
:1050600030E0D7015A964C9140FF46C01982102F6C
:105070000A837B836C831D822E838091A30381111D
:1050800003C083E390E002C08EE090E0AE014F5F8A
:105090005F4F66E0A9DB19821A838091A303811117
:1050A00003C087E390E002C084E190E0AE014F5F6F
:1050B0005F4F62E099DB8091A303882389F0198216
:1050C000F701848D958D8734934819F081E090E045
:1050D00002C088E190E0AE014F5F5F4F61E00AC01F
:1050E000D7015A968C9180FF5AC040E050E060E0B2
:1050F00083E190E079DB53C08339B7E79B0779F10F
:1051000060F48032F4E59F0751F1833827E7920776
:1051100091F08435914081F512C0863243E99407BD
:10512000F1F028F485529249029748F025C0893061
:10513000954BA9F021C0F701668D778D21C0600FD6
:10514000711F6150710981E390E051DCB80182E385
:1051500090E04DDC60E070E083E390E017C0D701A1
:105160005E966D917C915F97626081E094E03FDC98
:10517000B80184E094E00AC0F701668D778D626023
:1051800081E690E034DCB8018AE690E030DC07C0CC
:1051900000E210E020E230E0201B310B62CF2A96C3
:1051A0000FB6F894DEBF0FBECDBFDF91CF911F9138
:1051B0000F91FF90EF9008950F931F93CF93DF937C
:1051C000EC0188819981009729F02A813B8126177B
:1051D000370788F48B016F5F7F4F0E944A5000971A
:1051E00061F0998388831B830A832C813D81232B63
:1051F00011F4FC01108281E001C080E0DF91CF91C9
:105200001F910F910895EF92FF920F931F93CF93E9
:10521000DF93FC01248135816115710511F480E073
:1052200018C041155105A1F07B01EC018A01020F64
:10523000131FB801C1DF882391F3288139818C8144
:105240009D81B701820F931F0E9442511D830C83E1
:1052500081E0DF91CF911F910F91FF90EF90089522
:10526000CF93DF93EC0188819981009711F00E9420
:10527000B24F198218821D821C821B821A82DF9112
:10528000CF910895E5E3F6E0A089B18982E08C939F
:10529000A485B5851C92A685B7858FEC8C93108E5E
:1052A000A489B58986E08C93A289B3898C918061A9
:1052B0008C93A289B3898C9188608C93A289B389DD
:1052C0008C9180688C930288F389E02D80818F7D9A
:1052D000808308952F923F924F925F926F927F92B8
:1052E0008F929F92AF92BF92CF92DF92EF92FF92F6
:1052F0000F931F93CF93DF93CDB7DEB7AC970FB665
:10530000F894DEBF0FBECDBF9C838B837B016A0107
:1053100059014617570784F48D2D261737070CF0CF
:10532000BAC169015B01E42EF82E22E231E03CA70C
:105330002BA764E571E00FC0241735070CF055C0AA
:105340009C2D8D2D6501A92EB82E44E551E05CA75A
:105350004BA762E271E036E8232E33243394CE1457
:10536000DF040CF0A5C19E2D8F2D7601C92ED82EFD
:105370009BA58CA5A6E8B1E0BCA7ABA7292E382E2B
:10538000EA14FB0409F03FC0B6E82B16B1E03B0677
:105390006CF09BA58CA5EBA5FCA5E215F30514F418
:1053A000922D832D2BA43CA49BA78CA7621573057B
:1053B00044F02BA53CA52617370714F47CA76BA750
:1053C000B101AB81BC81ED91FC9111972BA53CA55E
:1053D000261B370B2F5F3F4F0684F785E02D0FEF1D
:1053E0001FEFA701CD01199571C166E871E0E216C2
:1053F000F30609F462C184E591E09CA78BA722E241
:10540000222E33243394C101EBA5FCA58E1B9F0BE8
:1054100096012E193F09AB014E1B5F0B5E834D8336
:10542000D501AE19BF09BA87A987FB01E219F309B3
:10543000FE87ED87A5014C195D095E8B4D8BCA1463
:10544000DB0431F0B601615071097A8F698F02C0B7
:10545000DA8EC98E4701412C512C3201198A1A8AE1
:105460001B8A1C8AA901330F660B770B4B8F5C8F4D
:105470006D8F7E8F29853A85032E000C440B550BCA
:105480002F8F38A349A35AA3AC01990F660B770B52
:105490004BA35CA36DA37EA36D817E81072E000CC0
:1054A000880B990B6FA378A789A79AA7698D7A8D26
:1054B000681579050CF458C069897A898B899C89AB
:1054C0002B8D3C8D4D8D5E8D0E94BD4D8BA59CA579
:1054D000820F931F9A838983C301B2012F8D38A154
:1054E00049A15AA10E94BD4DABA5BCA52A0F3B1FE7
:1054F00049895A896B897C898BA19CA1ADA1BEA1E8
:10550000480F591F6A1F7B1F498B5A8B6B8B7C8BF3
:105510004FA158A569A57AA5440E551E661E771E93
:1055200069817A812617370734F499818A813A8311
:105530002983292F382FAB81BC81ED91FC911197E4
:1055400049815A81241B350B2F5F3F4F0684F78515
:10555000E02D0FEF1FEFA40169817A81CD0119952C
:105560005FEF851A950AA2CFC4018C199D09AD85FC
:10557000BE85A89F2001A99F500CB89F500C1124F4
:10558000052C000C6608770894012E193F09ED815F
:10559000FE81E29FC001E39F900DF29F900D1124C8
:1055A0006C01990FEE08FF082D893E89032E000C2F
:1055B000440B550B2D8B3E8B4F8B588F49855A854D
:1055C000052E000C660B770B49875A876B877C8703
:1055D000BD01072E000C880B990B6D877E878F8786
:1055E000988BCF01092E000CAA0BBB0B8D839E83D9
:1055F000AF83B887A814B9040CF468C0C301B20122
:105600002D893E894F89588D0E94BD4DD101A20F31
:10561000B31FBA83A983C701B60129853A854B8593
:105620005C850E94BD4DEBA5FCA52E0F3F1F4D854F
:105630005E856F857889440E551E661E771E6D81C6
:105640007E818F819885C60ED71EE81EF91E89813E
:105650009A812817390734F499818A813A832983FA
:10566000292F382FAB81BC81ED91FC911197498195
:105670005A81241B350B2F5F3F4F0684F785E02DA1
:105680000FEF1FEFA40169817A81CD0119955FEFBA
:10569000851A950AAFCF6B01E42EF82EA2E2B1E095
:1056A000BCA7ABA766E871E094E5292E33243394B8
:1056B000EA14FB0409F0A7CE6CCEE4E5F1E0FCA708
:1056C000EBA782E2282E3324339473CEAC960FB628
:1056D000F894DEBF0FBECDBFDF91CF911F910F9128
:1056E000FF90EF90DF90CF90BF90AF909F908F9002
:1056F0007F906F905F904F903F902F900895382F3C
:105700002091340690913306213208F049C08091EF
:1057100010068111FCCF42E04093100630930F0633
:105720003FEF30930E0610920D0620930C06A3E176
:10573000B6E04CEE55E0FA013E2F341B321718F458
:105740003D913193F9CF1092EB052091EB05990F24
:10575000922B9093EB059091EA05913061F41092B1
:10576000EA059091EB059093BB009091BC0093FDEE
:10577000F8CF95EC01C095EE9093BC009091100687
:105780009230E1F390910E069F3F79F080910E06E2
:10579000803241F080910E06803331F084E005C004
:1057A00081E003C082E001C083E0109212061092F3
:1057B0003406109211060895CF93C62FFC01808104
:1057C00091E0909311068093330610921206109286
:1057D000340661E086E297E00E9410056C2F86E2B5
:1057E00097E00E94100581E0CF9189CF8F929F9220
:1057F000AF92BF92CF92DF92EF92FF926B017C014A
:1058000005D54B015C01C60ED71EE81EF91EFED45D
:10581000681579058A059B0528F0C616D706E8069F
:10582000F906A8F7FF90EF90DF90CF90BF90AF9070
:105830009F908F900895CF93DF93EC0161157105D0
:1058400059F0FB0101900020E9F73197AF01461BA9
:10585000570BD9DC811102C0CE0102DDCE01DF91F0
:10586000CF910895CF93DF93EC01FB0144815581E3
:1058700060817181C8DC811102C0CE01F1DCCE01F2
:10588000DF91CF910895EF92FF920F931F93CF93E3
:10589000DF938C017B016115710561F0FB010190C3
:1058A0000020E9F73197EF01C61BD70BBE0184DC5E
:1058B000811103C0C801D4DC08C0F801D583C483BA
:1058C000B701808191810E944251C801DF91CF913F
:1058D0001F910F91FF90EF900895FC0180819181BD
:1058E0000C94B24F0F931F93CF93DF93CDB7DEB7D6
:1058F00062970FB6F894DEBF0FBECDBF8C01CB010F
:10590000F80111821082138212821582148250E0F3
:10591000BE016F5F7F4F0E94E049BE016F5F7F4F06
:10592000C801B1DF62960FB6F894DEBF0FBECDBFDF
:10593000DF91CF911F910F910895EF92FF920F93F6
:105940001F93CF93DF93EC01198218821B821A8276
:105950001D821C826115710511F18B01FB01019003
:105960000020E9F731977F01E61AF70AB70124DC36
:10597000811108C0CE01DF91CF911F910F91FF904F
:10598000EF906ECCFD82EC82B80188819981DF9125
:10599000CF911F910F91FF90EF900C944251DF91A6
:1059A000CF911F910F91FF90EF9008954F925F92CA
:1059B0006F927F92EF92FF920F931F93CF93DF939B
:1059C000CDB7DEB7A1970FB6F894DEBF0FBECDBF3F
:1059D0007C01FA01CB0119A2223008F42AE08E01E1
:1059E0000F5D1F4F422E512C612C712CBF01A30162
:1059F00092010E949B4DF901CA01015011096A30C0
:105A000014F4605D01C0695CD8016C93232B242BD6
:105A1000252B61F7B801C7011FD7A1960FB6F894DF
:105A2000DEBF0FBECDBFDF91CF911F910F91FF90D1
:105A3000EF907F906F905F904F9008950F931F931A
:105A4000CF93DF93EC0108D78C0168EE72E0CE01B2
:105A500003D7800F911FDF91CF911F910F91089570
:105A6000DC01ED91FC910190F081E02D19944F92B1
:105A70005F926F927F928F929F92AF92BF92CF92DE
:105A8000DF92EF92FF92CF93DF93EC016A017B01EB
:105A90009A01AB01C701B6010E94EA4E882319F0B2
:105AA00064E973E01AC046015701E894B7F82FEF94
:105AB0003FEF4FE75FE7C501B4010E94EA4E811155
:105AC00010C02FEF3FEF4FE75FE7C501B4010E9421
:105AD000824C181634F468E973E0CE01BDD67C011F
