:1000000050C400007FC400007DC400007BC4000019
:1000100079C4000077C4000075C4000073C40000F8
:1000200071C400006FC400006DC400006BC4000008
:1000300069C4000067C4000065C4000063C4000018
:1000400061C400005FC400005DC400005BC4000028
:1000500059C4000057C4000055C400000C94751723
:1000600051C400000C9423160C94FA154BC40000E4
:1000700049C4000047C4000045C4000043C4000058
:1000800041C400003FC400003DC400003BC4000068
:1000900039C4000037C4000035C400000C940A09BC
:1000A00031C400002FC400002DC400002BC4000088
:1000B00029C4000027C4000025C4000023C4000098
:1000C00021C400001FC400001DC400001BC40000A8
:1000D00019C4000017C4000015C4000013C40000B8
:1000E00011C4000088168B167A167E168216C21668
:1000F0008F16931699169D16A116A716AB16AF1656
:10010000C216B516B916BD161E203620AD209C218C
:10011000BC21DB21E321922100407A10F35A00A098
:10012000724E18090010A5D4E80000E876481700C0
:1001300000E40B54020000CA9A3B000000E1F50500
:10014000000080969800000040420F000000A0864A
:1001500001000000102700000000E803000000007C
:100160006400000000000A00000000000100000020
:1001700000002C76D888DC674F0823DFC1DFAE593A
:10018000E1B1B796E5E3E453C63AE651997696E8CD
:10019000E6C28426EB898C9B62ED407C6FFCEFBC51
:1001A0009C9F40F2BAA56FA5F490055A2AF75C937C
:1001B0006B6CF9676DC11BFCE0E40D47FEF520E6B2
:1001C000B500D0ED902E0300943577050080841E95
:1001D000080000204E0A000000C80C333333330FF0
:1001E000986E12831141EF8D2114893BE65516CF8D
:1001F000FEE6DB18D1844B381BF77C1D901DA4BB99
:10020000E424203284725E228100C9F124ECA1E54D
:100210003D27E50110E70110E80148EC0109ED0177
:100220006C23016F240157250171E201181B011590
:100230000101001C01031901017F051F018C1F0131
:10024000847F0A1F01947F0A1F01D47F05400D009F
:100250002B293E3D3F24740806070D17500D000260
:100260000116143F0B5B08121819175D01FF1601E8
:10027000082801207F282801387F2828013C020215
:100280000000040200EF060200000802018F800255
:10029000000082020000170105000022002500284E
:1002A000002B002E0031003400020100000501087F
:1002B000010B0101021020200808102040102040EE
:1002C000800201020108040201010204081020401A
:1002D0008080402010080402018004020180402038
:1002E0001008040201080402010102040810204061
:1002F0008001020408102040800505050507050857
:10030000080808020202020A0A0808040404040198
:1003100001010101010101030303030303030304BA
:100320000707070C0C0C0C0C0C0C0C02020202064A
:10033000060606060606060B0B0B0B0B0B0B0B003B
:10034000000000003E5B4F5B3E3E6B4F6B3E1C3E31
:100350007C3E1C183C7E3C181C577D571C1C5E7F45
:100360005E1C00183C1800FFE7C3E7FF00182418C4
:1003700000FFE7DBE7FF30483A060E2629792926F9
:10038000407F050507407F05253F5A3CE73C5A7FE3
:100390003E1C1C08081C1C3E7F14227F22145F5F39
:1003A000005F5F06097F017F006689956A60606073
:1003B000606094A2FFA29408047E040810207E20AE
:1003C0001008082A1C08081C2A08081E1010101003
:1003D0000C1E0C1E0C30383E3830060E3E0E060049
:1003E0000000000000005F00000007000700147F0D
:1003F000147F14242A7F2A12231308646236495674
:1004000020500008070300001C2241000041221C6C
:10041000002A1C7F1C2A08083E0808008070300053
:100420000808080808000060600020100804023E68
:100430005149453E00427F400072494949462141A9
:10044000494D331814127F1027454545393C4A4918
:100450004931412111090736494949364649492957
:100460001E00001400000040340000000814224167
:100470001414141414004122140802015909063EF0
:10048000415D594E7C1211127C7F494949363E41EB
:100490004141227F4141413E7F494949417F09090C
:1004A00009013E414151737F0808087F00417F41A7
:1004B000002040413F017F081422417F40404040DE
:1004C0007F021C027F7F0408107F3E4141413E7F36
:1004D000090909063E4151215E7F0919294626492D
:1004E00049493203017F01033F4040403F1F204004
:1004F000201F3F4038403F6314081463030478040E
:10050000036159494D43007F4141410204081020D5
:10051000004141417F04020102044040404040004C
:100520000307080020545478407F28444438384456
:10053000444428384444287F385454541800087ED2
:10054000090218A4A49C787F0804047800447D4024
:10055000002040403D007F1028440000417F4000C3
:100560007C047804787C080404783844444438FCDB
:100570001824241818242418FC7C0804040848545F
:1005800054542404043F44243C4040207C1C20401C
:10059000201C3C4030403C44281028444C90909013
:1005A0007C4464544C44000836410000007700004D
:1005B000004136080002010204023C2623263C1EAC
:1005C000A1A161123A4040207A385454555921551E
:1005D000557941225454784221555478402054553D
:1005E00079400C1E5272123955555559395454548C
:1005F0005939555454580000457C410002457D420C
:100600000001457C407D1211127DF0282528F07CE8
:10061000545545002054547C547C0A097F49324982
:100620004949323A4444443A324A4848303A4141CE
:10063000217A3A42402078009DA0A07D3D4242426E
:100640003D3D4040403D3C24FF2424487E494366D4
:100650002B2FFC2F2BFF0929F620C0887E090320B1
:10066000545479410000447D413048484A32384072
:1006700040227A007A0A0A727D0D19317D262929D5
:100680002F28262929292630484D402038080808D7
:100690000808080808382F10C8ACBA2F102834FAF8
:1006A00000007B000008142A142222142A14085582
:1006B00000550055AA55AA55AAFF55FF55FF000041
:1006C00000FF00101010FF00141414FF001010FFA2
:1006D00000FF1010F010F0141414FC001414F700B4
:1006E000FF0000FF00FF1414F404FC141417101F83
:1006F00010101F101F1414141F00101010F0000011
:1007000000001F101010101F10101010F01000002B
:1007100000FF101010101010101010FF100000003B
:10072000FF140000FF00FF00001F10170000FC0472
:10073000F414141710171414F404F40000FF00F755
:1007400014141414141414F700F7141414171410B8
:10075000101F101F141414F4141010F010F00000E7
:100760001F101F0000001F14000000FC140000F008
:1007700010F01010FF10FF141414FF141010101FAD
:1007800000000000F010FFFFFFFFFFF0F0F0F0F0BE
:10079000FFFFFF0000000000FFFF0F0F0F0F0F38DB
:1007A00044443844FC4A4A4A347E02020606027E29
:1007B000027E0263554941633844443C04407E2034
:1007C0001E2006027E020299A5E7A5991C2A492A45
:1007D0001C4C7201724C304A4D4D303048784830D4
:1007E000BC625A463D3E494949007E0101017E2ACC
:1007F0002A2A2A2A44445F444440514A44404044FF
:100800004A51400000FF0103E080FF000008086B30
:100810006B083612362436060F090F06000018182A
:100820000000001010003040FF0101001F01011EF8
:1008300000191D1712003C3C3C3C00000000000069
:10084000002100240027002A002D00300033000181
:10085000010000040107010A0100000A0B02090C53
:100860000D0E080703040100000000000000000056
:100870000000000000000000000000000000000078
:100880000000000000121110000000000000000035
:100890000000000000000000000000000000000058
:1008A000773C11241FBECFEFD1E2DEBFCDBF00E009
:1008B0000CBF15E0A0E0B2E0E2EBF9E800E00BBF0E
:1008C00002C007900D92A238B107D9F72AE0A2E83A
:1008D000B5E001C01D92AE3AB207E1F714E0C1E500
:1008E000D4E000E006C021970109802FFE010E949C
:1008F000A342C035D10780E00807A9F70E94B22FB4
:100900000C94D7447DCBEF92FF920F931F93DC01A1
:10091000ED91FC910288F389E02D780101E010E06F
:1009200019951F910F91FF90EF900895EF92FF920C
:100930000F931F93DC01ED91FC910288F389E02D68
:100940007801890121E030E019951F910F91FF9006
:10095000EF90089508952F923F924F925F926F9279
:100960007F928F929F92AF92BF92CF92DF92EF923F
:10097000FF920F931F93CF93DF93CDB7DEB72D97E1
:100980000FB6F894DEBF0FBECDBF9D878C876A304F
:10099000A1F4DC0154962C9154971E968D919C9154
:1009A0001F97B8E02B9F800D911D1124EC85FD85CC
:1009B0009787868715861486FBC06D3009F4F8C0CA
:1009C000AC85BD855496BC91B983EC85FD850288C4
:1009D000F389E02DFD83EC83AC85BD8550960D90A9
:1009E000BC91A02DBF83AE83EC85FD858684978462
:1009F000C484D58480859185C816D906C4F0AC8599
:100A0000BD8554964C915497242F30E01C968D91BF
:100A10009C911D97B6E04B9F800D911D1124EC8594
:100A2000FD8595878487468941119EC0C1C0AC85EC
:100A3000BD851A968D919C911B9788169906FCF698
:100A4000B981AB2EB12CC601E6E0BE9F800D911D91
:100A50001124181619069CF6C50123E0880F991F6A
:100A60002A95E1F7880D991D1816190644F6AC85EC
:100A7000BD8557968C91811103C0603B08F06F5F74
:100A8000B5E06B9FB001112416011A82FB01EC192D
:100A9000FD09F987E8879401285F3F4F3B872A8744
:100AA0003A81353049F0E885F985E20DF31DE15CC6
:100AB000FC4F54915B8301C01B82240134018B8164
:100AC00080FF13C0AC85BD85ED91FC91B981B1303B
:100AD00031F40084F185E02D2E813F8119C0028818
:100AE000F389E02DEE80FF801EC0EC81FD812E8118
:100AF0003F81E217F307F1F0AC85BD85ED91FC91E4
:100B0000B981B13059F40084F185E02D2C813D810B
:100B1000A301B1018C859D8519950CC00288F389CC
:100B2000E02DEC80FD8085019501A201B6018C8548
:100B30009D851995EB81E695EB83FFEF6F1A7F0A90
:100B40004A0C5B1C2A853B856216730609F0B7CFF9
:100B50003A813F5F3A835FEF251A350ACA0CDB1CE6
:100B6000363009F09DCF4BCF4AEF4203B001439F8F
:100B7000700D1124AC85BD8518964D915C91199727
:100B8000460F571F481759079CF483E0220F331F65
:100B90008A95E1F71E968D919C911F97280F391F1A
:100BA0001F963C932E931E971D961C921E921C9787
:100BB00081E090E02D960FB6F894DEBF0FBECDBF5A
:100BC000DF91CF911F910F91FF90EF90DF90CF9029
:100BD000BF90AF909F908F907F906F905F904F905D
:100BE0003F902F900895EF92FF920F931F93DC0197
:100BF000ED91FC9111971A960D911C911B971896E7
:100C00002D913C9119970288F389E02D7B0140E0FA
:100C100050E060E070E019951F910F91FF90EF9008
:100C200008956F927F928F929F92AF92BF92CF92D0
:100C3000DF92EF92FF920F931F93CF93DF936C019C
:100C40005A014801EB013B01620E731EC615D70520
:100C500074F4D601ED91FC910484F585E02D8701B3
:100C60009401A501BE01C60119952196EFCFDF9130
:100C7000CF911F910F91FF90EF90DF90CF90BF9099
:100C8000AF909F908F907F906F900895EF92FF921A
:100C90000F931F93DC01ED91FC91260F371F21501C
:100CA00031090284F385E02D78018A0119951F919D
:100CB0000F91FF90EF900895EF92FF920F931F9383
:100CC0007801DC01ED91FC91240F351F8901015061
:100CD00011090284F385E02D9B0119951F910F9155
:100CE000FF90EF9008956F927F928F929F92AF92B4
:100CF000BF92CF92DF92EF92FF920F931F93CF9309
:100D0000DF93EC014B015A0169013801E881F98157
:100D10000684F785E02D87011995E881F981A50101
:100D2000460D571D415051090684F785E02D960167
:100D3000B401CE011995E881F9810484F585E02D8F
:100D40009301A501B401CE011995E881F981C80C80
:100D5000D91CB601615071090484F585E02D930119
:100D6000A501CE011995DF91CF911F910F91FF90B1
:100D7000EF90DF90CF90BF90AF909F908F907F903B
:100D80006F9008952F923F924F925F926F927F9251
:100D90008F929F92AF92BF92CF92DF92EF92FF928B
:100DA0000F931F93CF93DF9300D0CDB7DEB74C01E5
:100DB0007B836A836A01590117019801241B350B53
:100DC00037FF03C0319521953109C5014A815B8107
:100DD000841B950B97FF03C091958195910951E074
:100DE00059838217930714F019820BC09A2D8B2D0B
:100DF0005801092F182F9A818B81DB82CA82C92E54
:100E0000D82E8A819B81A816B9065CF49C2D8D2D65
:100E10006801092F182F9A818B81BB82AA82A92E83
:100E2000B82E2501AA81BB814A1A5B0A38016C18C9
:100E30007D0877FE03C0719461947108720157FEBA
:100E400003C0BFEFEB1AFB0AF594E794C016D10676
:100E50001CF00FEF1FEF1FC001E010E01CC0D40119
:100E6000ED91FC91B9810084F185E02D9101BB23C6
:100E7000C1F04A815B81B601C4011995E618F708F3
:100E8000F7FE04C0C00ED11EE40CF51CEA81FB8104
:100E90003196FB83EA834A815B81A416B506FCF692
:100EA00004C0A6016A817B81E7CF0F900F900F905D
:100EB000DF91CF911F910F91FF90EF90DF90CF9036
:100EC000BF90AF909F908F907F906F905F904F906A
:100ED0003F902F90089585ED8093BC008091BC00D9
:100EE00084FDFCCF1092070908954091D305262F69
:100EF00030E0240F311D21323105DCF42091070947
:100F00002430C9F4FC0180E090E0861758F4309159
:100F1000D3052191DC01AF54BA4FA30FB11D2C931F
:100F20000196F3CF8091D305680F6093D30580E0DD
:100F3000089581E0089582E008950895E091830581
:100F400080918205E81730F4F0E0EF56FA4F808187
:100F500090E008958FEF9FEF089590918305809121
:100F60008205981750F4E92FF0E0EF56FA4F2081F0
:100F700030E09F5F9093830502C02FEF3FEFC901E0
:100F800008958091820590E020918305821B91094C
:100F90000895CF92DF92EF92FF920F931F93CF931A
:100FA000DF937C01262F972F8A01809108098823DF
:100FB00091F0C62FD72F6E01C40ED51ECC15DD05BE
:100FC00069F06991D701ED91FC910190F081E02DDC
:100FD000C7011995F3CF642F822F87DFC801DF91F6
:100FE000CF911F910F91FF90EF90DF90CF900895D8
:100FF000CF93DF931F92CDB7DEB7698320910809A5
:101000002223D1F020912B09203240F021E030E062
:10101000FC013383228380E090E014C080910909B1
:10102000E82FF0E0E65FF64F998190838F5F809321
:10103000090980932B0904C061E0CE01019655DFB8
:1010400081E090E00F90DF91CF910895089580E0C6
:1010500090E00895EF92FF920F931F93DC01ED91C2
:10106000FC9111971A960D911C911B9718962D9132
:101070003C9119970288F389E02D7B0140E050E014
:1010800060E070E019951F910F91FF90EF90089527
:10109000CF93DF938B988A98E2E0F1E05081292F7B
:1010A0003327E901C07CDD2743E0D595C7954A95F4
:1010B000E1F7D901A370BB27D5E0AA0FBB1FDA95D2
:1010C000E1F74C2F4A2B5778452B4083A5B1A90156
:1010D0004C725527440F551F440F551F5A2F5F74EC
:1010E000452B45B944B320713327220F331F342FCA
:1010F0003F7D232B24BB8998899A3081DC01A07C19
:10110000BB27D3E0B595A795DA95E1F7AC0143701D
:10111000552725E0440F551F2A95E1F72A2F242B48
:101120003778232B208345B19C012C723327220F63
:10113000331F220F331F342F3F74232B25B924B3C1
:1011400080719927880F991F922F9F7D892B84BBCF
:101150008998899A8A9A3081872F9927DC01A07C07
:10116000BB27C3E0B595A795CA95E1F7AC014370DD
:101170005527D5E0440F551FDA95E1F72A2F242B88
:101180003778232B208345B19C012C723327220F03
:10119000331F220F331F342F3F74232B25B924B361
:1011A00080719927880F991F922F9F7D892B84BB6F
:1011B0008998899A9081AB01407C5527B3E0559579
:1011C0004795BA95E1F79B0123703327C5E0220FBD
:1011D000331FCA95E1F7842F822B9778892B808360
:1011E00025B1CB018C729927880F991F880F991F01
:1011F000922F9F74892B85B984B360717727660F0E
:10120000771F8F7D682B64BB8998899A8B9ADF91B1
:10121000CF9108951F920F920FB60F9211240BB623
:101220000F922F933F934F935F936F937F938F937F
:101230009F93AF93BF93EF93FF938091B900887F03
:10124000803609F49CC068F5883209F45BC090F4DC
:10125000803109F454C038F4882309F4F6C088308A
:1012600009F44DC0F5C0883109F44CC0803209F44E
:101270005DC0EEC0803409F468C048F4803309F4DE
:1012800055C0883309F0E4C080930509D8C0803583
:1012900009F44FC0883509F45DC0883409F0D8C01E
:1012A000D6C0883909F4C7C0A8F4883709F467C0E4
:1012B00038F4883609F463C0803709F460C0C8C0C8
:1012C000883809F4B8C0803909F45FC0803809F063
:1012D000BFC05BC0803B09F486C038F4803A09F493
:1012E00066C0883A09F47FC0B3C0803C09F4A7C047
:1012F000883C09F4A4C0883B09F48AC0A9C0809145
:10130000E20810C09091040980910309981770F5C4
:10131000E091040981E08E0F80930409F0E0ED5123
:10132000F74F80818093BB0085EC86C080930509D0
:101330008EC0E091040981E08E0F809304098091B2
:10134000BB00F0E0ED51F74F80839091040980914C
:1013500003096EC0E091040981E08E0F80930409B7
:101360008091BB00F0E0ED51F74F8083809106093A
:1013700081116DC081E08093E10884EA61C083E05F
:10138000809307091092F705CFCF8091F70580323F
:1013900008F051C0E091F70581E08E0F8093F705CA
:1013A0008091BB00F0E0E952FA4F8083BDCF85EC1D
:1013B0008093BC00109207098091F705803230F4C9
:1013C000E091F705F0E0E952FA4F10826091F705DD
:1013D00070E0E091D505F091D60587ED95E019957F
:1013E0001092F70535C084E0809307091092D40568
:1013F0001092D305E091D105F091D2051995809115
:10140000D305811105C081E08093D3051092B10509
:10141000E091D40581E08E0F8093D405F0E0EF5485
:10142000FA4F80818093BB009091D4058091D305C1
:10143000981708F479CF85E88093BC0009C085EC43
:101440008093BC001092070903C01092050943DD88
:10145000FF91EF91BF91AF919F918F917F916F918C
:101460005F914F913F912F910F900BBE0F900FBE48
:101470000F901F901895CF92DF92EF92FF920F93EB
:101480001F93CF93DF93FC011381112309F467C0ED
:10149000EC010E946917C880D9800D2C000CEE0861
:1014A000FF08AB01BC014C195D096E097F098C85F1
:1014B0009D85092E000CAA0BBB0B84179507A60768
:1014C000B70708F44DC00E946917C880D9800D2C59
:1014D000000CEE08FF08AB01BC014C195D096E0958
:1014E0007F098E859F85092E000CAA0BBB0B8417E4
:1014F0009507A607B70798F10E946917C880D98099
:101500000D2C000CEE08FF08AB01BC014C195D0965
:101510006E097F0988899989092E000CAA0BBB0BDB
:1015200084179507A607B707D8F00E9469170881A6
:101530001981012E000C220B330BAB01BC01401BA7
:10154000510B620B730B8A899B89092E000CAA0B25
:10155000BB0B84179507A607B70708F002C010E079
:10156000812FDF91CF911F910F91FF90EF90DF902E
:10157000CF900895CF92DF92EF92FF920F931F9337
:10158000CF93DF93FC011281112309F467C0EC01B2
:101590000E946917C880D9800D2C000CEE08FF0846
:1015A000AB01BC014C195D096E097F098C819D81DD
:1015B000092E000CAA0BBB0B84179507A607B707CB
:1015C00008F44DC00E946917C880D9800D2C000C0A
:1015D000EE08FF08AB01BC014C195D096E097F09DB
:1015E0008E819F81092E000CAA0BBB0B84179507D7
:1015F000A607B70798F10E946917C880D9800D2CFB
:10160000000CEE08FF08AB01BC014C195D096E0926
:101610007F0988859985092E000CAA0BBB0B8417BE
:101620009507A607B707D8F00E94691708811981A6
:10163000012E000C220B330BAB01BC01401B510BE4
:10164000620B730B8A859B85092E000CAA0BBB0BC2
:1016500084179507A607B70708F002C010E0812F8E
:10166000DF91CF911F910F91FF90EF90DF90CF907E
:101670000895FF920F931F93CF93DF938C0160E047
:101680000E94CE28F801808191E090930809809310
:101690002A091092090910922B0960E08DE19AE065
:1016A000A7DC81E00E947128F80120818091070960
:1016B0008111FCCF81E080930709809306099FEF99
:1016C0009093050910920409809303098093E2081E
:1016D0009091E208822F880F892B8093E2088091F5
:1016E000E108813061F41092E1088091E208809372
:1016F000BB008091BC0083FDF8CF85EC01C085EE76
:101700008093BC00809107098130E1F38091040946
:10171000823018F48091040901C082E0A3EEB8E0A1
:1017200021E935E0F9019E2F921B981718F49D913D
:101730009193F9CF10928305809382058DE19AE011
:101740000CDCF82E8DE19AE008DCEC0161E0C801C8
:101750000E94CE2860E070E07F2D6C2B7D2B072E41
:10176000000C880B990B0E943D4020E030E040E0E7
:101770005DE30E949C4020E030E040E05EE30E9498
:101780009C40DF91CF911F910F91FF900895FC0134
:1017900081A1811185A10895FC01148660E275E0A4
:1017A0008CE299E00C94032BCF93DF93EC011DA204
:1017B00060E08BA10E94591619A260E08F8D0E94F3
:1017C000591664E375E08CE299E0DF91CF910C94B7
:1017D000032B2F923F924F925F926F927F928F9244
:1017E0009F92AF92BF92CF92DF92EF92FF920F93B0
:1017F0001F93CF93DF93CDB7DEB7AB970FB6F894B7
:10180000DEBF0FBECDBF3C011A012B01B22E902EC0
:10181000C8A6D9A6EAA6FBA660E070E01BDC82E0C1
:10182000F301848B8FEF9FEF938B828B918B808B57
:10183000A11003C080E090EF02C080EC9FEC7C011F
:1018400003E210E029E630E046E450E068E270E0B0
:10185000C301BAD3811003C080E090EF02C080ECD6
:101860009FEC7C0103E210E029E630E041E950E022
:1018700068E270E0C301A8D382E390E0F3019587AA
:10188000848780E590E0978786876EEF72E0C301DA
:101890000E94032B8EE390E0F301958784878BE908
:1018A00090E09787868766E073E0C3010E94032B70
:1018B000F3011586148603E010E0178706878FEF83
:1018C0009FEF918B808B138A128A64E475E0C301C9
:1018D0000E94152B80EA90E0F30195878487178793
:1018E00006871BA21AA21DA21CA21FA21EA28E0165
:1018F0000F5F1F4F22E044E0C201B1010E945F3D33
:10190000BC01CE0182960E949429BE016E5D7F4F7C
:10191000C3010E94C929CE0182960E94A929F30120
:101920001586148604E110E01787068763E575E0E5
:10193000C3010E94032B87ED90E0F3019587848714
:1019400017870687B11003C064ED72E002C060ED36
:1019500072E0CE0101960E94AE29BE016F5F7F4FFB
:10196000C3010E94C929CE0101960E94A92966E6F9
:1019700075E0C3010E94152B8EE591E0F301958778
:10198000848784E190E097878687911003C064ED97
:1019900072E002C060ED72E0CE0101960E94AE29B5
:1019A000BE016F5F7F4FC3010E94C929CE0101961E
:1019B0000E94A9292AE530E04AE550E066E470E09B
:1019C000C3010E945F2625EA30E045EA50E069EB5A
:1019D00070E0C3010E945F26EE24EA94FE2C0EE123
:1019E00010E024E630E04DEC50E066E970E0C30121
:1019F000EBD2F301138A128A118A108A8AEA90E0E4
:101A00009587848785ED90E09787868760E775E006
:101A1000C3010E94032B83E0F301848B8FEF90E0DE
:101A20009587848783E790E09787868748A559A59F
:101A30006AA57BA5C3010E94342AAB960FB6F89421
:101A4000DEBF0FBECDBFDF91CF911F910F91FF90F1
:101A5000EF90DF90CF90BF90AF909F908F907F904E
:101A60006F905F904F903F902F9008950F931F932A
:101A7000CF93DF93EC018B0110161106ACF4FE013D
:101A8000859194912496FE013297659174918F3FD0
:101A90002FEF920729F480E090E00E94311701C0F7
:101AA000F7DA04501109E8CFDF91CF911F910F9120
:101AB0000895CF93DF938B988A98E0910201292FA4
:101AC0003327E901C07CDD27F3E0D595C795FA956A
:101AD000E1F7D901A370BB27D5E0AA0FBB1FDA95A8
:101AE000E1F77C2F7A2BE7787E2B7093020175B19A
:101AF000F901EC72FF27EE0FFF1FEE0FFF1F7F743F
:101B0000E72BE5B974B320713327220F331F372F2A
:101B10003F7D232B24BB8998899A30910201DC01F7
:101B2000A07CBB27C3E0B595A795CA95E1F7FC015A
:101B3000E370FF27D5E0EE0FFF1FDA95E1F72A2FBC
:101B40002E2B3778232B2093020175B19C012C7228
:101B50003327220F331F220F331F372F3F74232BBE
:101B600025B974B39C0120713327220F331F372FFF
:101B70003F7D232B24BB8998899A8A9AFA017FEFAB
:101B8000760F16160CF094C0219140910201322F6D
:101B9000307C369536953695522F537060E2569FBD
:101BA000D00111243A2B4778342B3093020165B1D0
:101BB000322F3C72A4E03A9FA0011124362F3F74CB
:101BC000432B45B934B32071220F3F7D232B24BB17
:101BD0008998899A772309F469C020918505222381
:101BE00009F464C001968A9850910201292F332785
:101BF000E901C07CDD2743E0D595C7954A95E1F71B
:101C0000D901A370BB2765E0AA0FBB1F6A95E1F756
:101C10004C2F4A2B5778452B4093020165B1A901FF
:101C20004C725527440F551F440F551F562F5F7494
:101C3000452B45B944B320713327220F331F342F6E
:101C40003F7D232B24BB8998899A30910201DC01C6
:101C5000A07CBB27C3E0B595A795CA95E1F7AC0179
:101C600043705527D5E0440F551FDA95E1F72A2F29
:101C7000242B3778232B2093020145B19C012C7231
:101C80003327220F331F220F331F342F3F74232B90
:101C900025B944B39C0120713327220F331F342F01
:101CA0003F7D232B24BB8998899A8A9A672F67CF17
:101CB0008B9ADF91CF910895BF92CF92DF92EF92EE
:101CC000FF920F931F93CF93DF93CDB7DEB7689743
:101CD0000FB6F894DEBF0FBECDBF8C017B018EEF37
:101CE000C82EDD24DA941E141F045CF5F8018491DB
:101CF0003196B4900E5F1F4F8F3729F0202FDE01F1
:101D00001196F80108C06B2D70E080E090E00E9411
:101D10003117B12C10C09E2F921B9B1520F494916B
:101D20009D933196F8CF0B0D111DAE014F5F5F4FA4
:101D30006B2D90E0BEDEC6018B199109E80EF91EED
:101D4000D2CF68960FB6F894DEBF0FBECDBFDF913D
:101D5000CF911F910F91FF90EF90DF90CF90BF90A8
:101D60000895CF93DF931F92CDB7DEB7FC01828D2C
:101D7000238D24FB992790F99627692F70E0778FA0
:101D8000668F80FF2CC0809185058823E1F0248D2B
:101D9000358D273483E8380719F02235324531F480
:101DA000911102C082E007C086E005C0911102C017
:101DB0008AE001C088E08983AE014F5F5F4F61E038
:101DC00081E090E00AC0911103C080E290E002C07F
:101DD00081E290E040E050E060E06BDE2DC0848D59
:101DE000958D873222E9920780F4853222E99207A5
:101DF000A0F4803224E59207C1F0833927E79207E7
:101E0000A1F084359140A9F408C0863223E99207F5
:101E100061F08930954B69F408C0660F771F660F33
:101E2000771F636187E090E006C0626081E094E024
:101E300002C081E690E02CD90F90DF91CF910895F8
:101E40008F929F92AF92BF92CF92DF92EF92FF92CA
:101E50000F931F93CF93DF9300D01F92CDB7DEB7C0
:101E60007C014B016A015901FC01848D958D8732FB
:101E7000F3E99F0799F4F7018589823031F4F0E2A4
:101E8000CF0ED11C005E1F4F1DC08330D9F420E25D
:101E9000820E911C80E2A80EB11C14C086329541BE
:101EA00089F4F701858980FF0DC0C801841B950B5B
:101EB00019F40F5F1F4F06C02617370719F4A80E35
:101EC000B91E8A01F701828D80FF37C082A59982F1
:101ED0008A82BB82AC82AE014F5F5F4F64E090E0CC
:101EE000E8DDF70186A5D982CA821B830C83AE0187
:101EF0004F5F5F4F64E090E0DCDD809185058823D3
:101F000009F451C0F701848D958D8536910509F04E
:101F10004AC099828A82AE014F5F5F4F62E084A11E
:101F200095A1C7DDD982CA82AE014F5F5F4F62E0E3
:101F3000F70186A197A1BDDD36C0B401F70184A1E8
:101F400095A1A6D8B601F70186A197A1A1D88A14B8
:101F50009B0419F4C016D10631F1F701828D85FF7B
:101F60000EC0858980FF06C0102F0027C02AD12A05
:101F7000860105C0BA2CAA248A289B285401B401E2
:101F8000F70182A593A584D8B601F70186A597A588
:101F90007FD8B501F70184A595A57AD8B801F701D6
:101FA00080A991A975D80F900F900F900F90DF9195
:101FB000CF911F910F91FF90EF90DF90CF90BF9046
:101FC000AF909F908F900895AF92BF92CF92DF9283
:101FD000EF92FF920F931F93CF93DF93EC018091C9
:101FE0008405882349F0C7018F719927880F991FAD
:101FF000E1ECEE22E82AF92A37FF05C0620F731FD1
:10200000319521953109260F371F77FF02C060E017
:1020100070E088859985821793070CF49C0169010B
:10202000C61AD70A17FF05C0400F511F1195019519
:102030001109040F151F57FF02C040E050E08A85C8
:102040009B85801791070CF48C015801A41AB50ADE
:102050000150110921503109CE01F2DE8B988A9886
:1020600088A599A550910201292F3327F901E07C19
:10207000FF27B3E0F595E795BA95E1F7B9016370ED
:10208000772715E0660F771F1A95E1F74E2F462B3D
:102090005778452B4093020165B1A9014C72552731
:1020A000440F551F440F551F562F5F74452B45B9DC
:1020B00044B320713327220F331F342F3F7D232B4E
:1020C00024BB8998899A30910201BC01607C7727F2
:1020D000E3E075956795EA95E1F7AC014370552704
:1020E000F5E0440F551FFA95E1F7262F242B37789A
:1020F000232B2093020145B19C012C723327220F20
:10210000331F220F331F342F3F74232B25B924B3E1
:1021100080719927880F991F922F9F7D892B84BBEF
:102120008998899A8A9ACA14DB042CF49C2D8D2DE7
:102130006501A92EB82E8F2D99279C012370332776
:10214000A90125E0440F551F2A95E1F79C01207C49
:10215000332753E0359527955A95E1F7242BBC0199
:102160006C727727660F660F80719927880FF701C9
:10217000E370FF2775E0EE0FFF1F7A95E1F7A701E7
:10218000407C5527F3E055954795FA95E1F79E2F4A
:10219000942BA7014C725527742F770F770F30E1DE
:1021A000E322FF24EE0C1A141B0444F5A60130911F
:1021B00002013778322B3093020135B13F74362B50
:1021C00035B934B33F7D382B34BB8998899A309127
:1021D00002013778392B3093020135B13F74372B28
:1021E00035B934B33F7D3E2934BB8998899A415033
:1021F0005109E9F6E1E0AE1AB108D5CF8B9A8A8D84
:1022000080FF08C08C8D9D8D8632954189F48D8923
:1022100080FF0EC00A851B8501501109288539856C
:102220002150310940E050E060E070E0CE0108DE6E
:10223000DF91CF911F910F91FF90EF90DF90CF90A2
:10224000BF90AF900895EF92FF920F931F93CF939B
:10225000DF937C01E90177FD29C057FD27C0FC0110
:1022600080859185681779070CF5828593854817D5
:102270005907E4F480918405882341F0CE018F71E1
:102280009927880F991FC17CC82BD92B8A019B01E4
:10229000C701D6DDBE01F70180A591A5DF91CF91E1
:1022A0001F910F91FF90EF900C944808DF91CF9110
:1022B0001F910F91FF90EF900895EF92FF920F936F
:1022C0001F93CF93DF93CDB7DEB72A970FB6F8945D
:1022D000DEBF0FBECDBF7C01862F8370D701559620
:1022E0008C935597462F417060FF05C016962D912F
:1022F0003C91179703C0F70124813581D7011996C6
:102300003C932E931897442329F014962D913C91D9
:10231000159703C0F70126813781D7011B963C939F
:102320002E931A97823041F0833041F0813011F0C2
:1023300088E405C088E203C088E901C088EF8A8785
:10234000F701228D338D30FF03C08A8580588A873C
:1023500031FF04C09A8580E489278A8733FF04C04F
:102360009A8588E089278A87D7015C968D919C9110
:102370005D9720FFD1C08431B8E69B07F1F49A85C0
:10238000892F881F8827881F8295880F880F807C57
:1023900096FD02C020E001C020E298729A871F8259
:1023A0008260822B88878BE38987AE01495F5F4F0C
:1023B00063E086EB90E07DDB84C08336E9E19E0735
:1023C00041F08138F4E99F0721F0813125E192073E
:1023D00009F52A8527FF02C021602A872A8526FF62
:1023E00002C022602A87833639E1930719F48A856F
:1023F0008F730EC0813844E9940719F48A858F726F
:1024000007C08131954109F05CC08A858F7E806C60
:102410008A8757C020918505222309F452C062E0C3
:1024200070E0F70175A364A326E030E037A326A38C
:10243000E2E2F0E0D7019996FC93EE9398979B9691
:102440007C936E939A9764E070E09D967C936E9374
:102450009C979F963C932E939E9728E030E0D196D0
:102460003C932E93D0978536910501F59A8594FD7E
:1024700003C081E889278A87442351F082E890E0ED
:10248000F70195A384A380E890E097A386A32EC0CC
:1024900080E890E0D70195969C938E93949782E87C
:1024A00090E097969C938E93969720C082359245A4
:1024B000E9F48A8584FD02C0826001C086608A8753
:1024C00015C02AE230E0F70135A324A38BE290E0A7
:1024D00097A386A34CE250E051A740A733A722A7B9
:1024E00035A724A797A786A791AB80AB80918505D8
:1024F000811103C086E390E002C086E190E0AE0166
:10250000465F5F4F61E0D5DA8A8590E0D70191960A
:102510009C938E939097E6C02A858339B7E79B07F3
:1025200009F448C050F48435F1E09F0781F080320F
:1025300034E5930709F081C03DC0863243E9940732
:10254000C9F18930A5EB9A0709F077C033C087E35A
:1025500090E0F70193A782A786E390E095A784A770
:1025600089E390E097A786A788E390E091AB80ABE2
:1025700080E290E095A384A381E290E097A386A3F4
:1025800082E290E091A780A7822F022E000C990B87
:102590008827990F881F9927982F8827990F26FD3C
:1025A00003C060E070E002C060E071E08862682B08
:1025B000792B82C040E052E0D70195965C934E9310
:1025C000949741E052E097965C934E93969742E041
:1025D00052E099965C934E93989740E152E09B9617
:1025E0005C934E939A9741E152E09D965C934E9393
:1025F0009C9742E152E09F965C934E939E9743E1F5
:1026000052E0D1965C934E93D09727FD03C020E013
:1026100030E002C020E030E88632B3E99B0731F0B9
:102620008032944519F060E07AE602C060E075E31C
:10263000622B732B80E094E035C080E290E0D701FC
:1026400095969C938E93949781E290E097969C93B5
:102650008E93969782E290E099969C938E939897AA
:1026600080E590E09B969C938E939A9781E590E00D
:102670009D969C938E939C9782E590E09F969C9369
:102680008E939E9783E590E0D1969C938E93D097FE
:1026900027FD03C060E070E002C060E070E8776290
:1026A00080E690E00E9448088A8586FD03C060E0CD
:1026B00070E002C060E071E081E090E00E944808B4
:1026C0008A8585FD03C060E070E002C068E070E0CC
:1026D00083FD70616063F70171A360A383E090E004
:1026E0000E944808D70155968C91559780FF36C0B7
:1026F0005A968D919C915B9792FD30C094968D91E6
:102700009C91959796962D913C91979795963C9391
:102710002E93949797969C938E9396979A968D91D5
:102720009C919B979E962D913C919F979B963C9355
:102730002E939A979F969C938E939E979C968D919D
:102740009C919D97D0962D913C91D1979D963C93CD
:102750002E939C97D1969C938E93D097F7010285E8
:10276000138501501109208531852150310940E040
:1027700050E060E070E0C70163DBD70116966D9111
:102780007C9117975C968D919C915D978732B3E908
:102790009B0749F4F70125892250223008F4A3C091
:1027A00000E010E0A2C000E010E020E030E0D7013F
:1027B0005A964C9140FF46C01982102F0A837B83A2
:1027C0006C831D822E8380918505811103C083E374
:1027D00090E002C08EE090E0AE014F5F5F4F66E098
:1027E00068D919821A8380918505811103C087E316
:1027F00090E002C084E190E0AE014F5F5F4F62E085
:1028000058D980918505882389F01982F701848D34
:10281000958D8734934819F081E090E002C088E1FB
:1028200090E0AE014F5F5F4F61E00AC0D7015A965A
:102830008C9180FF5FC040E050E060E083E190E079
:1028400038D958C08339B7E79B0789F160F48032E3
:10285000F4E59F0761F1833827E7920791F084350B
:10286000914099F512C0863243E9940701F128F4AA
:1028700085529249029748F028C08930954BB9F0AB
:1028800024C0F701668D778D24C0600F711F6150E1
:10289000710981E390E00E944808B80182E390E06A
:1028A0000E94480860E070E083E390E019C0D7011F
:1028B0005E966D917C915F97626081E094E00E94EA
:1028C0004808B80184E094E00BC0F701668D778D6D
:1028D000626081E690E00E944808B8018AE690E0D4
:1028E0000E94480807C000E210E020E230E0201B10
:1028F000310B5DCF2A960FB6F894DEBF0FBECDBF69
:10290000DF91CF911F910F91FF90EF900895FC01FF
:10291000538D448D252F30E0842F90E0821B930B44
:10292000541710F0CF96089501970895FC01918DEA
:10293000828D981761F0828DDF01A80FB11D5D9621
:102940008C91928D9F5F9F73928F90E008958FEF8F
:102950009FEF0895FC01918D828D981731F0828D43
:10296000E80FF11D858D90E008958FEF9FEF08959A
:10297000FC01918D228D892F90E0805C9F4F821BFE
:1029800091098F73992708958CE299E0F1DF21E096
:10299000892B09F420E0822F0895FC01848DDF014A
:1029A000A80FB11DA35ABF4F2C91848D90E00196C2
:1029B0008F739927848FA689B7892C93A089B189B1
:1029C0008C9180648C93938D848D981306C00288BB
:1029D000F389E02D80818F7D80830895EF92FF92AF
:1029E0000F931F93CF93DF93EC0181E0888F9B8D32
:1029F0008C8D981305C0E889F989808185FD23C0F5
:102A0000F62E0B8D10E00F5F1F4F0F731127E02E76
:102A10008C8DE8120BC00FB607FCFACFE889F98954
:102A2000808185FFF5CFCE01B8DFF2CF8B8DFE011F
:102A3000E80FF11DE35AFF4FF0820B8FEA89FB8903
:102A40008081806207C0EE89FF896083E889F98907
:102A500080818064808381E090E0DF91CF911F913D
:102A60000F91FF90EF900895CF93DF93EC01888D45
:102A70008823C1F0EA89FB89808185FD05C0A8898A
:102A8000B9898C9186FD0EC00FB607FCF5CF808109
:102A900085FFF2CFA889B9898C9185FFEDCFCE0152
:102AA0007CDFE8CFDF91CF91089580E090E0892B23
:102AB00019F06ADF811125C080E090E0892B41F098
:102AC00080E090E0892B21F00E94000081111CC061
:102AD00080E090E0892B41F080E090E0892B21F0AC
:102AE0000E940000811113C080E090E0892BA1F0CA
:102AF00080E090E0892B81F00E94000081110AC0E3
:102B000008950E940000D8CF0E940000E1CF0E94EB
:102B10000000EACF0C94000008953FB7F89480912C
:102B2000E0079091E107A091E207B091E30726B595
:102B3000A89B05C02F3F19F00196A11DB11D3FBFF5
:102B4000BA2FA92F982F8827820F911DA11DB11D83
:102B5000BC01CD0142E0660F771F881F991F4A957F
:102B6000D1F708958F929F92AF92BF92CF92DF924A
:102B7000EF92FF920F931F93CF93DF937C018B0112
:102B80006C0182E0C80ED11C4701E5E08E0E911C5D
:102B9000C0E0D0E0F60141916F0150E060E070E0EC
:102BA0002AE0C8010E94EC295C016EE2C8010E9483
:102BB000C2298A0D9B1DC80FD91FC814D90451F70B
:102BC000F701458150E060E070E02AE0C8010E9412
:102BD000EC298C0F9D1FDF91CF911F910F91FF90DA
:102BE000EF90DF90CF90BF90AF909F908F9008951F
:102BF0000E94BC441F920F920FB60F9211240BB685
:102C00000F922F933F934F935F936F937F938F9385
:102C10009F93AF93BF93EF93FF938CE299E0BDDE58
:102C2000FF91EF91BF91AF919F918F917F916F91A4
:102C30005F914F913F912F910F900BBE0F900FBE60
:102C40000F901F9018951F920F920FB60F9211249C
:102C50000BB60F922F938F939F93EF93FF93E09177
:102C60003C09F0913D098081E0914209F0914309CE
:102C700082FD12C09081809145098F5F8F732091F2
:102C80004609821751F0E0914509F0E0E45DF64F06
:102C9000958F8093450901C08081FF91EF919F91AD
:102CA0008F912F910F900BBE0F900FBE0F901F9022
:102CB0001895362F90E0FC01E75AF74F4491FC013C
:102CC000ED54FD4F2491FC01E750FD4F9491992361
:102CD00009F46BC0442309F455C050E0FA01319760
:102CE000E231F10508F04EC08827EE58FF4F8F4FB4
:102CF0000C94A342809180008F7707C08091800060
:102D00008F7D03C080918000877F809380003AC0D0
:102D100084B58F7702C084B58F7D84BD33C0809128
:102D2000B0008F7703C08091B0008F7D8093B0009A
:102D300029C0809190008F7707C0809190008F7D8F
:102D400003C080919000877F809390001BC080918A
:102D5000A0008F7707C08091A0008F7D03C0809175
:102D6000A000877F8093A0000DC0809120018F7705
:102D700007C0809120018F7D03C080912001877F53
:102D800080932001E92FF0E0EE0FFF1FE756FD4F83
:102D9000A591B4918FB7F894EC91311103C02095AF
:102DA0002E2301C02E2B2C938FBF0895CF93DF933A
:102DB00090E0FC01ED54FD4F2491FC01E750FD4FE4
:102DC0008491882361F190E0880F991FFC01E15CF8
:102DD000F74FC591D491FC01E756FD4FA591B491F1
:102DE000611109C09FB7F894888120958223888358
:102DF000EC912E230BC0623061F49FB7F8943881B8
:102E0000822F809583238883EC912E2B2C939FBF58
:102E100006C08FB7F894E8812E2B28838FBFDF91EF
:102E2000CF910895863308F0865390917B00282F28
:102E30002870977F922B90937B008770806480939B
:102E40007C0080917A00806480937A0080917A007F
:102E500086FDFCCF809178002091790090E0922B44
:102E600008958F929F92AF92BF92CF92DF92EF928E
:102E7000FF926B017C0151DE4B015C01C114D10456
:102E8000E104F104E9F049DEDC01CB01881999097C
:102E9000AA09BB09883E9340A105B10578F321E05A
:102EA000C21AD108E108F10888EE880E83E0981E66
:102EB000A11CB11CC114D104E104F10421F7DECF3F
:102EC000FF90EF90DF90CF90BF90AF909F908F904A
:102ED00008952FB7F8946091DC077091DD07809119
:102EE000DE079091DF072FBF08951F920F920FB654
:102EF0000F9211242F933F938F939F93AF93BF9380
:102F00008091DC079091DD07A091DE07B091DF078B
:102F10003091DB0723E0230F2D3720F40196A11D0C
:102F2000B11D05C026E8230F0296A11DB11D2093F7
:102F3000DB078093DC079093DD07A093DE07B09357
:102F4000DF078091E0079091E107A091E207B0913F
:102F5000E3070196A11DB11D8093E0079093E1075F
:102F6000A093E207B093E307BF91AF919F918F9138
:102F70003F912F910F900FBE0F901F9018958823AF
:102F8000E9F0A3E7B6E025E014969C911497981316
:102F90000DC095E0899FF0011124ED58F94F84810F
:102FA00014968C931382128214820895992331F01F
:102FB000299FD0011124AD58B94FE6CF08950F9342
:102FC0001F93CF93DF938C01EB0160E085E371DE0B
:102FD0008AE38EBD0DB407FEFDCF0C0F1D1FC01779
:102FE000D10739F01EBC0DB407FEFDCF8EB5899315
:102FF000F6CF61E085E3DF91CF911F910F9159CE1C
:103000000F931F93CF93DF931F92CDB7DEB7182F87
:10301000062F60E085E349834CDE802F8F71812B82
:103020008EBD49810DB407FEFDCF4EBD0DB407FE28
:10303000FDCF61E085E30F90DF91CF911F910F915C
:1030400038CE1F93CF93DF93182F1076C12FD0E087
:103050002091000230E0C217D30779F043E06FE11E
:1030600080EACEDFAE0185E0559547958A95E1F778
:103070006FE180E8C5DF10930002DF91CF911F91CF
:1030800008951F93CF93DF931F921F92CDB7DEB7A2
:10309000182F69837A83D5DF4981612F80E4B0DFFF
:1030A00061E0610F7A81472F80E40F900F90DF91EC
:1030B000CF911F91A5CFCF93DF93C82FD62F60E07C
:1030C00085E3F7DD8D2F8F71C82BCEBD0DB407FEC4
:1030D000FDCF1EBC0DB407FEFDCFD7FD07C061E0DC
:1030E00085E3E7DD8EB5DF91CF9108951EBC0DB469
:1030F00007FEFDCFF4CFCF93C62FBC0182E0C1DF26
:1031000060E085E3D6DD8AE78EBD0DB407FEFDCF16
:10311000CEBD0DB407FEFDCF61E085E3CF91C9CDF3
:10312000BC0180E0AEDF60E085E3C3DD8AE38EBDF5
:103130000DB407FEFDCF1EBC0DB407FEFDCF61E050
:1031400085E3B7DD8EB50895CF92DF92EF92FF92BF
:103150000F931F93CF93DF936C018B014130510587
:1031600069F4CB01DDDF682FC601DF91CF911F919C
:103170000F91FF90EF90DF90CF90BDCFEA01C60F87
:10318000D71F7E0181E0E81AF10880E17ADFB601FD
:1031900084E177DF0115184038F4E11488E0F8067F
:1031A00018F07E0188E0F81AB70182E16ADF40E199
:1031B0006FE180EA25DF40E26FE180E821DF6FE127
:1031C00080E079DF85FF06C061E070E080E090E09C
:1031D00048DEF5CFDF91CF911F910F91FF90EF90D7
:1031E000DF90CF900895CF92DF92EF92FF920F93EE
:1031F0001F93CF93DF938C016091730670917406D7
:103200006150784EC12C98E1D92EE3E7F6E080E0DA
:10321000C0E0D0E045E09481992349F0499F9001B6
:1032200011242D58394FD9012D913C9101C09B019A
:10323000E080F1802E193F090280F381E02D2E1BE2
:103240003F0B2017310739F4B5E08B9FE0011124C3
:10325000CD58D94F48C00217130748F42C153D0527
:1032600030F4489FE0011124CD58D94F69019111E4
:1032700007C02097C1F5C3E7D6E085E0D82E1DC072
:10328000499FF0011124ED58F94F892FC4CFEA80EE
:10329000FB8028813981E20EF31ED89EE0011124C3
:1032A000CD58D94F68817981E616F70631F04A8109
:1032B0005B81C70149DFF982E8828C818111E7CF08
:1032C000209173063091740688819981281B390BEF
:1032D0008A819B81281B390B2150384E20173107DA
:1032E00010F480E01AC091E0E8E7F6E02281338133
:1032F000232B29F035969F5F9533C1F7F2CF4A8192
:103300005B8128813981240F351F3183208313830A
:1033100002838C8184839C83892FDF91CF911F91BD
:103320000F91FF90EF90DF90CF900895CF92DF92B2
:10333000EF92FF920F931F93CF93DF937B018A014C
:10334000690125E0829FC0011124EC01CD58D94FBD
:10335000688179816E0D7F1D82E093DE0A80DB81BA
:10336000C02DCE19DF09CC16DD0608F4E60160E0B9
:1033700085E39FDC8AE78EBD0DB407FEFDCFC80153
:103380008C0F9D1F0817190741F0F80121918F013B
:103390002EBD0DB407FEFDCFF5CF61E085E389DCDE
:1033A000CE01DF91CF911F910F91FF90EF90DF90B1
:1033B000CF900895EF92FF920F931F93CF93DF93D7
:1033C0008B017A018F3FC9F025E0829FE001112433
:1033D000CD58D94F02C0CEE6D6E088819981B80198
:1033E000680F791F80E04DDE8A819B81801B910BE5
:1033F000E816F90690F4C70110C080916E0690910E
:103400006F06860F971F811528E0920720F3BC01F5
:103410006F5F7740CEE6D6E0E5CFDF91CF911F9189
:103420000F91FF90EF90089580E090E008956091F3
:103430006C0670916D066115710549F06150710956
:10344000611588E0780728F060E070E002C06FEF57
:1034500077E060FF02C0615071098CE012CE0F93DB
:103460001F93DB01E42FA80190E0EF3FF9F065E046
:10347000E69FF0011124ED58F94F02C0EEE6F6E0A8
:103480000190F081E02D2E0F3F1F65E0689FF00155
:10349000699FF00D1124ED58F94F80819181B90198
:1034A0008A0F9B1F51DE1F910F91C1CFE0916E06D5
:1034B000F0916F06E20FF31FE11568E0F607F0F2F6
:1034C0009F012F5F3740E1CF0F931F93CF93DF937F
:1034D0000091260610912706C0912806D091290652
:1034E0000F3F8FEF180741F4CF3F9FEFD90721F42B
:1034F00086E0EBE2F2E021C01093D8070093D707F3
:10350000D093DA07C093D90780E09BE001C08F5FBA
:10351000883071F1989FF0011124E258F84F208112
:1035200031810217130799F722813381C217D3071C
:1035300071F78093D607349686E0A8E0B6E0019054
:103540000D928A95E1F786E0E5E2F2E0AEE0B6E0C2
:1035500001900D928A95E1F788E090E0909315062E
:10356000809314068091FC059091FD050E9657C03E
:103570008093D60746E050E06FEF70E088E096E079
:103580000E94C94486E0E8E2F6E0DF01982F1D9230
:103590009A95E9F7E5E2F2E0AEE0B6E0982F019007
:1035A0000D929A95E1F7E5E2F2E0AEE1B6E0982FF0
:1035B00001900D929A95E1F710932F0600932E0635
:1035C000D0933106C093300610922506109224063F
:1035D000109227061092260620E031E030931D0657
:1035E00020931C06309317062093160628E030E03F
:1035F000309319062093180680931A0684E080936E
:103600001B0688E096E090931506809314068EE3DF
:1036100096E09093FF058093FE058AE290E09093F8
:10362000FD058093FC05DF91CF911F910F910895C7
:10363000EF92FF920F931F93CF93DF939C01FB01B7
:103640001092D60790E08BE0983031F1899F70019D
:103650001124E701C258D84F68817981611571053D
:10366000C9F04A815B8141155105A1F0D9010D9145
:103670001C9111970617170769F412966D917C91AA
:1036800013976417750731F49093D607D701AE5797
:10369000B84F2AC09F5FD8CF90E08BE0983091F070
:1036A000899FE0011124C258D84F48815981452B88
:1036B00039F44A815B81452B19F49093D6070AC0EF
:1036C0009F5FECCF10927D0710927C071092D60777
:1036D000CEE7D7E0D9014D915D916D917C91DE01EE
:1036E0004D935D936D937D9386E001900D928A9545
:1036F000E1F71A86DF91CF911F910F91FF90EF9024
:1037000008959C01AB017093FB056093FA051616B2
:10371000170654F48091F8059091F9052817390798
:1037200019F0B9010C94C0440895EF92FF921F93D1
:10373000CF93DF93C0918F08D0919008843009F423
:10374000EAC12EE336E03093FF052093FE05309367
:10375000F9052093F805833059F4898D8F708330F3
:1037600009F0CAC688899989892B09F0C5C67EC027
:10377000823009F07FC080919C088F5F80939C0805
:10378000811113C080919B088F5F80939B088111EA
:103790000CC080919A088F5F80939A08811105C0B0
:1037A000809199088F5F809399081092FD0510927F
:1037B000FC051092FB051092FA05898D982F9D7FCC
:1037C000953041F48A8D8F5F8A8F883709F094C6CF
:1037D000198E92C6882309F48FC628893989232B2C
:1037E00009F440C09A8D2FEF290F2A8F911184C6BA
:1037F0009B8D983031F02FEF280F223048F4953010
:1038000039F4198E80E880938E080E94B72431C560
:10381000953038F423E0092E01C0220F0A94EAF70C
:1038200001C020E32A8F9F5F9B8F8F708330A1F0B0
:1038300048F4813009F44AC3823009F05DC6109221
:10384000370647C3863009F4B1C4883009F4AEC4E2
:10385000843009F051C6AAC484E080938E080E9487
:10386000B72439C58F70833009F046C688E080934D
:103870008E08F5C4853019F5E0918C08F0918D081B
:1038800084819581892B09F437C610929008109293
:103890008F0882E396E09093FF058093FE05909356
:1038A000F9058093F8051092FB051092FA05109225
:1038B000FD051092FC0588E080938E082AC1809156
:1038C0001606853409F018C6C0911806D0E0DC2F22
:1038D000CC2780911906C80FD11D8091FC059091CD
:1038E000FD058C179D0708F407C6D093FD05C0930E
:1038F000FC0580911C068F7309F0FEC510911D0612
:103900001111FAC5E0900406F0900506E114F104E7
:1039100039F48091060690910706892B09F442C07C
:1039200080911F062091260630912706813151F59E
:103930002F3F4FEF340739F48091280690912906E4
:10394000019609F470C0809100069091010680955F
:1039500090958E299F2928173907A1F48091020696
:103960009091030680959095409106065091070628
:10397000842B952B4091280650912906481759070A
:1039800009F451C02E153F0509F0B6C5209128064F
:10399000309129068091060690910706281739076D
:1039A00009F0AAC527D7019609F0A6C580911F0680
:1039B000863009F413C18131B1F1813009F09CC521
:1039C00080912A06883009F097C510922A068091C6
:1039D0002C0690912D06873FCFEF9C0710F009969B
:1039E00001C0089690932D0680932C0680912206A4
:1039F00090912306909327068093260680912406B3
:103A0000909125069093290680932806F09223062C
:103A1000E092220680910606909107069093250673
:103A2000809324066DC56C97D093FD05C093FC056B
:103A300082E396E09093FF058093FE058091300627
:103A400090913106892B99F420912C0630912D0606
:103A500040912A0650912B06609122067091230610
:103A6000A0912406B0912506E0E6F8E00BC081E1C4
:103A700037D6019609F040C5E7CF8481958100973C
:103A800031F43B9688E0EC38F807B8F324C02817E7
:103A90003907B9F786819781009719F048175907B8
:103AA00081F780819181009729F4C281D381CD2B48
:103AB00049F416C08F3FCFEF9C0721F4C281D38118
:103AC000219671F068177907E1F682819381A81732
:103AD000B907B9F605C0F0938D08E0938C080CC5C2
:103AE000F0938D08E0938C081092900810928F0844
:103AF00082E080938E0882E396E09093FF058093A6
:103B0000FE059093F9058093F8051092FB0510923D
:103B1000FA050E944D2F8091FA059091FB050097C0
:103B200009F4EAC49C01245E3F4F3093FD052093C5
:103B3000FC053093180620931906E0918C08F0914B
:103B40008D08208520931E0621E120931F060896EC
:103B500098278927982790932F0680932E061092F6
:103B60003106109230068481958190932B068093C4
:103B70002A068681978190932D0680932C0680914A
:103B80000406909105069093230680932206809167
:103B9000060690910706909325068093240680815F
:103BA000918190932706809326068281938190933A
:103BB0002906809328068EE396E09093FF05809374
:103BC000FE0581E18DD580959095009711F48FEFDA
:103BD0009FEF90933106809330066CC486E080D5C9
:103BE000019609F089C420912C0630912D06809110
:103BF0002A0690912B066091220670912306E0918F
:103C00002406F0912506C8EED7E0498D4423A9F09B
:103C1000AC81BD812A173B0781F4AE81BF818A1731
:103C20009B0759F4A881B9816A177B0731F4AA81EF
:103C3000BB81EA17FB0709F463C16E9648E0C03602
:103C4000D40719F7809137068F738230A1F430932F
:103C500098082093970880E0843059F08F5F2115F1
:103C60003105D1F71092960880E0C0E0D0E09EE1E7
:103C700078C0809396088091370682FD3DC484E128
:103C80008093370688E290E09093FD058093FC05D1
:103C900080E5809336063091310680913506809319
:103CA00031062091300680913406809330062093AF
:103CB000340690912F068091330680932F069093BF
:103CC000330680912E0680939608409132064093E9
:103CD0002E06809332063F5F3093350631110DC0BA
:103CE0002F5F20933406211108C09F5F9093330605
:103CF000911103C08F5F8093320680912A069091C4
:103D00002B06909398088093970820912C06309169
:103D10002D0630932B0620932A0690932D06809330
:103D20002C0680912206909123069093270680937B
:103D3000260680912406909125069093290680936B
:103D40002806F0922306E0922206809106069091C2
:103D50000706909325068093240691C3473099F077
:103D60008F5F8430F1F0282F30E0929FF001939F15
:103D7000F00D1124E851F84F418D4111EFCF8093A0
:103D80009608EF0110C0209721F0528D4A8D4517FB
:103D900038F7929FE001939FD00D1124C851D84F5E
:103DA000DFCF80939608209709F4A6C3D09390089C
:103DB000C0938F0883E08A8F888F1E8A84E08F8B60
:103DC0001B8E80912C0690912D069D838C83809173
:103DD0002A0690912B069F838E83809122069091D4
:103DE00023069983888380912406909125069B83DE
:103DF0008A8381E0898F809199088C8780919A08C5
:103E00008D8780919B088E8780919C088F8781E0A9
:103E100090E0998B888B809131068B87809130065A
:103E20008A8780912F06898780912E06888781E076
:103E300090E00E94603C80913606982F907F9135EB
:103E400008F444C082958F7090E00597880F991F01
:103E5000880F991F20919508E12FF0E0E817F907E6
:103E60008CF5E85FF94F26A9211105C0109396083B
:103E7000109295082BC0213011F41F5FEDCF223036
:103E8000E1F437A93430C9F41093960820939508CB
:103E900080AD90E0982F882721AD822B90939808D1
:103EA00080939708813062E0960710F080E092E0FE
:103EB0009B8B8A8B9D8B8C8B09C037A9332311F088
:103EC000130FCACF109396082093950880E1809332
:103ED00037068091370682608093370682E08093B0
:103EE0003E0694E090933F06809340061092410670
:103EF0008CE290E09093FD058093FC0580E66DC216
:103F0000D0939008C0938F0810928E083091370696
:103F1000132F147032FF03C0198E80E209C2209162
:103F2000360622952F70220F220F2093960880913B
:103F3000FC059091FD054497821B91099093FD0526
:103F40008093FC054F70423021F4232F2F732231D0
:103F5000C9F0892B19F4832F8370A1F090912E065C
:103F60008885981330C290912F06898598132BC2AB
:103F7000909130068A85981326C2909131068B85E0
:103F8000981321C234FF49C0688979896115710588
:103F900009F443C0CE010C960E94293D30913206AF
:103FA0008091E407381339C0209133068091E507EA
:103FB000281333C0909134068091E60798132DC0E2
:103FC000809135064091E707841327C03C872D87F1
:103FD0009E878F878B8D811119C09E89888D2A8D30
:103FE000821B292F269526952695821B980F9E8B3E
:103FF00087FD81952F89322F36953695231B820FA9
:104000008F8B969596959695890F888F81E08093F2
:104010008E08888D8A8F198A188A298DE22FEF7071
:104020008E2F90E0FC013197E830F10508F064C272
:104030008827EC57FF4F8F4F0C94A34280918E0836
:1040400080FF5AC283E0898F80E480938E08198AAA
:10405000188A8091FC059091FD05009709F4FBC03A
:1040600022E420938E080E94603CF5C080918E0867
:1040700080FF6DC0809137068F73823109F067C071
:1040800080913606982F907F913508F444C0829530
:104090008F7090E00597880F991F880F991F2091C6
:1040A0009508E12FF0E0E817F9078CF5E85FF94F84
:1040B00026A9211105C010939608109295082BC0CF
:1040C000213011F41F5FEDCF2230E1F437A93430F5
:1040D000C9F4109396082093950880AD90E0982F2E
:1040E000882721AD822B9093980880939708813080
:1040F00072E0970710F080E092E09B8B8A8B9D8B9B
:104100008C8B09C037A9332311F0130FCACF10933A
:1041100096082093950883E0898F80912E068887E2
:1041200080912F068987809130068A878091310699
:104130008B8781E090E00E94603C82E480938E084F
:10414000198A188A1092FD051092FC0584C080E23D
:1041500080938E080CD4198E8ECD8091370680FF07
:1041600027C024FD25C088899989892B09F0C4C1FD
:104170008091FC059091FD0501960E94603C809124
:104180008E08982F906190938E082091FC053091B5
:10419000FD05232B19F0826180938E08E8D381E01E
:1041A00090E0998B888B88E0898F1B8E81E10CC110
:1041B00085FF1DC080913C0690E0982F88273091A4
:1041C0003D06832B4091FE055091FF05480F591F76
:1041D0005093FF054093FE054091FC055091FD056D
:1041E000BA01681B790B7093FD056093FC05409143
:1041F000FC055091FD054115510551F024FD08C005
:1042000090918E08926090938E08CA010E94603C43
:104210008091380690E0982F882720913906820FE8
:10422000911D90939808809397082C893D892817B1
:10423000390710F0892B21F43093980820939708C0
:1042400080919708909198089B8B8A8B80918E081B
:10425000837009F451C11092FB051092FA0587D3BF
:1042600080918E0885FF07C01092FB051092FA0519
:10427000198E84E1A9C084FF0AC01092FB05109238
:10428000FA0581E090E0998B888B84E08DCF2091B6
:10429000FA053091FB0521153105E1F080FF02C0E0
:1042A000198A188A88899989009781F48A899B8953
:1042B0008217930720F49093FB058093FA05809171
:1042C000FA059091FB05998B888B04C09093FB05B0
:1042D0008093FA051B8E8091F8059091F9059093D3
:1042E000FF058093FE058091FA059091FB05892BCF
:1042F00059F088899989009739F088969093FD053F
:104300008093FC0588E10BC080918E0881FFF4C08A
:1043100088E290E09093FD058093FC0580E1809316
:1043200037065AC080918E0880FFE6C0198E80E162
:1043300080938E081CD3E0C08091FC059091FD0510
:10434000009711F00E94603C9091370680918E0892
:1043500090FF0BC080FF06C087E0898F1A8E198AF4
:10436000188A19C086E0898F16C080FF1DC085E0BD
:10437000898F198A188AC0C08091FC059091FD052B
:10438000009711F00E94603C8091370680FF0CC0BE
:1043900087E0898F1A8E81E090E00E94603C80E186
:1043A00080938E08E4D20FC08091FC059091FD05AA
:1043B000892B49F4A1C080918E0880FF9DC087E0C1
:1043C000898F1A8E99C080E18093370688E290E049
:1043D0009093FD058093FC0580E5809336068885E3
:1043E000809332068985809333068A8580933406CC
:1043F0008B85809335068C8580932E068D858093E2
:104400002F068E85809330068F858093310686E057
:1044100080931F068C819D8190932B0680932A06A2
:104420008E819F8190932D0680932C0680910406A7
:1044300090910506909323068093220680910606AC
:104440009091070690932506809324068881998190
:1044500090932706809326068A819B819093290654
:1044600080932806898D84FF05C01092390610922A
:10447000380605C082E0809338061092390680E441
:1044800080931E068091FC059091FD05909318067F
:104490008093190610923D0610923C0610923B063E
:1044A00010923A0686E01CD18095909590933B0639
:1044B00080933A0685E480931606109217061092B0
:1044C0001D0610921C068091930890919408019605
:1044D000909394088093930890931A0680931B06F8
:1044E000109221061092200685D180959095909388
:1044F00021068093200604C01092FD051092FC0551
:1045000010928E08DF91CF911F91FF90EF90089548
:104510000F931F93CF93DF93DC012091910830918B
:1045200092082F5F3F4F21158DE7380710F020E0EC
:1045300030E1522F432FE0E6F8E080E0843041F094
:10454000C481D5818F5F3B96C417D507B9F7E9CFF2
:10455000309392082093910890E08BE09430D1F052
:10456000292F30E041E0490F829FF001839FF00D39
:104570001124E05AF74FEF01249604811581012B95
:1045800039F490939608309741F480E090E02EC083
:10459000942FE4CF90939608F8CF80919108909152
:1045A0009208982789279827998388837783668339
:1045B000109729F410821182128213820BC08D9100
:1045C0009C9111979183808312968D919C91139762
:1045D000938382838BE0829FD001839FB00D11244F
:1045E000A05AB74F80E418968C93CF01DF91CF91FA
:1045F0001F910F91089580E00895FB0141505109EA
:10460000460F571FE417F50778F4208130E0322F6A
:1046100022276181260F311D820F931F8217930776
:1046200008F401963296EECFE417F50751F4208195
:1046300030E0322F2227820F931F8217930708F44E
:1046400001960895DC01ED91FC91048CF58DE02D2F
:1046500019940F931F93CF93DF93EC018B018C85FB
:104660009D85892B39F460E070E080E090E050DFB8
:104670009D878C87EC85FD85309751F010270127A9
:104680001027158304832E96D287C18781E001C04D
:1046900080E0DF91CF911F910F910895CF93DF9329
:1046A000DC011C96ED91FC911D973097B1F0EC0167
:1046B00015821482128611861D861C8689890E94A5
:1046C000BF1788890E94BF178A890E94BF172E963C
:1046D00086E0FE0111928A95E9F7DF91CF91089566
:1046E000EF92FF920F931F93CF93DF93C82FE09029
:1046F0001906F12C84E1E81AF1082091180630E03F
:10470000322F2227E20EF31E48E050E062E276E00C
:10471000C7018C0F911D71DFC13131F0C091360698
:10472000C695C695CC7301C0C8E0D0E0AE016AE280
:1047300076E063DF8C01CE15DF0508F04CC0A701E1
:104740004C1B5D0BBE016E5D7F4F8091A90A0E94DC
:10475000DA19EC01219760E085E30E9459168AE39B
:104760008EBD0DB407FEFDCFA80160E070E06C17B0
:104770007D07C8F41EBC0DB407FEFDCF2EB530E09A
:10478000322F22271EBC0DB407FEFDCF8EB5280F99
:10479000311D420F531F4217530710F44F5F5F4FF5
:1047A0006E5F7F4FE4CF8A016C177D0781F41EBCDA
:1047B0000DB407FEFDCF8EB590E0982F88278A01B3
:1047C000080F191F0817190710F40F5F1F4F61E03A
:1047D00085E30E9459160115110519F0902F812FBC
:1047E00002C08FEF9FEFDF91CF911F910F91FF904C
:1047F000EF90089544E150E066E176E080E090E0DB
:10480000FCDE009721F098278927982708958FEFDD
:104810009FEF08959091A80A892F827091FF11C08F
:104820002091A60A30E048E056E060E070E0809118
:10483000A90A0E9496198091A80A8D7F8093A80AE0
:1048400018C02091FC053091FD052115310519F0A6
:10485000C9010E94F3188093A90A882391F020913E
:10486000FC053091FD0548E056E060E070E00E94F4
:1048700096198091A90A0E94BF171092A90A81E097
:10488000089580E0089508950F931F93CF93DF93C9
:1048900000D01F92CDB7DEB78C01FB0182819381DE
:1048A000A481B581892B8A2B8B2B41F141155105B0
:1048B00029F1828190E0982F88272381822B9827E5
:1048C000892798279A838983248130E0322F2227F1
:1048D0006581262B3227232732273C832B83D8015F
:1048E0001C96ED91FC911D97742F652F309729F13F
:1048F000778366839183808333832283D8011C96D8
:104900008D919C911D97892BA9F052968C918111C4
:1049100011C086E096E00E94F318F801828B2AE22B
:1049200030E03787268721E090E0811101C020E048
:10493000822F14C080E090E011C0CE010196E8DD26
:10494000D8011D969C938E931C97009799F398011C
:10495000225F3F4FFC0132872187D0CF0F900F900D
:104960000F900F90DF91CF911F910F910895CF92EB
:10497000DF92EF92FF920F931F93CF93DF93A0915B
:104980008F08B09190085C96CD91DC915D97509125
:104990008E08209749F556FF6FC0EDE9F8E080E0FA
:1049A00090E0208121111AC061E1689F9001699F08
:1049B000300D1124E901C356D74F806188832256F8
:1049C000374F80E1F90111928A95E9F7209709F4B0
:1049D00053C05D96DC93CE935C9706C001967196AA
:1049E00084309105F1F648C051FF07C08091FC0565
:1049F0009091FD05892B09F055C0888187FF0EC075
:104A00008F77888380918E08826080938E08E091F2
:104A10008F08F0919008818D8F7E818F80918E0814
:104A2000982F9071D92E84FF80C07E01E6E0EE0EB3
:104A3000F11C6E01FBE0CF0ED11CF70180810E94BA
:104A4000BF17F70111927F01EC15FD05B1F78981C0
:104A5000882309F46DC0E0918F08F091900884815B
:104A600095819F838E83888180648883E0918F08FD
:104A7000F0919008158E148EE12CF12CB7018091E5
:104A8000FE059091FF050E94811BF092FD05E092CA
:104A9000FC05DF91CF911F910F91FF90EF90DF9078
:104AA000CF9008958881807609F0A7CF6E01FFEF3F
:104AB000CF1ADF0AF12CF6018081811122C02091EA
:104AC000FC053091FD052115310519F0C9010E9441
:104AD000F318F60180838823A1F00091FC05109162
:104AE000FD052091FE053091FF052850364040918C
:104AF000A70A60E070E00E942F1AF4E0FF127DCF59
:104B00000CC0F3942FEFC21AD20A35E0F312D3CFC0
:104B10008091A80A8E7F8093A80AE0918F08F09177
:104B20009008818D8061818F68CF87FF03C07DCF22
:104B300018829CCF80FF0FC08E810E94BF17DE01BC
:104B40001796FE013696CE010A962D912193E8170D
:104B5000F907D9F71A8680918E088C7009F443C042
:104B6000EE81EE2309F43FC08F8181110FC0EB84E9
:104B7000FC84E114F10409F481CF25E0E29FF00107
:104B80001124ED58F94FF382E28207C08E2F0E9464
:104B9000141A7C01892B09F471CF8091FE05909144
:104BA000FF05885096408093A60AF701E80FF11D93
:104BB000CF01EF2B19F00E94F318D82ED092A90A3A
:104BC000DD2009F45BCF6091A60A70E0870120E048
:104BD00030E04E818D2D0E942F1A8091A80A8260AC
:104BE0008093A80A4BCF888185FF46CF8E818111A3
:104BF0000BC01882E0918F08F0919008158E148EEA
:104C000080E180938E0838CFE0918F08F091900872
:104C1000818D8061818F30CFCF92DF92EF92FF92B2
:104C20000F931F93CF93DF936C017A018B01C0E048
:104C3000D0E0CE15DF0589F0D8016D918D01D60148
:104C4000ED91FC910190F081E02DC6011995892B21
:104C500011F47E0102C02196ECCFC701DF91CF9104
:104C60001F910F91FF90EF90DF90CF900895ECE2AD
:104C7000F9E0A089B18982E08C93A485B5851C9266
:104C8000A685B7858FEC8C93108EA489B58986E0B4
:104C90008C93A289B3898C9180618C93A289B3890A
:104CA0008C9188608C93A289B3898C9180688C9355
:104CB0000288F389E02D80818F7D808308952F9273
:104CC0003F924F925F926F927F928F929F92AF929C
:104CD000BF92CF92DF92EF92FF920F931F93CF93E9
:104CE000DF93CDB7DEB7AC970FB6F894DEBF0FBE3B
:104CF000CDBF9C838B837B016A01590146175707FF
:104D000084F48D2D261737070CF0B8C169015B01BB
:104D1000E42EF82E2AEF30E03CA72BA76CE271E0DE
:104D20000FC0241735070CF054C09C2D8D2D650144
:104D3000A92EB82E4CE251E05CA74BA76AEF70E0B9
:104D40003EE5232E33243394CE14DF040CF0A3C1AC
:104D50009E2D8F2D7601C92ED82E9BA58CA5AEE554
:104D6000B1E0BCA7ABA7292E382EEA14FB04F1F55D
:104D7000BEE52B16B1E03B066CF09BA58CA5EBA520
:104D8000FCA5E215F30514F4922D832D2BA43CA46D
:104D90009BA78CA76215730544F02BA53CA526178D
:104DA000370714F47CA76BA7B101AB81BC81ED91EF
:104DB000FC9111972BA53CA5261B370B2F5F3F4F6E
:104DC0000684F785E02D0FEF1FEFA701CD011995A0
:104DD0006FC16EE571E0E216F30609F461C18CE281
:104DE00091E09CA78BA72AEF222E312CC101EBA5C5
:104DF000FCA58E1B9F0B96012E193F09AB014E1B84
:104E00005F0B5E834D83D501AE19BF09BA87A987B1
:104E1000FB01E219F309FE87ED87A5014C195D0935
:104E20005E8B4D8BCA14DB0431F0B6016150710901
:104E30007A8F698F02C0DA8EC98E4701412C512CBE
:104E40003201198A1A8A1B8A1C8AA901330F660B40
:104E5000770B4B8F5C8F6D8F7E8F29853A85032E64
:104E6000000C440B550B2F8F38A349A35AA3AC0158
:104E7000990F660B770B4BA35CA36DA37EA36D818B
:104E80007E81072E000C880B990B6FA378A789A74A
:104E90009AA7698D7A8D681579050CF458C06989CF
:104EA0007A898B899C892B8D3C8D4D8D5E8D0E94DE
:104EB00072418BA59CA5820F931F9A838983C3019E
:104EC000B2012F8D38A149A15AA10E947241ABA510
:104ED000BCA52A0F3B1F49895A896B897C898BA104
:104EE0009CA1ADA1BEA1480F591F6A1F7B1F498B12
:104EF0005A8B6B8B7C8B4FA158A569A57AA5440E64
:104F0000551E661E771E69817A812617370734F48D
:104F100099818A813A832983292F382FAB81BC81DB
:104F2000ED91FC91119749815A81241B350B2F5F1C
:104F30003F4F0684F785E02D0FEF1FEFA401698135
:104F40007A81CD0119955FEF851A950AA2CFC40128
:104F50008C199D09AD85BE85A89F2001A99F500C85
:104F6000B89F500C1124052C000C6608770894019A
:104F70002E193F09ED81FE81E29FC001E39F900D54
:104F8000F29F900D11246C01990FEE08FF082D89F6
:104F90003E89032E000C440B550B2D8B3E8B4F8B03
:104FA000588F49855A85052E000C660B770B49876B
:104FB0005A876B877C87BD01072E000C880B990BE5
:104FC0006D877E878F87988BCF01092E000CAA0BE7
:104FD000BB0B8D839E83AF83B887A814B9040CF4F0
:104FE00067C0C301B2012D893E894F89588D0E9447
:104FF0007241D101A20FB31FBA83A983C701B601C1
:1050000029853A854B855C850E947241EBA5FCA5FC
:105010002E0F3F1F4D855E856F857889440E551E86
:10502000661E771E6D817E818F819885C60ED71E84
:10503000E81EF91E89819A812817390734F499816D
:105040008A813A832983292F382FAB81BC81ED9146
:10505000FC91119749815A81241B350B2F5F3F4FDB
:105060000684F785E02D0FEF1FEFA40169817A8197
:10507000CD0119955FEF851A950AAFCF6B01E42E2C
:10508000F82EAAEFB0E0BCA7ABA76EE571E09CE2FA
:10509000292E33243394EA14FB0409F0A7CE6DCEF5
:1050A000ECE2F1E0FCA7EBA78AEF282E312C75CEBD
:1050B000AC960FB6F894DEBF0FBECDBFDF91CF9197
:1050C0001F910F91FF90EF90DF90CF90BF90AF9026
:1050D0009F908F907F906F905F904F903F902F9018
:1050E0000895382F20912B0990912A09213208F038
:1050F00049C0809107098111FCCF42E04093070924
:10510000309306093FEF309305091092040920936C
:105110000309AAE0B9E043EE58E0FA013E2F341B40
:10512000321718F43D913193F9CF1092E208209193
:10513000E208990F922B9093E2089091E108913048
:1051400061F41092E1089091E2089093BB00909175
:10515000BC0093FDF8CF95EC01C095EE9093BC0098
:10516000909107099230E1F3909105099F3F79F002
:1051700080910509803241F080910509803331F03A
:1051800084E005C081E003C082E001C083E01092AA
:10519000090910922B09109208090895CF93C62F80
:1051A000FC01808191E09093080980932A09109274
:1051B000090910922B0961E08DE19AE00E94F8073D
:1051C0006C2F8DE19AE00E94F80781E0CF9189CFA2
:1051D0008F929F92AF92BF92CF92DF92EF92FF9207
:1051E0006B017C010E9469174B015C01C60ED71E42
:1051F000E81EF91E0E946917681579058A059B0546
:1052000028F0C616D706E806F906A0F7FF90EF903B
:10521000DF90CF90BF90AF909F908F9008950F93A5
:105220001F93CF93DF93EC0188819981009729F038
:105230002A813B812617370788F48B016F5F7F4FE8
:105240000E94D843009761F0998388831B830A8367
:105250002C813D81232B11F4FC01108281E001C0DF
:1052600080E0DF91CF911F910F910895EF92FF920F
:105270000F931F93CF93DF93FC0124813581611538
:10528000710511F480E018C041155105A1F07B01B2
:10529000EC018A01020F131FB801C1DF882391F3CB
:1052A000288139818C819D81B701820F931F0E94D3
:1052B000D0441D830C8381E0DF91CF911F910F912A
:1052C000FF90EF900895CF93DF93EC01888199814F
:1052D000009711F00E944043198218821D821C829F
:1052E0001B821A82DF91CF910895EF92FF920F9364
:1052F0001F93CF93DF93EC017B018A01BA018FDF0B
:10530000811103C0CE01DFDF07C01D830C83B7010D
:10531000888199810E94D044CE01DF91CF911F9165
:105320000F91FF90EF900895CF93DF93EC016115FB
:10533000710551F0FB0101900020E9F73197AF01B1
:10534000461B570BD2DF01C0BEDFCE01DF91CF91EC
:105350000895FC01808191810C944043FC011182ED
:10536000108213821282158214826115710549F030
:10537000FB0101900020E9F73197AF01461B570B65
:10538000B4CF0895DC01ED91FC910190F081E02D06
:105390001994DC01ED91FC91DB0114964D915C9127
:1053A00015976D917C910280F381E02D1994611520
:1053B000710579F0FB0101900020E9F73197AF0109
:1053C000461B570BDC01ED91FC910280F381E02D2F
:1053D000199480E090E008954F925F926F927F92CF
:1053E000EF92FF920F931F93CF93DF93CDB7DEB76A
:1053F000A1970FB6F894DEBF0FBECDBF7C01FA01B6
:10540000CB0119A2223008F42AE08E010F5D1F4F54
:10541000422E512C612C712CBF01A30192010E94DC
:105420005041F901CA01015011096A3014F4605D5C
:1054300001C0695CD8016C93232B242B252B61F7C9
:10544000B801C701B4DFA1960FB6F894DEBF0FBE56
:10545000CDBFDF91CF911F910F91FF90EF907F9083
:105460006F905F904F9008954F925F926F927F92EE
:105470008F929F92AF92BF92CF92DF92EF92FF9264
:10548000CF93DF93EC016A017B019A01AB01C70165
:10549000B6010E949F42882319F066E775E01AC0A2
:1054A00046015701E894B7F82FEF3FEF4FE75FE76A
:1054B000C501B4010E949F42811110C02FEF3FEF40
:1054C0004FE75FE7C501B4010E943740181634F476
:1054D0006AE775E0CE016BDF7C0180C02FEF3FEF04
:1054E0004FE75FE4C701B6010E949B4218161CF407
:1054F0006EE775E0EFCF2FEF3FEF4FE75FECC701AF
:10550000B6010E94374087FDF3CF20E030E0A901CB
:10551000C701B6010E94374087FF09C06DE2CE0186
:1055200031DF5C01F7FAF094F7F8F09402C0A12C97
:10553000B12C2AE037ED43EA5BE3C701B6010E94D4
:105540009E412B013C010E946F426B017C010E9435
:105550003B409B01AC01C301B2010E949D412B0164
:105560003C012AE0B701A601CE0136DF7C01EA0C3E
:10557000FB1C6EE2CE0106DFE80EF91E20E030E0F3
:1055800040E251E4C301B2010E949C402B013C0166
:105590000E946F424B01A12CB12C2AE0B501A4015D
:1055A000CE011ADFE80EF91EC501B4010E943B408E
:1055B0009B01AC01C301B2010E949D4120E030E09B
:1055C00040E251E40E949C400E946F42AB0160E0C7
:1055D00070E02AE0CE0100DFE80EF91E67EE72E00F
:1055E000CE01E5DE8E0D9F1DDF91CF91FF90EF90F4
:1055F000DF90CF90BF90AF909F908F907F906F90F3
:105600005F904F9008950F931F93CF93DF93EC011A
:10561000CEDE8C0167EE72E0CE01C9DE800F911FF5
:10562000DF91CF911F910F910895C1CEDC011C969F
:10563000ED91FC911D97309731F0868197819827E5
:1056400089279827089580E090E00895CF93DF930D
:10565000FC01EB01AC85BD85109791F012969C91F1
:10566000129713968C9113973C9111962C9148ECBC
:1056700052E051834083328323839483858308C01F
:1056800088EC92E0918380831282138214821582C7
:10569000CF01DF91CF910895CF93DF931F92CDB7C4
:1056A000DEB7DC01ED91FC91048CF58DE02D41E03D
:1056B00050E0BE016F5F7F4F1995181619061CF454
:1056C000898190E002C08FEF9FEF0F90DF91CF9123
:1056D0000895CF93DF931F92CDB7DEB76983DC01C6
:1056E000ED91FC910280F381E02D41E050E0BE019C
:1056F0006F5F7F4F19950F90DF91CF910895CF93F2
:10570000DF93EC01C0D889890E94BF17198ADF9105
:10571000CF910895CF93DF93EC01B5D88989DF91BC
:10572000CF910C94141ACF93DF93EC01ACD88989F4
:1057300081110E94BF178889898B188ADF91CF91C8
:105740000C94141A0F931F93CF93DF931F92CDB72E
:10575000DEB78C0198D8F8018189882391F041E067
:1057600050E060E070E00E94DA198C01BE016F5FCA
:105770007F4F0E94DF170130110519F4898190E0F5
:1057800002C08FEF9FEF0F90DF91CF911F910F918C
:105790000895CF92DF92EF92FF920F931F93CF93D2
:1057A000DF931F921F92CDB7DEB77C016B01498357
:1057B0005A8369D8F701818949815A81882351F137
:1057C00060E070E00E94DA198C01B6010E94DF17D8
:1057D000F701D1888D2D0E94141A0817190731F48A
:1057E0008D2D0E94BF17F701118A12C085E0D89E47
:1057F000F0011124ED58F94F80819181800F911FA4
:105800009183808382819381801B910B9383828318
:10581000C80102C080E090E00F900F90DF91CF911F
:105820001F910F91FF90EF90DF90CF900895CF934D
:10583000DF93EC018A89882369F09A01AB016E85B8
:105840007F850E9496192E853F85280F391F3F8737
:105850002E8702C080E090E0DF91CF910895CF9332
:10586000DF93EC010E94641A2091FC053091FD0544
:105870009091A80A2A32310521F41092A90A9D7F3D
:1058800003C01D821C8292609093A80ADF91CF9181
:105890000C940A24CF93DF93EC018C859D85892B92
:1058A00019F480E090E023C0EA89EE23D1F381E08F
:1058B0008B8B8E859F8525E0E29FF0011124ED58AA
:1058C000F94F938382838C859D8590938D08809377
:1058D0008C0885E00E94951B8091FC059091FD0548
:1058E000892BF9F2CE010E96BADF81E090E0DF91CC
:1058F000CF9108954F925F926F927F928F929F9275
:10590000AF92BF92CF92DF92EF92FF920F931F93CD
:10591000CF93DF93CDB7DEB7E5970FB6F894DEBF30
:105920000FBECDBF7C018B016A0188EC92E09A83A7
:1059300089831C861B8648EE53E060E070E04D874B
:105940005E876F87788B20E732E03A8729871E8A47
:105950001D8AFE01779626E0DF011D922A95E9F760
:105960009AA789A71BA61CA61DA61EA68091130A8E
:105970009091140AA091150AB091160A8F8F98A3DE
:10598000A9A3BAA38B839C83AD83BE8318861F8291
:10599000F801D8018D91882331F08E32D9F38053EC
:1059A0008A30C0F34EC080E090E020E030E05AE062
:1059B0004191442311F1243031050CF042C04E32A4
:1059C00081F48F3F910509F0E4F5ABE2B0E0AC0F54
:1059D000BD1FA20FB31F8C932F5F3F4F80E090E05D
:1059E000E7CF589FB001599F700D1124842F440FA9
:1059F000990BC097860F971FDBCF8F3F910509F05A
:105A000004F524303105ECF4FE01E20FF31F83A707
:105A1000D701ED91FC910488F589E02D88EC92E0A6
:105A20009E8F8D8F8BA59CA5ADA5BEA58F8F98A3AE
:105A3000A9A3BAA3A601BE01635E7F4FC701199552
:105A400015C24B815C816D817E818091190A909194
:105A50001A0AA0911B0AB0911C0A481759076A0735
:105A60007B0709F401C20E9469176F7077277C5F7A
:105A7000CE0109960E942923813009F0F2C188ECF9
:105A800092E09E8F8D8F8B819C81AD81BE818F8FA7
:105A900098A3A9A3BAA345E350E0BE01635E7F4F7C
:105AA000CE0109960E944424892B19F400E010E0ED
:105AB000B7C10E94691778876F8342E050E0BE014A
:105AC000695F7F4FCE010996B2DE81E090E09E8F44
:105AD0008D8F42E050E0BE01635E7F4FCE0109969C
