:1000000050C400007FC400007DC400007BC4000019
:1000100079C4000077C4000075C4000073C40000F8
:1000200071C400006FC400006DC400006BC4000008
:1000300069C4000067C4000065C4000063C4000018
:1000400061C400005FC400005DC400005BC4000028
:1000500059C4000057C4000055C400000C94131D7F
:1000600051C400000C94C11B0C94981B4BC400009D
:1000700049C4000047C4000045C4000043C4000058
:1000800041C400003FC400003DC400003BC4000068
:1000900039C4000037C4000035C40000BAC50000F0
:1000A00031C400002FC400002DC400002BC4000088
:1000B00029C4000027C4000025C4000023C4000098
:1000C00021C400001FC400001DC400001BC40000A8
:1000D00019C4000017C4000015C4000013C40000B8
:1000E00011C40000261C291C181C1C1C201C601C90
:1000F0002D1C311C371C3B1C3F1C451C491C4D1C36
:10010000601C531C571C5B1CC025D8255026422759
:10011000622782278A27372700407A10F35A00A0E7
:10012000724E18090010A5D4E80000E876481700C0
:1001300000E40B54020000CA9A3B000000E1F50500
:10014000000080969800000040420F000000A0864A
:1001500001000000102700000000E803000000007C
:100160006400000000000A00000000000100000020
:1001700000002C76D888DC674F0823DFC1DFAE593A
:10018000E1B1B796E5E3E453C63AE651997696E8CD
:10019000E6C28426EB898C9B62ED407C6FFCEFBC51
:1001A0009C9F40F2BAA56FA5F490055A2AF75C937C
:1001B0006B6CF9676DC11BFCE0E40D47FEF520E6B2
:1001C000B500D0ED902E0300943577050080841E95
:1001D000080000204E0A000000C80C333333330FF0
:1001E000986E12831141EF8D2114893BE65516CF8D
:1001F000FEE6DB18D1844B381BF77C1D901DA4BB99
:10020000E424203284725E228100C9F124ECA1E54D
:100210003D27E50110E70110E80148EC0109ED0177
:100220006C23016F240157250171E201181B011590
:100230000101001C01031901017F051F018C1F0131
:10024000847F0A1F01947F0A1F01D47F05400D009F
:100250002B293E3D3F24740806070D17500D000260
:100260000116143F0B5B08121819175D01FF1601E8
:10027000082801207F282801387F2828013C020215
:100280000000040200EF060200000802018F800255
:1002900000008202000017010500000000003E5B24
:1002A0004F5B3E3E6B4F6B3E1C3E7C3E1C183C7EC3
:1002B0003C181C577D571C1C5E7F5E1C00183C18A8
:1002C00000FFE7C3E7FF0018241800FFE7DBE7FFA4
:1002D00030483A060E2629792926407F0505074031
:1002E0007F05253F5A3CE73C5A7F3E1C1C08081CF2
:1002F0001C3E7F14227F22145F5F005F5F06097F30
:10030000017F006689956A606060606094A2FFA2C8
:100310009408047E040810207E201008082A1C0877
:10032000081C2A08081E101010100C1E0C1E0C3081
:10033000383E3830060E3E0E060000000000000079
:100340005F00000007000700147F147F14242A7F39
:100350002A12231308646236495620500008070306
:1003600000001C2241000041221C002A1C7F1C2A84
:1003700008083E08080080703000080808080800D7
:100380000060600020100804023E5149453E0042D2
:100390007F400072494949462141494D33181412A2
:1003A0007F1027454545393C4A49493141211109CA
:1003B000073649494936464949291E0000140000BC
:1003C00000403400000008142241141414141400D6
:1003D0004122140802015909063E415D594E7C1222
:1003E00011127C7F494949363E414141227F4141BA
:1003F000413E7F494949417F090909013E41415137
:10040000737F0808087F00417F41002040413F0181
:100410007F081422417F404040407F021C027F7FC2
:100420000408107F3E4141413E7F090909063E41D3
:1004300051215E7F09192946264949493203017F26
:1004400001033F4040403F1F2040201F3F403840B5
:100450003F631408146303047804036159494D434E
:10046000007F4141410204081020004141417F04C6
:1004700002010204404040404000030708002054AD
:100480005478407F2844443838444444283844440D
:10049000287F385454541800087E090218A4A49CDC
:1004A000787F0804047800447D40002040403D00EF
:1004B0007F1028440000417F40007C047804787C51
:1004C000080404783844444438FC182424181824B8
:1004D0002418FC7C08040408485454542404043FA1
:1004E00044243C4040207C1C2040201C3C403040A8
:1004F0003C44281028444C9090907C4464544C44D4
:100500000008364100000077000000413608000274
:10051000010204023C2623263C1EA1A161123A409E
:1005200040207A3854545559215555794122545414
:100530007842215554784020545579400C1E52720F
:1005400012395555555939545454593955545458EC
:100550000000457C410002457D420001457C407D14
:100560001211127DF0282528F07C545545002054A6
:10057000547C547C0A097F4932494949323A4444FF
:10058000443A324A4848303A4141217A3A4240207E
:1005900078009DA0A07D3D4242423D3D4040403D0F
:1005A0003C24FF2424487E4943662B2FFC2F2BFF3D
:1005B0000929F620C0887E0903205454794100009F
:1005C000447D413048484A32384040227A007A0A15
:1005D0000A727D0D19317D2629292F2826292929DE
:1005E0002630484D40203808080808080808083810
:1005F0002F10C8ACBA2F102834FA00007B00000876
:10060000142A142222142A14085500550055AA55FC
:10061000AA55AAFF55FF55FF000000FF001010105B
:10062000FF00141414FF001010FF00FF1010F01052
:10063000F0141414FC001414F700FF0000FF00FF76
:100640001414F404FC141417101F10101F101F149E
:1006500014141F00101010F0000000001F101010E4
:10066000101F10101010F010000000FF10101010DC
:100670001010101010FF10000000FF140000FF0009
:10068000FF00001F10170000FC04F41414171017CB
:100690001414F404F40000FF00F7141414141414D8
:1006A00014F700F7141414171410101F101F14144B
:1006B00014F4141010F010F000001F101F000000C0
:1006C0001F14000000FC140000F010F01010FF10C8
:1006D000FF141414FF141010101F00000000F0107D
:1006E000FFFFFFFFFFF0F0F0F0F0FFFFFF00000062
:1006F0000000FFFF0F0F0F0F0F3844443844FC4A2F
:100700004A4A347E02020606027E027E0263554990
:1007100041633844443C04407E201E2006027E0291
:100720000299A5E7A5991C2A492A1C4C7201724C12
:10073000304A4D4D303048784830BC625A463D3ED4
:10074000494949007E0101017E2A2A2A2A2A444475
:100750005F444440514A444040444A51400000FFF5
:100760000103E080FF000008086B6B083612362496
:1007700036060F090F0600001818000000101000C0
:100780003040FF0101001F01011E00191D1712005A
:100790003C3C3C3C000000000000002100240027FD
:1007A000002A002D00300033000101000004010781
:1007B000010A0100002200250028002B002E003134
:1007C00000340002010000050108010B01050505C8
:1007D00005070508080808020202020A0A080804B8
:1007E00004040401010101010101010303030303E6
:1007F000030303040707070C0C0C0C0C0C0C0C0275
:1008000002020206060606060606060B0B0B0B0B7B
:100810000B0B0B0102102020080810204010204074
:1008200080020102010804020101020408102040B4
:1008300080804020100804020180040201804020D2
:1008400010080402010804020101020408102040FB
:1008500080010204081020408000000A0B02090CED
:100860000D0E080703040100000000000000000056
:100870000000000000000000000000000000000078
:100880000000000000121110000000000000000035
:100890000000000000000000000000000000000058
:1008A000864511241FBECFEFD1E2DEBFCDBF00E0F1
:1008B0000CBF15E0A0E0B2E0E6ECFBE900E00BBF06
:1008C00002C007900D92AA3AB107D9F72AE0AAEA26
:1008D000B5E001C01D92A63DB207E1F714E0C1E505
:1008E000D4E000E006C021970109802FFE010E949C
:1008F000994BC035D10780E00807A9F70E94323331
:100900000C94E14D7DCB2F923F924F925F926F926C
:100910007F928F929F92AF92BF92CF92DF92EF928F
:10092000FF920F931F93CF93DF9300D0CDB7DEB725
:100930004C017B836A836A01590117019801241BCA
:10094000350B37FF03C0319521953109C5014A8127
:100950005B81841B950B97FF03C09195819591094D
:1009600051E059838217930714F019820BC09A2D16
:100970008B2D5801092F182F9A818B81DB82CA8217
:10098000C92ED82E8A819B81A816B9065CF49C2DAD
:100990008D2D6801092F182F9A818B81BB82AA8225
:1009A000A92EB82E2501AA81BB814A1A5B0A3801FB
:1009B0006C187D0877FE03C0719461947108720110
:1009C00057FE03C0BFEFEB1AFB0AF594E794C0167D
:1009D000D1061CF00FEF1FEF1FC001E010E01CC09C
:1009E000D401ED91FC91B9810084F185E02D910154
:1009F000BB23C1F04A815B81B601C4011995E61899
:100A0000F708F7FE04C0C00ED11EE40CF51CEA8105
:100A1000FB813196FB83EA834A815B81A416B5068C
:100A2000FCF604C0A6016A817B81E7CF0F900F908E
:100A30000F90DF91CF911F910F91FF90EF90DF907A
:100A4000CF90BF90AF909F908F907F906F905F906E
:100A50004F903F902F90089585ED8093BC0080913A
:100A6000BC0084FDFCCF1092330908954091FB0532
:100A7000262F30E0240F311D21323105DCF4209186
:100A800033092430C9F4FC0180E090E0861758F463
:100A90003091FB052191DC01A752BA4FA30FB11D84
:100AA0002C930196F3CF8091FB05680F6093FB05B3
:100AB00080E0089581E0089582E008950895E0912E
:100AC000AB058091AA05E81730F4F0E0E754FA4F3F
:100AD000808190E008958FEF9FEF08959091AB058E
:100AE0008091AA05981750F4E92FF0E0E754FA4FE7
:100AF000208130E09F5F9093AB0502C02FEF3FEF66
:100B0000C90108958091AA0590E02091AB05821B50
:100B100091090895CF92DF92EF92FF920F931F9366
:100B2000CF93DF937C01262F972F8A018091340980
:100B3000882391F0C62FD72F6E01C40ED51ECC1579
:100B4000DD0569F06991D701ED91FC910190F0818B
:100B5000E02DC7011995F3CF642F822F87DFC801DD
:100B6000DF91CF911F910F91FF90EF90DF90CF9089
:100B70000895CF93DF931F92CDB7DEB7698320919D
:100B800034092223D1F020915709203240F021E08E
:100B900030E0FC013383228380E090E014C0809138
:100BA0003509E82FF0E0EA5CF64F998190838F5F7A
:100BB000809335098093570904C061E0CE01019606
:100BC00055DF81E090E00F90DF91CF910895089577
:100BD00080E090E00895EF92FF920F931F93DC0165
:100BE000ED91FC9111971A960D911C911B971896F7
:100BF0002D913C9119970288F389E02D7B0140E00B
:100C000050E060E070E019951F910F91FF90EF9018
:100C100008951F920F920FB60F9211240BB60F92E8
:100C20002F933F934F935F936F937F938F939F93F4
:100C3000AF93BF93EF93FF938091B900887F803685
:100C400009F49CC068F5883209F45BC090F48031E7
:100C500009F454C038F4882309F4F6C0883009F444
:100C60004DC0F5C0883109F44CC0803209F45DC034
:100C7000EEC0803409F468C048F4803309F455C0EC
:100C8000883309F0E4C080933109D8C0803509F475
:100C90004FC0883509F45DC0883409F0D8C0D6C08B
:100CA000883909F4C7C0A8F4883709F467C038F454
:100CB000883609F463C0803709F460C0C8C088383A
:100CC00009F4B8C0803909F45FC0803809F0BFC0AA
:100CD0005BC0803B09F486C038F4803A09F466C0F2
:100CE000883A09F47FC0B3C0803C09F4A7C0883CAF
:100CF00009F4A4C0883B09F48AC0A9C080910E09F8
:100D000010C09091300980912F09981770F5E091EB
:100D1000300981E08E0F80933009F0E0E15FF64FFB
:100D200080818093BB0085EC86C0809331098EC0A2
:100D3000E091300981E08E0F809330098091BB00F3
:100D4000F0E0E15FF64F80839091300980912F09A8
:100D50006EC0E091300981E08E0F80933009809160
:100D6000BB00F0E0E15FF64F808380913209811192
:100D70006DC081E080930D0984EA61C083E08093B7
:100D8000330910921F06CFCF80911F06803208F0E2
:100D900051C0E0911F0681E08E0F80931F06809165
:100DA000BB00F0E0E150FA4F8083BDCF85EC80932B
:100DB000BC001092330980911F06803230F4E0911C
:100DC0001F06F0E0E150FA4F108260911F0670E0BC
:100DD000E091FD05F091FE058FEF95E019951092D9
:100DE0001F0635C084E0809333091092FC051092F1
:100DF000FB05E091F905F091FA0519958091FB0545
:100E0000811105C081E08093FB051092D905E09126
:100E1000FC0581E08E0F8093FC05F0E0E752FA4F6D
:100E200080818093BB009091FC058091FB05981711
:100E300008F479CF85E88093BC0009C085EC8093E5
:100E4000BC001092330903C01092310905DEFF91F6
:100E5000EF91BF91AF919F918F917F916F915F9132
:100E60004F913F912F910F900BBE0F900FBE0F909F
:100E70001F901895CF92DF92EF92FF920F931F93DE
:100E8000CF93DF93FC011381112309F467C0EC01B8
:100E90000E94071DC880D9800D2C000CEE08FF08A9
:100EA000AB01BC014C195D096E097F098C859D85DC
:100EB000092E000CAA0BBB0B84179507A607B707D2
:100EC00008F44DC00E94071DC880D9800D2C000C6D
:100ED000EE08FF08AB01BC014C195D096E097F09E2
:100EE0008E859F85092E000CAA0BBB0B84179507D6
:100EF000A607B70798F10E94071DC880D9800D2C5E
:100F0000000CEE08FF08AB01BC014C195D096E092D
:100F10007F0988899989092E000CAA0BBB0B8417BD
:100F20009507A607B707D8F00E94071D0881198109
:100F3000012E000C220B330BAB01BC01401B510BEB
:100F4000620B730B8A899B89092E000CAA0BBB0BC1
:100F500084179507A607B70708F002C010E0812F95
:100F6000DF91CF911F910F91FF90EF90DF90CF9085
:100F70000895CF92DF92EF92FF920F931F93CF933A
:100F8000DF93FC011281112309F467C0EC010E9478
:100F9000071DC880D9800D2C000CEE08FF08AB019E
:100FA000BC014C195D096E097F098C819D81092E58
:100FB000000CAA0BBB0B84179507A607B70708F40C
:100FC0004DC00E94071DC880D9800D2C000CEE0872
:100FD000FF08AB01BC014C195D096E097F098E81C8
:100FE0009F81092E000CAA0BBB0B84179507A6073F
:100FF000B70798F10E94071DC880D9800D2C000CFE
:10100000EE08FF08AB01BC014C195D096E097F09B0
:1010100088859985092E000CAA0BBB0B84179507B0
:10102000A607B707D8F00E94071D08811981012E75
:10103000000C220B330BAB01BC01401B510B620BAC
:10104000730B8A859B85092E000CAA0BBB0B84179A
:101050009507A607B70708F002C010E0812FDF91BF
:10106000CF911F910F91FF90EF90DF90CF90089557
:10107000FF920F931F93CF93DF938C0160E00E9448
:101080008F31F801808191E0909334098093560963
:10109000109235091092570960E089E49AE069DD01
:1010A00081E00E943231F801208180913309811161
:1010B000FCCF81E080933309809332099FEF9093B6
:1010C00031091092300980932F0980930E09909175
:1010D0000E09822F880F892B80930E0980910D09AC
:1010E000813061F410920D0980910E098093BB004C
:1010F0008091BC0083FDF8CF85EC01C085EE809324
:10110000BC00809133098130E1F380913009823055
:1011100018F48091300901C082E0AFE0B9E029EB1A
:1011200035E0F9019E2F921B981718F49D91919329
:10113000F9CF1092AB058093AA0589E49AE0CEDC42
:10114000F82E89E49AE0CADCEC0161E0C8010E9453
:101150008F3160E070E07F2D6C2B7D2B072E000C13
:10116000880B990B0E94204920E030E040E05DE3CD
:101170000E947F4920E030E040E05EE30E947F492A
:10118000DF91CF911F910F91FF900895FC0182A1F3
:10119000811186A10895FC01158660EE74E088E552
:1011A00099E00C940D33CF93DF93EC011EA260E025
:1011B0008CA10E94F71B1AA260E088A10E94F71B75
:1011C00064EF74E088E599E0DF91CF910C940D33E2
:1011D0002F923F924F925F926F927F928F929F9247
:1011E000AF92BF92CF92DF92EF92FF920F931F9335
:1011F000CF93DF93CDB7DEB766970FB6F894DEBF17
:101200000FBECDBF6C016E8BFC0127A930E0F90148
:10121000E353F84F8490FC0184A9A82FB0E0FD01AE
:10122000E353F84FA490F60166A970E0FB01E35385
:10123000F84F0491F60145A950E0FA01E353F84F45
:101240002490F901ED5EF74F7490FD01ED5EF74FCC
:101250006490FB01ED5EF74F1491FA01ED5EF74FDC
:1012600094919B8B60E00E94741C60E0F60185A95C
:101270000E94741CB12CF501EE0FFF1FCF018D549D
:10128000984F5C01FC01A591B4918C91962D90959D
:101290009C8B89238C93312CF101EE0FFF1FCF0122
:1012A0008D54984F1C01FC01A591B4919C918B89A0
:1012B000809589238C9361E0F60187A90E94741CB4
:1012C00061E0F60186A90E94741C912CF401EE0FD6
:1012D000FF1FCF018D54984F4C01FC01A591B49193
:1012E0008C9187298C93E02FF0E0EE0FFF1FED54D7
:1012F000F84FA591B491EC9110951E231C93F60123
:1013000084A90E94B01C8C01F60184A90E94B01C23
:101310002C018FEF93E07C01E418F50860E0F60102
:1013200087A90E94741C60E0F60186A90E94741CC3
:10133000F401A591B4918C9170947D8A87218C934E
:1013400061E0F60184A90E94741CF501A591B49195
:10135000EC916E2A6C9261E0F60185A90E94741CE2
:10136000F60186A90E94B01C3C01F60186A90E94E4
:10137000B01C6816790629F47724739404151505B2
:1013800009F0712C0FEF13E0081B190B61E0F60157
:1013900087A90E94741CF401A591B491EC91FD8978
:1013A000EF23EC93F101A591B491EC918B89E82B9B
:1013B000EC93F501A591B4918C919C8989238C9330
:1013C00060E0F60184A90E94741CF60186A90E94BF
:1013D000B01C5C01F60184A90E94B01CF60180AC2F
:1013E00091AC8114910409F440C0BC01990F880BA1
:1013F000990B0E9420491B012C01B501BB0C880BE5
:10140000990B0E9420499B01AC01C201B1010E94CD
:10141000E54A20E030E040E85FE30E94804A5B015B
:101420006C01B7010F2C000C880B990B0E9420490E
:101430009B01AC01C601B5010E947F495B016C01B3
:10144000B40180E090E00E941E499B01AC01C601FE
:10145000B5010E947F4920E030E040E85AE30E9455
:101460007F490E944D4B6B0107C0A81AB90A65015C
:10147000F1E0CF1AFCEFDF0A711002C0C12CD12CB1
:1014800061E088E30E94741C61E087E30E94741CA1
:10149000B601695C71096F31734008F0A8C09E897C
:1014A000911117C164E075E088E599E00E940D3361
:1014B0004AE0B801CE010D960E945C324AE0B701C5
:1014C000CE0101960E945C3218861F821A86198608
:1014D0001C861B8669817A816115710531F04D8109
:1014E0005E81CE0107960E94F8316CE875E0CE016E
:1014F00007960E94D031BE01635F7F4F0E94E731A3
:10150000BC0188E599E00E941F33CE0107960E9436
:101510002C32CE0101960E942C32CE010D960E94F3
:101520002C32C701805392408D38910570F4C80168
:101530008C5D9109893C910540F46AE075E088E58D
:1015400099E00E940D3383E032C1C7018A54914073
:101550008739910570F4C8018C5D9109893C91052A
:1015600040F468E175E088E599E00E940D3384E07D
:101570001EC1C701885592408E35910570F4C8018F
:1015800086579240893C910540F464E275E088E515
:1015900099E00E940D3381E00AC1C7018554914052
:1015A0008C34910570F4C80186579240893C9105AE
:1015B00040F460E375E088E599E00E940D3382E035
:1015C000F6C0ECEDEE1AF108F7E4EF16F10408F0BE
:1015D00080C000591140073E110508F07AC06EE343
:1015E00075E088E599E00E940D3385E0E0C08E89C2
:1015F000813009F06EC0C701845393408734910550
:1016000030F4C801885C91098937910528F1C70138
:10161000845992408437910558F4980128563140F6
:1016200029323105D8F0245B310921353105C0F06C
:1016300097012251324021353105B0F4A8014856B6
:1016400051404932510570F0445B51094135510513
:1016500008F041C08AE0ABC086E0A9C087E0A7C01F
:1016600088E0A5C089E0A3C08437910580F4C80153
:10167000885691408932910508F482C0845B9109B3
:101680008135910508F47EC02135310538F1C70157
:101690008D5A92408E35910578F1C7018350924062
:1016A0008A369105B0F1C701875791408036910580
:1016B000D8F1C701875D91098036910508F43FC0D4
:1016C0009CE0E91A93E0F90AEFE6EE16F10408F45B
:1016D00041C080E06CC08437910548F2C80188564B
:1016E00091408932910508F44FC0845B910981359E
:1016F000910508F44BC0CBCFC8018A589240813580
:10170000910508F445C0885C9109CD9708F442C062
:10171000C4CFC8018A58924081359105E8F1885CB0
:101720009109CD97D8F1BFCFC8018A589240813531
:101730009105B0F1885C9109CD97A0F1BACFC801AD
:101740008A5892408135910578F1885C9109CD974E
:1017500068F1B6CFC801805991408739910540F4AE
:1017600066E575E088E599E00E94313387E11FC0A6
:101770000C5B12400B3A110508F0ABCF88E117C0A3
:101780008BE015C08CE013C08DE011C08EE00FC05F
:101790008FE00DC080E10BC081E109C082E107C08C
:1017A00083E105C084E103C085E101C086E166965E
:1017B0000FB6F894DEBF0FBECDBFDF91CF911F9162
:1017C0000F91FF90EF90DF90CF90BF90AF909F90E0
:1017D0008F907F906F905F904F903F902F900895E3
:1017E0002F923F924F925F926F927F928F929F9231
:1017F000AF92BF92CF92DF92EF92FF920F931F931F
:10180000CF93DF93CDB7DEB7AB970FB6F894DEBFBB
:101810000FBECDBF3C011A012B01B22E902EC8A6DF
:10182000D9A6EAA6FBA660E070E0D5D982E0F30174
:10183000848B8FEF9FEF938B828B918B808BA1108A
:1018400003C080E090EF02C080EC9FEC7C0103E2DB
:1018500010E029E630E046E450E068E270E0C301C1
:10186000F1D1811003C080E090EF02C080EC9FECCA
:101870007C0103E210E029E630E041E950E068E253
:1018800070E0C301DFD182E390E0F30195878487A4
:1018900080E590E09787868760E073E0C3010E944F
:1018A0000D338EE390E0F301958784878BE990E018
:1018B0009787868768E073E0C3010E940D33F301C8
:1018C0001586148603E010E0178706878FEF9FEFD9
:1018D000918B808B138A128A6CE675E0C3010E949B
:1018E000313380EA90E0F301958784871787068774
:1018F0001BA21AA21DA21CA21FA21EA28E010F5F74
:101900001F4F22E044E0C201B1010E943846BC01F1
:10191000CE0182960E941732BE016E5D7F4FC301D9
:101920000E94A232CE0182960E942C32F3011586CB
:10193000148604E110E0178706876BE775E0C301A2
:101940000E940D3387ED90E0F30195878487178718
:101950000687B11003C064ED72E002C060ED72E072
:10196000CE0101960E948732BE016F5F7F4FC30197
:101970000E94A232CE0101960E942C326EE875E0E0
:10198000C3010E9431338EE591E0F301958784878E
:1019900084E190E097878687911003C064ED72E040
:1019A00002C060ED72E0CE0101960E948732BE0156
:1019B0006F5F7F4FC3010E94A232CE0101960E9449
:1019C0002C322AE530E04AE550E066E470E0C301DD
:1019D0000E94202F25EA30E045EA50E069EB70E0F4
:1019E000C3010E94202FEE24EA94FE2C0EE110E0A9
:1019F00024E630E04DEC50E066E970E0C30122D10E
:101A0000F301138A128A118A108A8AEA90E0958774
:101A1000848785ED90E09787868768E975E0C30144
:101A20000E940D3383E0F301848B8FEF90E0958764
:101A3000848783E790E09787868748A559A56AA59C
:101A40007BA5C3010E94512EAB960FB6F894DEBF62
:101A50000FBECDBFDF91CF911F910F91FF90EF90FF
:101A6000DF90CF90BF90AF909F908F907F906F90BE
:101A70005F904F903F902F90089580E00895FB0174
:101A800041505109460F571FE417F50778F420819C
:101A900030E0322F22276181260F311D820F931FE4
:101AA0008217930708F401963296EECFE417F507F4
:101AB00051F4208130E0322F2227820F931F8217AA
:101AC000930708F401960895DC01ED91FC91048CD4
:101AD000F58DE02D1994CF93DF93DC011C96ED91E9
:101AE000FC911D973097B1F0EC011582148212869B
:101AF00011861D861C8689890E945D1D88890E9429
:101B00005D1D8A890E945D1D2E9686E0FE01119260
:101B10008A95E9F7DF91CF9108950F931F93CF93A3
:101B2000DF93EC018B018C859D85892B41F460E06E
:101B300070E080E090E00E9431289D878C87EC85E2
:101B4000FD85309751F01027012710271583048356
:101B50002E96D287C18781E001C080E0DF91CF91CE
:101B60001F910F910895CF93DF931F92CDB7DEB7EA
:101B7000FC01828D238D24FB992790F99627692FEC
:101B800070E0778F668F80FF2CC08091AD05882331
:101B9000E1F0248D358D273483E8380719F022359C
:101BA000324531F4911102C082E007C086E005C0E1
:101BB000911102C08AE001C088E08983AE014F5FC5
:101BC0005F4F61E081E090E00AC0911103C080E2C4
:101BD00090E002C081E290E040E050E060E051D649
:101BE0002DC0848D958D873222E9920780F485324D
:101BF00022E99207A0F4803224E59207C1F08339EC
:101C000027E79207A1F084359140A9F408C08632F5
:101C100023E9920761F08930954B69F408C0660F9B
:101C2000771F660F771F636187E090E006C06260F0
:101C300081E094E002C081E690E026D70F90DF912A
:101C4000CF910895AF92BF92CF92DF92EF92FF9221
:101C50000F931F93CF93DF93EC018091AC05882302
:101C600049F0C7018F719927880F991FE1ECEE2287
:101C7000E82AF92A37FF05C0620F731F31952195B5
:101C80003109260F371F77FF02C060E070E08885BA
:101C90009985821793070CF49C016901C61AD70A2B
:101CA00017FF05C0400F511F119501951109040F31
:101CB000151F57FF02C040E050E08A859B858017C2
:101CC00091070CF48C015801A41AB50A01501109AE
:101CD00021503109CE019AD78B988A9888A599A569
:101CE00050910201292F3327F901E07CFF27B3E04F
:101CF000F595E795BA95E1F7B9016370772715E097
:101D0000660F771F1A95E1F74E2F462B5778452B14
:101D10004093020165B1A9014C725527440F551F2C
:101D2000440F551F562F5F74452B45B944B320719E
:101D30003327220F331F342F3F7D232B24BB899859
:101D4000899A30910201BC01607C7727E3E07595A8
:101D50006795EA95E1F7AC0143705527F5E0440F2C
:101D6000551FFA95E1F7262F242B3778232B209344
:101D7000020145B19C012C723327220F331F220F21
:101D8000331F342F3F74232B25B924B38071992737
:101D9000880F991F922F9F7D892B84BB8998899AE0
:101DA0008A9ACA14DB042CF49C2D8D2D6501A92E72
:101DB000B82E8F2D99279C0123703327A90125E088
:101DC000440F551F2A95E1F79C01207C332753E0EF
:101DD000359527955A95E1F7242BBC016C7277272E
:101DE000660F660F80719927880FF701E370FF2750
:101DF00075E0EE0FFF1F7A95E1F7A701407C5527AC
:101E0000F3E055954795FA95E1F79E2F942BA7019E
:101E10004C725527742F770F770F30E1E322FF24A0
:101E2000EE0C1A141B0444F5A60130910201377818
:101E3000322B3093020135B13F74362B35B934B3B0
:101E40003F7D382B34BB8998899A309102013778CD
:101E5000392B3093020135B13F74372B35B934B388
:101E60003F7D3E2934BB8998899A41505109E9F652
:101E7000E1E0AE1AB108D5CF8B9A8A8D80FF08C0F9
:101E80008C8D9D8D8632954189F48D8980FF0EC0A1
:101E90000A851B8501501109288539852150310992
:101EA00040E050E060E070E0CE01B0D6DF91CF912D
:101EB0001F910F91FF90EF90DF90CF90BF90AF9068
:101EC0000895EF92FF920F931F93CF93DF93C82F44
:101ED000E0908506F12C84E1E81AF108209184064F
:101EE00030E0322F2227E20EF31E48E050E06EE889
:101EF00076E0C7018C0F911DC2DDC13131F0C09178
:101F0000A206C695C695CC7301C0C8E0D0E0AE016C
:101F100066E976E0B4DD8C01CE15DF0508F04CC033
:101F2000A7014C1B5D0BBE016E5D7F4F80910C09BC
:101F30000E94781FEC01219760E085E30E94F71B67
:101F40008AE38EBD0DB407FEFDCFA80160E070E00E
:101F50006C177D07C8F41EBC0DB407FEFDCF2EB56F
:101F600030E0322F22271EBC0DB407FEFDCF8EB508
:101F7000280F311D420F531F4217530710F44F5FB4
:101F80005F4F6E5F7F4FE4CF8A016C177D0781F44E
:101F90001EBC0DB407FEFDCF8EB590E0982F8827AC
:101FA0008A01080F191F0817190710F40F5F1F4F38
:101FB00061E085E30E94F71B0115110519F0902FD0
:101FC000812F02C08FEF9FEFDF91CF911F910F9173
:101FD000FF90EF90089544E150E062E876E080E001
:101FE00090E04DDD009721F09827892798270895E4
:101FF0008FEF9FEF089590910B09892F827091FFC9
:1020000011C02091090930E044E756E060E070E03B
:1020100080910C090E94341F80910B098D7F809361
:102020000B0918C020916806309169062115310509
:1020300019F0C9010E94911E80930C09882391F028
:10204000209168063091690644E756E060E070E050
:102050000E94341F80910C090E945D1D10920C0992
:1020600081E0089580E008950895CF92DF92EF9285
:10207000FF920F931F93CF93DF93A091F708B09136
:10208000F8085C96CD91DC915D975091F608209709
:1020900049F556FF6FC0E0E2F6E080E090E0208175
:1020A00021111AC061E1689F9001699F300D1124D0
:1020B000E901C05ED94F806188832F5D394F80E18F
:1020C000F90111928A95E9F7209709F453C05D96BA
:1020D000DC93CE935C9706C001967196843091058F
:1020E000F1F648C051FF07C08091680690916906DB
:1020F000892B09F055C0888187FF0EC08F778883B0
:102100008091F60882608093F608E091F708F091DC
:10211000F808818D8F7E818F8091F608982F9071BD
:10212000D92E84FF80C07E01E6E0EE0EF11C6E0128
:10213000FBE0CF0ED11CF70180810E945D1DF701ED
:1021400011927F01EC15FD05B1F78981882309F40F
:102150006DC0E091F708F091F808848195819F8324
:102160008E83888180648883E091F708F091F80875
:10217000158E148EE12CF12CB70180916A06909196
:102180006B060E941F21F0926906E0926806DF91BB
:10219000CF911F910F91FF90EF90DF90CF90089516
:1021A0008881807609F0A7CF6E01FFEFCF1ADF0A92
:1021B000F12CF6018081811122C0209168063091B6
:1021C00069062115310519F0C9010E94911EF60119
:1021D00080838823A1F00091680610916906209100
:1021E0006A0630916B062457364040910A0960E038
:1021F00070E00E94CD1FF4E0FF127DCF0CC0F3947D
:102200002FEFC21AD20A35E0F312D3CF80910B0917
:102210008E7F80930B09E091F708F091F808818D8B
:102220008061818F68CF87FF03C07DCF18829CCFEC
:1022300080FF0FC08E810E945D1DDE011796FE019A
:102240003696CE010A962D912193E817F907D9F712
:102250001A868091F6088C7009F443C0EE81EE2353
:1022600009F43FC08F8181110FC0EB84FC84E1141D
:10227000F10409F481CF25E0E29FF0011124E1523D
:10228000F94FF382E28207C08E2F0E94B21F7C01B9
:10229000892B09F471CF80916A0690916B0684575F
:1022A000964080930909F701E80FF11DCF01EF2B4C
:1022B00019F00E94911ED82ED0920C09DD2009F44D
:1022C0005BCF6091090970E0870120E030E04E812A
:1022D0008D2D0E94CD1F80910B09826080930B0988
:1022E0004BCF888185FF46CF8E8181110BC018822C
:1022F000E091F708F091F808158E148E80E1809334
:10230000F60838CFE091F708F091F808818D8061E8
:10231000818F30CF0F931F93CF93DF93EC018B010D
:1023200010161106ACF4FE01859194912496FE01DD
:102330003297659174918F3F2FEF920729F480E0D7
:1023400090E00E94CF1C01C09FD304501109E8CF38
:10235000DF91CF911F910F910895BF92CF92DF929D
:10236000EF92FF920F931F93CF93DF93CDB7DEB71A
:1023700068970FB6F894DEBF0FBECDBF8C017B010E
:102380008EEFC82EDD24DA941E141F045CF5F801CC
:1023900084913196B4900E5F1F4F8F3729F0202F14
:1023A000DE011196F80108C06B2D70E080E090E02E
:1023B0000E94CF1CB12C10C09E2F921B9B1520F4A5
:1023C00094919D933196F8CF0B0D111DAE014F5F87
:1023D0005F4F6B2D90E055D2C6018B199109E80E25
:1023E000F91ED2CF68960FB6F894DEBF0FBECDBFF0
:1023F000DF91CF911F910F91FF90EF90DF90CF90E1
:10240000BF900895EF92FF920F931F93DC01ED911F
:10241000FC910288F389E02D780101E010E0199524
:102420001F910F91FF90EF900895EF92FF920F93FD
:102430001F93DC01ED91FC910288F389E02D780176
:10244000890121E030E019951F910F91FF90EF90E5
:10245000089508952F923F924F925F926F927F92CC
:102460008F929F92AF92BF92CF92DF92EF92FF92A4
:102470000F931F93CF93DF93CDB7DEB72D970FB692
:10248000F894DEBF0FBECDBF9D878C876A30A1F464
:10249000DC0154962C9154971E968D919C911F9718
:1024A000B8E02B9F800D911D1124EC85FD85978749
:1024B000868715861486FBC06D3009F4F8C0AC859C
:1024C000BD855496BC91B983EC85FD850288F3895E
:1024D000E02DFD83EC83AC85BD8550960D90BC91BD
:1024E000A02DBF83AE83EC85FD8586849784C4844C
:1024F000D58480859185C816D906C4F0AC85BD8584
:1025000054964C915497242F30E01C968D919C91B9
:102510001D97B6E04B9F800D911D1124EC85FD8524
:1025200095878487468941119EC0C1C0AC85BD8511
:102530001A968D919C911B9788169906FCF6B98185
:10254000AB2EB12CC601E6E0BE9F800D911D11247B
:10255000181619069CF6C50123E0880F991F2A95C5
:10256000E1F7880D991D1816190644F6AC85BD854E
:1025700057968C91811103C0603B08F06F5FB5E006
:102580006B9FB001112416011A82FB01EC19FD09A1
:10259000F987E8879401285F3F4F3B872A873A8174
:1025A000353049F0E885F985E20DF31DE756FD4F1A
:1025B00054915B8301C01B82240134018B8180FF15
:1025C00013C0AC85BD85ED91FC91B981B13031F47A
:1025D0000084F185E02D2E813F8119C00288F389A6
:1025E000E02DEE80FF801EC0EC81FD812E813F81B9
:1025F000E217F307F1F0AC85BD85ED91FC91B9814F
:10260000B13059F40084F185E02D2C813D81A30186
:10261000B1018C859D8519950CC00288F389E02D48
:10262000EC80FD8085019501A201B6018C859D8518
:102630001995EB81E695EB83FFEF6F1A7F0A4A0C41
:102640005B1C2A853B856216730609F0B7CF3A8179
:102650003F5F3A835FEF251A350ACA0CDB1C363020
:1026600009F09DCF4BCF4AEF4203B001439F700D5D
:102670001124AC85BD8518964D915C911997460F34
:10268000571F481759079CF483E0220F331F8A9580
:10269000E1F71E968D919C911F97280F391F1F9669
:1026A0003C932E931E971D961C921E921C9781E0C0
:1026B00090E02D960FB6F894DEBF0FBECDBFDF9130
:1026C000CF911F910F91FF90EF90DF90CF90BF902F
:1026D000AF909F908F907F906F905F904F903F90C2
:1026E0002F900895EF92FF920F931F93DC01ED91CD
:1026F000FC9111971A960D911C911B9718962D918C
:102700003C9119970288F389E02D7B0140E050E06D
:1027100060E070E019951F910F91FF90EF90089580
:102720006F927F928F929F92AF92BF92CF92DF92E1
:10273000EF92FF920F931F93CF93DF936C015A0197
:102740004801EB013B01620E731EC615D70574F4F8
:10275000D601ED91FC910484F585E02D870194016B
:10276000A501BE01C60119952196EFCFDF91CF914A
:102770001F910F91FF90EF90DF90CF90BF90AF909F
:102780009F908F907F906F900895EF92FF920F939C
:102790001F93DC01ED91FC91260F371F2150310969
:1027A0000284F385E02D78018A0119951F910F911C
:1027B000FF90EF900895EF92FF920F931F9378018F
:1027C000DC01ED91FC91240F351F890101501109A5
:1027D0000284F385E02D9B0119951F910F91FF90C5
:1027E000EF9008956F927F928F929F92AF92BF92D7
:1027F000CF92DF92EF92FF920F931F93CF93DF93CD
:10280000EC014B015A0169013801E881F981068424
:10281000F785E02D87011995E881F981A501460D1D
:10282000571D415051090684F785E02D9601B401EA
:10283000CE011995E881F9810484F585E02D930195
:10284000A501B401CE011995E881F981C80CD91C04
:10285000B601615071090484F585E02D9301A5014D
:10286000CE011995DF91CF911F910F91FF90EF90BD
:10287000DF90CF90BF90AF909F908F907F906F90A0
:102880000895CF93DF938B988A98E0910201292FC6
:102890003327E901C07CDD27F3E0D595C795FA958C
:1028A000E1F7D901A370BB27D5E0AA0FBB1FDA95CA
:1028B000E1F77C2F7A2BE7787E2B7093020175B1BC
:1028C000F901EC72FF27EE0FFF1FEE0FFF1F7F7461
:1028D000E72BE5B974B320713327220F331F372F4D
:1028E0003F7D232B24BB8998899A30910201DC011A
:1028F000A07CBB27C3E0B595A795CA95E1F7FC017D
:10290000E370FF27D5E0EE0FFF1FDA95E1F72A2FDE
:102910002E2B3778232B2093020175B19C012C724A
:102920003327220F331F220F331F372F3F74232BE0
:1029300025B974B39C0120713327220F331F372F21
:102940003F7D232B24BB8998899A8A9AFA017FEFCD
:10295000760F16160CF094C0219140910201322F8F
:10296000307C369536953695522F537060E2569FDF
:10297000D00111243A2B4778342B3093020165B1F2
:10298000322F3C72A4E03A9FA0011124362F3F74ED
:10299000432B45B934B32071220F3F7D232B24BB39
:1029A0008998899A772309F469C02091AD0522237B
:1029B00009F464C001968A9850910201292F3327A7
:1029C000E901C07CDD2743E0D595C7954A95E1F73D
:1029D000D901A370BB2765E0AA0FBB1F6A95E1F779
:1029E0004C2F4A2B5778452B4093020165B1A90122
:1029F0004C725527440F551F440F551F562F5F74B7
:102A0000452B45B944B320713327220F331F342F90
:102A10003F7D232B24BB8998899A30910201DC01E8
:102A2000A07CBB27C3E0B595A795CA95E1F7AC019B
:102A300043705527D5E0440F551FDA95E1F72A2F4B
:102A4000242B3778232B2093020145B19C012C7253
:102A50003327220F331F220F331F342F3F74232BB2
:102A600025B944B39C0120713327220F331F342F23
:102A70003F7D232B24BB8998899A8A9A672F67CF39
:102A80008B9ADF91CF910895CF93DF938B988A989B
:102A9000E2E0F1E05081292F3327E901C07CDD27F6
:102AA00043E0D595C7954A95E1F7D901A370BB27B7
:102AB000D5E0AA0FBB1FDA95E1F74C2F4A2B5778C8
:102AC000452B4083A5B1A9014C725527440F551FD2
:102AD000440F551F5A2F5F74452B45B944B32071DD
:102AE0003327220F331F342F3F7D232B24BB89989C
:102AF000899A3081DC01A07CBB27D3E0B595A795EE
:102B0000DA95E1F7AC014370552725E0440F551FD6
:102B10002A95E1F72A2F242B3778232B208345B1E0
:102B20009C012C723327220F331F220F331F342FA7
:102B30003F74232B25B924B380719927880F991FDF
:102B4000922F9F7D892B84BB8998899A8A9A30819C
:102B5000872F9927DC01A07CBB27C3E0B595A795FB
:102B6000CA95E1F7AC0143705527D5E0440F551FD6
:102B7000DA95E1F72A2F242B3778232B208345B1D0
:102B80009C012C723327220F331F220F331F342F47
:102B90003F74232B25B924B380719927880F991F7F
:102BA000922F9F7D892B84BB8998899A9081AB0154
:102BB000407C5527B3E055954795BA95E1F79B01C1
:102BC00023703327C5E0220F331FCA95E1F7842F06
:102BD000822B9778892B808325B1CB018C72992722
:102BE000880F991F880F991F922F9F74892B85B981
:102BF00084B360717727660F771F8F7D682B64BB66
:102C00008998899A8B9ADF91CF9108958F929F929C
:102C1000AF92BF92CF92DF92EF92FF920F931F93EA
:102C2000CF93DF9300D01F92CDB7DEB77C014B016D
:102C30006A015901FC01848D958D8732F3E99F0764
:102C400099F4F7018589823031F4F0E2CF0ED11C7E
:102C5000005E1F4F1DC08330D9F420E2820E911C0C
:102C600080E2A80EB11C14C08632954189F4F701A8
:102C7000858980FF0DC0C801841B950B19F40F5F77
:102C80001F4F06C02617370719F4A80EB91E8A0170
:102C9000F701828D80FF37C082A599828A82BB822C
:102CA000AC82AE014F5F5F4F64E090E0EADDF70178
:102CB00086A5D982CA821B830C83AE014F5F5F4F0A
:102CC00064E090E0DEDD8091AD05882309F451C019
:102CD000F701848D958D8536910509F04AC099825A
:102CE0008A82AE014F5F5F4F62E084A195A1C9DD8A
:102CF000D982CA82AE014F5F5F4F62E0F70186A1C1
:102D000097A1BFDD36C0B401F70184A195A1BCDE57
:102D1000B601F70186A197A1B7DE8A149B0419F4C6
:102D2000C016D10631F1F701828D85FF0EC085896D
:102D300080FF06C0102F0027C02AD12A860105C0B7
:102D4000BA2CAA248A289B285401B401F70182A531
:102D500093A59ADEB601F70186A597A595DEB50184
:102D6000F70184A595A590DEB801F70180A991A986
:102D70008BDE0F900F900F900F90DF91CF911F91EE
:102D80000F91FF90EF90DF90CF90BF90AF909F900A
:102D90008F900895EF92FF920F931F93CF93DF933D
:102DA0007C01E90177FD28C057FD26C0FC01808524
:102DB00091856817790704F5828593854817590727
:102DC000DCF48091AC05882341F0CE018F71992706
:102DD000880F991FC17CC82BD92B8A019B01C70181
:102DE00015DFBE01F70180A591A5DF91CF911F915D
:102DF0000F91FF90EF9048CEDF91CF911F910F91EF
:102E0000FF90EF900895EF92FF920F931F93CF934F
:102E1000DF93CDB7DEB72A970FB6F894DEBF0FBEAB
:102E2000CDBF7C01862F8370D70155968C93559723
:102E3000462F417060FF05C016962D913C91179763
:102E400003C0F70124813581D70119963C932E9355
:102E50001897442329F014962D913C91159703C09F
:102E6000F70126813781D7011B963C932E931A9741
:102E7000823041F0833041F0813011F088E405C0A8
:102E800088E203C088E901C088EF8A87F701228DB4
:102E9000338D30FF03C08A8580588A8731FF04C094
:102EA0009A8580E489278A8733FF04C09A8588E061
:102EB00089278A87D7015C968D919C915D9720FF29
:102EC000D1C08431B8E69B07F1F49A85892F881F19
:102ED0008827881F8295880F880F807C96FD02C006
:102EE00020E001C020E298729A871F828260822BC4
:102EF00088878BE38987AE01495F5F4F63E086EB8C
:102F000090E0BFDC84C08336E9E19E0741F0813860
:102F1000F4E99F0721F0813125E1920709F52A851F
:102F200027FF02C021602A872A8526FF02C022606F
:102F30002A87833639E1930719F48A858F730EC087
:102F4000813844E9940719F48A858F7207C081316A
:102F5000954109F05CC08A858F7E806C8A8757C056
:102F60002091AD05222309F452C062E070E0F70120
:102F700075A364A326E030E037A326A3E2E2F0E0E5
:102F8000D7019996FC93EE9398979B967C936E93BA
:102F90009A9764E070E09D967C936E939C979F96C1
:102FA0003C932E939E9728E030E0D1963C932E934D
:102FB000D0978536910501F59A8594FD03C081E887
:102FC00089278A87442351F082E890E0F70195A38E
:102FD00084A380E890E097A386A32EC080E890E0C9
:102FE000D70195969C938E93949782E890E097965C
:102FF0009C938E93969720C082359245E9F48A85FA
:1030000084FD02C0826001C086608A8715C02AE202
:1030100030E0F70135A324A38BE290E097A386A3C9
:103020004CE250E051A740A733A722A735A724A719
:1030300097A786A791AB80AB8091AD05811103C0A6
:1030400086E390E002C086E190E0AE01465F5F4F0C
:1030500061E017DC8A8590E0D70191969C938E936E
:103060009097E3C02A858339B7E79B0709F448C0E6
:1030700050F48435F1E09F0781F0803234E5930706
:1030800009F081C03DC0863243E99407C9F1893017
:10309000A5EB9A0709F077C033C087E390E0F7010A
:1030A00093A782A786E390E095A784A789E390E0A1
:1030B00097A786A788E390E091AB80AB80E290E091
:1030C00095A384A381E290E097A386A382E290E097
:1030D00091A780A7822F022E000C990B8827990FA9
:1030E000881F9927982F8827990F26FD03C060E035
:1030F00070E002C060E071E08862682B792B81C0CB
:1031000040E052E0D70195965C934E93949741E04E
:1031100052E097965C934E93969742E052E09996D0
:103120005C934E93989740E152E09B965C934E934C
:103130009A9741E152E09D965C934E939C9742E1B1
:1031400052E09F965C934E939E9743E152E0D19656
:103150005C934E93D09727FD03C020E030E002C07F
:1031600020E030E88632B3E99B0731F080329445A5
:1031700019F060E07AE602C060E075E3622B732B21
:1031800080E094E035C080E290E0D70195969C9372
:103190008E93949781E290E097969C938E93969766
:1031A00082E290E099969C938E93989780E590E0C8
:1031B0009B969C938E939A9781E590E09D969C9325
:1031C0008E939C9782E590E09F969C938E939E971A
:1031D00083E590E0D1969C938E93D09727FD03C012
:1031E00060E070E002C060E070E8776280E690E046
:1031F0004BDC8A8586FD03C060E070E002C060E0C1
:1032000071E081E090E040DC8A8585FD03C060E0EC
:1032100070E002C068E070E083FD70616063F701F8
:1032200071A360A383E090E02FDCD70155968C91C9
:10323000559780FF36C05A968D919C915B9792FD71
:1032400030C094968D919C91959796962D913C9136
:10325000979795963C932E93949797969C938E93DD
:1032600096979A968D919C919B979E962D913C91C5
:103270009F979B963C932E939A979F969C938E93A1
:103280009E979C968D919C919D97D0962D913C9167
:10329000D1979D963C932E939C97D1969C938E9319
:1032A000D097F701028513850150110920853185DA
:1032B0002150310940E050E060E070E0C701A6DC39
:1032C000D70116966D917C9117975C968D919C9184
:1032D0005D978732B3E99B0749F4F70125892250AE
:1032E000223008F49EC000E010E09DC000E010E035
:1032F00020E030E0D7015A964C9140FF46C0198239
:10330000102F0A837B836C831D822E838091AD05F1
:10331000811103C083E390E002C08EE090E0AE0133
:103320004F5F5F4F66E0ADDA19821A838091AD0579
:10333000811103C087E390E002C084E190E0AE0118
:103340004F5F5F4F62E09DDA8091AD05882389F081
:103350001982F701848D958D8734934819F081E0A7
:1033600090E002C088E190E0AE014F5F5F4F61E006
:103370000AC0D7015A968C9180FF5AC040E050E0B5
:1033800060E083E190E07DDA53C08339B7E79B07C3
:1033900079F160F48032F4E59F0751F1833827E733
:1033A000920791F08435914081F512C0863243E94D
:1033B0009407F1F028F485529249029748F025C00D
:1033C0008930954BA9F021C0F701668D778D21C01A
:1033D000600F711F6150710981E390E055DBB80106
:1033E00082E390E051DB60E070E083E390E017C09F
:1033F000D7015E966D917C915F97626081E094E069
:1034000043DBB80184E094E00AC0F701668D778D54
:10341000626081E690E038DBB8018AE690E034DB58
:1034200007C000E210E020E230E0201B310B62CF49
:103430002A960FB6F894DEBF0FBECDBFDF91CF91B5
:103440001F910F91FF90EF900895FC01538D448DD3
:10345000252F30E0842F90E0821B930B541710F03F
:10346000CF96089501970895FC01918D828D98174C
:1034700061F0828DDF01A80FB11D5D968C91928D58
:103480009F5F9F73928F90E008958FEF9FEF089555
:10349000FC01918D828D981731F0828DE80FF11D1E
:1034A000858D90E008958FEF9FEF0895FC01918D39
:1034B000228D892F90E0805C9F4F821B91098F7332
:1034C0009927089588E599E0F1DF21E0892B09F437
:1034D00020E0822F0895FC01848DDF01A80FB11D2B
:1034E000A35ABF4F2C91848D90E001968F7399273A
:1034F000848FA689B7892C93A089B1898C91806427
:103500008C93938D848D981306C00288F389E02DE7
:1035100080818F7D80830895EF92FF920F931F9398
:10352000CF93DF93EC0181E0888F9B8D8C8D981376
:1035300005C0E889F989808185FD23C0F62E0B8DB1
:1035400010E00F5F1F4F0F731127E02E8C8DE812D4
:103550000BC00FB607FCFACFE889F989808185FF97
:10356000F5CFCE01B8DFF2CF8B8DFE01E80FF11D54
:10357000E35AFF4FF0820B8FEA89FB8980818062DA
:1035800007C0EE89FF896083E889F98980818064BA
:10359000808381E090E0DF91CF911F910F91FF90A8
:1035A000EF900895CF93DF93EC01888D8823C1F0CD
:1035B000EA89FB89808185FD05C0A889B9898C913C
:1035C00086FD0EC00FB607FCF5CF808185FFF2CFD8
:1035D000A889B9898C9185FFEDCFCE017CDFE8CF3A
:1035E000DF91CF91089580E090E0892B19F06ADF98
:1035F000811125C080E090E0892B41F080E090E0CF
:10360000892B21F00E94000081111CC080E090E015
:10361000892B41F080E090E0892B21F00E9400008E
:10362000811113C080E090E0892BA1F080E090E050
:10363000892B81F00E94000081110AC008950E9428
:103640000000D8CF0E940000E1CF0E940000EACF26
:103650000C94000008953FB7F89480914C08909125
:103660004D08A0914E08B0914F0826B5A89B05C003
:103670002F3F19F00196A11DB11D3FBFBA2FA92FF1
:10368000982F8827820F911DA11DB11DBC01CD016E
:1036900042E0660F771F881F991F4A95D1F708955A
:1036A0008F929F92AF92BF92CF92DF92EF92FF9252
:1036B0000F931F93CF93DF937C018B016C0182E00A
:1036C000C80ED11C4701E5E08E0E911CC0E0D0E091
:1036D000F60141916F0150E060E070E02AE0C8011E
:1036E0000E94C5325C016EE2C8010E949B328A0DC5
:1036F0009B1DC80FD91FC814D90451F7F701458184
:1037000050E060E070E02AE0C8010E94C5328C0FF2
:103710009D1FDF91CF911F910F91FF90EF90DF9050
:10372000CF90BF90AF909F908F9008950E94C64D0C
:103730001F920F920FB60F9211240BB60F922F9378
:103740003F934F935F936F937F938F939F93AF9329
:10375000BF93EF93FF9388E599E0BDDEFF91EF9172
:10376000BF91AF919F918F917F916F915F914F9199
:103770003F912F910F900BBE0F900FBE0F901F9097
:1037800018951F920F920FB60F9211240BB60F923D
:103790002F938F939F93EF93FF93E0916809F0919C
:1037A00069098081E0916E09F0916F0982FD12C074
:1037B0009081809171098F5F8F73209172098217B8
:1037C00051F0E0917109F0E0E85AF64F958F80933F
:1037D000710901C08081FF91EF919F918F912F918D
:1037E0000F900BBE0F900FBE0F901F901895362FA5
:1037F00090E0FC01E75AF74F4491FC01ED5EF74F72
:103800002491FC01E353F84F9491992309F46BC080
:10381000442309F455C050E0FA013197E231F10533
:1038200008F04EC08827EE58FF4F8F4F0C94994BED
:10383000809180008F7707C0809180008F7D03C0CA
:1038400080918000877F809380003AC084B58F7715
:1038500002C084B58F7D84BD33C08091B0008F7766
:1038600003C08091B0008F7D8093B00029C080910B
:1038700090008F7707C0809190008F7D03C080916A
:103880009000877F809390001BC08091A0008F776D
:1038900007C08091A0008F7D03C08091A000877F2A
:1038A0008093A0000DC0809120018F7707C0809188
:1038B00020018F7D03C080912001877F80932001AC
:1038C000E92FF0E0EE0FFF1FED54F84FA591B491F2
:1038D0008FB7F894EC91311103C020952E2301C0CD
:1038E0002E2B2C938FBF0895CF93DF9390E0FC0194
:1038F000ED5EF74F2491FC01E353F84F8491882348
:1039000061F190E0880F991FFC01E756F84FC591CF
:10391000D491FC01ED54F84FA591B491611109C007
:103920009FB7F8948881209582238883EC912E2379
:103930000BC0623061F49FB7F8943881822F809574
:1039400083238883EC912E2B2C939FBF06C08FB7C7
:10395000F894E8812E2B28838FBFDF91CF910895B3
:10396000863308F0865390917B00282F2870977F2C
:10397000922B90937B008770806480937C00809171
:103980007A00806480937A0080917A0086FDFCCF73
:10399000809178002091790090E0922B08958F9289
:1039A0009F92AF92BF92CF92DF92EF92FF926B0104
:1039B0007C0151DE4B015C01C114D104E104F1042E
:1039C000E9F049DEDC01CB0188199909AA09BB0994
:1039D000883E9340A105B10578F321E0C21AD108D1
:1039E000E108F10888EE880E83E0981EA11CB11C46
:1039F000C114D104E104F10421F7DECFFF90EF9070
:103A0000DF90CF90BF90AF909F908F9008952FB789
:103A1000F894609148087091490880914A08909103
:103A20004B082FBF08951F920F920FB60F921124CB
:103A30002F933F938F939F93AF93BF9380914808A9
:103A400090914908A0914A08B0914B0830914708DD
:103A500023E0230F2D3720F40196A11DB11D05C0D1
:103A600026E8230F0296A11DB11D209347088093DD
:103A7000480890934908A0934A08B0934B08809156
:103A80004C0890914D08A0914E08B0914F080196B6
:103A9000A11DB11D80934C0890934D08A0934E0832
:103AA000B0934F08BF91AF919F918F913F912F910C
:103AB0000F900FBE0F901F9018958823E9F0AFED7F
:103AC000B6E025E014969C91149798130DC095E0EC
:103AD000899FF0011124E152F94F848114968C934F
:103AE0001382128214820895992331F0299FD00104
:103AF0001124A152B94FE6CF08950F931F93CF938E
:103B0000DF938C01EB0160E085E371DE8AE38EBD1B
:103B10000DB407FEFDCF0C0F1D1FC017D10739F0E4
:103B20001EBC0DB407FEFDCF8EB58993F6CF61E0C4
:103B300085E3DF91CF911F910F9159CE0F931F9382
:103B4000CF93DF931F92CDB7DEB7182F062F60E01B
:103B500085E349834CDE802F8F71812B8EBD498197
:103B60000DB407FEFDCF4EBD0DB407FEFDCF61E0E5
:103B700085E30F90DF91CF911F910F9138CE1F9366
:103B8000CF93DF93182F1076C12FD0E02091000241
:103B900030E0C217D30779F043E06FE180EACEDF6F
:103BA000AE0185E0559547958A95E1F76FE180E88C
:103BB000C5DF10930002DF91CF911F9108951F93ED
:103BC000CF93DF931F921F92CDB7DEB7182F698373
:103BD0007A83D5DF4981612F80E4B0DF61E0610F36
:103BE0007A81472F80E40F900F90DF91CF911F9142
:103BF000A5CFCF93DF93C82FD62F60E085E3F7DD05
:103C00008D2F8F71C82BCEBD0DB407FEFDCF1EBC0E
:103C10000DB407FEFDCFD7FD07C061E085E3E7DD0A
:103C20008EB5DF91CF9108951EBC0DB407FEFDCF78
:103C3000F4CFCF93C62FBC0182E0C1DF60E085E303
:103C4000D6DD8AE78EBD0DB407FEFDCFCEBD0DB427
:103C500007FEFDCF61E085E3CF91C9CDBC0180E0D7
:103C6000AEDF60E085E3C3DD8AE38EBD0DB407FE01
:103C7000FDCF1EBC0DB407FEFDCF61E085E3B7DDCF
:103C80008EB50895CF92DF92EF92FF920F931F931C
:103C9000CF93DF936C018B014130510569F4CB0167
:103CA000DDDF682FC601DF91CF911F910F91FF904B
:103CB000EF90DF90CF90BDCFEA01C60FD71F7E01F6
:103CC00081E0E81AF10880E17ADFB60184E177DF6C
:103CD0000115184038F4E11488E0F80618F07E0168
:103CE00088E0F81AB70182E16ADF40E16FE180EA1B
:103CF00025DF40E26FE180E821DF6FE180E079DFDE
:103D000085FF06C061E070E080E090E048DEF5CF1E
:103D1000DF91CF911F910F91FF90EF90DF90CF90A7
:103D20000895CF92DF92EF92FF920F931F93CF935C
:103D3000DF938C016091DF067091E0066150784E50
:103D4000C12C98E1D92EEFEDF6E080E0C0E0D0E0A4
:103D500045E09481992349F0499F90011124215213
:103D6000394FD9012D913C9101C09B01E080F18038
:103D70002E193F090280F381E02D2E1B3F0B2017E7
:103D8000310739F4B5E08B9FE0011124C152D94FBE
:103D900048C00217130748F42C153D0530F4489F1E
:103DA000E0011124C152D94F6901911107C0209738
:103DB000C1F5CFEDD6E085E0D82E1DC0499FF001BA
:103DC0001124E152F94F892FC4CFEA80FB8028816A
:103DD0003981E20EF31ED89EE0011124C152D94F61
:103DE00068817981E616F70631F04A815B81C70167
:103DF00049DFF982E8828C818111E7CF2091DF06CB
:103E00003091E00688819981281B390B8A819B813A
:103E1000281B390B2150384E2017310710F480E051
:103E20001AC091E0E4EEF6E022813381232B29F0E1
:103E300035969F5F9533C1F7F2CF4A815B81288128
:103E40003981240F351F31832083138302838C81B2
:103E500084839C83892FDF91CF911F910F91FF90D5
:103E6000EF90DF90CF900895CF92DF92EF92FF9284
:103E70000F931F93CF93DF937B018A01690125E0A4
:103E8000829FC0011124EC01C152D94F6881798110
:103E90006E0D7F1D82E093DE0A80DB81C02DCE197E
:103EA000DF09CC16DD0608F4E60160E085E39FDC5F
:103EB0008AE78EBD0DB407FEFDCFC8018C0F9D1F94
:103EC0000817190741F0F80121918F012EBD0DB49B
:103ED00007FEFDCFF5CF61E085E389DCCE01DF9100
:103EE000CF911F910F91FF90EF90DF90CF900895A9
:103EF000EF92FF920F931F93CF93DF938B017A0181
:103F00008F3FC9F025E0829FE0011124C152D94FB3
:103F100002C0CAEDD6E088819981B801680F791F87
:103F200080E04DDE8A819B81801B910BE816F906AB
:103F300090F4C70110C08091DA069091DB06860FDD
:103F4000971F811528E0920720F3BC016F5F77402F
:103F5000CAEDD6E0E5CFDF91CF911F910F91FF9091
:103F6000EF90089580E090E008956091D8067091F8
:103F7000D9066115710549F061507109611588E034
:103F8000780728F060E070E002C06FEF77E060FF34
:103F900002C0615071098CE012CE0F931F93DB01B8
:103FA000E42FA80190E0EF3FF9F065E0E69FF00113
:103FB0001124E152F94F02C0EAEDF6E00190F081E0
:103FC000E02D2E0F3F1F65E0689FF001699FF00D07
:103FD0001124E152F94F80819181B9018A0F9B1F11
:103FE00051DE1F910F91C1CFE091DA06F091DB060F
:103FF000E20FF31FE11568E0F607F0F29F012F5F73
:104000003740E1CF0F931F93CF93DF930091920638
:1040100010919306C0919406D09195060F3F8FEFB3
:10402000180741F4CF3F9FEFD90721F486E0EBE278
:10403000F2E021C01093440800934308D09346084F
:10404000C093450880E09BE001C08F5F883071F12C
:10405000989FF0011124E651F84F20813181021719
:10406000130799F722813381C217D30771F7809321
:104070004208349686E0A4E7B6E001900D928A9556
:10408000E1F786E0E5E2F2E0AAE7B6E001900D9202
:104090008A95E1F788E090E090938106809380060E
:1040A00080916806909169060E9657C080934208E9
:1040B00046E050E06FEF70E084E796E00E94D34D59
:1040C00086E0E4E9F6E0DF01982F1D929A95E9F782
:1040D000E5E2F2E0AAE7B6E0982F01900D929A95FA
:1040E000E1F7E5E2F2E0AAE8B6E0982F01900D9240
:1040F0009A95E1F710939B0600939A06D0939D063C
:10410000C0939C061092910610929006109293060E
:104110001092920620E031E03093890620938806C1
:10412000309383062093820628E030E030938506A2
:10413000209384068093860684E08093870688E037
:1041400096E090938106809380068AEA96E09093A9
:104150006B0680936A068AE290E0909369068093EA
:104160006806DF91CF911F910F910895EF92FF9212
:104170000F931F93CF93DF939C01FB011092420892
:1041800090E08BE0983031F1899F70011124E701B4
:10419000C651D84F6881798161157105C9F04A818E
:1041A0005B8141155105A1F0D9010D911C91119729
:1041B0000617170769F412966D917C91139764178F
:1041C000750731F490934208D701A251B84F2AC025
:1041D0009F5FD8CF90E08BE0983091F0899FE0010D
:1041E0001124C651D84F48815981452B39F44A8151
:1041F0005B81452B19F4909342080AC09F5FECCF76
:104200001092E9071092E80710924208CAEED7E030
:10421000D9014D915D916D917C91DE014D935D933E
:104220006D937D9386E001900D928A95E1F71A8651
:10423000DF91CF911F910F91FF90EF9008959C0116
:10424000AB0170936706609366061616170654F462
:1042500080916406909165062817390719F0B90115
:104260000C94CA4D0895EF92FF921F93CF93DF9362
:10427000C091F708D091F808843009F4ECC12AEA1B
:1042800036E030936B0620936A06309365062093E0
:104290006406833059F4898D8F70833009F0D5C658
:1042A00088899989892B09F0D0C67EC0823009F0AF
:1042B0007FC0809108098F5F80930809811113C026
:1042C000809107098F5F8093070981110CC080914D
:1042D00006098F5F80930609811105C08091050949
:1042E0008F5F8093050910926906109268061092FC
:1042F000670610926606898D982F9D7F953041F450
:104300008A8D8F5F8A8F883709F09FC6198E9DC668
:10431000882309F49AC628893989232B09F440C0D7
:104320009A8D2FEF290F2A8F91118FC69B8D983070
:1043300031F02FEF280F223048F4953039F4198EE0
:1043400080E88093F6080E94351038C5953038F41F
:1043500023E0092E01C0220F0A94EAF701C020E3EE
:104360002A8F9F5F9B8F8F708330A1F048F481303C
:1043700009F44EC3823009F068C61092A3064BC3FD
:10438000863009F4B7C4883009F4B4C4843009F025
:104390005CC6B0C484E08093F6080E94351040C526
:1043A0008F70833009F051C688E08093F608FBC413
:1043B000853019F5E091F408F091F5088481958134
:1043C000892B09F442C61092F8081092F7088EE97A
:1043D00096E090936B0680936A06909365068093AF
:1043E0006406109267061092660610926906109293
:1043F000680688E08093F6082CC180918206853497
:1044000009F023C6C0918406D0E0DC2FCC27809130
:104410008506C80FD11D80916806909169068C179A
:104420009D0708F412C6D0936906C0936806809170
:1044300088068F7309F009C610918906111105C607
:10444000E0907006F0907106E114F10439F4809167
:10445000720690917306892B09F442C080918B06F5
:104460002091920630919306813151F52F3F4FEF05
:10447000340739F48091940690919506019609F4D9
:1044800071C080916C0690916D06809590958E29F3
:104490009F2928173907A1F480916E0690916F0625
:1044A000809590954091720650917306842B952BC0
:1044B00040919406509195064817590709F452C047
:1044C0002E153F0509F0C1C520919406309195063F
:1044D00080917206909173062817390709F0B5C5C7
:1044E0000E94EB0F019609F0B0C580918B068630D3
:1044F00009F415C18131B1F1813009F0A6C580916F
:104500009606883009F0A1C510929606809198060B
:1045100090919906873FCFEF9C0710F0099601C054
:104520000896909399068093980680918E069091B4
:104530008F069093930680939206809190069091B7
:1045400091069093950680939406F0928F06E092E0
:104550008E068091720690917306909391068093D7
:10456000900677C56C97D0936906C09368068EE96C
:1045700096E090936B0680936A0680919C069091DA
:104580009D06892B99F420919806309199064091C7
:1045900096065091970660918E0670918F06A091B5
:1045A0009006B0919106E8ECF8E00CC081E10E9421
:1045B000610F019609F049C5E6CF84819581009786
:1045C00031F43B9688E0E43FF807B8F324C028179D
:1045D0003907B9F786819781009719F0481759076D
:1045E00081F780819181009729F4C281D381CD2BFD
:1045F00049F416C08F3FCFEF9C0721F4C281D381CD
:10460000219671F068177907E1F682819381A817E6
:10461000B907B9F605C0F093F508E093F40815C59D
:10462000F093F508E093F4081092F8081092F70858
:1046300082E08093F6088EE996E090936B06809373
:104640006A0690936506809364061092670610923E
:1046500066060E945E2D809166069091670600971F
:1046600009F4F3C49C01245E3F4F30936906209304
:1046700068063093840620938506E091F408F09153
:10468000F508208520938A0621E120938B06089661
:1046900098278927982790939B0680939A061092D3
:1046A0009D0610929C068481958190939706809335
:1046B00096068681978190939906809398068091BB
:1046C00070069091710690938F0680938E0680916C
:1046D0007206909173069093910680939006808164
:1046E0009181909393068093920682819381909317
:1046F0009506809394068AEA96E090936B068093E1
:104700006A0681E10E94610F80959095009711F4EF
:104710008FEF9FEF90939D0680939C0673C486E075
:104720000E94610F019609F090C420919806309183
:104730009906809196069091970660918E067091E9
:104740008F06E0919006F0919106C0E5D8E0498D82
:104750004423A9F0AC81BD812A173B0781F4AE81C7
:10476000BF818A179B0759F4A881B9816A177B0713
:1047700031F4AA81BB81EA17FB0709F463C16E9685
:1047800048E0C83CD40719F78091A3068F738230A4
:10479000A1F4309304092093030980E0843059F098
:1047A0008F5F21153105D1F71092020980E0C0E03A
:1047B000D0E09EE178C0809302098091A30682FD3B
:1047C00044C484E18093A30688E290E09093690654
:1047D0008093680680E58093A20630919D068091C3
:1047E000A10680939D0620919C068091A00680934F
:1047F0009C062093A00690919B0680919F06809333
:104800009B0690939F0680919A068093020940919F
:104810009E0640939A0680939E063F5F3093A106C2
:1048200031110DC02F5F2093A006211108C09F5F9A
:1048300090939F06911103C08F5F80939E06809195
:10484000960690919706909304098093030920910E
:104850009806309199063093970620939606909388
:1048600099068093980680918E0690918F0690937A
:104870009306809392068091900690919106909372
:10488000950680939406F0928F06E0928E068091B2
:10489000720690917306909391068093900696C34A
:1048A000473099F08F5F8430F1F0282F30E0929FED
:1048B000F001939FF00D1124E05BF74F418D411102
:1048C000EFCF80930209EF0110C0209721F0528DA5
:1048D0004A8D451738F7929FE001939FD00D112420
:1048E000C05BD74FDFCF80930209209709F4ADC397
:1048F000D093F808C093F70883E08A8F888F1E8AC8
:1049000084E08F8B1B8E80919806909199069D83F1
:104910008C8380919606909197069F838E838091D9
:104920008E0690918F06998388838091900690914E
:1049300091069B838A8381E0898F809105098C870A
:10494000809106098D87809107098E8780910809DB
:104950008F8781E090E0998B888B80919D068B8773
:1049600080919C068A8780919B06898780919A0610
:10497000888781E090E00E946F458091A206982F81
:10498000907F913508F444C082958F7090E0059730
:10499000880F991F880F991F20910109E12FF0E0DE
:1049A000E817F9078CF5EC58F94F26A9211105C035
:1049B00010930209109201092BC0213011F41F5FDE
:1049C000EDCF2230E1F437A93430C9F41093020955
:1049D0002093010980AD90E0982F882721AD822B8C
:1049E0009093040980930309813062E0960710F0E8
:1049F00080E092E09B8B8A8B9D8B8C8B09C037A9C2
:104A0000332311F0130FCACF109302092093010929
:104A100080E18093A3068091A30682608093A30621
:104A200082E08093AA0694E09093AB068093AC0654
:104A30001092AD068CE290E0909369068093680630
:104A400080E672C2D093F808C093F7081092F60877
:104A50003091A306132F147032FF03C0198E80E229
:104A60000CC22091A20622952F70220F220F2093B4
:104A7000020980916806909169064497821B91090A
:104A800090936906809368064F70423021F4232F7B
:104A90002F732231C9F0892B19F4832F8370A1F071
:104AA00090919A068885981335C290919B068985C6
:104AB000981330C290919C068A8598132BC29091CE
:104AC0009D068B85981326C234FF49C06889798971
:104AD0006115710509F443C0CE010C960E94394559
:104AE00030919E068091FD08381339C020919F06B1
:104AF0008091FE08281333C09091A0068091FF0892
:104B000098132DC08091A10640910009841327C0FD
:104B10003C872D879E878F878B8D811119C09E8939
:104B2000888D2A8D821B292F269526952695821BF6
:104B3000980F9E8B87FD81952F89322F369536955C
:104B4000231B820F8F8B969596959695890F888F4C
:104B500081E08093F608888D8A8F198A188A298DBA
:104B6000E22FEF708E2F90E0FC013197E830F105D5
:104B700008F06BC28827EC57FF4F8F4F0C94994B6E
:104B80008091F60880FF61C283E0898F80E4809382
:104B9000F608198A188A809168069091690600972C
:104BA00009F4FDC022E42093F6080E946F45F7C087
:104BB0008091F60880FF6DC08091A3068F738231CB
:104BC00009F067C08091A206982F907F913508F474
:104BD00044C082958F7090E00597880F991F880FC9
:104BE000991F20910109E12FF0E0E817F9078CF5F2
:104BF000EC58F94F26A9211105C010930209109213
:104C000001092BC0213011F41F5FEDCF2230E1F4F8
:104C100037A93430C9F4109302092093010980ADFB
:104C200090E0982F882721AD822B909304098093E0
:104C30000309813072E0970710F080E092E09B8BCF
:104C40008A8B9D8B8C8B09C037A9332311F0130FEE
:104C5000CACF109302092093010983E0898F8091C4
:104C60009A06888780919B06898780919C068A870F
:104C700080919D068B8781E090E00E946F4582E4E1
:104C80008093F608198A188A1092690610926806AD
:104C900086C080E28093F6080E943510198E8DCD73
:104CA0008091A30680FF28C024FD26C088899989A9
:104CB000892B09F0CAC18091680690916906019616
:104CC0000E946F458091F608982F90619093F608A6
:104CD0002091680630916906232B19F08261809338
:104CE000F6080E94351081E090E0998B888B88E06F
:104CF000898F1B8E81E10FC185FF1DC08091A806A1
:104D000090E0982F88273091A906832B40916A065E
:104D100050916B06480F591F50936B0640936A06DB
:104D20004091680650916906BA01681B790B70932F
:104D300069066093680640916806509169064115BE
:104D4000510551F024FD08C09091F60892609093AF
:104D5000F608CA010E946F458091A40690E0982F42
:104D600088272091A506820F911D909304098093B6
:104D700003092C893D892817390710F0892B21F464
:104D80003093040920930309809103099091040949
:104D90009B8B8A8B8091F608837009F456C1109220
:104DA0006706109266060E9435108091F60885FF0E
:104DB00007C01092670610926606198E84E1ABC098
:104DC00084FF0AC0109267061092660681E090E0A8
:104DD000998B888B84E08CCF209166063091670692
:104DE00021153105E1F080FF02C0198A188A8889EF
:104DF0009989009781F48A899B898217930720F407
:104E00009093670680936606809166069091670688
:104E1000998B888B04C090936706809366061B8EDF
:104E2000809164069091650690936B0680936A0664
:104E30008091660690916706892B59F08889998937
:104E4000009739F08896909369068093680688E108
:104E50000BC08091F60881FFF8C088E290E0909343
:104E600069068093680680E18093A3065CC0809108
:104E7000F60880FFEAC0198E80E18093F6080E9450
:104E80003510E3C08091680690916906009711F093
:104E90000E946F459091A3068091F60890FF0BC089
:104EA00080FF06C087E0898F1A8E198A188A19C078
:104EB00086E0898F16C080FF1EC085E0898F198A21
:104EC000188AC3C08091680690916906009711F016
:104ED0000E946F458091A30680FF0DC087E0898FF7
:104EE0001A8E81E090E00E946F4580E18093F60881
:104EF0000E9435100FC08091680690916906892B39
:104F000049F4A3C08091F60880FF9FC087E0898F95
:104F10001A8E9BC080E18093A30688E290E0909374
:104F200069068093680680E58093A2068885809351
:104F30009E06898580939F068A858093A0068B852F
:104F40008093A1068C8580939A068D8580939B061D
:104F50008E8580939C068F8580939D0686E0809346
:104F60008B068C819D8190939706809396068E8107
:104F70009F819093990680939806809170069091F6
:104F8000710690938F0680938E06809172069091A1
:104F900073069093910680939006888199819093EF
:104FA0009306809392068A819B81909395068093C5
:104FB0009406898D84FF05C01092A5061092A40660
:104FC00005C082E08093A4061092A50680E4809339
:104FD0008A06809168069091690690938406809372
:104FE00085061092A9061092A8061092A7061092A4
:104FF000A60686E00E94610F809590959093A70683
:105000008093A60685E48093820610928306109210
:105010008906109288068091FB089091FC08019601
:105020009093FC088093FB089093860680938706F4
:1050300010928D0610928C060E94EB0F8095909531
:1050400090938D0680938C0604C01092690610928E
:1050500068061092F608DF91CF911F91FF90EF90B4
:1050600008950F931F93CF93DF93DC012091F908EC
:105070003091FA082F5F3F4F21158DE7380710F068
:1050800020E030E1522F432FE8ECF8E080E084305C
:1050900041F0C481D5818F5F3B96C417D507B9F71E
:1050A000E9CF3093FA082093F90890E08BE0943030
:1050B000D1F0292F30E041E0490F829FF001839F1A
:1050C000F00D1124E853F74FEF0124960481158168
:1050D000012B39F490930209309741F480E090E07D
:1050E0002EC0942FE4CF90930209F8CF8091F90855
:1050F0009091FA089827892798279983888377833E
:105100006683109729F410821182128213820BC0D9
:105110008D919C9111979183808312968D919C9192
:105120001397938382838BE0829FD001839FB00D7E
:105130001124A853B74F80E418968C93CF01DF91C8
:10514000CF911F910F910895DC011C96ED91FC9178
:105150001D97309731F08681978198278927982766
:10516000089580E090E00895CF93DF93FC01EB0178
:10517000AC85BD85109791F012969C91129713966D
:105180008C9113973C9111962C9148EC52E05183ED
:105190004083328323839483858308C088EC92E024
:1051A000918380831282138214821582CF01DF9152
:1051B000CF910895CF93DF931F92CDB7DEB7DC0177
:1051C000ED91FC91048CF58DE02D41E050E0BE01A5
:1051D0006F5F7F4F1995181619061CF4898190E0AE
:1051E00002C08FEF9FEF0F90DF91CF910895CF9383
:1051F000DF931F92CDB7DEB76983DC01ED91FC919F
:105200000280F381E02D41E050E0BE016F5F7F4FEF
:1052100019950F90DF91CF910895CF93DF93EC0113
:105220000E94341089890E945D1D198ADF91CF91F7
:105230000895CF93DF93EC010E9434108989DF91A8
:10524000CF910C94B21FCF93DF93EC010E943410E6
:10525000898981110E945D1D8889898B188ADF9157
:10526000CF910C94B21F0F931F93CF93DF931F9294
:10527000CDB7DEB78C010E943410F80181898823F4
:1052800091F041E050E060E070E00E94781F8C01F6
:10529000BE016F5F7F4F0E947D1D0130110519F423
:1052A000898190E002C08FEF9FEF0F90DF91CF9147
:1052B0001F910F910895CF92DF92EF92FF920F937B
:1052C0001F93CF93DF931F921F92CDB7DEB77C0160
:1052D0006B0149835A830E943410F7018189498107
:1052E0005A81882351F160E070E00E94781F8C01A0
:1052F000B6010E947D1DF701D1888D2D0E94B21F3D
:105300000817190731F48D2D0E945D1DF701118AD0
:1053100012C085E0D89EF0011124E152F94F80813E
:105320009181800F911F9183808382819381801B63
:10533000910B93838283C80102C080E090E00F90BC
:105340000F90DF91CF911F910F91FF90EF90DF9021
:10535000CF900895CF93DF93EC018A89882369F079
:105360009A01AB016E857F850E94341F2E853F8593
:10537000280F391F3F872E8702C080E090E0DF9121
:10538000CF910895CF92DF92EF92FF920F931F93E8
:10539000CF93DF9300D01F92CDB7DEB78C016B01A6
:1053A0007A010E943410F60182819381A481B58133
:1053B000892B8A2B8B2B41F1E114F10429F1828195
:1053C00090E0982F88272381822B98278927982778
:1053D0009A838983248130E0322F22274581242B30
:1053E0003227232732273C832B83D8011C96ED914B
:1053F000FC911D977E2D6F2D309729F17783668361
:105400009183808333832283D8011C968D919C9154
:105410001D97892BA9F052968C91811111C086E0BD
:1054200096E00E94911EF801828B2AE230E03787D5
:10543000268721E090E0811101C020E0822F14C076
:1054400080E090E011C0CE0101960BDED8011D96E0
:105450009C938E931C97009799F39801225F3F4F7E
:10546000FC0132872187D0CF0F900F900F900F90C3
:10547000DF91CF911F910F91FF90EF90DF90CF9030
:105480000895CF93DF93EC010E94022020916806DB
:105490003091690690910B092A32310521F410925E
:1054A0000C099D7F03C01D821C82926090930B09A2
:1054B000DF91CF910C94FB0FCF93DF93EC018C85A0
:1054C0009D85892B19F480E090E023C0EA89EE23C2
:1054D000D1F381E08B8B8E859F8525E0E29FF001E3
:1054E0001124E152F94F938382838C859D8590939B
:1054F000F5088093F40885E00E94332180916806C6
:1055000090916906892BF9F2CE010E96BADF81E0FF
:1055100090E0DF91CF9108954F925F926F927F92CA
:105520008F929F92AF92BF92CF92DF92EF92FF92B3
:105530000F931F93CF93DF93CDB7DEB7E5970FB6E9
:10554000F894DEBF0FBECDBF7C018B016A0188ECF1
:1055500092E09A8389831C861B8648EE53E060E0C4
:1055600070E04D875E876F87788B20E732E03A875F
:1055700029871E8A1D8AFE01779626E0DF011D928B
:105580002A95E9F79AA789A71BA61CA61DA61EA601
:1055900080913F0A9091400AA091410AB091420A3D
:1055A0008F8F98A3A9A3BAA38B839C83AD83BE835B
:1055B00018861F82F801D8018D91882331F08E3230
:1055C000D9F380538A30C0F34EC080E090E020E0F1
:1055D00030E05AE04191442311F1243031050CF0C0
:1055E00042C04E3281F48F3F910509F0E4F5ABE201
:1055F000B0E0AC0FBD1FA20FB31F8C932F5F3F4FC6
:1056000080E090E0E7CF589FB001599F700D1124C2
:10561000842F440F990BC097860F971FDBCF8F3FC6
:10562000910509F004F524303105ECF4FE01E20F98
:10563000F31F83A7D701ED91FC910488F589E02D34
:1056400088EC92E09E8F8D8F8BA59CA5ADA5BEA505
:105650008F8F98A3A9A3BAA3A601BE01635E7F4F53
:10566000C701199514C24B815C816D817E81809147
:10567000450A9091460AA091470AB091480A4817F6
:1056800059076A077B0709F400C20E94071D6F7063
:1056900077277C5FCE0109960E948D0D813009F03D
:1056A000F1C188EC92E09E8F8D8F8B819C81AD81C2
:1056B000BE818F8F98A3A9A3BAA345E350E0BE0192
:1056C000635E7F4FCE0109965DDE892B19F400E001
:1056D00010E0B7C10E94071D78876F8342E050E059
:1056E000BE01695F7F4FCE01099634DE81E090E014
:1056F0009E8F8D8F42E050E0BE01635E7F4FCE01F2
:10570000099628DE80E091E09E8F8D8F42E050E088
:10571000BE01635E7F4FCE0109961CDE1E8E1D8E7C
:1057200042E050E0BE01635E7F4FCE01099612DE7B
:1057300042E050E0BE01635E7F4FCE0109960ADE73
:1057400042E050E0BE01635E7F4FCE01099602DE6B
:105750005801F5018081882309F1F8015F018191E9
:10576000811115C04501801A910A1814190494F486
:105770008FA641E050E0BE01615D7F4FCE010996EA
:10578000E9DDA401B801CE010996E4DD03C08E3243
:1057900029F7E8CF85010F5F1F4FDBCF1FA641E040
:1057A00050E0BE01615D7F4FCE010996D3DD00E080
:1057B00011E01E8F0D8F42E050E0BE01635E7F4F0F
:1057C000CE010996C7DD1E8F0D8F42E050E0BE016D
:1057D000635E7F4FCE010996BDDDCE0109966CDE7A
:1057E000892B09F474CF83E0A82EB12C0E94071DE9
:1057F0002B013C01CE01099626DD18161906ACF0E6
:105800000E94071DDC01CB0184199509A609B7097F
:1058100089389341A105B10508F002C162E370E047
:1058200080E090E00E94CF1CE5CF4B805C806D80D3
:105830007E80BE01675F7F4FCE014D9695DC8F8DD8
:1058400098A1A9A1BAA1481659066A067B0609F0D3
:10585000EAC0CE01099678DCC59709F0E4C0CE0114
:105860000996E7DC0C970CF4E1C04CE050E0BE0177
:10587000635E7F4FCE0109960E94640D8F8D98A1C3
:105880009827892798279CAB8BAB4F8158852D8D06
:105890003E8D4217530711F497FD06C0CE010996BD
:1058A000BCDC0CEF1FEFC4C08F709270892B31F0FD
:1058B000CE010996B2DC0BEF1FEFBAC00BA11CA101
:1058C0001027012710270115110531F4CE01099683
:1058D000A4DC0AEF1FEFACC0812C912C89A19AA106
:1058E0009827892798278816990648F541E050E0BF
:1058F000BE01615D7F4FCE0109960E94640D8FA5A8
:10590000811113C08FA58111F1CFCE01099652DC10
:10591000CE0109964FDCCE0109964CDCCE010996EA
:1059200049DC2FEF821A920AD9CF8FA59FEF980FEB
:105930009FA7882339F3CE0109963CDCF6CF812C52
:10594000912C41E050E0BE016B5C7F4FCE01099687
:105950000E94640D8DA9982F907C61F4882371F0CA
:105960008DA99FEF980F9DAB882341F0CE0109963A
:1059700021DCF6CFCE0109961DDC1DAA8DA981116F
:10598000E0CF42E050E0BE016F5C7F4FCE01099650
:105990000E94640D42E050E0BE01615D7F4FCE0188
:1059A00009960E94640DCE01099604DCCE01099689
:1059B00001DCCE010996FEDBCE010996FBDB42E05D
:1059C00050E0BE016D5C7F4FCE0109960E94640DD0
:1059D00089A99AA98115914029F48FA598A98115C3
:1059E0009140C9F1612C712C8BA99CA9982789271A
:1059F00098276816790638F4CE010996DBDBEFEFBD
:105A00006E1A7E0AF1CFFFEF8F1A9F0A8016910659
:105A100009F097CFCE01099600DC06EF1FEF08C012
:105A20000FEF1FEF05C00EEF1FEF02C00DEF1FEFCE
:105A300021E0A21AB10829F00F3F8FEF180709F4EF
:105A4000D5CECE0109960E946B0D0130110509F4E7
:105A5000F1CDC8011CC08BA99CA98115944031F0DF
:105A6000CE010996DADB07EF1FEFE2CF44E050E00A
:105A7000BE01655D7F4FCE0109960E94640D01E075
:105A800010E0D6CF80E090E002C08EEF9FEFE59669
:105A90000FB6F894DEBF0FBECDBFDF91CF911F913F
:105AA0000F91FF90EF90DF90CF90BF90AF909F90BD
:105AB0008F907F906F905F904F900895FF920F931B
:105AC0001F93CF93DF93E091F408F091F508C1851F
:105AD000D285209709F451C08091F60881FF31C02A
