:1000000050C400007FC400007DC400007BC4000019
:1000100079C4000077C4000075C4000073C40000F8
:1000200071C400006FC400006DC400006BC4000008
:1000300069C4000067C4000065C4000063C4000018
:1000400061C400005FC400005DC400005BC4000028
:1000500059C4000057C4000055C400000C94472543
:1000600051C400000C94F5230C94CC234BC4000025
:1000700049C4000047C4000045C4000043C4000058
:1000800041C400003FC400003DC400003BC4000068
:1000900039C4000037C4000035C4000011C5000099
:1000A00031C400002FC400002DC400002BC4000088
:1000B00029C4000027C4000025C4000023C4000098
:1000C00021C400001FC400001DC400001BC40000A8
:1000D00019C4000017C4000015C4000013C40000B8
:1000E00011C400001C1A341AAC1A9E1BBE1BDE1B66
:1000F000E61B931B5A245D244C245024542494243E
:10010000612465246B246F24732479247D24812445
:10011000942487248B248F2400407A10F35A00A063
:10012000724E18090010A5D4E80000E876481700C0
:1001300000E40B54020000CA9A3B000000E1F50500
:10014000000080969800000040420F000000A0864A
:1001500001000000102700000000E803000000007C
:100160006400000000000A00000000000100000020
:1001700000002C76D888DC674F0823DFC1DFAE593A
:10018000E1B1B796E5E3E453C63AE651997696E8CD
:10019000E6C28426EB898C9B62ED407C6FFCEFBC51
:1001A0009C9F40F2BAA56FA5F490055A2AF75C937C
:1001B0006B6CF9676DC11BFCE0E40D47FEF520E6B2
:1001C000B500D0ED902E0300943577050080841E95
:1001D000080000204E0A000000C80C333333330FF0
:1001E000986E12831141EF8D2114893BE65516CF8D
:1001F000FEE6DB18D1844B381BF77C1D901DA4BB99
:10020000E424203284725E228100C9F124ECA1E54D
:100210003D27E50110E70110E80148EC0109ED0177
:100220006C23016F240157250171E201181B011590
:100230000101001C01031901017F051F018C1F0131
:10024000847F0A1F01947F0A1F01D47F05400D009F
:100250002B293E3D3F24740806070D17500D000260
:100260000116143F0B5B08121819175D01FF1601E8
:10027000082801207F282801387F2828013C020215
:100280000000040200EF060200000802018F800255
:1002900000008202000017010500000000003E5B24
:1002A0004F5B3E3E6B4F6B3E1C3E7C3E1C183C7EC3
:1002B0003C181C577D571C1C5E7F5E1C00183C18A8
:1002C00000FFE7C3E7FF0018241800FFE7DBE7FFA4
:1002D00030483A060E2629792926407F0505074031
:1002E0007F05253F5A3CE73C5A7F3E1C1C08081CF2
:1002F0001C3E7F14227F22145F5F005F5F06097F30
:10030000017F006689956A606060606094A2FFA2C8
:100310009408047E040810207E201008082A1C0877
:10032000081C2A08081E101010100C1E0C1E0C3081
:10033000383E3830060E3E0E060000000000000079
:100340005F00000007000700147F147F14242A7F39
:100350002A12231308646236495620500008070306
:1003600000001C2241000041221C002A1C7F1C2A84
:1003700008083E08080080703000080808080800D7
:100380000060600020100804023E5149453E0042D2
:100390007F400072494949462141494D33181412A2
:1003A0007F1027454545393C4A49493141211109CA
:1003B000073649494936464949291E0000140000BC
:1003C00000403400000008142241141414141400D6
:1003D0004122140802015909063E415D594E7C1222
:1003E00011127C7F494949363E414141227F4141BA
:1003F000413E7F494949417F090909013E41415137
:10040000737F0808087F00417F41002040413F0181
:100410007F081422417F404040407F021C027F7FC2
:100420000408107F3E4141413E7F090909063E41D3
:1004300051215E7F09192946264949493203017F26
:1004400001033F4040403F1F2040201F3F403840B5
:100450003F631408146303047804036159494D434E
:10046000007F4141410204081020004141417F04C6
:1004700002010204404040404000030708002054AD
:100480005478407F2844443838444444283844440D
:10049000287F385454541800087E090218A4A49CDC
:1004A000787F0804047800447D40002040403D00EF
:1004B0007F1028440000417F40007C047804787C51
:1004C000080404783844444438FC182424181824B8
:1004D0002418FC7C08040408485454542404043FA1
:1004E00044243C4040207C1C2040201C3C403040A8
:1004F0003C44281028444C9090907C4464544C44D4
:100500000008364100000077000000413608000274
:10051000010204023C2623263C1EA1A161123A409E
:1005200040207A3854545559215555794122545414
:100530007842215554784020545579400C1E52720F
:1005400012395555555939545454593955545458EC
:100550000000457C410002457D420001457C407D14
:100560001211127DF0282528F07C545545002054A6
:10057000547C547C0A097F4932494949323A4444FF
:10058000443A324A4848303A4141217A3A4240207E
:1005900078009DA0A07D3D4242423D3D4040403D0F
:1005A0003C24FF2424487E4943662B2FFC2F2BFF3D
:1005B0000929F620C0887E0903205454794100009F
:1005C000447D413048484A32384040227A007A0A15
:1005D0000A727D0D19317D2629292F2826292929DE
:1005E0002630484D40203808080808080808083810
:1005F0002F10C8ACBA2F102834FA00007B00000876
:10060000142A142222142A14085500550055AA55FC
:10061000AA55AAFF55FF55FF000000FF001010105B
:10062000FF00141414FF001010FF00FF1010F01052
:10063000F0141414FC001414F700FF0000FF00FF76
:100640001414F404FC141417101F10101F101F149E
:1006500014141F00101010F0000000001F101010E4
:10066000101F10101010F010000000FF10101010DC
:100670001010101010FF10000000FF140000FF0009
:10068000FF00001F10170000FC04F41414171017CB
:100690001414F404F40000FF00F7141414141414D8
:1006A00014F700F7141414171410101F101F14144B
:1006B00014F4141010F010F000001F101F000000C0
:1006C0001F14000000FC140000F010F01010FF10C8
:1006D000FF141414FF141010101F00000000F0107D
:1006E000FFFFFFFFFFF0F0F0F0F0FFFFFF00000062
:1006F0000000FFFF0F0F0F0F0F3844443844FC4A2F
:100700004A4A347E02020606027E027E0263554990
:1007100041633844443C04407E201E2006027E0291
:100720000299A5E7A5991C2A492A1C4C7201724C12
:10073000304A4D4D303048784830BC625A463D3ED4
:10074000494949007E0101017E2A2A2A2A2A444475
:100750005F444440514A444040444A51400000FFF5
:100760000103E080FF000008086B6B083612362496
:1007700036060F090F0600001818000000101000C0
:100780003040FF0101001F01011E00191D1712005A
:100790003C3C3C3C000000000000002100240027FD
:1007A000002A002D00300033000101000004010781
:1007B000010A0100002200250028002B002E003134
:1007C00000340002010000050108010B01050505C8
:1007D00005070508080808020202020A0A080804B8
:1007E00004040401010101010101010303030303E6
:1007F000030303040707070C0C0C0C0C0C0C0C0275
:1008000002020206060606060606060B0B0B0B0B7B
:100810000B0B0B0102102020080810204010204074
:1008200080020102010804020101020408102040B4
:1008300080804020100804020180040201804020D2
:1008400010080402010804020101020408102040FB
:1008500080010204081020408000000A0B02090CED
:100860000D0E080703040100000000000000000056
:100870000000000000000000000000000000000078
:100880000000000000121110000000000000000035
:100890000000000000000000000000000000000058
:1008A000B04811241FBECFEFD1E2DEBFCDBF00E0C4
:1008B0000CBF15E0A0E0B2E0EAE1F2EA00E00BBF15
:1008C00002C007900D92A03CB107D9F72AE0A0EC36
:1008D000B5E001C01D92AC3EB207E1F714E0C1E5FE
:1008E000D4E000E006C021970109802FFE010E949C
:1008F000C34EC035D10780E00807A9F70E949134A4
:100900000C940B517DCB85ED8093BC008091BC0095
:1009100084FDFCCF10923208089540911106262FD5
:1009200030E0240F311D21323105DCF420913208F2
:100930002430C9F4FC0180E090E0861758F430912F
:1009400011062191DC01A151BA4FA30FB11D2C93C7
:100950000196F3CF80911106680F6093110680E035
:10096000089581E0089582E008950895E091C10519
:100970008091C005E81730F4F0E0E153FA4F808130
:1009800090E008958FEF9FEF08959091C1058091B9
:10099000C005981750F4E92FF0E0E153FA4F208199
:1009A00030E09F5F9093C10502C02FEF3FEFC90178
:1009B00008958091C00590E02091C105821B9109A6
:1009C0000895CF92DF92EF92FF920F931F93CF93F0
:1009D000DF937C01262F972F8A018091330888238B
:1009E00091F0C62FD72F6E01C40ED51ECC15DD0594
:1009F00069F06991D701ED91FC910190F081E02DB2
:100A0000C7011995F3CF642F822F87DFC801DF91CB
:100A1000CF911F910F91FF90EF90DF90CF900895AD
:100A2000CF93DF931F92CDB7DEB769832091330850
:100A30002223D1F020915608203240F021E030E00E
:100A4000FC013383228380E090E014C0809134085D
:100A5000E82FF0E0EB5CF74F998190838F5F8093F4
:100A600034088093560804C061E0CE01019655DF3A
:100A700081E090E00F90DF91CF910895089580E09C
:100A800090E00895EF92FF920F931F93DC01ED9198
:100A9000FC9111971A960D911C911B9718962D9108
:100AA0003C9119970288F389E02D7B0140E050E0EA
:100AB00060E070E019951F910F91FF90EF900895FD
:100AC0001F920F920FB60F9211240BB60F922F9315
:100AD0003F934F935F936F937F938F939F93AF93C6
:100AE000BF93EF93FF938091B900887F803609F41C
:100AF0009CC068F5883209F45BC090F4803109F439
:100B000054C038F4882309F4F6C0883009F44DC085
:100B1000F5C0883109F44CC0803209F45DC0EEC0E4
:100B2000803409F468C048F4803309F455C0883330
:100B300009F0E4C080933008D8C0803509F44FC074
:100B4000883509F45DC0883409F0D8C0D6C088392A
:100B500009F4C7C0A8F4883709F467C038F48836A8
:100B600009F463C0803709F460C0C8C0883809F44C
:100B7000B8C0803909F45FC0803809F0BFC05BC0DD
:100B8000803B09F486C038F4803A09F466C0883A9C
:100B900009F47FC0B3C0803C09F4A7C0883C09F4C5
:100BA000A4C0883B09F48AC0A9C080910D0810C078
:100BB00090912F0880912E08981770F5E0912F08DA
:100BC00081E08E0F80932F08F0E0E25FF74F808185
:100BD0008093BB0085EC86C0809330088EC0E09186
:100BE0002F0881E08E0F80932F088091BB00F0E0EA
:100BF000E25FF74F808390912F0880912E086EC09E
:100C0000E0912F0881E08E0F80932F088091BB0028
:100C1000F0E0E25FF74F80838091310881116DC071
:100C200081E080930C0884EA61C083E080933208FD
:100C300010923506CFCF80913506803208F051C032
:100C4000E091350681E08E0F809335068091BB00E0
:100C5000F0E0EB5EF94F8083BDCF85EC8093BC0064
:100C60001092320880913506803230F4E0913506DA
:100C7000F0E0EB5EF94F10826091350670E0E09194
:100C80001306F091140685E196E019951092350649
:100C900035C084E08093320810921206109211063B
:100CA000E0910F06F09110061995809111068111BF
:100CB00005C081E0809311061092EF05E0911206C5
:100CC00081E08E0F80931206F0E0E151FA4F8081AF
:100CD0008093BB009091120680911106981708F43A
:100CE00079CF85E88093BC0009C085EC8093BC0077
:100CF0001092320803C01092300805DEFF91EF9188
:100D0000BF91AF919F918F917F916F915F914F9123
:100D10003F912F910F900BBE0F900FBE0F901F9021
:100D20001895CF92DF92EF92FF920F931F93CF937C
:100D3000DF938C01EB01CB010E944B2C0E943B25E1
:100D400020E63AEE40E050E00E945D4DCE010D2ECF
:100D5000000CAA0BBB0B69017A01C81AD90AEA0A6E
:100D6000FB0A21EAC21625E0D206E104F10468F488
:100D7000F801808191810E944B2CF801D183C083BE
:100D8000CE010E944B2C81E000C0DF91CF911F91DA
:100D90000F91FF90EF90DF90CF900895CF93DF9366
:100DA000EC010E943B2520E63AEE40E050E00E9434
:100DB0005D4D88819981281B390B8C859D85821713
:100DC00093072CF48E859F852817390764F088894E
:100DD0009989821793074CF481E04A895B8924172B
:100DE000350724F002C081E001C080E0DF91CF919F
:100DF0000895CF93DF93EC010E943B2520E63AEE65
:100E000040E050E00E945D4D88819981281B390B9C
:100E10008C819D81821793072CF48E819F812817E6
:100E2000390764F088859985821793074CF481E02F
:100E30004A855B852417350724F002C081E001C094
:100E400080E0DF91CF910895FF920F931F93CF938E
:100E5000DF938C0160E00E940C2CF801808191E00E
:100E600090933308809355081092340810925608D6
:100E700060E088E499E0D4DD81E00E94AF2BF801C6
:100E80002081809132088111FCCF81E0809332086B
:100E9000809331089FEF9093300810922F08809331
:100EA0002E0880930D0890910D08822F880F892BB2
:100EB00080930D0880910C08813061F410920C0829
:100EC00080910D088093BB008091BC0083FDF8CF1A
:100ED00085EC01C085EE8093BC00809132088130A2
:100EE000E1F380912F08823018F480912F0801C01F
:100EF00082E0AEE0B8E02FEC35E0F9019E2F921BC6
:100F0000981718F49D919193F9CF1092C105809391
:100F1000C00588E499E039DDF82E88E499E035DDF4
:100F2000EC0161E0C8010E940C2C60E070E07F2DB4
:100F30006C2B7D2B072E000C880B990B0E944A4CC2
:100F400020E030E040E05DE30E94A94C20E030E08A
:100F500040E05EE30E94A94CDF91CF911F910F9179
:100F6000FF900895CF93DF93EC0119A660E08FA165
:100F70000E942B241DA260E08BA10E942B2465EC13
:100F800074E087E598E0DF91CF910C946C341F9367
:100F9000CF93DF93EC0111E019A761E08FA10E94CC
:100FA0002B241DA361E08BA10E942B2465ED74E02E
:100FB00087E598E0DF91CF911F910C946C342F92CC
:100FC0003F924F925F926F927F928F929F92AF92D9
:100FD000BF92CF92DF92EF92FF920F931F93CF9326
:100FE000DF93CDB7DEB766970FB6F894DEBF0FBEBE
:100FF000CDBF6C016B8BFC0127A930E0F901E353F5
:10100000F84F8490FC0184A9A82FB0E0FD01E353C0
:10101000F84FA490F60166A970E0FB01E353F84F86
:101020000491F60145A950E0FA01E353F84F2490EA
:10103000F901ED5EF74F7490FD01ED5EF74F64909E
:10104000FB01ED5EF74F1491FA01ED5EF74F24912D
:101050002C8B60E00E94A82460E0F60185A90E9424
:10106000A824B12CF501EE0FFF1FCF018D54984F2E
:101070005C01FC01A591B4918C91262D20952D8BBE
:1010800082238C93312CF101EE0FFF1FCF018D5481
:10109000984F1C01FC01A591B4919C918C8980957D
:1010A00089238C9361E0F60187A90E94A82461E05E
:1010B000F60186A90E94A824912CF401EE0FFF1FCF
:1010C000CF018D54984F4C01FC01A591B4918C91A6
:1010D00087298C93E02FF0E0EE0FFF1FED54F84FBF
:1010E000A591B491EC9110951E231C93F60184A94F
:1010F0000E94E4248C01F60184A90E94E4242C01BE
:101100008FEF93E07C01E418F50860E0F60187A911
:101110000E94A82460E0F60186A90E94A824F40198
:10112000A591B4918C9170947E8A87218C9361E013
:10113000F60184A90E94A824F501A591B491EC912F
:101140006E2A6C9261E0F60185A90E94A824F6013E
:1011500086A90E94E4243C01F60186A90E94E424A9
:101160006816790629F4772473940415150509F097
:10117000712C0FEF13E0081B190B61E0F60187A932
:101180000E94A824F401A591B491EC912E89E22348
:10119000EC93F101A591B491EC912C89E22BEC93A5
:1011A000F501A591B4918C912D8982238C9360E0F7
:1011B000F60184A90E94A824F60186A90E94E424CD
:1011C0005C01F60184A90E94E424F60180AC91AC94
:1011D0008114910409F440C0BC01990F880B990B4C
:1011E0000E944A4C1B012C01B501BB0C880B990BCA
:1011F0000E944A4C9B01AC01C201B1010E940F4EFA
:1012000020E030E040E85FE30E94AA4D5B016C0102
:10121000B7010F2C000C880B990B0E944A4C9B01C4
:10122000AC01C601B5010E94A94C5B016C01B4017F
:1012300080E090E00E94484C9B01AC01C601B501E2
:101240000E94A94C20E030E040E85AE30E94A94CFB
:101250000E94774E6B0107C0A81AB90A6501F1E038
:10126000CF1AFCEFDF0A711002C0C12CD12C61E053
:1012700088E30E94A82461E087E30E94A824B601C5
:10128000695C71096F31734008F0E1C08B8981118D
:101290002DC26CEE74E087E598E00E946C344AE061
:1012A000B801CE010D960E94BB334AE0B701CE01D2
:1012B00001960E94BB3318861F821A8619861C86E7
:1012C0001B8669817A816115710531F04D815E81DE
:1012D000CE0107960E94A82C62EA75E0CE0107961F
:1012E0000E94802CBE01635F7F4F0E94972CBC013F
:1012F00087E598E00E947E34CE0107960E94DC2CA0
:10130000CE0101960E94DC2CCE010D960E94DC2CB1
:10131000C701805392408D38910570F4C801845FF5
:101320009140893C910540F462EF74E087E598E0D4
:101330000E946C3483E0DBC1C7018A549140873935
:10134000910570F49801245F3140293C310540F447
:1013500060E075E087E598E00E946C3484E0C7C1E6
:101360009701285532402E35310570F498012C5BD9
:101370003240293C310540F46CE075E087E598E0A7
:101380000E946C3481E0B3C19701255431402C3464
:10139000310570F498012C5B3240293C310540F452
:1013A00068E175E087E598E00E946C3482E09FC1B7
:1013B00097012C5D31092734310570F498012C5BBD
:1013C0003240273E310540F466E275E087E598E05B
:1013D0000E946C3485E08BC197012A533240233838
:1013E000310570F4C80180549140853B9105C8F4E3
:1013F0006EE375E087E598E00E946C3489E177C17F
:101400008D38910570F4C80180549140853B910559
:1014100040F462E575E087E598E00E946C348AE16B
:1014200066C19EEBE91AF108EDE3EE16F10408F04F
:101430005DC1085C11090739110508F057C164E660
:1014400075E087E598E00E946C348BE150C1FB8920
:10145000F130A1F5C701845393408734910538F4E6
:10146000C801885C91098937910508F45EC0C701FD
:10147000845992408437910568F498012856314088
:101480002932310508F44BC0245B3109213531057F
:1014900008F447C09701225132402135310508F048
:1014A000C9C0A8014856514049325105E0F1445B9A
:1014B000510941355105E8F58AE019C1FB89F2303F
:1014C00009F014C1C701845393408734910530F467
:1014D000C801885C91098937910538F1C7018B5C97
:1014E00092408635910530F49801205431402D33D7
:1014F0003105E8F020EFE21AF108E5E6EE16F10416
:1015000048F49801205431402D33310508F097C03C
:101510008DE1EDC08635910508F4CAC0E7C087E0CB
:10152000E6C088E0E4C089E0E2C086E0E0C08CE18B
:10153000DEC08437910580F4C80188569140893215
:10154000910508F461C0845B91098135910508F427
:101550005DC02135310568F4C80188569140893253
:10156000910508F455C0845B91098135910508F413
:1015700051C0C7018D5A92408E35910560F4C80163
:101580008A5892408135910508F446C0885C9109DB
:10159000CD9708F443C0C701835092408A36910525
:1015A00050F4C8018A58924081359105C8F1885C91
:1015B0009109CD97B8F1C7018757914080369105C1
:1015C00050F4C8018A5892408135910568F1885CD1
:1015D0009109CD9758F127EDE21AF10880E6E81657
:1015E000F10408F083C0C8018A5892408135910502
:1015F000F8F0023593E019070CF478C00F38134067
:101600000CF074C086E173C08BE071C08CE06FC0D9
:101610008DE06DC08EE06BC08FE069C080E167C077
:1016200081E165C082E163C083E161C084E15FC0A4
:1016300085E15DC08437910508F47ECF9ACF863569
:101640009105D8F0C801805991408135910588F005
:10165000C8018A5392408C34910568F0093982E0C0
:1016600018070CF443C0003E12400CF03FC083E268
:101670003EC08FE13CC081E23AC00039E1E01E0784
:101680006CF0013EF1E01F0714F48EE130C0E5E696
:10169000EE16F10418F18635910540F50A3322E083
:1016A000120754F00638E2E01E075CF480E21FC027
:1016B0000039F1E01F072CF7F5E6EF16F104B0F062
:1016C00012C025E6E216F10470F40939F2E01F07B2
:1016D0006CF0003E124054F482E209C00A3322E06A
:1016E000120704F7F2CF8635910578F380E066960D
:1016F0000FB6F894DEBF0FBECDBFDF91CF911F9123
:101700000F91FF90EF90DF90CF90BF90AF909F90A0
:101710008F907F906F905F904F903F902F900895A3
:101720002F923F924F925F926F927F928F929F92F1
:10173000AF92BF92CF92DF92EF92FF920F931F93DF
:10174000CF93DF93CDB7DEB7AB970FB6F894DEBF7C
:101750000FBECDBF3C0168A749A718012901EAA621
:10176000CBA660E070E08ED982E0F301848B8FEF2E
:101770009FEF938B828B918B808B22968FAD2297DC
:10178000811103C080E090EF02C080EC9FEC7C01EF
:1017900003E210E02BE430E046E450E068EC70E057
:1017A000C3010E94E63023968FAD2397811103C0B9
:1017B00080E090EF02C080EC9FEC7C0103E210E03F
:1017C0002BE430E041E950E068EC70E0C3010E9496
:1017D000E63001ED10E0F3011587048770E5C72EB0
:1017E000D12CD786C68666E173E0C3010E946C34B3
:1017F000F301158704878BE990E09787868766E178
:1018000073E0C3010E946C34F8A5F11118C0E12CFB
:1018100060EFF62E03E210E020E530E046E450E011
:1018200064E670E0C3010E94E63088E790E0F301CF
:1018300095878487D786C68663ED72E037C0F8A5A2
:10184000F130C9F45CE1E52E55E9F52E03E210E034
:1018500020E530E046E450E064E670E0C3010E9419
:10186000E6308EE690E0F30195878487D786C686BA
:101870006CE173E01BC0F8A5F230D9F440ECE42E23
:101880004FECF42E03E210E020E530E046E450E0B7
:1018900064E670E0C3010E94E6308DE790E0F3015A
:1018A00095878487D786C68662E273E0C3010E946B
:1018B0006C34F9A5F1111AC0E12C30EFF32E03E2DC
:1018C00010E020E530E041E950E064E670E0C3015B
:1018D0000E94E63088E790E0F301958784878BE9E2
:1018E00090E09787868763ED72E03BC0F9A5F13001
:1018F000D9F42CE1E22E25E9F22E03E210E020E5F6
:1019000030E041E950E064E670E0C3010E94E63057
:101910008EE690E0F301958784878BE990E09787C6
:1019200086876CE173E01DC0F9A5F230E9F490EC14
:10193000E92E9FECF92E03E210E020E530E041E9CA
:1019400050E064E670E0C3010E94E6308DE790E06D
:10195000F301958784878BE990E09787868762E219
:1019600073E0C3010E946C34F3011586148680E590
:1019700090E09787868762E775E0C3010E946C3428
:10198000F301158614868BE990E0978786876BE7CD
:1019900075E0C3010E946C34F3011586148603E0E0
:1019A00010E0178706878FEF9FEF918B808B138A4C
:1019B000128A62E875E0C3010E94903480EA90E0E8
:1019C000F30195878487178706871BA21AA21DA299
:1019D0001CA21FA21EA28E010F5F1F4F22E044E037
:1019E000C201B1010E946249BC01CE0182960E94EF
:1019F000C72CBE016E5D7F4FC3010E940134CE0132
:101A000082960E94DC2CF3011586148604E110E016
:101A10001787068761E975E0C3010E946C3487ED82
:101A200090E0F3019587848717870687FAA5F1115F
:101A300003C063ED72E002C06FEC72E0CE0101966C
:101A40000E94E633BE016F5F7F4FC3010E940134E5
:101A5000CE0101960E94DC2C64EA75E0C3010E946D
:101A600090348EE591E0F3019587848784E190E0DE
:101A700097878687FBA5F11103C063ED72E002C072
:101A80006FEC72E0CE0101960E94E633BE016F5FFB
:101A90007F4FC3010E940134CE0101960E94DC2CCD
:101AA0002AE530E04AE550E066E470E0C3010E94B8
:101AB0009A2925EA30E045EA50E069EB70E0C3017D
:101AC0000E949A29EE24EA94FE2C0EE110E024E60E
:101AD00030E04DEC50E062E271E0C3010E94E6307C
:101AE000F301138A128A118A108A86E391E095879E
:101AF000848785ED90E0978786876CE173E0C3016A
:101B00000E946C348FEF9FEFF301938B828B918B4C
:101B1000808B83E0848B87E291E09587848783E7DD
:101B200090E097878687B501A401C3010E94C4286D
:101B30008EE190E0F3019587848782ED90E09787AE
:101B400086876EEA75E0C3010E946C34AB960FB6CF
:101B5000F894DEBF0FBECDBFDF91CF911F910F91E3
:101B6000FF90EF90DF90CF90BF90AF909F908F90BD
:101B70007F906F905F904F903F902F900895EF92DD
:101B8000FF920F931F93DC01ED91FC910288F38982
:101B9000E02D780101E010E019951F910F91FF9061
:101BA000EF900895EF92FF920F931F93DC01ED9158
:101BB000FC910288F389E02D7801890121E030E071
:101BC00019951F910F91FF90EF90089508952F920E
:101BD0003F924F925F926F927F928F929F92AF92BD
:101BE000BF92CF92DF92EF92FF920F931F93CF930A
:101BF000DF93CDB7DEB72D970FB6F894DEBF0FBEDB
:101C0000CDBF9D878C876A30A1F4DC0154962C915E
:101C100054971E968D919C911F97B8E02B9F800D35
:101C2000911D1124EC85FD8597878687158614867E
:101C3000FBC06D3009F4F8C0AC85BD855496BC91ED
:101C4000B983EC85FD850288F389E02DFD83EC8363
:101C5000AC85BD8550960D90BC91A02DBF83AE8301
:101C6000EC85FD8586849784C484D58480859185A0
:101C7000C816D906C4F0AC85BD8554964C915497CE
:101C8000242F30E01C968D919C911D97B6E04B9FC0
:101C9000800D911D1124EC85FD85958784874689EB
:101CA00041119EC0C1C0AC85BD851A968D919C9195
:101CB0001B9788169906FCF6B981AB2EB12CC6018C
:101CC000E6E0BE9F800D911D1124181619069CF6A2
:101CD000C50123E0880F991F2A95E1F7880D991D0A
:101CE0001816190644F6AC85BD8557968C9181115E
:101CF00003C0603B08F06F5FB5E06B9FB00111243B
:101D000016011A82FB01EC19FD09F987E887940195
:101D1000285F3F4F3B872A873A81353049F0E88575
:101D2000F985E20DF31DE756FD4F54915B8301C029
:101D30001B82240134018B8180FF13C0AC85BD85DB
:101D4000ED91FC91B981B13031F40084F185E02D41
:101D50002E813F8119C00288F389E02DEE80FF803B
:101D60001EC0EC81FD812E813F81E217F307F1F067
:101D7000AC85BD85ED91FC91B981B13059F40084F9
:101D8000F185E02D2C813D81A301B1018C859D85DC
:101D900019950CC00288F389E02DEC80FD80850147
:101DA0009501A201B6018C859D851995EB81E6957B
:101DB000EB83FFEF6F1A7F0A4A0C5B1C2A853B8579
:101DC0006216730609F0B7CF3A813F5F3A835FEF3F
:101DD000251A350ACA0CDB1C363009F09DCF4BCFD3
:101DE0004AEF4203B001439F700D1124AC85BD85BD
:101DF00018964D915C911997460F571F4817590730
:101E00009CF483E0220F331F8A95E1F71E968D9193
:101E10009C911F97280F391F1F963C932E931E9756
:101E20001D961C921E921C9781E090E02D960FB695
:101E3000F894DEBF0FBECDBFDF91CF911F910F9100
:101E4000FF90EF90DF90CF90BF90AF909F908F90DA
:101E50007F906F905F904F903F902F900895EF92FA
:101E6000FF920F931F93DC01ED91FC9111971A964D
:101E70000D911C911B9718962D913C9119970288F2
:101E8000F389E02D7B0140E050E060E070E01995BF
:101E90001F910F91FF90EF9008956F927F928F9214
:101EA0009F92AF92BF92CF92DF92EF92FF920F93E9
:101EB0001F93CF93DF936C015A014801EB013B0163
:101EC000620E731EC615D70574F4D601ED91FC9110
:101ED0000484F585E02D87019401A501BE01C601AA
:101EE00019952196EFCFDF91CF911F910F91FF9020
:101EF000EF90DF90CF90BF90AF909F908F907F90AA
:101F00006F900895EF92FF920F931F93DC01ED9174
:101F1000FC91260F371F215031090284F385E02DF3
:101F200078018A0119951F910F91FF90EF90089504
:101F3000EF92FF920F931F937801DC01ED91FC91DA
:101F4000240F351F8901015011090284F385E02D0A
:101F50009B0119951F910F91FF90EF9008956F923B
:101F60007F928F929F92AF92BF92CF92DF92EF9229
:101F7000FF920F931F93CF93DF93EC014B015A0114
:101F800069013801E881F9810684F785E02D870130
:101F90001995E881F981A501460D571D4150510958
:101FA0000684F785E02D9601B401CE011995E881EC
:101FB000F9810484F585E02D9301A501B401CE01DA
:101FC0001995E881F981C80CD91CB60161507109D5
:101FD0000484F585E02D9301A501CE011995DF91CB
:101FE000CF911F910F91FF90EF90DF90CF90BF9016
:101FF000AF909F908F907F906F9008952F923F9217
:102000004F925F926F927F928F929F92AF92BF9208
:10201000CF92DF92EF92FF920F931F93CF93DF93B4
:1020200000D0CDB7DEB74C017B836A836A015901CA
:1020300017019801241B350B37FF03C031952195FB
:102040003109C5014A815B81841B950B97FF03C051
:1020500091958195910951E059838217930714F066
:1020600019820BC09A2D8B2D5801092F182F9A8198
:102070008B81DB82CA82C92ED82E8A819B81A816C9
:10208000B9065CF49C2D8D2D6801092F182F9A81BB
:102090008B81BB82AA82A92EB82E2501AA81BB8181
:1020A0004A1A5B0A38016C187D0877FE03C07194E8
:1020B00061947108720157FE03C0BFEFEB1AFB0A6F
:1020C000F594E794C016D1061CF00FEF1FEF1FC068
:1020D00001E010E01CC0D401ED91FC91B9810084B5
:1020E000F185E02D9101BB23C1F04A815B81B601EE
:1020F000C4011995E618F708F7FE04C0C00ED11EFA
:10210000E40CF51CEA81FB813196FB83EA834A816A
:102110005B81A416B506FCF604C0A6016A817B812A
:10212000E7CF0F900F900F90DF91CF911F910F91FC
:10213000FF90EF90DF90CF90BF90AF909F908F90E7
:102140007F906F905F904F903F902F900895CF9326
:10215000DF938B988A98E0910201292F3327E901B8
:10216000C07CDD27F3E0D595C795FA95E1F7D90155
:10217000A370BB27D5E0AA0FBB1FDA95E1F77C2F30
:102180007A2BE7787E2B7093020175B1F901EC721E
:10219000FF27EE0FFF1FEE0FFF1F7F74E72BE5B940
:1021A00074B320713327220F331F372F3F7D232B2A
:1021B00024BB8998899A30910201DC01A07CBB275D
:1021C000C3E0B595A795CA95E1F7FC01E370FF2739
:1021D000D5E0EE0FFF1FDA95E1F72A2F2E2B377887
:1021E000232B2093020175B19C012C723327220FFF
:1021F000331F220F331F372F3F74232B25B974B39E
:102200009C0120713327220F331F372F3F7D232B53
:1022100024BB8998899A8A9AFA017FEF760F16165D
:102220000CF094C0219140910201322F307C369500
:1022300036953695522F537060E2569FD001112487
:102240003A2B4778342B3093020165B1322F3C7220
:10225000A4E03A9FA0011124362F3F74432B45B9C7
:1022600034B32071220F3F7D232B24BB8998899A98
:10227000772309F469C02091C305222309F464C0BF
:1022800001968A9850910201292F3327E901C07CD9
:10229000DD2743E0D595C7954A95E1F7D901A370AD
:1022A000BB2765E0AA0FBB1F6A95E1F74C2F4A2BAD
:1022B0005778452B4093020165B1A9014C7255270F
:1022C000440F551F440F551F562F5F74452B45B9BA
:1022D00044B320713327220F331F342F3F7D232B2C
:1022E00024BB8998899A30910201DC01A07CBB272C
:1022F000C3E0B595A795CA95E1F7AC0143705527A2
:10230000D5E0440F551FDA95E1F72A2F242B3778B3
:10231000232B2093020145B19C012C723327220FFD
:10232000331F220F331F342F3F74232B25B944B39F
:102330009C0120713327220F331F342F3F7D232B25
:1023400024BB8998899A8A9A672F67CF8B9ADF91E5
:10235000CF910895CF93DF938B988A98E2E0F1E0D4
:102360005081292F3327E901C07CDD2743E0D59533
:10237000C7954A95E1F7D901A370BB27D5E0AA0F0D
:10238000BB1FDA95E1F74C2F4A2B5778452B40833A
:10239000A5B1A9014C725527440F551F440F551F75
:1023A0005A2F5F74452B45B944B320713327220F50
:1023B000331F342F3F7D232B24BB8998899A30818A
:1023C000DC01A07CBB27D3E0B595A795DA95E1F7B2
:1023D000AC014370552725E0440F551F2A95E1F7BE
:1023E0002A2F242B3778232B208345B19C012C7274
:1023F0003327220F331F220F331F342F3F74232B19
:1024000025B924B380719927880F991F922F9F7D3A
:10241000892B84BB8998899A8A9A3081872F99273A
:10242000DC01A07CBB27C3E0B595A795CA95E1F771
:10243000AC0143705527D5E0440F551FDA95E1F7FD
:102440002A2F242B3778232B208345B19C012C7213
:102450003327220F331F220F331F342F3F74232BB8
:1024600025B924B380719927880F991F922F9F7DDA
:10247000892B84BB8998899A9081AB01407C552730
:10248000B3E055954795BA95E1F79B012370332743
:10249000C5E0220F331FCA95E1F7842F822B97786E
:1024A000892B808325B1CB018C729927880F991FC6
:1024B000880F991F922F9F74892B85B984B36071FF
:1024C0007727660F771F8F7D682B64BB8998899A61
:1024D0008B9ADF91CF910895EF92FF920F931F9304
:1024E000CF93DF93CDB7DEB72A970FB6F894DEBF50
:1024F0000FBECDBF7C01862F8370D70155968C937C
:102500005597462F417060FF05C016962D913C915E
:10251000179703C0F70124813581D70119963C93A1
:102520002E931897442329F014962D913C911597DA
:1025300003C0F70126813781D7011B963C932E9368
:102540001A97823041F0833041F0813011F088E4F5
:1025500005C088E203C088E901C088EF8A87F701D7
:10256000228D338D30FF03C08A8580588A8731FFE2
:1025700004C09A8580E489278A8733FF04C09A853E
:1025800088E089278A87D7015C968D919C915D9719
:1025900020FFD1C08431B8E69B07F1F49A85892FDA
:1025A000881F8827881F8295880F880F807C96FD5A
:1025B00002C020E001C020E298729A871F828260E8
:1025C000822B88878BE38987AE01495F5F4F63E089
:1025D00086EB90E0BCDD84C08336E9E19E0741F0E4
:1025E0008138F4E99F0721F0813125E1920709F54F
:1025F0002A8527FF02C021602A872A8526FF02C07C
:1026000022602A87833639E1930719F48A858F730C
:102610000EC0813844E9940719F48A858F7207C087
:102620008131954109F05CC08A858F7E806C8A87F4
:1026300057C02091C305222309F452C062E070E024
:10264000F70175A364A326E030E037A326A3E2E2F6
:10265000F0E0D7019996FC93EE9398979B967C9324
:102660006E939A9764E070E09D967C936E939C972E
:102670009F963C932E939E9728E030E0D1963C9312
:102680002E93D0978536910501F59A8594FD03C068
:1026900081E889278A87442351F082E890E0F70196
:1026A00095A384A380E890E097A386A32EC080E83A
:1026B00090E0D70195969C938E93949782E890E052
:1026C00097969C938E93969720C082359245E9F415
:1026D0008A8584FD02C0826001C086608A8715C039
:1026E0002AE230E0F70135A324A38BE290E097A320
:1026F00086A34CE250E051A740A733A722A735A7F5
:1027000024A797A786A791AB80AB8091C3058111C1
:1027100003C086E390E002C086E190E0AE01465F30
:102720005F4F61E014DD8A8590E0D70191969C931C
:102730008E939097E3C02A858339B7E79B0709F406
:1027400048C050F48435F1E09F0781F0803234E5D1
:10275000930709F081C03DC0863243E99407C9F16F
:102760008930A5EB9A0709F077C033C087E390E082
:10277000F70193A782A786E390E095A784A789E352
:1027800090E097A786A788E390E091AB80AB80E2CA
:1027900090E095A384A381E290E097A386A382E2D0
:1027A00090E091A780A7822F022E000C990B88271A
:1027B000990F881F9927982F8827990F26FD03C006
:1027C00060E070E002C060E071E08862682B792B05
:1027D00081C040E052E0D70195965C934E93949768
:1027E00041E052E097965C934E93969742E052E018
:1027F00099965C934E93989740E152E09B965C9338
:102800004E939A9741E152E09D965C934E939C972C
:1028100042E152E09F965C934E939E9743E152E0D3
:10282000D1965C934E93D09727FD03C020E030E013
:1028300002C020E030E88632B3E99B0731F08032F5
:10284000944519F060E07AE602C060E075E3622B1F
:10285000732B80E094E035C080E290E0D70195963C
:102860009C938E93949781E290E097969C938E939D
:10287000969782E290E099969C938E93989780E544
:1028800090E09B969C938E939A9781E590E09D961D
:102890009C938E939C9782E590E09F969C938E9359
:1028A0009E9783E590E0D1969C938E93D09727FDD9
:1028B00003C060E070E002C060E070E8776280E62C
:1028C00090E048DD8A8586FD03C060E070E002C0CC
:1028D00060E071E081E090E03DDD8A8585FD03C028
:1028E00060E070E002C068E070E083FD70616063EA
:1028F000F70171A360A383E090E02CDDD70155962A
:102900008C91559780FF36C05A968D919C915B971C
:1029100092FD30C094968D919C91959796962D91AD
:102920003C91979795963C932E93949797969C936A
:102930008E9396979A968D919C919B979E962D91AA
:102940003C919F979B963C932E939A979F969C932E
:102950008E939E979C968D919C919D97D0962D914C
:102960003C91D1979D963C932E939C97D1969C93A6
:102970008E93D097F70102851385015011092085A8
:1029800031852150310940E050E060E070E0C7013E
:102990000E941830D70116966D917C9117975C961E
:1029A0008D919C915D978732B3E99B0749F4F701BC
:1029B00025892250223008F49EC000E010E09DC01E
:1029C00000E010E020E030E0D7015A964C9140FF43
:1029D00046C01982102F0A837B836C831D822E834D
:1029E0008091C305811103C083E390E002C08EE0B3
:1029F00090E0AE014F5F5F4F66E0A9DB19821A835A
:102A00008091C305811103C087E390E002C084E197
:102A100090E0AE014F5F5F4F62E099DB8091C305AC
:102A2000882389F01982F701848D958D8734934826
:102A300019F081E090E002C088E190E0AE014F5FC4
:102A40005F4F61E00AC0D7015A968C9180FF5AC04F
:102A500040E050E060E083E190E079DB53C08339EF
:102A6000B7E79B0779F160F48032F4E59F0751F1F5
:102A7000833827E7920791F08435914081F512C0A1
:102A8000863243E99407F1F028F48552924902977F
:102A900048F025C08930954BA9F021C0F701668D1B
:102AA000778D21C0600F711F6150710981E390E043
:102AB00051DCB80182E390E04DDC60E070E083E33C
:102AC00090E017C0D7015E966D917C915F97626030
:102AD00081E094E03FDCB80184E094E00AC0F701B3
:102AE000668D778D626081E690E034DCB8018AE61D
:102AF00090E030DC07C000E210E020E230E0201B74
:102B0000310B62CF2A960FB6F894DEBF0FBECDBF51
:102B1000DF91CF911F910F91FF90EF900895EF9269
:102B2000FF921F93CF93DF93C091E106D091E2060D
:102B3000843009F4ECC12BE53AE030931C0A209371
:102B40001B0A3093160A2093150A833059F4898D95
:102B50008F70833009F0D5C688899989892B09F04F
:102B6000D0C67EC0823009F07FC08091EE068F5FB4
:102B70008093EE06811113C08091ED068F5F8093E4
:102B8000ED0681110CC08091EC068F5F8093EC06FE
:102B9000811105C08091EB068F5F8093EB06109248
:102BA0001A0A1092190A1092180A1092170A898D9F
:102BB000982F9D7F953041F48A8D8F5F8A8F88375B
:102BC00009F09FC6198E9DC6882309F49AC62889E4
:102BD0003989232B09F440C09A8D2FEF290F2A8FB2
:102BE00091118FC69B8D983031F02FEF280F223036
:102BF00048F4953039F4198E80E88093E0060E94FD
:102C0000DD2D38C5953038F423E0092E01C0220FA0
:102C10000A94EAF701C020E32A8F9F5F9B8F8F7091
:102C20008330A1F048F4813009F44EC3823009F0BA
:102C300068C61092540A4BC3863009F4B7C4883072
:102C400009F4B4C4843009F05CC6B0C484E0809355
:102C5000E0060E94DD2D40C58F70833009F051C61B
:102C600088E08093E006FBC4853019F5E091DE062C
:102C7000F091DF0684819581892B09F442C6109278
:102C8000E2061092E1068FE49AE090931C0A80938A
:102C90001B0A9093160A8093150A1092180A109234
:102CA000170A10921A0A1092190A88E08093E00617
:102CB0002CC18091330A853409F023C6C091350AAE
:102CC000D0E0DC2FCC278091360AC80FD11D80912F
:102CD000190A90911A0A8C179D0708F412C6D0930E
:102CE0001A0AC093190A8091390A8F7309F009C62C
:102CF00010913A0A111105C6E090210AF090220ABB
:102D0000E114F10439F48091230A9091240A892B6B
:102D100009F442C080913C0A2091430A3091440A50
:102D2000813151F52F3F4FEF340739F48091450A37
:102D30009091460A019609F471C080911D0A909104
:102D40001E0A809590958E299F2928173907A1F48E
:102D500080911F0A9091200A809590954091230AB6
:102D60005091240A842B952B4091450A5091460A94
:102D70004817590709F452C02E153F0509F0C1C57F
:102D80002091450A3091460A8091230A9091240AA5
:102D90002817390709F0B5C50E94962D019609F04C
:102DA000B0C580913C0A863009F415C18131B1F17A
:102DB000813009F0A6C58091470A883009F0A1C585
:102DC0001092470A8091490A90914A0A873FCFEFB3
:102DD0009C0710F0099601C0089690934A0A8093C8
:102DE000490A80913F0A9091400A9093440A809347
:102DF000430A8091410A9091420A9093460A809337
:102E0000450AF092400AE0923F0A8091230A90918D
:102E1000240A9093420A8093410A77C56C97D09315
:102E20001A0AC093190A8FE49AE090931C0A8093BF
:102E30001B0A80914D0A90914E0A892B99F420919A
:102E4000490A30914A0A4091470A5091480A6091D4
:102E50003F0A7091400AA091410AB091420AE2EB08
:102E6000F6E00CC081E10E940D2D019609F049C5E4
:102E7000E6CF84819581009731F43B9686E0EE3D64
:102E8000F807B8F324C028173907B9F78681978166
:102E9000009719F04817590781F7808191810097B1
:102EA00029F4C281D381CD2B49F416C08F3FCFEFD7
:102EB0009C0721F4C281D381219671F068177907AC
:102EC000E1F682819381A817B907B9F605C0F0939E
:102ED000DF06E093DE0615C5F093DF06E093DE061D
:102EE0001092E2061092E10682E08093E0068FE401
:102EF0009AE090931C0A80931B0A9093160A809381
:102F0000150A1092180A1092170A0E94F721809150
:102F1000170A9091180A009709F4F3C49C01245EE3
:102F20003F4F30931A0A2093190A3093350A2093A1
:102F3000360AE091DE06F091DF06208520933B0AF9
:102F400021E120933C0A0896982789279827909397
:102F50004C0A80934B0A10924E0A10924D0A8481BB
:102F600095819093480A8093470A86819781909330
:102F70004A0A8093490A8091210A9091220A9093EB
:102F8000400A80933F0A8091230A9091240A9093EB
:102F9000420A8093410A808191819093440A8093F0
:102FA000430A828193819093460A8093450A8BE578
:102FB0009AE090931C0A80931B0A81E10E940D2DD8
:102FC00080959095009711F48FEF9FEF90934E0AA4
:102FD00080934D0A73C486E00E940D2D019609F07E
:102FE00090C42091490A30914A0A8091470A9091F1
:102FF000480A60913F0A7091400AE091410AF091BD
:10300000420ACAE3D6E0498D4423A9F0AC81BD81D0
:103010002A173B0781F4AE81BF818A179B0759F4B9
:10302000A881B9816A177B0731F4AA81BB81EA17AD
:10303000FB0709F463C16E9646E0C23BD40719F75B
:103040008091540A8F738230A1F43093EA06209362
:10305000E90680E0843059F08F5F21153105D1F702
:103060001092E80680E0C0E0D0E09EE178C0809356
:10307000E8068091540A82FD44C484E18093540A96
:1030800088E290E090931A0A8093190A80E5809371
:10309000530A30914E0A8091520A80934E0A209131
:1030A0004D0A8091510A80934D0A2093510A9091C4
:1030B0004C0A8091500A80934C0A9093500A809158
:1030C0004B0A8093E80640914F0A40934B0A809345
:1030D0004F0A3F5F3093520A31110DC02F5F20938A
:1030E000510A211108C09F5F9093500A911103C0AB
:1030F0008F5F80934F0A8091470A9091480A90937E
:10310000EA068093E9062091490A30914A0A3093F1
:10311000480A2093470A90934A0A8093490A80916B
:103120003F0A9091400A9093440A8093430A809109
:10313000410A9091420A9093460A8093450AF09280
:10314000400AE0923F0A8091230A9091240A9093CA
:10315000420A8093410A96C3473099F08F5F8430CA
:10316000F1F0282F30E0929FF001939FF00D112491
:10317000E65CF94F418D4111EFCF8093E806EF01F6
:1031800010C0209721F0528D4A8D451738F7929F35
:10319000E001939FD00D1124C65CD94FDFCF8093FF
:1031A000E806209709F4ADC3D093E206C093E10688
:1031B00083E08A8F888F1E8A84E08F8B1B8E80919C
:1031C000490A90914A0A9D838C838091470A909185
:1031D000480A9F838E8380913F0A9091400A998389
:1031E00088838091410A9091420A9B838A8381E07F
:1031F000898F8091EB068C878091EC068D8780917A
:10320000ED068E878091EE068F8781E090E0998BA6
:10321000888B80914E0A8B8780914D0A8A87809196
:103220004C0A898780914B0A888781E090E00E9450
:1032300063488091530A982F907F913508F444C0D9
:1032400082958F7090E00597880F991F880F991FBE
:103250002091E706E12FF0E0E817F9078CF5EB5D28
:10326000F54F26A9211105C01093E8061092E70634
:103270002BC0213011F41F5FEDCF2230E1F437A9CC
:103280003430C9F41093E8062093E70680AD90E04F
:10329000982F882721AD822B9093EA068093E90628
:1032A000813062E0960710F080E092E09B8B8A8B81
:1032B0009D8B8C8B09C037A9332311F0130FCACF14
:1032C0001093E8062093E70680E18093540A8091EA
:1032D000540A82608093540A82E080935B0A94E0EF
:1032E00090935C0A80935D0A10925E0A8CE290E0F3
:1032F00090931A0A8093190A80E672C2D093E2066C
:10330000C093E1061092E0063091540A132F147016
:1033100032FF03C0198E80E20CC22091530A22951D
:103320002F70220F220F2093E8068091190A9091A6
:103330001A0A4497821B910990931A0A8093190ADA
:103340004F70423021F4232F2F732231C9F0892B83
:1033500019F4832F8370A1F090914B0A88859813FC
:1033600035C290914C0A8985981330C290914D0ACC
:103370008A8598132BC290914E0A8B85981326C28A
:1033800034FF49C0688979896115710509F443C022
:10339000CE010C960E947A4830914F0A80913606F1
:1033A000381339C02091500A80913706281333C052
:1033B0009091510A8091380698132DC08091520A3D
:1033C00040913906841327C03C872D879E878F87BD
:1033D0008B8D811119C09E89888D2A8D821B292F82
:1033E000269526952695821B980F9E8B87FD8195A5
:1033F0002F89322F36953695231B820F8F8B96950A
:1034000096959695890F888F81E08093E006888D48
:103410008A8F198A188A298DE22FEF708E2F90E0FB
:10342000FC013197E830F10508F06BC28827EE58AF
:10343000FF4F8F4F0C94C34E8091E00680FF61C216
:1034400083E0898F80E48093E006198A188A80914E
:10345000190A90911A0A009709F4FDC022E42093FA
:10346000E0060E946348F7C08091E00680FF6DC0CF
:103470008091540A8F73823109F067C08091530A9A
:10348000982F907F913508F444C082958F7090E01A
:103490000597880F991F880F991F2091E706E12F44
:1034A000F0E0E817F9078CF5EB5DF54F26A921113F
:1034B00005C01093E8061092E7062BC0213011F4E6
:1034C0001F5FEDCF2230E1F437A93430C9F41093F7
:1034D000E8062093E70680AD90E0982F882721AD7D
:1034E000822B9093EA068093E906813072E0970779
:1034F00010F080E092E09B8B8A8B9D8B8C8B09C0B7
:1035000037A9332311F0130FCACF1093E806209385
:10351000E70683E0898F80914B0A888780914C0A67
:10352000898780914D0A8A8780914E0A8B8781E036
:1035300090E00E94634882E48093E006198A188A2A
:1035400010921A0A1092190A86C080E28093E0064F
:103550000E94DD2D198E8DCD8091540A80FF28C0E8
:1035600024FD26C088899989892B09F0CAC18091D8
:10357000190A90911A0A01960E9463488091E00608
:10358000982F90619093E0062091190A30911A0AC1
:10359000232B19F082618093E0060E94DD2D81E0EB
:1035A00090E0998B888B88E0898F1B8E81E10FC119
:1035B00085FF1DC08091590A90E0982F882730918F
:1035C0005A0A832B40911B0A50911C0A480F591F1D
:1035D00050931C0A40931B0A4091190A50911A0AF1
:1035E000BA01681B790B70931A0A6093190A40910B
:1035F000190A50911A0A4115510551F024FD08C0CD
:103600009091E00692609093E006CA010E946348A0
:103610008091550A90E0982F88272091560A820FB2
:10362000911D9093EA068093E9062C893D8928171D
:10363000390710F0892B21F43093EA062093E9062C
:103640008091E9069091EA069B8B8A8B8091E00637
:10365000837009F456C11092180A1092170A0E943A
:10366000DD2D8091E00685FF07C01092180A1092A8
:10367000170A198E84E1ABC084FF0AC01092180AA1
:103680001092170A81E090E0998B888B84E08CCFB0
:103690002091170A3091180A21153105E1F080FFB9
:1036A00002C0198A188A88899989009781F48A89C1
:1036B0009B898217930720F49093180A8093170A26
:1036C0008091170A9091180A998B888B04C0909367
:1036D000180A8093170A1B8E8091150A9091160A7A
:1036E00090931C0A80931B0A8091170A9091180AE4
:1036F000892B59F088899989009739F08896909399
:103700001A0A8093190A88E10BC08091E00681FFB4
:10371000F8C088E290E090931A0A8093190A80E139
:103720008093540A5CC08091E00680FFEAC0198E45
:1037300080E18093E0060E94DD2DE3C08091190AAC
:1037400090911A0A009711F00E9463489091540AD0
:103750008091E00690FF0BC080FF06C087E0898F54
:103760001A8E198A188A19C086E0898F16C080FFC0
:103770001EC085E0898F198A188AC3C08091190AF2
:1037800090911A0A009711F00E9463488091540AA0
:1037900080FF0DC087E0898F1A8E81E090E00E9443
:1037A000634880E18093E0060E94DD2D0FC0809188
:1037B000190A90911A0A892B49F4A3C08091E00656
:1037C00080FF9FC087E0898F1A8E9BC080E1809325
:1037D000540A88E290E090931A0A8093190A80E5CF
:1037E0008093530A888580934F0A89858093500A75
:1037F0008A858093510A8B858093520A8C858093A9
:103800004B0A8D8580934C0A8E8580934D0A8F8557
:1038100080934E0A86E080933C0A8C819D81909330
:10382000480A8093470A8E819F8190934A0A809329
:10383000490A8091210A9091220A9093400A80932C
:103840003F0A8091230A9091240A9093420A809320
:10385000410A888199819093440A8093430A8A811E
:103860009B819093460A8093450A898D84FF05C009
:103870001092560A1092550A05C082E08093550AAC
:103880001092560A80E480933B0A8091190A909125
:103890001A0A9093350A8093360A10925A0A1092A7
:1038A000590A1092580A1092570A86E00E940D2D6C
:1038B000809590959093580A8093570A85E4809359
:1038C000330A1092340A10923A0A1092390A8091FF
:1038D000E5069091E60601969093E6068093E5064C
:1038E0009093370A8093380A10923E0A10923D0A4C
:1038F0000E94962D8095909590933E0A80933D0A64
:1039000004C010921A0A1092190A1092E006DF9170
:10391000CF911F91FF90EF9008950F931F93CF9336
:10392000DF93DC012091E3063091E4062F5F3F4FE7
:1039300021158DE7380710F020E030E1522F432F9A
:10394000E2EBF6E080E0843041F0C481D5818F5F06
:103950003B96C417D507B9F7E9CF3093E406209317
:10396000E30690E08BE09430D1F0292F30E041E085
:10397000490F829FF001839FF00D1124EE54F94FFF
:10398000EF01249604811581012B39F49093E80608
:10399000309741F480E090E02EC0942FE4CF9093D4
:1039A000E806F8CF8091E3069091E40698278927EE
:1039B00098279983888377836683109729F41082E8
:1039C0001182128213820BC08D919C911197918369
:1039D000808312968D919C911397938382838BE0C1
:1039E000829FD001839FB00D1124AE54B94F80E463
:1039F00018968C93CF01DF91CF911F910F9108956D
:103A0000DC011C96ED91FC911D97309731F0868179
:103A10009781982789279827089580E090E0089556
:103A2000CF93DF93FC01EB01AC85BD85109791F03E
:103A300012969C91129713968C9113973C91119624
:103A40002C914BEB52E05183408332832383948348
:103A5000858308C08BEB92E091838083128213826E
:103A600014821582CF01DF91CF910895CF93DF9318
:103A70001F92CDB7DEB7DC01ED91FC91048CF58D82
:103A8000E02D41E050E0BE016F5F7F4F19951816A1
:103A900019061CF4898190E002C08FEF9FEF0F9010
:103AA000DF91CF910895CF93DF931F92CDB7DEB70B
:103AB0006983DC01ED91FC910280F381E02D41E00E
:103AC00050E0BE016F5F7F4F19950F90DF91CF914E
:103AD000089580E00895CF93DF93EC010E94DC2DE0
:103AE00089890E949125198ADF91CF910895CF93FA
:103AF000DF93EC010E94DC2D8989DF91CF910C943A
:103B0000E627CF93DF93EC010E94DC2D8989811198
:103B10000E9491258889898B188ADF91CF910C9416
:103B2000E6270F931F93CF93DF931F92CDB7DEB796
:103B30008C010E94DC2DF8018189882391F041E0FD
:103B400050E060E070E00E94AC278C01BE016F5F26
:103B50007F4F0E94B1250130110519F4898190E051
:103B600002C08FEF9FEF0F90DF91CF911F910F91C8
:103B70000895CF92DF92EF92FF920F931F93CF930E
:103B8000DF931F921F92CDB7DEB77C016B01498393
:103B90005A830E94DC2DF701818949815A8188234B
:103BA00041F160E070E00E94AC278C01B601D9D7EA
:103BB000F701D1888D2D0E94E6270817190729F4EF
:103BC0008D2DAFD7F701118A12C085E0D89EF00184
:103BD0001124E650F94F80819181800F911F9183CC
:103BE000808382819381801B910B93838283C801A0
:103BF00002C080E090E00F900F90DF91CF911F9175
:103C00000F91FF90EF90DF90CF900895CF93DF93C7
:103C1000EC018A89882369F09A01AB016E857F8562
:103C20000E9468272E853F85280F391F3F872E87E2
:103C300002C080E090E0DF91CF910895CF93DF93B1
:103C4000DC011C96ED91FC911D97309799F0EC01E9
:103C500015821482128611861D861C86898961D779
:103C600088895FD78A895DD72E9686E0FE011192FA
:103C70008A95E9F7DF91CF910895CF92DF92EF9285
:103C8000FF920F931F93CF93DF9300D01F92CDB776
:103C9000DEB78C016B017A010E94DC2DF601828176
:103CA0009381A481B581892B8A2B8B2B41F1E1145F
:103CB000F10429F1828190E0982F88272381822BBB
:103CC0009827892798279A838983248130E0322F87
:103CD00022274581242B3227232732273C832B831D
:103CE000D8011C96ED91FC911D977E2D6F2D30977C
:103CF00029F1778366839183808333832283D8017C
:103D00001C968D919C911D97892BA9F052968C91B0
:103D1000811111C086E096E00E94C526F801828BD1
:103D20002AE230E03787268721E090E0811101C048
:103D300020E0822F14C080E090E011C0CE010196F7
:103D4000ECDDD8011D969C938E931C97009799F3F8
:103D50009801225F3F4FFC0132872187D0CF0F901F
:103D60000F900F900F90DF91CF911F910F91FF90C7
:103D7000EF90DF90CF9008950F931F93CF93DF9331
:103D8000EC018B018C859D85892B39F460E070E016
:103D900080E090E0C2DD9D878C87EC85FD853097C3
:103DA00051F0102701271027158304832E96D28700
:103DB000C18781E001C080E0DF91CF911F910F9119
:103DC0000895CF93DF93EC010E945F322091190A8E
:103DD00030911A0A9091F1062A32310521F410929D
:103DE000F2069D7F03C01D821C8292609093F106B3
:103DF000DF91CF910C94A62DCF93DF93EC018C85AE
:103E00009D85892B19F480E090E023C0EA89EE2398
:103E1000D1F381E08B8B8E859F8525E0E29FF001B9
:103E20001124E650F94F938382838C859D8590936E
:103E3000DF068093DE0685E00E948F158091190AC7
:103E400090911A0A892BF9F2CE010E96BADF81E021
:103E500090E0DF91CF9108954F925F926F927F92A1
:103E60008F929F92AF92BF92CF92DF92EF92FF928A
:103E70000F931F93CF93DF93CDB7DEB7E5970FB6C0
:103E8000F894DEBF0FBECDBF7C018B016A018BEBC6
:103E900092E09A8389831C861B8648EE53E060E09B
:103EA00070E04D875E876F87788B23E632E03A8734
:103EB00029871E8A1D8AFE01779626E0DF011D9262
:103EC0002A95E9F79AA789A71BA61CA61DA61EA6D8
:103ED00080913E0990913F09A0914009B09141091C
:103EE0008F8F98A3A9A3BAA38B839C83AD83BE8332
:103EF00018861F82F801D8018D91882331F08E3207
:103F0000D9F380538A30C0F34EC080E090E020E0C7
:103F100030E05AE04191442311F1243031050CF096
:103F200042C04E3281F48F3F910509F0E4F5ABE2D7
:103F3000B0E0AC0FBD1FA20FB31F8C932F5F3F4F9C
:103F400080E090E0E7CF589FB001599F700D112499
:103F5000842F440F990BC097860F971FDBCF8F3F9D
:103F6000910509F004F524303105ECF4FE01E20F6F
:103F7000F31F83A7D701ED91FC910488F589E02D0B
:103F80008BEB92E09E8F8D8F8BA59CA5ADA5BEA5DA
:103F90008F8F98A3A9A3BAA3A601BE01635E7F4F2A
:103FA000C70119950DC24B815C816D817E81809125
:103FB000440990914509A0914609B09147094817D5
:103FC00059076A077B0709F4F9C155D56F70772740
:103FD0007C5FCE010996D0DE813009F0ECC18BEB1D
:103FE00092E09E8F8D8F8B819C81AD81BE818F8F62
:103FF00098A3A9A3BAA345E350E0BE01635E7F4F37
:10400000CE0109963ADE892B19F400E010E0B3C125
:1040100032D578876F8342E050E0BE01695F7F4F01
:10402000CE010996F3DD81E090E09E8F8D8F42E016
:1040300050E0BE01635E7F4FCE010996E7DD80E070
:1040400091E09E8F8D8F42E050E0BE01635E7F4F16
:10405000CE010996DBDD1E8E1D8E42E050E0BE01D2
:10406000635E7F4FCE010996D1DD42E050E0BE0194
:10407000635E7F4FCE010996C9DD42E050E0BE018C
:10408000635E7F4FCE010996C1DD5801F501808145
:10409000882309F1F8015F018191811115C0450163
:1040A000801A910A1814190494F48FA641E050E084
:1040B000BE01615D7F4FCE010996A8DDA401B80164
:1040C000CE010996A3DD03C08E3229F7E8CF850122
:1040D0000F5F1F4FDBCF1FA641E050E0BE01615DC7
:1040E0007F4FCE01099692DD00E011E01E8F0D8F0B
:1040F00042E050E0BE01635E7F4FCE01099686DD4F
:104100001E8F0D8F42E050E0BE01635E7F4FCE01F7
:1041100009967CDDCE0109966FDE892B09F475CFF7
:1041200083E0A82EB12CA7D42B013C01CE01099627
:10413000E8DC181619069CF09ED4DC01CB0184192A
:104140009509A609B70989389341A105B10508F079
:1041500001C162E370E080E090E055D4E7CF4B808E
:104160005C806D807E80BE01675F7F4FCE014D9683
:1041700057DC8F8D98A1A9A1BAA1481659066A06E5
:104180007B0609F0EAC0CE0109963ADCC59709F032
:10419000E4C0CE010996ABDC0C970CF4E1C04CE016
:1041A00050E0BE01635E7F4FCE0109960E94062D4E
:1041B0008F8D98A19827892798279CAB8BAB4F812F
:1041C00058852D8D3E8D4217530711F497FD06C07B
:1041D000CE01099680DC0CEF1FEFC4C08F70927087
:1041E000892B31F0CE01099676DC0BEF1FEFBAC0B8
:1041F0000BA11CA11027012710270115110531F46F
:10420000CE01099668DC0AEF1FEFACC0812C912C1F
:1042100089A19AA19827892798278816990648F591
:1042200041E050E0BE01615D7F4FCE0109960E94E2
:10423000062D8FA5811113C08FA58111F1CFCE015D
:10424000099614DCCE01099611DCCE0109960EDC2C
:10425000CE0109960BDC2FEF821A920AD9CF8FA5D7
:104260009FEF980F9FA7882339F3CE010996FEDBB5
:10427000F6CF812C912C41E050E0BE016B5C7F4F6A
:10428000CE0109960E94062D8DA9982F907C61F48D
:10429000882371F08DA99FEF980F9DAB882341F083
:1042A000CE010996E3DBF6CFCE010996DFDB1DAA2E
:1042B0008DA98111E0CF42E050E0BE016F5C7F4FDD
:1042C000CE0109960E94062D42E050E0BE01615DDC
:1042D0007F4FCE0109960E94062DCE010996C6DBBE
:1042E000CE010996C3DBCE010996C0DBCE0109964B
:1042F000BDDB42E050E0BE016D5C7F4FCE01099610
:104300000E94062D89A99AA98115914029F48FA5AB
:1043100098A981159140C1F1612C712C8BA99CA9A0
:104320009827892798276816790638F4CE010996C8
:104330009DDBEFEF6E1A7E0AF1CFFFEF8F1A9F0A17
:104340008016910609F097CFCE010996C4DB06EFDF
:104350001FEF08C00FEF1FEF05C00EEF1FEF02C0E9
:104360000DEF1FEF21E0A21AB10829F00F3F8FEFE8
:10437000180709F4D8CECE01099660DC013011058A
:1043800009F4F8CDC8011CC08BA99CA981159440E3
:1043900031F0CE0109969FDB07EF1FEFE3CF44E03A
:1043A00050E0BE01655D7F4FCE0109960E94062D4B
:1043B00001E010E0D7CF80E090E002C08EEF9FEFE9
:1043C000E5960FB6F894DEBF0FBECDBFDF91CF915B
:1043D0001F910F91FF90EF90DF90CF90BF90AF9023
:1043E0009F908F907F906F905F904F900895FF9275
:1043F0000F931F93CF93DF93E091DE06F091DF06DA
:10440000C185D285209709F44EC08091E00681FFD6
:104410002EC0FA80F1102BC08091470A9091480A73
:104420009783868380913F0A9091400A918380838D
:104430008091410A9091420A9383828380914B0A32
:1044400090914C0A982789279827089711F09DD4B6
:10445000F82EFA82FF2059F08F2DB8D58C012AE270
:1044600030E04091F00660E070E08F2DCAD5809179
:10447000E00683FF18C08D818823A9F08C8180938A
:10448000F2068AE28093EF06688179816A527109A7
:1044900080911B0A90911C0ADF91CF911F910F917F
:1044A000FF900C947C33DF91CF911F910F91FF907F
:1044B0000895FC01538D448D252F30E0842F90E02A
:1044C000821B930B541710F0CF960895019708950F
:1044D000FC01918D828D981761F0828DDF01A80F0C
:1044E000B11D5D968C91928D9F5F9F73928F90E02E
:1044F00008958FEF9FEF0895FC01918D828D98179D
:1045000031F0828DE80FF11D858D90E008958FEFD9
:104510009FEF0895FC01918D228D892F90E0805CA2
:104520009F4F821B91098F739927089587E598E023
:10453000F1DF21E0892B09F420E0822F0895FC01AE
:10454000848DDF01A80FB11DA35ABF4F2C91848D1C
:1045500090E001968F739927848FA689B7892C9351
:10456000A089B1898C9180648C93938D848D9813EC
:1045700006C00288F389E02D80818F7D80830895B5
:10458000EF92FF920F931F93CF93DF93EC0181E0A3
:10459000888F9B8D8C8D981305C0E889F98980815F
:1045A00085FD23C0F62E0B8D10E00F5F1F4F0F739C
:1045B0001127E02E8C8DE8120BC00FB607FCFACF46
:1045C000E889F989808185FFF5CFCE01B8DFF2CF88
:1045D0008B8DFE01E80FF11DE35AFF4FF0820B8F28
:1045E000EA89FB898081806207C0EE89FF89608348
:1045F000E889F98980818064808381E090E0DF919F
:10460000CF911F910F91FF90EF900895CF93DF937B
:10461000EC01888D8823C1F0EA89FB89808185FDC2
:1046200005C0A889B9898C9186FD0EC00FB607FC1C
:10463000F5CF808185FFF2CFA889B9898C9185FF5C
:10464000EDCFCE017CDFE8CFDF91CF91089580E000
:1046500090E0892B19F06ADF811125C080E090E09D
:10466000892B41F080E090E0892B21F00E9400002E
:1046700081111CC080E090E0892B41F080E090E047
:10468000892B21F00E940000811113C080E090E08E
:10469000892BA1F080E090E0892B81F00E9400003E
:1046A00081110AC008950E940000D8CF0E94000026
:1046B000E1CF0E940000EACF0C94000008953FB7BC
:1046C000F8948091080890910908A0910A08B09187
:1046D0000B0826B5A89B05C02F3F19F00196A11D18
:1046E000B11D3FBFBA2FA92F982F8827820F911D88
:1046F000A11DB11DBC01CD0142E0660F771F881FCF
:10470000991F4A95D1F708958F929F92AF92BF92C9
:10471000CF92DF92EF92FF920F931F93CF93DF938D
:104720007C018B016C0182E0C80ED11C4701E5E0E1
:104730008E0E911CC0E0D0E0F60141916F0150E077
:1047400060E070E02AE0C8010E9424345C016EE25F
:10475000C8010E94FA338A0D9B1DC80FD91FC814C7
:10476000D90451F7F701458150E060E070E02AE09C
:10477000C8010E9424348C0F9D1FDF91CF911F919F
:104780000F91FF90EF90DF90CF90BF90AF909F90F0
:104790008F9008950E94F0501F920F920FB60F92C3
:1047A00011240BB60F922F933F934F935F936F9308
:1047B0007F938F939F93AF93BF93EF93FF9387E57F
:1047C00098E0BDDEFF91EF91BF91AF919F918F91E6
:1047D0007F916F915F914F913F912F910F900BBE01
:1047E0000F900FBE0F901F9018951F920F920FB64B
:1047F0000F9211240BB60F922F938F939F93EF93E9
:10480000FF93E0916708F09168088081E0916D085E
:10481000F0916E0882FD12C09081809170088F5FC8
:104820008F7320917108821751F0E0917008F0E0C9
:10483000E95AF74F958F8093700801C08081FF91EE
:10484000EF919F918F912F910F900BBE0F900FBE04
:104850000F901F901895362F90E0FC01E75AF74F04
:104860004491FC01ED5EF74F2491FC01E353F84FB6
:104870009491992309F46BC0442309F455C050E086
:10488000FA013197E231F10508F04EC08827E65869
:10489000FF4F8F4F0C94C34E809180008F7707C0DD
:1048A000809180008F7D03C080918000877F8093FE
:1048B00080003AC084B58F7702C084B58F7D84BDF7
:1048C00033C08091B0008F7703C08091B0008F7D9E
:1048D0008093B00029C0809190008F7707C08091AD
:1048E00090008F7D03C080919000877F809390001F
:1048F0001BC08091A0008F7707C08091A0008F7DA2
:1049000003C08091A000877F8093A0000DC080919C
:1049100020018F7707C0809120018F7D03C0809197
:104920002001877F80932001E92FF0E0EE0FFF1F29
:10493000ED54F84FA591B4918FB7F894EC913111E3
:1049400003C020952E2301C02E2B2C938FBF0895DA
:10495000CF93DF9390E0FC01ED5EF74F2491FC01D3
:10496000E353F84F8491882361F190E0880F991FF9
:10497000FC01E756F84FC591D491FC01ED54F84F76
:10498000A591B491611109C09FB7F89488812095D1
:1049900082238883EC912E230BC0623061F49FB791
:1049A000F8943881822F809583238883EC912E2B75
:1049B0002C939FBF06C08FB7F894E8812E2B2883D5
:1049C0008FBFDF91CF910895863308F08653909181
:1049D0007B00282F2870977F922B90937B00877005
:1049E000806480937C0080917A00806480937A0058
:1049F00080917A0086FDFCCF80917800209179002B
:104A000090E0922B08958F929F92AF92BF92CF9297
:104A1000DF92EF92FF926B017C0151DE4B015C0152
:104A2000C114D104E104F104E9F049DEDC01CB0159
:104A300088199909AA09BB09883E9340A105B105C7
:104A400078F321E0C21AD108E108F10888EE880E57
:104A500083E0981EA11CB11CC114D104E104F1042F
:104A600021F7DECFFF90EF90DF90CF90BF90AF9017
:104A70009F908F9008952FB7F894609104087091DB
:104A8000050880910608909107082FBF08951F928E
:104A90000F920FB60F9211242F933F938F939F93F2
:104AA000AF93BF938091040890910508A0910608E8
:104AB000B09107083091030823E0230F2D3720F42D
:104AC0000196A11DB11D05C026E8230F0296A11D68
:104AD000B11D209303088093040890930508A093C8
:104AE0000608B09307088091080890910908A091E2
:104AF0000A08B0910B080196A11DB11D809308080A
:104B000090930908A0930A08B0930B08BF91AF9146
:104B10009F918F913F912F910F900FBE0F901F90FB
:104B200018958823E9F0AAEFB6E025E014969C9149
:104B3000149798130DC095E0899FF0011124E65059
:104B4000F94F848114968C931382128214820895F3
:104B5000992331F0299FD0011124A650B94FE6CFF7
:104B600008950F931F93CF93DF938C01EB0160E0C7
:104B700085E371DE8AE38EBD0DB407FEFDCF0C0F19
:104B80001D1FC017D10739F01EBC0DB407FEFDCFA5
:104B90008EB58993F6CF61E085E3DF91CF911F91C8
:104BA0000F9159CE0F931F93CF93DF931F92CDB7E1
:104BB000DEB7182F062F60E085E349834CDE802F97
:104BC0008F71812B8EBD49810DB407FEFDCF4EBD87
:104BD0000DB407FEFDCF61E085E30F90DF91CF912B
:104BE0001F910F9138CE1F93CF93DF93182F10761C
:104BF000C12FD0E02091000230E0C217D30779F036
:104C000043E06FE180EACEDFAE0185E05595479540
:104C10008A95E1F76FE180E8C5DF10930002DF912C
:104C2000CF911F9108951F93CF93DF931F921F92EF
:104C3000CDB7DEB7182F69837A83D5DF4981612F1D
:104C400080E4B0DF61E0610F7A81472F80E40F904C
:104C50000F90DF91CF911F91A5CFCF93DF93C82FF6
:104C6000D62F60E085E3F7DD8D2F8F71C82BCEBD89
:104C70000DB407FEFDCF1EBC0DB407FEFDCFD7FD62
:104C800007C061E085E3E7DD8EB5DF91CF91089540
:104C90001EBC0DB407FEFDCFF4CFCF93C62FBC01D1
:104CA00082E0C1DF60E085E3D6DD8AE78EBD0DB42A
:104CB00007FEFDCFCEBD0DB407FEFDCF61E085E35D
:104CC000CF91C9CDBC0180E0AEDF60E085E3C3DDFC
:104CD0008AE38EBD0DB407FEFDCF1EBC0DB407FEEA
:104CE000FDCF61E085E3B7DD8EB50895CF92DF9209
:104CF000EF92FF920F931F93CF93DF936C018B0181
:104D00004130510569F4CB01DDDF682FC601DF9129
:104D1000CF911F910F91FF90EF90DF90CF90BDCF7B
:104D2000EA01C60FD71F7E0181E0E81AF10880E191
:104D30007ADFB60184E177DF0115184038F4E11419
:104D400088E0F80618F07E0188E0F81AB70182E1E1
:104D50006ADF40E16FE180EA25DF40E26FE180E851
:104D600021DF6FE180E079DF85FF06C061E070E060
:104D700080E090E048DEF5CFDF91CF911F910F9159
:104D8000FF90EF90DF90CF900895CF92DF92EF9257
:104D9000FF920F931F93CF93DF938C016091FA06DC
:104DA0007091FB066150784EC12C98E1D92EEAEF44
:104DB000F6E080E0C0E0D0E045E09481992349F03E
:104DC000499F900111242650394FD9012D913C91D2
:104DD00001C09B01E080F1802E193F090280F38120
:104DE000E02D2E1B3F0B2017310739F4B5E08B9FC8
:104DF000E0011124C650D94F48C00217130748F4E8
:104E00002C153D0530F4489FE0011124C650D94FC0
:104E10006901911107C02097C1F5CAEFD6E085E07E
:104E2000D82E1DC0499FF0011124E650F94F892F5B
:104E3000C4CFEA80FB8028813981E20EF31ED89E20
:104E4000E0011124C650D94F68817981E616F70632
:104E500031F04A815B81C70149DFF982E8828C81A8
:104E60008111E7CF2091FA063091FB068881998164
:104E7000281B390B8A819B81281B390B2150384E06
:104E80002017310710F480E01AC091E0EFEFF6E050
:104E900022813381232B29F035969F5F9533C1F70B
:104EA000F2CF4A815B8128813981240F351F3183FC
:104EB0002083138302838C8184839C83892FDF91D9
:104EC000CF911F910F91FF90EF90DF90CF900895B9
:104ED000CF92DF92EF92FF920F931F93CF93DF93C6
:104EE0007B018A01690125E0829FC0011124EC0148
:104EF000C650D94F688179816E0D7F1D82E093DEA7
:104F00000A80DB81C02DCE19DF09CC16DD0608F43E
:104F1000E60160E085E39FDC8AE78EBD0DB407FE05
:104F2000FDCFC8018C0F9D1F0817190741F0F8012C
:104F300021918F012EBD0DB407FEFDCFF5CF61E0AD
:104F400085E389DCCE01DF91CF911F910F91FF9016
:104F5000EF90DF90CF900895EF92FF920F931F9301
:104F6000CF93DF938B017A018F3FC9F025E0829FB9
:104F7000E0011124C650D94F02C0C5EFD6E08881A8
:104F80009981B801680F791F80E04DDE8A819B818D
:104F9000801B910BE816F90690F4C70110C08091B0
:104FA000F5069091F606860F971F811528E0920767
:104FB00020F3BC016F5F7740C5EFD6E0E5CFDF910E
:104FC000CF911F910F91FF90EF90089580E090E0B6
:104FD00008956091F3067091F4066115710549F02A
:104FE00061507109611588E0780728F060E070E091
:104FF00002C06FEF77E060FF02C0615071098CE082
:1050000012CE0F931F93DB01E42FA80190E0EF3F36
:10501000F9F065E0E69FF0011124E650F94F02C077
:10502000E5EFF6E00190F081E02D2E0F3F1F65E0E7
:10503000689FF001699FF00D1124E650F94F8081BF
:105040009181B9018A0F9B1F51DE1F910F91C1CF32
:10505000E091F506F091F606E20FF31FE11568E026
:10506000F607F0F29F012F5F3740E1CF0F931F93B8
:10507000CF93DF93EC0188819981009729F02A81F1
:105080003B812617370788F48B016F5F7F4F0E94A3
:105090000C50009761F0998388831B830A832C81CD
:1050A0003D81232B11F4FC01108281E001C080E0DE
:1050B000DF91CF911F910F910895EF92FF920F937F
:1050C0001F93CF93DF93FC01248135816115710516
:1050D00011F480E018C041155105A1F07B01EC01ED
:1050E0008A01020F131FB801C1DF882391F32881C1
:1050F00039818C819D81B701820F931F0E940451D9
:105100001D830C8381E0DF91CF911F910F91FF9060
:10511000EF900895CF93DF93EC01888199810097F8
:1051200011F00E94744F198218821D821C821B820A
:105130001A82DF91CF910895E7E5F8E0A089B1895F
:1051400082E08C93A485B5851C92A685B7858FECEB
:105150008C93108EA489B58986E08C93A289B3893B
:105160008C9180618C93A289B3898C9188608C9397
:10517000A289B3898C9180688C930288F389E02D91
:1051800080818F7D808308954F925F926F927F928E
:105190008F929F92AF92BF92CF92DF92EF92FF9247
:1051A000CF93DF93EC016A017B019A01AB01C70148
:1051B000B6010E94AC4E882319F064EB75E01AC06A
:1051C00046015701E894B7F82FEF3FEF4FE75FE74D
:1051D000C501B4010E94AC4E811111C02FEF3FEF09
:1051E0004FE75FE7C501B4010E94444C18163CF438
:1051F00068EB75E0CE010E940F347C0185C02FEF73
:105200003FEF4FE75FE4C701B6010E94A84E1816B2
:105210001CF46CEB75E0EECF2FEF3FEF4FE75FEC48
:10522000C701B6010E94444C87FDF3CF20E030E077
:10523000A901C701B6010E94444C87FF0AC06DE274
:10524000CE010E94FA335C01F7FAF094F7F8F0947B
:1052500002C0A12CB12C2AE037ED43EA5BE3C70181
:10526000B6010E94AB4D2B013C010E947C4E6B01AC
:105270007C010E94484C9B01AC01C301B2010E9419
:10528000AA4D2B013C012AE0B701A601CE010E94E4
:1052900024347C01EA0CFB1C6EE2CE010E94FA333E
:1052A000E80EF91E20E030E040E251E4C301B20113
:1052B0000E94A94C2B013C010E947C4E4B01A12C69
:1052C000B12C2AE0B501A401CE010E942434E80EDD
:1052D000F91EC501B4010E94484C9B01AC01C301F9
:1052E000B2010E94AA4D20E030E040E251E40E9469
:1052F000A94C0E947C4EAB0160E070E02AE0CE0138
:105300000E942434E80EF91E66EE72E0CE010E947F
:105310000F348E0D9F1DDF91CF91FF90EF90DF90A6
:10532000CF90BF90AF909F908F907F906F905F9045
:105330004F9008952F923F924F925F926F927F927B
:105340008F929F92AF92BF92CF92DF92EF92FF9295
:105350000F931F93CF93DF93CDB7DEB7AC970FB604
:10536000F894DEBF0FBECDBF9C838B837B016A01A7
:1053700059014617570784F48D2D261737070CF06F
:10538000BAC169015B01E42EF82E22E231E03CA7AC
:105390002BA764E571E00FC0241735070CF055C04A
:1053A0009C2D8D2D6501A92EB82E44E551E05CA7FA
:1053B0004BA762E271E036E8232E33243394CE14F7
:1053C000DF040CF0A5C19E2D8F2D7601C92ED82E9D
:1053D0009BA58CA5A6E8B1E0BCA7ABA7292E382ECB
:1053E000EA14FB0409F03FC0B6E82B16B1E03B0617
:1053F0006CF09BA58CA5EBA5FCA5E215F30514F4B8
:10540000922D832D2BA43CA49BA78CA7621573051A
:1054100044F02BA53CA52617370714F47CA76BA7EF
:10542000B101AB81BC81ED91FC9111972BA53CA5FD
:10543000261B370B2F5F3F4F0684F785E02D0FEFBC
:105440001FEFA701CD01199571C166E871E0E21661
:10545000F30609F462C184E591E09CA78BA722E2E0
:10546000222E33243394C101EBA5FCA58E1B9F0B88
:1054700096012E193F09AB014E1B5F0B5E834D83D6
:10548000D501AE19BF09BA87A987FB01E219F30953
:10549000FE87ED87A5014C195D095E8B4D8BCA1403
:1054A000DB0431F0B601615071097A8F698F02C057
:1054B000DA8EC98E4701412C512C3201198A1A8A81
:1054C0001B8A1C8AA901330F660B770B4B8F5C8FED
:1054D0006D8F7E8F29853A85032E000C440B550B6A
:1054E0002F8F38A349A35AA3AC01990F660B770BF2
:1054F0004BA35CA36DA37EA36D817E81072E000C60
:10550000880B990B6FA378A789A79AA7698D7A8DC5
:10551000681579050CF458C069897A898B899C894A
:105520002B8D3C8D4D8D5E8D0E947F4D8BA59CA556
:10553000820F931F9A838983C301B2012F8D38A1F3
:1055400049A15AA10E947F4DABA5BCA52A0F3B1FC4
:1055500049895A896B897C898BA19CA1ADA1BEA187
:10556000480F591F6A1F7B1F498B5A8B6B8B7C8B93
:105570004FA158A569A57AA5440E551E661E771E33
:1055800069817A812617370734F499818A813A83B1
:105590002983292F382FAB81BC81ED91FC91119784
:1055A00049815A81241B350B2F5F3F4F0684F785B5
:1055B000E02D0FEF1FEFA40169817A81CD011995CC
:1055C0005FEF851A950AA2CFC4018C199D09AD859C
:1055D000BE85A89F2001A99F500CB89F500C112494
:1055E000052C000C6608770894012E193F09ED81FF
:1055F000FE81E29FC001E39F900DF29F900D112468
:105600006C01990FEE08FF082D893E89032E000CCE
:10561000440B550B2D8B3E8B4F8B588F49855A85EC
:10562000052E000C660B770B49875A876B877C87A2
:10563000BD01072E000C880B990B6D877E878F8725
:10564000988BCF01092E000CAA0BBB0B8D839E8378
:10565000AF83B887A814B9040CF468C0C301B201C1
:105660002D893E894F89588D0E947F4DD101A20F0F
:10567000B31FBA83A983C701B60129853A854B8533
:105680005C850E947F4DEBA5FCA52E0F3F1F4D852D
:105690005E856F857889440E551E661E771E6D8166
:1056A0007E818F819885C60ED71EE81EF91E8981DE
:1056B0009A812817390734F499818A813A8329839A
:1056C000292F382FAB81BC81ED91FC911197498135
:1056D0005A81241B350B2F5F3F4F0684F785E02D41
:1056E0000FEF1FEFA40169817A81CD0119955FEF5A
:1056F000851A950AAFCF6B01E42EF82EA2E2B1E035
:10570000BCA7ABA766E871E094E5292E3324339457
:10571000EA14FB0409F0A7CE6CCEE4E5F1E0FCA7A7
:10572000EBA782E2282E3324339473CEAC960FB6C7
:10573000F894DEBF0FBECDBFDF91CF911F910F91C7
:10574000FF90EF90DF90CF90BF90AF909F908F90A1
:105750007F906F905F904F903F902F900895382FDB
:105760002091560890915508213208F049C0809147
:1057700032088111FCCF42E0409332083093310867
:105780003FEF3093300810922F0820932E08A5E3A6
:10579000B8E04EE058E0FA013E2F341B321718F4FF
:1057A0003D913193F9CF10920D0820910D08990F7A
:1057B000922B90930D0890910C08913061F4109207
:1057C0000C0890910D089093BB009091BC0093FD44
:1057D000F8CF95EC01C095EE9093BC009091320803
:1057E0009230E1F3909130089F3F79F0809130083A
:1057F000803241F080913008803331F084E005C080
:1058000081E003C082E001C083E01092340810926E
:105810005608109233080895CF93C62FFC0180815B
:1058200091E09093330880935508109234081092B9
:10583000560861E088E499E00E9410056C2F88E426
:1058400099E00E94100581E0CF9189CF8F929F92BD
:10585000AF92BF92CF92DF92EF92FF926B017C01E9
:105860000AD94B015C01C60ED71EE81EF91E03D9EA
:10587000681579058A059B0528F0C616D706E8063F
:10588000F906A8F7FF90EF90DF90CF90BF90AF9010
:105890009F908F900895CF92DF92EF92FF92CF93D7
:1058A000DF936C01990FEE08FF08F7FE14C06DE25C
:1058B00087E598E09FD7EC0144275527BA014C199A
:1058C0005D096E097F092AE087E598E0BDD77C0174
:1058D000EC0EFD1E07C02AE0B701A60187E598E09F
:1058E000B3D77C0166EE72E087E598E098D78E0D1D
:1058F0009F1DDF91CF91FF90EF90DF90CF900895A3
:10590000CF93DF93EC016115710559F0FB01019014
:105910000020E9F73197AF01461B570BCEDB811111
:1059200002C0CE01F7DBCE01DF91CF910895CF9376
:10593000DF93EC01FB014481558160817181BDDB06
:10594000811102C0CE01E6DBCE01DF91CF91089537
:10595000EF92FF920F931F93CF93DF93EC017B01A4
:105960008A01BA0183DB811103C0CE01D3DB07C0FA
:105970001D830C83B701888199810E940451CE0157
:10598000DF91CF911F910F91FF90EF900895CF93EA
:10599000DF93EC016115710551F0FB0101900020CE
:1059A000E9F73197AF01461B570BD2DF01C0B2DBDD
:1059B000CE01DF91CF910895FC01808191810C94FB
:1059C000744FFB0141505109460F571FE417F5076B
:1059D00078F4208130E0322F22276181260F311D9B
:1059E000820F931F8217930708F401963296EECF29
:1059F000E417F50751F4208130E0322F2227820F7F
:105A0000931F8217930708F401960895DC01ED9126
:105A1000FC91048CF58DE02D1994EF92FF920F9379
:105A20001F93CF93DF93C82FE090360AF12C84E1C7
:105A3000E81AF1082091350A30E0322F2227E20ED1
:105A4000F31E48E050E06FE37AE0C7018C0F911D30
:105A5000B8DFC13131F0C091530AC695C695CC73F9
:105A600001C0C8E0D0E0AE0167E47AE0AADF8C01B3
:105A7000CE15DF0508F04BC0A7014C1B5D0BBE0126
:105A80006E5D7F4F8091F20667DAEC01219760E04E
:105A900085E30E942B248AE38EBD0DB407FEFDCF63
:105AA000A80160E070E06C177D07C8F41EBC0DB45F
:105AB00007FEFDCF2EB530E0322F22271EBC0DB4DD
:105AC00007FEFDCF8EB5280F311D420F531F421721
:105AD000530710F44F5F5F4F6E5F7F4FE4CF8A0133
