:10000000EFC400001EC500001CC500001AC500009A
:1000100018C5000016C5000014C5000012C5000078
:1000200010C500000EC500000CC500000AC5000088
:1000300008C5000006C5000004C5000002C5000098
:1000400000C50000FEC40000FCC40000FAC40000AB
:10005000F8C40000F6C40000F4C400000C94A60F1D
:10006000F0C400000C94540E0C942B0EEAC4000053
:10007000E8C40000E6C40000E4C40000E2C40000DC
:10008000E0C40000DEC40000DCC40000DAC40000EC
:10009000D8C40000D6C40000D4C400000C94211BB6
:1000A000D0C40000CEC40000CCC40000CAC400000C
:1000B000C8C40000C6C40000C4C40000C2C400001C
:1000C000C0C40000BEC40000BCC40000BAC400002C
:1000D000B8C40000B6C40000B4C40000B2C400003C
:1000E000B0C40000B90EBC0EAB0EAF0EB30EF30ED3
:1000F000C00EC40ECA0ECE0ED20ED80EDC0EE00E0E
:10010000F30EE60EEA0EEE0ECF2DE72D5E2E4D2FEE
:100110006D2F8D2F952F432F00407A10F35A00A09A
:10012000724E18090010A5D4E80000E876481700C0
:1001300000E40B54020000CA9A3B000000E1F50500
:10014000000080969800000040420F000000A0864A
:1001500001000000102700000000E803000000007C
:100160006400000000000A00000000000100000020
:1001700000002C76D888DC674F0823DFC1DFAE593A
:10018000E1B1B796E5E3E453C63AE651997696E8CD
:10019000E6C28426EB898C9B62ED407C6FFCEFBC51
:1001A0009C9F40F2BAA56FA5F490055A2AF75C937C
:1001B0006B6CF9676DC11BFCE0E40D47FEF520E6B2
:1001C000B500D0ED902E0300943577050080841E95
:1001D000080000204E0A000000C80C333333330FF0
:1001E000986E12831141EF8D2114893BE65516CF8D
:1001F000FEE6DB18D1844B381BF77C1D901DA4BB99
:10020000E424203284725E228100C9F124ECA1E54D
:100210003D274E6F20737570706F727420666F7219
:10022000206F766572203136206269742073697A96
:100230006564206D657373616765730001234567AD
:1002400089ABCDEFFEDCBA9876543210F0E1D2C320
:10025000486561646572206D69736D6174636800DF
:100260005365632D576562536F636B65742D4163EE
:10027000636570743A2000436F6E6E656374696FD6
:100280006E3A20557067726164650D0A005570679B
:10029000726164653A20776562736F636B65740D94
:1002A0000A00485454502F312E312031303120571C
:1002B000656220536F636B65742050726F746F6357
:1002C0006F6C2048616E647368616B650D0A005045
:1002D000617374206C6F6F7000416E616C797A6924
:1002E0006E672072657175657374206865616465F9
:1002F000727300576562736F636B65742065737406
:1003000061626C6973686564005465726D696E61E1
:1003100074696E6720736F636B65740044697363FF
:100320006F6E6E656374696E6720636C69656E7469
:1003300000436C69656E7420636F6E6E65637465EF
:100340006400E50110E70110E80148EC0109ED0146
:100350006C23016F240157250171E201181B01155F
:100360000101001C01031901017F051F018C1F0100
:10037000847F0A1F01947F0A1F01D47F05400D006E
:100380002B293E3D3F24740806070D17500D00022F
:100390000116143F0B5B08121819175D01FF1601B7
:1003A000082801207F282801387F2828013C0202E4
:1003B0000000040200EF060200000802018F800224
:1003C0000000820200001701050000210024002720
:1003D000002A002D00300033000101000004010755
:1003E000010A0100002200250028002B002E003108
:1003F00000340002010000050108010B010505059C
:1004000005070508080808020202020A0A0808048B
:1004100004040401010101010101010303030303B9
:10042000030303040707070C0C0C0C0C0C0C0C0248
:1004300002020206060606060606060B0B0B0B0B4F
:100440000B0B0B0102102020080810204010204048
:100450008002010201080402010102040810204088
:1004600080804020100804020180040201804020A6
:1004700010080402010804020101020408102040CF
:1004800080010204081020408000000A0B02090CC1
:100490000D0E08070304010000000000000000002A
:1004A000000000000000000000000000000000004C
:1004B0000000000000121110000000000000000009
:1004C000000000000000000000000000000000002C
:1004D000000000003E5B4F5B3E3E6B4F6B3E1C3EA0
:1004E0007C3E1C183C7E3C181C577D571C1C5E7FB4
:1004F0005E1C00183C1800FFE7C3E7FF0018241833
:1005000000FFE7DBE7FF30483A060E262979292667
:10051000407F050507407F05253F5A3CE73C5A7F51
:100520003E1C1C08081C1C3E7F14227F22145F5FA7
:10053000005F5F06097F017F006689956A606060E1
:10054000606094A2FFA29408047E040810207E201C
:100550001008082A1C08081C2A08081E1010101071
:100560000C1E0C1E0C30383E3830060E3E0E0600B7
:100570000000000000005F00000007000700147F7B
:10058000147F14242A7F2A122313086462364956E2
:1005900020500008070300001C2241000041221CDB
:1005A000002A1C7F1C2A08083E08080080703000C2
:1005B0000808080808000060600020100804023ED7
:1005C0005149453E00427F40007249494946214118
:1005D000494D331814127F1027454545393C4A4987
:1005E00049314121110907364949493646494929C6
:1005F0001E000014000000403400000008142241D6
:100600001414141414004122140802015909063E5E
:10061000415D594E7C1211127C7F494949363E4159
:100620004141227F4141413E7F494949417F09097A
:1006300009013E414151737F0808087F00417F4115
:10064000002040413F017F081422417F404040404C
:100650007F021C027F7F0408107F3E4141413E7FA4
:10066000090909063E4151215E7F0919294626499B
:1006700049493203017F01033F4040403F1F204072
:10068000201F3F4038403F6314081463030478047C
:10069000036159494D43007F414141020408102044
:1006A000004141417F0402010204404040404000BB
:1006B0000307080020545478407F284444383844C5
:1006C000444428384444287F385454541800087E41
:1006D000090218A4A49C787F0804047800447D4093
:1006E000002040403D007F1028440000417F400032
:1006F0007C047804787C080404783844444438FC4A
:100700001824241818242418FC7C080404084854CD
:1007100054542404043F44243C4040207C1C20408A
:10072000201C3C4030403C44281028444C90909081
:100730007C4464544C4400083641000000770000BB
:10074000004136080002010204023C2623263C1E1A
:10075000A1A161123A4040207A385454555921558C
:1007600055794122545478422155547840205455AB
:1007700079400C1E527212395555555939545454FA
:100780005939555454580000457C410002457D427A
:100790000001457C407D1211127DF0282528F07C57
:1007A000545545002054547C547C0A097F493249F1
:1007B0004949323A4444443A324A4848303A41413D
:1007C000217A3A42402078009DA0A07D3D424242DD
:1007D0003D3D4040403D3C24FF2424487E49436643
:1007E0002B2FFC2F2BFF0929F620C0887E09032020
:1007F000545479410000447D413048484A323840E1
:1008000040227A007A0A0A727D0D19317D26292943
:100810002F28262929292630484D40203808080845
:100820000808080808382F10C8ACBA2F102834FA66
:1008300000007B000008142A142222142A140855F0
:1008400000550055AA55AA55AAFF55FF55FF0000AF
:1008500000FF00101010FF00141414FF001010FF10
:1008600000FF1010F010F0141414FC001414F70022
:10087000FF0000FF00FF1414F404FC141417101FF1
:1008800010101F101F1414141F00101010F000007F
:1008900000001F101010101F10101010F01000009A
:1008A00000FF101010101010101010FF10000000AA
:1008B000FF140000FF00FF00001F10170000FC04E1
:1008C000F414141710171414F404F40000FF00F7C4
:1008D00014141414141414F700F714141417141027
:1008E000101F101F141414F4141010F010F0000056
:1008F0001F101F0000001F14000000FC140000F077
:1009000010F01010FF10FF141414FF141010101F1B
:1009100000000000F010FFFFFFFFFFF0F0F0F0F02C
:10092000FFFFFF0000000000FFFF0F0F0F0F0F3849
:1009300044443844FC4A4A4A347E02020606027E97
:10094000027E0263554941633844443C04407E20A2
:100950001E2006027E020299A5E7A5991C2A492AB3
:100960001C4C7201724C304A4D4D30304878483042
:10097000BC625A463D3E494949007E0101017E2A3A
:100980002A2A2A2A44445F444440514A444040446D
:100990004A51400000FF0103E080FF000008086B9F
:1009A0006B083612362436060F090F060000181899
:1009B0000000001010003040FF0101001F01011E67
:1009C00000191D1712003C3C3C3C00000000005385
:1009D000656E64696E6720646174613A20004362E9
:1009E00011241FBECFEFD1E2DEBFCDBF00E00CBFB0
:1009F00015E0A0E0B2E0E8E0F6ED00E00BBF02C0D9
:100A000007900D92AA30B107D9F72BE0AAE0B5E024
:100A100001C01D92A731B207E1F714E0C0EFD4E0A6
:100A200000E006C021970109802FFE010E94966810
:100A3000CF3ED10780E00807A9F70E94734A0C94C3
:100A4000026BDECAEF92FF920F931F93DC01ED91D0
:100A5000FC9111971A960D911C911B9718962D9148
:100A60003C9119970288F389E02D7B0140E050E02A
:100A700060E070E019951F910F91FF90EF9008953D
:100A80002F923F924F925F926F927F928F929F929E
:100A9000AF92BF92CF92DF92EF92FF920F931F938C
:100AA000CF93DF93CDB7DEB764970FB6F894DEBF70
:100AB0000FBECDBF4C017C8B6B8BB42ED22E170199
:100AC000280160E070E0BEDF82E0F401848B8FEFEC
:100AD0009FEF938B828B918B808B8EA5811103C0AE
:100AE00080E090EF02C080EC9FEC7C0103E210E01C
:100AF0002BE430E046E450E068EC70E0C4010E9472
:100B0000191E8FA5811103C080E090EF02C080EC18
:100B10009FEC7C0103E210E02BE430E041E950E07F
:100B200068EC70E0C4010E94191E01ED10E0F401B0
:100B30001587048770E5672E712C7786668660E6D8
:100B400073E0C4010E945035F401158704878BE9D6
:100B500090E09787868760E673E0C4010E94503575
:100B6000B11018C0E12C60EFF62E03E210E020E592
:100B700030E046E450E064E670E0C4010E94191ED3
:100B800088E790E0F401958784877786668666E437
:100B900073E037C0F1E0BF1219C05CE1E52E55E902
:100BA000F52E03E210E020E530E046E450E064E694
:100BB00070E0C4010E94191E8EE690E0F401958752
:100BC00084877786668666E673E01BC0F2E0BF1214
:100BD0001BC040ECE42E4FECF42E03E210E020E5C5
:100BE00030E046E450E064E670E0C4010E94191E63
:100BF0008DE790E0F40195878487778666866CE6BA
:100C000073E0C4010E945035D1101AC0E12C30EFBE
:100C1000F32E03E210E020E530E041E950E064E625
:100C200070E0C4010E94191E88E790E0F4019587E6
:100C300084878BE990E09787868766E473E03BC002
:100C4000F1E0DF121BC02CE1E22E25E9F22E03E2D7
:100C500010E020E530E041E950E064E670E0C401D6
:100C60000E94191E8EE690E0F401958784878BE937
:100C700090E09787868766E673E01DC0F2E0DF129A
:100C80001DC090ECE92E9FECF92E03E210E020E568
:100C900030E041E950E064E670E0C4010E94191EB2
:100CA0008DE790E0F401958784878BE990E0978742
:100CB00086876CE673E0C4010E945035F401158606
:100CC000148680E590E0978786876FE974E0C40119
:100CD0000E945035F401158614868BE990E09787C1
:100CE000868768EA74E0C4010E945035F4011586D5
:100CF000148603E010E0178706878FEF9FEF918B34
:100D0000808B138A128A6FEA74E0C4010E947F35D7
:100D100080EA90E0F401958784871787068722E0B0
:100D2000B201A101CE0101960E943C34BE016F5F69
:100D30007F4FC4010E942C4ACE0101960E94373495
:100D4000F4011586148604E110E0178706876EEB20
:100D500074E0C4010E94503587ED90E0F40195875E
:100D6000848717870687C11003C066E473E002C05A
:100D700062E473E0CE0101960E94AF34BE016F5F62
:100D80007F4FC4010E942C4ACE0101960E94373445
:100D900061ED74E0C4010E947F3588E691E0F401C2
:100DA0009587848784E190E097878687A11003C0A8
:100DB00066E473E002C062E473E0CE0101960E9433
:100DC000AF34BE016F5F7F4FC4010E942C4ACE0139
:100DD00001960E9437342AE530E04AE550E066E4A7
:100DE00070E0C4010E946D4425EA30E045EA50E01D
:100DF00069EB70E0C4010E946D44EE24EA94FE2C7D
:100E00000EE110E024E630E04DEC50E062E271E0EB
:100E1000C4010E94191EF401138A128A118A108AD1
:100E200086E391E09587848785ED90E097878687B4
:100E300066E673E0C4010E9450358FEF9FEFF40126
:100E4000938B828B918B808B83E0848B87E291E004
:100E50009587848783E790E0978786874AA55BA577
:100E60006CA57DA5C4010E9499438EE190E0F40138
:100E70009587848782ED90E0978786878B899C8908
:100E80006CE370E00E9483686B018C014AE0BC0156
:100E9000CE010D960E946B340A3011051CF00CEE49
:100EA00014E002C00AE413E04AE0B601CE0107965E
:100EB0000E946B34FAE0CF16D1041CF06CEE74E0A3
:100EC00002C06AE473E0CE0101960E94AF34BE0115
:100ED000695F7F4FCE0101960E94D8336BEF74E0BB
:100EE0000E94C133B8010E94C133BE01635F7F4FCE
:100EF0000E94D833BC01C4010E946435CE01019622
:100F00000E943734CE0107960E943734CE010D96E9
:100F10000E94373464960FB6F894DEBF0FBECDBF83
:100F2000DF91CF911F910F91FF90EF90DF90CF90C5
:100F3000BF90AF909F908F907F906F905F904F90F9
:100F40003F902F900895FC01128260E08081E2C6FC
:100F50002F923F924F925F926F927F928F929F92C9
:100F6000AF92BF92CF92DF92EF92FF920F931F93B7
:100F7000CF93DF93CDB7DEB72A970FB6F894DEBFD5
:100F80000FBECDBF1092B1091092B2091092B309F1
:100F90001092B40910926F091092700910927109A1
:100FA0001092720968EB7BE080E090E00E943F3392
:100FB00080ED98E09093B0098093AF090E9471434F
:100FC000B9D760936F0970937009809371099093FA
:100FD00072096BED74E08091AF099091B0090E94A5
:100FE0007F356AE070E080E090E00E943F3311E0DE
:100FF000109383090E94714386EF90E00E94B968C4
:101000004C018EE1D4018C9311968C93119785E05D
:1010100012968C93129714961C921E921397169602
:101020001C921E92159781E090E018969C938E93E7
:10103000179719961C9219971A961C921A971B9635
:101040001C921B971C961C921C9783E01D968C93F8
:10105000F40116861786108A118A8FE090E0938B30
:10106000828B148A158A168B178A108E118E8DE248
:1010700090E091A780A761E0CAD660E08DE24AD6F1
:101080008EE290E0D4019D969C938E939C9761E0B4
:10109000BED660E08EE23ED63401B0E36B0E711C2A
:1010A00088E490E0F40191AB80AB1092AE0810920E
:1010B000AD081092420810926408109240081093F4
:1010C0003F0810921A0861E084E124D661E085E1CE
:1010D00021D68091B9008E7F8093B9008091B900AC
:1010E0008D7F8093B90088E48093B80085E4809375
:1010F000BC0061E0C3010E94F23080E490E00E94F5
:10110000B9687C01DC0113961C921E92129720EFA5
:1011100030E015963C932E93149780E491E0179657
:101120009C938E93169719963C932E9318971B9623
:101130009C938E931A9755961C9255971D961C92C8
:101140001E921C971F961C921E921E9754961C93DB
:1011500054978FEF9FEF53969C938E93529751968F
:101160009C938E93509756961C93569757961C9225
:10117000579782E592E011969C938E9387E3D496DD
:101180008C93D49788E3D6968C93D69787E0D596A0
:101190008C93D59786E0D7968C93D7978CE291E085
:1011A000D9969C938E93D8978AE090E0D3969C939F
:1011B0008E93D297DF961C921E92DE9710931405A1
:1011C0008091010188678093010184B1806B84B9AB
:1011D0009D9A809A819A829A839A819A8B9A889A08
:1011E000899A899A62E370E080E090E06BD68998F2
:1011F00064E670E080E090E065D6899A64E670E08D
:1012000080E090E05FD660E070E080EB90E00E94CC
:101210001117F701118E108E85E690E0958F848F5F
:1012200083E195E1938F828F1093CF0867E870E098
:1012300082E493E00E941B4380E991E0D701179676
:101240009C938E9316975B962C915B97822F829539
:101250008F7090E0817099275F969C938E935E9734
:10126000ED91FC91008CF18DE02D60E0C7011995A6
:10127000D701ED91FC910688F789E02D60E0C70168
:101280001995F701848D958D8838944909F01AC213
:101290001092D305D701ED91FC910084F185E02DEA
:1012A00020EE3FEF40E050E060E070E0C7011995AC
:1012B000F701C0A4D1A48091CF08811106C0828D0E
:1012C00080FF03C05EE2C52ED12C00E010E020E0DC
:1012D00030E040E050E060E070E0C7010E94551D42
:1012E000D7015A968C915A9780FD0FC060E070E04C
:1012F00094968D919C9195970E94111760E070E0F3
:10130000F70186A197A10E9411178B988A983091B6
:1013100002018D2D9927BC01607C7727E3E075954C
:101320006795EA95E1F7AC0143705527F5E0440F66
:10133000551FFA95E1F7262F242B3778232B20937E
:10134000020145B19C012C723327220F331F220F5B
:10135000331F342F3F74232B25B924B38071992771
:10136000880F991F922F9F7D892B84BB8998899A1A
:1013700090910201A601407C552713E055954795B1
:101380001A95E1F796012370332705E0220F331FEA
:101390000A95E1F7842F822B9778892B809302019D
:1013A00025B1C6018C729927880F991F880F991F44
:1013B000922F9F74892B85B984B3F0E1CF22DD246D
:1013C000CC0CDD1C8F7DC82AC4BA8998899A8A9A68
:1013D0008091010187788093010184B18F7484B971
:1013E0009D98D7015A968C915A9786FD1FC080FD13
:1013F00012C05C968D919C915D978938924159F00D
:10140000889A8898889888988091000183B182B3DF
:1014100080910001889A889A889888988898809105
:10142000000183B182B380910001889AF701848D15
:10143000958D8131954159F4889A88988898889833
:101440008091000183B182B380910001889AD70115
:101450005A968C9184FF7CC0889A8898889888983E
:101460004091000183B192B350910001807B869539
:101470008695487168E0469F90011124382F322BE1
:101480009072892F90E095958795832B352F307634
:10149000329536953770382B889A889A889888982C
:1014A00088982091000143B192B380910001842F6C
:1014B000807BC82EC694C694287188E0289FA0011E
:1014C0001124C42A9072892F90E0959587957C2DE0
:1014D000782B889A889A88988898889850910001E3
:1014E00043B122B360910001407B842F869586959D
:1014F000587198E0599FA0011124482B2072822F27
:1015000090E095958795842B962F90769295969559
:101510009770982B889AD7015A962C91872F8C7F99
:1015200022FF0BC0987FB8E08B9F60011124D92A5D
:10153000369536953695C32A73C0387FE8E08E9F7E
:1015400060011124D32A969596959695C92A68C06C
:10155000889A8898889888983091000123B192B32E
:10156000E0910001889A889A889888988898809154
:101570000001A3B162B340910001A07BCA2ED12C1F
:10158000D601B595A795B595A7958871F8E08F9F79
:1015900060011124CA2ADB2A562F5072652F70E091
:1015A00075956795C62AD72A407650E0B5E05595DF
:1015B0004795BA95E1F7C42AD52A889A207B822FCD
:1015C00086958695387148E0349F90011124282B28
:1015D0009072892F90E095958795822BE076E29521
:1015E000E695E7708E2BD82AD7015A968C9183FF07
:1015F00003C0DC24CD24DC2482FF12C09601232FFB
:101600003327269526952695C601807E9770822BD6
:10161000932BDC2CCC24DD0CDD0CDD0CC82AD92A64
:101620008091D305882399F09601207CC6018827F4
:10163000947045E0969587954A95E1F7BFE3CB22F4
:10164000DD24D694C794C82AD92AC22AD32A889AD4
:101650008B9A8091010188678093010184B1806B2E
:1016600084B99D9AF701828D80FD10C0F701028533
:10167000138501501109208531852150310940E041
:1016800050E060E070E0C7010E94551DFFE1CF16F9
:10169000FFEFDF06B9F486E08983AE014F5F5F4F4D
:1016A00061E08AE390E00E94521CD7015A968D9126
:1016B0009C915B978F7E5B969C938E935A9781E06B
:1016C0008093D30563E0C7010E94921F60E070E041
:1016D000C701B8D9F401F3AAE2AAA4014C5C5F4F98
:1016E00058874F8384E1DA011D928A95E9F715AA9C
:1016F00014AA16AA17AA64EA71E071AF60AF4CE1B0
:1017000052E053AF42AF20EB34E035AF24AF88E274
:1017100095E097AF86AFE05CFF4F718360833296B0
:101720005183408332963183208332969183808324
:101730007401B8E4EB0EF11CF7011382128280E70A
:1017400092E09183808380E090E5958384836401B7
:10175000FEE4CF0ED11C8AE393E0D60111969C9350
:101760008E9380EC12968C93129788EA13968C9342
:10177000139781E014968C93149788EC15968C93AC
:10178000159786E0E8E4F2E0169601900D928A95AE
:10179000E1F787010E5E1F4F5401B6EFAB0EB11C8F
:1017A00088EE282E83E0382E412C512C22EA32E09C
:1017B000F801138212822482358246825782318355
:1017C0002083158614866CEE74E0C80146962A873D
:1017D00039870E94AF346CEE74E0C8014C960E94C9
:1017E000AF34095D1F4F2A8539850A151B0501F79E
:1017F0008AE393E09A838983F60182819381A481AD
:10180000B5818B839C83AD83BE83BE016F5F7F4FA9
:10181000C7010C960E9436316DEE74E080ED98E0C1
:101820000E947F353091F2052091F3059091F405E7
:101830008091F505F401E05BFF4F3083D401AF5A8E
:10184000BF4F2C9311969C9311968C938F0164013A
:10185000F4E5CF0ED11CD8014D918D0150E060E030
:1018600070E02AE080ED98E00E94073565EF74E0B3
:1018700080ED98E00E947F350C151D0561F76AEE3A
:1018800074E080ED98E00E945E4AC7010E943F37F5
:10189000C3010E94343EF40164A375A386A397A3F9
:1018A0008401045D1F4FC8014EDBC40188964BDBE9
:1018B000C80149DBD40158960C91589757961C9152
:1018C000579752966D917C915397072E000C880B79
:1018D000990B0E941D66F62EE72ED82EB92EF40124
:1018E000A6A4C4010E94C23EC82EC3010E94343E79
:1018F0002B013C01D4011C962C911C971B964C91FA
:101900008F8198852A8749870E94A83D0F931F934E
:10191000BF92DF92EF92FF92830172012A8549857F
:10192000BC01F40182A993A9ABD890920B058092D7
:101930000A050F900F900F900F900F900F902A961E
:101940000FB6F894DEBF0FBECDBFDF91CF911F91D0
:101950000F91FF90EF90DF90CF90BF90AF909F904E
:101960008F907F906F905F904F903F902F90089551
:10197000FC01538D448D252F30E0842F90E0821B95
:10198000930B541710F0CF96089501970895FC011A
:10199000918D828D981761F0828DDF01A80FB11DA6
:1019A0005D968C91928D9F5F9F73928F90E00895CA
:1019B0008FEF9FEF0895FC01918D828D981731F084
:1019C000828DE80FF11D858D90E008958FEF9FEFD8
:1019D0000895FC01918D228D892F90E0805C9F4FAE
:1019E000821B91098F739927089580ED98E0F1DFAC
:1019F00021E0892B09F420E0822F0895FC01848DD9
:101A0000DF01A80FB11DA35ABF4F2C91848D90E028
:101A100001968F739927848FA689B7892C93A08903
:101A2000B1898C9180648C93938D848D981306C0BA
:101A30000288F389E02D80818F7D80830895EF9265
:101A4000FF920F931F93CF93DF93EC0181E0888F78
:101A50009B8D8C8D981305C0E889F989808185FD5F
:101A600023C0F62E0B8D10E00F5F1F4F0F73112751
:101A7000E02E8C8DE8120BC00FB607FCFACFE88978
:101A8000F989808185FFF5CFCE01B8DFF2CF8B8D4C
:101A9000FE01E80FF11DE35AFF4FF0820B8FEA8938
:101AA000FB898081806207C0EE89FF896083E889B5
:101AB000F98980818064808381E090E0DF91CF911B
:101AC0001F910F91FF90EF900895CF93DF93EC015A
:101AD000888D8823C1F0EA89FB89808185FD05C056
:101AE000A889B9898C9186FD0EC00FB607FCF5CF89
:101AF000808185FFF2CFA889B9898C9185FFEDCFD0
:101B0000CE017CDFE8CFDF91CF91089580E090E0B7
:101B1000892B19F06ADF811125C080E090E0892BC4
:101B200041F080E090E0892B21F00E9400008111BB
:101B30001CC080E090E0892B41F080E090E0892B90
:101B400021F00E940000811113C080E090E0892BF9
:101B5000A1F080E090E0892B81F00E9400008111CB
:101B60000AC008950E940000D8CF0E940000E1CF73
:101B70000E940000EACF0C94000008953FB7F8944B
:101B80008091880590918905A0918A05B0918B0577
:101B900026B5A89B05C02F3F19F00196A11DB11DC8
:101BA0003FBFBA2FA92F982F8827820F911DA11D03
:101BB000B11DBC01CD0142E0660F771F881F991F40
:101BC0004A95D1F708958F929F92AF92BF92CF928C
:101BD000DF92EF92FF920F931F93CF93DF937C01DD
:101BE0008B016C0182E0C80ED11C4701E5E08E0E2E
:101BF000911CC0E0D0E0F60141916F0150E060E03F
:101C000070E02AE0C8010E9407355C016EE2C8015D
:101C10000E9478358A0D9B1DC80FD91FC814D9049E
:101C200051F7F701458150E060E070E02AE0C8011B
:101C30000E9407358C0F9D1FDF91CF911F910F914F
:101C4000FF90EF90DF90CF90BF90AF909F908F90DC
:101C500008950E94CA6A1F920F920FB60F92112424
:101C60000BB60F922F933F934F935F936F937F9396
:101C70008F939F93AF93BF93EF93FF9380ED98E083
:101C8000BDDEFF91EF91BF91AF919F918F917F91B9
:101C90006F915F914F913F912F910F900BBE0F90DD
:101CA0000FBE0F901F9018951F920F920FB60F92B4
:101CB00011240BB60F922F938F939F93EF93FF9363
:101CC000E091E008F091E1088081E091E608F09170
:101CD000E70882FD12C090818091E9088F5F8F73C1
:101CE0002091EA08821751F0E091E908F0E0E05312
:101CF000F74F958F8093E90801C08081FF91EF91A4
:101D00009F918F912F910F900BBE0F900FBE0F9050
:101D10001F901895362F90E0FC01E757FB4F449138
:101D2000FC01ED5BFB4F2491FC01E350FC4F9491CF
:101D3000992309F46BC0442309F455C050E0FA011B
:101D40003197E231F10508F04EC08827EE58FF4F79
:101D50008F4F0C949668809180008F7707C0809198
:101D600080008F7D03C080918000877F80938000FA
:101D70003AC084B58F7702C084B58F7D84BD33C0EF
:101D80008091B0008F7703C08091B0008F7D8093E9
:101D9000B00029C0809190008F7707C0809190009B
:101DA0008F7D03C080919000877F809390001BC03F
:101DB0008091A0008F7707C08091A0008F7D03C025
:101DC0008091A000877F8093A0000DC080912001AA
:101DD0008F7707C0809120018F7D03C08091200103
:101DE000877F80932001E92FF0E0EE0FFF1FED5178
:101DF000FC4FA591B4918FB7F894EC91311103C0C9
:101E000020952E2301C02E2B2C938FBF0895CF93A6
:101E1000DF9390E0FC01ED5BFB4F2491FC01E3506C
:101E2000FC4F8491882361F190E0880F991FFC0199
:101E3000E753FC4FC591D491FC01ED51FC4FA591A6
:101E4000B491611109C09FB7F894888120958223CD
:101E50008883EC912E230BC0623061F49FB7F89415
:101E60003881822F809583238883EC912E2B2C93AD
:101E70009FBF06C08FB7F894E8812E2B28838FBFB1
:101E8000DF91CF910895863308F0865390917B00BF
:101E9000282F2870977F922B90937B008770806407
:101EA00080937C0080917A00806480937A00809196
:101EB0007A0086FDFCCF809178002091790090E037
:101EC000922B08958F929F92AF92BF92CF92DF9202
:101ED000EF92FF926B017C0151DE4B015C01C1145A
:101EE000D104E104F104E9F049DEDC01CB018819F9
:101EF0009909AA09BB09883E9340A105B10578F369
:101F000021E0C21AD108E108F10888EE880E83E0CA
:101F1000981EA11CB11CC114D104E104F10421F7E5
:101F2000DECFFF90EF90DF90CF90BF90AF909F906B
:101F30008F9008952FB7F89460918405709185056E
:101F400080918605909187052FBF08951F920F926B
:101F50000FB60F9211242F933F938F939F93AF93BC
:101F6000BF938091840590918505A0918605B091DD
:101F700087053091830523E0230F2D3720F4019648
:101F8000A11DB11D05C026E8230F0296A11DB11D9C
:101F9000209383058093840590938505A0938605FF
:101FA000B09387058091880590918905A0918A0555
:101FB000B0918B050196A11DB11D8093880590936A
:101FC0008905A0938A05B0938B05BF91AF919F912E
:101FD0008F913F912F910F900FBE0F901F901895EA
:101FE0008823E9F0A6EFB5E025E014969C911497BC
:101FF00098130DC095E0899FF0011124EA50FA4F23
:10200000848114968C9313821282148208959923EA
:1020100031F0299FD0011124AA50BA4FE6CF08957C
:102020000F931F93CF93DF931F92CDB7DEB7182F77
:10203000062F60E085E349836DDE802F8F71812B51
:102040008EBD49810DB407FEFDCF4EBD0DB407FE18
:10205000FDCF61E085E30F90DF91CF911F910F914C
:1020600059CE1F93CF93DF93182F1076C12FD0E056
:102070002091000230E0C217D30779F043E06FE10E
:1020800080EACEDFAE0185E0559547958A95E1F768
:102090006FE180E8C5DF10930002DF91CF911F91BF
:1020A00008951F93CF93DF931F921F92CDB7DEB792
:1020B000182F69837A83D5DF4981612F80E4B0DFEF
:1020C00061E0610F7A81472F80E40F900F90DF91DC
:1020D000CF911F91A5CF1F93CF93DF931F92CDB7C1
:1020E000DEB7182F6983BDDF4981612F80E40F902F
:1020F000DF91CF911F9194CFCF93DF93C82FD62F2D
:1021000060E085E307DE8D2F8F71C82BCEBD0DB447
:1021100007FEFDCF1EBC0DB407FEFDCFD7FD07C0E7
:1021200061E085E3F7DD8EB5DF91CF9108951EBCA8
:102130000DB407FEFDCFF4CFCF93DF931F92CDB741
:10214000DEB7682F69838DDF698180E00F90DF91B2
:10215000CF91D2CFCF93DF93EB01682F84EDBBDF1C
:10216000BE0186ED9EDFCFE0D0E08AEEE5DF80FFA6
:1021700007C06AE070E080E090E0A4DE2197A9F754
:10218000DF91CF910895CF93C62FBC0182E089DF04
:1021900060E085E3BFDD8AE78EBD0DB407FEFDCFAD
:1021A000CEBD0DB407FEFDCF61E085E3CF91B2CD8A
:1021B000BC0180E076DF60E085E3ACDD8AE38EBDC4
:1021C0000DB407FEFDCF1EBC0DB407FEFDCF61E0D0
:1021D00085E3A0DD8EB50895CF92DF92EF92FF9256
:1021E0000F931F93CF93DF936C018B014130510507
:1021F00069F4CB01DDDF682FC601DF91CF911F911C
:102200000F91FF90EF90DF90CF90BDCFEA01C60F06
:10221000D71F7E0181E0E81AF10880E142DFB601B4
:1022200084E13FDF0115184038F4E11488E0F80636
:1022300018F07E0188E0F81AB70182E132DF40E150
:102240006FE180EAEDDE40E26FE180E8E9DE6FE118
:1022500080E052DF85FF06C061E070E080E090E042
:1022600031DEF5CFDF91CF911F910F91FF90EF906D
:10227000DF90CF900895CF92DF92EF92FF920F936D
:102280001F93CF93DF938C016091F6057091F70552
:102290006150784EC12C98E1D92EE6EFF5E080E050
:1022A000C0E0D0E045E09481992349F0499F900136
:1022B00011242A503A4FD9012D913C9101C09B0124
:1022C000E080F1802E193F090280F381E02D2E1B62
:1022D0003F0B2017310739F4B5E08B9FE001112443
:1022E000CA50DA4F48C00217130748F42C153D05B1
:1022F00030F4489FE0011124CA50DA4F690191116E
:1023000007C02097C1F5C6EFD5E085E0D82E1DC0E7
:10231000499FF0011124EA50FA4F892FC4CFEA8077
:10232000FB8028813981E20EF31ED89EE001112442
:10233000CA50DA4F68817981E616F70631F04A8192
:102340005B81C70149DFF982E8828C818111E7CF87
:102350002091F6053091F70588819981281B390B6A
:102360008A819B81281B390B2150384E2017310759
:1023700010F480E01AC091E0EBEFF5E022813381A8
:10238000232B29F035969F5F9533C1F7F2CF4A8111
:102390005B8128813981240F351F3183208313838A
:1023A00002838C8184839C83892FDF91CF911F913D
:1023B0000F91FF90EF90DF90CF900895CF92DF9232
:1023C000EF92FF920F931F93CF93DF937B018A01CC
:1023D000690125E0829FC0011124EC01CA50DA4F47
:1023E000688179816E0D7F1D82E05BDE0A80DB8172
:1023F000C02DCE19DF09CC16DD0608F4E60160E039
:1024000085E388DC8AE78EBD0DB407FEFDCFC801E9
:102410008C0F9D1F0817190741F0F80121918F01BA
:102420002EBD0DB407FEFDCFF5CF61E085E372DC74
:10243000CE01DF91CF911F910F91FF90EF90DF9030
:10244000CF900895EF92FF920F931F93CF93DF9356
:102450008B017A018F3FC9F025E0829FE0011124B2
:10246000CA50DA4F02C0C2E0D7E088819981B80132
:10247000680F791F80E015DE8A819B81801B910B9C
:10248000E816F90690F4C70110C0809102079091F8
:102490000307860F971F811528E0920720F3BC01E0
:1024A0006F5F7740C2E0D7E0E5CFDF91CF911F911A
:1024B0000F91FF90EF9008958823A1F09091FF066F
:1024C000992381F08F3F29F48091040790910507AB
:1024D000089595E0899FF0011124EA50FA4F828116
:1024E0009381089580E090E00895609100077091D5
:1024F00001076115710549F061507109611588E0A6
:10250000780728F060E070E002C06FEF77E060FFCE
:1025100002C0615071098CE0C4CD0F931F93DB01A1
:10252000E42FA80190E0EF3FF9F065E0E69FF001AD
:102530001124EA50FA4F02C0E2E0F7E00190F08186
:10254000E02D2E0F3F1F65E0689FF001699FF00DA1
:102550001124EA50FA4F80819181B9018A0F9B1FA3
:102560003BDE1F910F91C1CFE0910207F09103076D
:10257000E20FF31FE11568E0F607F0F29F012F5F0D
:102580003740E1CF80913705909138058F3F2FEF8D
:10259000920759F42091390530913A052F3F3F4F6A
:1025A00021F486E0EAE7F2E05AC02091F20530918A
:1025B000F305282739274091EA055091EB0524239C
:1025C0003523232B91F46091390570913A052091C0
:1025D000F4053091F505262737274091EC055091F9
:1025E000ED0524233523232B89F08091EE0590916E
:1025F000EF059093800580937F058091F005909181
:10260000F105909382058093810508C09093800521
:1026100080937F05709382056093810520917F05EB
:1026200030918005409181055091820580E09BE0CA
:1026300001C08F5F883071F1989FF0011124EA5436
:10264000F84F608171812617370799F7628173818E
:102650004617570771F780930E08349686E0A9E174
:10266000B5E001900D928A95E1F786E0EFE0F8E0A1
:10267000AFE1B5E001900D928A95E1F788E090E036
:102680009093260580932505809115059091160558
:102690000E9667C080930E0846E050E06FEF70E042
:1026A00089E195E00E94D76A86E0E9E3F5E0DF0181
:1026B000282F1D922A95E9F7EFE0F8E0AFE1B5E0A9
:1026C000982F01900D929A95E1F7EFE0F8E0AFE2D4
:1026D000B5E0982F01900D929A95E1F720917F0532
:1026E000309180053093400520933F05209181056E
:1026F0003091820530934205209341052091F205E7
:102700003091F30530933605209335052091F4057B
:102710003091F505309338052093370520E031E0FE
:1027200030932E0520932D053093280520932705FF
:1027300028E030E030932A052093290580932B056B
:1027400084E080932C0588E096E0909326058093A2
:1027500025058FE495E090931805809317058AE28C
:1027600090E090931605809315050895EF92FF92DF
:102770000F931F93CF93DF939C01FB0110920E08E0
:1027800090E08BE0983031F1899F70011124E701CE
:10279000CA54D84F6881798161157105C9F04A81A1
:1027A0005B8141155105A1F0D9010D911C91119743
:1027B0000617170769F412966D917C9113976417A9
:1027C000750731F490930E08D701A654B84F2AC06C
:1027D0009F5FD8CF90E08BE0983091F0899FE00127
:1027E0001124CA54D84F48815981452B39F44A8164
:1027F0005B81452B19F490930E080AC09F5FECCFC4
:1028000010927E0510927D0510920E08C6EBD7E05F
:10281000D9014D915D916D917C91DE014D935D9358
:102820006D937D9386E001900D928A95E1F71A866B
:10283000DF91CF911F910F91FF90EF900895EF924C
:10284000FF920F931F93DC01ED91FC910288F389B5
:10285000E02D780101E010E019951F910F91FF9094
:10286000EF900895EF92FF920F931F93DC01ED918B
:10287000FC910288F389E02D7801890121E030E0A4
:1028800019951F910F91FF90EF90089508952F9241
:102890003F924F925F926F927F928F929F92AF92F0
:1028A000BF92CF92DF92EF92FF920F931F93CF933D
:1028B000DF93CDB7DEB72D970FB6F894DEBF0FBE0E
:1028C000CDBF9D878C876A30A1F4DC0154962C9192
:1028D00054971E968D919C911F97B8E02B9F800D69
:1028E000911D1124EC85FD859787868715861486B2
:1028F000FBC06D3009F4F8C0AC85BD855496BC9121
:10290000B983EC85FD850288F389E02DFD83EC8396
:10291000AC85BD8550960D90BC91A02DBF83AE8334
:10292000EC85FD8586849784C484D58480859185D3
:10293000C816D906C4F0AC85BD8554964C91549701
:10294000242F30E01C968D919C911D97B6E04B9FF3
:10295000800D911D1124EC85FD859587848746891E
:1029600041119EC0C1C0AC85BD851A968D919C91C8
:102970001B9788169906FCF6B981AB2EB12CC601BF
:10298000E6E0BE9F800D911D1124181619069CF6D5
:10299000C50123E0880F991F2A95E1F7880D991D3D
:1029A0001816190644F6AC85BD8557968C91811191
:1029B00003C0603B08F06F5FB5E06B9FB00111246E
:1029C00016011A82FB01EC19FD09F987E8879401C9
:1029D000285F3F4F3B872A873A81353049F0E885A9
:1029E000F985E20DF31DE153FB4F54915B8301C068
:1029F0001B82240134018B8180FF13C0AC85BD850F
:102A0000ED91FC91B981B13031F40084F185E02D74
:102A10002E813F8119C00288F389E02DEE80FF806E
:102A20001EC0EC81FD812E813F81E217F307F1F09A
:102A3000AC85BD85ED91FC91B981B13059F400842C
:102A4000F185E02D2C813D81A301B1018C859D850F
:102A500019950CC00288F389E02DEC80FD8085017A
:102A60009501A201B6018C859D851995EB81E695AE
:102A7000EB83FFEF6F1A7F0A4A0C5B1C2A853B85AC
:102A80006216730609F0B7CF3A813F5F3A835FEF72
:102A9000251A350ACA0CDB1C363009F09DCF4BCF06
:102AA0004AEF4203B001439F700D1124AC85BD85F0
:102AB00018964D915C911997460F571F4817590763
:102AC0009CF483E0220F331F8A95E1F71E968D91C7
:102AD0009C911F97280F391F1F963C932E931E978A
:102AE0001D961C921E921C9781E090E02D960FB6C9
:102AF000F894DEBF0FBECDBFDF91CF911F910F9134
:102B0000FF90EF90DF90CF90BF90AF909F908F900D
:102B10007F906F905F904F903F902F900895EF922D
:102B2000FF920F931F93DC01ED91FC9111971A9680
:102B30000D911C911B9718962D913C911997028825
:102B4000F389E02D7B0140E050E060E070E01995F2
:102B50001F910F91FF90EF9008956F927F928F9247
:102B60009F92AF92BF92CF92DF92EF92FF920F931C
:102B70001F93CF93DF936C015A014801EB013B0196
:102B8000620E731EC615D70574F4D601ED91FC9143
:102B90000484F585E02D87019401A501BE01C601DD
:102BA00019952196EFCFDF91CF911F910F91FF9053
:102BB000EF90DF90CF90BF90AF909F908F907F90DD
:102BC0006F900895EF92FF920F931F93DC01ED91A8
:102BD000FC91260F371F215031090284F385E02D27
:102BE00078018A0119951F910F91FF90EF90089538
:102BF000EF92FF920F931F937801DC01ED91FC910E
:102C0000240F351F8901015011090284F385E02D3D
:102C10009B0119951F910F91FF90EF9008956F926E
:102C20007F928F929F92AF92BF92CF92DF92EF925C
:102C3000FF920F931F93CF93DF93EC014B015A0147
:102C400069013801E881F9810684F785E02D870163
:102C50001995E881F981A501460D571D415051098B
:102C60000684F785E02D9601B401CE011995E8811F
:102C7000F9810484F585E02D9301A501B401CE010D
:102C80001995E881F981C80CD91CB6016150710908
:102C90000484F585E02D9301A501CE011995DF91FE
:102CA000CF911F910F91FF90EF90DF90CF90BF9049
:102CB000AF909F908F907F906F9008952F923F924A
:102CC0004F925F926F927F928F929F92AF92BF923C
:102CD000CF92DF92EF92FF920F931F93CF93DF93E8
:102CE00000D0CDB7DEB74C017B836A836A015901FE
:102CF00017019801241B350B37FF03C0319521952F
:102D00003109C5014A815B81841B950B97FF03C084
:102D100091958195910951E059838217930714F099
:102D200019820BC09A2D8B2D5801092F182F9A81CB
:102D30008B81DB82CA82C92ED82E8A819B81A816FC
:102D4000B9065CF49C2D8D2D6801092F182F9A81EE
:102D50008B81BB82AA82A92EB82E2501AA81BB81B4
:102D60004A1A5B0A38016C187D0877FE03C071941B
:102D700061947108720157FE03C0BFEFEB1AFB0AA2
:102D8000F594E794C016D1061CF00FEF1FEF1FC09B
:102D900001E010E01CC0D401ED91FC91B9810084E8
:102DA000F185E02D9101BB23C1F04A815B81B60121
:102DB000C4011995E618F708F7FE04C0C00ED11E2D
:102DC000E40CF51CEA81FB813196FB83EA834A819E
:102DD0005B81A416B506FCF604C0A6016A817B815E
:102DE000E7CF0F900F900F90DF91CF911F910F9130
:102DF000FF90EF90DF90CF90BF90AF909F908F901B
:102E00007F906F905F904F903F902F90089585ED49
:102E10008093BC008091BC0084FDFCCF10924008E0
:102E20000895CF93DF938B988A98E2E0F1E0508188
:102E3000292F3327E901C07CDD2743E0D595C795CD
:102E40004A95E1F7D901A370BB27D5E0AA0FBB1FB4
:102E5000DA95E1F74C2F4A2B5778452B4083A5B1E3
:102E6000A9014C725527440F551F440F551F5A2F67
:102E70005F74452B45B944B320713327220F331FAC
:102E8000342F3F7D232B24BB8998899A3081DC0124
:102E9000A07CBB27D3E0B595A795DA95E1F7AC0107
:102EA0004370552725E0440F551F2A95E1F72A2F37
:102EB000242B3778232B208345B19C012C72332798
:102EC000220F331F220F331F342F3F74232B25B9BA
:102ED00024B380719927880F991F922F9F7D892B8A
:102EE00084BB8998899A8A9A3081872F9927DC0137
:102EF000A07CBB27C3E0B595A795CA95E1F7AC01C7
:102F000043705527D5E0440F551FDA95E1F72A2F76
:102F1000242B3778232B208345B19C012C72332737
:102F2000220F331F220F331F342F3F74232B25B959
:102F300024B380719927880F991F922F9F7D892B29
:102F400084BB8998899A9081AB01407C5527B3E076
:102F500055954795BA95E1F79B0123703327C5E056
:102F6000220F331FCA95E1F7842F822B9778892B84
:102F7000808325B1CB018C729927880F991F880F08
:102F8000991F922F9F74892B85B984B3607177271D
:102F9000660F771F8F7D682B64BB8998899A8B9AFF
:102FA000DF91CF910895CF93DF93EC0188819981D0
:102FB000DC01ED91FC910084F185E02D1995892BC0
:102FC00039F464E170E080E090E00E94620FEECF9F
:102FD00088819981DC01ED91FC910284F385E02DDB
:102FE000DF91CF9119946F927F928F929F92AF92BF
:102FF000BF92CF92DF92EF92FF920F931F93CF93E6
:10300000DF9300D000D0CDB7DEB78C017B01ADB629
:10301000BEB66FEC79E080ED98E00E943A4AB701C5
:1030200080ED98E00E946435D8018D919C91DC017F
:10303000ED91FC910688F789E02D1995882309F414
:10304000ACC0F80184898823E1F080819181DC01A2
:10305000ED91FC910190F081E02D60E01995B701B0
:10306000F801808191810E942C4AD8018D919C9118
:10307000DC01ED91FC910190F081E02D6FEF19954D
:103080008CC0B701CE0101960E9496348DB69EB6D3
:10309000ED80FE80C7010196EDB7FEB7E81BF90B86
:1030A0000FB6F894FEBF0FBEEDBF2DB73EB72F5F32
:1030B0003F4F6901892B99F02115310581F0E11409
:1030C000F10419F4D9011C920AC069817A81A7011F
:1030D000C9010E94F36AF601EE0DFF1D1082F60190
:1030E00001900020E9F731977F01EC18FD08F80105
:1030F00080819181DC01ED91FC910190F081E02DC6
:1031000061E81995F80180819181DC01FEE7EF16F5
:10311000F104FCF0ED91FC910190F081E02D6EE75F
:103120001995F80180819181DC01ED91FC9101906C
:10313000F081E02D6F2D1995F80180819181DC01DE
:10314000ED91FC910190F081E02D61E0199536013F
:1031500007C0ED91FC910190F081E02D6E2DF6CF2E
:10316000C3018C199D098E159F0574F4F8018081A7
:103170009181D3016D913D01DC01ED91FC910190B4
:10318000F081E02D1995ECCF0FB6F8949EBE0FBEDE
:103190008DBECE0101960E9437340FB6F894BEBEA4
:1031A0000FBEADBE26960FB6F894DEBF0FBECDBFE4
:1031B000DF91CF911F910F91FF90EF90DF90CF9013
:1031C000BF90AF909F908F907F906F9008952F92B7
:1031D0003F924F925F926F927F928F929F92AF92A7
:1031E000BF92CF92DF92EF92FF920F931F93CF93F4
:1031F000DF93CDB7DEB7A2970FB6F894DEBF0FBE50
:10320000CDBFFC01EC5BFF4F208133E03227DC01B6
:10321000A30FB11D14966C932F5F2083203409F007
:10322000BEC1319680809180A280B38089869A86C3
:10323000AB86BC863496A080B180C280D380AD8638
:10324000BE86CF86D88A3496C080D180E280F38053
:10325000C98ADA8AEB8AFC8A3496E080F18002819E
:103260001381ED8AFE8A0F8B188F349600811181AD
:1032700022813381098F1A8F2B8F3C8F0D8F1E8FE8
:103280002F8F38A329853A854B855C852D833E8316
:103290004F835887CD84DE84EF84F8884D895E891A
:1032A0006F89788D49835A836B837C8309891A8956
:1032B0002B893C89212C312C522C50E125163104CC
:1032C000C8F449815A816B817C814027512762274C
:1032D00073274C215D216E217F2189809A80AB80EC
:1032E000BC80482559256A257B25475656486D4799
:1032F000754A9CC0422D4F703C0154E0459F600CC4
:10330000711C1124D1011D96AF70BB271196AA0F15
:10331000BB1FAA0FBB1FA80FB91FF1013896EF7092
:10332000FF273196EE0FFF1FEE0FFF1FE80FF91F6B
:103330008D909D90AD90BC90408151816281738150
:10334000482559256A257B25D30114968D909D909B
:10335000AD90BC901797482559256A257B25F1012A
:103360003296EF70FF273196EE0FFF1FEE0FFF1F13
:10337000E80FF91F80809180A280B38048255925ED
:103380006A257B25440F551F661F771F411DF301DA
:103390004483558366837783F3E1F21508F091CF78
:1033A00057E2852E821488F049815A816B817C8195
:1033B00040275127622773274C255D256E257F25E1
:1033C0004F5554416642714931C04BE3942E9214DB
:1033D000E8F0B701A601402B512B622B732B89809B
:1033E0009A80AB80BC80482159216A217B2146010B
:1033F000570180229122A222B322482959296A2901
:103400007B2944525344644E704710C049815A810D
:103410006B817C8140275127622773274C255D25CE
:103420006E257F254A525E436D497543F52DFF7029
:103430005C01A4E0FA9FA00CB11C1124BAA2A9A2BD
:103440004D805E806F807884EBE17694679457942A
:103450004794EA95D1F78D809E80AF80B884F5E0DF
:10346000880C991CAA1CBB1CFA95D1F784289528B6
:10347000A628B728E9A1FAA1448055806680778004
:10348000840C951CA61CB71C480D591D6A1D7B1D7C
:103490008D8C9E8CAF8CB8A0480D591D6A1D7B1D6C
:1034A00046015701A2E0B694A79497948794AA95F1
:1034B000D1F726013701BEE1440C551C661C771C70
:1034C000BA95D1F7482859286A287B28AFEF2A1ADD
:1034D0003A0ACD80DE80EF80F88489809A80AB80C4
:1034E000BC808D8E9E8EAF8EB8A2A0E52A163104C8
:1034F00059F04D835E836F83788709831A832B830A
:103500003C8393018201D8CEFC01EB5BFF4F8984A1
:103510009A84AB84BC84480D591D6A1D7B1D408371
:103520005183628373833496B701A601AD84BE8450
:10353000CF84D8884A0D5B1D6C1D7D1D408351834F
:10354000628373833496C988DA88EB88FC884C0CD4
:103550005D1C6E1C7F1C4082518262827382349695
:103560004D895E896F89788D040F151F261F371FBF
:103570000083118322833383349649815A816B817E
:103580007C81898C9A8CAB8CBC8C480D591D6A1D32
:103590007B1D408351836283738371971082A2964F
:1035A0000FB6F894DEBF0FBECDBFDF91CF911F9154
:1035B0000F91FF90EF90DF90CF90BF90AF909F90D2
:1035C0008F907F906F905F904F903F902F900895D5
:1035D000262FFC01E75AFF4F4081518162817381A0
:1035E0004F5F5F4F6F4F7F4F408351836283738381
:1035F000622FEDDD81E090E00895DC01FB01808128
:10360000869586958C9380818370918192959F7029
:1036100020E1829F900D112411969C931197918126
:103620009F70990F990F22812295269526952370D8
:10363000920F12969C93129782818F7313968C939C
:1036400008951F920F920FB60F9211240BB60F928E
:103650002F933F934F935F936F937F938F939F939A
:10366000AF93BF93EF93FF938091B900887F80362B
:1036700009F49CC068F5883209F45BC090F480318D
:1036800009F454C038F4882309F4F6C0883009F4EA
:103690004DC0F5C0883109F44CC0803209F45DC0DA
:1036A000EEC0803409F468C048F4803309F455C092
:1036B000883309F0E4C080933E08D8C0803509F40F
:1036C0004FC0883509F45DC0883409F0D8C0D6C031
:1036D000883909F4C7C0A8F4883709F467C038F4FA
:1036E000883609F463C0803709F460C0C8C08838E0
:1036F00009F4B8C0803909F45FC0803809F0BFC050
:103700005BC0803B09F486C038F4803A09F466C097
:10371000883A09F47FC0B3C0803C09F4A7C0883C54
:1037200009F4A4C0883B09F48AC0A9C080911B0891
:1037300010C090913D0880913C08981770F5E09179
:103740003D0881E08E0F80933D08F0E0E45EF74F86
:1037500080818093BB0085EC86C080933E088EC03C
:10376000E0913D0881E08E0F80933D088091BB0081
:10377000F0E0E45EF74F808390913D0880913C0833
:103780006EC0E0913D0881E08E0F80933D088091EE
:10379000BB00F0E0E45EF74F808380913F08811129
:1037A0006DC081E080931A0884EA61C083E0809351
:1037B00040081092D205CFCF8091D205803208F018
:1037C00051C0E091D20581E08E0F8093D2058091A7
:1037D000BB00F0E0EE54FA4F8083BDCF85EC8093C0
:1037E000BC00109240088091D205803230F4E09104
:1037F000D205F0E0EE54FA4F10826091D20570E0ED
:10380000E091B005F091B10582EB95E01995109229
:10381000D20535C084E0809340081092AF05109225
:10382000AC05E091AD05F091AE0519958091AC0520
:10383000811105C081E08093AC0510928C05E09168
:10384000AF0581E08E0F8093AF05F0E0E457FA4FAB
:1038500080818093BB009091AF058091AC05981753
:1038600008F479CF85E88093BC0009C085EC80938B
:10387000BC001092400803C010923E08C8DAFF91C5
:10388000EF91BF91AF919F918F917F916F915F91D8
:103890004F913F912F910F900BBE0F900FBE0F9045
:1038A0001F901895CF93DF938B988A98E09102012F
:1038B000292F3327E901C07CDD27F3E0D595C79593
:1038C000FA95E1F7D901A370BB27D5E0AA0FBB1F7A
:1038D000DA95E1F77C2F7A2BE7787E2B7093020143
:1038E00075B1F901EC72FF27EE0FFF1FEE0FFF1FFE
:1038F0007F74E72BE5B974B320713327220F331F90
:10390000372F3F7D232B24BB8998899A3091020160
:10391000DC01A07CBB27C3E0B595A795CA95E1F76C
:10392000FC01E370FF27D5E0EE0FFF1FDA95E1F70A
:103930002A2F2E2B3778232B2093020175B19C015F
:103940002C723327220F331F220F331F372F3F7460
:10395000232B25B974B39C0120713327220F331F09
:10396000372F3F7D232B24BB8998899A8A9AFA01A5
:103970007FEF760F16160CF094C021914091020152
:10398000322F307C369536953695522F537060E243
:10399000569FD00111243A2B4778342B30930201E3
:1039A00065B1322F3C72A4E03A9FA0011124362F5A
:1039B0003F74432B45B934B32071220F3F7D232B35
:1039C00024BB8998899A772309F469C02091CF088C
:1039D000222309F464C001968A9850910201292F8C
:1039E0003327E901C07CDD2743E0D595C7954A958B
:1039F000E1F7D901A370BB2765E0AA0FBB1F6A9549
:103A0000E1F74C2F4A2B5778452B4093020165B1C3
:103A1000A9014C725527440F551F440F551F562FAF
:103A20005F74452B45B944B320713327220F331FF0
:103A3000342F3F7D232B24BB8998899A3091020132
:103A4000DC01A07CBB27C3E0B595A795CA95E1F73B
:103A5000AC0143705527D5E0440F551FDA95E1F7C7
:103A60002A2F242B3778232B2093020145B19C0168
:103A70002C723327220F331F220F331F342F3F7432
:103A8000232B25B944B39C0120713327220F331F08
:103A9000342F3F7D232B24BB8998899A8A9A672FDC
:103AA00067CF8B9ADF91CF9108958F929F92AF92BB
:103AB000BF92CF92DF92EF92FF920F931F93CF931B
:103AC000DF9300D01F92CDB7DEB77C014B016A01B6
:103AD0005901FC01848D958D8732F3E99F0799F494
:103AE000F7018589823031F4F0E2CF0ED11C005EFF
:103AF0001F4F1DC08330D9F420E2820E911C80E25A
:103B0000A80EB11C14C08632954189F4F70185894D
:103B100080FF0DC0C801841B950B19F40F5F1F4F68
:103B200006C02617370719F4A80EB91E8A01F70137
:103B3000828D80FF37C082A599828A82BB82AC8247
:103B4000AE014F5F5F4F64E090E0ACDEF70186A509
:103B5000D982CA821B830C83AE014F5F5F4F64E042
:103B600090E0A0DE8091CF08882309F451C0F701CE
:103B7000848D958D8536910509F04AC099828A8297
:103B8000AE014F5F5F4F62E084A195A18BDED982C9
:103B9000CA82AE014F5F5F4F62E0F70186A197A135
:103BA00081DE36C0B401F70184A195A13AD9B601EE
:103BB000F70186A197A135D98A149B0419F4C01680
:103BC000D10631F1F701828D85FF0EC0858980FF16
:103BD00006C0102F0027C02AD12A860105C0BA2CA2
:103BE000AA248A289B285401B401F70182A593A531
:103BF00018D9B601F70186A597A513D9B501F70124
:103C000084A595A50ED9B801F70180A991A909D974
:103C10000F900F900F900F90DF91CF911F910F9108
:103C2000FF90EF90DF90CF90BF90AF909F908F90DC
:103C30000895AF92BF92CF92DF92EF92FF920F93CF
:103C40001F93CF93DF93EC018091D305882349F034
:103C5000C7018F719927880F991FE1ECEE22E82A9E
:103C6000F92A37FF05C0620F731F3195219531097D
:103C7000260F371F77FF02C060E070E088859985C6
:103C8000821793070CF49C016901C61AD70A17FF23
:103C900005C0400F511F119501951109040F151F03
:103CA00057FF02C040E050E08A859B85801791074E
:103CB0000CF48C015801A41AB50A015011092150C5
:103CC0003109CE01F2DE8B988A9888A599A550918A
:103CD0000201292F3327F901E07CFF27B3E0F59596
:103CE000E795BA95E1F7B9016370772715E0660F9C
:103CF000771F1A95E1F74E2F462B5778452B4093A7
:103D0000020165B1A9014C725527440F551F440F9C
:103D1000551F562F5F74452B45B944B32071332787
:103D2000220F331F342F3F7D232B24BB8998899A80
:103D300030910201BC01607C7727E3E075956795BF
:103D4000EA95E1F7AC0143705527F5E0440F551FA4
:103D5000FA95E1F7262F242B3778232B20930201A5
:103D600045B19C012C723327220F331F220F331FC2
:103D7000342F3F74232B25B924B380719927880FE2
:103D8000991F922F9F7D892B84BB8998899A8A9A43
:103D9000CA14DB042CF49C2D8D2D6501A92EB82EA0
:103DA0008F2D99279C0123703327A90125E0440F0B
:103DB000551F2A95E1F79C01207C332753E0359568
:103DC00027955A95E1F7242BBC016C727727660F73
:103DD000660F80719927880FF701E370FF2775E060
:103DE000EE0FFF1F7A95E1F7A701407C5527F3E01E
:103DF00055954795FA95E1F79E2F942BA7014C72A4
:103E00005527742F770F770F30E1E322FF24EE0C54
:103E10001A141B0444F5A601309102013778322BA5
:103E20003093020135B13F74362B35B934B33F7D41
:103E3000382B34BB8998899A309102013778392B15
:103E40003093020135B13F74372B35B934B33F7D20
:103E50003E2934BB8998899A41505109E9F6E1E03D
:103E6000AE1AB108D5CF8B9A8A8D80FF08C08C8D91
:103E70009D8D8632954189F48D8980FF0EC00A851B
:103E80001B8501501109288539852150310940E0F1
:103E900050E060E070E0CE0108DEDF91CF911F912D
:103EA0000F91FF90EF90DF90CF90BF90AF9008956B
:103EB000EF92FF920F931F93CF93DF937C01E90161
:103EC00077FD29C057FD27C0FC01808591856817C3
:103ED00079070CF58285938548175907E4F480919A
:103EE000D305882341F0CE018F719927880F991F40
:103EF000C17CC82BD92B8A019B01C701D6DDBE012D
:103F0000F70180A591A5DF91CF911F910F91FF90AF
:103F1000EF900C941117DF91CF911F910F91FF90AB
:103F2000EF900895EF92FF920F931F93CF93DF933B
:103F3000CDB7DEB72A970FB6F894DEBF0FBECDBF60
:103F40007C01862F8370D70155968C935597462F09
:103F5000417060FF05C016962D913C91179703C0E4
:103F6000F70124813581D70119963C932E93189738
:103F7000442329F014962D913C91159703C0F70125
:103F800026813781D7011B963C932E931A97823056
:103F900041F0833041F0813011F088E405C088E2BF
:103FA00003C088E901C088EF8A87F701228D338D2D
:103FB00030FF03C08A8580588A8731FF04C09A8504
:103FC00080E489278A8733FF04C09A8588E089279F
:103FD0008A87D7015C968D919C915D9720FFD1C017
:103FE0008431B8E69B07F1F49A85892F881F8827CA
:103FF000881F8295880F880F807C96FD02C020E084
:1040000001C020E298729A871F828260822B888783
:104010008BE38987AE01495F5F4F63E086EB90E0F9
:1040200041DC84C08336E9E19E0741F08138F4E940
:104030009F0721F0813125E1920709F52A8527FFA5
:1040400002C021602A872A8526FF02C022602A87B3
:10405000833639E1930719F48A858F730EC081384E
:1040600044E9940719F48A858F7207C0813195411C
:1040700009F05CC08A858F7E806C8A8757C020914A
:10408000CF08222309F452C062E070E0F70175A363
:1040900064A326E030E037A326A3E2E2F0E0D701F4
:1040A0009996FC93EE9398979B967C936E939A9730
:1040B00064E070E09D967C936E939C979F963C93F2
:1040C0002E939E9728E030E0D1963C932E93D09784
:1040D0008536910501F59A8594FD03C081E889270D
:1040E0008A87442351F082E890E0F70195A384A3E6
:1040F00080E890E097A386A32EC080E890E0D701E7
:1041000095969C938E93949782E890E097969C93D3
:104110008E93969720C082359245E9F48A8584FD76
:1041200002C0826001C086608A8715C02AE230E042
:10413000F70135A324A38BE290E097A386A34CE27A
:1041400050E051A740A733A722A735A724A797A7D8
:1041500086A791AB80AB8091CF08811103C086E325
:1041600090E002C086E190E0AE01465F5F4F61E003
:1041700099DB8A8590E0D70191969C938E939097D6
:10418000E6C02A858339B7E79B0709F448C050F495
:104190008435F1E09F0781F0803234E5930709F020
:1041A00081C03DC0863243E99407C9F18930A5EB4F
:1041B0009A0709F077C033C087E390E0F70193A72F
:1041C00082A786E390E095A784A789E390E097A76C
:1041D00086A788E390E091AB80AB80E290E095A366
:1041E00084A381E290E097A386A382E290E091A766
:1041F00080A7822F022E000C990B8827990F881F09
:104200009927982F8827990F26FD03C060E070E05A
:1042100002C060E071E08862682B792B82C040E0C8
:1042200052E0D70195965C934E93949741E052E00B
:1042300097965C934E93969742E052E099965C93E2
:104240004E93989740E152E09B965C934E939A97D9
:1042500041E152E09D965C934E939C9742E152E07F
:104260009F965C934E939E9743E152E0D1965C9368
:104270004E93D09727FD03C020E030E002C020E03D
:1042800030E88632B3E99B0731F08032944519F06B
:1042900060E07AE602C060E075E3622B732B80E099
:1042A00094E035C080E290E0D70195969C938E9380
:1042B000949781E290E097969C938E93969782E2F2
:1042C00090E099969C938E93989780E590E09B96CA
:1042D0009C938E939A9781E590E09D969C938E9304
:1042E0009C9782E590E09F969C938E939E9783E5A2
:1042F00090E0D1969C938E93D09727FD03C060E009
:1043000070E002C060E070E8776280E690E00E94B2
:1043100011178A8586FD03C060E070E002C060E08E
:1043200071E081E090E00E9411178A8585FD03C04D
:1043300060E070E002C068E070E083FD706160637F
:10434000F70171A360A383E090E00E941117D701E9
:1043500055968C91559780FF36C05A968D919C91B9
:104360005B9792FD30C094968D919C91959796960F
:104370002D913C91979795963C932E939497979671
:104380009C938E9396979A968D919C919B979E96CF
:104390002D913C919F979B963C932E939A979F9635
:1043A0009C938E939E979C968D919C919D97D09671
:1043B0002D913C91D1979D963C932E939C97D196AD
:1043C0009C938E93D097F7010285138501501109B4
:1043D000208531852150310940E050E060E070E0F7
:1043E000C70163DBD70116966D917C9117975C9698
:1043F0008D919C915D978732B3E99B0749F4F70152
:1044000025892250223008F4A3C000E010E0A2C0A9
:1044100000E010E020E030E0D7015A964C9140FFD8
:1044200046C01982102F0A837B836C831D822E83E2
:104430008091CF08811103C083E390E002C08EE039
:1044400090E0AE014F5F5F4F66E02CDA19821A836D
:104450008091CF08811103C087E390E002C084E11E
:1044600090E0AE014F5F5F4F62E01CDA8091CF08B1
:10447000882389F01982F701848D958D87349348BC
:1044800019F081E090E002C088E190E0AE014F5F5A
:104490005F4F61E00AC0D7015A968C9180FF5FC0E0
:1044A00040E050E060E083E190E0FCD958C08339FF
:1044B000B7E79B0789F160F48032F4E59F0761F16B
:1044C000833827E7920791F08435914099F512C01F
:1044D000863243E9940701F128F485529249029704
:1044E00048F028C08930954BB9F024C0F701668D9B
:1044F000778D24C0600F711F6150710981E390E0D6
:104500000E941117B80182E390E00E94111760E049
:1045100070E083E390E019C0D7015E966D917C91C5
:104520005F97626081E094E00E941117B80184E017
:1045300094E00BC0F701668D778D626081E690E0B4
:104540000E941117B8018AE690E00E94111707C077
:1045500000E210E020E230E0201B310B5DCF2A9614
:104560000FB6F894DEBF0FBECDBFDF91CF911F9184
:104570000F91FF90EF900895CF93DF931F92CDB7E7
:10458000DEB7DC01ED91FC910288F389E02D41E07A
:1045900050E0BE016F5F7F4F199597FD03C0898181
:1045A00090E002C08FEF9FEF0F90DF91CF910895C1
:1045B000FC01448555854115510551F0FB012485C9
:1045C00035852115310521F081E04217530709F0A7
:1045D00080E00895DC011C96ED91FC911D973097C9
:1045E00039F08181811106C08081829581700895A2
:1045F00080E0089581E008950F931F93CF93DF9398
:10460000EC018C010B5F1F4F88810E94F00F199203
:10461000C017D107C9F7DF91CF911F910F9108956E
:10462000CF93DF93EC01E881F981008CF18DE02DCF
:104630001995882331F08C859D850196DF91CF9166
:10464000DBCFDF91CF9108950F931F93CF93DF932B
:10465000EC01DC018D918D010E94F00FFE01CE0175
:104660000496D8012D918D012193E817F907C9F718
:104670001C82DF91CF911F910F910895EF92FF92CD
:104680000F931F93CF93DF93EC01E881F981008CA6
:10469000F18DE02D19958823B9F08C859D857C01DD
:1046A0002FEFE21AF20A8C010A5F1F4FC0E0D0E040
:1046B000F70181917F010E945C12C80FD91FE0169B
:1046C000F106B1F7CE0102C080E090E0DF91CF911A
:1046D0001F910F91FF90EF9008950F931F93CF9329
:1046E000DF931F92CDB7DEB78C01DC01ED91FC9119
:1046F000008CF18DE02D1995882391F0D8011C963E
:10470000ED91FC911D978181882351F041E050E0AB
:10471000BE016F5F7F4F0E940C31898190E002C023
:104720008FEF9FEF0F90DF91CF911F910F91089521
:104730006F927F928F929F92AF92BF92CF92DF92B1
:10474000EF92FF920F931F93CF93DF937C015B0156
:10475000EA01DC01ED91FC91008CF18DE02D1995C1
:10476000882309F46EC0D7011C96ED91FC911D972A
:104770008181882309F468C06E010EE1BE016C19C5
:104780007D096A0D7B1DD7011C96ED91FC911D974B
:10479000A60181810E940C314C01F701648475846B
:1047A000D30111961C91812F0E945C1288169906E4
:1047B00079F5C818D908C301019646DFF701A48529
:1047C000B5858C91282F30E02F70029FF001039F58
:1047D000F00D1124EB5CF84F918D94FF05C0982FDC
:1047E000907611F480688C93D7011C96ED91FC9122
:1047F0001D97818181111FC0808186FF05C01082B5
:104800001D961C921E921C97CE018C199D091EC0EC
:10481000B5E01B9FF0011124EA50FA4F808191818D
:10482000880D991D918380838281938188199909CC
:104830009383828304C0C114D10409F09FCFCE01B9
:1048400005C08FEF9FEF02C080E090E0DF91CF9135
:104850001F910F91FF90EF90DF90CF90BF90AF909E
:104860009F908F907F906F900895FB014150510968
:10487000460F571FE417F50778F4208130E0322FF8
:1048800022276181260F311D820F931F8217930704
:1048900008F401963296EECFE417F50751F4208123
:1048A00030E0322F2227820F931F8217930708F4DC
:1048B0000196089544E150E067E275E080E090E001
:1048C000D4DF009721F098278927982708958FEF44
:1048D0009FEF0895DF92EF92FF920F931F93CF9374
:1048E000DF939091AB08892F827091FF11C02091C6
:1048F000A90830E049E155E060E070E08091AC0843
:104900000E94DE118091AB088D7F8093AB0819C0A7
:1049100020911505309116052115310519F0C901B1
:104920000E943B118093AC08882309F476C0209143
:1049300015053091160549E155E060E070E00E94F0
:10494000DE11E091AC088091FF06882309F45DC078
:1049500085E0E89FF0011124EA50FA4FC081D1812F
:104960002197028113810C0F1D1FCE010E94D810C8
:10497000D82E882321F060E0CE010E94C310BE0132
:1049800084E00E945110B80186E00E9451100AE0B4
:1049900010E040E86FE180E80E94101040E86FE10D
:1049A00080EA0E9410104AE06CE180EA0E94101038
:1049B00048E06FE180E80E94101084E6E82EF12CB8
:1049C0008CE10E949C108A7069F4E114F10461F09A
:1049D00081E0E81AF1086AE070E080E090E00E946F
:1049E000620FEECFEF2849F448E06FE180EA0E94C1
:1049F00010100150110969F608C0012B31F0DD20BB
:104A000021F06D2DCE010E94C3108091AC080E9450
:104A1000F00F1092AC0881E001C080E0DF91CF91EF
:104A20001F910F91FF90EF90DF900895CF92DF924A
:104A3000EF92FF920F931F93CF93DF938091FF0626
:104A4000882309F401C2D091AA08D11160C089E37A
:104A50000E949C109091FF06992309F456C0882368
:104A600009F453C060910007709101078B010A5F40
:104A70001F4F011528E0120710F00F5F174080E06C
:104A80000E94511060E08AE30E947C1090E09093B5
:104A900001078093000760E08AE30E947C10209168
:104AA000000730910107382B30930107209300074E
:104AB00060E08AE30E947C10C82F60E08AE30E94D5
:104AC0007C10F82E60E08AE30E947C10E82E40E41F
:104AD0006EE180E80E941010E7FE15C0809100078B
:104AE000909101078115984070F41093030700938B
:104AF00002078C2F90E09F290497909305078093DD
:104B00000407DFEF02C00E947512D093AA08C0917B
:104B1000AA08CC2309F41EC181E08093AB088C2F36
:104B20000E945C129093160580931505892B09F459
:104B300005C142E650E069E175E08C2F0E940C311E
:104B4000C0912505D0912605C830D10509F043C094
:104B50008091AA088093AC08809115059091160564
:104B60000E9790931605809315052091F2053091CC
:104B7000F305809133059091340582279327209186
:104B8000EA053091EB0582239323892BC1F4209110
:104B9000F4053091F5058091350590913605822711
:104BA00093272091EC053091ED0582239323892BE7
:104BB00031F46FE175E083E395E00E94B61381E084
:104BC00058D38091150590911605892B09F4B6C02C
:104BD0000E94C212B2C0C83046E0D40709F0AEC08D
:104BE00080911505909116051092160510921505E5
:104BF0008A9708F49CC080912D0590912E0581150F
:104C000051E0950729F08115924009F474C08FC0D6
:104C100020913F05309140058091F2059091F30578
:104C20002817390709F083C02091410530914205CA
:104C30008091F4059091F5052817390709F077C0A0
:104C40006FE275E085E395E00E94B61380E092E0A4
:104C500090932E0580932D0586E0EFE2F5E0A9E321
:104C6000B5E001900D928A95E1F786E0EFE0F8E07B
:104C7000AFE2B5E001900D928A95E1F786E0EFE0B2
:104C8000F8E0AFE1B5E001900D928A95E1F786E09A
:104C9000E9E3F5E0A9E1B5E001900D928A95E1F72D
:104CA00080913505909136059093400580933F059E
:104CB0008091370590913805909342058093410586
:104CC0008091F2059091F305909336058093350518
:104CD0008091F4059091F505909338058093370500
:104CE000D0932605C09325058AE290E0909316059F
:104CF000809315051CC020913F053091400580919F
:104D0000F2059091F3052817390789F420914105A0
:104D1000309142058091F4059091F50528173907E7
:104D200031F46FE275E085E395E00E94B61380915F
:104D3000150590911605892B09F0CCDD8091AA0804
:104D4000882341F08091AB0880FF04C00E94751257
:104D50001092AA080E949A0F6B017C01809115089D
:104D600090911608A0911708B0911808A701960114
:104D7000281B390B4A0B5B0BDA01C9018095909512
:104D8000A095B0958827B7FD83959927AA27BB27BB
:104D9000C82F05E317E01093E0050093DF05CC234F
:104DA00011F082E017C00115110509F1D8015C96D8
:104DB000ED91FC915D973097C1F085859685A7852B
:104DC000B089A7019601281B390B4A0B5B0B57FDD5
:104DD0000EC083E04ED28091150590911605892B67
:104DE00031F00E94C21276DD02C0F801E6CF025E09
:104DF0001F4F37E00D3A130771F6CC2329F1D70185
:104E0000C60186509F4FAF4FBF4F809315089093B8
:104E10001608A0931708B0931808C7E0D7E0D093FE
:104E2000D905C093D80585E024D2809115059091CD
:104E30001605892B21F089859A850E9444382B9686
:104E400047E0C333D40759F7DF91CF911F910F91FA
:104E5000FF90EF90DF90CF900895CF93DF93EC0118
:104E6000E5DDEC85FD85309739F0808186FF06C051
:104E700081E09181911103C080E001C081E0DF9168
:104E8000CF910895CF93DF93EC018C859D8500979A
:104E900079F0FC012081222359F00196ADDBEC85ED
:104EA000FD85908196FF02C0108202C090629083BF
:104EB0001D861C86DF91CF91B9CDCF92DF92EF9204
:104EC000FF920F931F93CF93DF93A091DF05B091D3
:104ED000E0055C96CD91DC915D975091DE052097C1
:104EE00049F556FF60C0E5E6F8E080E090E02081FB
:104EF00021111AC061E1689F9001699F300D112452
:104F0000E901CB59D74F806188832A59374F80E117
:104F1000F90111928A95E9F7209709F444C05D964A
:104F2000DC93CE935C9706C0019671968430910510
:104F3000F1F639C051FF07C0809115059091160513
:104F4000892B09F045C0888187FF0EC08F77888341
:104F50008091DE0582608093DE05E091DF05F091AF
:104F6000E005818D8F7E818F8091DE05982F907175
:104F7000D92E84FF70C0CE0106963EDB898188233E
:104F800009F46CC0E091DF05F091E0058481958122
:104F90009F838E83888180648883E091DF05F09110
:104FA000E005158E148EE12CF12CB70180911705C8
:104FB000909118054AD1F0921605E0921505DF91FF
:104FC000CF911F910F91FF90EF90DF90CF900895B8
:104FD0008881807609F0B7CF6E01FFEFCF1ADF0A24
:104FE000F12CF6018081811122C0209115053091AC
:104FF00016052115310519F0C9010E943B11F60172
:1050000080838823A1F00091150510911605209149
:10501000170530911805295135404091AA0860E0E4
:1050200070E00E948D12F4E0FF128DCF0CC0F3945B
:105030002FEFC21AD20A35E0F312D3CF8091AB081A
:105040008E7F8093AB08E091DF05F091E005818DC4
:105050008061818F78CF87FF03C08DCF18829DCF6D
:1050600080FF03C0CE010696EFDA8091DE058C70DA
:1050700009F443C0EE81EE2309F43FC08F81811112
:105080000FC0EB84FC84E114F10409F48ECF25E019
:10509000E29FF0011124EA50FA4FF382E28207C046
:1050A0008E2F0E945C127C01892B09F47ECF8091A7
:1050B000170590911805895195408093A908F7012B
:1050C000E80FF11DCF01EF2B19F00E943B11D82EF4
:1050D000D092AC08DD2009F468CF6091A90870E097
:1050E000870120E030E04E818D2D0E948D1280914D
:1050F000AB0882608093AB0858CF888185FF53CF7F
:105100008E8181110BC01882E091DF05F091E005DE
:10511000158E148E80E18093DE0545CFE091DF058A
:10512000F091E005818D8061818F3DCF8F929F92BC
:10513000AF92BF92CF92DF92EF92FF920F931F93A5
:10514000CF938C015B017A016A014C0187E0880EE4
:10515000911C6CDC0115110509F452C0F801808125
:10516000807609F04DC0F401C1E08191811102C047
:10517000C15004C0CF5FC530C1F7C4E0F801EC0FE7
:10518000F11D868181110DC080E092E00E943B11EB
:10519000F801EC0FF11D86838823D9F2F8011486FB
:1051A0001386A7014C195D094A0D5B1DF801638543
:1051B00074859601EC0FF11D86810E94DE11C81ADC
:1051C000D90AF80123853485820F931F948783873A
:1051D0001C141D042CF4C43009F4BBCFCF5FD4CF12
:1051E0000E949A0FDC01CB010A96A11DB11DF801A6
:1051F00085879687A787B08BC7018C199D0902C048
:1052000080E090E0CF911F910F91FF90EF90DF90A1
:10521000CF90BF90AF909F908F900895FC018485B0
:10522000958584CFCF93DF931F92CDB7DEB7698387
:1052300041E050E0BE016F5F7F4FFC0184859585A2
:1052400075DF0F90DF91CF9108959C01AB017093B2
:10525000E9056093E8051616170654F48091E605F3
:105260009091E7052817390719F0B9010C94CE6A17
:105270000895EF92FF921F93CF93DF93C091DF05C4
:10528000D091E005843009F4E9C12FE435E0309392
:105290001805209317053093E7052093E605833022
:1052A00059F4898D8F70833009F0DAC6888999891D
:1052B000892B09F0D5C67CC0823009F07DC0809171
:1052C000DD058F5F8093DD05811113C08091DC05C2
:1052D0008F5F8093DC0581110CC08091DB058F5FAF
:1052E0008093DB05811105C08091DA058F5F809383
:1052F000DA0510921605109215051092E905109224
:10530000E805898D982F9D7F953041F48A8D8F5FB8
:105310008A8F883709F0A4C6198EA2C6882309F49B
:105320009FC628893989232B09F43EC09A8D2FEF17
:10533000290F2A8F911194C69B8D983031F02FEF51
:10534000280F223040F4953031F4198E80E8809394
:10535000DE05B3DD3FC5953038F423E0092E01C0EA
:10536000220F0A94EAF701C020E32A8F9F5F9B8FE8
:105370008F708330A1F048F4813009F458C3823033
:1053800009F06EC61092480555C3863009F4BFC4B3
:10539000883009F4BCC4843009F062C6B8C484E023
:1053A0008093DE058ADD48C58F70833009F058C6CA
:1053B00088E08093DE0504C5853019F5E091D805B5
:1053C000F091D90584819581892B09F449C6109201
:1053D000E0051092DF0583E495E090931805809333
:1053E00017059093E7058093E6051092E905109262
:1053F000E805109216051092150588E08093DE05E9
:105400002BC180912705853409F02AC6C091290552
:10541000D0E0DC2FCC2780912A05C80FD11D8091C8
:105420001505909116058C179D0708F419C6D093A1
:105430001605C093150580912D058F7309F010C6D0
:1054400010912E0511110CC6E090F205F090F305B5
:10545000E114F10439F48091F4059091F505892B5C
:1054600009F442C08091300520913705309138050C
:10547000813151F52F3F4FEF340739F480913905D1
:1054800090913A05019609F470C08091EA059091D7
:10549000EB05809590958E299F2928173907A1F44F
:1054A0008091EC059091ED05809590954091F405E3
:1054B0005091F505842B952B4091390550913A0573
:1054C0004817590709F451C02E153F0509F0C8C502
:1054D0002091390530913A058091F4059091F505B8
:1054E0002817390709F0BCC5E5D9019609F0B8C5F8
:1054F00080913005863009F415C18131B1F18130D8
:1055000009F0AEC580913B05883009F0A9C510921D
:105510003B0580913D0590913E05873FCFEF9C076D
:1055200010F0099601C0089690933E0580933D05C2
:105530008091330590913405909338058093370519
:10554000809135059091360590933A058093390501
:10555000F0923405E09233058091F4059091F505C1
:1055600090933605809335057FC56C97D0931605CB
:10557000C093150583E495E0909318058093170573
:105580008091410590914205892B99F420913D0528
:1055900030913E0540913B0550913C0560913305AB
:1055A00070913405A0913505B0913605E7E0F7E03C
:1055B0000CC081E10E94D239019609F051C5E6CFB5
:1055C00084819581009731F43B9687E0E333F807B7
:1055D000B8F324C028173907B9F786819781009757
:1055E00019F04817590781F780819181009729F4B4
:1055F000C281D381CD2B49F416C08F3FCFEF9C07DA
:1056000021F4C281D381219671F068177907E1F600
:1056100082819381A817B907B9F605C0F093D9051F
:10562000E093D8051DC5F093D905E093D8051092F5
:10563000E0051092DF0582E08093DE0583E495E0CB
:1056400090931805809317059093E7058093E605DE
:105650001092E9051092E8050E948F388091E805C4
:105660009091E905009709F4FBC49C01245E3F4F2B
:1056700030931605209315053093290520932A05AC
:10568000E091D805F091D905208520932F0521E1DF
:1056900020933005089698278927982790934005EE
:1056A00080933F05109242051092410584819581B7
:1056B00090933C0580933B058681978190933E05AE
:1056C00080933D058091F2059091F3059093340508
:1056D000809333058091F4059091F50590933605FC
:1056E00080933505808191819093380580933705AB
:1056F0008281938190933A05809339058FE495E0F8
:10570000909318058093170581E10E94D239809506
:105710009095009711F48FEF9FEF9093420580933F
:1057200041057BC486E00E94D239019609F098C4F5
:1057300020913D0530913E0580913B0590913C05BF
:105740006091330570913405E0913505F09136058F
:10575000C5E3D7E0498D4423A9F0AC81BD812A1768
:105760003B0781F4AE81BF818A179B0759F4A8815A
:10577000B9816A177B0731F4AA81BB81EA17FB075D
:1057800009F46FC16E9647E0CD3AD40719F78091BE
:1057900048058F738230E1F43093E5052093E405EA
:1057A00080E0843099F0E82FF0E0EE0FFF1FE35522
:1057B000F84F408151818F5F2417350791F7109280
:1057C000B50780E0C0E0D0E09EE17CC08093B507E3
:1057D0008091480582FD44C484E18093480588E2B5
:1057E00090E0909316058093150580E5809347051A
:1057F00030914205809146058093420520914105F4
:105800008091450580934105209345059091400581
:1058100080914405809340059093440580913F0515
:105820008093B5074091430540933F05809343051E
:105830003F5F3093460531110DC02F5F2093450522
:10584000211108C09F5F90934405911103C08F5FA1
:105850008093430580913B0590913C059093E5052D
:105860008093E40520913D0530913E0530933C0541
:1058700020933B0590933E0580933D058091330531
:1058800090913405909338058093370580913505C4
:105890009091360590933A05809339058091F205F1
:1058A0009091F30590933405809333058091F4052E
:1058B0009091F505909336058093350592C3473056
:1058C00099F08F5F8430F1F0282F30E0929FF00143
:1058D000939FF00D1124EB5CF84F418D4111EFCFF8
:1058E0008093B507EF0110C0209721F0528D4A8DAB
:1058F000451738F7929FE001939FD00D1124CB5CA0
:10590000D84FDFCF8093B507209709F4A9C3D09370
:10591000E005C093DF0583E08A8F888F1E8A84E0CC
:105920008F8B1B8E80913D0590913E059D838C83CE
:1059300080913B0590913C059F838E838091330538
:10594000909134059983888380913505909136052F
:105950009B838A8381E0898F8091DA058C8780918F
:10596000DB058D878091DC058E878091DD058F8733
:1059700081E090E0998B888B809142058B878091A4
:1059800041058A8780914005898780913F058887F6
:1059900081E090E00E94276280914705982F907FD8
:1059A000913508F444C082958F7090E00597880F78
:1059B000991F880F991F2091E305E12FF0E0E81768
:1059C000F9078CF5E75EFA4F26A9211105C010935F
:1059D000B5071092E3052BC0213011F41F5FEDCF06
:1059E0002230E1F437A93430C9F41093B50720937D
:1059F000E30580AD90E0982F882721AD822B90930E
:105A0000E5058093E405813062E0960710F080E0C0
:105A100092E09B8B8A8B9D8B8C8B09C037A933239B
:105A200011F0130FCACF1093B5072093E30580E15F
:105A3000809348058091480582608093480582E004
:105A400080934F0594E090935005809351051092F8
:105A500052058CE290E0909316058093150580E640
:105A60006EC2D093E005C093DF051092DE05309141
:105A70004805132F147032FF03C0198E80E209C24B
:105A80002091470522952F70220F220F2093B507F2
:105A900080911505909116054497821B910990936A
:105AA0001605809315054F70423021F4232F2F7374
:105AB0002231C9F0892B19F4832F8370A1F09091C2
:105AC0003F058885981331C29091400589859813C8
:105AD0002CC2909141058A85981327C29091420566
