:10000000E8C4000017C5000015C5000013C50000B6
:1000100011C500000FC500000DC500000BC5000094
:1000200009C5000007C5000005C5000003C50000A4
:1000300001C50000FFC40000FDC40000FBC40000B7
:10004000F9C40000F7C40000F5C40000F3C40000C8
:10005000F1C40000EFC40000EDC400000C94073CA4
:10006000E9C400000C94B53A0C948C3AE3C4000047
:10007000E1C40000DFC40000DDC40000DBC40000F8
:10008000D9C40000D7C40000D5C40000D3C4000008
:10009000D1C40000CFC40000CDC400000C9491373F
:1000A000C9C40000C7C40000C5C40000C3C4000028
:1000B000C1C40000BFC40000BDC40000BBC4000038
:1000C000B9C40000B7C40000B5C40000B3C4000048
:1000D000B1C40000AFC40000ADC40000ABC4000058
:1000E000A9C4000033134A13CC13BD14DF14FA144F
:1000F0000615B1141A3B1D3B0C3B103B143B543B03
:10010000213B253B2B3B2F3B333B393B3D3B413B8D
:10011000543B473B4B3B4F3B00407A10F35A00A007
:10012000724E18090010A5D4E80000E876481700C0
:1001300000E40B54020000CA9A3B000000E1F50500
:10014000000080969800000040420F000000A0864A
:1001500001000000102700000000E803000000007C
:100160006400000000000A00000000000100000020
:1001700000002C76D888DC674F0823DFC1DFAE593A
:10018000E1B1B796E5E3E453C63AE651997696E8CD
:10019000E6C28426EB898C9B62ED407C6FFCEFBC51
:1001A0009C9F40F2BAA56FA5F490055A2AF75C937C
:1001B0006B6CF9676DC11BFCE0E40D47FEF520E6B2
:1001C000B500D0ED902E0300943577050080841E95
:1001D000080000204E0A000000C80C333333330FF0
:1001E000986E12831141EF8D2114893BE65516CF8D
:1001F000FEE6DB18D1844B381BF77C1D901DA4BB99
:10020000E424203284725E228100C9F124ECA1E54D
:100210003D274E6F20737570706F727420666F7219
:10022000206F766572203136206269742073697A96
:100230006564206D657373616765730001234567AD
:1002400089ABCDEFFEDCBA9876543210F0E1D2C320
:10025000486561646572206D69736D6174636800DF
:100260005365632D576562536F636B65742D4163EE
:10027000636570743A2000436F6E6E656374696FD6
:100280006E3A20557067726164650D0A005570679B
:10029000726164653A20776562736F636B65740D94
:1002A0000A00485454502F312E312031303120571C
:1002B000656220536F636B65742050726F746F6357
:1002C0006F6C2048616E647368616B650D0A005045
:1002D000617374206C6F6F7000416E616C797A6924
:1002E0006E672072657175657374206865616465F9
:1002F000727300576562736F636B65742065737406
:1003000061626C6973686564005465726D696E61E1
:1003100074696E6720736F636B65740044697363FF
:100320006F6E6E656374696E6720636C69656E7469
:1003300000436C69656E7420636F6E6E65637465EF
:100340006400E50110E70110E80148EC0109ED0146
:100350006C23016F240157250171E201181B01155F
:100360000101001C01031901017F051F018C1F0100
:10037000847F0A1F01947F0A1F01D47F05400D006E
:100380002B293E3D3F24740806070D17500D00022F
:100390000116143F0B5B08121819175D01FF1601B7
:1003A000082801207F282801387F2828013C0202E4
:1003B0000000040200EF060200000802018F800224
:1003C00000008202000017010500000000003E5BF3
:1003D0004F5B3E3E6B4F6B3E1C3E7C3E1C183C7E92
:1003E0003C181C577D571C1C5E7F5E1C00183C1877
:1003F00000FFE7C3E7FF0018241800FFE7DBE7FF73
:1004000030483A060E2629792926407F05050740FF
:100410007F05253F5A3CE73C5A7F3E1C1C08081CC0
:100420001C3E7F14227F22145F5F005F5F06097FFE
:10043000017F006689956A606060606094A2FFA297
:100440009408047E040810207E201008082A1C0846
:10045000081C2A08081E101010100C1E0C1E0C3050
:10046000383E3830060E3E0E060000000000000048
:100470005F00000007000700147F147F14242A7F08
:100480002A122313086462364956205000080703D5
:1004900000001C2241000041221C002A1C7F1C2A53
:1004A00008083E08080080703000080808080800A6
:1004B0000060600020100804023E5149453E0042A1
:1004C0007F400072494949462141494D3318141271
:1004D0007F1027454545393C4A4949314121110999
:1004E000073649494936464949291E00001400008B
:1004F00000403400000008142241141414141400A5
:100500004122140802015909063E415D594E7C12F0
:1005100011127C7F494949363E414141227F414188
:10052000413E7F494949417F090909013E41415105
:10053000737F0808087F00417F41002040413F0150
:100540007F081422417F404040407F021C027F7F91
:100550000408107F3E4141413E7F090909063E41A2
:1005600051215E7F09192946264949493203017FF5
:1005700001033F4040403F1F2040201F3F40384084
:100580003F631408146303047804036159494D431D
:10059000007F4141410204081020004141417F0495
:1005A000020102044040404040000307080020547C
:1005B0005478407F284444383844444428384444DC
:1005C000287F385454541800087E090218A4A49CAB
:1005D000787F0804047800447D40002040403D00BE
:1005E0007F1028440000417F40007C047804787C20
:1005F000080404783844444438FC18242418182487
:100600002418FC7C08040408485454542404043F6F
:1006100044243C4040207C1C2040201C3C40304076
:100620003C44281028444C9090907C4464544C44A2
:100630000008364100000077000000413608000243
:10064000010204023C2623263C1EA1A161123A406D
:1006500040207A38545455592155557941225454E3
:100660007842215554784020545579400C1E5272DE
:1006700012395555555939545454593955545458BB
:100680000000457C410002457D420001457C407DE3
:100690001211127DF0282528F07C54554500205475
:1006A000547C547C0A097F4932494949323A4444CE
:1006B000443A324A4848303A4141217A3A4240204D
:1006C00078009DA0A07D3D4242423D3D4040403DDE
:1006D0003C24FF2424487E4943662B2FFC2F2BFF0C
:1006E0000929F620C0887E0903205454794100006E
:1006F000447D413048484A32384040227A007A0AE4
:100700000A727D0D19317D2629292F2826292929AC
:100710002630484D402038080808080808080838DE
:100720002F10C8ACBA2F102834FA00007B00000844
:10073000142A142222142A14085500550055AA55CB
:10074000AA55AAFF55FF55FF000000FF001010102A
:10075000FF00141414FF001010FF00FF1010F01021
:10076000F0141414FC001414F700FF0000FF00FF45
:100770001414F404FC141417101F10101F101F146D
:1007800014141F00101010F0000000001F101010B3
:10079000101F10101010F010000000FF10101010AB
:1007A0001010101010FF10000000FF140000FF00D8
:1007B000FF00001F10170000FC04F414141710179A
:1007C0001414F404F40000FF00F7141414141414A7
:1007D00014F700F7141414171410101F101F14141A
:1007E00014F4141010F010F000001F101F0000008F
:1007F0001F14000000FC140000F010F01010FF1097
:10080000FF141414FF141010101F00000000F0104B
:10081000FFFFFFFFFFF0F0F0F0F0FFFFFF00000030
:100820000000FFFF0F0F0F0F0F3844443844FC4AFD
:100830004A4A347E02020606027E027E026355495F
:1008400041633844443C04407E201E2006027E0260
:100850000299A5E7A5991C2A492A1C4C7201724CE1
:10086000304A4D4D303048784830BC625A463D3EA3
:10087000494949007E0101017E2A2A2A2A2A444444
:100880005F444440514A444040444A51400000FFC4
:100890000103E080FF000008086B6B083612362465
:1008A00036060F090F06000018180000001010008F
:1008B0003040FF0101001F01011E00191D17120029
:1008C0003C3C3C3C000000000000002100240027CC
:1008D000002A002D00300033000101000004010750
:1008E000010A0100002200250028002B002E003103
:1008F00000340002010000050108010B0105050597
:1009000005070508080808020202020A0A08080486
:1009100004040401010101010101010303030303B4
:10092000030303040707070C0C0C0C0C0C0C0C0243
:1009300002020206060606060606060B0B0B0B0B4A
:100940000B0B0B0102102020080810204010204043
:100950008002010201080402010102040810204083
:1009600080804020100804020180040201804020A1
:1009700010080402010804020101020408102040CA
:1009800080010204081020408000000A0B02090CBC
:100990000D0E080703040100000000000000000025
:1009A0000000000000000000000000000000000047
:1009B0000000000000121110000000000000000004
:1009C0000000000000000000000000000000000027
:1009D000435D11241FBECFEFD1E2DEBFCDBF00E0EB
:1009E0000CBF15E0A0E0B2E0EAEEFBEC00E00BBFCC
:1009F00002C007900D92A430B107D9F72BE0A4E014
:100A0000B5E001C01D92A131B207E1F714E0C9EED3
:100A1000D4E000E006C021970109802FFE010E946A
:100A20009663C83ED10780E00807A9F70E94E24616
:100A30000C94F365E5CAEF92FF920F931F93DC01CC
:100A4000ED91FC9111971A960D911C911B97189698
:100A50002D913C9119970288F389E02D7B0140E0AC
:100A600050E060E070E019951F910F91FF90EF90BA
:100A700008952F923F924F925F926F927F928F9242
:100A80009F92AF92BF92CF92DF92EF92FF920F931D
:100A90001F93CF93DF93CDB7DEB7AF970FB6F89420
:100AA000DEBF0FBECDBF4C017FA76EA7B42ED22EE6
:100AB0001701280160E070E0BEDF82E0F401848B62
:100AC0008FEF9FEF938B828B918B808B2A968FADCC
:100AD0002A97811103C080E090EF02C080EC9FEC68
:100AE0007C0103E210E02BE430E046E450E068ECE7
:100AF00070E0C4010E9444272B968FAD2B97811183
:100B000003C080E090EF02C080EC9FEC7C0103E228
:100B100010E02BE430E041E950E068EC70E0C40103
:100B20000E94442701ED10E0F4011587048770E569
:100B3000672E712C7786668660E673E0C4010E949A
:100B4000E430F401158704878BE990E09787868766
:100B500060E673E0C4010E94E430B11018C0E12CDB
:100B600060EFF62E03E210E020E530E046E450E0CE
:100B700064E670E0C4010E94442788E790E0F40135
:100B8000958784877786668666E473E037C0F1E0F0
:100B9000BF1219C05CE1E52E55E9F52E03E210E025
:100BA00020E530E046E450E064E670E0C4010E94D5
:100BB00044278EE690E0F4019587848777866686E1
:100BC00066E673E01BC0F2E0BF121BC040ECE42EEF
:100BD0004FECF42E03E210E020E530E046E450E074
:100BE00064E670E0C4010E9444278DE790E0F401C0
:100BF00095878487778666866CE673E0C4010E94D9
:100C0000E430D1101AC0E12C30EFF32E03E210E0F3
:100C100020E530E041E950E064E670E0C4010E9464
:100C2000442788E790E0F401958784878BE990E07A
:100C30009787868766E473E03BC0F1E0DF121BC054
:100C40002CE1E22E25E9F22E03E210E020E530E06F
:100C500041E950E064E670E0C4010E9444278EE65A
:100C600090E0F401958784878BE990E097878687E9
:100C700066E673E01DC0F2E0DF121DC090ECE92EC5
:100C80009FECF92E03E210E020E530E041E950E06E
:100C900064E670E0C4010E9444278DE790E0F4010F
:100CA000958784878BE990E0978786876CE673E069
:100CB000C4010E94E430F4011586148680E590E0BA
:100CC000978786876FE974E0C4010E94E430F401DD
:100CD000158614868BE990E09787868768EA74E02A
:100CE000C4010E94E430F4011586148603E010E08C
:100CF000178706878FEF9FEF918B808B138A128A5D
:100D00006FEA74E0C4010E94FF3080EA90E0F401D1
:100D100095878487178706871BA21AA21DA21CA28B
:100D20001FA21EA28E010F5F1F4F22E044E0C201EE
:100D3000B1010E94125EBC01CE0182960E948B2FEF
:100D4000BE016E5D7F4FC4010E940131CE018296CB
:100D50000E94EE2FF4011586148604E110E0178737
:100D600006876EEB74E0C4010E94E43087ED90E0EA
:100D7000F4019587848717870687C11003C066E44E
:100D800073E002C062E473E0CE0101960E941E305F
:100D9000BE016F5F7F4FC4010E940131CE010196F9
:100DA0000E94EE2F61ED74E0C4010E94FF3088E6DE
:100DB00091E0F4019587848784E190E097878687A6
:100DC000A11003C066E473E002C062E473E0CE01E8
:100DD00001960E941E30BE016F5F7F4FC4010E94CA
:100DE0000131CE0101960E94EE2F2AE530E04AE55E
:100DF00050E066E470E0C4010E94B84425EA30E0A7
:100E000045EA50E069EB70E0C4010E94B844EE246A
:100E1000EA94FE2C0EE110E024E630E04DEC50E0C8
:100E200062E271E0C4010E944427F401138A128A2D
:100E3000118A108A86E391E09587848785ED90E09A
:100E40009787868766E673E0C4010E94E4308FEFDF
:100E50009FEFF401938B828B918B808B83E0848B4B
:100E600087E291E09587848783E790E0978786877C
:100E700029964CAD5DAD6EAD7FAD2997C4010E9442
:100E8000E4438EE190E0F4019587848782ED90E061
:100E9000978786878EA59FA56CE370E00E94836389
:100EA0006B018C014AE0BC01CE0188960E94F32FB1
:100EB0000A3011051CF00CEE14E002C00AE413E045
:100EC0004AE0B601CE0182960E94F32FFAE0CF16D7
:100ED000D1041CF06CEE74E002C06AE473E0CE0151
:100EE00001960E941E30BE016E5D7F4FCE010196BD
:100EF0000E947A2F65E573E00E94632FB8010E947B
:100F0000632FBE01685D7F4F0E947A2FBC01C40130
:100F10000E940F31CE0101960E94EE2FCE018296E3
:100F20000E94EE2FCE0188960E94EE2FAF960FB64C
:100F3000F894DEBF0FBECDBFDF91CF911F910F910F
:100F4000FF90EF90DF90CF90BF90AF909F908F90E9
:100F50007F906F905F904F903F902F900895FC018D
:100F6000128260E080810C94EB3A2F923F924F9274
:100F70005F926F927F928F929F92AF92BF92CF9229
:100F8000DF92EF92FF920F931F93CF93DF93CDB732
:100F9000DEB72A970FB6F894DEBF0FBECDBF109212
:100FA000AB091092AC091092AD091092AE091092E3
:100FB000690910926A0910926B0910926C0968EB2A
:100FC0007BE080E090E00E94F42E8AEC98E0909321
:100FD000AA098093A9090E94BC430E94FB3B60932D
:100FE000690970936A0980936B0990936C096BEDA2
:100FF00074E08091A9099091AA090E94FF306AE0EB
:1010000070E080E090E00E94F42E11E010937D09E2
:101010000E94BC4386EF90E00E94B9634C018EE1D0
:10102000D4018C9311968C93119785E012968C9332
:10103000129714961C921E92139716961C921E924B
:10104000159781E090E018969C938E9317971996C8
:101050001C9219971A961C921A971B961C921B9712
:101060001C961C921C9783E01D968C93F4011686A7
:101070001786108A118A8FE090E0938B828B148AF6
:10108000158A168B178A108E118E8DE290E091A72B
:1010900080A761E00E94683B60E08DE20E94EB3A2D
:1010A0008EE290E0D4019D969C938E939C9761E094
:1010B0000E94683B60E08EE20E94EB3A3401B0E3AC
:1010C0006B0E711C88E490E0F40191AB80AB109240
:1010D00079081092780810923508109257081092EB
:1010E00033081093320810920D0861E084E10E94E9
:1010F000EB3A61E085E10E94EB3A8091B9008E7F86
:101100008093B9008091B9008D7F8093B90088E405
:101110008093B80085E48093BC0061E0C3010E9425
:10112000A72C80E490E00E94B9637C01DC01139657
:101130001C921E92129720EF30E015963C932E934E
:10114000149780E491E017969C938E9316971996C6
:101150003C932E9318971B969C938E931A975596B3
:101160001C9255971D961C921E921C971F961C92BE
:101170001E921E9754961C9354978FEF9FEF539691
:101180009C938E93529751969C938E93509756961C
:101190001C93569757961C92579782E592E01196AA
:1011A0009C938E9387E3D4968C93D49788E3D696BA
:1011B0008C93D69787E0D5968C93D59786E0D79673
:1011C0008C93D7978CE291E0D9969C938E93D89785
:1011D0008AE090E0D3969C938E93D297DF961C92F0
:1011E0001E92DE9710930E0580910101886780930F
:1011F000010184B1806B84B99D9A809A819A829A08
:10120000839A819A8B9A889A899A899A62E370E084
:1012100080E090E00E94C33B899864E670E080E043
:1012200090E00E94C33B899A64E670E080E090E021
:101230000E94C33B60E070E080EB90E00E94763457
:10124000F701118E108E85E690E0958F848F83E1F3
:1012500095E1938F828F1093DC0567E870E082E45C
:1012600093E00E94B52580E991E0D70117969C9301
:101270008E9316975B962C915B97822F82958F7039
:1012800090E0817099275F969C938E935E97ED9185
:10129000FC91008CF18DE02D60E0C7011995D7011C
:1012A000ED91FC910688F789E02D60E0C701199562
:1012B000F701848D958D8838944909F01AC21092EF
:1012C000DB05D701ED91FC910084F185E02D20EE46
:1012D0003FEF40E050E060E070E0C7011995F70192
:1012E000C0A4D1A48091DC05811106C0828D80FF4D
:1012F00003C05EE2C52ED12C00E010E020E030E01B
:1013000040E050E060E070E0C7010E947A26D7011B
:101310005A968C915A9780FD0FC060E070E09496C9
:101320008D919C9195970E94763460E070E0F70172
:1013300086A197A10E9476348B988A9830910201F9
:101340008D2D9927BC01607C7727E3E07595679523
:10135000EA95E1F7AC0143705527F5E0440F551FBE
:10136000FA95E1F7262F242B3778232B20930201BF
:1013700045B19C012C723327220F331F220F331FDC
:10138000342F3F74232B25B924B380719927880FFC
:10139000991F922F9F7D892B84BB8998899A909160
:1013A0000201A601407C552713E0559547951A95F3
:1013B000E1F796012370332705E0220F331F0A95CA
:1013C000E1F7842F822B9778892B8093020125B136
:1013D000C6018C729927880F991F880F991F922F29
:1013E0009F74892B85B984B3F0E1CF22DD24CC0C26
:1013F000DD1C8F7DC82AC4BA8998899A8A9A8091FF
:10140000010187788093010184B18F7484B99D981C
:10141000D7015A968C915A9786FD1FC080FD12C045
:101420005C968D919C915D978938924159F0889A8C
:101430008898889888988091000183B182B38091C0
:101440000001889A889A88988898889880910001E5
:1014500083B182B380910001889AF701848D958DC4
:101460008131954159F4889A889888988898809114
:10147000000183B182B380910001889AD7015A9606
:101480008C9184FF7CC0889A88988898889840912D
:10149000000183B192B350910001807B86958695BF
:1014A000487168E0469F90011124382F322B9072CA
:1014B000892F90E095958795832B352F307632953F
:1014C00036953770382B889A889A889888988898A3
:1014D0002091000143B192B380910001842F807B61
:1014E000C82EC694C694287188E0289FA0011124B4
:1014F000C42A9072892F90E0959587957C2D782B42
:10150000889A889A8898889888985091000143B161
:1015100022B360910001407B842F86958695587197
:1015200098E0599FA0011124482B2072822F90E04F
:1015300095958795842B962F907692959695977092
:10154000982B889AD7015A962C91872F8C7F22FF4F
:101550000BC0987FB8E08B9F60011124D92A369583
:1015600036953695C32A73C0387FE8E08E9F6001B8
:101570001124D32A969596959695C92A68C0889A7B
:101580008898889888983091000123B192B3E091AF
:101590000001889A889A8898889888988091000194
:1015A000A3B162B340910001A07BCA2ED12CD60119
:1015B000B595A795B595A7958871F8E08F9F6001BF
:1015C0001124CA2ADB2A562F5072652F70E07595B8
:1015D0006795C62AD72A407650E0B5E055954795DD
:1015E000BA95E1F7C42AD52A889A207B822F86955E
:1015F0008695387148E0349F90011124282B907211
:10160000892F90E095958795822BE076E295E69577
:10161000E7708E2BD82AD7015A968C9183FF03C08E
:10162000DC24CD24DC2482FF12C09601232F332733
:10163000269526952695C601807E9770822B932B42
:10164000DC2CCC24DD0CDD0CDD0CC82AD92A8091E1
:10165000DB05882399F09601207CC60188279470C9
:1016600045E0969587954A95E1F7BFE3CB22DD24C7
:10167000D694C794C82AD92AC22AD32A889A8B9A80
:101680008091010188678093010184B1806B84B9E6
:101690009D9AF701828D80FD10C0F70102851385A8
:1016A00001501109208531852150310940E050E079
:1016B00060E070E0C7010E947A26FFE1CF16FFEFDD
:1016C000DF06B9F486E08983AE014F5F5F4F61E0CA
:1016D0008AE390E00E94B224D7015A968D919C91A2
:1016E0005B978F7E5B969C938E935A9781E0809355
:1016F000DB0563E0C7010E94BD2860E070E0C70120
:101700009AD9F401F3AAE2AAA4014C5C5F4F58876E
:101710004F8384E1DA011D928A95E9F715AA14AA8C
:1017200016AA17AA64EA71E071AF60AF4CE152E00B
:1017300053AF42AF20EB34E035AF24AF88E295E001
:1017400097AF86AFE05CFF4F718360833296518321
:101750004083329631832083329691838083740153
:10176000B8E4EB0EF11CF7011382128280E792E0DD
:101770009183808380E090E5958384836401FEE417
:10178000CF0ED11C8AE393E0D60111969C938E93E1
:1017900080EC12968C93129788EA13968C93139789
:1017A00081E014968C93149788EC15968C9315977A
:1017B00086E0E8E4F2E0169601900D928A95E1F752
:1017C00087010E5E1F4F5401B6EFAB0EB11C88EEC1
:1017D000282E83E0382E412C512C22EA32E0F801E9
:1017E000138212822482358246825782318320837B
:1017F000158614866CEE74E0C80146962A873987F0
:101800000E941E306CEE74E0C8014C960E941E309F
:10181000095D1F4F2A8539850A151B0501F78AE3E3
:1018200093E09A838983F60182819381A481B581B3
:101830008B839C83AD83BE83BE016F5F7F4FC701E7
:101840000C960E94EB2C6DEE74E08AEC98E00E94FE
:10185000FF303091E5052091E6059091E7058091F4
:10186000E805F401E05BFF4F3083D401AF5ABF4F6E
:101870002C9311969C9311968C938F016401F4E53F
:10188000CF0ED11CD8014D918D0150E060E070E089
:101890002AE08AEC98E00E949B3065EF74E08AECC5
:1018A00098E00E94FF300C151D0561F76AEE74E0A8
:1018B0008AEC98E00E94CD46C7010E94FD1CC3013E
:1018C0000E94AF3FF40164A375A386A397A384018C
:1018D000045D1F4FC80143DBC401889640DBC8018B
:1018E0003EDBD40158960C91589757961C91579708
:1018F00052966D917C915397072E000C880B990B93
:101900000E941D61F62EE72ED82EB92EF401A6A452
:10191000C2A4C110CA2CC3010E94AF3F2B013C01DD
:10192000D4011C962C911C971B964C918F81988505
:101930002A8749870E94253F0F931F93BF92DF920A
:10194000EF92FF92830172012A854985BC01F4015F
:1019500082A993A98ED890920505809204050F90D4
:101960000F900F900F900F900F902A960FB6F8944B
:10197000DEBF0FBECDBFDF91CF911F910F91FF90C2
:10198000EF90DF90CF90BF90AF909F908F907F901F
:101990006F905F904F903F902F9008958823A1F013
:1019A0009091F206992381F08F3F29F48091F706F8
:1019B0009091F806089595E0899FF0011124E75170
:1019C000FA4F82819381089580E090E008956091BC
:1019D000F3067091F4066115710549F061507109C3
:1019E000611588E0780728F060E070E002C06FEFD2
:1019F00077E060FF02C0615071098CE00C94B23C4A
:101A000080913E0590913F058F3F2FEF920759F44B
:101A100020914005309141052F3F3F4F21F486E052
:101A2000EAE7F2E05AC02091E5053091E605282763
:101A300039274091DD055091DE0524233523232BE2
:101A400091F460914005709141052091E705309136
:101A5000E805262737274091DF055091E00524232C
:101A60003523232B89F08091E1059091E205909335
:101A7000900580938F058091E3059091E405909304
:101A800092058093910508C09093900580938F05EF
:101A9000709392056093910520918F053091900588
:101AA000409191055091920580E09BE001C08F5FCD
:101AB000883071F1989FF0011124E755F84F60814B
:101AC00071812617370799F7628173814617570787
:101AD00071F780930108349686E0A0E2B5E00190AA
:101AE0000D928A95E1F786E0E2E0F8E0A6E2B5E043
:101AF00001900D928A95E1F788E090E090932D0592
:101B000080932C0580911C0590911D050E9667C051
:101B10008093010846E050E06FEF70E080E295E0CE
:101B20000E94D76586E0E0E4F5E0DF01282F1D92F2
:101B30002A95E9F7E2E0F8E0A6E2B5E0982F0190F7
:101B40000D929A95E1F7E2E0F8E0A6E3B5E0982F70
:101B500001900D929A95E1F720918F0530919005B3
:101B600030934705209346052091910530919205C9
:101B700030934905209348052091E5053091E6050D
:101B800030933D0520933C052091E7053091E80511
:101B900030933F0520933E0520E031E0309335053A
:101BA0002093340530932F0520932E0528E030E054
:101BB00030933105209330058093320584E0809383
:101BC000330588E096E090932D0580932C0586E5FB
:101BD00095E090931F0580931E058AE290E0909314
:101BE0001D0580931C050895EF92FF920F931F939C
:101BF000CF93DF939C01FB011092010890E08BE0F2
:101C0000983031F1899F70011124E701C755D84FF1
:101C10006881798161157105C9F04A815B8141153F
:101C20005105A1F0D9010D911C91119706171707C5
:101C300069F412966D917C9113976417750731F4CE
:101C400090930108D701A355B84F2AC09F5FD8CF02
:101C500090E08BE0983091F0899FE0011124C75506
:101C6000D84F48815981452B39F44A815B81452BF6
:101C700019F4909301080AC09F5FECCF10928E0573
:101C800010928D0510920108C9EAD7E0D9014D9153
:101C90005D916D917C91DE014D935D936D937D938C
:101CA00086E001900D928A95E1F71A86DF91CF9137
:101CB0001F910F91FF90EF9008959C01AB017093DD
:101CC0008C0560938B051616170654F480918905D0
:101CD00090918A052817390719F0B9010C94CE653F
:101CE0000895BF92CF92DF92EF92FF920F931F93CE
:101CF000CF93DF93C0911A05D0911B05843009F46E
:101D0000E8C126E535E030931F0520931E0530938A
:101D10008A0520938905833059F4898D8F7083302B
:101D200009F00DC788899989892B09F008C77EC0F9
:101D3000823009F07FC0809118058F5F809318056D
:101D4000811113C0809117058F5F80931705811152
:101D50000CC0809116058F5F80931605811105C018
:101D6000809115058F5F8093150510921D051092C7
:101D70001C0510928C0510928B05898D982F9D7FE4
:101D8000953041F48A8D8F5F8A8F883709F0D7C6E6
:101D9000198ED5C6882309F4D2C628893989232B00
:101DA00009F440C09A8D2FEF290F2A8F9111C7C6D1
:101DB0009B8D983031F02FEF280F223048F495306A
:101DC00039F4198E80E8809319050E94E51F6DC5CE
:101DD000953038F423E0092E01C0220F0A94EAF767
:101DE00001C020E32A8F9F5F9B8F8F708330A1F00B
:101DF00048F4813009F458C3823009F0A0C610922B
:101E00004F0555C3863009F45FC5883009F45CC5B9
:101E1000843009F094C658C584E0809319050E9467
:101E2000E51F78C58F70833009F089C688E08093FC
:101E3000190530C5853019F5E0911305F0911405A9
:101E400084819581892B09F47AC610921B05109222
:101E50001A058AE495E090931F0580931E059093E0
:101E60008A058093890510928C0510928B0510923B
:101E70001D0510921C0588E08093190529C18091E9
:101E80002E05853409F05BC6E0903005F12CFE2C60
:101E9000EE2480913105E80EF11C80911C05909193
:101EA0001D058E159F0508F44AC6F0921D05E092A7
:101EB0001C05809134058F7309F041C6D09035051B
:101EC000D1103DC6C091E505D091E605209739F4C3
:101ED0008091E7059091E805892B09F442C0809133
:101EE000370520913E0530913F05813151F52F3F57
:101EF0001FEF310739F4809140059091410501961B
:101F000009F471C08091DD059091DE058095909572
:101F10008C2B9D2B28173907A1F48091DF05909118
:101F2000E005809590954091E7055091E805842B58
:101F3000952B40914005509141054817590709F4E8
:101F400052C02C173D0709F0FAC520914005309189
:101F500041058091E7059091E8052817390709F0B8
:101F6000EEC50E94CC19019609F0E9C580913705AC
:101F7000863009F412C18131B1F1813009F0DFC539
:101F800080914205883009F0DAC5109242058091AF
:101F9000440590914505873FBFEF9B0710F00996D8
:101FA00001C00896909345058093440580913A05B9
:101FB00090913B0590933F0580933E0580913C05B1
:101FC00090913D059093410580934005D0933B054A
:101FD000C0933A058091E7059091E80590933D05FF
:101FE00080933C05B0C5CCE1EC1AF108F0921D05D8
:101FF000E0921C058AE495E090931F0580931E05EE
:102000008091480590914905892B99F420914405C8
:1020100030914505409142055091430560913A0544
:1020200070913B05A0913C05B0913D05EAEFF6E0CB
:102030000CC081E10E944219019609F080C5E6CFEB
:1020400084819581009731F43B9687E0E632F8076A
:10205000B8F324C028173907B9F78681978100970C
:1020600019F04817590781F780819181009729F469
:10207000C281D381CD2B49F416C08F3F1FEF91074A
:1020800021F4C281D381219671F068177907E1F6B6
:1020900082819381A817B907B9F605C0F09314059A
:1020A000E09313054CC5F0931405E09313051092CB
:1020B0001B0510921A0582E0809319058AE495E0C9
:1020C00090938A058093890510928C0510928B0558
:1020D000F4D780918B0590918C05009709F42FC55A
:1020E0009C01245E3F4F30931D0520931C053093C7
:1020F000300520933105E0911305F09114052085FA
:102100002093360521E120933705089698278927E3
:1021100098279093470580934605109249051092A1
:10212000480584819581909343058093420586817B
:10213000978190934505809344058091E5059091A2
:10214000E60590933B0580933A058091E7059091D1
:10215000E80590933D0580933C05808191819093A3
:102160003F0580933E058281938190934105809342
:10217000400586E595E090931F0580931E0581E15B
:102180000E94421980959095009711F48FEF9FEF70
:102190009093490580934805B0C486E00E94421997
:1021A000019609F0CCC440914405509145058091B9
:1021B00042059091430560913A0570913B05E0918D
:1021C0003C05F0913D0508E217E0E801298D222346
:1021D000A9F0AC81BD814A175B0781F4AE81BF8154
:1021E0008A179B0759F4A881B9816A177B0731F4D4
:1021F000AA81BB81EA17FB0709F470C1025E1F4F79
:10220000D7E0003A1D0709F780914F058F738230A0
:10221000E1F4509388054093870580E0843099F07D
:10222000E82FF0E0EE0FFF1FE056F84F20813181DC
:102230008F5F4217530791F71092A80780E0C0E024
:10224000D0E09EE17CC08093A80780914F0582FD7D
:1022500076C484E180934F0588E290E090931D0559
:1022600080931C0580E580934E053091490580914F
:102270004D05809349052091480580914C05809338
:10228000480520934C059091470580914B0580931C
:10229000470590934B05809146058093A807409190
:1022A0004A054093460580934A053F5F30934D05AC
:1022B00031110DC02F5F20934C05211108C09F5F85
:1022C00090934B05911103C08F5F80934A058091D5
:1022D000420590914305909388058093870520914E
:1022E0004405309145053093430520934205909372
:1022F00045058093440580913A0590913B05909364
:102300003F0580933E0580913C0590913D0590935B
:102310004105809340058091E5059091E6059093F5
:102320003B0580933A058091E7059091E8059093ED
:102330003D0580933C05C6C3473099F08F5F8430DC
:10234000F1F0282F30E0929FF001939FF00D1124BF
:10235000E85DF84F418D4111EFCF8093A807EF0161
:1023600010C0209721F0528D4A8D451738F7929F63
:10237000E001939FD00D1124C85DD84FDFCF80932B
:10238000A807209709F4DBC3D0931B05C0931A0557
:1023900083E08A8F888F1E8A84E08F8B1B8E8091CA
:1023A0004405909145059D838C83809142059091D1
:1023B00043059F838E8380913A0590913B059983D5
:1023C000888380913C0590913D059B838A8381E0C1
:1023D000898F809115058C87809116058D87809156
:1023E00017058E87809118058F8781E090E0998B83
:1023F000888B809149058B87809148058A878091D9
:102400004705898780914605888781E090E00E9492
:10241000F65C80914E05982F907F913508F444C06A
:1024200082958F7090E00597880F991F880F991FEC
:1024300020918605ED2DF0E0E817F9078CF5E05EB8
:10244000FA4F26A9211105C0D092A807109286053F
:102450002BC0213011F4D394EDCF2230E1F437A911
:102460003430C9F4D092A8072093860580AD90E05F
:10247000982F882721AD822B90938805809387051C
:102480008130E2E09E0710F080E092E09B8B8A8B27
:102490009D8B8C8B09C037A9332311F0D30ECACF83
:1024A000D092A8072093860580E180934F05809104
:1024B0004F05826080934F0582E08093560594E03B
:1024C0009093570580935805109259058CE290E03F
:1024D00090931D0580931C0580E6A2C2E80110932D
:1024E0001B0500931A051092190590914F05F92FBD
:1024F000F470BF2E92FF03C0198E80E239C2809122
:102500004E0582958F70880F880F8093A80767010A
:10251000C81AD108760144E1E41AF108F0921D05C9
:10252000E0921C052F70223021F4892F8F738231A5
:1025300011F1E114F10419F4892F8370E1F0209175
:102540004605D80118968C91189728135FC22091E0
:10255000470519968C911997281358C22091480560
:102560001A968C911A97281351C2209149051B96EF
:102570008C9128134BC294FF63C0F8016089718964
:102580006115710509F45CC0C8010C960E940D5DCF
:1025900030914A0580910F05381352C020914B05A8
:1025A0008091100528134CC090914C058091110525
:1025B000981346C080914D0540911205841340C088
:1025C000D8011C963C931C971D962C931D971E9624
:1025D0009C931E971F968C931F975B968C915B978D
:1025E000811126C056969C91569758968C91589773
:1025F0005A962C915A97821B292F26952695269517
:10260000821B980F56969C93569787FD81955796F7
:102610002C915797322F36953695231B820F57965C
:102620008C935797969596959695890F58968C9377
:1026300081E080931905F801808D828F118A108ABC
:10264000D80159962C91E22FEF708E2F90E0FC016B
:102650003197E830F10508F072C28827EE58FF4F35
:102660008F4F0C9496638091190580FF68C283E0B8
:10267000F801818F80E480931905118A108AE11492
:10268000F10409F403C182E480931905C7010E9493
:10269000F65CFCC08091190580FF76C080914F05E3
:1026A0008F73823109F070C080914E05982F907F12
:1026B000913508F449C082958F7090E00597880F96
:1026C000991F880F991F20918605EB2DF0E0E817E0
:1026D000F907B4F5E05EFA4F26A9211105C0B092C2
:1026E000A8071092860530C0213011F4B394EDCFC5
:1026F000223009F537A93430F1F4B092A8072093BD
:10270000860580AD90E0982F882721AD822B90938D
:102710008805809387058130F2E09F0710F080E004
:1027200092E0D80153969C938E93529755969C9322
:102730008E93549709C037A9332311F0B30EC5CF38
:10274000B092A8072093860583E0F801818F8091DD
:10275000460580878091470581878091480582875B
:1027600080914905838781E090E00E94F65C82E4D5
:1027700080931905D80151961C921E925097109281
:102780001D0510921C0582C080E2809319050E94ED
:10279000E51FE801198E59CD80914F0580FF27C0B4
:1027A00024FD25C0F80180899189892B09F0C7C1D2
:1027B000C60143970E94F65C80911905982F90619D
:1027C00090931905EF2819F08261809319050E94F2
:1027D000E51F81E090E0D80151969C938E9350972D
:1027E00088E059968C9359975B961C926DC085FF33
:1027F00015C08091540590E0982F88273091550599
:10280000832BAC014A5A5A4F50931F0540931E0523
:10281000E81AF90AF0921D05E0921C0540911C058A
:1028200050911D054115510551F024FD08C09091AE
:102830001905926090931905CA010E94F65C809177
:10284000500590E0982F882720915105820F911D07
:102850009093880580938705F80124893589281786
:10286000390710F0892B21F43093880520938705D0
:102870008091870590918805D80153969C938E93FB
:10288000529780911905837009F459C110928C05F3
:1028900010928B050E94E51F8091190585FF07C0E6
:1028A00010928C0510928B05198E84E1B0C084FFC4
:1028B0000DC010928C0510928B0581E090E0998BF1
:1028C000888B84E0898F1B8E81E1A1C020918B05CC
:1028D00030918C0521153105E1F080FF02C0198A85
:1028E000188A88899989009781F48A899B89821737
:1028F000930720F490938C0580938B0580918B0532
:1029000090918C05998B888B04C090938C05809353
:102910008B051B8E8091890590918A0590931F05E8
:1029200080931E0580918B0590918C05892B59F021
:1029300088899989009739F0889690931D0580932E
:102940001C0588E10BC08091190581FFF8C088E261
:1029500090E090931D0580931C0580E180934F05C6
:102960005EC08091190580FFEAC0E801198E80E100
:10297000809319050E94E51FE2C0E114F10419F0EB
:10298000C7010E94F65C90914F058091190590FF58
:102990000EC080FF07C087E0F801818F128E118A78
:1029A000108A1BC086E0D80159968C9316C080FF10
:1029B0001EC085E0E801898F198A188AC0C0E11419
:1029C000F10419F0C7010E94F65C80914F0580FF69
:1029D0000EC087E0F801818F128E81E090E00E94A6
:1029E000F65C80E1809319050E94E51F0FC0EF2877
:1029F00069F4A5C08091190580FFA1C087E0D801C6
:102A000059968C9359975A961C9299C080E180935D
:102A10004F0588E290E090931D0580931C0580E5AA
:102A200080934E05888580934A05898580934B0560
:102A30008A8580934C058B8580934D058C8580938A
:102A400046058D85809347058E85809348058F8543
:102A50008093490586E0809337058C819D81909312
:102A60004305809342058E819F8190934505809315
:102A700044058091E5059091E60590933B05809390
:102A80003A058091E7059091E80590933D05809384
:102A90003C058881998190933F0580933E058A810A
:102AA0009B819093410580934005898D84FF05C0EB
:102AB000109251051092500505C082E08093500598
:102AC0001092510580E48093360580911C05909109
:102AD0001D05909330058093310510925505109295
:102AE0005405109253051092520586E0CBD3809581
:102AF0009095909353058093520585E480932E051D
:102B000010922F051092350510923405809184059E
:102B10009091850501969093850580938405909307
:102B2000320580933305109239051092380534D45C
:102B300080959095909339058093380504C0109244
:102B40001D0510921C0510921905DF91CF911F9160
:102B50000F91FF90EF90DF90CF90BF9008950F936B
:102B60001F93CF93DF93DC01209126073091270735
:102B70002F5F3F4F21158DE7380710F020E030E13F
:102B8000522F432FEAEFF6E080E0843041F0C48119
:102B9000D5818F5F3B96C417D507B9F7E9CF30933E
:102BA00027072093260790E08BE09430D1F0292F5F
:102BB00030E041E0490F829FF001839FF00D112426
:102BC000E650F94FEF01249604811581012B39F469
:102BD0009093A807309741F480E090E02EC0942FA6
:102BE000E4CF9093A807F8CF80912607909127070C
:102BF00098278927982799838883778366831097F6
:102C000029F410821182128213820BC08D919C9143
:102C100011979183808312968D919C911397938342
:102C200082838BE0829FD001839FB00D1124A65038
:102C3000B94F80E418968C93CF01DF91CF911F910B
:102C40000F910895DC011C96ED91FC911D97309732
:102C500031F086819781982789279827089580E009
:102C600090E00895CF93DF93FC01EB01AC85BD8527
:102C7000109791F012969C91129713968C9113973E
:102C80003C9111962C914AE353E051834083328367
:102C900023839483858308C08AE393E091838083B0
:102CA0001282138214821582CF01DF91CF91089591
:102CB000CF93DF931F92CDB7DEB7DC01ED91FC918E
:102CC000048CF58DE02D41E050E0BE016F5F7F4F39
:102CD0001995181619061CF4898190E002C08FEF2F
:102CE0009FEF0F90DF91CF910895CF93DF931F92C5
:102CF000CDB7DEB76983DC01ED91FC910280F381F1
:102D0000E02D41E050E0BE016F5F7F4F19950F90BD
:102D1000DF91CF91089580E00895CF93DF931F92C4
:102D2000CDB7DEB76983DC01ED91FC910280F381C0
:102D3000E02D41E050E0BE016F5F7F4F19950F908D
:102D4000DF91CF910895FB0141505109460F571F64
:102D5000E417F50778F4208130E0322F22276181D3
:102D6000260F311D820F931F8217930708F40196D7
:102D70003296EECFE417F50751F4208130E0322F80
:102D80002227820F931F8217930708F40196089554
:102D9000CF93DF93EC018A89882369F09A01AB0114
:102DA0006E857F850E94753E2E853F85280F391FD1
:102DB0003F872E8702C080E090E0DF91CF91089599
:102DC0000F931F93CF93DF93EC018B018C859D852F
:102DD000892B39F460E070E080E090E0C0DE9D87F0
:102DE0008C87EC85FD85309751F01027012710273F
:102DF000158304832E96D287C18781E001C080E0CD
:102E0000DF91CF911F910F910895CF93DF93DC0154
:102E10001C96ED91FC911D973097B1F0EC01158255
:102E20001482128611861D861C8689890E94513C57
:102E300088890E94513C8A890E94513C2E9686E0E6
:102E4000FE0111928A95E9F7DF91CF9108959F9243
:102E5000AF92BF92CF92DF92EF92FF920F931F93A8
:102E6000CF93DF938C017B016A01C3E9D5E0A12CEC
:102E7000B12C8EE1982E288124FF18C030E02F70ED
:102E8000929EF001939EF00D1124E85DF84F24818D
:102E90003581F801848195812817390739F4A60115
:102EA000B701CE010E941F21A80EB91E6196F5E060
:102EB000C73DDF0701F7C501DF91CF911F910F914A
:102EC000FF90EF90DF90CF90BF90AF909F900895CC
:102ED000CF92DF92EF92FF920F931F93CF93DF93E6
:102EE000C091D9058C2F8270C1FF0FC02091D705EA
:102EF00030E040E255E060E070E08091DA050E9449
:102F0000753ECD7FC093D90519C020911C05309125
:102F10001D052115310519F0C9010E949C3D8093C2
:102F2000DA05882309F475C020911C0530911D0530
:102F300040E255E060E070E00E94753EC090DA0526
:102F40008091F206882309F45DC085E0C89EF001F7
:102F50001124E751FA4FC081D18121970281138159
:102F60000C0F1D1FCE010E94393DD82E882321F061
:102F700060E0CE010E94243DBE0184E00E94B23C8C
:102F8000B80186E00E94B23C0AE010E040E86FE140
:102F900080E80E94713C40E86FE180EA0E94713C49
:102FA0004AE06CE180EA0E94713C48E06FE180E811
:102FB0000E94713C84E6E82EF12C8CE10E94FD3CDD
:102FC0008A7069F4E114F10461F081E0E81AF10813
:102FD0006AE070E080E090E00E94C33BEECFEF2813
:102FE00049F448E06FE180EA0E94713C0150110908
:102FF00069F608C0012B31F0DD2021F06D2DCE01E6
:103000000E94243D8C2D0E94513C1092DA0581E0F3
:1030100001C080E0DF91CF911F910F91FF90EF9061
:10302000DF90CF900895CF93DF93EC010E94000DC5
:1030300020911C0530911D059091D9052A3231054A
:1030400021F41092DA059D7F03C01D821C829260DC
:103050009093D905DF91CF913BCFCF93DF93EC01D4
:103060008C859D85892B19F480E090E023C0EA8946
:10307000EE23D1F381E08B8B8E859F8525E0E29F47
:10308000F0011124E751FA4F938382838C859D854B
:10309000909314058093130585E00E94710E809132
:1030A0001C0590911D05892BF9F2CE010E96BBDF10
:1030B00081E090E0DF91CF910895FF920F931F93ED
:1030C000CF93DF93E0911305F0911405C185D2856C
:1030D000209709F451C08091190581FF31C0FA8011
:1030E000F1102EC08091420590914305978386830D
:1030F00080913A0590913B059183808380913C05B6
:1031000090913D0593838283809146059091470578
:10311000982789279827089719F00E949C3DF82E38
:10312000FA82FF2069F08F2D0E94CE0C8C012AE2DA
:1031300030E04091D80560E070E08F2D0E943F3E66
:103140008091190583FF18C08D818823A9F08C8197
:103150008093DA058AE28093D705688179816A5283
:10316000710980911E0590911F05DF91CF911F91EC
:103170000F91FF900C945D0EDF91CF911F910F91F5
:10318000FF900895FC011382128288EE93E0A0E084
:10319000B0E084839583A683B78384EC92E0918327
:1031A0008083158614863E9686E0DF011D928A95FF
:1031B000E9F70895CF92DF92EF92FF920F931F935A
:1031C000CF93DF93CDB7DEB7AA970FB6F894DEBFE3
:1031D0000FBECDBF7C016A010AE313E01A830983A5
:1031E0001B821C821D821E82CE01099669A77AA7C6
:1031F000C9DF1E8F0D8F1F8E18A219A21AA28091EF
:10320000B1099091B209A091B309B091B4098DA30D
:103210009EA3AFA3B8A78B839C83AD83BE83188680
:103220001F82AE01435E5F4F69A57AA5CE0101966C
:103230000E94AE2181309105B1F4D701ED91FC914E
:103240000488F589E02D1CA30BA38F8D98A1A9A15B
:10325000BAA18DA39EA3AFA3B8A7A601BE016D5DC1
:103260007F4FC7011995AA960FB6F894DEBF0FBE1F
:10327000CDBFDF91CF911F910F91FF90EF90DF9025
:10328000CF900895EF92FF920F931F93CF93DF9308
:10329000C82FE0903105F12C84E1E81AF108209163
:1032A000300530E0322F2227E20EF31E48E050E0D6
:1032B0006AE375E0C7018C0F911D45DDC13131F026
:1032C000C0914E05C695C695CC7301C0C8E0D0E04C
:1032D000AE0162E475E037DD8C01CE15DF0508F044
:1032E0004CC0A7014C1B5D0BBE016E5D7F4F8091F2
:1032F000DA050E94B93EEC01219760E085E30E9467
:10330000EB3A8AE38EBD0DB407FEFDCFA80160E065
:1033100070E06C177D07C8F41EBC0DB407FEFDCF2E
:103320002EB530E0322F22271EBC0DB407FEFDCF94
:103330008EB5280F311D420F531F4217530710F44B
:103340004F5F5F4F6E5F7F4FE4CF8A016C177D0741
:1033500081F41EBC0DB407FEFDCF8EB590E0982F12
:1033600088278A01080F191F0817190710F40F5F23
:103370001F4F61E085E30E94EB3A0115110519F03A
:10338000902F812F02C08FEF9FEFDF91CF911F9180
:103390000F91FF90EF90089544E150E06EE275E0E8
:1033A00080E090E0D0DC009721F0982789279827CB
:1033B00008958FEF9FEF0895CF92DF92EF92FF92E3
:1033C0000F931F93CF93DF938091F206882309F424
:1033D000FDC1D091D805D11160C089E30E94FD3CA8
:1033E0009091F206992309F456C0882309F453C03A
:1033F0006091F3067091F4068B010A5F1F4F01156F
:1034000028E0120710F00F5F174080E00E94B23CE6
:1034100060E08AE30E94DD3C90E09093F4068093A4
:10342000F30660E08AE30E94DD3C2091F3063091D0
:10343000F406382B3093F4062093F30660E08AE319
:103440000E94DD3CC82F60E08AE30E94DD3CF82E3C
:1034500060E08AE30E94DD3CE82E40E46EE180E813
:103460000E94713CE7FE15C08091F3069091F4062E
:103470008115984070F41093F6060093F5068C2F92
:1034800090E09F2904979093F8068093F706DFEF6A
:1034900002C00E94E70CD093D805C091D805CC2378
:1034A00009F419C181E08093D9058C2F0E94CE0CBC
:1034B00090931D0580931C05892B09F404C142E6F5
:1034C00050E060E275E08C2F0E94C12C00912C0529
:1034D00010912D050830110509F042C0C093DA059E
:1034E00080911C0590911D050E9790931D0580936A
:1034F0001C052091E5053091E60580913A059091F3
:103500003B05822793272091DD053091DE0582233C
:103510009323892BC1F42091E7053091E805809130
:103520003C0590913D05822793272091DF0530913E
:10353000E00582239323892B31F466E275E08AE368
:1035400095E00E94F40D81E00E94710E80911C05AF
:1035500090911D05892B09F4B6C00E94000DB2C0E0
:10356000083046E0140709F0AEC080911C05909128
:103570001D0510921D0510921C058A9708F49CC029
:103580008091340590913505811551E0950729F01A
:103590008115924009F474C08FC020914605309186
:1035A00047058091E5059091E6052817390709F050
:1035B00083C020914805309149058091E70590919D
:1035C000E8052817390709F077C066E375E08CE352
:1035D00095E00E94F40D80E092E090933505809391
:1035E000340586E0E6E3F5E0A0E4B5E001900D9255
:1035F0008A95E1F786E0E2E0F8E0A6E3B5E0019025
:103600000D928A95E1F786E0E2E0F8E0A6E2B5E007
:1036100001900D928A95E1F786E0E0E4F5E0A0E202
:10362000B5E001900D928A95E1F780913C0590916B
:103630003D05909347058093460580913E05909106
:103640003F0590934905809348058091E505909149
:10365000E60590933D0580933C058091E7059091A8
:10366000E80590933F0580933E0510932D05009348
:103670002C058AE290E090931D0580931C051CC0E8
:1036800020914605309147058091E5059091E6052A
:103690002817390789F42091480530914905809110
:1036A000E7059091E8052817390731F466E375E0DE
:1036B0008CE395E00E94F40D80911C0590911D050E
:1036C000892B09F005DC8091D90580FF04C00E9498
:1036D000E70C1092D8050E94FB3B6B017C018091A6
:1036E000080890910908A0910A08B0910B08A70159
:1036F0009601281B390B4A0B5B0BDA01C901809537
:103700009095A095B0958827B7FD83959927AA270E
:10371000BB27C82F08E217E010931B0500931A057A
:10372000CC2311F082E017C00115110511F1D80169
:103730005C96ED91FC915D973097C9F085859685F3
:10374000A785B089A7019601281B390B4A0B5B0B93
:1037500057FD0FC083E00E94710E80911C0590916F
:103760001D05892B31F00E94000DB2DB02C0F8016B
:10377000E5CF025E1F4F37E0003A130769F6CC230E
:1037800029F1D701C60186509F4FAF4FBF4F80939D
:10379000080890930908A0930A08B0930B08CAEF91
:1037A000D6E0D0931405C093130585E00E94710EF6
:1037B00080911C0590911D05892B19F089859A85AA
:1037C00032DC2B9647E0C632D40759F7DF91CF9110
:1037D0001F910F91FF90EF90DF90CF900895CF93BE
:1037E000DF93EC01E9DD89890E94513C198ADF9160
:1037F000CF9108950F931F93CF93DF931F92CDB76F
:10380000DEB78C01D9DDF8018189882361F041E0C0
:1038100050E0BE016F5F7F4F0E94C12C019719F4E9
:10382000898190E002C08FEF9FEF0F90DF91CF91E1
:103830001F910F910895DF92EF92FF920F931F93C4
:10384000CF93DF9300D01F92CDB7DEB77C014B83BF
:103850005C8369837A83B0DDF70181894B815C8168
:1038600069817A81882329F10E94C12C8C01F7019A
:10387000D1888D2D0E94CE0C0817190731F48D2D9B
:103880000E94513CF701118A12C085E0D89EF001D8
:103890001124E751FA4F80819181800F911F91830C
:1038A000808382819381801B910B93838283C801E3
:1038B00002C080E090E00F900F900F900F90DF918A
:1038C000CF911F910F91FF90EF90DF900895CF93CC
:1038D000DF93EC0171DD8989DF91CF910C94CE0CDF
:1038E000CF93DF93EC0168DD898981110E94513CFF
:1038F0008889898B188ADF91CF910C94CE0CCF9256
:10390000DF92EF92FF920F931F93CF93DF9300D03C
:103910001F92CDB7DEB78C016B017A014DDDF60148
:1039200082819381A481B581892B8A2B8B2B41F1D4
:10393000E114F10429F1828190E0982F88272381F6
:10394000822B9827892798279A838983248130E0BE
:10395000322F22274581242B3227232732273C83ED
:103960002B83D8011C96ED91FC911D977E2D6F2D18
:10397000309729F177836683918380833383228311
:10398000D8011C968D919C911D97892BA9F0529678
:103990008C91811111C086E096E00E949C3DF80157
:1039A000828B2AE230E03787268721E090E0811180
:1039B00001C020E0822F14C080E090E011C0CE0151
:1039C0000196CDD8D8011D969C938E931C97009795
:1039D00099F39801225F3F4FFC0132872187D0CFB6
:1039E0000F900F900F900F90DF91CF911F910F913B
:1039F000FF90EF90DF90CF900895FC0124813581F6
:103A000080E0843099F0E82FF0E091E0980FEE0F1D
:103A1000FF1FE056F84F40815181452B29F48093D8
:103A2000A8073183208304C0892FEBCF8093A80798
:103A3000C3CC0F931F93CF93DF93EC018B01BCDCBE
:103A4000E3E9F5E09EE181818823B1F1808184FF83
:103A500027C0282F30E02F70929FD001939FB00D88
:103A60001124A85DB84F14964D915C911597D8011B
:103A700014962D913C9115974217530789F41B8298
:103A80001A8288EE93E0A0E0B0E08C839D83AE8341
:103A9000BF8382EA92E099838883FD87EC8721C007
:103AA00086FF0AC046815781D80114962D913C911A
:103AB00015974217530719F37196B5E0E73DFB07D9
:103AC00011F61B821A8288EE93E0A0E0B0E08C83AE
:103AD0009D83AE83BF8382EA92E0998388831D86AB
:103AE0001C86CE01DF91CF911F910F9108950F9306
:103AF0001F93CF93DF93EC018C010B5F1F4F8881E5
:103B00000E94513C1992C017D107C9F7DF91CF919C
:103B10001F910F9108950F931F93CF93DF93EC01A3
:103B2000DC018D918D010E94513CFE01CE01049675
:103B3000D8012D918D012193E817F907C9F71C824F
:103B4000DF91CF911F910F910895CF93DF931F9233
:103B5000CDB7DEB7DC01ED91FC910288F389E02D51
:103B600041E050E0BE016F5F7F4F199597FD03C0A4
:103B7000898190E002C08FEF9FEF0F90DF91CF918E
:103B80000895FC01448555854115510551F0FB010F
:103B9000248535852115310521F081E04217530731
:103BA00009F080E00895DC011C96ED91FC911D97D1
:103BB000309739F08181811106C0808182958170B2
:103BC000089580E0089581E00895DC01ED91FC9175
:103BD000028CF38DE02D199591E089270895DC0181
:103BE000ED91FC91048CF58DE02D1994EF92FF92EC
:103BF0000F931F93CF93DF93EC01E881F981008C41
:103C0000F18DE02D19958823B9F08C859D857C0177
:103C10002FEFE21AF20A8C010A5F1F4FC0E0D0E0DA
:103C2000F70181917F010E94CE0CC80FD91FE016C9
:103C3000F106B1F7CE0102C080E090E0DF91CF91B4
:103C40001F910F91FF90EF900895CF93DF93EC01B8
:103C5000E881F981008CF18DE02D1995882331F0F0
:103C60008C859D850196DF91CF9141CFDF91CF91DA
:103C700008950F931F93CF93DF931F92CDB7DEB7B5
:103C80008C01DC01ED91FC91008CF18DE02D1995FA
:103C9000882391F0D8011C96ED91FC911D978181AC
:103CA000882351F041E050E0BE016F5F7F4F0E94DA
:103CB000C12C898190E002C08FEF9FEF0F90DF91C0
:103CC000CF911F910F9108956F927F928F929F9243
:103CD000AF92BF92CF92DF92EF92FF920F931F931A
:103CE000CF93DF937C015B01EA01DC01ED91FC9154
:103CF000008CF18DE02D1995882309F46EC0D70151
:103D00001C96ED91FC911D978181882309F468C070
:103D10006E010EE1BE016C197D096A0D7B1DD70194
:103D20001C96ED91FC911D97A60181810E94C12CEA
:103D30004C01F70164847584D30111961C91812F85
:103D40000E94CE0C8816990679F5C818D908C301C7
:103D50000196E1DEF701A485B5858C91282F30E02E
:103D60002F70029FF001039FF00D1124E85DF84FC2
:103D7000918D94FF05C0982F907611F480688C93F4
:103D8000D7011C96ED91FC911D97818181111FC077
:103D9000808186FF05C010821D961C921E921C9782
:103DA000CE018C199D091EC0B5E01B9FF0011124A6
:103DB000E751FA4F80819181880D991D918380830D
:103DC00082819381881999099383828304C0C114E5
:103DD000D10409F09FCFCE0105C08FEF9FEF02C045
:103DE00080E090E0DF91CF911F910F91FF90EF90D5
:103DF000DF90CF90BF90AF909F908F907F906F900B
:103E00000895CF93DF93EC01D7DAEC85FD853097E9
:103E100039F0808186FF06C081E09181911103C055
:103E200080E001C081E0DF91CF910895CF93DF93CF
:103E3000EC018C859D85009779F0FC01208122237F
:103E400059F0019654DEEC85FD85908196FF02C005
:103E5000108202C0906290831D861C86DF91CF91F4
:103E6000ABCAEF92FF920F931F93CF93DF938C0116
:103E70007B01EA01DC01ED91FC910488F589E02DDC
:103E80001995F701828190E0982F88272381822B52
:103E9000982789279827248130E0322F22274581CF
:103EA000242B3227232732277C2F6D2F4091260782
:103EB000509127074F5F5F4F4115FDE75F0710F0F7
:103EC00040E050E1D42FC52FE8E2F7E0A0E0A430B5
:103ED00059F0B18DBB2329F0E480F580EC16FD0686
:103EE00049F3AF5F7E96F3CF5093270740932607A1
:103EF0001092A80740E0C0E0D0E0AEE14430C1F04D
:103F0000A49FF0011124E85DF84F518D511104C0B8
:103F10004093A807EF010EC0573031F4209729F0E5
:103F2000B28D5A8D5B1708F0FE014F5FEF01E6CFAF
:103F30004093A807209719F480E090E03FC042E04A
:103F4000498F409115054C87409116054D8740914A
:103F500017054E87409118054F8740E052E05B8B74
:103F60004A8B5D8B4C8B41E050E0598B488B1B8E0C
:103F70004A8F43E0488F1E8A40E14F8B40912607CD
:103F8000509127075427452754275D834C837F830F
:103F90006E83998388833B832A83898D8F7061F236
:103FA0000BDA898D8F708330C1F78C8D9D8DD80190
:103FB0001D969C938E931C9781E090E0DF91CF91AA
:103FC0001F910F91FF90EF900895CF92DF92EF92A3
:103FD000FF920F931F93CF93DF93A0911A05B09197
:103FE0001B055C96CD91DC915D975091190520974A
:103FF00049F556FF60C0E3E9F5E080E090E02081FC
:1040000021111AC061E1689F9001699F300D112450
:10401000E901CD56DA4F806188832C563A4F80E112
:10402000F90111928A95E9F7209709F444C05D9649
:10403000DC93CE935C9706C001967196843091050F
:10404000F1F639C051FF07C080911C0590911D0504
:10405000892B09F046C0888187FF0EC08F7788833F
:1040600080911905826080931905E0911A05F091FD
:104070001B05818D8F7E818F80911905982F9071FE
:10408000D92E84FF71C0CE01069631DD8981882347
:1040900009F46DC0E0911A05F0911B0584819581AA
:1040A0009F838E83888180648883E0911A05F091D4
:1040B0001B05158E148EE12CF12CB70180911E0585
:1040C00090911F050E945D0EF0921D05E0921C0567
:1040D000DF91CF911F910F91FF90EF90DF90CF90E4
:1040E00008958881807609F0B6CF6E01FFEFCF1A70
:1040F000DF0AF12CF6018081811122C020911C057C
:1041000030911D052115310519F0C9010E949C3D12
:10411000F60180838823A1F000911C0510911D05F4
:1041200020911E0530911F05205235404091D80541
:1041300060E070E00E943F3EF4E0FF128CCF0CC0C4
:10414000F3942FEFC21AD20A35E0F312D3CF809145
:10415000D9058E7F8093D905E0911A05F0911B0552
:10416000818D8061818F77CF87FF03C08CCF1882CC
:104170009CCF80FF03C0CE010696CDDC809119054F
:104180008C7009F443C0EE81EE2309F43FC08F81A7
:1041900081110FC0EB84FC84E114F10409F48DCF8C
:1041A00025E0E29FF0011124E751FA4FF382E28209
:1041B00007C08E2F0E94CE0C7C01892B09F47DCF85
:1041C00080911E0590911F05805295408093D705E0
:1041D000F701E80FF11DCF01EF2B19F00E949C3D74
:1041E000D82ED092DA05DD2009F467CF6091D7058B
:1041F00070E0870120E030E04E818D2D0E943F3E2F
:104200008091D90582608093D90557CF888185FF39
:1042100052CF8E8181110BC01882E0911A05F09166
:104220001B05158E148E80E18093190544CFE09113
:104230001A05F0911B05818D8061818F3CCF8F9293
:104240009F92AF92BF92CF92DF92EF92FF920F9325
:104250001F93CF938C015B017A016A014C0187E0C7
:10426000880E911CA9D80115110509F452C0F80156
:104270008081807609F04DC0F401C1E08191811107
:1042800002C0C15004C0CF5FC530C1F7C4E0F8011F
:10429000EC0FF11D868181110DC080E092E00E943B
:1042A0009C3DF801EC0FF11D86838823D9F2F801BB
:1042B00014861386A7014C195D094A0D5B1DF80190
:1042C000638574859601EC0FF11D86810E94753E11
:1042D000C81AD90AF80123853485820F931F948761
:1042E00083871C141D042CF4C43009F4BBCFCF5FAA
:1042F000D4CF0E94FB3BDC01CB010A96A11DB11D6E
:10430000F80185879687A787B08BC7018C199D090F
:1043100002C080E090E0CF911F910F91FF90EF904D
:10432000DF90CF90BF90AF909F908F900895FC0149
:104330008485958584CFCF93DF931F92CDB7DEB769
:10434000698341E050E0BE016F5F7F4FFC018485CF
:10435000958575DF0F90DF91CF9108952F923F9251
:104360004F925F926F927F928F929F92AF92BF9285
:10437000CF92DF92EF92FF920F931F93CF93DF9331
:10438000CDB7DEB765970FB6F894DEBF0FBECDBFD1
:104390007C016B013A01FB01DB018D91882331F037
:1043A0008E32D9F380538A30C0F334C020E030E03D
:1043B00080E090E05AE041914423F9F08430910587
:1043C0004CF54E3269F42F3F310509F01CF5D3014D
:1043D000A80FB91F12962C93019620E030E0EBCF86
:1043E000529FB001539F700D1124242F440F330BA3
:1043F00020533109260F371FDECF2F3F310509F03B
:104400004CF48430910534F4F301E80FF91F228352
:1044100081E021C0F70142815381648175818091DF
:10442000B7099091B809A091B909B091BA09481794
:1044300059076A077B0709F4DEC10E94FB3B87012D
:10444000085F1F4F6F7077277C5FC8010E94E016DE
:10445000813019F080E090E0E4C18AE393E09A8330
:104460008983F70182819381A481B5818B839C83A9
:10447000AD83BE8345E350E0BE016F5F7F4FC8014F
:104480003EDA892B19F420E030E0ACC10E94FB3BFE
:10449000F7017783668342E050E0B7016A5F7F4FA0
:1044A000C8010E94C81681E090E09A83898342E0A7
:1044B00050E0BE016F5F7F4FC8010E94C81680E0C8
:1044C00091E09A83898342E050E0BE016F5F7F4FA5
:1044D000C8010E94C8161A82198242E050E0BE014B
:1044E0006F5F7F4FC8010E94C81642E050E0BE01D6
:1044F0006F5F7F4FC8010E94C81642E050E0BE01C6
:104500006F5F7F4FC8010E94C8165601F501808178
:10451000882311F1F6015F018191811115C04501D8
:104520008C189D081814190494F48D8641E050E00D
:10453000BE01635F7F4FC8010E94C816A401B60187
:10454000C8010E94C81603C08E3229F7E8CF650162
:10455000FFEFCF1ADF0ADACF1D8641E050E0BE013F
:10456000635F7F4FC8010E94C816C12CDD24D3941D
:10457000DA82C98242E050E0BE016F5F7F4FC8011E
:104580000E94C816DA82C98242E050E0BE016F5F25
:104590007F4FC8010E94C816C8010E942D18892BA0
:1045A00009F471CF83E0A82EB12CF2E06F0E711CDC
:1045B0000E94FB3B1B012C01C80192D91816190659
:1045C000ACF00E94FB3BDC01CB0182199309A409EA
:1045D000B50989389341A105B10508F0F2C062E33D
:1045E00070E080E090E00E94C33BE6CFF7012280BC
:1045F000338044805580B801CE0101960E94321666
:104600008B819C81AD81BE81281639064A065B06E6
:1046100009F0DAC0C8010E942216C59709F0D4C07B
:10462000C80155D90C970CF4D2C04CE050E0BE0143
:104630006F5F7F4FC801D3DA8B819C8198278927D0
:1046400098279A8B898BF7014681578129813A8176
:104650004217530711F497FD05C0C801C0D82CEFCD
:104660003FEFB7C08F709270892B29F0C801B7D87F
:104670002BEF3FEFAEC0CF80D884DC24CD24DC24E8
:10468000C114D10429F4C801AAD82AEF3FEFA1C070
:10469000812C912C8D819E819827892798278816B7
:1046A000990638F541E050E0BE01635F7F4FC801D5
:1046B00096DA8D85811113C08D858111F3CFC801E4
:1046C0000E945816C8010E945816C8010E94581628
:1046D000C8010E945816FFEF8F1A9F0ADBCF8D8505
:1046E0009FEF980F9D87882339F3C8010E945816C1
:1046F000F6CF812C912C41E050E0BE016D5E7F4FE2
:10470000C8016DDA8B89982F907C61F4882371F051
:104710008B899FEF980F9B8B882341F0C8010E94E3
:104720005816F6CFC8010E9458161B8A8B89811132
:10473000E2CF42E050E0BE01615F7F4FC8014FDA37
:1047400042E050E0BE01635F7F4FC80148DAC80114
:104750000E945816C8010E945816C8010E94581697
:10476000C8010E94581642E050E0BE016F5E7F4FC4
:10477000C80135DA8F8598898115914029F48D8596
:104780009E8581159140D1F1412C512C89899A89BE
:104790009827892798274816590638F4C8010E9497
:1047A0005816FFEF4F1A5F0AF1CF2FEF821A920AC5
:1047B0008C149D0409F09FCFC80111D826EF3FEF5C
:1047C00008C02FEF3FEF05C02EEF3FEF02C02DEFE7
:1047D0003FEF81E0A81AB10829F02F3FEFEF3E0725
:1047E00009F4E6CEC8012C8B3D8B0E9405172C895D
:1047F0003D89C90116C08EEF9FEF13C089899A8940
:104800008115944031F0C8010E94EF1B27EF3FEF64
:10481000E0CF44E050E0B301C801E1D921E030E04D
:10482000D8CF65960FB6F894DEBF0FBECDBFDF912F
:10483000CF911F910F91FF90EF90DF90CF90BF909D
:10484000AF909F908F907F906F905F904F903F9030
:104850002F900895CF92DF92EF92FF920F931F93C4
:10486000CF93DF93CDB7DEB7AA970FB6F894DEBF2C
:104870000FBECDBF7C016A010AE313E01A830983EE
:104880001B821C821D821E82CE01099669A77AA70F
:104890000E94C2181E8F0D8F1F8E18A219A21AA275
:1048A0008091B1099091B209A091B309B091B40976
:1048B0008B839C83AD83BE8318861F82AE01435ECB
:1048C0005F4F69A57AA5CE01019648DD813091053B
:1048D000B1F4D701ED91FC910684F785E02D1CA37E
:1048E0000BA38F8D98A1A9A1BAA18DA39EA3AFA35D
:1048F000B8A7A601BE016D5D7F4FC7011995AA96A5
:104900000FB6F894DEBF0FBECDBFDF91CF911F91E0
:104910000F91FF90EF90DF90CF9008950F931F932A
:10492000CF93DF93EC018B0110161106B4F4FE0156
:10493000859194912496FE013297659174918F3FF1
:104940002FEF920729F480E090E00E94C33B02C061
:104950000E94763404501109E7CFDF91CF911F9167
:104960000F910895CF93DF938B988A98E09102017D
:10497000292F3327E901C07CDD27F3E0D595C795C2
:10498000FA95E1F7D901A370BB27D5E0AA0FBB1FA9
:10499000DA95E1F77C2F7A2BE7787E2B7093020172
:1049A00075B1F901EC72FF27EE0FFF1FEE0FFF1F2D
:1049B0007F74E72BE5B974B320713327220F331FBF
:1049C000372F3F7D232B24BB8998899A3091020190
:1049D000DC01A07CBB27C3E0B595A795CA95E1F79C
:1049E000FC01E370FF27D5E0EE0FFF1FDA95E1F73A
:1049F0002A2F2E2B3778232B2093020175B19C018F
:104A00002C723327220F331F220F331F372F3F748F
:104A1000232B25B974B39C0120713327220F331F38
:104A2000372F3F7D232B24BB8998899A8A9AFA01D4
:104A30007FEF760F16160CF094C021914091020181
:104A4000322F307C369536953695522F537060E272
:104A5000569FD00111243A2B4778342B3093020112
:104A600065B1322F3C72A4E03A9FA0011124362F89
:104A70003F74432B45B934B32071220F3F7D232B64
:104A800024BB8998899A772309F469C02091DC05B1
:104A9000222309F464C001968A9850910201292FBB
:104AA0003327E901C07CDD2743E0D595C7954A95BA
:104AB000E1F7D901A370BB2765E0AA0FBB1F6A9578
:104AC000E1F74C2F4A2B5778452B4093020165B1F3
:104AD000A9014C725527440F551F440F551F562FDF
:104AE0005F74452B45B944B320713327220F331F20
:104AF000342F3F7D232B24BB8998899A3091020162
:104B0000DC01A07CBB27C3E0B595A795CA95E1F76A
:104B1000AC0143705527D5E0440F551FDA95E1F7F6
:104B20002A2F242B3778232B2093020145B19C0197
:104B30002C723327220F331F220F331F342F3F7461
:104B4000232B25B944B39C0120713327220F331F37
:104B5000342F3F7D232B24BB8998899A8A9A672F0B
:104B600067CF8B9ADF91CF910895BF92CF92DF925A
:104B7000EF92FF920F931F93CF93DF93CDB7DEB7E2
:104B800068970FB6F894DEBF0FBECDBF8C017B01D6
:104B90008EEFC82EDD24DA941E141F045CF5F80194
:104BA00084913196B4900E5F1F4F8F3729F0202FDC
:104BB000DE011196F80108C06B2D70E080E090E0F6
:104BC0000E94C33BB12C10C09E2F921B9B1520F45A
:104BD00094919D933196F8CF0B0D111DAE014F5F4F
:104BE0005F4F6B2D90E0BEDEC6018B199109E80E78
:104BF000F91ED2CF68960FB6F894DEBF0FBECDBFB8
:104C0000DF91CF911F910F91FF90EF90DF90CF90A8
:104C1000BF900895CF93DF931F92CDB7DEB7FC010D
:104C2000828D238D24FB992790F99627692F70E0B8
:104C3000778F668F80FF2CC08091DC058823E1F0A0
:104C4000248D358D273483E8380719F02235324515
:104C500031F4911102C082E007C086E005C09111D5
:104C600002C08AE001C088E08983AE014F5F5F4FD8
:104C700061E081E090E00AC0911103C080E290E021
:104C800002C081E290E040E050E060E06BDE2EC0C8
:104C9000848D958D873222E9920780F4853222E94E
:104CA0009207A0F4803224E59207C1F0833927E708
:104CB0009207A1F084359140A9F408C0863223E917
:104CC000920761F08930954B69F408C0660F771F31
:104CD000660F771F636187E090E006C0626081E045
:104CE00094E002C081E690E00E9476340F90DF915C
:104CF000CF9108958F929F92AF92BF92CF92DF9201
:104D0000EF92FF920F931F93CF93DF9300D01F92E8
:104D1000CDB7DEB77C014B016A015901FC01848DDE
:104D2000958D8732F3E99F0799F4F70185898230E1
:104D300031F4F0E2CF0ED11C005E1F4F1DC0833056
:104D4000D9F420E2820E911C80E2A80EB11C14C09E
:104D50008632954189F4F701858980FF0DC0C8012D
:104D6000841B950B19F40F5F1F4F06C026173707DA
:104D700019F4A80EB91E8A01F701828D80FF37C091
:104D800082A599828A82BB82AC82AE014F5F5F4F5F
:104D900064E090E0E7DDF70186A5D982CA821B8333
:104DA0000C83AE014F5F5F4F64E090E0DBDD8091EC
:104DB000DC05882309F457C0F701848D958D85366D
:104DC000910509F050C099828A82AE014F5F5F4F12
:104DD00062E084A195A1C6DDD982CA82AE014F5F8F
:104DE0005F4F62E0F70186A197A1BCDD3CC0B40132
:104DF000F70184A195A10E947634B601F70186A13E
:104E000097A10E9476348A149B0419F4C016D10627
:104E100051F1F701828D85FF0EC0858980FF06C0A4
:104E2000102F0027C02AD12A860105C0BA2CAA2437
:104E30008A289B285401B401F70182A593A50E94FA
:104E40007634B601F70186A597A50E947634B501A0
:104E5000F70184A595A50E947634B801F70180A9D1
:104E600091A90E9476340F900F900F900F90DF91D0
:104E7000CF911F910F91FF90EF90DF90CF90BF9057
:104E8000AF909F908F900895AF92BF92CF92DF9294
:104E9000EF92FF920F931F93CF93DF93EC018091DA
:104EA000DB05882349F0C7018F719927880F991F67
:104EB000E1ECEE22E82AF92A37FF05C0620F731FE2
:104EC000319521953109260F371F77FF02C060E029
:104ED00070E088859985821793070CF49C0169011D
:104EE000C61AD70A17FF05C0400F511F119501952B
:104EF0001109040F151F57FF02C040E050E08A85DA
:104F00009B85801791070CF48C015801A41AB50AEF
:104F10000150110921503109CE01ECDE8B988A989D
:104F200088A599A550910201292F3327F901E07C2A
:104F3000FF27B3E0F595E795BA95E1F7B9016370FE
:104F4000772715E0660F771F1A95E1F74E2F462B4E
:104F50005778452B4093020165B1A9014C72552742
:104F6000440F551F440F551F562F5F74452B45B9ED
:104F700044B320713327220F331F342F3F7D232B5F
:104F800024BB8998899A30910201BC01607C772703
:104F9000E3E075956795EA95E1F7AC014370552715
:104FA000F5E0440F551FFA95E1F7262F242B3778AB
:104FB000232B2093020145B19C012C723327220F31
:104FC000331F220F331F342F3F74232B25B924B3F3
:104FD00080719927880F991F922F9F7D892B84BB01
:104FE0008998899A8A9ACA14DB042CF49C2D8D2DF9
:104FF0006501A92EB82E8F2D99279C012370332788
:10500000A90125E0440F551F2A95E1F79C01207C5A
:10501000332753E0359527955A95E1F7242BBC01AA
:105020006C727727660F660F80719927880FF701DA
:10503000E370FF2775E0EE0FFF1F7A95E1F7A701F8
:10504000407C5527F3E055954795FA95E1F79E2F5B
:10505000942BA7014C725527742F770F770F30E1EF
:10506000E322FF24EE0C1A141B0444F5A601309130
:1050700002013778322B3093020135B13F74362B61
:1050800035B934B33F7D382B34BB8998899A309138
:1050900002013778392B3093020135B13F74372B39
:1050A00035B934B33F7D3E2934BB8998899A415044
:1050B0005109E9F6E1E0AE1AB108D5CF8B9A8A8D95
:1050C00080FF08C08C8D9D8D8632954189F48D8935
:1050D00080FF0EC00A851B8501501109288539857E
:1050E0002150310940E050E060E070E0CE0102DE86
:1050F000DF91CF911F910F91FF90EF90DF90CF90B4
:10510000BF90AF900895EF92FF920F931F93CF93AC
:10511000DF937C01E90177FD29C057FD27C0FC0121
:1051200080859185681779070CF5828593854817E6
:105130005907E4F48091DB05882341F0CE018F719B
:105140009927880F991FC17CC82BD92B8A019B01F5
:10515000C701D0DDBE01F70180A591A5DF91CF91F8
:105160001F910F91FF90EF900C947634DF91CF91C7
:105170001F910F91FF90EF900895DF92EF92FF92B1
:105180000F931F93CF93DF93CDB7DEB72A970FB658
:10519000F894DEBF0FBECDBF7C01862F8370D70190
:1051A00055968C935597462F417060FF05C0169613
:1051B0002D913C91179703C0F70124813581D701C8
:1051C00019963C932E931897442329F014962D9109
:1051D0003C91159703C0F70126813781D7011B96B3
:1051E0003C932E931A97823041F0833041F0813006
:1051F00011F088E405C088E203C088E901C088EFA7
:105200008A87F701228D338D30FF03C08A8580584D
:105210008A8731FF04C09A8580E489278A8733FF13
:1052200004C09A8588E089278A87D7015C968D918A
:105230009C915D9720FFD1C08431B8E69B07F1F4C3
:105240009A85892F881F8827881F8295880F880F45
:10525000807C96FD02C020E001C020E298729A870F
:105260001F828260822B88878BE38987AE01495F2A
:105270005F4F63E086EB90E075DB84C08336E9E145
:105280009E0741F08138F4E99F0721F0813125E143
:10529000920709F52A8527FF02C021602A872A85FF
:1052A00026FF02C022602A87833639E1930719F46A
:1052B0008A858F730EC0813844E9940719F48A8572
:1052C0008F7207C08131954109F05CC08A858F7E5D
:1052D000806C8A8757C02091DC05222309F452C0D4
:1052E00062E070E0F70175A364A326E030E037A325
:1052F00026A3E2E2F0E0D7019996FC93EE9398970B
:105300009B967C936E939A9764E070E09D967C9355
:105310006E939C979F963C932E939E9728E030E047
:10532000D1963C932E93D0978536910501F59A85B9
:1053300094FD03C081E889278A87442351F082E8DD
:1053400090E0F70195A384A380E890E097A386A35B
:105350002EC080E890E0D70195969C938E93949709
:1053600082E890E097969C938E93969720C0823522
:105370009245E9F48A8584FD02C0826001C086609E
:105380008A8715C02AE230E0F70135A324A38BE217
:1053900090E097A386A34CE250E051A740A733A723
:1053A00022A735A724A797A786A791AB80AB8091AA
:1053B000DC05811103C086E390E002C086E190E045
:1053C000AE01465F5F4F61E0CDDA8A8590E0D7019C
:1053D00091969C938E939097E6C02A858339B7E780
:1053E0009B0709F448C050F48435F1E09F0781F031
:1053F000803234E5930709F081C03DC0863243E92D
:105400009407C9F18930A5EB9A0709F077C033C03A
:1054100087E390E0F70193A782A786E390E095A742
:1054200084A789E390E097A786A788E390E091ABF3
:1054300080AB80E290E095A384A381E290E097A303
:1054400086A382E290E091A780A7822F022E000C13
:10545000990B8827990F881F9927982F8827990FCC
:1054600026FD03C060E070E002C060E071E0886289
:10547000682B792B82C040E052E0D70195965C936F
:105480004E93949741E052E097965C934E93969793
:1054900042E052E099965C934E93989740E152E037
:1054A0009B965C934E939A9741E152E09D965C9354
:1054B0004E939C9742E152E09F965C934E939E9749
:1054C00043E152E0D1965C934E93D09727FD03C001
:1054D00020E030E002C020E030E88632B3E99B07EC
:1054E00031F08032944519F060E07AE602C060E065
:1054F00075E3622B732B80E094E035C080E290E08E
:10550000D70195969C938E93949781E290E097961D
:105510009C938E93969782E290E099969C938E93BB
:10552000989780E590E09B969C938E939A9781E55F
:1055300090E09D969C938E939C9782E590E09F9639
:105540009C938E939E9783E590E0D1969C938E9347
:10555000D09727FD03C060E070E002C060E070E813
:10556000776280E690E00E9476348A8586FD03C0EB
:1055700060E070E002C060E071E081E090E00E94D5
:1055800076348A8585FD03C060E070E002C068E083
:1055900070E083FD70616063F70171A360A383E035
:1055A00090E00E947634D70155968C91559780FFF4
:1055B00036C05A968D919C915B9792FD30C094961F
:1055C0008D919C91959796962D913C919797959654
:1055D0003C932E93949797969C938E9396979A9636
:1055E0008D919C919B979E962D913C919F979B9618
:1055F0003C932E939A979F969C938E939E979C96FE
:105600008D919C919D97D0962D913C91D1979D968F
:105610003C932E939C97D1969C938E93D097F701B1
:1056200002851385015011092085318521503109EA
:1056300040E050E060E070E0C7015CDBD701169607
:105640006D917C9117975C968D919C915D978732B7
:10565000B3E99B0749F4F70125892250223008F469
:105660009FC000E010E09EC000E010E020E030E0CD
:10567000D7015A964C9140FF42C01982D02E0A831E
:105680007B836C831D822E831091DC05111103C076
:1056900083E390E002C08EE090E0AE014F5F5F4F89
:1056A00066E060D91982DA82111103C087E390E0C5
:1056B00002C084E190E0AE014F5F5F4F62E052D9DB
:1056C000112389F01982F701848D958D87349348D1
:1056D00019F081E090E002C088E190E0AE014F5FF8
:1056E0005F4F61E00AC0D7015A968C9180FF5FC07E
:1056F00040E050E060E083E190E034D958C0833965
:10570000B7E79B0789F160F48032F4E59F0761F108
:10571000833827E7920791F08435914099F512C0BC
:10572000863243E9940701F128F4855292490297A1
:1057300048F028C08930954BB9F024C0F701668D38
:10574000778D24C0600F711F6150710981E390E073
:105750000E947634B80182E390E00E94763460E0E3
:1057600070E083E390E019C0D7015E966D917C9163
:105770005F97626081E094E00E947634B80184E033
:1057800094E00BC0F701668D778D626081E690E052
:105790000E947634B8018AE690E00E94763407C011
:1057A00000E210E020E230E0201B310B61CF2A96AE
:1057B0000FB6F894DEBF0FBECDBFDF91CF911F9122
:1057C0000F91FF90EF90DF9008950895CF92DF92B0
:1057D000EF92FF920F931F93CF93DF936C017A01A7
:1057E0008B01C0E0D0E0CE15DF0589F0D8016D91C6
:1057F0008D01D601ED91FC910190F081E02DC60163
:105800001995892B11F47E0102C02196ECCFC701B6
:10581000DF91CF911F910F91FF90EF90DF90CF908C
:105820000895CF93DF93EC0188819981009711F05F
:105830000E944E64198218821D821C821B821A8269
:10584000DF91CF9108950F931F93CF93DF93EC01D6
:1058500088819981009729F02A813B812617370793
:1058600088F48B016F5F7F4F0E94E664009761F0C0
:10587000998388831B830A832C813D81232B11F418
:10588000FC01108281E001C080E0DF91CF911F9187
:105890000F910895382F2091570890915608213282
:1058A00008F049C0809133088111FCCF42E0409359
:1058B0003308309332083FEF3093310810923008AC
:1058C00020932F08A6E3B8E04FE058E0FA013E2FFE
:1058D000341B321718F43D913193F9CF10920E0812
:1058E00020910E08990F922B90930E0890910D081D
:1058F000913061F410920D0890910E089093BB00C6
:105900009091BC0093FDF8CF95EC01C095EE90937B
:10591000BC00909133089230E1F3909131089F3FA1
:1059200079F080913108803241F0809131088033E4
:1059300031F084E005C081E003C082E001C083E073
:105940001092350810925708109234080895CF939A
:10595000C62FFC01808191E0909334088093560813
:10596000109235081092570861E08CE69AE00E9488
:10597000F73E6C2F8CE69AE00E94F73E81E0CF91D3
:1059800089CF0F931F93CF93DF93EB0160E070E01B
:105990000E94B93E8C0160E085E30E94EB3A8AE305
:1059A0008EBD0DB407FEFDCFCE01800F911FC8172D
:1059B000D90739F01EBC0DB407FEFDCF2EB52993D3
:1059C000F6CF61E085E30E94EB3AC801DF91CF9109
:1059D0001F910F910895EF92FF920F931F93CF9312
:1059E000DF93CDB7DEB7C254D1090FB6F894DEBF4E
:1059F0000FBECDBF8C01FB0182819381A481B58153
:105A000023968CAF9DAFAEAFBFAF239721E0239617
:105A10002FAF239723964CAD5DAD6EAD7FAD239731
:105A20004BAB5CAB6DAB7EAB89AF9AAFABAFBCAFF2
:105A30008DA79EA7AFA7B8AB28AB4DA55EA56FA558
:105A400078A94FA358A769A77AA72EAB4BA95CA941
:105A50006DA97EA949A35AA36BA37CA38B8F9C8FAE
:105A6000AD8FBE8F2AA74FA158A569A57AA54D8BEA
:105A70005E8B6F8B788F2CA349A15AA16BA17CA15F
:105A80004F87588B698B7A8B89879A87AB87BC87BE
:105A90000E94FB3BDC01CB0186509F4FAF4FBF4FB5
:105AA0008093080890930908A0930A08B0930B0804
:105AB0001092F6061092F5061092F8061092F7066C
:105AC00089E091E0E9EEF5E0DF019C011D922150B3
:105AD0003040E1F781E098E09093EA058093E90592
