:10000000EFC400001EC500001CC500001AC500009A
:1000100018C5000016C5000014C5000012C5000078
:1000200010C500000EC500000CC500000AC5000088
:1000300008C5000006C5000004C5000002C5000098
:1000400000C50000FEC40000FCC40000FAC40000AB
:10005000F8C40000F6C40000F4C400000C94BE2CE8
:10006000F0C400000C946C2B0C94432BEAC40000E9
:10007000E8C40000E6C40000E4C40000E2C40000DC
:10008000E0C40000DEC40000DCC40000DAC40000EC
:10009000D8C40000D6C40000D4C400000C941F19BA
:1000A000D0C40000CEC40000CCC40000CAC400000C
:1000B000C8C40000C6C40000C4C40000C2C400001C
:1000C000C0C40000BEC40000BCC40000BAC400002C
:1000D000B8C40000B6C40000B4C40000B2C400003C
:1000E000B0C4000074108B100D11FE1120123B12D1
:1000F0004712F211D12BD42BC32BC72BCB2B0B2C9C
:10010000D82BDC2BE22BE62BEA2BF02BF42BF82B55
:100110000B2CFE2B022C062C00407A10F35A00A068
:10012000724E18090010A5D4E80000E876481700C0
:1001300000E40B54020000CA9A3B000000E1F50500
:10014000000080969800000040420F000000A0864A
:1001500001000000102700000000E803000000007C
:100160006400000000000A00000000000100000020
:1001700000002C76D888DC674F0823DFC1DFAE593A
:10018000E1B1B796E5E3E453C63AE651997696E8CD
:10019000E6C28426EB898C9B62ED407C6FFCEFBC51
:1001A0009C9F40F2BAA56FA5F490055A2AF75C937C
:1001B0006B6CF9676DC11BFCE0E40D47FEF520E6B2
:1001C000B500D0ED902E0300943577050080841E95
:1001D000080000204E0A000000C80C333333330FF0
:1001E000986E12831141EF8D2114893BE65516CF8D
:1001F000FEE6DB18D1844B381BF77C1D901DA4BB99
:10020000E424203284725E228100C9F124ECA1E54D
:100210003D274E6F20737570706F727420666F7219
:10022000206F766572203136206269742073697A96
:100230006564206D657373616765730001234567AD
:1002400089ABCDEFFEDCBA9876543210F0E1D2C320
:10025000486561646572206D69736D6174636800DF
:100260005365632D576562536F636B65742D4163EE
:10027000636570743A2000436F6E6E656374696FD6
:100280006E3A20557067726164650D0A005570679B
:10029000726164653A20776562736F636B65740D94
:1002A0000A00485454502F312E312031303120571C
:1002B000656220536F636B65742050726F746F6357
:1002C0006F6C2048616E647368616B650D0A005045
:1002D000617374206C6F6F7000416E616C797A6924
:1002E0006E672072657175657374206865616465F9
:1002F000727300576562736F636B65742065737406
:1003000061626C6973686564005465726D696E61E1
:1003100074696E6720736F636B65740044697363FF
:100320006F6E6E656374696E6720636C69656E7469
:1003300000436C69656E7420636F6E6E65637465EF
:100340006400E50110E70110E80148EC0109ED0146
:100350006C23016F240157250171E201181B01155F
:100360000101001C01031901017F051F018C1F0100
:10037000847F0A1F01947F0A1F01D47F05400D006E
:100380002B293E3D3F24740806070D17500D00022F
:100390000116143F0B5B08121819175D01FF1601B7
:1003A000082801207F282801387F2828013C0202E4
:1003B0000000040200EF060200000802018F800224
:1003C00000008202000017010500000000003E5BF3
:1003D0004F5B3E3E6B4F6B3E1C3E7C3E1C183C7E92
:1003E0003C181C577D571C1C5E7F5E1C00183C1877
:1003F00000FFE7C3E7FF0018241800FFE7DBE7FF73
:1004000030483A060E2629792926407F05050740FF
:100410007F05253F5A3CE73C5A7F3E1C1C08081CC0
:100420001C3E7F14227F22145F5F005F5F06097FFE
:10043000017F006689956A606060606094A2FFA297
:100440009408047E040810207E201008082A1C0846
:10045000081C2A08081E101010100C1E0C1E0C3050
:10046000383E3830060E3E0E060000000000000048
:100470005F00000007000700147F147F14242A7F08
:100480002A122313086462364956205000080703D5
:1004900000001C2241000041221C002A1C7F1C2A53
:1004A00008083E08080080703000080808080800A6
:1004B0000060600020100804023E5149453E0042A1
:1004C0007F400072494949462141494D3318141271
:1004D0007F1027454545393C4A4949314121110999
:1004E000073649494936464949291E00001400008B
:1004F00000403400000008142241141414141400A5
:100500004122140802015909063E415D594E7C12F0
:1005100011127C7F494949363E414141227F414188
:10052000413E7F494949417F090909013E41415105
:10053000737F0808087F00417F41002040413F0150
:100540007F081422417F404040407F021C027F7F91
:100550000408107F3E4141413E7F090909063E41A2
:1005600051215E7F09192946264949493203017FF5
:1005700001033F4040403F1F2040201F3F40384084
:100580003F631408146303047804036159494D431D
:10059000007F4141410204081020004141417F0495
:1005A000020102044040404040000307080020547C
:1005B0005478407F284444383844444428384444DC
:1005C000287F385454541800087E090218A4A49CAB
:1005D000787F0804047800447D40002040403D00BE
:1005E0007F1028440000417F40007C047804787C20
:1005F000080404783844444438FC18242418182487
:100600002418FC7C08040408485454542404043F6F
:1006100044243C4040207C1C2040201C3C40304076
:100620003C44281028444C9090907C4464544C44A2
:100630000008364100000077000000413608000243
:10064000010204023C2623263C1EA1A161123A406D
:1006500040207A38545455592155557941225454E3
:100660007842215554784020545579400C1E5272DE
:1006700012395555555939545454593955545458BB
:100680000000457C410002457D420001457C407DE3
:100690001211127DF0282528F07C54554500205475
:1006A000547C547C0A097F4932494949323A4444CE
:1006B000443A324A4848303A4141217A3A4240204D
:1006C00078009DA0A07D3D4242423D3D4040403DDE
:1006D0003C24FF2424487E4943662B2FFC2F2BFF0C
:1006E0000929F620C0887E0903205454794100006E
:1006F000447D413048484A32384040227A007A0AE4
:100700000A727D0D19317D2629292F2826292929AC
:100710002630484D402038080808080808080838DE
:100720002F10C8ACBA2F102834FA00007B00000844
:10073000142A142222142A14085500550055AA55CB
:10074000AA55AAFF55FF55FF000000FF001010102A
:10075000FF00141414FF001010FF00FF1010F01021
:10076000F0141414FC001414F700FF0000FF00FF45
:100770001414F404FC141417101F10101F101F146D
:1007800014141F00101010F0000000001F101010B3
:10079000101F10101010F010000000FF10101010AB
:1007A0001010101010FF10000000FF140000FF00D8
:1007B000FF00001F10170000FC04F414141710179A
:1007C0001414F404F40000FF00F7141414141414A7
:1007D00014F700F7141414171410101F101F14141A
:1007E00014F4141010F010F000001F101F0000008F
:1007F0001F14000000FC140000F010F01010FF1097
:10080000FF141414FF141010101F00000000F0104B
:10081000FFFFFFFFFFF0F0F0F0F0FFFFFF00000030
:100820000000FFFF0F0F0F0F0F3844443844FC4AFD
:100830004A4A347E02020606027E027E026355495F
:1008400041633844443C04407E201E2006027E0260
:100850000299A5E7A5991C2A492A1C4C7201724CE1
:10086000304A4D4D303048784830BC625A463D3EA3
:10087000494949007E0101017E2A2A2A2A2A444444
:100880005F444440514A444040444A51400000FFC4
:100890000103E080FF000008086B6B083612362465
:1008A00036060F090F06000018180000001010008F
:1008B0003040FF0101001F01011E00191D17120029
:1008C0003C3C3C3C000000000053656E64696E6770
:1008D00020646174613A2000000021002400270098
:1008E0002A002D003000330001010000040107013F
:1008F0000A0100002200250028002B002E003100F4
:10090000340002010000050108010B010505050581
:10091000070508080808020202020A0A0808040477
:1009200004040101010101010101030303030303A5
:100930000303040707070C0C0C0C0C0C0C0C020234
:10094000020206060606060606060B0B0B0B0B0B31
:100950000B0B0102102020080810204010204080BE
:100960000201020108040201010204081020408073
:100970008040201008040201800402018040201001
:10098000080402010804020101020408102040804A
:10099000010204081020408000000A0B02090C0D1F
:1009A0000E08070304010000000000000000000022
:1009B0000000000000000000000000000000000037
:1009C00000000000121110000000000000000000F4
:1009D00000000000000000000000000000005C615A
:1009E00011241FBECFEFD1E2DEBFCDBF00E00CBFB0
:1009F00015E0A0E0B2E0E6EAF4ED00E00BBF02C0D3
:100A000007900D92AA30B107D9F72BE0AAE0B5E024
:100A100001C01D92A731B207E1F714E0C0EFD4E0A6
:100A200000E006C021970109802FFE010E94E567C2
:100A3000CF3ED10780E00807A9F70E94F24B0C9443
:100A4000516ADECA2F923F924F925F926F927F92CD
:100A50008F929F92AF92BF92CF92DF92EF92FF92CE
:100A60000F931F93CF93DF93CDB7DEB72A970FB6BF
:100A7000F894DEBF0FBECDBF1092690910926A09CB
:100A800010926B0910926C09109227091092280994
:100A90001092290910922A0968EB7BE080E090E02F
:100AA0000E94873E88E898E09093680980936709E0
:100AB0000E9442400E94B22C60932709709328093B
:100AC0008093290990932A096FE674E08091670961
:100AD000909168090E94F14B6AE070E080E090E03C
:100AE0000E94873E11E010933B090E94424086EF2E
:100AF00090E00E9408684C018EE1D4018C9311961D
:100B00008C93119785E012968C93129714961C92F1
:100B10001E92139716961C921E92159781E090E0F4
:100B200018969C938E93179719961C9219971A965C
:100B30001C921A971B961C921B971C961C921C9732
:100B400083E01D968C93F40116861786108A118A0D
:100B50008FE090E0938B828B148A158A168B178A0C
:100B6000108E118E8DE290E091A780A761E00E9427
:100B70001F2C60E08DE20E94A22B8EE290E0D40157
:100B80009D969C938E939C9761E00E941F2C60E041
:100B90008EE20E94A22B3401B0E36B0E711C88E43C
:100BA00090E0F40191AB80AB10929A0510929905F8
:100BB00010926508109287081092630810936208DB
:100BC00010923D0861E084E10E94A22B61E085E182
:100BD0000E94A22B8091B9008E7F8093B9008091F2
:100BE000B9008D7F8093B90088E48093B80085E4D4
:100BF0008093BC0061E0C3010E943A3C80E490E035
:100C00000E9408687C01DC0113961C921E921297C8
:100C100020EF30E015963C932E93149780E491E0FA
:100C200017969C938E93169719963C932E9318972C
:100C30001B969C938E931A9755961C9255971D96CA
:100C40001C921E921C971F961C921E921E975496E1
:100C50001C9354978FEF9FEF53969C938E935297CC
:100C600051969C938E93509756961C9356975796F1
:100C70001C92579782E592E011969C938E9387E39E
:100C8000D4968C93D49788E3D6968C93D69787E0A6
:100C9000D5968C93D59786E0D7968C93D7978CE290
:100CA00091E0D9969C938E93D8978AE090E0D39662
:100CB0009C938E93D297DF961C921E92DE97109390
:100CC00014058091010188678093010184B1806BD4
:100CD00084B99D9A809A819A829A839A819A8B9AF2
:100CE000889A899A899A62E370E080E090E00E9495
:100CF0007A2C899864E670E080E090E00E947A2C7B
:100D0000899A64E670E080E090E00E947A2C60E0CE
:100D100070E080EB90E00E94001DF701118E108EB4
:100D200085E690E0958F848F83E195E1938F828FA4
:100D300010930C0667E870E082E493E00E94583557
:100D400080E991E0D70117969C938E9316975B9656
:100D50002C915B97822F82958F7090E081709927FC
:100D60005F969C938E935E97ED91FC91008CF18D34
:100D7000E02D60E0C7011995D701ED91FC9106883F
:100D8000F789E02D60E0C7011995F701848D958DF5
:100D90008838944909F01AC210920B06D701ED91D8
:100DA000FC910084F185E02D20EE3FEF40E050E023
:100DB00060E070E0C7011995F701C0A4D1A480914B
:100DC0000C06811106C0828D80FF03C05EE2C52E35
:100DD000D12C00E010E020E030E040E050E060E0A6
:100DE00070E0C7010E94C21DD7015A968C915A9794
:100DF00080FD0FC060E070E094968D919C91959776
:100E00000E94001D60E070E0F70186A197A10E949A
:100E1000001D8B988A98309102018D2D9927BC0175
:100E2000607C7727E3E075956795EA95E1F7AC017B
:100E300043705527F5E0440F551FFA95E1F7262F2B
:100E4000242B3778232B2093020145B19C012C726F
:100E50003327220F331F220F331F342F3F74232BCE
:100E600025B924B380719927880F991F922F9F7DF0
:100E7000892B84BB8998899A90910201A601407CB4
:100E8000552713E0559547951A95E1F7960123707C
:100E9000332705E0220F331F0A95E1F7842F822BB9
:100EA0009778892B8093020125B1C6018C7299270E
:100EB000880F991F880F991F922F9F74892B85B9CE
:100EC00084B3F0E1CF22DD24CC0CDD1C8F7DC82A59
:100ED000C4BA8998899A8A9A809101018778809307
:100EE000010184B18F7484B99D98D7015A968C9171
:100EF0005A9786FD1FC080FD12C05C968D919C9113
:100F00005D978938924159F0889A8898889888988E
:100F10008091000183B182B380910001889A889A00
:100F20008898889888988091000183B182B38091D5
:100F30000001889AF701848D958D8131954159F48E
:100F4000889A8898889888988091000183B182B3A4
:100F500080910001889AD7015A968C9184FF7CC0B9
:100F6000889A8898889888984091000183B192B3B4
:100F700050910001807B86958695487168E0469F78
:100F800090011124382F322B9072892F90E0959583
:100F90008795832B352F3076329536953770382BE1
:100FA000889A889A8898889888982091000143B1F7
:100FB00092B380910001842F807BC82EC694C69482
:100FC000287188E0289FA0011124C42A9072892FDB
:100FD00090E0959587957C2D782B889A889A8898AB
:100FE000889888985091000143B122B36091000124
:100FF000407B842F86958695587198E0599FA00173
:101000001124482B2072822F90E095958795842B90
:10101000962F9076929596959770982B889AD701EF
:101020005A962C91872F8C7F22FF0BC0987FB8E0B7
:101030008B9F60011124D92A369536953695C32A9F
:1010400073C0387FE8E08E9F60011124D32A969503
:1010500096959695C92A68C0889A8898889888989D
:101060003091000123B192B3E0910001889A889AEF
:1010700088988898889880910001A3B162B34091C4
:101080000001A07BCA2ED12CD601B595A795B595A8
:10109000A7958871F8E08F9F60011124CA2ADB2A86
:1010A000562F5072652F70E075956795C62AD72A1E
:1010B000407650E0B5E055954795BA95E1F7C42ADA
:1010C000D52A889A207B822F86958695387148E0AC
:1010D000349F90011124282B9072892F90E09595D0
:1010E0008795822BE076E295E695E7708E2BD82ADD
:1010F000D7015A968C9183FF03C0DC24CD24DC24D5
:1011000082FF12C09601232F332726952695269518
:10111000C601807E9770822B932BDC2CCC24DD0CB7
:10112000DD0CDD0CC82AD92A80910B06882399F0A2
:101130009601207CC6018827947045E09695879596
:101140004A95E1F7BFE3CB22DD24D694C794C82AA1
:10115000D92AC22AD32A889A8B9A8091010188675A
:101160008093010184B1806B84B99D9AF701828DCF
:1011700080FD10C0F70102851385015011092085FB
:1011800031852150310940E050E060E070E0C70156
:101190000E94C21DFFE1CF16FFEFDF06B9F486E023
:1011A0008983AE014F5F5F4F61E08AE390E00E9468
:1011B000FD1BD7015A968D919C915B978F7E5B9614
:1011C0009C938E935A9781E080930B0663E0C7014E
:1011D0000E94BF1E60E070E0C7010E94AE35F401BE
:1011E000F3AAE2AAA4014C5C5F4F58874F8384E1C5
:1011F000DA011D928A95E9F715AA14AA16AA17AA68
:1012000064EA71E071AF60AF4CE152E053AF42AFBE
:1012100020EB34E035AF24AF88E295E097AF86AF9E
:10122000E05CFF4F71836083329651834083329636
:10123000318320833296918380837401B8E4EB0E6E
:10124000F11CF7011382128280E792E09183808380
:1012500080E090E5958384836401FEE4CF0ED11C89
:1012600082ED92E0D60111969C938E9380EC1296BB
:101270008C93129788EA13968C93139781E01496B7
:101280008C93149788EC15968C93159786E0E8E478
:10129000F2E0169601900D928A95E1F787010E5EB5
:1012A0001F4F5401B6EFAB0EB11C88EE282E83E021
:1012B000382E412C512C2CEF32E0F801138212828F
:1012C0002482358246825782318320831586148694
:1012D00060E874E0C80146962A8739870E94224B4D
:1012E00060E874E0C8014C960E94224B095D1F4FD4
:1012F0002A8539850A151B0501F782ED92E09A834C
:101300008983F60182819381A481B5818B839C833B
:10131000AD83BE83BE016F5F7F4FC7010C960E94F5
:101320007E3C61E874E088E898E00E94F14B3091DF
:101330001506209116069091170680911806F40163
:10134000E05BFF4F3083D401AF5ABF4F2C9311960F
:101350009C9311968C938F016401F4E5CF0ED11C00
:10136000D8014D918D0150E060E070E02AE088E8FE
:1013700098E00E94854B69E874E088E898E00E9454
:10138000F14B0C151D0561F76EE774E088E898E0F5
:101390000E94704BC7010E94FC43C3010E94361B90
:1013A000F40164A375A386A397A38401045D1F4F72
:1013B000C8010E949E3BC40188960E949E3BC801C2
:1013C0000E949E3BD40158960C91589757961C91B9
:1013D000579752966D917C915397072E000C880B6E
:1013E000990B0E946C65F62EE72ED82EB92EF401CB
:1013F000A6A4C2A4C110CA2CC3010E94361B2B0193
:101400003C01D4011C962C911C971B964C918F810A
:1014100098852A8749870E94AA1A0F931F93BF9223
:10142000DF92EF92FF92830172012A854985BC0108
:10143000F40182A993A90E944B3990920B058092E6
:101440000A050F900F900F900F900F900F902A9613
:101450000FB6F894DEBF0FBECDBFDF91CF911F91C5
:101460000F91FF90EF90DF90CF90BF90AF909F9043
:101470008F907F906F905F904F903F902F90089546
:1014800080914405909145058F3F2FEF920759F4C5
:1014900020914605309147052F3F3F4F21F486E0CC
:1014A000EAE7F2E05AC02091150630911606282787
:1014B000392740910D0650910E0624233523232B06
:1014C00091F460914605709147052091170630917F
:1014D00018062627372740910F065091100624231F
:1014E0003523232B89F08091110690911206909359
:1014F000960580939505809113069091140690931C
:1015000098058093970508C090939605809395055C
:1015100070939805609397052091950530919605F5
:10152000409197055091980580E09BE001C08F5F46
:10153000883071F1989FF0011124E752F84F6081D3
:1015400071812617370799F762817381461757070C
:1015500071F780933108349686E0A6E2B5E00190F9
:101560000D928A95E1F786E0E2E3F8E0ACE2B5E0BF
:1015700001900D928A95E1F788E090E09093330511
:101580008093320580912205909123050E9667C0C5
:101590008093310846E050E06FEF70E086E295E01E
:1015A0000E94266A86E0E6E4F5E0DF01282F1D921E
:1015B0002A95E9F7E2E3F8E0ACE2B5E0982F019074
:1015C0000D929A95E1F7E2E3F8E0ACE3B5E0982FED
:1015D00001900D929A95E1F720919505309196052D
:1015E00030934D0520934C05209197053091980537
:1015F00030934F0520934E05209115063091160625
:101600003093430520934205209117063091180628
:10161000309345052093440520E031E030933B05AD
:1016200020933A05309335052093340528E030E0C7
:1016300030933705209336058093380584E08093F6
:10164000390588E096E090933305809332058CE568
:1016500095E090932505809324058AE290E090938D
:101660002305809322050895EF92FF920F931F9315
:10167000CF93DF939C01FB011092310890E08BE047
:10168000983031F1899F70011124E701C752D84F7A
:101690006881798161157105C9F04A815B814115C5
:1016A0005105A1F0D9010D911C911197061717074B
:1016B00069F412966D917C9113976417750731F454
:1016C00090933108D701A352B84F2AC09F5FD8CF5B
:1016D00090E08BE0983091F0899FE0011124C7528F
:1016E000D84F48815981452B39F44A815B81452B7C
:1016F00019F4909331080AC09F5FECCF10929405C3
:101700001092930510923108C9EDD7E0D9014D919F
:101710005D916D917C91DE014D935D936D937D9311
:1017200086E001900D928A95E1F71A86DF91CF91BC
:101730001F910F91FF90EF9008959C01AB01709362
:101740009205609391051616170654F480918F0543
:10175000909190052817390719F0B9010C941D6A6A
:101760000895BF92CF92DF92EF92FF920F931F9353
:10177000CF93DF93C0912005D0912105843009F4E7
:10178000E9C12CE535E030932505209324053093FD
:10179000900520938F05833059F4898D8F708330A5
:1017A00009F010C788899989892B09F00BC77EC079
:1017B000823009F07FC080911E058F5F80931E05E7
:1017C000811113C080911D058F5F80931D058111CC
:1017D0000CC080911C058F5F80931C05811105C092
:1017E00080911B058F5F80931B051092230510923B
:1017F00022051092920510929105898D982F9D7F58
:10180000953041F48A8D8F5F8A8F883709F0DAC668
:10181000198ED8C6882309F4D5C628893989232B7F
:1018200009F440C09A8D2FEF290F2A8F9111CAC653
:101830009B8D983031F02FEF280F223048F49530EF
:1018400039F4198E80E880931F050E940F286EC519
:10185000953038F423E0092E01C0220F0A94EAF7EC
:1018600001C020E32A8F9F5F9B8F8F708330A1F090
:1018700048F4813009F459C3823009F0A3C61092AC
:10188000550556C3863009F460C5883009F45DC536
:10189000843009F097C659C584E080931F050E94E3
:1018A0000F2879C58F70833009F08CC688E080934B
:1018B0001F0531C5853019F5E0911905F0911A051C
:1018C00084819581892B09F47DC61092210510929F
:1018D000200580E595E0909325058093240590935D
:1018E000900580938F0510929205109291051092A9
:1018F00023051092220588E080931F0529C180915D
:101900003405853409F05EC6E0903605F12CFE2CD6
:10191000EE2480913705E80EF11C8091220590910C
:1019200023058E159F0508F44DC6F0922305E0921D
:10193000220580913A058F7309F044C6D0903B058B
:10194000D11040C6C0911506D0911606209739F4E3
:101950008091170690911806892B09F442C0809156
:101960003D052091440530914505813151F52F3FCA
:101970001FEF310739F48091460590914705019694
:1019800009F471C080910D0690910E068095909596
:101990008C2B9D2B28173907A1F480910F0690916D
:1019A0001006809590954091170650911806842B4B
:1019B000952B40914605509147054817590709F462
:1019C00052C02C173D0709F0FDC520914605309106
:1019D000470580911706909118062817390709F0D6
:1019E000F1C50E941B25019609F0ECC580913D05CB
:1019F000863009F413C18131B1F1813009F0E2C5BB
:101A000080914805883009F0DDC510924805809125
:101A10004A0590914B05873FBFEF9B0710F0099651
:101A200001C0089690934B0580934A05809140052C
:101A3000909141059093450580934405809142051E
:101A4000909143059093470580934605D0934105B7
:101A5000C093400580911706909118069093430516
:101A600080934205B3C5CCE1EC1AF108F09223054E
:101A7000E092220580E595E090932505809324056A
:101A800080914E0590914F05892B99F420914A053C
:101A900030914B05409148055091490560914005B2
:101AA00070914105A0914205B0914305EAE2F7E04B
:101AB0000CC081E10E949324019609F083C5E6CF12
:101AC00084819581009731F43B9687E0E635F807ED
:101AD000B8F324C028173907B9F786819781009792
:101AE00019F04817590781F780819181009729F4EF
:101AF000C281D381CD2B49F416C08F3F1FEF9107D0
:101B000021F4C281D381219671F068177907E1F63B
:101B100082819381A817B907B9F605C0F0931A0519
:101B2000E09319054FC5F0931A05E093190510923B
:101B300021051092200582E080931F0580E595E045
:101B40009093900580938F051092920510929105C5
:101B50000E94F3458091910590919205009709F4B8
:101B600031C59C01245E3F4F30932305209322050D
:101B70003093360520933705E0911905F0911A0549
:101B8000208520933C0521E120933D050896982768
:101B90008927982790934D0580934C0510924F0507
:101BA00010924E0584819581909349058093480554
:101BB0008681978190934B0580934A058091150605
:101BC00090911606909341058093400580911706E9
:101BD00090911806909343058093420580819181EE
:101BE00090934505809344058281938190934705A6
:101BF000809346058CE595E0909325058093240518
:101C000081E10E94932480959095009711F48FEFC5
:101C10009FEF90934F0580934E05B1C486E00E94DC
:101C20009324019609F0CEC440914A0550914B058A
:101C3000809148059091490560914005709141055A
:101C4000E0914205F091430508E517E0E801298D90
:101C50002223A9F0AC81BD814A175B0781F4AE81D4
:101C6000BF818A179B0759F4A881B9816A177B073E
:101C700031F4AA81BB81EA17FB0709F470C1025E47
:101C80001F4FD7E0003D1D0709F7809155058F7361
:101C90008230E1F450938E0540938D0580E08430CE
:101CA00099F0E82FF0E0EE0FFF1FE053F84F20818E
:101CB00031818F5F4217530791F71092D80780E068
:101CC000C0E0D0E09EE17CC08093D80780915505AC
:101CD00082FD78C484E18093550588E290E090937A
:101CE00023058093220580E58093540530914F05AC
:101CF0008091530580934F0520914E0580915205A8
:101D000080934E052093520590914D058091510589
:101D100080934D059093510580914C058093D80791
:101D20004091500540934C05809350053F5F3093A0
:101D3000530531110DC02F5F20935205211108C0AA
:101D40009F5F90935105911103C08F5F8093500561
:101D5000809148059091490590938E0580938D055B
:101D600020914A0530914B05309349052093480551
:101D700090934B0580934A058091400590914105D1
:101D800090934505809344058091420590914305C9
:101D9000909347058093460580911506909116060D
:101DA0009093410580934005809117069091180605
:101DB0009093430580934205C6C3473099F08F5FE7
:101DC0008430F1F0282F30E0929FF001939FF00DC6
:101DD0001124E85AF84F418D4111EFCF8093D80775
:101DE000EF0110C0209721F0528D4A8D451738F72A
:101DF000929FE001939FD00D1124C85AD84FDFCF96
:101E00008093D807209709F4DDC3D0932105C093B0
:101E1000200583E08A8F888F1E8A84E08F8B1B8E3B
:101E200080914A0590914B059D838C838091480554
:101E3000909149059F838E83809140059091410543
:101E40009983888380914205909143059B838A837F
:101E500081E0898F80911B058C8780911C058D877F
:101E600080911D058E8780911E058F8781E090E00F
:101E7000998B888B80914F058B8780914E058A873F
:101E800080914D05898780914C05888781E090E09D
:101E90000E94456180915405982F907F913508F4F8
:101EA00044C082958F7090E00597880F991F880F26
:101EB000991F20918C05ED2DF0E0E817F9078CF5BE
:101EC000EA5DFA4F26A9211105C0D092D8071092D9
:101ED0008C052BC0213011F4D394EDCF2230E1F4E6
:101EE00037A93430C9F4D092D80720938C0580AD3F
:101EF00090E0982F882721AD822B90938E058093B8
:101F00008D058130E2E09E0710F080E092E09B8B2F
:101F10008A8B9D8B8C8B09C037A9332311F0D30E8C
:101F2000CACFD092D80720938C0580E180935505C5
:101F30008091550582608093550582E080935C0511
:101F400094E090935D0580935E0510925F058CE2AE
:101F500090E0909323058093220580E6A2C2E801D9
:101F6000109321050093200510921F0590915505AF
:101F7000F92FF470BF2E92FF03C0198E80E239C290
:101F80008091540582958F70880F880F8093D807B1
:101F90006701C81AD108760144E1E41AF108F09209
:101FA0002305E09222052F70223021F4892F8F73B0
:101FB000823111F1E114F10419F4892F8370E1F0F9
:101FC00020914C05D80118968C91189728135FC260
:101FD00020914D0519968C911997281358C220917C
:101FE0004E051A968C911A97281351C220914F05CD
:101FF0001B968C9128134BC294FF63C0F801608933
:1020000071896115710509F45CC0C8010C960E94C4
:102010002B623091500580911505381352C02091E4
:1020200051058091160528134CC09091520580915E
:102030001705981346C080915305409118058413E5
:1020400040C0D8011C963C931C971D962C931D975D
:102050001E969C931E971F968C931F975B968C9150
:102060005B97811126C056969C91569758968C91F5
:1020700058975A962C915A97821B292F2695269568
:102080002695821B980F56969C93569787FD8195AF
:1020900057962C915797322F36953695231B820FE2
:1020A00057968C935797969596959695890F58962F
:1020B0008C9381E080931F05F801808D828F118AB7
:1020C000108AD80159962C91E22FEF708E2F90E054
:1020D000FC013197E830F10508F074C28827EE580A
:1020E000FF4F8F4F0C94E56780911F0580FF6AC2F8
:1020F00083E0F801818F80E480931F05118A108AA4
:10210000E114F10409F403C182E480931F05C701BF
:102110000E944561FCC080911F0580FF76C08091C0
:1021200055058F73823109F070C080915405982F46
:10213000907F913508F449C082958F7090E00597A3
:10214000880F991F880F991F20918C05EB2DF0E0C7
:10215000E817F907B4F5EA5DFA4F26A9211105C081
:10216000B092D80710928C0530C0213011F4B3948E
:10217000EDCF223009F537A93430F1F4B092D80709
:1021800020938C0580AD90E0982F882721AD822B7D
:1021900090938E0580938D058130F2E09F0710F0BB
:1021A00080E092E0D80153969C938E935297559677
:1021B0009C938E93549709C037A9332311F0B30E23
:1021C000C5CFB092D80720938C0583E0F801818FAA
:1021D00080914C05808780914D05818780914E05C7
:1021E000828780914F05838781E090E00E9445615E
:1021F00082E480931F05D80151961C921E9250973D
:10220000109223051092220582C080E280931F0560
:102210000E940F28E801198E59CD8091550580FF45
:1022200027C024FD25C0F80180899189892B09F0F8
:10223000C9C1C60143970E94456180911F05982F2F
:10224000906190931F05EF2819F0826180931F051C
:102250000E940F2881E090E0D80151969C938E93C4
:10226000509788E059968C9359975B961C926DC055
:1022700085FF15C080915A0590E0982F88273091EE
:102280005B05832BAC01445A5A4F5093250540936C
:102290002405E81AF90AF0922305E09222054091FC
:1022A0002205509123054115510551F024FD08C028
:1022B00090911F05926090931F05CA010E9445618D
:1022C0008091560590E0982F882720915705820F1E
:1022D000911D90938E0580938D05F8012489358991
:1022E0002817390710F0892B21F430938E0520939D
:1022F0008D0580918D0590918E05D80153969C9304
:102300008E93529780911F05837009F45BC11092E0
:102310009205109291050E940F2880911F0585FF5C
:1023200007C01092920510929105198E84E1B0C0F9
:1023300084FF0DC0109292051092910581E090E00B
:10234000998B888B84E0898F1B8E81E1A1C02091BD
:1023500091053091920521153105E1F080FF02C011
:10236000198A188A88899989009781F48A899B89B2
:102370008217930720F490939205809391058091A2
:10238000910590919205998B888B04C0909392054A
:10239000809391051B8E80918F059091900590936D
:1023A0002505809324058091910590919205892BB4
:1023B00059F088899989009739F088969093230578
:1023C0008093220588E10BC080911F0581FFFAC030
:1023D00088E290E0909323058093220580E180932A
:1023E00055055EC080911F0580FFECC0E801198E85
:1023F00080E180931F050E940F28E4C0E114F104DE
:1024000019F0C7010E9445619091550580911F0503
:1024100090FF0EC080FF07C087E0F801818F128E09
:10242000118A108A1BC086E0D80159968C9316C079
:1024300080FF1EC085E0E801898F198A188AC2C012
:10244000E114F10419F0C7010E944561809155051E
:1024500080FF0EC087E0F801818F128E81E090E04E
:102460000E94456180E180931F050E940F280FC0E4
:10247000EF2869F4A7C080911F0580FFA3C087E003
:10248000D80159968C9359975A961C929BC080E11B
:102490008093550588E290E0909323058093220570
:1024A00080E58093540588858093500589858093C5
:1024B00051058A85809352058B85809353058C85C1
:1024C00080934C058D8580934D058E8580934E05B8
:1024D0008F8580934F0586E080933D058C819D819B
:1024E00090934905809348058E819F8190934B0579
:1024F00080934A05809115069091160690934105A8
:10250000809340058091170690911806909343059B
:102510008093420588819981909345058093440575
:102520008A819B819093470580934605898D84FF1E
:1025300005C0109257051092560505C082E08093A1
:1025400056051092570580E480933C058091220542
:1025500090912305909336058093370510925B0583
:1025600010925A05109259051092580586E00E9463
:10257000932480959095909359058093580585E410
:10258000809334051092350510923B0510923A0560
:1025900080918A0590918B05019690938B0580938D
:1025A0008A05909338058093390510923F05109263
:1025B0003E050E941B258095909590933F05809342
:1025C0003E0504C0109223051092220510921F05AB
:1025D000DF91CF911F910F91FF90EF90DF90CF90FF
:1025E000BF9008950F931F93CF93DF93DC01209149
:1025F0005607309157072F5F3F4F21158DE738075A
:1026000010F020E030E1522F432FEAE2F7E080E0C3
:10261000843041F0C481D5818F5F3B96C417D507C4
:10262000B9F7E9CF309357072093560790E08BE036
:102630009430D1F0292F30E041E0490F829FF00122
:10264000839FF00D1124E65DF84FEF01249604817D
:102650001581012B39F49093D807309741F480E02D
:1026600090E02EC0942FE4CF9093D807F8CF8091BC
:102670005607909157079827892798279983888329
:1026800077836683109729F4108211821282138255
:102690000BC08D919C9111979183808312968D919F
:1026A0009C911397938382838BE0829FD001839FB9
:1026B000B00D1124A65DB84F80E418968C93CF011D
:1026C000DF91CF911F910F91089508952F923F921E
:1026D0004F925F926F927F928F929F92AF92BF9232
:1026E000CF92DF92EF92FF920F931F93CF93DF93DE
:1026F000CDB7DEB72D970FB6F894DEBF0FBECDBFB6
:102700009D878C876A30A1F4DC0154962C915497F4
:102710001E968D919C911F97B8E02B9F800D911D67
:102720001124EC85FD859787868715861486FBC066
:102730006D3009F4F8C0AC85BD855496BC91B98361
:10274000EC85FD850288F389E02DFD83EC83AC8563
:10275000BD8550960D90BC91A02DBF83AE83EC85B6
:10276000FD8586849784C484D58480859185C81628
:10277000D906C4F0AC85BD8554964C915497242F4E
:1027800030E01C968D919C911D97B6E04B9F800D7B
:10279000911D1124EC85FD8595878487468941111B
:1027A0009EC0C1C0AC85BD851A968D919C911B972A
:1027B00088169906FCF6B981AB2EB12CC601E6E06D
:1027C000BE9F800D911D1124181619069CF6C50197
:1027D00023E0880F991F2A95E1F7880D991D181697
:1027E000190644F6AC85BD8557968C91811103C0BE
:1027F000603B08F06F5FB5E06B9FB00111241601DC
:102800001A82FB01EC19FD09F987E8879401285F1A
:102810003F4F3B872A873A81353049F0E885F98573
:10282000E20DF31DE753FC4F54915B8301C01B8203
:10283000240134018B8180FF13C0AC85BD85ED91EF
:10284000FC91B981B13031F40084F185E02D2E8105
:102850003F8119C00288F389E02DEE80FF801EC001
:10286000EC81FD812E813F81E217F307F1F0AC8509
:10287000BD85ED91FC91B981B13059F40084F185A9
:10288000E02D2C813D81A301B1018C859D85199599
:102890000CC00288F389E02DEC80FD808501950154
:1028A000A201B6018C859D851995EB81E695EB8398
:1028B000FFEF6F1A7F0A4A0C5B1C2A853B85621664
:1028C000730609F0B7CF3A813F5F3A835FEF251A6D
:1028D000350ACA0CDB1C363009F09DCF4BCF4AEFCE
:1028E0004203B001439F700D1124AC85BD8518963D
:1028F0004D915C911997460F571F481759079CF443
:1029000083E0220F331F8A95E1F71E968D919C91EB
:102910001F97280F391F1F963C932E931E971D96C5
:102920001C921E921C9781E090E02D960FB6F894B1
:10293000DEBF0FBECDBFDF91CF911F910F91FF90F2
:10294000EF90DF90CF90BF90AF909F908F907F904F
:102950006F905F904F903F902F900895EF92FF926D
:102960000F931F93DC01ED91FC9111971A960D9135
:102970001C911B9718962D913C9119970288F38909
:10298000E02D7B0140E050E060E070E019951F9180
:102990000F91FF90EF9008956F927F928F929F9288
:1029A000AF92BF92CF92DF92EF92FF920F931F935D
:1029B000CF93DF936C015A014801EB013B01620E9A
:1029C000731EC615D70574F4D601ED91FC910484ED
:1029D000F585E02D87019401A501BE01C601199579
:1029E0002196EFCFDF91CF911F910F91FF90EF9044
:1029F000DF90CF90BF90AF909F908F907F906F901F
:102A00000895EF92FF920F931F93DC01ED91FC91DB
:102A1000260F371F215031090284F385E02D7801FC
:102A20008A0119951F910F91FF90EF900895EF92F1
:102A3000FF920F931F937801DC01ED91FC91240F1D
:102A4000351F8901015011090284F385E02D9B0196
:102A500019951F910F91FF90EF9008956F927F92BB
:102A60008F929F92AF92BF92CF92DF92EF92FF929E
:102A70000F931F93CF93DF93EC014B015A01690130
:102A80003801E881F9810684F785E02D87011995E1
:102A9000E881F981A501460D571D41505109068471
:102AA000F785E02D9601B401CE011995E881F981F1
:102AB0000484F585E02D9301A501B401CE0119959B
:102AC000E881F981C80CD91CB601615071090484F0
:102AD000F585E02D9301A501CE011995DF91CF91E8
:102AE0001F910F91FF90EF90DF90CF90BF90AF902C
:102AF0009F908F907F906F9008952F923F924F926A
:102B00005F926F927F928F929F92AF92BF92CF927D
:102B1000DF92EF92FF920F931F93CF93DF9300D03A
:102B2000CDB7DEB74C017B836A836A015901170177
:102B30009801241B350B37FF03C0319521953109CE
:102B4000C5014A815B81841B950B97FF03C091955A
:102B50008195910951E059838217930714F01982E6
:102B60000BC09A2D8B2D5801092F182F9A818B811C
:102B7000DB82CA82C92ED82E8A819B81A816B9060B
:102B80005CF49C2D8D2D6801092F182F9A818B8163
:102B9000BB82AA82A92EB82E2501AA81BB814A1A1E
:102BA0005B0A38016C187D0877FE03C0719461944C
:102BB0007108720157FE03C0BFEFEB1AFB0AF594D0
:102BC000E794C016D1061CF00FEF1FEF1FC001E005
:102BD00010E01CC0D401ED91FC91B9810084F18515
:102BE000E02D9101BB23C1F04A815B81B601C40194
:102BF0001995E618F708F7FE04C0C00ED11EE40CC4
:102C0000F51CEA81FB813196FB83EA834A815B8173
:102C1000A416B506FCF604C0A6016A817B81E7CF45
:102C20000F900F900F90DF91CF911F910F91FF9018
:102C3000EF90DF90CF90BF90AF909F908F907F905C
:102C40006F905F904F903F902F90089585ED809307
:102C5000BC008091BC0084FDFCCF109263080895F5
:102C60004091DD05262F30E0240F311D2132310542
:102C7000DCF4209163082430C9F4FC0180E090E08A
:102C8000861758F43091DD052191DC01A554BA4F27
:102C9000A30FB11D2C930196F3CF8091DD05680F32
:102CA0006093DD0580E0089581E0089582E0089555
:102CB0000895E0919A0580919905E81730F4F0E0C5
:102CC000E556FA4F808190E008958FEF9FEF0895C9
:102CD00090919A0580919905981750F4E92FF0E0AA
:102CE000E556FA4F208130E09F5F90939A0502C02D
:102CF0002FEF3FEFC90108958091990590E0209151
:102D00009A05821B91090895CF92DF92EF92FF926C
:102D10000F931F93CF93DF937C01262F972F8A0168
:102D200080916408882391F0C62FD72F6E01C40EBE
:102D3000D51ECC15DD0569F06991D701ED91FC91A7
:102D40000190F081E02DC7011995F3CF642F822FF8
:102D500087DFC801DF91CF911F910F91FF90EF9016
:102D6000DF90CF900895CF93DF931F92CDB7DEB75A
:102D70006983209164082223D1F0209187082032B2
:102D800040F021E030E0FC013383228380E090E0DA
:102D900014C080916508E82FF0E0EA59F74F998157
:102DA00090838F5F809365088093870804C061E0FB
:102DB000CE01019655DF81E090E00F90DF91CF9139
:102DC0000895089580E090E008952F923F924F92E9
:102DD0005F926F927F928F929F92AF92BF92CF92AB
:102DE000DF92EF92FF920F931F93CF93DF93CDB7B4
:102DF000DEB7A2970FB6F894DEBF0FBECDBFFC01C1
:102E0000EC5BFF4F208133E03227DC01A30FB11DC3
:102E100014966C932F5F2083203409F0BEC1319645
:102E200080809180A280B38089869A86AB86BC869A
:102E30003496A080B180C280D380AD86BE86CF8616
:102E4000D88A3496C080D180E280F380C98ADA8A39
:102E5000EB8AFC8A3496E080F18002811381ED8A4E
:102E6000FE8A0F8B188F3496008111812281338165
:102E7000098F1A8F2B8F3C8F0D8F1E8F2F8F38A3AA
:102E800029853A854B855C852D833E834F83588702
:102E9000CD84DE84EF84F8884D895E896F89788DD2
:102EA00049835A836B837C8309891A892B893C89DE
:102EB000212C312C522C50E125163104C8F44981C3
:102EC0005A816B817C8140275127622773274C21CF
:102ED0005D216E217F2189809A80AB80BC8048254E
:102EE00059256A257B25475656486D47754A9CC02B
:102EF000422D4F703C0154E0459F600C711C112421
:102F0000D1011D96AF70BB271196AA0FBB1FAA0F48
:102F1000BB1FA80FB91FF1013896EF70FF2731963C
:102F2000EE0FFF1FEE0FFF1FE80FF91F8D909D9012
:102F3000AD90BC90408151816281738148255925B3
:102F40006A257B25D30114968D909D90AD90BC9001
:102F50001797482559256A257B25F1013296EF7090
:102F6000FF273196EE0FFF1FEE0FFF1FE80FF91F2F
:102F700080809180A280B380482559256A257B25D1
:102F8000440F551F661F771F411DF301448355836E
:102F900066837783F3E1F21508F091CF57E2852E2F
:102FA000821488F049815A816B817C8140275127A6
:102FB000622773274C255D256E257F254F5554418B
:102FC0006642714931C04BE3942E9214E8F0B70188
:102FD000A601402B512B622B732B89809A80AB80EA
:102FE000BC80482159216A217B214601570180225A
:102FF0009122A222B322482959296A297B294452C5
:103000005344644E704710C049815A816B817C8162
:1030100040275127622773274C255D256E257F2584
:103020004A525E436D497543F52DFF705C01A4E083
:10303000FA9FA00CB11C1124BAA2A9A24D805E80F7
:103040006F807884EBE17694679457944794EA957F
:10305000D1F78D809E80AF80B884F5E0880C991CF4
:10306000AA1CBB1CFA95D1F784289528A628B72856
:10307000E9A1FAA14480558066807780840C951C74
:10308000A61CB71C480D591D6A1D7B1D8D8C9E8C7E
:10309000AF8CB8A0480D591D6A1D7B1D4601570114
:1030A000A2E0B694A79497948794AA95D1F72601A5
:1030B0003701BEE1440C551C661C771CBA95D1F74C
:1030C000482859286A287B28AFEF2A1A3A0ACD8067
:1030D000DE80EF80F88489809A80AB80BC808D8E02
:1030E0009E8EAF8EB8A2A0E52A16310459F04D830A
:1030F0005E836F83788709831A832B833C839301D4
:103100008201D8CEFC01EB5BFF4F89849A84AB84AB
:10311000BC84480D591D6A1D7B1D40835183628309
:1031200073833496B701A601AD84BE84CF84D8885A
:103130004A0D5B1D6C1D7D1D40835183628373832B
:103140003496C988DA88EB88FC884C0C5D1C6E1CB0
:103150007F1C408251826282738234964D895E89DF
:103160006F89788D040F151F261F371F0083118369
:1031700022833383349649815A816B817C81898C87
:103180009A8CAB8CBC8C480D591D6A1D7B1D4083ED
:1031900051836283738371971082A2960FB6F8945D
:1031A000DEBF0FBECDBFDF91CF911F910F91FF907A
:1031B000EF90DF90CF90BF90AF909F908F907F90D7
:1031C0006F905F904F903F902F900895262FFC01B5
:1031D000E75AFF4F40815181628173814F5F5F4F9A
:1031E0006F4F7F4F4083518362837383622FEDDD86
:1031F00081E090E00895DC01FB0180818695869551
:103200008C9380818370918192959F7020E1829F41
:10321000900D112411969C93119791819F70990F95
:10322000990F22812295269526952370920F12964A
:103230009C93129782818F7313968C9308951F929B
:103240000F920FB60F9211240BB60F922F933F934C
:103250004F935F936F937F938F939F93AF93BF939E
:10326000EF93FF938091B900887F803609F49CC06A
:1032700068F5883209F45BC090F4803109F454C0D9
:1032800038F4882309F4F6C0883009F44DC0F5C03D
:10329000883109F44CC0803209F45DC0EEC080343E
:1032A00009F468C048F4803309F455C0883309F044
:1032B000E4C080936108D8C0803509F44FC08835D8
:1032C00009F45DC0883409F0D8C0D6C0883909F443
:1032D000C7C0A8F4883709F467C038F4883609F401
:1032E00063C0803709F460C0C8C0883809F4B8C02A
:1032F000803909F45FC0803809F0BFC05BC0803BF3
:1033000009F486C038F4803A09F466C0883A09F4B2
:103310007FC0B3C0803C09F4A7C0883C09F4A4C0B6
:10332000883B09F48AC0A9C080913E0810C09091E2
:10333000600880915F08981770F5E091600881E05F
:103340008E0F80936008F0E0E15CF74F80818093FE
:10335000BB0085EC86C0809361088EC0E091600858
:1033600081E08E0F809360088091BB00F0E0E15C0B
:10337000F74F80839091600880915F086EC0E09164
:10338000600881E08E0F809360088091BB00F0E0C0
:10339000E15CF74F80838091620881116DC081E00C
:1033A00080933D0884EA61C083E0809363081092B3
:1033B0000106CFCF80910106803208F051C0E09124
:1033C000010681E08E0F809301068091BB00F0E042
:1033D000EF51FA4F8083BDCF85EC8093BC001092F3
:1033E000630880910106803230F4E0910106F0E03C
:1033F000EF51FA4F10826091010670E0E091DF0515
:10340000F091E00581EE95E019951092010635C026
:1034100084E0809363081092DE051092DD05E09150
:10342000DB05F091DC0519958091DD05811105C062
:1034300081E08093DD051092BB05E091DE0581E01F
:103440008E0F8093DE05F0E0E554FA4F8081809383
:10345000BB009091DE058091DD05981708F479CFC7
:1034600085E88093BC0009C085EC8093BC00109275
:10347000630803C010926108E9DBFF91EF91BF91EF
:10348000AF919F918F917F916F915F914F913F91FC
:103490002F910F900BBE0F900FBE0F901F9018959D
:1034A000CF92DF92EF92FF920F931F93CF93DF9310
:1034B000CDB7DEB72C970FB6F894DEBF0FBECDBFE9
:1034C0006B018C010E5E1F4F7C012EEAE20EF11C97
:1034D000C8010E94DF27882349F1C8010E944823C0
:1034E0008823D9F0B601CE0107960E94084BBE0191
:1034F000695F7F4FCE0101960E94084BBE016F5F4E
:103500007F4FC8010E967DD7CE0101960E94E33F02
:10351000CE0107960E94E33F09C068E873E088E89F
:1035200098E00E94F14BC8010E94F427095D1F4FEB
:103530000E151F0569F62C960FB6F894DEBF0FBE68
:10354000CDBFDF91CF911F910F91FF90EF90DF9052
:10355000CF900895CF93DF93EC010E94B22C20E628
:103560003AEE40E050E00E947F6688819981B9017F
:10357000681B790BCB01DF91CF910895CF92DF9239
:10358000EF92FF920F931F93CF93DF938C01EB0188
:103590000E94B22C20E63AEE40E050E00E947F66A6
:1035A000CE010D2E000CAA0BBB0B69017A01C81AC3
:1035B000D90AEA0AFB0A21EAC21625E0D206E1048A
:1035C000F10428F4F801D183C08381E000C0DF91C9
:1035D000CF911F910F91FF90EF90DF90CF900895C2
:1035E000CF93DF93EC01B6DF9C012F5F3F4F8C85BB
:1035F0009D85821793072CF48E859F8528173907A0
:1036000064F088899989821793074CF481E04A898C
:103610005B892417350724F002C081E001C080E0F7
:10362000DF91CF910895CF93DF93EC0193DF9C015D
:103630002F5F3F4F8C819D81821793072CF48E81E1
:103640009F812817390764F0888599858217930729
:103650004CF481E04A855B852417350724F002C0CD
:1036600081E001C080E0DF91CF910895FF920F9338
:103670001F93CF93DF938C0160E00E943A3CF801E6
:10368000808191E090936408809386081092650889
:103690001092870860E08AE29AE065DB81E00E9490
:1036A000DD3BF8012081809163088111FCCF81E02E
:1036B00080936308809362089FEF90936108109253
:1036C000600880935F0880933E0890913E08822FA7
:1036D000880F892B80933E0880913D08813061F4EA
:1036E00010923D0880913E088093BB008091BC0001
:1036F00083FDF8CF85EC01C085EE8093BC008091FE
:1037000063088130E1F380916008823018F4809181
:10371000600801C082E0AFE3B8E02BE935E0F901D1
:103720009E2F921B981718F49D919193F9CF1092A8
:103730009A05809399058AE29AE0CADAF82E8AE21D
:103740009AE0C6DAEC0161E0C8010E943A3C60E010
:1037500070E07F2D6C2B7D2B072E000C880B990BB6
:103760000E946C6520E030E040E05DE30E94CB65A4
:1037700020E030E040E05EE30E94CB65DF91CF9136
:103780001F910F91FF9008951F93CF93DF93EC014A
:1037900011E01EA761E08CA50E94A22B1AA761E090
:1037A00088A5DF91CF911F910C94A22BEF92FF92ED
:1037B0000F931F93DC01ED91FC910288F389E02DBA
:1037C000780101E010E019951F910F91FF90EF90A3
:1037D0000895EF92FF920F931F93DC01ED91FC91FE
:1037E0000288F389E02D7801890121E030E0199504
:1037F0001F910F91FF90EF900895CF93DF938B98D7
:103800008A98E0910201292F3327E901C07CDD2746
:10381000F3E0D595C795FA95E1F7D901A370BB27D9
:10382000D5E0AA0FBB1FDA95E1F77C2F7A2BE7785A
:103830007E2B7093020175B1F901EC72FF27EE0F38
:10384000FF1FEE0FFF1F7F74E72BE5B974B32071E4
:103850003327220F331F372F3F7D232B24BB89981B
:10386000899A30910201DC01A07CBB27C3E0B595A9
:10387000A795CA95E1F7FC01E370FF27D5E0EE0FAD
:10388000FF1FDA95E1F72A2F2E2B3778232B209371
:10389000020175B19C012C723327220F331F220FB6
:1038A000331F372F3F74232B25B974B39C0120712C
:1038B0003327220F331F372F3F7D232B24BB8998BB
:1038C000899A8A9AFA017FEF760F16160CF094C047
:1038D000219140910201322F307C369536953695F4
:1038E000522F537060E2569FD00111243A2B477833
:1038F000342B3093020165B1322F3C72A4E03A9F21
:10390000A0011124362F3F74432B45B934B32071E5
:10391000220F3F7D232B24BB8998899A772309F4B2
:1039200069C020910C06222309F464C001968A988C
:1039300050910201292F3327E901C07CDD2743E0A4
:10394000D595C7954A95E1F7D901A370BB2765E0E6
:10395000AA0FBB1F6A95E1F74C2F4A2B5778452BCE
:103960004093020165B1A9014C725527440F551FC0
:10397000440F551F562F5F74452B45B944B3207132
:103980003327220F331F342F3F7D232B24BB8998ED
:10399000899A30910201DC01A07CBB27C3E0B59578
:1039A000A795CA95E1F7AC0143705527D5E0440FC0
:1039B000551FDA95E1F72A2F242B3778232B2093F4
:1039C000020145B19C012C723327220F331F220FB5
:1039D000331F342F3F74232B25B944B39C0120712E
:1039E0003327220F331F342F3F7D232B24BB89988D
:1039F000899A8A9A672F67CF8B9ADF91CF91089522
:103A0000CF93DF938B988A98E2E0F1E05081292FE1
:103A10003327E901C07CDD2743E0D595C7954A955A
:103A2000E1F7D901A370BB27D5E0AA0FBB1FDA9538
:103A3000E1F74C2F4A2B5778452B4083A5B1A901BC
:103A40004C725527440F551F440F551F5A2F5F7452
:103A5000452B45B944B320713327220F331F342F30
:103A60003F7D232B24BB8998899A3081DC01A07C7F
:103A7000BB27D3E0B595A795DA95E1F7AC01437084
:103A8000552725E0440F551F2A95E1F72A2F242BAF
:103A90003778232B208345B19C012C723327220FCA
:103AA000331F220F331F342F3F74232B25B924B328
:103AB00080719927880F991F922F9F7D892B84BB36
:103AC0008998899A8A9A3081872F9927DC01A07C6E
:103AD000BB27C3E0B595A795CA95E1F7AC01437044
:103AE0005527D5E0440F551FDA95E1F72A2F242BEF
:103AF0003778232B208345B19C012C723327220F6A
:103B0000331F220F331F342F3F74232B25B924B3C7
:103B100080719927880F991F922F9F7D892B84BBD5
:103B20008998899A9081AB01407C5527B3E05595DF
:103B30004795BA95E1F79B0123703327C5E0220F23
:103B4000331FCA95E1F7842F822B9778892B8083C6
:103B500025B1CB018C729927880F991F880F991F67
:103B6000922F9F74892B85B984B360717727660F74
:103B7000771F8F7D682B64BB8998899A8B9ADF9118
:103B8000CF9108958F929F92AF92BF92CF92DF9282
:103B9000EF92FF920F931F93CF93DF9300D01F926A
:103BA000CDB7DEB77C014B016A015901FC01848D60
:103BB000958D8732F3E99F0799F4F7018589823063
:103BC00031F4F0E2CF0ED11C005E1F4F1DC08330D8
:103BD000D9F420E2820E911C80E2A80EB11C14C020
:103BE0008632954189F4F701858980FF0DC0C801AF
:103BF000841B950B19F40F5F1F4F06C0261737075C
:103C000019F4A80EB91E8A01F701828D80FF37C012
:103C100082A599828A82BB82AC82AE014F5F5F4FE0
:103C200064E090E0EADDF70186A5D982CA821B83B1
:103C30000C83AE014F5F5F4F64E090E0DEDD80916A
:103C40000C06882309F451C0F701848D958D8536C3
:103C5000910509F04AC099828A82AE014F5F5F4F99
:103C600062E084A195A1C9DDD982CA82AE014F5F0D
:103C70005F4F62E0F70186A197A1BFDD36C0B401B6
:103C8000F70184A195A1BCDEB601F70186A197A139
:103C9000B7DE8A149B0419F4C016D10631F1F7017E
:103CA000828D85FF0EC0858980FF06C0102F0027FA
:103CB000C02AD12A860105C0BA2CAA248A289B28AA
:103CC0005401B401F70182A593A59ADEB601F7016C
:103CD00086A597A595DEB501F70184A595A590DE8B
:103CE000B801F70180A991A98BDE0F900F900F907A
:103CF0000F90DF91CF911F910F91FF90EF90DF9088
:103D0000CF90BF90AF909F908F900895EF92FF92C9
:103D10000F931F93CF93DF937C01E90177FD28C0B8
:103D200057FD26C0FC01808591856817790704F549
:103D30008285938548175907DCF480910B06882308
:103D400041F0CE018F719927880F991FC17CC82B34
:103D5000D92B8A019B01C70115DFBE01F70180A5A0
:103D600091A5DF91CF911F910F91FF90EF9048CED9
:103D7000DF91CF911F910F91FF90EF900895EF92F7
:103D8000FF920F931F93CF93DF93CDB7DEB72A97A0
:103D90000FB6F894DEBF0FBECDBF7C01862F8370B7
:103DA000D70155968C935597462F417060FF05C0FB
:103DB00016962D913C91179703C0F7012481358108
:103DC000D70119963C932E931897442329F0149603
:103DD0002D913C91159703C0F70126813781D701BA
:103DE0001B963C932E931A97823041F0833041F01A
:103DF000813011F088E405C088E203C088E901C081
:103E000088EF8A87F701228D338D30FF03C08A85C2
:103E100080588A8731FF04C09A8580E489278A8781
:103E200033FF04C09A8588E089278A87D7015C968A
:103E30008D919C915D9720FFD1C08431B8E69B079E
:103E4000F1F49A85892F881F8827881F8295880F0B
:103E5000880F807C96FD02C020E001C020E29872AD
:103E60009A871F828260822B88878BE38987AE01C5
:103E7000495F5F4F63E086EB90E0BFDC84C0833630
:103E8000E9E19E0741F08138F4E99F0721F0813193
:103E900025E1920709F52A8527FF02C021602A87BC
:103EA0002A8526FF02C022602A87833639E19307DC
:103EB00019F48A858F730EC0813844E9940719F488
:103EC0008A858F7207C08131954109F05CC08A856F
:103ED0008F7E806C8A8757C020910C06222309F4BC
:103EE00052C062E070E0F70175A364A326E030E001
:103EF00037A326A3E2E2F0E0D7019996FC93EE9374
:103F000098979B967C936E939A9764E070E09D9649
:103F10007C936E939C979F963C932E939E9728E05C
:103F200030E0D1963C932E93D0978536910501F5DC
:103F30009A8594FD03C081E889278A87442351F03C
:103F400082E890E0F70195A384A380E890E097A32E
:103F500086A32EC080E890E0D70195969C938E931F
:103F6000949782E890E097969C938E93969720C0C2
:103F700082359245E9F48A8584FD02C0826001C0E1
:103F800086608A8715C02AE230E0F70135A324A3B2
:103F90008BE290E097A386A34CE250E051A740A7A4
:103FA00033A722A735A724A797A786A791AB80ABF5
:103FB00080910C06811103C086E390E002C086E187
:103FC00090E0AE01465F5F4F61E017DC8A8590E0CC
:103FD000D70191969C938E939097E3C02A8583395D
:103FE000B7E79B0709F448C050F48435F1E09F0718
:103FF00081F0803234E5930709F081C03DC08632FC
:1040000043E99407C9F18930A5EB9A0709F077C015
:1040100033C087E390E0F70193A782A786E390E09F
:1040200095A784A789E390E097A786A788E390E007
:1040300091AB80AB80E290E095A384A381E290E015
:1040400097A386A382E290E091A780A7822F022EF9
:10405000000C990B8827990F881F9927982F88277C
:10406000990F26FD03C060E070E002C060E071E0DF
:104070008862682B792B81C040E052E0D701959689
:104080005C934E93949741E052E097965C934E93E5
:10409000969742E052E099965C934E93989740E150
:1040A00052E09B965C934E939A9741E152E09D9625
:1040B0005C934E939C9742E152E09F965C934E93A3
:1040C0009E9743E152E0D1965C934E93D09727FDA3
:1040D00003C020E030E002C020E030E88632B3E9DF
:1040E0009B0731F08032944519F060E07AE602C017
:1040F00060E075E3622B732B80E094E035C080E2D2
:1041000090E0D70195969C938E93949781E290E0EE
:1041100097969C938E93969782E290E099969C93C3
:104120008E93989780E590E09B969C938E939A97B8
:1041300081E590E09D969C938E939C9782E590E01C
:104140009F969C938E939E9783E590E0D1969C9347
:104150008E93D09727FD03C060E070E002C060E05E
:1041600070E8776280E690E04BDC8A8586FD03C0CC
:1041700060E070E002C060E071E081E090E040DC6F
:104180008A8585FD03C060E070E002C068E070E0F1
:1041900083FD70616063F70171A360A383E090E029
:1041A0002FDCD70155968C91559780FF36C05A96D3
:1041B0008D919C915B9792FD30C094968D919C91CE
:1041C000959796962D913C91979795963C932E9323
:1041D000949797969C938E9396979A968D919C918F
:1041E0009B979E962D913C919F979B963C932E93E7
:1041F0009A979F969C938E939E979C968D919C9157
:104200009D97D0962D913C91D1979D963C932E935E
:104210009C97D1969C938E93D097F7010285138536
:1042200001501109208531852150310940E050E0CD
:1042300060E070E0C701A6DCD70116966D917C9115
:1042400017975C968D919C915D978732B3E99B0798
:1042500049F4F70125892250223008F49EC000E07D
:1042600010E09DC000E010E020E030E0D7015A9659
:104270004C9140FF46C01982102F0A837B836C83C8
:104280001D822E8380910C06811103C083E390E090
:1042900002C08EE090E0AE014F5F5F4F66E0ADDAA6
:1042A00019821A8380910C06811103C087E390E084
:1042B00002C084E190E0AE014F5F5F4F62E09DDAA3
:1042C00080910C06882389F01982F701848D958DE1
:1042D0008734934819F081E090E002C088E190E0D3
:1042E000AE014F5F5F4F61E00AC0D7015A968C91D3
:1042F00080FF5AC040E050E060E083E190E07DDA6A
:1043000053C08339B7E79B0779F160F48032F4E555
:104310009F0751F1833827E7920791F08435914048
:1043200081F512C0863243E99407F1F028F48552F2
:104330009249029748F025C08930954BA9F021C0D9
:10434000F701668D778D21C0600F711F6150710973
:1043500081E390E055DBB80182E390E051DB60E05F
:1043600070E083E390E017C0D7015E966D917C9179
:104370005F97626081E094E043DBB80184E094E001
:104380000AC0F701668D778D626081E690E038DBC8
:10439000B8018AE690E034DB07C000E210E020E2DA
:1043A00030E0201B310B62CF2A960FB6F894DEBFA7
:1043B0000FBECDBFDF91CF911F910F91FF90EF9076
:1043C0000895CF93DF93EC0188819981DC01ED9111
:1043D000FC910084F185E02D1995892B39F464E175
:1043E00070E080E090E00E947A2CEECF8881998185
:1043F000DC01ED91FC910284F385E02DDF91CF91FA
:1044000019946F927F928F929F92AF92BF92CF92A8
:10441000DF92EF92FF920F931F93CF93DF9300D021
:1044200000D0CDB7DEB78C017B01ADB6BEB669EC6E
:1044300078E088E898E00E944C4BB70188E898E063
:104440000E94DF4BD8018D919C91DC01ED91FC9194
:104450000688F789E02D1995882309F4ACC0F80186
:1044600084898823E1F080819181DC01ED91FC91C8
:104470000190F081E02D60E01995B701F80180818D
:1044800091810E943E4BD8018D919C91DC01ED9170
:10449000FC910190F081E02D6FEF19958CC0B70170
:1044A000CE0101960E94084B8DB69EB6ED80FE802F
:1044B000C7010196EDB7FEB7E81BF90B0FB6F894EC
:1044C000FEBF0FBEEDBF2DB73EB72F5F3F4F690157
:1044D000892B99F02115310581F0E114F10419F4CB
:1044E000D9011C920AC069817A81A701C9010E9481
:1044F000426AF601EE0DFF1D1082F60101900020C8
:10450000E9F731977F01EC18FD08F801808191816E
:10451000DC01ED91FC910190F081E02D61E81995AD
:10452000F80180819181DC01FEE7EF16F104FCF0D7
:10453000ED91FC910190F081E02D6EE71995F80165
:1045400080819181DC01ED91FC910190F081E02D61
:104550006F2D1995F80180819181DC01ED91FC911D
:104560000190F081E02D61E01995360107C0ED91D1
:10457000FC910190F081E02D6E2DF6CFC3018C19D6
:104580009D098E159F0574F4F80180819181D301F6
:104590006D913D01DC01ED91FC910190F081E02DE8
:1045A0001995ECCF0FB6F8949EBE0FBE8DBECE010E
:1045B00001960E94E33F0FB6F894BEBE0FBEADBE9B
:1045C00026960FB6F894DEBF0FBECDBFDF91CF9118
:1045D0001F910F91FF90EF90DF90CF90BF90AF9021
:1045E0009F908F907F906F900895FB0141505109EB
:1045F000460F571FE417F50778F4208130E0322F7B
:1046000022276181260F311D820F931F8217930786
:1046100008F401963296EECFE417F50751F42081A5
:1046200030E0322F2227820F931F8217930708F45E
:1046300001960895CF93DF931F92CDB7DEB7DC01CB
:10464000ED91FC910288F389E02D41E050E0BE013C
:104650006F5F7F4F199597FD03C0898190E002C07D
:104660008FEF9FEF0F90DF91CF910895FC0144856C
:1046700055854115510551F0FB01248535852115DE
:10468000310521F081E04217530709F080E00895D9
:10469000DC011C96ED91FC911D97309739F08181DA
:1046A000811106C0808182958170089580E008950F
:1046B00081E008950F931F93CF93DF93EC018C015A
:1046C0000B5F1F4F88810E94082D1992C017D107D8
:1046D000C9F7DF91CF911F910F910895CF93DF9389
:1046E000EC01E881F981008CF18DE02D199588238A
:1046F00031F08C859D850196DF91CF91DBCFDF91E5
:10470000CF9108950F931F93CF93DF93EC01DC01BA
:104710008D918D010E94082DFE01CE010496D801D5
:104720002D918D012193E817F907C9F71C82DF91BC
:10473000CF911F910F910895EF92FF920F931F93C6
:10474000CF93DF93EC01E881F981008CF18DE02DAE
:1047500019958823B9F08C859D857C012FEFE21A8D
:10476000F20A8C010A5F1F4FC0E0D0E0F70181918F
:104770007F010E94742FC80FD91FE016F106B1F710
:10478000CE0102C080E090E0DF91CF911F910F91A8
:10479000FF90EF9008950F931F93CF93DF931F9295
:1047A000CDB7DEB78C01DC01ED91FC91008CF18D71
:1047B000E02D1995882391F0D8011C96ED91FC917C
:1047C0001D978181882351F041E050E0BE016F5F69
:1047D0007F4F0E94543C898190E002C08FEF9FEF91
:1047E0000F90DF91CF911F910F9108956F927F925B
:1047F0008F929F92AF92BF92CF92DF92EF92FF92F1
:104800000F931F93CF93DF937C015B01EA01DC01DF
:10481000ED91FC91008CF18DE02D1995882309F420
:104820006EC0D7011C96ED91FC911D978181882364
:1048300009F468C06E010EE1BE016C197D096A0DB4
:104840007B1DD7011C96ED91FC911D97A6018181DE
:104850000E94543C4C01F70164847584D301119685
:104860001C91812F0E94742F8816990679F5C8181B
:10487000D908C301019646DFF701A485B5858C915F
:10488000282F30E02F70029FF001039FF00D1124BC
:10489000E85AF84F918D94FF05C0982F907611F447
:1048A00080688C93D7011C96ED91FC911D978181B6
:1048B00081111FC0808186FF05C010821D961C9249
:1048C0001E921C97CE018C199D091EC0B5E01B9F3E
:1048D000F0011124E75EF94F80819181880D991DC7
:1048E000918380838281938188199909938382833C
:1048F00004C0C114D10409F09FCFCE0105C08FEFD1
:104900009FEF02C080E090E0DF91CF911F910F9167
:10491000FF90EF90DF90CF90BF90AF909F908F90DF
:104920007F906F900895EF92FF920F931F93CF9314
:10493000DF93C82FE0903705F12C84E1E81AF108E5
:104940002091360530E0322F2227E20EF31E48E098
:1049500050E060E475E0C7018C0F911D46DEC13167
:1049600031F0C0915405C695C695CC7301C0C8E01E
:10497000D0E0AE0168E475E038DE8C01CE15DF05CD
:1049800008F04AC0A7014C1B5D0BBE016E5D7F4F56
:104990008091120B0E943A2FEC01219760E085E391
:1049A000D1D68AE38EBD0DB407FEFDCFA80160E02D
:1049B00070E06C177D07C8F41EBC0DB407FEFDCF78
:1049C0002EB530E0322F22271EBC0DB407FEFDCFDE
:1049D0008EB5280F311D420F531F4217530710F495
:1049E0004F5F5F4F6E5F7F4FE4CF8A016C177D078B
:1049F00081F41EBC0DB407FEFDCF8EB590E0982F5C
:104A000088278A01080F191F0817190710F40F5F6C
:104A10001F4F61E085E396D60115110519F0902F1F
:104A2000812F02C08FEF9FEFDF91CF911F910F91E8
:104A3000FF90EF90089544E150E064E375E080E07A
:104A400090E0D3DD009721F09827892798270895D3
:104A50008FEF9FEF0895DF92EF92FF920F931F93D6
:104A6000CF93DF939091110B892F827091FF11C02A
:104A700020910F0B30E046E255E060E070E080915D
:104A8000120B0E94F62E8091110B8D7F8093110BDB
:104A900019C020912205309123052115310519F007
:104AA000C9010E94532E8093120B882309F46DC014
:104AB000209122053091230546E255E060E070E048
:104AC0000E94F62EE091120B80912207882309F4B0
:104AD00055C085E0E89FF0011124E75EF94FC081E1
:104AE000D1812197028113810C0F1D1FCE010E94DD
:104AF000F02DD82E882321F060E0CE010E94DB2D1E
:104B0000BE0184E0E6D7B80186E0E3D70AE010E012
:104B100040E86FE180E89CD740E86FE180EA98D7F1
:104B20004AE06CE180EA94D748E06FE180E890D7F2
:104B300084E6E82EF12C8CE10E94B42D8A7061F499
:104B4000E114F10459F081E0E81AF1086AE070E03C
:104B500080E090E0CFD6EFCFEF2841F448E06FE15E
:104B600080EA76D70150110999F608C0012B31F07F
:104B7000DD2021F06D2DCE010E94DB2D8091120BE6
:104B800047D71092120B81E001C080E0DF91CF91F6
:104B90001F910F91FF90EF90DF900895CF92DF92D9
:104BA000EF92FF920F931F93CF93DF938091220791
:104BB000882309F4FBC1D091100BD11158C089E3AF
:104BC000D3D790912207992309F44FC0882309F481
:104BD0004CC060912307709124078B010A5F1F4F1F
:104BE000011528E0120710F00F5F174080E071D721
:104BF00060E08AE399D790E090932407809323079D
:104C000060E08AE391D72091230730912407382B65
:104C1000309324072093230760E08AE385D7C82FC9
:104C200060E08AE381D7F82E60E08AE37DD7E82E42
:104C300040E46EE180E80CD7E7FE15C080912307C1
:104C4000909124078115984070F4109326070093E3
:104C500025078C2F90E09F29049790932807809335
:104C60002707DFEF02C00E948D2FD093100BC09159
:104C7000100BCC2309F41FC181E08093110B8C2F02
:104C80000E94742F9093230580932205892B09F4A9
:104C900006C142E650E066E275E08C2F0E94543C6B
:104CA000C0913205D0913305C830D10509F044C018
:104CB0008091100B8093120B809122059091230517
:104CC0000E9790932305809322052091150630912D
:104CD00016068091400590914105822793272091E7
:104CE0000D0630910E0682239323892BC1F4209167
:104CF000170630911806809142059091430582274E
:104D0000932720910F063091100682239323892B3D
:104D100031F46CE275E080E495E00E94340B81E0B0
:104D20000E94B10B8091220590912305892B09F4F3
:104D3000B6C00E94400AB2C0C83046E0D40709F0AD
:104D4000AEC0809122059091230510922305109208
:104D500022058A9708F49CC080913A0590913B0502
:104D6000811551E0950729F08115924009F474C02E
:104D70008FC020914C0530914D0580911506909182
:104D800016062817390709F083C020914E05309187
:104D90004F0580911706909118062817390709F0DA
:104DA00077C06CE375E082E495E00E94340B80E00C
:104DB00092E090933B0580933A0586E0ECE3F5E0C2
:104DC000A6E4B5E001900D928A95E1F786E0E2E372
:104DD000F8E0ACE3B5E001900D928A95E1F786E04A
:104DE000E2E3F8E0ACE2B5E001900D928A95E1F7DC
:104DF00086E0E6E4F5E0A6E2B5E001900D928A9542
:104E0000E1F7809142059091430590934D05809381
:104E10004C05809144059091450590934F058093F2
:104E20004E05809115069091160690934305809348
:104E3000420580911706909118069093450580933E
:104E40004405D0933305C09332058AE290E09093F5
:104E50002305809322051CC020914C0530914D05FF
:104E600080911506909116062817390789F420912C
:104E70004E0530914F05809117069091180628171E
:104E8000390731F46CE375E082E495E00E94340B5D
:104E90008091220590912305892B09F0DCDD80911A
:104EA000100B882341F08091110B80FF04C00E94F9
:104EB0008D2F1092100B56D56B017C018091380814
:104EC00090913908A0913A08B0913B08A70196014A
:104ED000281B390B4A0B5B0BDA01C90180959095B1
:104EE000A095B0958827B7FD83959927AA27BB275A
:104EF000C82F08E517E01093210500932005CC2367
:104F000011F082E017C00115110511F1D8015C966E
:104F1000ED91FC915D973097C9F085859685A785C1
:104F2000B089A7019601281B390B4A0B5B0B57FD73
:104F30000FC083E00E94B10B809122059091230560
:104F4000892B31F00E94400A86DD02C0F801E5CFCE
:104F5000025E1F4F37E0003D130769F6CC2331F1A5
:104F6000D701C60186509F4FAF4FBF4F809338087F
:104F700090933908A0933A08B0933B08CAE2D7E06F
:104F8000D0931A05C093190585E00E94B10B80915A
:104F9000220590912305892B21F089859A850E940D
:104FA000A8452B9647E0C635D40751F7DF91CF913E
:104FB0001F910F91FF90EF90DF90CF900895CF93C6
:104FC000DF93EC01EBDDEC85FD85309739F08081D6
:104FD00086FF06C081E09181911103C080E001C08D
:104FE00081E0DF91CF910895CF93DF93EC018C8521
:104FF0009D85009779F0FC012081222359F00196CC
:1050000059DBEC85FD85908196FF02C0108202C0BD
:10501000906290831D861C86DF91CF91BFCDCF9289
:10502000DF92EF92FF920F931F93CF93DF93A091A4
:105030002005B09121055C96CD91DC915D97509152
:105040001F05209749F556FF60C0EBECFAE080E0C1
:1050500090E0208121111AC061E1689F9001699F51
:10506000300D1124E901C553D54F80618883245345
:10507000354F80E1F90111928A95E9F7209709F4FB
:1050800044C05D96DC93CE935C9706C00196719602
:1050900084309105F1F639C051FF07C08091220597
:1050A00090912305892B09F046C0888187FF0EC0A7
:1050B0008F77888380911F05826080931F05E09120
:1050C0002005F0912105818D8F7E818F80911F05B4
:1050D000982F9071D92E84FF6FC0CE010696EADA20
:1050E0008981882309F46BC0E0912005F0912105A6
:1050F000848195819F838E83888180648883E091F9
:105100002005F0912105158E148EE12CF12CB701AC
:1051100080912405909125050E949D0BF092230516
:10512000E0922205DF91CF911F910F91FF90EF90B8
:10513000DF90CF9008958881807609F0B6CF6E0118
:10514000FFEFCF1ADF0AF12CF6018081811120C018
:1051500020912205309123052115310511F0C90157
:10516000A2D5F6018083882399F000912205109141
:105170002305209124053091250526523540409184
:10518000100B60E070E0E1D6F4E0FF128ECF0CC0AF
:10519000F3942FEFC21AD20A35E0F312D5CF8091E3
:1051A000110B8E7F8093110BE0912005F09121056A
:1051B000818D8061818F79CF87FF03C08ECF188268
:1051C0009ECF80FF03C0CE0106969CDA80911F051A
:1051D0008C7009F440C0EE81EE2309F43CC08F814D
:1051E00081110FC0EB84FC84E114F10409F48FCF2A
:1051F00025E0E29FF0011124E75EF94FF382E2829D
:1052000006C08E2F71D67C01892B09F480CF809146
:105210002405909125058652954080930F0BF70148
:10522000E80FF11DCF01EF2B11F03DD5D82ED09214
:10523000120BDD2009F46BCF60910F0B70E087013A
:1052400020E030E04E818D2D80D68091110B826060
:105250008093110B5CCF888185FF57CF8E818111A0
:105260000BC01882E0912005F0912105158E148E57
:1052700080E180931F0549CFE0912005F091210541
:10528000818D8061818F41CF8F929F92AF92BF922B
:10529000CF92DF92EF92FF920F931F93CF938C01E7
:1052A0005B017A016A014C0187E0880E911C76DC73
:1052B0000115110509F44FC0F8018081807609F0CD
:1052C0004AC0F401C1E08191811102C0C15004C003
:1052D000CF5FC530C1F7C4E0F801EC0FF11D868146
:1052E00081110CC080E092E0DED4F801EC0FF11DDA
:1052F00086838823E1F2F80114861386A7014C19EE
:105300005D094A0D5B1DF801638574859601EC0FFC
:10531000F11D86816BD5C81AD90AF8012385348519
:10532000820F931F948783871C141D042CF4C430B0
:1053300009F4BDCFCF5FD6CF15D3DC01CB010A96E0
:10534000A11DB11DF80185879687A787B08BC7017E
:105350008C199D0902C080E090E0CF911F910F91C0
:10536000FF90EF90DF90CF90BF90AF909F908F9085
:105370000895FC018485958587CFCF93DF931F9295
:10538000CDB7DEB7698341E050E0BE016F5F7F4F6C
:10539000FC018485958578DF0F90DF91CF9108958A
:1053A000FC01538D448D252F30E0842F90E0821B2B
:1053B000930B541710F0CF96089501970895FC01B0
:1053C000918D828D981761F0828DDF01A80FB11D3C
:1053D0005D968C91928D9F5F9F73928F90E0089560
:1053E0008FEF9FEF0895FC01918D828D981731F01A
:1053F000828DE80FF11D858D90E008958FEF9FEF6E
:105400000895FC01918D228D892F90E0805C9F4F43
:10541000821B91098F739927089588E898E0F1DF3E
:1054200021E0892B09F420E0822F0895FC01848D6E
:10543000DF01A80FB11DA35ABF4F2C91848D90E0BE
:1054400001968F739927848FA689B7892C93A08999
:10545000B1898C9180648C93938D848D981306C050
:105460000288F389E02D80818F7D80830895EF92FB
:10547000FF920F931F93CF93DF93EC0181E0888F0E
:105480009B8D8C8D981305C0E889F989808185FDF5
:1054900023C0F62E0B8D10E00F5F1F4F0F731127E7
:1054A000E02E8C8DE8120BC00FB607FCFACFE8890E
:1054B000F989808185FFF5CFCE01B8DFF2CF8B8DE2
:1054C000FE01E80FF11DE35AFF4FF0820B8FEA89CE
:1054D000FB898081806207C0EE89FF896083E8894B
:1054E000F98980818064808381E090E0DF91CF91B1
:1054F0001F910F91FF90EF900895CF93DF93EC01F0
:10550000888D8823C1F0EA89FB89808185FD05C0EB
:10551000A889B9898C9186FD0EC00FB607FCF5CF1E
:10552000808185FFF2CFA889B9898C9185FFEDCF65
:10553000CE017CDFE8CFDF91CF91089580E090E04D
:10554000892B19F06ADF811125C080E090E0892B5A
:1055500041F080E090E0892B21F00E940000811151
:105560001CC080E090E0892B41F080E090E0892B26
:1055700021F00E940000811113C080E090E0892B8F
:10558000A1F080E090E0892B81F00E940000811161
:105590000AC008950E940000D8CF0E940000E1CF09
:1055A0000E940000EACF0C94000008953FB7F894E1
:1055B0008091070690910806A0910906B0910A060D
:1055C00026B5A89B05C02F3F19F00196A11DB11D5E
:1055D0003FBFBA2FA92F982F8827820F911DA11D99
:1055E000B11DBC01CD0142E0660F771F881F991FD6
:1055F0004A95D1F708958F929F92AF92BF92CF9222
:10560000DF92EF92FF920F931F93CF93DF937C0172
:105610008B016C0182E0C80ED11C4701E5E08E0EC3
:10562000911CC0E0D0E0F60141916F0150E060E0D4
:1056300070E02AE0C8010E94854B5C016EE2C8015F
:105640000E94374B8A0D9B1DC80FD91FC814D9045F
:1056500051F7F701458150E060E070E02AE0C801B1
:105660000E94854B8C0F9D1FDF91CF911F910F9151
:10567000FF90EF90DF90CF90BF90AF909F908F9072
:1056800008950E94196A1F920F920FB60F9211246B
:105690000BB60F922F933F934F935F936F937F932C
:1056A0008F939F93AF93BF93EF93FF9388E898E016
:1056B000BDDEFF91EF91BF91AF919F918F917F914F
:1056C0006F915F914F913F912F910F900BBE0F9073
:1056D0000FBE0F901F9018951F920F920FB60F924A
:1056E00011240BB60F922F938F939F93EF93FF93F9
:1056F000E0919808F09199088081E0919E08F091DE
:105700009F0882FD12C090818091A1088F5F8F73E6
:105710002091A208821751F0E091A108F0E0E8572B
:10572000F74F958F8093A10801C08081FF91EF9181
:105730009F918F912F910F900BBE0F900FBE0F90E6
:105740001F901895362F90E0FC01E856F64F4491D3
:10575000FC01EE5AF64F2491FC01E45FF64F949160
:10576000992309F46BC0442309F455C050E0FA01B1
:105770003197E231F10508F04EC08827E658FF4F17
:105780008F4F0C94E567809180008F7707C08091E0
:1057900080008F7D03C080918000877F8093800090
:1057A0003AC084B58F7702C084B58F7D84BD33C085
:1057B0008091B0008F7703C08091B0008F7D80937F
:1057C000B00029C0809190008F7707C08091900031
:1057D0008F7D03C080919000877F809390001BC0D5
:1057E0008091A0008F7707C08091A0008F7D03C0BB
:1057F0008091A000877F8093A0000DC08091200140
:105800008F7707C0809120018F7D03C08091200198
:10581000877F80932001E92FF0E0EE0FFF1FEE500D
:10582000F74FA591B4918FB7F894EC91311103C063
:1058300020952E2301C02E2B2C938FBF0895CF933C
:10584000DF9390E0FC01EE5AF64F2491FC01E45FF7
:10585000F64F8491882361F190E0880F991FFC0135
:10586000E852F74FC591D491FC01EE50F74FA59146
:10587000B491611109C09FB7F89488812095822363
:105880008883EC912E230BC0623061F49FB7F894AB
:105890003881822F809583238883EC912E2B2C9343
:1058A0009FBF06C08FB7F894E8812E2B28838FBF47
:1058B000DF91CF910895863308F0865390917B0055
:1058C000282F2870977F922B90937B00877080649D
:1058D00080937C0080917A00806480937A0080912C
:1058E0007A0086FDFCCF809178002091790090E0CD
:1058F000922B08958F929F92AF92BF92CF92DF9298
:10590000EF92FF926B017C0151DE4B015C01C114EF
:10591000D104E104F104E9F049DEDC01CB0188198E
:105920009909AA09BB09883E9340A105B10578F3FE
:1059300021E0C21AD108E108F10888EE880E83E060
:10594000981EA11CB11CC114D104E104F10421F77B
:10595000DECFFF90EF90DF90CF90BF90AF909F9001
:105960008F9008952FB7F894609103067091040604
:1059700080910506909106062FBF08951F920F9201
:105980000FB60F9211242F933F938F939F93AF9352
:10599000BF938091030690910406A0910506B091F3
:1059A00006063091020623E0230F2D3720F40196DE
:1059B000A11DB11D05C026E8230F0296A11DB11D32
:1059C000209302068093030690930406A093050695
:1059D000B09306068091070690910806A0910906EB
:1059E000B0910A060196A11DB11D80930706909300
:1059F0000806A0930906B0930A06BF91AF919F9144
:105A00008F913F912F910F900FBE0F901F9018957F
:105A10008823E9F0A9E1B6E025E014969C9114975B
:105A200098130DC095E0899FF0011124E75EF94FAE
:105A3000848114968C931382128214820895992380
:105A400031F0299FD0011124A75EB94FE6CF089508
:105A50000F931F93CF93DF931F92CDB7DEB7182F0D
:105A6000062F60E085E349836DDE802F8F71812BE7
:105A70008EBD49810DB407FEFDCF4EBD0DB407FEAE
:105A8000FDCF61E085E30F90DF91CF911F910F91E2
:105A900059CE1F93CF93DF93182F1076C12FD0E0EC
:105AA0002091000230E0C217D30779F043E06FE1A4
:105AB00080EACEDFAE0185E0559547958A95E1F7FE
:105AC0006FE180E8C5DF10930002DF91CF911F9155
:105AD00008951F93CF93DF931F921F92CDB7DEB728
