:1000000050C400007FC400007DC400007BC4000019
:1000100079C4000077C4000075C4000073C40000F8
:1000200071C400006FC400006DC400006BC4000008
:1000300069C4000067C4000065C4000063C4000018
:1000400061C400005FC400005DC400005BC4000028
:1000500059C4000057C4000055C400000C94822805
:1000600051C400000C9430270C9407274BC40000A7
:1000700049C4000047C4000045C4000043C4000058
:1000800041C400003FC400003DC400003BC4000068
:1000900039C4000037C4000035C40000D1C70000D7
:1000A00031C400002FC400002DC400002BC4000088
:1000B00029C4000027C4000025C4000023C4000098
:1000C00021C400001FC400001DC400001BC40000A8
:1000D00019C4000017C4000015C4000013C40000B8
:1000E00011C40000B222CA224223342454247424AE
:1000F0007C2429249527982787278B278F27CF278C
:100100009C27A027A627AA27AE27B427B827BC2755
:10011000CF27C227C627CA2700407A10F35A00A06B
:10012000724E18090010A5D4E80000E876481700C0
:1001300000E40B54020000CA9A3B000000E1F50500
:10014000000080969800000040420F000000A0864A
:1001500001000000102700000000E803000000007C
:100160006400000000000A00000000000100000020
:1001700000002C76D888DC674F0823DFC1DFAE593A
:10018000E1B1B796E5E3E453C63AE651997696E8CD
:10019000E6C28426EB898C9B62ED407C6FFCEFBC51
:1001A0009C9F40F2BAA56FA5F490055A2AF75C937C
:1001B0006B6CF9676DC11BFCE0E40D47FEF520E6B2
:1001C000B500D0ED902E0300943577050080841E95
:1001D000080000204E0A000000C80C333333330FF0
:1001E000986E12831141EF8D2114893BE65516CF8D
:1001F000FEE6DB18D1844B381BF77C1D901DA4BB99
:10020000E424203284725E228100C9F124ECA1E54D
:100210003D27E50110E70110E80148EC0109ED0177
:100220006C23016F240157250171E201181B011590
:100230000101001C01031901017F051F018C1F0131
:10024000847F0A1F01947F0A1F01D47F05400D009F
:100250002B293E3D3F24740806070D17500D000260
:100260000116143F0B5B08121819175D01FF1601E8
:10027000082801207F282801387F2828013C020215
:100280000000040200EF060200000802018F800255
:1002900000008202000017010500000000003E5B24
:1002A0004F5B3E3E6B4F6B3E1C3E7C3E1C183C7EC3
:1002B0003C181C577D571C1C5E7F5E1C00183C18A8
:1002C00000FFE7C3E7FF0018241800FFE7DBE7FFA4
:1002D00030483A060E2629792926407F0505074031
:1002E0007F05253F5A3CE73C5A7F3E1C1C08081CF2
:1002F0001C3E7F14227F22145F5F005F5F06097F30
:10030000017F006689956A606060606094A2FFA2C8
:100310009408047E040810207E201008082A1C0877
:10032000081C2A08081E101010100C1E0C1E0C3081
:10033000383E3830060E3E0E060000000000000079
:100340005F00000007000700147F147F14242A7F39
:100350002A12231308646236495620500008070306
:1003600000001C2241000041221C002A1C7F1C2A84
:1003700008083E08080080703000080808080800D7
:100380000060600020100804023E5149453E0042D2
:100390007F400072494949462141494D33181412A2
:1003A0007F1027454545393C4A49493141211109CA
:1003B000073649494936464949291E0000140000BC
:1003C00000403400000008142241141414141400D6
:1003D0004122140802015909063E415D594E7C1222
:1003E00011127C7F494949363E414141227F4141BA
:1003F000413E7F494949417F090909013E41415137
:10040000737F0808087F00417F41002040413F0181
:100410007F081422417F404040407F021C027F7FC2
:100420000408107F3E4141413E7F090909063E41D3
:1004300051215E7F09192946264949493203017F26
:1004400001033F4040403F1F2040201F3F403840B5
:100450003F631408146303047804036159494D434E
:10046000007F4141410204081020004141417F04C6
:1004700002010204404040404000030708002054AD
:100480005478407F2844443838444444283844440D
:10049000287F385454541800087E090218A4A49CDC
:1004A000787F0804047800447D40002040403D00EF
:1004B0007F1028440000417F40007C047804787C51
:1004C000080404783844444438FC182424181824B8
:1004D0002418FC7C08040408485454542404043FA1
:1004E00044243C4040207C1C2040201C3C403040A8
:1004F0003C44281028444C9090907C4464544C44D4
:100500000008364100000077000000413608000274
:10051000010204023C2623263C1EA1A161123A409E
:1005200040207A3854545559215555794122545414
:100530007842215554784020545579400C1E52720F
:1005400012395555555939545454593955545458EC
:100550000000457C410002457D420001457C407D14
:100560001211127DF0282528F07C545545002054A6
:10057000547C547C0A097F4932494949323A4444FF
:10058000443A324A4848303A4141217A3A4240207E
:1005900078009DA0A07D3D4242423D3D4040403D0F
:1005A0003C24FF2424487E4943662B2FFC2F2BFF3D
:1005B0000929F620C0887E0903205454794100009F
:1005C000447D413048484A32384040227A007A0A15
:1005D0000A727D0D19317D2629292F2826292929DE
:1005E0002630484D40203808080808080808083810
:1005F0002F10C8ACBA2F102834FA00007B00000876
:10060000142A142222142A14085500550055AA55FC
:10061000AA55AAFF55FF55FF000000FF001010105B
:10062000FF00141414FF001010FF00FF1010F01052
:10063000F0141414FC001414F700FF0000FF00FF76
:100640001414F404FC141417101F10101F101F149E
:1006500014141F00101010F0000000001F101010E4
:10066000101F10101010F010000000FF10101010DC
:100670001010101010FF10000000FF140000FF0009
:10068000FF00001F10170000FC04F41414171017CB
:100690001414F404F40000FF00F7141414141414D8
:1006A00014F700F7141414171410101F101F14144B
:1006B00014F4141010F010F000001F101F000000C0
:1006C0001F14000000FC140000F010F01010FF10C8
:1006D000FF141414FF141010101F00000000F0107D
:1006E000FFFFFFFFFFF0F0F0F0F0FFFFFF00000062
:1006F0000000FFFF0F0F0F0F0F3844443844FC4A2F
:100700004A4A347E02020606027E027E0263554990
:1007100041633844443C04407E201E2006027E0291
:100720000299A5E7A5991C2A492A1C4C7201724C12
:10073000304A4D4D303048784830BC625A463D3ED4
:10074000494949007E0101017E2A2A2A2A2A444475
:100750005F444440514A444040444A51400000FFF5
:100760000103E080FF000008086B6B083612362496
:1007700036060F090F0600001818000000101000C0
:100780003040FF0101001F01011E00191D1712005A
:100790003C3C3C3C000000000000002100240027FD
:1007A000002A002D00300033000101000004010781
:1007B000010A0100002200250028002B002E003134
:1007C00000340002010000050108010B01050505C8
:1007D00005070508080808020202020A0A080804B8
:1007E00004040401010101010101010303030303E6
:1007F000030303040707070C0C0C0C0C0C0C0C0275
:1008000002020206060606060606060B0B0B0B0B7B
:100810000B0B0B0102102020080810204010204074
:1008200080020102010804020101020408102040B4
:1008300080804020100804020180040201804020D2
:1008400010080402010804020101020408102040FB
:1008500080010204081020408000000A0B02090CED
:100860000D0E080703040100000000000000000056
:100870000000000000000000000000000000000078
:100880000000000000121110000000000000000035
:100890000000000000000000000000000000000058
:1008A0007E4611241FBECFEFD1E2DEBFCDBF00E0F8
:1008B0000CBF14E0A0E0B2E0E6EBFDE900E00BBF06
:1008C00002C007900D92A43EB107D9F72AE0A4EE2A
:1008D000B4E001C01D92A031B207E1F714E0C1E518
:1008E000D4E000E006C021970109802FFE010E949C
:1008F000914CC035D10780E00807A9F70E94173452
:100900000C94D94E7DCB2F923F924F925F926F9273
:100910007F928F929F92AF92BF92CF92DF92EF928F
:10092000FF920F931F93CF93DF93CDB7DEB72D9731
:100930000FB6F894DEBF0FBECDBF9D878C876A309F
:10094000A1F4DC0154962C9154971E968D919C91A4
:100950001F97B8E02B9F800D911D1124EC85FD851C
:100960009787868715861486FBC06D3009F4F8C01A
:10097000AC85BD855496BC91B983EC85FD85028814
:10098000F389E02DFD83EC83AC85BD8550960D90F9
:10099000BC91A02DBF83AE83EC85FD8586849784B2
:1009A000C484D58480859185C816D906C4F0AC85E9
:1009B000BD8554964C915497242F30E01C968D9110
:1009C0009C911D97B6E04B9F800D911D1124EC85E5
:1009D000FD8595878487468941119EC0C1C0AC853D
:1009E000BD851A968D919C911B9788169906FCF6E9
:1009F000B981AB2EB12CC601E6E0BE9F800D911DE2
:100A00001124181619069CF6C50123E0880F991FBA
:100A10002A95E1F7880D991D1816190644F6AC853C
:100A2000BD8557968C91811103C0603B08F06F5FC4
:100A3000B5E06B9FB001112416011A82FB01EC197D
:100A4000FD09F987E8879401285F3F4F3B872A8794
:100A50003A81353049F0E885F985E20DF31DE75616
:100A6000FD4F54915B8301C01B82240134018B81B3
:100A700080FF13C0AC85BD85ED91FC91B981B1308B
:100A800031F40084F185E02D2E813F8119C0028868
:100A9000F389E02DEE80FF801EC0EC81FD812E8168
:100AA0003F81E217F307F1F0AC85BD85ED91FC9134
:100AB000B981B13059F40084F185E02D2C813D815C
:100AC000A301B1018C859D8519950CC00288F3891D
:100AD000E02DEC80FD8085019501A201B6018C8599
:100AE0009D851995EB81E695EB83FFEF6F1A7F0AE1
:100AF0004A0C5B1C2A853B856216730609F0B7CF4A
:100B00003A813F5F3A835FEF251A350ACA0CDB1C36
:100B1000363009F09DCF4BCF4AEF4203B001439FDF
:100B2000700D1124AC85BD8518964D915C91199777
:100B3000460F571F481759079CF483E0220F331FB5
:100B40008A95E1F71E968D919C911F97280F391F6A
:100B50001F963C932E931E971D961C921E921C97D7
:100B600081E090E02D960FB6F894DEBF0FBECDBFAA
:100B7000DF91CF911F910F91FF90EF90DF90CF9079
:100B8000BF90AF909F908F907F906F905F904F90AD
:100B90003F902F900895EF92FF920F931F93DC01E7
:100BA000ED91FC9111971A960D911C911B97189637
:100BB0002D913C9119970288F389E02D7B0140E04B
:100BC00050E060E070E019951F910F91FF90EF9059
:100BD00008956F927F928F929F92AF92BF92CF9221
:100BE000DF92EF92FF920F931F93CF93DF936C01ED
:100BF0005A014801EB013B01620E731EC615D70571
:100C000074F4D601ED91FC910484F585E02D870103
:100C10009401A501BE01C60119952196EFCFDF9180
:100C2000CF911F910F91FF90EF90DF90CF90BF90E9
:100C3000AF909F908F907F906F900895EF92FF926A
:100C40000F931F93DC01ED91FC91260F371F21506C
:100C500031090284F385E02D78018A0119951F91ED
:100C60000F91FF90EF900895EF92FF920F931F93D3
:100C70007801DC01ED91FC91240F351F89010150B1
:100C800011090284F385E02D9B0119951F910F91A5
:100C9000FF90EF9008956F927F928F929F92AF9204
:100CA000BF92CF92DF92EF92FF920F931F93CF9359
:100CB000DF93EC014B015A0169013801E881F981A8
:100CC0000684F785E02D87011995E881F981A50152
:100CD000460D571D415051090684F785E02D9601B8
:100CE000B401CE011995E881F9810484F585E02DE0
:100CF0009301A501B401CE011995E881F981C80CD1
:100D0000D91CB601615071090484F585E02D930169
:100D1000A501CE011995DF91CF911F910F91FF9001
:100D2000EF90DF90CF90BF90AF909F908F907F908B
:100D30006F9008952F923F924F925F926F927F92A1
:100D40008F929F92AF92BF92CF92DF92EF92FF92DB
:100D50000F931F93CF93DF9300D0CDB7DEB74C0135
:100D60007B836A836A01590117019801241B350BA3
:100D700037FF03C0319521953109C5014A815B8157
:100D8000841B950B97FF03C091958195910951E0C4
:100D900059838217930714F019820BC09A2D8B2D5B
:100DA0005801092F182F9A818B81DB82CA82C92EA4
:100DB000D82E8A819B81A816B9065CF49C2D8D2DB6
:100DC0006801092F182F9A818B81BB82AA82A92ED4
:100DD000B82E2501AA81BB814A1A5B0A38016C181A
:100DE0007D0877FE03C0719461947108720157FE0B
:100DF00003C0BFEFEB1AFB0AF594E794C016D106C7
:100E00001CF00FEF1FEF1FC001E010E01CC0D40169
:100E1000ED91FC91B9810084F185E02D9101BB2316
:100E2000C1F04A815B81B601C4011995E618F70843
:100E3000F7FE04C0C00ED11EE40CF51CEA81FB8154
:100E40003196FB83EA834A815B81A416B506FCF6E2
:100E500004C0A6016A817B81E7CF0F900F900F90AD
:100E6000DF91CF911F910F91FF90EF90DF90CF9086
:100E7000BF90AF909F908F907F906F905F904F90BA
:100E80003F902F90089585ED8093BC008091BC0029
:100E900084FDFCCF10925607089540913505262F0A
:100EA00030E0240F311D21323105DCF4209156074A
:100EB0002430C9F4FC0180E090E0861758F43091AA
:100EC00035052191DC01AD5EBA4FA30FB11D2C9306
:100ED0000196F3CF80913505680F6093350580E06A
:100EE000089581E0089582E008950895E091E50471
:100EF0008091E404E81730F4F0E0ED50FB4F80817E
:100F000090E008958FEF9FEF08959091E504809110
:100F1000E404981750F4E92FF0E0ED50FB4F2081E6
:100F200030E09F5F9093E50402C02FEF3FEFC901CF
:100F300008958091E40490E02091E504821B9109DA
:100F40000895CF92DF92EF92FF920F931F93CF936A
:100F5000DF937C01262F972F8A01809157078823E2
:100F600091F0C62FD72F6E01C40ED51ECC15DD050E
:100F700069F06991D701ED91FC910190F081E02D2C
:100F8000C7011995F3CF642F822F87DFC801DF9146
:100F9000CF911F910F91FF90EF90DF90CF90089528
:100FA000CF93DF931F92CDB7DEB7698320915707A8
:100FB0002223D1F020917A07203240F021E030E066
:100FC000FC013383228380E090E014C080915807B5
:100FD000E82FF0E0E75AF84F998190838F5F809374
:100FE000580780937A0704C061E0CE01019655DF6F
:100FF00081E090E00F90DF91CF910895089580E017
:1010000090E00895EF92FF920F931F93DC01ED9112
:10101000FC9111971A960D911C911B9718962D9182
:101020003C9119970288F389E02D7B0140E050E064
:1010300060E070E019951F910F91FF90EF90089577
:101040001F920F920FB60F9211240BB60F922F938F
:101050003F934F935F936F937F938F939F93AF9340
:10106000BF93EF93FF938091B900887F803609F496
:101070009CC068F5883209F45BC090F4803109F4B3
:1010800054C038F4882309F4F6C0883009F44DC000
:10109000F5C0883109F44CC0803209F45DC0EEC05F
:1010A000803409F468C048F4803309F455C08833AB
:1010B00009F0E4C080935407D8C0803509F44FC0CC
:1010C000883509F45DC0883409F0D8C0D6C08839A5
:1010D00009F4C7C0A8F4883709F467C038F4883623
:1010E00009F463C0803709F460C0C8C0883809F4C7
:1010F000B8C0803909F45FC0803809F0BFC05BC058
:10110000803B09F486C038F4803A09F466C0883A16
:1011100009F47FC0B3C0803C09F4A7C0883C09F43F
:10112000A4C0883B09F48AC0A9C08091310710C0CF
:101130009091530780915207981770F5E0915307EB
:1011400081E08E0F80935307F0E0EE5CF84F8081D2
:101150008093BB0085EC86C0809354078EC0E091DD
:10116000530781E08E0F809353078091BB00F0E01E
:10117000EE5CF84F808390915307809152076EC0C8
:10118000E091530781E08E0F809353078091BB005D
:10119000F0E0EE5CF84F80838091550781116DC0BF
:1011A00081E08093300784EA61C083E08093560732
:1011B00010925905CFCF80915905803208F051C067
:1011C000E091590581E08E0F809359058091BB0015
:1011D000F0E0E75CFA4F8083BDCF85EC8093BC00E4
:1011E0001092560780915905803230F4E0915905EC
:1011F000F0E0E75CFA4F10826091590570E0E091F1
:101200003705F091380589E395E019951092590555
:1012100035C084E08093560710923605109235054C
:10122000E0913305F09134051995809135058111D0
:1012300005C081E08093350510921305E0913605D5
:1012400081E08E0F80933605F0E0ED5EFA4F8081ED
:101250008093BB009091360580913505981708F46E
:1012600079CF85E88093BC0009C085EC8093BC00F1
:101270001092560703C01092540705DEFF91EF91BC
:10128000BF91AF919F918F917F916F915F914F919E
:101290003F912F910F900BBE0F900FBE0F901F909C
:1012A0001895CF92DF92EF92FF920F931F93CF93F7
:1012B000DF93FC011381112309F467C0EC010E9444
:1012C0007628C880D9800D2C000CEE08FF08AB01F1
:1012D000BC014C195D096E097F098C859D85092E1D
:1012E000000CAA0BBB0B84179507A607B70708F4D9
:1012F0004DC00E947628C880D9800D2C000CEE08C5
:10130000FF08AB01BC014C195D096E097F098E8590
:101310009F85092E000CAA0BBB0B84179507A60707
:10132000B70798F10E947628C880D9800D2C000C50
:10133000EE08FF08AB01BC014C195D096E097F097D
:1013400088899989092E000CAA0BBB0B8417950775
:10135000A607B707D8F00E94762808811981012EC8
:10136000000C220B330BAB01BC01401B510B620B79
:10137000730B8A899B89092E000CAA0BBB0B84175F
:101380009507A607B70708F002C010E0812FDF918C
:10139000CF911F910F91FF90EF90DF90CF90089524
:1013A000CF92DF92EF92FF920F931F93CF93DF9331
:1013B000FC011281112309F467C0EC010E94762818
:1013C000C880D9800D2C000CEE08FF08AB01BC01D1
:1013D0004C195D096E097F098C819D81092E000CD5
:1013E000AA0BBB0B84179507A607B70708F44DC0D7
:1013F0000E947628C880D9800D2C000CEE08FF08CA
:10140000AB01BC014C195D096E097F098E819F817A
:10141000092E000CAA0BBB0B84179507A607B7076C
:1014200098F10E947628C880D9800D2C000CEE0817
:10143000FF08AB01BC014C195D096E097F09888565
:101440009985092E000CAA0BBB0B84179507A607DC
:10145000B707D8F00E94762808811981012E000C68
:10146000220B330BAB01BC01401B510B620B730B06
:101470008A859B85092E000CAA0BBB0B8417950748
:10148000A607B70708F002C010E0812FDF91CF91C7
:101490001F910F91FF90EF90DF90CF900895FF92F2
:1014A0000F931F93CF93DF938C0160E00E94402F36
:1014B000F801808191E0909357078093790710920B
:1014C000580710927A0760E08CE698E069DD81E0C9
:1014D0000E94E32EF8012081809156078111FCCFF4
:1014E00081E080935607809355079FEF90935407B0
:1014F00010925307809352078093310790913107E0
:10150000822F880F892B809331078091300781309B
:1015100061F410923007809131078093BB00809175
:10152000BC0083FDF8CF85EC01C085EE8093BC0044
:10153000809156078130E1F380915307823018F48F
:101540008091530701C082E0A2E3B7E023EF34E0CB
:10155000F9019E2F921B981718F49D919193F9CF42
:101560001092E5048093E4048CE698E0CEDCF82E3B
:101570008CE698E0CADCEC0161E0C8010E94402FD3
:1015800060E070E07F2D6C2B7D2B072E000C880B0C
:10159000990B0E94184A20E030E040E05DE30E9491
:1015A000774A20E030E040E05EE30E94774ADF9136
:1015B000CF911F910F91FF900895CF93DF93EC018E
:1015C00019A660E08FA10E9466271DA260E08BA192
:1015D0000E94662766EE73E08BE797E0DF91CF917C
:1015E0000C94F2331F93CF93DF93EC0111E019A712
:1015F00061E08FA10E9466271DA361E08BA10E947C
:10160000662766EF73E08BE797E0DF91CF911F913C
:101610000C94F2332F923F924F925F926F927F928F
:101620008F929F92AF92BF92CF92DF92EF92FF92F2
:101630000F931F93CF93DF93CDB7DEB766970FB6A7
:10164000F894DEBF0FBECDBF6C016E8BFC0127A9E5
:1016500030E0F901E353F84F8490FC0184A9A82FEE
:10166000B0E0FD01E353F84FA490F60166A970E0E5
:10167000FB01E353F84F0491F60145A950E0FA014C
:10168000E353F84F2490F901ED5EF74F7490FD019C
:10169000ED5EF74F6490FB01ED5EF74F1491FA0198
:1016A000ED5EF74F24912B8B60E00E94E32760E012
:1016B000F60185A90E94E327B12CF501EE0FFF1F6B
:1016C000CF018D54984F5C01FC01A591B4918C9190
:1016D000262D20952C8B82238C93312CF101EE0F3B
:1016E000FF1FCF018D54984F1C01FC01A591B491AF
:1016F0009C918B89809589238C9361E0F60187A961
:101700000E94E32761E0F60186A90E94E327912C5D
:10171000F401EE0FFF1FCF018D54984F4C01FC01D7
:10172000A591B4918C9187298C93E02FF0E0EE0F76
:10173000FF1FED54F84FA591B491EC9110951E2325
:101740001C93F60184A90E941F288C01F60184A92C
:101750000E941F282C018FEF93E07C01E418F5080C
:1017600060E0F60187A90E94E32760E0F60186A900
:101770000E94E327F401A591B4918C9170947D8A25
:1017800087218C9361E0F60184A90E94E327F5018B
:10179000A591B491EC916E2A6C9261E0F60185A955
:1017A0000E94E327F60186A90E941F283C01F6014A
:1017B00086A90E941F286816790629F47724739455
:1017C0000415150509F0712C0FEF13E0081B190B18
:1017D00061E0F60187A90E94E327F401A591B49185
:1017E000EC912D89E223EC93F101A591B491EC9158
:1017F0002B89E22BEC93F501A591B4918C912C8966
:1018000082238C9360E0F60184A90E94E327F6010D
:1018100086A90E941F285C01F60184A90E941F2846
:10182000F60180AC91AC8114910409F440C0BC0174
:10183000990F880B990B0E94184A1B012C01B501C6
:10184000BB0C880B990B0E94184A9B01AC01C2018A
:10185000B1010E94DD4B20E030E040E85FE30E94F0
:10186000784B5B016C01B7010F2C000C880B990BB6
:101870000E94184A9B01AC01C601B5010E94774A3B
:101880005B016C01B40180E090E00E94164A9B016C
:10189000AC01C601B5010E94774A20E030E040E883
:1018A0005AE30E94774A0E94454C6B0107C0A81A70
:1018B000B90A6501F1E0CF1AFCEFDF0A711002C02E
:1018C000C12CD12C61E088E30E94E32761E087E32B
:1018D0000E94E327B601695C71096F31734008F01B
:1018E000CEC08E8981113DC16DE074E08BE797E039
:1018F0000E94F2334AE0B801CE010D960E944133B6
:101900004AE0B701CE0101960E94413318861F823A
:101910001A8619861C861B8669817A816115710574
:1019200031F04D815E81CE0107960E94A72F6BECAE
:1019300074E0CE0107960E947F2FBE01635F7F4F48
:101940000E94962FBC018BE797E00E940434CE01E1
:1019500007960E94DB2FCE0101960E94DB2FCE015D
:101960000D960E94DB2FC701805392408D38910560
:1019700070F4C801845F9140893C910540F463E1B3
:1019800074E08BE797E00E94F23383E058C1C7010F
:101990008A5491408739910570F49801245F314051
:1019A000293C310540F461E274E08BE797E00E9446
:1019B000F23384E044C19701285532402E35310579
:1019C00070F498012C5B3240293C310540F46DE203
:1019D00074E08BE797E00E94F23381E030C1970119
:1019E000255431402C34310570F498012C5B324081
:1019F000293C310540F469E374E08BE797E00E94ED
:101A0000F23382E01CC197012C5D31092734310586
:101A100070F4980120593140273E310540F467E4C5
:101A200074E08BE797E00E94F23385E008C1EAE3B7
:101A3000EE1AE2E0FE0AF3E8EF16F10470F4005447
:101A40001140053B110508F08CC06FE574E08BE791
:101A500097E00E94F23389E1F2C08D38910508F0D9
:101A600080C000541140053B110508F07AC063E7BF
:101A700074E08BE797E00E94F2338AE1E0C02E89A0
:101A8000213009F06EC0C70184539340873491051B
:101A900030F4C801885C91098937910528F1C701A4
:101AA000845992408437910558F498012856314062
:101AB00029323105D8F0245B310921353105C0F0D8
:101AC00097012251324021353105B0F4A801485622
:101AD00051404932510570F0445B5109413551057F
:101AE00008F041C08AE0ABC086E0A9C087E0A7C08B
:101AF00088E0A5C089E0A3C08437910580F4C801BF
:101B0000885691408932910508F482C0845B91091E
:101B10008135910508F47EC02135310538F1C701C2
:101B20008D5A92408E35910578F1C70183509240CD
:101B30008A369105B0F1C7018757914080369105EB
:101B4000D8F1C701875D91098036910508F43FC03F
:101B50008CE0E81A83E0F80A9FE6E916F10408F43D
:101B600041C080E06CC08437910548F2C8018856B6
:101B700091408932910508F44FC0845B9109813509
:101B8000910508F44BC0CBCFC8018A5892408135EB
:101B9000910508F445C0885C9109CD9708F442C0CE
:101BA000C4CFC8018A58924081359105E8F1885C1C
:101BB0009109CD97D8F1BFCFC8018A58924081359D
:101BC0009105B0F1885C9109CD97A0F1BACFC80119
:101BD0008A5892408135910578F1885C9109CD97BA
:101BE00068F1B6CFC801805991408739910540F41A
:101BF00065E874E08BE797E00E94163487E11FC028
:101C00000C5B12400B3A110508F0ABCF88E117C00E
:101C10008BE015C08CE013C08DE011C08EE00FC0CA
:101C20008FE00DC080E10BC081E109C082E107C0F7
:101C300083E105C084E103C085E101C086E16696C9
:101C40000FB6F894DEBF0FBECDBFDF91CF911F91CD
:101C50000F91FF90EF90DF90CF90BF90AF909F904B
:101C60008F907F906F905F904F903F902F9008954E
:101C70002F923F924F925F926F927F928F929F929C
:101C8000AF92BF92CF92DF92EF92FF920F931F938A
:101C9000CF93DF93CDB7DEB7AB970FB6F894DEBF27
:101CA0000FBECDBF3C0168A749A718012901EAA6CC
:101CB000CBA660E070E0A6D982E0F301848B8FEFC1
:101CC0009FEF938B828B918B808B22968FAD229787
:101CD000811103C080E090EF02C080EC9FEC7C019A
:101CE00003E210E02BE430E046E450E068EC70E002
:101CF000C301F0D423968FAD2397811103C080E0F8
:101D000090EF02C080EC9FEC7C0103E210E02BE43A
:101D100030E041E950E068EC70E0C301DBD401ED54
:101D200010E0F3011587048770E5C72ED12CD78604
:101D3000C68668E173E0C3010E94F233F3011587A0
:101D400004878BE990E09787868768E173E0C30199
:101D50000E94F233F8A5F11117C0E12C60EFF62EC6
:101D600003E210E020E530E046E450E064E670E095
:101D7000C301B0D488E790E0F30195878487D786C4
:101D8000C68663ED72E035C0F8A5F130C1F45CE1C0
:101D9000E52E55E9F52E03E210E020E530E046E4BB
:101DA00050E064E670E0C30195D48EE690E0F30164
:101DB00095878487D786C6866EE173E01AC0F8A53A
:101DC000F230D1F440ECE42E4FECF42E03E210E0BC
:101DD00020E530E046E450E064E670E0C3017AD4E8
:101DE0008DE790E0F30195878487D786C68664E205
:101DF00073E0C3010E94F233F9A5F11119C0E12C7F
:101E000030EFF32E03E210E020E530E041E950E04E
:101E100064E670E0C3015ED488E790E0F301958743
:101E200084878BE990E09787868763ED72E039C0FD
:101E3000F9A5F130D1F42CE1E22E25E9F22E03E2EE
:101E400010E020E530E041E950E064E670E0C301D5
:101E500041D48EE690E0F301958784878BE990E08A
:101E6000978786876EE173E01CC0F9A5F230E1F434
:101E700090ECE92E9FECF92E03E210E020E530E033
:101E800041E950E064E670E0C30124D48DE790E0BE
:101E9000F301958784878BE990E09787868764E2D2
:101EA00073E0C3010E94F233F3011586148680E5C6
:101EB00090E0978786876BE974E0C3010E94F23354
:101EC000F301158614868BE990E09787868764EA8C
:101ED00074E0C3010E94F233F3011586148603E017
:101EE00010E0178706878FEF9FEF918B808B138A07
:101EF000128A6BEA74E0C3010E94163480EA90E013
:101F0000F30195878487178706871BA21AA21DA253
:101F10001CA21FA21EA28E010F5F1F4F22E044E0F1
:101F2000C201B1010E943047BC01CE0182960E94DD
:101F3000C62FBE016E5D7F4FC3010E948733CE0165
:101F400082960E94DB2FF3011586148604E110E0CF
:101F5000178706876AEB74E0C3010E94F23387EDAE
:101F600090E0F3019587848717870687FAA5F1111A
:101F700003C063ED72E002C06FEC72E0CE01019627
:101F80000E946C33BE016F5F7F4FC3010E94873395
:101F9000CE0101960E94DB2F6DEC74E0C3010E941C
:101FA00016348EE591E0F3019587848784E190E013
:101FB00097878687FBA5F11103C063ED72E002C02D
:101FC0006FEC72E0CE0101960E946C33BE016F5F30
:101FD0007F4FC3010E948733CE0101960E94DB2F01
:101FE0002AE530E04AE550E066E470E0C3010E9473
:101FF000CE2C25EA30E045EA50E069EB70E0C30101
:102000000E94CE2CEE24EA94FE2C0EE110E024E691
:1020100030E04DEC50E066E970E0C3015BD3F301C2
:10202000138A128A118A108A8AEA90E09587848737
:1020300085ED90E0978786876EE173E0C3010E948B
:10204000F23383E0F301848B87E291E09587848704
:1020500083E790E097878687B501A401C3010E94BA
:10206000FF2BAB960FB6F894DEBF0FBECDBFDF914E
:10207000CF911F910F91FF90EF90DF90CF90BF9085
:10208000AF909F908F907F906F905F904F903F9018
:102090002F900895EF92FF920F931F93DC01ED9123
:1020A000FC910288F389E02D780101E010E0199598
:1020B0001F910F91FF90EF900895EF92FF920F9371
:1020C0001F93DC01ED91FC910288F389E02D7801EA
:1020D000890121E030E019951F910F91FF90EF9059
:1020E00008950895CF93DF938B988A98E091020129
:1020F000292F3327E901C07CDD27F3E0D595C7956B
:10210000FA95E1F7D901A370BB27D5E0AA0FBB1F51
:10211000DA95E1F77C2F7A2BE7787E2B709302011A
:1021200075B1F901EC72FF27EE0FFF1FEE0FFF1FD5
:102130007F74E72BE5B974B320713327220F331F67
:10214000372F3F7D232B24BB8998899A3091020138
:10215000DC01A07CBB27C3E0B595A795CA95E1F744
:10216000FC01E370FF27D5E0EE0FFF1FDA95E1F7E2
:102170002A2F2E2B3778232B2093020175B19C0137
:102180002C723327220F331F220F331F372F3F7438
:10219000232B25B974B39C0120713327220F331FE1
:1021A000372F3F7D232B24BB8998899A8A9AFA017D
:1021B0007FEF760F16160CF094C02191409102012A
:1021C000322F307C369536953695522F537060E21B
:1021D000569FD00111243A2B4778342B30930201BB
:1021E00065B1322F3C72A4E03A9FA0011124362F32
:1021F0003F74432B45B934B32071220F3F7D232B0D
:1022000024BB8998899A772309F469C02091E7044F
:10221000222309F464C001968A9850910201292F63
:102220003327E901C07CDD2743E0D595C7954A9562
:10223000E1F7D901A370BB2765E0AA0FBB1F6A9520
:10224000E1F74C2F4A2B5778452B4093020165B19B
:10225000A9014C725527440F551F440F551F562F87
:102260005F74452B45B944B320713327220F331FC8
:10227000342F3F7D232B24BB8998899A309102010A
:10228000DC01A07CBB27C3E0B595A795CA95E1F713
:10229000AC0143705527D5E0440F551FDA95E1F79F
:1022A0002A2F242B3778232B2093020145B19C0140
:1022B0002C723327220F331F220F331F342F3F740A
:1022C000232B25B944B39C0120713327220F331FE0
:1022D000342F3F7D232B24BB8998899A8A9A672FB4
:1022E00067CF8B9ADF91CF910895CF93DF938B982F
:1022F0008A98E2E0F1E05081292F3327E901C07C80
:10230000DD2743E0D595C7954A95E1F7D901A3703C
:10231000BB27D5E0AA0FBB1FDA95E1F74C2F4A2B5C
:102320005778452B4083A5B1A9014C725527440F1E
:10233000551F440F551F5A2F5F74452B45B944B3A1
:1023400020713327220F331F342F3F7D232B24BBD3
:102350008998899A3081DC01A07CBB27D3E0B595B0
:10236000A795DA95E1F7AC014370552725E0440FB6
:10237000551F2A95E1F72A2F242B3778232B20830A
:1023800045B19C012C723327220F331F220F331FBC
:10239000342F3F74232B25B924B380719927880FDC
:1023A000991F922F9F7D892B84BB8998899A8A9A3D
:1023B0003081872F9927DC01A07CBB27C3E0B5952E
:1023C000A795CA95E1F7AC0143705527D5E0440FB6
:1023D000551FDA95E1F72A2F242B3778232B2083FA
:1023E00045B19C012C723327220F331F220F331F5C
:1023F000342F3F74232B25B924B380719927880F7C
:10240000991F922F9F7D892B84BB8998899A9081EF
:10241000AB01407C5527B3E055954795BA95E1F758
:102420009B0123703327C5E0220F331FCA95E1F7C4
:10243000842F822B9778892B808325B1CB018C72D6
:102440009927880F991F880F991F922F9F74892BA6
:1024500085B984B360717727660F771F8F7D682BEE
:1024600064BB8998899A8B9ADF91CF910895CF9315
:10247000DF931F92CDB7DEB7FC01828D238D24FB45
:10248000992790F99627692F70E0778F668F80FFE4
:102490002CC08091E7048823E1F0248D358D27340A
:1024A00083E8380719F02235324531F4911102C022
:1024B00082E007C086E005C0911102C08AE001C039
:1024C00088E08983AE014F5F5F4F61E081E090E07B
:1024D0000AC0911103C080E290E002C081E290E066
:1024E00040E050E060E0FEDD2DC0848D958D8732A8
:1024F00022E9920780F4853222E99207A0F4803223
:1025000024E59207C1F0833927E79207A1F08435CB
:102510009140A9F408C0863223E9920761F089301E
:10252000954B69F408C0660F771F660F771F6361CC
:1025300087E090E006C0626081E094E002C081E63E
:1025400090E0D3DE0F90DF91CF9108958F929F920C
:10255000AF92BF92CF92DF92EF92FF920F931F93B1
:10256000CF93DF9300D01F92CDB7DEB77C014B0134
:102570006A015901FC01848D958D8732F3E99F072B
:1025800099F4F7018589823031F4F0E2CF0ED11C45
:10259000005E1F4F1DC08330D9F420E2820E911CD3
:1025A00080E2A80EB11C14C08632954189F4F7016F
:1025B000858980FF0DC0C801841B950B19F40F5F3E
:1025C0001F4F06C02617370719F4A80EB91E8A0137
:1025D000F701828D80FF37C082A599828A82BB82F3
:1025E000AC82AE014F5F5F4F64E090E07BDDF701AE
:1025F00086A5D982CA821B830C83AE014F5F5F4FD1
:1026000064E090E06FDD8091E704882309F451C015
:10261000F701848D958D8536910509F04AC0998220
:102620008A82AE014F5F5F4F62E084A195A15ADDBF
:10263000D982CA82AE014F5F5F4F62E0F70186A187
:1026400097A150DD36C0B401F70184A195A14DDEFC
:10265000B601F70186A197A148DE8A149B0419F4FC
:10266000C016D10631F1F701828D85FF0EC0858934
:1026700080FF06C0102F0027C02AD12A860105C07E
:10268000BA2CAA248A289B285401B401F70182A5F8
:1026900093A52BDEB601F70186A597A526DEB50129
:1026A000F70184A595A521DEB801F70180A991A9BC
:1026B0001CDE0F900F900F900F90DF91CF911F9124
:1026C0000F91FF90EF90DF90CF90BF90AF909F90D1
:1026D0008F900895AF92BF92CF92DF92EF92FF92C8
:1026E0000F931F93CF93DF93EC018091E60488232F
:1026F00049F0C7018F719927880F991FE1ECEE22ED
:10270000E82AF92A37FF05C0620F731F319521951A
:102710003109260F371F77FF02C060E070E088851F
:102720009985821793070CF49C016901C61AD70A90
:1027300017FF05C0400F511F119501951109040F96
:10274000151F57FF02C040E050E08A859B85801727
:1027500091070CF48C015801A41AB50A0150110913
:1027600021503109CE01F2DE8B988A9888A599A56F
:1027700050910201292F3327F901E07CFF27B3E0B4
:10278000F595E795BA95E1F7B9016370772715E0FC
:10279000660F771F1A95E1F74E2F462B5778452B7A
:1027A0004093020165B1A9014C725527440F551F92
:1027B000440F551F562F5F74452B45B944B3207104
:1027C0003327220F331F342F3F7D232B24BB8998BF
:1027D000899A30910201BC01607C7727E3E075950E
:1027E0006795EA95E1F7AC0143705527F5E0440F92
:1027F000551FFA95E1F7262F242B3778232B2093AA
:10280000020145B19C012C723327220F331F220F86
:10281000331F342F3F74232B25B924B3807199279C
:10282000880F991F922F9F7D892B84BB8998899A45
:102830008A9ACA14DB042CF49C2D8D2D6501A92ED7
:10284000B82E8F2D99279C0123703327A90125E0ED
:10285000440F551F2A95E1F79C01207C332753E054
:10286000359527955A95E1F7242BBC016C72772793
:10287000660F660F80719927880FF701E370FF27B5
:1028800075E0EE0FFF1F7A95E1F7A701407C552711
:10289000F3E055954795FA95E1F79E2F942BA70104
:1028A0004C725527742F770F770F30E1E322FF2406
:1028B000EE0C1A141B0444F5A6013091020137787E
:1028C000322B3093020135B13F74362B35B934B316
:1028D0003F7D382B34BB8998899A30910201377833
:1028E000392B3093020135B13F74372B35B934B3EE
:1028F0003F7D3E2934BB8998899A41505109E9F6B8
:10290000E1E0AE1AB108D5CF8B9A8A8D80FF08C05E
:102910008C8D9D8D8632954189F48D8980FF0EC006
:102920000A851B85015011092885398521503109F7
:1029300040E050E060E070E0CE0108DEDF91CF9132
:102940001F910F91FF90EF90DF90CF90BF90AF90CD
:102950000895EF92FF920F931F93CF93DF937C0123
:10296000E90177FD28C057FD26C0FC0180859185CF
:102970006817790704F58285938548175907DCF4B1
:102980008091E604882341F0CE018F719927880F4A
:10299000991FC17CC82BD92B8A019B01C701D6DDA9
:1029A000BE01F70180A591A5DF91CF911F910F91F5
:1029B000FF90EF909ACCDF91CF911F910F91FF90F4
:1029C000EF900895EF92FF920F931F93CF93DF93B1
:1029D000CDB7DEB72A970FB6F894DEBF0FBECDBFD6
:1029E0007C01862F8370D70155968C935597462F7F
:1029F000417060FF05C016962D913C91179703C05A
:102A0000F70124813581D70119963C932E931897AD
:102A1000442329F014962D913C91159703C0F7019A
:102A200026813781D7011B963C932E931A978230CB
:102A300041F0833041F0813011F088E405C088E234
:102A400003C088E901C088EF8A87F701228D338DA2
:102A500030FF03C08A8580588A8731FF04C09A8579
:102A600080E489278A8733FF04C09A8588E0892714
:102A70008A87D7015C968D919C915D9720FFD1C08C
:102A80008431B8E69B07F1F49A85892F881F88273F
:102A9000881F8295880F880F807C96FD02C020E0F9
:102AA00001C020E298729A871F828260822B8887F9
:102AB0008BE38987AE01495F5F4F63E086EB90E06F
:102AC00011DB84C08336E9E19E0741F08138F4E9E7
:102AD0009F0721F0813125E1920709F52A8527FF1B
:102AE00002C021602A872A8526FF02C022602A8729
:102AF000833639E1930719F48A858F730EC08138C4
:102B000044E9940719F48A858F7207C08131954191
:102B100009F05CC08A858F7E806C8A8757C02091BF
:102B2000E704222309F452C062E070E0F70175A3C4
:102B300064A326E030E037A326A3E2E2F0E0D70169
:102B40009996FC93EE9398979B967C936E939A97A5
:102B500064E070E09D967C936E939C979F963C9367
:102B60002E939E9728E030E0D1963C932E93D097F9
:102B70008536910501F59A8594FD03C081E8892782
:102B80008A87442351F082E890E0F70195A384A35B
:102B900080E890E097A386A32EC080E890E0D7015C
:102BA00095969C938E93949782E890E097969C9349
:102BB0008E93969720C082359245E9F48A8584FDEC
:102BC00002C0826001C086608A8715C02AE230E0B8
:102BD000F70135A324A38BE290E097A386A34CE2F0
:102BE00050E051A740A733A722A735A724A797A74E
:102BF00086A791AB80AB8091E704811103C086E387
:102C000090E002C086E190E0AE01465F5F4F61E078
:102C100069DA8A8590E0D70191969C938E9390977C
:102C2000E3C02A858339B7E79B0709F448C050F40D
:102C30008435F1E09F0781F0803234E5930709F095
:102C400081C03DC0863243E99407C9F18930A5EBC4
:102C50009A0709F077C033C087E390E0F70193A7A4
:102C600082A786E390E095A784A789E390E097A7E1
:102C700086A788E390E091AB80AB80E290E095A3DB
:102C800084A381E290E097A386A382E290E091A7DB
:102C900080A7822F022E000C990B8827990F881F7E
:102CA0009927982F8827990F26FD03C060E070E0D0
:102CB00002C060E071E08862682B792B81C040E03F
:102CC00052E0D70195965C934E93949741E052E081
:102CD00097965C934E93969742E052E099965C9358
:102CE0004E93989740E152E09B965C934E939A974F
:102CF00041E152E09D965C934E939C9742E152E0F5
:102D00009F965C934E939E9743E152E0D1965C93DD
:102D10004E93D09727FD03C020E030E002C020E0B2
:102D200030E88632B3E99B0731F08032944519F0E0
:102D300060E07AE602C060E075E3622B732B80E00E
:102D400094E035C080E290E0D70195969C938E93F5
:102D5000949781E290E097969C938E93969782E267
:102D600090E099969C938E93989780E590E09B963F
:102D70009C938E939A9781E590E09D969C938E9379
:102D80009C9782E590E09F969C938E939E9783E517
:102D900090E0D1969C938E93D09727FD03C060E07E
:102DA00070E002C060E070E8776280E690E09DDA53
:102DB0008A8586FD03C060E070E002C060E071E0DB
:102DC00081E090E092DA8A8585FD03C060E070E0E2
:102DD00002C068E070E083FD70616063F70171A379
:102DE00060A383E090E081DAD70155968C915597E6
:102DF00080FF36C05A968D919C915B9792FD30C0B2
:102E000094968D919C91959796962D913C9197973C
:102E100095963C932E93949797969C938E93969722
:102E20009A968D919C919B979E962D913C919F9700
:102E30009B963C932E939A979F969C938E939E97E6
:102E40009C968D919C919D97D0962D913C91D19778
:102E50009D963C932E939C97D1969C938E93D0975E
:102E6000F701028513850150110920853185215014
:102E7000310940E050E060E070E0C70167DBD70156
:102E800016966D917C9117975C968D919C915D97AC
:102E90008732B3E99B0749F4F70125892250223094
:102EA00008F49EC000E010E09DC000E010E020E0CB
:102EB00030E0D7015A964C9140FF46C01982102F3E
:102EC0000A837B836C831D822E838091E7048111AA
:102ED00003C083E390E002C08EE090E0AE014F5F5C
:102EE0005F4F66E0FFD819821A838091E704811151
:102EF00003C087E390E002C084E190E0AE014F5F41
:102F00005F4F62E0EFD88091E704882389F019824F
:102F1000F701848D958D8734934819F081E090E016
:102F200002C088E190E0AE014F5F5F4F61E00AC0F0
:102F3000D7015A968C9180FF5AC040E050E060E083
:102F400083E190E0CFD853C08339B7E79B0779F18D
:102F500060F48032F4E59F0751F1833827E7920748
:102F600091F08435914081F512C0863243E994078F
:102F7000F1F028F485529249029748F025C0893033
:102F8000954BA9F021C0F701668D778D21C0600FA8
:102F9000711F6150710981E390E0A7D9B80182E304
:102FA00090E0A3D960E070E083E390E017C0D70120
:102FB0005E966D917C915F97626081E094E095D917
:102FC000B80184E094E00AC0F701668D778D6260F5
:102FD00081E690E08AD9B8018AE690E086D907C0F8
:102FE00000E210E020E230E0201B310B62CF2A9695
:102FF0000FB6F894DEBF0FBECDBFDF91CF911F910A
:103000000F91FF90EF900895DC011C96ED91FC91DB
:103010001D97309731F086819781982789279827C7
:10302000089580E090E00895CF93DF93FC01EB01D9
:10303000AC85BD85109791F012969C9112971396CE
:103040008C9113973C9111962C914BEB52E051834C
:103050004083328323839483858308C08BEB92E083
:10306000918380831282138214821582CF01DF91B3
:10307000CF910895CF93DF931F92CDB7DEB7DC01D8
:10308000ED91FC91048CF58DE02D41E050E0BE0106
:103090006F5F7F4F1995181619061CF4898190E00F
:1030A00002C08FEF9FEF0F90DF91CF910895CF93E4
:1030B000DF931F92CDB7DEB76983DC01ED91FC9100
:1030C0000280F381E02D41E050E0BE016F5F7F4F51
:1030D00019950F90DF91CF91089580E00895FB013D
:1030E00041505109460F571FE417F50778F4208126
:1030F00030E0322F22276181260F311D820F931F6E
:103100008217930708F401963296EECFE417F5077D
:1031100051F4208130E0322F2227820F931F821733
:10312000930708F401960895CF93DF93EC010E9472
:103130001C3089890E94CC28198ADF91CF9108958B
:10314000CF93DF93EC010E941C308989DF91CF91EE
:103150000C94212BCF93DF93EC010E941C308989C2
:1031600081110E94CC288889898B188ADF91CF91A0
:103170000C94212B0F931F93CF93DF931F92CDB706
:10318000DEB78C010E941C30F8018189882391F000
:1031900041E050E060E070E00E94E72A8C01BE014F
:1031A0006F5F7F4F0E94EC280130110519F489816F
:1031B00090E002C08FEF9FEF0F90DF91CF911F91B2
:1031C0000F910895CF92DF92EF92FF920F931F938A
:1031D000CF93DF931F921F92CDB7DEB77C016B01B7
:1031E00049835A830E941C30F701818949815A81A1
:1031F000882351F160E070E00E94E72A8C01B6015B
:103200000E94EC28F701D1888D2D0E94212B0817F0
:10321000190731F48D2D0E94CC28F701118A12C0B4
:1032200085E0D89EF0011124E25EF94F8081918102
:10323000800F911F9183808382819381801B910BEA
:1032400093838283C80102C080E090E00F900F90CA
:10325000DF91CF911F910F91FF90EF90DF90CF9072
:103260000895CF93DF93EC018A89882369F09A014E
:10327000AB016E857F850E94A32A2E853F85280F8E
:10328000391F3F872E8702C080E090E0DF91CF9109
:103290000895CF93DF93DC011C96ED91FC911D976F
:1032A0003097B1F0EC0115821482128611861D86CA
:1032B0001C8689890E94CC2888890E94CC288A890A
:1032C0000E94CC282E9686E0FE0111928A95E9F79D
:1032D000DF91CF910895CF92DF92EF92FF920F93FB
:1032E0001F93CF93DF9300D01F92CDB7DEB78C0131
:1032F0006B017A010E941C30F60182819381A481C6
:10330000B581892B8A2B8B2B41F1E114F10429F132
:10331000828190E0982F88272381822B9827892704
:1033200098279A838983248130E0322F2227458190
:10333000242B3227232732273C832B83D8011C964A
:10334000ED91FC911D977E2D6F2D309729F177839C
:1033500066839183808333832283D8011C968D9169
:103360009C911D97892BA9F052968C91811111C0C7
:1033700086E096E00E94002AF801828B2AE230E083
:103380003787268721E090E0811101C020E0822F5D
:1033900015C080E090E012C0CE0101960E94212568
:1033A000D8011D969C938E931C97009791F39801DA
:1033B000225F3F4FFC0132872187CFCF0F900F90C4
:1033C0000F900F90DF91CF911F910F91FF90EF9091
:1033D000DF90CF9008950F931F93CF93DF93EC016D
:1033E0008B018C859D85892B41F460E070E080E045
:1033F00090E00E9421259D878C87EC85FD85309784
:1034000051F0102701271027158304832E96D287A9
:10341000C18781E001C080E0DF91CF911F910F91C2
:103420000895CF93DF93EC010E94E53120913D098F
:1034300030913E0990915C052A32310521F41092B9
:103440005D059D7F03C01D821C82926090935C0588
:10345000DF91CF910C94E72FCF93DF93EC018C8514
:103460009D85892B19F480E090E022C0EA89EE2343
:10347000D1F381E08B8B8E859F8525E0E29FF00163
:103480001124E25EF94F938382838C859D8590930E
:1034900007068093060685E0DDD380913D09909173
:1034A0003E09892B01F3CE010E96BBDF81E090E04F
:1034B000DF91CF9108954F925F926F927F928F929A
:1034C0009F92AF92BF92CF92DF92EF92FF920F93B3
:1034D0001F93CF93DF93CDB7DEB7E5970FB6F89480
:1034E000DEBF0FBECDBF7C018B016A018BEB92E08A
:1034F0009A8389831C861B8648EE53E060E070E067
:103500004D875E876F87788B23E632E03A8729877D
:103510001E8A1D8AFE01779626E0DF011D922A95FC
:10352000E9F79AA789A71BA61CA61DA61EA680912F
:10353000620890916308A0916408B09165088F8F2C
:1035400098A3A9A3BAA38B839C83AD83BE8318865B
:103550001F82F801D8018D91882331F08E32D9F382
:1035600080538A30C0F34EC080E090E020E030E02D
:103570005AE04191442311F1243031050CF042C04E
:103580004E3281F48F3F910509F0E4F5ABE2B0E0F3
:10359000AC0FBD1FA20FB31F8C932F5F3F4F80E076
:1035A00090E0E7CF589FB001599F700D1124842FF0
:1035B000440F990BC097860F971FDBCF8F3F910564
:1035C00009F004F524303105ECF4FE01E20FF31F9D
:1035D00083A7D701ED91FC910488F589E02D8BEB51
:1035E00092E09E8F8D8F8BA59CA5ADA5BEA58F8FDC
:1035F00098A3A9A3BAA3A601BE01635E7F4FC7012A
:10360000199512C24B815C816D817E818091680821
:1036100090916908A0916A08B0916B084817590702
:103620006A077B0709F4FEC10E9476286F7077272E
:103630007C5FCE010996CFDE813009F0F0C18BEBC3
:1036400092E09E8F8D8F8B819C81AD81BE818F8F0B
:1036500098A3A9A3BAA345E350E0BE01635E7F4FE0
:10366000CE01099638DE892B19F400E010E0B7C1CD
:103670000E94762878876F8342E050E0BE01695F40
:103680007F4FCE010996EDDD81E090E09E8F8D8F1A
:1036900042E050E0BE01635E7F4FCE010996E1DD5E
:1036A00080E091E09E8F8D8F42E050E0BE01635E2E
:1036B0007F4FCE010996D5DD1E8E1D8E42E050E073
:1036C000BE01635E7F4FCE010996CBDD42E050E044
:1036D000BE01635E7F4FCE010996C3DD42E050E03C
:1036E000BE01635E7F4FCE010996BBDD5801F50137
:1036F0008081882309F1F8015F018191811115C052
:103700004501801A910A1814190494F48FA641E017
:1037100050E0BE01615D7F4FCE010996A2DDA4019C
:10372000B801CE0109969DDD03C08E3229F7E8CF9E
:1037300085010F5F1F4FDBCF1FA641E050E0BE01A8
:10374000615D7F4FCE0109968CDD00E011E01E8F98
:103750000D8F42E050E0BE01635E7F4FCE010996BF
:1037600080DD1E8F0D8F42E050E0BE01635E7F4F13
:10377000CE01099676DDCE0109966EDE892B09F41D
:1037800074CF83E0A82EB12C0E9476282B013C0137
:10379000CE010996DFDC18161906ACF00E947628D7
:1037A000DC01CB0184199509A609B7098938934131
:1037B000A105B10508F002C162E370E080E090E08D
:1037C0000E943E28E5CF4B805C806D807E80BE01EC
:1037D000675F7F4FCE014D9627DC8F8D98A1A9A101
:1037E000BAA1481659066A067B0609F0EAC0CE015E
:1037F00009960ADCC59709F0E4C0CE010996A0DC61
:103800000C970CF4E1C04CE050E0BE01635E7F4FCA
:10381000CE0109960E94E02F8F8D98A198278927C5
:1038200098279CAB8BAB4F8158852D8D3E8D4217D1
:10383000530711F497FD06C0CE01099675DC0CEF15
:103840001FEFC4C08F709270892B31F0CE010996A2
:103850006BDC0BEF1FEFBAC00BA11CA110270127D7
:1038600010270115110531F4CE0109965DDC0AEF30
:103870001FEFACC0812C912C89A19AA19827892790
:1038800098278816990648F541E050E0BE01615D31
:103890007F4FCE0109960E94E02F8FA5811113C0A2
:1038A0008FA58111F1CFCE010996E4DBCE010996F7
:1038B000E1DBCE010996DEDBCE010996DBDB2FEFE3
:1038C000821A920AD9CF8FA59FEF980F9FA78823BE
:1038D00039F3CE010996CEDBF6CF812C912C41E055
:1038E00050E0BE016B5C7F4FCE0109960E94E02F35
:1038F0008DA9982F907C61F4882371F08DA99FEF9A
:10390000980F9DAB882341F0CE010996B3DBF6CF2B
:10391000CE010996AFDB1DAA8DA98111E0CF42E04F
:1039200050E0BE016F5C7F4FCE0109960E94E02FF0
:1039300042E050E0BE01615D7F4FCE0109960E94DA
:10394000E02FCE01099696DBCE01099693DBCE01DE
:10395000099690DBCE0109968DDB42E050E0BE0176
:103960006D5C7F4FCE0109960E94E02F89A99AA92C
:103970008115914029F48FA598A981159140C1F135
:10398000612C712C8BA99CA99827892798276816E8
:10399000790638F4CE0109966DDBEFEF6E1A7E0AD8
:1039A000F1CFFFEF8F1A9F0A8016910609F097CF8B
:1039B000CE010996B9DB06EF1FEF08C00FEF1FEF2E
:1039C00005C00EEF1FEF02C00DEF1FEF21E0A21A9E
:1039D000B10829F00F3F8FEF180709F4D5CECE01BB
:1039E000099657DC0130110509F4F3CDC8011CC05C
:1039F0008BA99CA98115944031F0CE01099694DBE6
:103A000007EF1FEFE3CF44E050E0BE01655D7F4F5D
:103A1000CE0109960E94E02F01E010E0D7CF80E0B0
:103A200090E002C08EEF9FEFE5960FB6F894DEBFF0
:103A30000FBECDBFDF91CF911F910F91FF90EF90FF
:103A4000DF90CF90BF90AF909F908F907F906F90BE
:103A50005F904F900895FF920F931F93CF93DF9342
:103A6000E0910606F0910706C185D285209709F4FA
:103A700051C08091080681FF31C0FA80F1102EC03C
:103A800080916B0990916C0997838683809163097B
:103A90009091640991838083809165099091660972
:103AA0009383828380916F09909170099827892769
:103AB0009827089719F00E94002AF82EFA82FF2012
:103AC00069F08F2D0E94212B8C012AE230E0409179
:103AD0005B0560E070E08F2D0E943C2B8091080612
:103AE00083FF18C08D818823A9F08C8180935D05A8
:103AF0008AE280935A05688179816A5271098091BE
:103B00003F0990914009DF91CF911F910F91FF9054
:103B10000C940233DF91CF911F910F91FF90089584
:103B2000EF92FF920F931F93CF93DF93C82FE090F4
:103B30005A09F12C84E1E81AF1082091590930E082
:103B4000322F2227E20EF31E48E050E063E679E0D0
:103B5000C7018C0F911DC3DAC13131F0C0917709D3
:103B6000C695C695CC7301C0C8E0D0E0AE016BE647
:103B700079E0B5DA8C01CE15DF0508F04CC0A7015D
:103B80004C1B5D0BBE016E5D7F4F80915D050E94F9
:103B9000E72AEC01219760E085E30E9466278AE32B
:103BA0008EBD0DB407FEFDCFA80160E070E06C177C
:103BB0007D07C8F41EBC0DB407FEFDCF2EB530E066
:103BC000322F22271EBC0DB407FEFDCF8EB5280F65
:103BD000311D420F531F4217530710F44F5F5F4FC1
:103BE0006E5F7F4FE4CF8A016C177D0781F41EBCA6
:103BF0000DB407FEFDCF8EB590E0982F88278A017F
:103C0000080F191F0817190710F40F5F1F4F61E005
:103C100085E30E9466270115110519F0902F812F69
:103C200002C08FEF9FEFDF91CF911F910F91FF9017
:103C3000EF90089544E150E067E579E080E090E09E
:103C40004EDA009721F098278927982708958FEF5B
:103C50009FEF0895EF92FF921F93CF93DF93C09150
:103C60000906D0910A06843009F4E9C12FE739E04A
:103C70003093400920933F0930933A092093390942
:103C8000833059F4898D8F70833009F0CEC68889CE
:103C90009989892B09F0C9C67EC0823009F07FC09E
:103CA000809116068F5F80931606811113C0809154
:103CB00015068F5F8093150681110CC08091140644
:103CC0008F5F80931406811105C0809113068F5F6A
:103CD0008093130610923E0910923D0910923C0900
:103CE00010923B09898D982F9D7F953041F48A8DE4
:103CF0008F5F8A8F883709F098C6198E96C68823F9
:103D000009F493C628893989232B09F440C09A8D78
:103D10002FEF290F2A8F911188C69B8D983031F093
:103D20002FEF280F223048F4953039F4198E80E8AF
:103D3000809308060E941D3033C5953038F423E087
:103D4000092E01C0220F0A94EAF701C020E32A8F4E
:103D50009F5F9B8F8F708330A1F048F4813009F40E
:103D600049C3823009F061C61092780946C3863093
:103D700009F4B2C4883009F4AFC4843009F055C6E0
:103D8000ABC484E0809308060E941D303BC58F7051
:103D9000833009F04AC688E080930806F6C485306F
:103DA00019F5E0910606F091070684819581892B2B
:103DB00009F43BC610920A061092090683E799E0BF
:103DC0009093400980933F0990933A098093390971
:103DD00010923C0910923B0910923E0910923D0945
:103DE00088E0809308062AC180915709853409F03C
:103DF0001CC6C0915909D0E0DC2FCC2780915A090C
:103E0000C80FD11D80913D0990913E098C179D07E7
:103E100008F40BC6D0933E09C0933D0980915D091B
:103E20008F7309F002C610915E091111FEC5E09072
:103E30004509F0904609E114F10439F480914709ED
:103E400090914809892B09F442C080916009209122
:103E5000670930916809813151F52F3F4FEF3407E1
:103E600039F48091690990916A09019609F470C04A
:103E70008091410990914209809590958E299F29C2
:103E800028173907A1F4809143099091440980953E
:103E900090954091470950914809842B952B40916A
:103EA000690950916A094817590709F451C02E153C
:103EB0003F0509F0BAC52091690930916A098091DE
:103EC0004709909148092817390709F0AEC5B2DEB5
:103ED000019609F0AAC580916009863009F412C1E3
:103EE0008131B1F1813009F0A0C580916B09883032
:103EF00009F09BC510926B0980916D0990916E0934
:103F0000873FCFEF9C0710F0099601C00896909369
:103F10006E0980936D098091630990916409909373
:103F2000680980936709809165099091660990936B
:103F30006A0980936909F0926409E09263098091AB
:103F4000470990914809909366098093650971C566
:103F50006C97D0933E09C0933D0983E799E0909315
:103F6000400980933F098091710990917209892BD2
:103F700099F420916D0930916E0940916B0950912F
:103F80006C096091630970916409A0916509B09111
:103F90006609EAEDF5E00BC081E1C2DD019609F0AA
:103FA00044C5E7CF84819581009731F43B9686E044
:103FB000E630F807B8F324C028173907B9F7868127
:103FC0009781009719F04817590781F780819181EF
:103FD000009729F4C281D381CD2B49F416C08F3FBD
:103FE000CFEF9C0721F4C281D381219671F068172D
:103FF0007907E1F682819381A817B907B9F605C060
:10400000F0930706E093060610C5F0930706E093C9
:10401000060610920A061092090682E080930806AE
:1040200083E799E09093400980933F0990933A0980
:104030008093390910923C0910923B090CDD809164
:104040003B0990913C09009709F4EFC49C01245E60
:104050003F4F30933E0920933D09309359092093F7
:104060005A09E0910606F0910706208520935F0922
:1040700021E1209360090896982789279827909333
:10408000700980936F0910927209109271098481EE
:10409000958190936C0980936B09868197819093A9
:1040A0006E0980936D09809145099091460990931E
:1040B000640980936309809147099091480990931E
:1040C0006609809365098081918190936809809346
:1040D00067098281938190936A09809369098FE7C8
:1040E00099E09093400980933F0981E119DD809523
:1040F0009095009711F48FEF9FEF90937209809342
:10410000710971C486E00CDD019609F08EC420911E
:104110006D0930916E0980916B0990916C096091E5
:10412000630970916409E0916509F0916609C2E63E
:10413000D5E0498D4423A9F0AC81BD812A173B0706
:1041400081F4AE81BF818A179B0759F4A881B98198
:104150006A177B0731F4AA81BB81EA17FB0709F4D0
:1041600063C16E9645E0CA3DD40719F7809178097E
:104170008F738230A1F4309312062093110680E0F1
:10418000843059F08F5F21153105D1F71092100658
:1041900080E0C0E0D0E09EE178C08093100680917E
:1041A000780982FD42C484E18093780988E290E036
:1041B00090933E0980933D0980E580937709309183
:1041C000720980917609809372092091710980911A
:1041D00075098093710920937509909170098091F8
:1041E0007409809370099093740980916F0980938A
:1041F00010064091730940936F09809373093F5FE4
:104200003093760931110DC02F5F2093750921116C
:1042100008C09F5F90937409911103C08F5F8093D2
:10422000730980916B0990916C09909312068093A9
:10423000110620916D0930916E0930936C0920931D
:104240006B0990936E0980936D0980916309909139
:10425000640990936809809367098091650990913A
:10426000660990936A0980936909F0926409E09263
:10427000630980914709909148099093660980935A
:10428000650996C3473099F08F5F8430F1F0282F8D
:1042900030E0929FF001939FF00D1124EE59FA4FF8
:1042A000418D4111EFCF80931006EF0110C0209790
:1042B00021F0528D4A8D451738F7929FE001939F68
:1042C000D00D1124CE59DA4FDFCF809310062097FE
:1042D00009F4ABC3D0930A06C093090683E08A8F22
:1042E000888F1E8A84E08F8B1B8E80916D09909140
:1042F0006E099D838C8380916B0990916C099F83DB
:104300008E83809163099091640999838883809159
:104310006509909166099B838A8381E0898F8091EA
:1043200013068C87809114068D87809115068E87E1
:10433000809116068F8781E090E0998B888B809121
:1043400072098B87809171098A87809170098987AA
:1043500080916F09888781E090E00E946746809194
:104360007709982F907F913508F444C082958F701B
:1043700090E00597880F991F880F991F20910F06CD
:10438000E12FF0E0E817F9078CF5E75BF64F26A977
:10439000211105C01093100610920F062BC021307A
:1043A00011F41F5FEDCF2230E1F437A93430C9F4A6
:1043B0001093100620930F0680AD90E0982F882769
:1043C00021AD822B9093120680931106813062E01A
:1043D000960710F080E092E09B8B8A8B9D8B8C8BF4
:1043E00009C037A9332311F0130FCACF1093100659
:1043F00020930F0680E1809378098091780982608C
:104400008093780982E080937F0994E090938009FB
:1044100080938109109282098CE290E090933E098A
:1044200080933D0980E672C2D0930A06C0930906C4
:104430001092080630917809132F147032FF03C0D0
:10444000198E80E20CC22091770922952F70220FDD
:10445000220F2093100680913D0990913E094497C8
:10446000821B910990933E0980933D094F70423021
:1044700021F4232F2F732231C9F0892B19F4832FB4
:104480008370A1F090916F098885981335C290913F
:1044900070098985981330C2909171098A859813A3
:1044A0002BC2909172098B85981326C234FF49C0A4
:1044B000688979896115710509F443C0CE010C96AC
:1044C0000E9431463091730980915E05381339C0DE
:1044D0002091740980915F05281333C0909175096C
:1044E0008091600598132DC08091760940916105F7
:1044F000841327C03C872D879E878F878B8D8111E2
:1045000019C09E89888D2A8D821B292F2695269574
:104510002695821B980F9E8B87FD81952F89322FC0
:1045200036953695231B820F8F8B9695969596958B
:10453000890F888F81E080930806888D8A8F198A79
:10454000188A298DE22FEF708E2F90E0FC013197B1
:10455000E830F10508F069C28827EE58FF4F8F4F09
:104560000C94914C8091080680FF5FC283E0898F94
:1045700080E480930806198A188A80913D099091F9
:104580003E09009709F4FDC022E4209308060E942A
:104590006746F7C08091080680FF6DC0809178095A
:1045A0008F73823109F067C080917709982F907FCF
:1045B000913508F444C082958F7090E00597880F7C
:1045C000991F880F991F20910F06E12FF0E0E8173F
:1045D000F9078CF5E75BF64F26A9211105C010936A
:1045E000100610920F062BC0213011F41F5FEDCF83
:1045F0002230E1F437A93430C9F410931006209327
:104600000F0680AD90E0982F882721AD822B9093E4
:10461000120680931106813072E0970710F080E057
:1046200092E09B8B8A8B9D8B8C8B09C037A933239F
:1046300011F0130FCACF1093100620930F0683E0DA
:10464000898F80916F09888780917009898780910F
:1046500071098A87809172098B8781E090E00E94BE
:10466000674682E480930806198A188A10923E09E8
:1046700010923D0986C080E2809308060E941D309A
:10468000198E8DCD8091780980FF28C024FD26C029
:1046900088899989892B09F0C8C180913D09909139
:1046A0003E0901960E94674680910806982F906106
:1046B0009093080620913D0930913E09232B19F073
:1046C0008261809308060E941D3081E090E0998B02
:1046D000888B88E0898F1B8E81E10FC185FF1DC00B
:1046E00080917D0990E0982F882730917E09832B57
:1046F00040913F0950914009480F591F509340097C
:1047000040933F0940913D0950913E09BA01681B11
:10471000790B70933E0960933D0940913D0950919A
:104720003E094115510551F024FD08C0909108063D
:10473000926090930806CA010E94674680917909A9
:1047400090E0982F882720917A09820F911D9093ED
:104750001206809311062C893D892817390710F01D
:10476000892B21F4309312062093110680911106B3
:10477000909112069B8B8A8B80910806837009F4B6
:1047800054C110923C0910923B090E941D30809147
:10479000080685FF07C010923C0910923B09198E4C
:1047A00084E1ABC084FF0AC010923C0910923B091F
:1047B00081E090E0998B888B84E08CCF20913B093D
:1047C00030913C0921153105E1F080FF02C0198AC2
:1047D000188A88899989009781F48A899B89821728
:1047E000930720F490933C0980933B0980913B0907
:1047F00090913C09998B888B04C090933C098093DD
:104800003B091B8E8091390990913A099093400998
:1048100080933F0980913B0990913C09892B59F085
:1048200088899989009739F0889690933E098093FA
:104830003D0988E10BC08091080681FFF6C088E23F
:1048400090E090933E0980933D0980E18093780940
:104850005CC08091080680FFE8C0198E80E18093DB
:1048600008060E941D30E1C080913D0990913E09EB
:10487000009711F00E946746909178098091080690
:1048800090FF0BC080FF06C087E0898F1A8E198ABF
:10489000188A19C086E0898F16C080FF1EC085E087
:1048A000898F198A188AC1C080913D0990913E096B
:1048B000009711F00E9467468091780980FF0DC033
:1048C00087E0898F1A8E81E090E00E94674680E140
:1048D000809308060E941D300FC080913D09909181
:1048E0003E09892B49F4A1C08091080680FF9DC034
:1048F00087E0898F1A8E99C080E18093780988E2D9
:1049000090E090933E0980933D0980E5809377097C
:104910008885809373098985809374098A8580933B
:1049200075098B85809376098C8580936F098D85B9
:10493000809370098E85809371098F8580937209A9
:1049400086E0809360098C819D8190936C098093AF
:104950006B098E819F8190936E0980936D09809180
:104960004509909146099093640980936309809169
:104970004709909148099093660980936509888159
:10498000998190936809809367098A819B819093AC
:104990006A0980936909898D84FF05C010927A099C
:1049A0001092790905C082E08093790910927A0902
:1049B00080E480935F0980913D0990913E09909336
:1049C000590980935A0910927E0910927D0910921C
:1049D0007C0910927B0986E0A3D8809590959093EE
:1049E0007C0980937B0985E48093570910925809CC
:1049F00010925E0910925D0980910D0690910E064D
:104A0000019690930E0680930D0690935B09809318
:104A10005C0910926209109261090CD980959095F9
:104A2000909362098093610904C010923E0910922C
:104A30003D0910920806DF91CF911F91FF90EF90F2
:104A400008950F931F93CF93DF93DC0120910B0602
:104A500030910C062F5F3F4F21158DE7380710F07E
:104A600020E030E1522F432FEAEDF5E080E0843082
:104A700041F0C481D5818F5F3B96C417D507B9F744
:104A8000E9CF30930C0620930B0690E08BE0943036
:104A9000D1F0292F30E041E0490F829FF001839F40
:104AA000F00D1124E652FA4FEF012496048115818E
:104AB000012B39F490931006309741F480E090E098
:104AC0002EC0942FE4CF90931006F8CF80910B0660
:104AD00090910C0698278927982799838883778354
:104AE0006683109729F410821182128213820BC000
:104AF0008D919C9111979183808312968D919C91B9
:104B00001397938382838BE0829FD001839FB00DA4
:104B10001124A652BA4F80E418968C93CF01DF91EE
:104B2000CF911F910F910895FC01538D448D252F36
:104B300030E0842F90E0821B930B541710F0CF9637
:104B4000089501970895FC01918D828D981761F069
:104B5000828DDF01A80FB11D5D968C91928D9F5FB4
:104B60009F73928F90E008958FEF9FEF0895FC015F
:104B7000918D828D981731F0828DE80FF11D858D12
:104B800090E008958FEF9FEF0895FC01918D228DA5
:104B9000892F90E0805C9F4F821B91098F7399272A
:104BA00008958BE797E0F1DF21E0892B09F420E0FD
:104BB000822F0895FC01848DDF01A80FB11DA35A37
:104BC000BF4F2C91848D90E001968F739927848F2D
:104BD000A689B7892C93A089B1898C9180648C9324
:104BE000938D848D981306C00288F389E02D80810F
:104BF0008F7D80830895EF92FF920F931F93CF9341
:104C0000DF93EC0181E0888F9B8D8C8D981305C01C
:104C1000E889F989808185FD23C0F62E0B8D10E08F
:104C20000F5F1F4F0F731127E02E8C8DE8120BC002
:104C30000FB607FCFACFE889F989808185FFF5CFA7
:104C4000CE01B8DFF2CF8B8DFE01E80FF11DE35AE4
:104C5000FF4FF0820B8FEA89FB898081806207C059
:104C6000EE89FF896083E889F98980818064808387
:104C700081E090E0DF91CF911F910F91FF90EF9035
:104C80000895CF93DF93EC01888D8823C1F0EA89E2
:104C9000FB89808185FD05C0A889B9898C9186FD35
:104CA0000EC00FB607FCF5CF808185FFF2CFA88933
:104CB000B9898C9185FFEDCFCE017CDFE8CFDF9104
:104CC000CF91089580E090E0892B19F06ADF81117F
:104CD00025C080E090E0892B41F080E090E0892BB6
:104CE00021F00E94000081111CC080E090E0892B1F
:104CF00041F080E090E0892B21F00E9400008111BA
:104D000013C080E090E0892BA1F080E090E0892B37
:104D100081F00E94000081110AC008950E940000E5
:104D2000D8CF0E940000E1CF0E940000EACF0C948F
:104D3000000008953FB7F89480912C0790912D07BB
:104D4000A0912E07B0912F0726B5A89B05C02F3F35
:104D500019F00196A11DB11D3FBFBA2FA92F982FA1
:104D60008827820F911DA11DB11DBC01CD0142E01C
:104D7000660F771F881F991F4A95D1F708958F9264
:104D80009F92AF92BF92CF92DF92EF92FF920F93DA
:104D90001F93CF93DF937C018B016C0182E0C80EDF
:104DA000D11C4701E5E08E0E911CC0E0D0E0F60179
:104DB00041916F0150E060E070E02AE0C8010E947C
:104DC000AA335C016EE2C8010E9480338A0D9B1DEC
:104DD000C80FD91FC814D90451F7F701458150E015
:104DE00060E070E02AE0C8010E94AA338C0F9D1F8A
:104DF000DF91CF911F910F91FF90EF90DF90CF90B7
:104E0000BF90AF909F908F9008950E94BE4E1F92CA
:104E10000F920FB60F9211240BB60F922F933F9360
:104E20004F935F936F937F938F939F93AF93BF93B2
:104E3000EF93FF938BE797E0BDDEFF91EF91BF917A
:104E4000AF919F918F917F916F915F914F913F9122
:104E50002F910F900BBE0F900FBE0F901F901895C3
:104E60001F920F920FB60F9211240BB60F922F9331
:104E70008F939F93EF93FF93E0918B07F0918C07B3
:104E80008081E0919107F091920782FD12C090819C
:104E9000809194078F5F8F7320919507821751F04F
:104EA000E0919407F0E0E558F84F958F80939407D0
:104EB00001C08081FF91EF919F918F912F910F9071
:104EC0000BBE0F900FBE0F901F901895362F90E0DD
:104ED000FC01E75AF74F4491FC01ED5EF74F249136
:104EE000FC01E353F84F9491992309F46BC04423D8
:104EF00009F455C050E0FA013197E231F10508F0AC
:104F00004EC08827E658FF4F8F4F0C94914C8091EC
:104F100080008F7707C0809180008F7D03C08091D3
:104F20008000877F809380003AC084B58F7702C06D
:104F300084B58F7D84BD33C08091B0008F7703C06E
:104F40008091B0008F7D8093B00029C08091900047
:104F50008F7707C0809190008F7D03C08091900073
:104F6000877F809390001BC08091A0008F7707C03F
:104F70008091A0008F7D03C08091A000877F8093E7
:104F8000A0000DC0809120018F7707C08091200183
:104F90008F7D03C080912001877F80932001E92FBE
:104FA000F0E0EE0FFF1FED54F84FA591B4918FB7CD
:104FB000F894EC91311103C020952E2301C02E2BC3
:104FC0002C938FBF0895CF93DF9390E0FC01ED5EAB
:104FD000F74F2491FC01E353F84F8491882361F14A
:104FE00090E0880F991FFC01E756F84FC591D491C6
:104FF000FC01ED54F84FA591B491611109C09FB720
:10500000F8948881209582238883EC912E230BC00D
:10501000623061F49FB7F8943881822F80958323A2
:105020008883EC912E2B2C939FBF06C08FB7F894EA
:10503000E8812E2B28838FBFDF91CF91089586338F
:1050400008F0865390917B00282F2870977F922B31
:1050500090937B008770806480937C0080917A00BD
:10506000806480937A0080917A0086FDFCCF8091E5
:1050700078002091790090E0922B08958F929F9272
:10508000AF92BF92CF92DF92EF92FF926B017C01C1
:1050900051DE4B015C01C114D104E104F104E9F0DB
:1050A00049DEDC01CB0188199909AA09BB09883EB0
:1050B0009340A105B10578F321E0C21AD108E108B7
:1050C000F10888EE880E83E0981EA11CB11CC11463
:1050D000D104E104F10421F7DECFFF90EF90DF90DF
:1050E000CF90BF90AF909F908F9008952FB7F89476
:1050F000609128077091290780912A0790912B07CA
:105100002FBF08951F920F920FB60F9211242F9365
:105110003F938F939F93AF93BF9380912807909174
:105120002907A0912A07B0912B073091270723E088
:10513000230F2D3720F40196A11DB11D05C026E8CF
:10514000230F0296A11DB11D2093270780932807E6
:1051500090932907A0932A07B0932B0780912C07DF
:1051600090912D07A0912E07B0912F070196A11DB8
:10517000B11D80932C0790932D07A0932E07B09319
:105180002F07BF91AF919F918F913F912F910F90DA
:105190000FBE0F901F9018958823E9F0AEE1B6E09E
:1051A00025E014969C91149798130DC095E0899F63
:1051B000F0011124E25EF94F848114968C931382DE
:1051C000128214820895992331F0299FD00111246D
:1051D000A25EB94FE6CF08950F931F93CF93DF934D
:1051E0008C01EB0160E085E371DE8AE38EBD0DB4D6
:1051F00007FEFDCF0C0F1D1FC017D10739F01EBCD5
:105200000DB407FEFDCF8EB58993F6CF61E085E33F
:10521000DF91CF911F910F9159CE0F931F93CF9391
:10522000DF931F92CDB7DEB7182F062F60E085E31E
:1052300049834CDE802F8F71812B8EBD49810DB447
:1052400007FEFDCF4EBD0DB407FEFDCF61E085E347
:105250000F90DF91CF911F910F9138CE1F93CF9375
:10526000DF93182F1076C12FD0E02091000230E09C
:10527000C217D30779F043E06FE180EACEDFAE01D9
:1052800085E0559547958A95E1F76FE180E8C5DFA0
:1052900010930002DF91CF911F9108951F93CF9338
:1052A000DF931F921F92CDB7DEB7182F69837A83E1
:1052B000D5DF4981612F80E4B0DF61E0610F7A8141
:1052C000472F80E40F900F90DF91CF911F91A5CFD2
:1052D000CF93DF93C82FD62F60E085E3F7DD8D2FC6
:1052E0008F71C82BCEBD0DB407FEFDCF1EBC0DB413
:1052F00007FEFDCFD7FD07C061E085E3E7DD8EB592
:10530000DF91CF9108951EBC0DB407FEFDCFF4CF01
:10531000CF93C62FBC0182E0C1DF60E085E3D6DD1C
:105320008AE78EBD0DB407FEFDCFCEBD0DB407FEDE
:10533000FDCF61E085E3CF91C9CDBC0180E0AEDF58
:1053400060E085E3C3DD8AE38EBD0DB407FEFDCFCB
:105350001EBC0DB407FEFDCF61E085E3B7DD8EB561
:105360000895CF92DF92EF92FF920F931F93CF9306
:10537000DF936C018B014130510569F4CB01DDDF16
:10538000682FC601DF91CF911F910F91FF90EF9091
:10539000DF90CF90BDCFEA01C60FD71F7E0181E01D
:1053A000E81AF10880E17ADFB60184E177DF0115C0
:1053B000184038F4E11488E0F80618F07E0188E01F
:1053C000F81AB70182E16ADF40E16FE180EA25DF88
:1053D00040E26FE180E821DF6FE180E079DF85FF67
:1053E00006C061E070E080E090E048DEF5CFDF913C
:1053F000CF911F910F91FF90EF90DF90CF90089584
:10540000CF92DF92EF92FF920F931F93CF93DF9390
:105410008C0160911E0670911F066150784EC12C60
:1054200098E1D92EEEE1F6E080E0C0E0D0E045E082
:105430009481992349F0499F90011124225E394FAC
:10544000D9012D913C9101C09B01E080F1802E1982
:105450003F090280F381E02D2E1B3F0B20173107FF
:1054600039F4B5E08B9FE0011124C25ED94F48C0EA
:105470000217130748F42C153D0530F4489FE0014E
:105480001124C25ED94F6901911107C02097C1F55F
:10549000CEE1D6E085E0D82E1DC0499FF001112451
:1054A000E25EF94F892FC4CFEA80FB8028813981E1
:1054B000E20EF31ED89EE0011124C25ED94F68812E
:1054C0007981E616F70631F04A815B81C70149DF31
:1054D000F982E8828C818111E7CF20911E063091FC
:1054E0001F0688819981281B390B8A819B81281B83
:1054F000390B2150384E2017310710F480E01AC0C4
:1055000091E0E3E2F6E022813381232B29F0359606
:105510009F5F9533C1F7F2CF4A815B812881398142
:10552000240F351F31832083138302838C8184836E
:105530009C83892FDF91CF911F910F91FF90EF9066
:10554000DF90CF900895CF92DF92EF92FF920F936A
:105550001F93CF93DF937B018A01690125E0829F2E
:10556000C0011124EC01C25ED94F688179816E0DB2
:105570007F1D82E093DE0A80DB81C02DCE19DF091A
:10558000CC16DD0608F4E60160E085E39FDC8AE7DF
:105590008EBD0DB407FEFDCFC8018C0F9D1F0817EF
:1055A000190741F0F80121918F012EBD0DB407FEBE
:1055B000FDCFF5CF61E085E389DCCE01DF91CF91AE
:1055C0001F910F91FF90EF90DF90CF900895EF9291
:1055D000FF920F931F93CF93DF938B017A018F3F3D
:1055E000C9F025E0829FE0011124C25ED94F02C0BC
:1055F000C9E1D6E088819981B801680F791F80E000
:105600004DDE8A819B81801B910BE816F90690F490
:10561000C70110C08091190690911A06860F971F36
:10562000811528E0920720F3BC016F5F7740C9E144
:10563000D6E0E5CFDF91CF911F910F91FF90EF90D2
:10564000089580E090E00895609117067091180623
:105650006115710549F061507109611588E078079D
:1056600028F060E070E002C06FEF77E060FF02C0FA
:10567000615071098CE012CE0F931F93DB01E42F70
:10568000A80190E0EF3FF9F065E0E69FF0011124FA
:10569000E25EF94F02C0E9E1F6E00190F081E02D11
:1056A0002E0F3F1F65E0689FF001699FF00D1124E8
:1056B000E25EF94F80819181B9018A0F9B1F51DE13
:1056C0001F910F91C1CFE0911906F0911A06E20FD8
:1056D000F31FE11568E0F607F0F29F012F5F3740F6
:1056E000E1CF0F931F93CF93DF93EC0188819981D2
:1056F000009729F02A813B812617370788F48B0110
:105700006F5F7F4F0E94DA4D009761F09983888325
:105710001B830A832C813D81232B11F4FC01108211
:1057200081E001C080E0DF91CF911F910F9108953A
:10573000EF92FF920F931F93CF93DF93FC0124818D
:1057400035816115710511F480E018C041155105CE
:10575000A1F07B01EC018A01020F131FB801C1DF28
:10576000882391F3288139818C819D81B701820F33
:10577000931F0E94D24E1D830C8381E0DF91CF9155
:105780001F910F91FF90EF900895CF93DF93EC015D
:1057900088819981009711F00E94424D19821882E8
:1057A0001D821C821B821A82DF91CF910895EBE744
:1057B000F7E0A089B18982E08C93A485B5851C921D
:1057C000A685B7858FEC8C93108EA489B58986E069
:1057D0008C93A289B3898C9180618C93A289B389BF
:1057E0008C9188608C93A289B3898C9180688C930A
:1057F0000288F389E02D80818F7D808308954F9208
:105800005F926F927F928F929F92AF92BF92CF9250
:10581000DF92EF92FF92CF93DF93EC016A017B015D
:105820009A01AB01C701B6010E947A4C882319F096
:1058300067ED74E01AC046015701E894B7F82FEFFE
:105840003FEF4FE75FE7C501B4010E947A4C811139
:1058500010C02FEF3FEF4FE75FE7C501B4010E9493
:10586000124A181634F46BED74E0CE015ED77C0159
:1058700080C02FEF3FEF4FE75FE4C701B6010E9402
:10588000764C18161CF46FED74E0EFCF2FEF3FEF5E
:105890004FE75FECC701B6010E94124A87FDF3CFC4
:1058A00020E030E0A901C701B6010E94124A87FF3B
:1058B00009C06DE2CE0124D75C01F7FAF094F7F845
:1058C000F09402C0A12CB12C2AE037ED43EA5BE34F
:1058D000C701B6010E94794B2B013C010E944A4C42
:1058E0006B017C010E94164A9B01AC01C301B2010D
:1058F0000E94784B2B013C012AE0B701A601CE01A2
:1059000029D77C01EA0CFB1C6EE2CE01F9D6E80E29
:10591000F91E20E030E040E251E4C301B2010E94F0
:10592000774A2B013C010E944A4C4B01A12CB12C1F
:105930002AE0B501A401CE010DD7E80EF91EC5017C
:10594000B4010E94164A9B01AC01C301B2010E943E
:10595000784B20E030E040E251E40E94774A0E9418
:105960004A4CAB0160E070E02AE0CE01F3D6E80ECD
:10597000F91E68EE72E0CE01D8D68E0D9F1DDF9124
:10598000CF91FF90EF90DF90CF90BF90AF909F901E
:105990008F907F906F905F904F9008952F923F92DD
:1059A0004F925F926F927F928F929F92AF92BF922F
:1059B000CF92DF92EF92FF920F931F93CF93DF93DB
:1059C000CDB7DEB7AC970FB6F894DEBF0FBECDBF34
:1059D0009C838B837B016A0159014617570784F426
:1059E0008D2D261737070CF0BAC169015B01E42E33
:1059F000F82E22E231E03CA72BA764E571E00FC04E
:105A0000241735070CF055C09C2D8D2D6501A92E4E
:105A1000B82E44E551E05CA74BA762E271E036E89E
:105A2000232E33243394CE14DF040CF0A5C19E2D15
:105A30008F2D7601C92ED82E9BA58CA5A6E8B1E0A6
:105A4000BCA7ABA7292E382EEA14FB0409F03FC0EF
:105A5000B6E82B16B1E03B066CF09BA58CA5EBA538
:105A6000FCA5E215F30514F4922D832D2BA43CA480
:105A70009BA78CA76215730544F02BA53CA52617A0
:105A8000370714F47CA76BA7B101AB81BC81ED9102
:105A9000FC9111972BA53CA5261B370B2F5F3F4F81
:105AA0000684F785E02D0FEF1FEFA701CD011995B3
:105AB00071C166E871E0E216F30609F462C184E59B
:105AC00091E09CA78BA722E2222E33243394C101BC
:105AD000EBA5FCA58E1B9F0B96012E193F09AB0170
