:1000000050C400007FC400007DC400007BC4000019
:1000100079C4000077C4000075C4000073C40000F8
:1000200071C400006FC400006DC400006BC4000008
:1000300069C4000067C4000065C4000063C4000018
:1000400061C400005FC400005DC400005BC4000028
:1000500059C4000057C4000055C400000C94A825E2
:1000600051C400000C9456240C942D244BC4000061
:1000700049C4000047C4000045C4000043C4000058
:1000800041C400003FC400003DC400003BC4000068
:1000900039C4000037C4000035C400000C940D0AB8
:1000A00031C400002FC400002DC400002BC4000088
:1000B00029C4000027C4000025C4000023C4000098
:1000C00021C400001FC400001DC400001BC40000A8
:1000D00019C4000017C4000015C4000013C40000B8
:1000E00011C400006F1386130814F9141B1536157C
:1000F0004215ED14BB24BE24AD24B124B524F5244F
:10010000C224C624CC24D024D424DA24DE24E2243D
:10011000F524E824EC24F02400407A10F35A00A0DF
:10012000724E18090010A5D4E80000E876481700C0
:1001300000E40B54020000CA9A3B000000E1F50500
:10014000000080969800000040420F000000A0864A
:1001500001000000102700000000E803000000007C
:100160006400000000000A00000000000100000020
:1001700000002C76D888DC674F0823DFC1DFAE593A
:10018000E1B1B796E5E3E453C63AE651997696E8CD
:10019000E6C28426EB898C9B62ED407C6FFCEFBC51
:1001A0009C9F40F2BAA56FA5F490055A2AF75C937C
:1001B0006B6CF9676DC11BFCE0E40D47FEF520E6B2
:1001C000B500D0ED902E0300943577050080841E95
:1001D000080000204E0A000000C80C333333330FF0
:1001E000986E12831141EF8D2114893BE65516CF8D
:1001F000FEE6DB18D1844B381BF77C1D901DA4BB99
:10020000E424203284725E228100C9F124ECA1E54D
:100210003D27E50110E70110E80148EC0109ED0177
:100220006C23016F240157250171E201181B011590
:100230000101001C01031901017F051F018C1F0131
:10024000847F0A1F01947F0A1F01D47F05400D009F
:100250002B293E3D3F24740806070D17500D000260
:100260000116143F0B5B08121819175D01FF1601E8
:10027000082801207F282801387F2828013C020215
:100280000000040200EF060200000802018F800255
:1002900000008202000017010500000000003E5B24
:1002A0004F5B3E3E6B4F6B3E1C3E7C3E1C183C7EC3
:1002B0003C181C577D571C1C5E7F5E1C00183C18A8
:1002C00000FFE7C3E7FF0018241800FFE7DBE7FFA4
:1002D00030483A060E2629792926407F0505074031
:1002E0007F05253F5A3CE73C5A7F3E1C1C08081CF2
:1002F0001C3E7F14227F22145F5F005F5F06097F30
:10030000017F006689956A606060606094A2FFA2C8
:100310009408047E040810207E201008082A1C0877
:10032000081C2A08081E101010100C1E0C1E0C3081
:10033000383E3830060E3E0E060000000000000079
:100340005F00000007000700147F147F14242A7F39
:100350002A12231308646236495620500008070306
:1003600000001C2241000041221C002A1C7F1C2A84
:1003700008083E08080080703000080808080800D7
:100380000060600020100804023E5149453E0042D2
:100390007F400072494949462141494D33181412A2
:1003A0007F1027454545393C4A49493141211109CA
:1003B000073649494936464949291E0000140000BC
:1003C00000403400000008142241141414141400D6
:1003D0004122140802015909063E415D594E7C1222
:1003E00011127C7F494949363E414141227F4141BA
:1003F000413E7F494949417F090909013E41415137
:10040000737F0808087F00417F41002040413F0181
:100410007F081422417F404040407F021C027F7FC2
:100420000408107F3E4141413E7F090909063E41D3
:1004300051215E7F09192946264949493203017F26
:1004400001033F4040403F1F2040201F3F403840B5
:100450003F631408146303047804036159494D434E
:10046000007F4141410204081020004141417F04C6
:1004700002010204404040404000030708002054AD
:100480005478407F2844443838444444283844440D
:10049000287F385454541800087E090218A4A49CDC
:1004A000787F0804047800447D40002040403D00EF
:1004B0007F1028440000417F40007C047804787C51
:1004C000080404783844444438FC182424181824B8
:1004D0002418FC7C08040408485454542404043FA1
:1004E00044243C4040207C1C2040201C3C403040A8
:1004F0003C44281028444C9090907C4464544C44D4
:100500000008364100000077000000413608000274
:10051000010204023C2623263C1EA1A161123A409E
:1005200040207A3854545559215555794122545414
:100530007842215554784020545579400C1E52720F
:1005400012395555555939545454593955545458EC
:100550000000457C410002457D420001457C407D14
:100560001211127DF0282528F07C545545002054A6
:10057000547C547C0A097F4932494949323A4444FF
:10058000443A324A4848303A4141217A3A4240207E
:1005900078009DA0A07D3D4242423D3D4040403D0F
:1005A0003C24FF2424487E4943662B2FFC2F2BFF3D
:1005B0000929F620C0887E0903205454794100009F
:1005C000447D413048484A32384040227A007A0A15
:1005D0000A727D0D19317D2629292F2826292929DE
:1005E0002630484D40203808080808080808083810
:1005F0002F10C8ACBA2F102834FA00007B00000876
:10060000142A142222142A14085500550055AA55FC
:10061000AA55AAFF55FF55FF000000FF001010105B
:10062000FF00141414FF001010FF00FF1010F01052
:10063000F0141414FC001414F700FF0000FF00FF76
:100640001414F404FC141417101F10101F101F149E
:1006500014141F00101010F0000000001F101010E4
:10066000101F10101010F010000000FF10101010DC
:100670001010101010FF10000000FF140000FF0009
:10068000FF00001F10170000FC04F41414171017CB
:100690001414F404F40000FF00F7141414141414D8
:1006A00014F700F7141414171410101F101F14144B
:1006B00014F4141010F010F000001F101F000000C0
:1006C0001F14000000FC140000F010F01010FF10C8
:1006D000FF141414FF141010101F00000000F0107D
:1006E000FFFFFFFFFFF0F0F0F0F0FFFFFF00000062
:1006F0000000FFFF0F0F0F0F0F3844443844FC4A2F
:100700004A4A347E02020606027E027E0263554990
:1007100041633844443C04407E201E2006027E0291
:100720000299A5E7A5991C2A492A1C4C7201724C12
:10073000304A4D4D303048784830BC625A463D3ED4
:10074000494949007E0101017E2A2A2A2A2A444475
:100750005F444440514A444040444A51400000FFF5
:100760000103E080FF000008086B6B083612362496
:1007700036060F090F0600001818000000101000C0
:100780003040FF0101001F01011E00191D1712005A
:100790003C3C3C3C000000000000002100240027FD
:1007A000002A002D00300033000101000004010781
:1007B000010A0100002200250028002B002E003134
:1007C00000340002010000050108010B01050505C8
:1007D00005070508080808020202020A0A080804B8
:1007E00004040401010101010101010303030303E6
:1007F000030303040707070C0C0C0C0C0C0C0C0275
:1008000002020206060606060606060B0B0B0B0B7B
:100810000B0B0B0102102020080810204010204074
:1008200080020102010804020101020408102040B4
:1008300080804020100804020180040201804020D2
:1008400010080402010804020101020408102040FB
:1008500080010204081020408000000A0B02090CED
:100860000D0E080703040100000000000000000056
:100870000000000000000000000000000000000078
:100880000000000000121110000000000000000035
:100890000000000000000000000000000000000058
:1008A000F03611241FBECFEFD1E2DEBFCDBF00E096
:1008B0000CBF13E0A0E0B2E0E2ECFDE700E00BBF0C
:1008C00002C007900D92AA34B107D9F728E0AAE434
:1008D000B3E001C01D92A637B207E1F714E0C1E50D
:1008E000D4E000E006C021970109802FFE010E949C
:1008F000AB3CC035D10780E00807A9F70E94D42F90
:100900000C94DF3E7DCBEF92FF920F931F93DC019F
:10091000ED91FC910288F389E02D780101E010E06F
:1009200019951F910F91FF90EF900895EF92FF920C
:100930000F931F93DC01ED91FC910288F389E02D68
:100940007801890121E030E019951F910F91FF9006
:10095000EF90089508952F923F924F925F926F9279
:100960007F928F929F92AF92BF92CF92DF92EF923F
:10097000FF920F931F93CF93DF93CDB7DEB72D97E1
:100980000FB6F894DEBF0FBECDBF9D878C876A304F
:10099000A1F4DC0154962C9154971E968D919C9154
:1009A0001F97B8E02B9F800D911D1124EC85FD85CC
:1009B0009787868715861486FBC06D3009F4F8C0CA
:1009C000AC85BD855496BC91B983EC85FD850288C4
:1009D000F389E02DFD83EC83AC85BD8550960D90A9
:1009E000BC91A02DBF83AE83EC85FD858684978462
:1009F000C484D58480859185C816D906C4F0AC8599
:100A0000BD8554964C915497242F30E01C968D91BF
:100A10009C911D97B6E04B9F800D911D1124EC8594
:100A2000FD8595878487468941119EC0C1C0AC85EC
:100A3000BD851A968D919C911B9788169906FCF698
:100A4000B981AB2EB12CC601E6E0BE9F800D911D91
:100A50001124181619069CF6C50123E0880F991F6A
:100A60002A95E1F7880D991D1816190644F6AC85EC
:100A7000BD8557968C91811103C0603B08F06F5F74
:100A8000B5E06B9FB001112416011A82FB01EC192D
:100A9000FD09F987E8879401285F3F4F3B872A8744
:100AA0003A81353049F0E885F985E20DF31DE756C6
:100AB000FD4F54915B8301C01B82240134018B8163
:100AC00080FF13C0AC85BD85ED91FC91B981B1303B
:100AD00031F40084F185E02D2E813F8119C0028818
:100AE000F389E02DEE80FF801EC0EC81FD812E8118
:100AF0003F81E217F307F1F0AC85BD85ED91FC91E4
:100B0000B981B13059F40084F185E02D2C813D810B
:100B1000A301B1018C859D8519950CC00288F389CC
:100B2000E02DEC80FD8085019501A201B6018C8548
:100B30009D851995EB81E695EB83FFEF6F1A7F0A90
:100B40004A0C5B1C2A853B856216730609F0B7CFF9
:100B50003A813F5F3A835FEF251A350ACA0CDB1CE6
:100B6000363009F09DCF4BCF4AEF4203B001439F8F
:100B7000700D1124AC85BD8518964D915C91199727
:100B8000460F571F481759079CF483E0220F331F65
:100B90008A95E1F71E968D919C911F97280F391F1A
:100BA0001F963C932E931E971D961C921E921C9787
:100BB00081E090E02D960FB6F894DEBF0FBECDBF5A
:100BC000DF91CF911F910F91FF90EF90DF90CF9029
:100BD000BF90AF909F908F907F906F905F904F905D
:100BE0003F902F900895EF92FF920F931F93DC0197
:100BF000ED91FC9111971A960D911C911B971896E7
:100C00002D913C9119970288F389E02D7B0140E0FA
:100C100050E060E070E019951F910F91FF90EF9008
:100C200008956F927F928F929F92AF92BF92CF92D0
:100C3000DF92EF92FF920F931F93CF93DF936C019C
:100C40005A014801EB013B01620E731EC615D70520
:100C500074F4D601ED91FC910484F585E02D8701B3
:100C60009401A501BE01C60119952196EFCFDF9130
:100C7000CF911F910F91FF90EF90DF90CF90BF9099
:100C8000AF909F908F907F906F900895EF92FF921A
:100C90000F931F93DC01ED91FC91260F371F21501C
:100CA00031090284F385E02D78018A0119951F919D
:100CB0000F91FF90EF900895EF92FF920F931F9383
:100CC0007801DC01ED91FC91240F351F8901015061
:100CD00011090284F385E02D9B0119951F910F9155
:100CE000FF90EF9008956F927F928F929F92AF92B4
:100CF000BF92CF92DF92EF92FF920F931F93CF9309
:100D0000DF93EC014B015A0169013801E881F98157
:100D10000684F785E02D87011995E881F981A50101
:100D2000460D571D415051090684F785E02D960167
:100D3000B401CE011995E881F9810484F585E02D8F
:100D40009301A501B401CE011995E881F981C80C80
:100D5000D91CB601615071090484F585E02D930119
:100D6000A501CE011995DF91CF911F910F91FF90B1
:100D7000EF90DF90CF90BF90AF909F908F907F903B
:100D80006F9008952F923F924F925F926F927F9251
:100D90008F929F92AF92BF92CF92DF92EF92FF928B
:100DA0000F931F93CF93DF9300D0CDB7DEB74C01E5
:100DB0007B836A836A01590117019801241B350B53
:100DC00037FF03C0319521953109C5014A815B8107
:100DD000841B950B97FF03C091958195910951E074
:100DE00059838217930714F019820BC09A2D8B2D0B
:100DF0005801092F182F9A818B81DB82CA82C92E54
:100E0000D82E8A819B81A816B9065CF49C2D8D2D65
:100E10006801092F182F9A818B81BB82AA82A92E83
:100E2000B82E2501AA81BB814A1A5B0A38016C18C9
:100E30007D0877FE03C0719461947108720157FEBA
:100E400003C0BFEFEB1AFB0AF594E794C016D10676
:100E50001CF00FEF1FEF1FC001E010E01CC0D40119
:100E6000ED91FC91B9810084F185E02D9101BB23C6
:100E7000C1F04A815B81B601C4011995E618F708F3
:100E8000F7FE04C0C00ED11EE40CF51CEA81FB8104
:100E90003196FB83EA834A815B81A416B506FCF692
:100EA00004C0A6016A817B81E7CF0F900F900F905D
:100EB000DF91CF911F910F91FF90EF90DF90CF9036
:100EC000BF90AF909F908F907F906F905F904F906A
:100ED0003F902F90089585ED8093BC008091BC00D9
:100EE00084FDFCCF1092D306089540919B03262FDA
:100EF00030E0240F311D21323105DCF42091D3067E
:100F00002430C9F4FC0180E090E0861758F4309159
:100F10009B032191DC01A758BC4FA30FB11D2C935B
:100F20000196F3CF80919B03680F60939B0380E051
:100F3000089581E0089582E008950895E0914B03BB
:100F400080914A03E81730F4F0E0E75AFC4F8081C3
:100F500090E008958FEF9FEF089590914B0380915B
:100F60004A03981750F4E92FF0E0E75AFC4F20812C
:100F700030E09F5F90934B0302C02FEF3FEFC9011A
:100F8000089580914A0390E020914B03821B9109C0
:100F90000895CF92DF92EF92FF920F931F93CF931A
:100FA000DF937C01262F972F8A018091D406882316
:100FB00091F0C62FD72F6E01C40ED51ECC15DD05BE
:100FC00069F06991D701ED91FC910190F081E02DDC
:100FD000C7011995F3CF642F822F87DFC801DF91F6
:100FE000CF911F910F91FF90EF90DF90CF900895D8
:100FF000CF93DF931F92CDB7DEB769832091D406DC
:101000002223D1F02091F706203240F021E030E099
:10101000FC013383228380E090E014C08091D506E8
:10102000E82FF0E0EA52F94F998190838F5F809327
:10103000D5068093F70604C061E0CE01019655DF26
:1010400081E090E00F90DF91CF910895089580E0C6
:1010500090E00895EF92FF920F931F93DC01ED91C2
:10106000FC9111971A960D911C911B9718962D9132
:101070003C9119970288F389E02D7B0140E050E014
:1010800060E070E019951F910F91FF90EF90089527
:10109000CF93DF938B988A98E0910201292F332711
:1010A000E901C07CDD27F3E0D595C795FA95E1F716
:1010B000D901A370BB27D5E0AA0FBB1FDA95E1F7D2
:1010C0007C2F7A2BE7787E2B7093020175B1F901A2
:1010D000EC72FF27EE0FFF1FEE0FFF1F7F74E72B51
:1010E000E5B974B320713327220F331F372F3F7DAB
:1010F000232B24BB8998899A30910201DC01A07CC2
:10110000BB27C3E0B595A795CA95E1F7FC01E3704D
:10111000FF27D5E0EE0FFF1FDA95E1F72A2F2E2BE0
:101120003778232B2093020175B19C012C72332751
:10113000220F331F220F331F372F3F74232B25B964
:1011400074B39C0120713327220F331F372F3F7D4B
:10115000232B24BB8998899A8A9AFA017FEF760F0C
:1011600016160CF094C0219140910201322F307C70
:10117000369536953695522F537060E2569FD001C2
:1011800011243A2B4778342B3093020165B1322F6A
:101190003C72A4E03A9FA0011124362F3F74432BE8
:1011A00045B934B32071220F3F7D232B24BB89988E
:1011B000899A772309F469C020914D03222309F409
:1011C00064C001968A9850910201292F3327E901C2
:1011D000C07CDD2743E0D595C7954A95E1F7D90155
:1011E000A370BB2765E0AA0FBB1F6A95E1F74C2FE0
:1011F0004A2B5778452B4093020165B1A9014C72E7
:101200005527440F551F440F551F562F5F74452B0C
:1012100045B944B320713327220F331F342F3F7D4C
:10122000232B24BB8998899A30910201DC01A07C90
:10123000BB27C3E0B595A795CA95E1F7AC0143700C
:101240005527D5E0440F551FDA95E1F72A2F242BB7
:101250003778232B2093020145B19C012C72332750
:10126000220F331F220F331F342F3F74232B25B936
:1012700044B39C0120713327220F331F342F3F7D4D
:10128000232B24BB8998899A8A9A672F67CF8B9AD8
:10129000DF91CF910895CF93DF938B988A98E2E006
:1012A000F1E05081292F3327E901C07CDD2743E09D
:1012B000D595C7954A95E1F7D901A370BB27D5E02D
:1012C000AA0FBB1FDA95E1F74C2F4A2B5778452B15
:1012D0004083A5B1A9014C725527440F551F440FF7
:1012E000551F5A2F5F74452B45B944B320713327DE
:1012F000220F331F342F3F7D232B24BB8998899ADB
:101300003081DC01A07CBB27D3E0B595A795DA95A9
:10131000E1F7AC014370552725E0440F551F2A958E
:10132000E1F72A2F242B3778232B208345B19C010A
:101330002C723327220F331F220F331F342F3F7499
:10134000232B25B924B380719927880F991F922FD9
:101350009F7D892B84BB8998899A8A9A3081872FAF
:101360009927DC01A07CBB27C3E0B595A795CA955A
:10137000E1F7AC0143705527D5E0440F551FDA95CE
:10138000E1F72A2F242B3778232B208345B19C01AA
:101390002C723327220F331F220F331F342F3F7439
:1013A000232B25B924B380719927880F991F922F79
:1013B0009F7D892B84BB8998899A9081AB01407C61
:1013C0005527B3E055954795BA95E1F79B012370F2
:1013D0003327C5E0220F331FCA95E1F7842F822BF4
:1013E0009778892B808325B1CB018C729927880F40
:1013F000991F880F991F922F9F74892B85B984B3E9
:1014000060717727660F771F8F7D682B64BB899883
:10141000899A8B9ADF91CF9108951F920F920FB600
:101420000F9211240BB60F922F933F934F935F931C
:101430006F937F938F939F93AF93BF93EF93FF939C
:101440008091B900887F803609F49CC068F58832A5
:1014500009F45BC090F4803109F454C038F4882357
:1014600009F4F6C0883009F44DC0F5C0883109F49C
:101470004CC0803209F45DC0EEC0803409F468C00D
:1014800048F4803309F455C0883309F0E4C08093F0
:10149000D106D8C0803509F44FC0883509F45DC045
:1014A000883409F0D8C0D6C0883909F4C7C0A8F478
:1014B000883709F467C038F4883609F463C0803788
:1014C00009F460C0C8C0883809F4B8C0803909F48C
:1014D0005FC0803809F0BFC05BC0803B09F486C0A4
:1014E00038F4803A09F466C0883A09F47FC0B3C082
:1014F000803C09F4A7C0883C09F4A4C0883B09F4E7
:101500008AC0A9C08091AE0610C09091D00680918B
:10151000CF06981770F5E091D00681E08E0F80938A
:10152000D006F0E0E155F94F80818093BB0085EC57
:1015300086C08093D1068EC0E091D00681E08E0FE8
:101540008093D0068091BB00F0E0E155F94F808395
:101550009091D0068091CF066EC0E091D00681E0D8
:101560008E0F8093D0068091BB00F0E0E155F94FDB
:1015700080838091D20681116DC081E08093AD0699
:1015800084EA61C083E08093D3061092BF03CFCF7B
:101590008091BF03803208F051C0E091BF0381E029
:1015A0008E0F8093BF038091BB00F0E0E156FC4FAB
:1015B0008083BDCF85EC8093BC001092D3068091D0
:1015C000BF03803230F4E091BF03F0E0E156FC4FFE
:1015D00010826091BF0370E0E0919D03F0919E0343
:1015E0008FE993E019951092BF0335C084E0809392
:1015F000D30610929C0310929B03E0919903F09103
:101600009A03199580919B03811105C081E0809315
:101610009B0310927903E0919C0381E08E0F8093ED
:101620009C03F0E0E758FC4F80818093BB009091D1
:101630009C0380919B03981708F479CF85E88093E9
:10164000BC0009C085EC8093BC001092D30603C097
:101650001092D10640DCFF91EF91BF91AF919F9125
:101660008F917F916F915F914F913F912F910F904B
:101670000BBE0F900FBE0F901F901895FF920F9307
:101680001F93CF93DF938C0160E00E945D2EF801E1
:10169000808191E09093D4068093F6061092D5064F
:1016A0001092F70660E089EE97E0A2DC81E00E94EC
:1016B000002EF80120818091D3068111FCCF81E0BA
:1016C0008093D3068093D2069FEF9093D106109219
:1016D000D0068093CF068093AE069091AE06822FFF
:1016E000880F892B8093AE068091AD06813061F41E
:1016F0001092AD068091AE068093BB008091BC0035
:1017000083FDF8CF85EC01C085EE8093BC0080910D
:10171000D3068130E1F38091D006823018F48091B5
:10172000D00601C082E0AFEAB6E029E533E0F90176
:101730009E2F921B981718F49D919193F9CF1092B8
:101740004B0380934A0389EE97E007DCF82E89EE7D
:1017500097E003DCEC0161E0C8010E945D2E60E0CF
:1017600070E07F2D6C2B7D2B072E000C880B990BC6
:101770000E942C3A20E030E040E05DE30E948B3A8A
:1017800020E030E040E05EE30E948B3ADF91CF91B1
:101790001F910F91FF9008952F923F924F925F9269
:1017A0006F927F928F929F92AF92BF92CF92DF9271
:1017B000EF92FF920F931F93CF93DF93CDB7DEB7D6
:1017C000E2970FB6F894DEBF0FBECDBF4C014EA717
:1017D0005FA768AB79AB2AABB02E1601270182E078
:1017E000F401848B8FEF9FEF938B828B918B808B97
:1017F000A11003C0E12CF12C03C0E12C9CEFF92EC9
:1018000003E210E029E630E046E450E068E270E0F0
:10181000C4010E94121EA11003C0E12CF12C03C0D0
:10182000E12C8CEFF82E03E210E029E630E041E9EC
:1018300050E068E270E0C4010E94121E82E390E072
:10184000F4019587848780E590E09787868762E03A
:1018500073E0C4010E94A42F8EE390E0F401958709
:1018600084878BE990E0978786876AE073E0C401FC
:101870000E94A42FF4011586148683E090E09787D8
:1018800086878FEF9FEF918B808B138A128A1BA222
:101890001AA21DA21CA21FA21EA28E010F5F1F4F23
:1018A00022E044E06EA57FA588A999A90E94A237ED
:1018B0007C01009779F0FC0101900020E9F7319755
:1018C0003F01681A790AB301CE0182960E949E2ECA
:1018D000811105C0CE0182960E94C52E07C07FA24D
:1018E0006EA2B7018AA19BA10E94D83E60E173E07D
:1018F000CE0101960E94072FBE016E5D7F4FCE0183
:1019000001960E94D72EBC01C4010E94B62F898186
:101910009A810E94483D8AA19BA10E94483DF40102
:101920001586148684E190E097878687B11003C0FE
:101930006EEF72E002C06BEF72E0CE0188960E94FB
:10194000072FFAA9F11103C06EEF72E002C06BEF2E
:1019500072E0CE0182960E94072F6FE173E0CE0104
:1019600001960E94072FBE016E5D7F4FCE0101964A
:101970000E94D72E3C01FC01848195817C01FAE014
:10198000EF0EF11CB701C3010E949E2E882309F4BB
:1019900000C1F301208131818481958162E373E08C
:1019A000820F931F0E94D83EF301F582E482BE01AC
:1019B000685D7F4FC3010E94D72EBC01C4010E9405
:1019C000B62F89819A810E94483D8AA19BA10E94DD
:1019D000483D88A599A50E94483D2AE530E04AE5A2
:1019E00050E066E470E0C4010E94EE2B25EA30E08E
:1019F00045EA50E069EB70E0C4010E94EE2B83E001
:101A0000F401848B8FEF90E09587848783E790E0E3
:101A100097878687A2019101C201B1010E94A73C6C
:101A2000882319F06DE373E01AC072016101E89434
:101A3000F7F82FEF3FEF4FE75FE7C701B6010E94CE
:101A4000A73C811110C02FEF3FEF4FE75FE7C701C1
:101A5000B6010E94263A181634F461E473E0C4011A
:101A60000E94472F78C02FEF3FEF4FE75FE4C2019E
:101A7000B1010E94A33C181654F02FEF3FEF4FE73F
:101A80005FECC201B1010E94263A87FF03C065E402
:101A900073E0E5CF20E030E0A901C201B1010E946E
:101AA000263A87FF08C06DE2C4010E94402F57FA12
:101AB000509457F850942AE037ED43EA5BE3C201B3
:101AC000B1010E94A63B2B013C010E94773C6B01B7
:101AD0007C010E942A3A9B01AC01C301B2010E9421
:101AE000A53B2B013C012AE0B701A601C4010E94DD
:101AF0005C2F6EE2C4010E94402F20E030E040E203
:101B000051E4C301B2010E948B3A6B017C010E9437
:101B1000773C2B01612C712C2AE0B301A201C40196
:101B20000E945C2FC301B2010E942A3A9B01AC01C2
:101B3000C701B6010E94A53B20E030E040E251E43D
:101B40000E948B3A0E94773CAB0160E070E02AE093
:101B5000C4010E945C2F6EED72E0C4010E94472F09
:101B6000E2960FB6F894DEBF0FBECDBFDF91CF91E6
:101B70001F910F91FF90EF90DF90CF90BF90AF90AB
:101B80009F908F907F906F905F904F903F902F909D
:101B90000895C3010E94C52E0ACF6091DD047091A3
:101BA000DE046115710549F061507109611588E025
:101BB000780728F060E070E002C06FEF77E060FF28
:101BC00002C0615071098CE00C9474260F931F932E
:101BD000CF93DF930091970410919804C0919904DA
:101BE000D0919A040F3F8FEF180741F4CF3F9FEF3A
:101BF000D90721F486E0EBE2F2E021C010934B0517
:101C000000934A05D0934D05C0934C0580E09BE0BE
:101C100001C08F5F883071F1989FF0011124EF505F
:101C2000FB4F208131810217130799F722813381FD
:101C3000C217D30771F780934905349686E0A9E768
:101C4000B4E001900D928A95E1F786E0E5E2F2E0DA
:101C5000AFE7B4E001900D928A95E1F788E090E05B
:101C6000909386048093850480916D0490916E0416
:101C70000E9657C08093490546E050E06FEF70E044
:101C800089E794E00E94D13E86E0E9E9F4E0DF01D3
:101C9000982F1D929A95E9F7E5E2F2E0AFE7B4E0FC
:101CA000982F01900D929A95E1F7E5E2F2E0AFE806
:101CB000B4E0982F01900D929A95E1F71093A0044B
:101CC00000939F04D093A204C093A10410929604A1
:101CD00010929504109298041092970420E031E03D
:101CE00030938E0420938D043093880420938704CE
:101CF00028E030E030938A042093890480938B0499
:101D000084E080938C0488E096E09093860480932E
:101D100085048FEA94E09093700480936F048AE2C4
:101D200090E090936E0480936D04DF91CF911F91AA
:101D30000F910895EF92FF920F931F93CF93DF932C
:101D40009C01FB011092490590E08BE0983031F145
:101D5000899F70011124E701CF50DB4F68817981A1
:101D600061157105C9F04A815B8141155105A1F0EA
:101D7000D9010D911C9111970617170769F4129656
:101D80006D917C9113976417750731F49093490511
:101D9000D701AB50BB4F2AC09F5FD8CF90E08BE0FC
:101DA000983091F0899FE0011124CF50DB4F48819A
:101DB0005981452B39F44A815B81452B19F4909365
:101DC00049050AC09F5FECCF1092F0041092EF0417
:101DD00010924905C1EFD4E0D9014D915D916D910B
:101DE0007C91DE014D935D936D937D9386E0019030
:101DF0000D928A95E1F71A86DF91CF911F910F918D
:101E0000FF90EF9008959C01AB017093EE046093F6
:101E1000ED041616170654F48091EB049091EC042F
:101E20002817390719F0B9010C94C83E0895BF92DC
:101E3000CF92DF92EF92FF920F931F93CF93DF9396
:101E4000C0916B04D0916C04843009F496C12FEAE0
:101E500034E03093700420936F043093EC042093AB
:101E6000EB04833059F4898D8F70833009F09BC661
:101E700088899989892B09F096C67EC0823009F03D
:101E80007FC08091EA048F5F8093EA04811113C0C0
:101E90008091E9048F5F8093E90481110CC08091E7
:101EA000E8048F5F8093E804811105C08091E70406
:101EB0008F5F8093E70410926E0410926D0410926D
:101EC000EE041092ED04898D982F9D7F953041F49A
:101ED0008A8D8F5F8A8F883709F065C6198E63C631
:101EE000882309F460C628893989232B09F440C066
:101EF0009A8D2FEF290F2A8F911155C69B8D9830FF
:101F000031F02FEF280F223048F4953039F4198E34
:101F100080E880936A040E94E22803C5953038F473
:101F200023E0092E01C0220F0A94EAF701C020E342
:101F30002A8F9F5F9B8F8F708330A1F048F4813090
:101F400009F4EEC2823009F02EC61092A804EBC24A
:101F5000863009F4F5C4883009F4F2C4843009F0FD
:101F600022C6EEC484E080936A040E94E2280EC573
:101F70008F70833009F017C688E080936A04C6C466
:101F8000853019F5E0916804F091690484819581A8
:101F9000892B09F408C610926C0410926B0483EA32
:101FA00094E09093700480936F049093EC0480937A
:101FB000EB041092EE041092ED0410926E04109255
:101FC0006D0488E080936A04D6C0809187048534CC
:101FD00009F0E9C5E0908904F12CFE2CEE248091F3
:101FE0008A04E80EF11C80916D0490916E048E15A8
:101FF0009F0508F4D8C5F0926E04E0926D048091BC
:102000008D048F7309F0CFC5D0908E04D110CBC54D
:102010000E94481C019609F0C6C580919004863044
:1020200009F407C1813191F1813009F0BCC580917B
:102030009B04883009F0B7C510929B0480919D04E1
:1020400090919E04873F2FEF920710F0099601C0F0
:10205000089690939E0480939D04809193049091A0
:1020600094049093980480939704809195049091A0
:10207000960490939A048093990410929404109279
:102080009304109296041092950491C58CE1E81A7D
:10209000F108F0926E04E0926D0483EA94E090936C
:1020A000700480936F048091A1049091A204892B05
:1020B00099F420919D0430919E0440919B0450918D
:1020C0009C046091930470919404A0919504B09144
:1020D0009604ECE3F4E00CC081E10E94BC1B019685
:1020E00009F061C5E6CF84819581009731F43B9674
:1020F00084E0E836F807B8F324C028173907B9F7A1
:1021000086819781009719F04817590781F78081D8
:102110009181009729F4C281D381CD2B49F416C057
:102120008F3FCFEF9C0721F4C281D381219671F0BC
:1021300068177907E1F682819381A817B907B9F684
:1021400005C0F0936904E09368042DC5F093690419
:10215000E093680410926C0410926B0482E0809308
:102160006A0483EA94E09093EC048093EB04109269
:10217000EE041092ED040E94571B8091ED049091A3
:10218000EE04009709F40FC59C01245E3F4F309385
:102190006E0420936D043093890420938A04E091A7
:1021A0006804F0916904208520938F0421E1209335
:1021B000900408969827892798279093A0048093E5
:1021C0009F041092A2041092A1048481958190939F
:1021D0009C0480939B048681978190939E048093B6
:1021E0009D041092940410929304109296041092FD
:1021F00095048081918190939804809397048281C3
:10220000938190939A04809399048FEA94E0909339
:10221000700480936F0481E10E94BC1B80959095AF
:10222000009711F48FEF9FEF9093A2048093A10485
:1022300098C486E00E94BC1B019609F0B4C440918A
:102240009D0450919E0480919B0490919C04609108
:10225000930470919404E0919504F091960404EC39
:1022600013E0E801298D2223A9F0AC81BD814A1732
:102270005B0781F4AE81BF818A179B0759F4A8815F
:10228000B9816A177B0731F4AA81BB81EA17FB0782
:1022900009F460C1025E1F4FD4E00C331D0709F73B
:1022A0008091A8048F738230A1F45093E604409388
:1022B000E50480E0843059F08F5F41155105D1F776
:1022C0001092E40480E0C0E0D0E09EE174C080930E
:1022D000E4048091A80482FD66C484E18093A8048C
:1022E00088E290E090936E0480936D0480E5809383
:1022F000A7043091A2048091A6048093A2042091A7
:10230000A1048091A5048093A1042093A504909139
:10231000A0048091A4048093A0049093A4048091CD
:102320009F048093E4044091A30440939F0480930E
:10233000A3043F5F3093A60431110DC02F5F20939B
:10234000A504211108C09F5F9093A404911103C0BC
:102350008F5F8093A30480919B0490919C04909341
:10236000E6048093E50420919D0430919E0430930F
:102370009C0420939B0490939E0480939D048091E1
:10238000930490919404909398048093970480917F
:1023900095049091960490939A04809399041092D6
:1023A0009404109293041092960410929504BEC364
:1023B000473099F08F5F8430F1F0282F30E0929F02
:1023C000F001939FF00D1124EC53FC4F418D41110E
:1023D000EFCF8093E404EF0110C0209721F0528DDD
:1023E0004A8D451738F7929FE001939FD00D112435
:1023F000CC53DC4FDFCF8093E404209709F4D3C3A0
:10240000D0936C04C0936B0483E08A8F888F1E8AFC
:1024100084E08F8B1B8E80919D0490919E049D8300
:102420008C8380919B0490919C049F838E838091E8
:10243000930490919404998388838091950490915A
:1024400096049B838A8381E0898F8091E7048C873F
:102450008091E8048D878091E9048E878091EA0459
:102460008F8781E090E0998B888B8091A2048B8785
:102470008091A1048A878091A004898780919F041C
:10248000888781E090E00E94A3368091A704982F6E
:10249000907F913508F444C082958F7090E0059745
:1024A000880F991F880F991F2091E304ED2DF0E00C
:1024B000E817F9078CF5E758FB4F26A9211105C04D
:1024C000D092E4041092E3042BC0213011F4D39491
:1024D000EDCF2230E1F437A93430C9F4D092E404CE
:1024E0002093E30480AD90E0982F882721AD822BC4
:1024F0009093E6048093E5048130E2E09E0710F0BB
:1025000080E092E09B8B8A8B9D8B8C8B09C037A9D6
:10251000332311F0D30ECACFD092E4042093E30406
:1025200080E18093A8048091A80482608093A8042D
:1025300082E08093AF0494E09093B0048093B10460
:102540001092B2048CE290E090936E0480936D043C
:1025500080E6A2C2E80110936C0400936B04109211
:102560006A049091A804F92FF470BF2E92FF03C063
:10257000198E80E239C28091A70482958F70880FEE
:10258000880F8093E4046701C81AD108760184E1BA
:10259000E81AF108F0926E04E0926D042F70223078
:1025A00021F4892F8F73823111F1E114F10419F4B0
:1025B000892F8370E1F020919F04D80118968C91A7
:1025C000189728135FC22091A00419968C9119972F
:1025D000281358C22091A1041A968C911A97281397
:1025E00051C22091A2041B968C9128134BC294FFD8
:1025F00063C0F801608971896115710509F45CC0D7
:10260000C8010C960E94BA363091A3048091C00391
:10261000381352C02091A4048091C10328134CC0E8
:102620009091A5048091C203981346C08091A6049E
:102630004091C303841340C0D8011C963C931C975F
:102640001D962C931D971E969C931E971F968C93F8
:102650001F975B968C915B97811126C056969C9133
:10266000569758968C9158975A962C915A97821B48
:10267000292F269526952695821B980F56969C9372
:10268000569787FD819557962C915797322F3695FF
:102690003695231B820F57968C9357979695969550
:1026A0009695890F58968C9381E080936A04F8017F
:1026B000808D828F118A108AD80159962C91E22F31
:1026C000EF708E2F90E0FC013197E830F10508F0B3
:1026D0006AC28827EE58FF4F8F4F0C94AB3C809115
:1026E0006A0480FF60C283E0F801818F80E48093F8
:1026F0006A04118A108AE114F10409F403C182E426
:1027000080936A04C7010E94A336FCC080916A04CA
:1027100080FF76C08091A8048F73823109F070C069
:102720008091A704982F907F913508F449C0829535
:102730008F7090E00597880F991F880F991F20913F
:10274000E304EB2DF0E0E817F907B4F5E758FB4F89
:1027500026A9211105C0B092E4041092E30430C010
:10276000213011F4B394EDCF223009F537A934307C
:10277000F1F4B092E4042093E30480AD90E0982F4C
:10278000882721AD822B9093E6048093E504813065
:10279000F2E09F0710F080E092E0D80153969C93FE
:1027A0008E93529755969C938E93549709C037A950
:1027B000332311F0B30EC5CFB092E4042093E304A9
:1027C00083E0F801818F80919F0480878091A0042D
:1027D00081878091A10482878091A204838781E010
:1027E00090E00E94A33682E480936A04D801519657
:1027F0001C921E92509710926E0410926D0482C02B
:1028000080E280936A040E94E228E801198E61CD7B
:102810008091A80480FF27C024FD25C0F80180898D
:102820009189892B09F0BFC1C60143970E94A33645
:1028300080916A04982F906190936A04EF2819F0B0
:10284000826180936A040E94E22881E090E0D801CE
:1028500051969C938E93509788E059968C935997F4
:102860005B961C926DC085FF15C08091AD0490E011
:10287000982F88273091AE04832BAC0141555B4FD4
:102880005093700440936F04E81AF90AF0926E04B2
:10289000E0926D0440916D0450916E044115510514
:1028A00051F024FD08C090916A04926090936A04EC
:1028B000CA010E94A3368091A90490E0982F88272E
:1028C0002091AA04820F911D9093E6048093E50461
:1028D000F801248935892817390710F0892B21F44C
:1028E0003093E6042093E5048091E5049091E6049A
:1028F000D80153969C938E93529780916A0483706B
:1029000009F451C11092EE041092ED040E94E228E5
:1029100080916A0485FF07C01092EE041092ED04C6
:10292000198E84E1B0C084FF0DC01092EE041092A5
:10293000ED0481E090E0998B888B84E0898F1B8E79
:1029400081E1A1C02091ED043091EE042115310503
:10295000E1F080FF02C0198A188A88899989009756
:1029600081F48A899B898217930720F49093EE045F
:102970008093ED048091ED049091EE04998B888B07
:1029800004C09093EE048093ED041B8E8091EB04C1
:102990009091EC049093700480936F048091ED0407
:1029A0009091EE04892B59F088899989009739F024
:1029B000889690936E0480936D0488E10BC080919B
:1029C0006A0481FFF0C088E290E090936E048093E7
:1029D0006D0480E18093A8045EC080916A0480FF4A
:1029E000E2C0E801198E80E180936A040E94E22827
:1029F000DAC0E114F10419F0C7010E94A3369091E6
:102A0000A80480916A0490FF0EC080FF07C087E091
:102A1000F801818F128E118A108A1BC086E0D801BE
:102A200059968C9316C080FF1EC085E0E801898FFF
:102A3000198A188AB8C0E114F10419F0C7010E947C
:102A4000A3368091A80480FF0EC087E0F801818F33
:102A5000128E81E090E00E94A33680E180936A04A8
:102A60000E94E2280FC0EF2869F49DC080916A049B
:102A700080FF99C087E0D80159968C9359975A9650
:102A80001C9291C080E18093A80488E290E090932A
:102A90006E0480936D0480E58093A70488858093FD
:102AA000A30489858093A4048A858093A5048B85DB
:102AB0008093A6048C8580939F048D858093A004C9
:102AC0008E858093A1048F858093A20486E08093F5
:102AD00090048C819D8190939C0480939B048E81B3
:102AE0009F8190939E0480939D0410929404109271
:102AF0009304109296041092950488819981909382
:102B00009804809397048A819B8190939A04809380
:102B10009904898D84FF05C01092AA041092A9041B
:102B200005C082E08093A9041092AA0480E48093F7
:102B30008F0480916D0490916E049093890480932A
:102B40008A041092AE041092AD041092AC0410925C
:102B5000AB0486E011D6809590959093AC04809359
:102B6000AB0485E4809387041092880410928E044D
:102B700010928D048091E1049091E204019690936B
:102B8000E2048093E10490938B0480938C04109270
:102B90009204109291047CD6809590959093920423
:102BA0008093910404C010926E0410926D041092F0
:102BB0006A04DF91CF911F910F91FF90EF90DF900A
:102BC000CF90BF9008950F931F93CF93DF93DC01B5
:102BD0002091DF043091E0042F5F3F4F21158DE7F6
:102BE000380710F020E030E1522F432FECE3F4E0FF
:102BF00080E0843041F0C481D5818F5F3B96C4175B
:102C0000D507B9F7E9CF3093E0042093DF0490E0D3
:102C10008BE09430D1F0292F30E041E0490F829FC2
:102C2000F001839FF00D1124E45CFB4FEF0124962B
:102C300004811581012B39F49093E404309741F419
:102C400080E090E02EC0942FE4CF9093E404F8CF7E
:102C50008091DF049091E004982789279827998331
:102C6000888377836683109729F4108211821282F9
:102C700013820BC08D919C91119791838083129642
:102C80008D919C911397938382838BE0829FD001D7
:102C9000839FB00D1124A45CBB4F80E418968C93E5
:102CA000CF01DF91CF911F910F910895DC011C9608
:102CB000ED91FC911D97309731F08681978198278F
:102CC00089279827089580E090E00895CF93DF93B7
:102CD000FC01EB01AC85BD85109791F012969C919B
:102CE000129713968C9113973C9111962C9147EC67
:102CF00052E051834083328323839483858308C0C9
:102D000087EC92E091838083128213821482158271
:102D1000CF01DF91CF910895CF93DF931F92CDB76D
:102D2000DEB7DC01ED91FC91048CF58DE02D41E0E6
:102D300050E0BE016F5F7F4F1995181619061CF4FD
:102D4000898190E002C08FEF9FEF0F90DF91CF91CC
:102D50000895CF93DF931F92CDB7DEB76983DC016F
:102D6000ED91FC910280F381E02D41E050E0BE0145
:102D70006F5F7F4F19950F90DF91CF91089580E09D
:102D80000895CF93DF93EC010E94E12889890E9486
:102D9000F225198ADF91CF910895CF93DF93EC014B
:102DA0000E94E1288989DF91CF910C947D28CF93EF
:102DB000DF93EC010E94E128898981110E94F225AC
:102DC0008889898B188ADF91CF910C947D280F9385
:102DD0001F93CF93DF931F92CDB7DEB78C010E9474
:102DE000E128F8018189882391F041E050E060E01A
:102DF00070E00E9443288C01BE016F5F7F4F0E94EC
:102E000012260130110519F4898190E002C08FEF7C
:102E10009FEF0F90DF91CF911F910F910895CF9267
:102E2000DF92EF92FF920F931F93CF93DF931F9246
:102E30001F92CDB7DEB77C016B0149835A830E9494
:102E4000E128F701818949815A81882351F160E0A5
:102E500070E00E9443288C01B6010E941226F701FF
:102E6000D1888D2D0E947D280817190731F48D2DEA
:102E70000E94F225F701118A12C085E0D89EF00168
:102E80001124E95AFA4F80819181800F911F91831B
:102E9000808382819381801B910B93838283C801FD
:102EA00002C080E090E00F900F90DF91CF911F91D2
:102EB0000F91FF90EF90DF90CF900895CF93DF9325
:102EC000EC018A89882369F09A01AB016E857F85C0
:102ED0000E94FF272E853F85280F391F3F872E87A9
:102EE00002C080E090E0DF91CF910895CF93DF930F
:102EF000DC011C96ED91FC911D973097B1F0EC012F
:102F000015821482128611861D861C8689890E946C
:102F1000F22588890E94F2258A890E94F2252E9640
:102F200086E0FE0111928A95E9F7DF91CF9108952D
:102F3000CF92DF92EF92FF920F931F93CF93DF9385
:102F400000D01F92CDB7DEB78C016B017A010E94D1
:102F5000E128F60182819381A481B581892B8A2B96
:102F60008B2B41F1E114F10429F1828190E0982F3B
:102F700088272381822B9827892798279A838983FA
:102F8000248130E0322F22274581242B322723272A
:102F900032273C832B83D8011C96ED91FC911D9721
:102FA0007E2D6F2D309729F17783668391838083FF
:102FB00033832283D8011C968D919C911D97892B78
:102FC000A9F052968C91811111C086E096E00E9482
:102FD0002627F801828B2AE230E03787268721E016
:102FE00090E0811101C020E0822F14C080E090E0C9
:102FF00011C0CE010196E7DDD8011D969C938E93FA
:103000001C97009799F39801225F3F4FFC0132878C
:103010002187D0CF0F900F900F900F90DF91CF911D
:103020001F910F91FF90EF90DF90CF9008950F9335
:103030001F93CF93DF93EC018B018C859D85892BAA
:1030400039F460E070E080E090E0BDDD9D878C8722
:10305000EC85FD85309751F0102701271027158347
:1030600004832E96D287C18781E001C080E0DF9182
:10307000CF911F910F910895CF93DF93EC010E94A0
:10308000E60D20916D0430916E04909150052A3226
:10309000310521F4109251059D7F03C01D821C82D1
:1030A000926090935005DF91CF910C94AC28CF9310
:1030B000DF93EC018C859D85892B19F480E090E0ED
:1030C00023C0EA89EE23D1F381E08B8B8E859F8527
:1030D00025E0E29FF0011124E95AFA4F938382839D
:1030E0008C859D85909369048093680485E00E9497
:1030F000170F80916D0490916E04892BF9F2CE0127
:103100000E96BADF81E090E0DF91CF9108954F9263
:103110005F926F927F928F929F92AF92BF92CF9267
:10312000DF92EF92FF920F931F93CF93DF93CDB770
:10313000DEB7E5970FB6F894DEBF0FBECDBF7C01BA
:103140008B016A0187EC92E09A8389831C861B8637
:1031500048EE53E060E070E04D875E876F87788BC4
:103160002FE632E03A8729871E8A1D8AFE0177966C
:1031700026E0DF011D922A95E9F79AA789A71BA6E9
:103180001CA61DA61EA68091DF079091E007A091C6
:10319000E107B091E2078F8F98A3A9A3BAA38B830D
:1031A0009C83AD83BE8318861F82F801D8018D9160
:1031B000882331F08E32D9F380538A30C0F34EC069
:1031C00080E090E020E030E05AE04191442311F1AA
:1031D000243031050CF042C04E3281F48F3F91050E
:1031E00009F0E4F5ABE2B0E0AC0FBD1FA20FB31FD6
:1031F0008C932F5F3F4F80E090E0E7CF589FB00166
:10320000599F700D1124842F440F990BC097860F7E
:10321000971FDBCF8F3F910509F004F5243031056E
:10322000ECF4FE01E20FF31F83A7D701ED91FC91AF
:103230000488F589E02D87EC92E09E8F8D8F8BA519
:103240009CA5ADA5BEA58F8F98A3A9A3BAA3A601DF
:10325000BE01635E7F4FC701199512C24B815C812D
:103260006D817E818091E5079091E607A091E70747
:10327000B091E807481759076A077B0709F4FEC1B0
:103280000E949C256F7077277C5FCE010996CFDE68
:10329000813009F0F0C187EC92E09E8F8D8F8B8199
:1032A0009C81AD81BE818F8F98A3A9A3BAA345E36A
:1032B00050E0BE01635E7F4FCE01099639DE892B57
:1032C00019F400E010E0B7C10E949C2578876F8355
:1032D00042E050E0BE01695F7F4FCE010996EEDD0E
:1032E00081E090E09E8F8D8F42E050E0BE01635EF2
:1032F0007F4FCE010996E2DD80E091E09E8F8D8FB9
:1033000042E050E0BE01635E7F4FCE010996D6DDFC
:103310001E8E1D8E42E050E0BE01635E7F4FCE01E7
:103320000996CCDD42E050E0BE01635E7F4FCE01E6
:103330000996C4DD42E050E0BE01635E7F4FCE01DE
:103340000996BCDD5801F5018081882309F1F80157
:103350005F018191811115C04501801A910A1814ED
:10336000190494F48FA641E050E0BE01615D7F4FE7
:10337000CE010996A3DDA401B801CE0109969EDD18
:1033800003C08E3229F7E8CF85010F5F1F4FDBCFD7
:103390001FA641E050E0BE01615D7F4FCE0109965E
:1033A0008DDD00E011E01E8F0D8F42E050E0BE0188
:1033B000635E7F4FCE01099681DD1E8F0D8F42E047
:1033C00050E0BE01635E7F4FCE01099677DDCE01EE
:1033D00009966DDE892B09F474CF83E0A82EB12CF9
:1033E0000E949C252B013C01CE010996E0DC1816B9
:1033F0001906ACF00E949C25DC01CB0184199509CB
:10340000A609B70989389341A105B10508F002C1A1
:1034100062E370E080E090E00E946425E5CF4B809D
:103420005C806D807E80BE01675F7F4FCE014D96D0
:103430004DDC8F8D98A1A9A1BAA1481659066A063C
:103440007B0609F0EAC0CE01099630DCC59709F089
:10345000E4C0CE010996A1DC0C970CF4E1C04CE06D
:1034600050E0BE01635E7F4FCE0109960E94802826
:103470008F8D98A19827892798279CAB8BAB4F817C
:1034800058852D8D3E8D4217530711F497FD06C0C8
:10349000CE01099676DC0CEF1FEFC4C08F709270DE
:1034A000892B31F0CE0109966CDC0BEF1FEFBAC00F
:1034B0000BA11CA11027012710270115110531F4BC
:1034C000CE0109965EDC0AEF1FEFACC0812C912C77
:1034D00089A19AA19827892798278816990648F5DF
:1034E00041E050E0BE01615D7F4FCE0109960E9430
:1034F00080288FA5811113C08FA58111F1CFCE0136
:1035000009960ADCCE01099607DCCE01099604DC97
:10351000CE01099601DC2FEF821A920AD9CF8FA52E
:103520009FEF980F9FA7882339F3CE010996F4DB0C
:10353000F6CF812C912C41E050E0BE016B5C7F4FB7
:10354000CE0109960E9480288DA9982F907C61F465
:10355000882371F08DA99FEF980F9DAB882341F0D0
:10356000CE010996D9DBF6CFCE010996D5DB1DAA8F
:103570008DA98111E0CF42E050E0BE016F5C7F4F2A
:10358000CE0109960E94802842E050E0BE01615DB4
:103590007F4FCE0109960E948028CE010996BCDBA0
:1035A000CE010996B9DBCE010996B6DBCE010996AC
:1035B000B3DB42E050E0BE016D5C7F4FCE01099667
:1035C0000E94802889A99AA98115914029F48FA584
:1035D00098A981159140C1F1612C712C8BA99CA9EE
:1035E0009827892798276816790638F4CE01099616
:1035F00093DBEFEF6E1A7E0AF1CFFFEF8F1A9F0A6F
:103600008016910609F097CFCE010996BADB06EF36
:103610001FEF08C00FEF1FEF05C00EEF1FEF02C036
:103620000DEF1FEF21E0A21AB10829F00F3F8FEF35
:10363000180709F4D5CECE01099658DC01301105E2
:1036400009F4F3CDC8011CC08BA99CA98115944035
:1036500031F0CE01099695DB07EF1FEFE3CF44E091
:1036600050E0BE01655D7F4FCE0109960E94802823
:1036700001E010E0D7CF80E090E002C08EEF9FEF36
:10368000E5960FB6F894DEBF0FBECDBFDF91CF91A8
:103690001F910F91FF90EF90DF90CF90BF90AF9070
:1036A0009F908F907F906F905F904F900895FF92C2
:1036B0000F931F93CF93DF93E0916804F091690417
:1036C000C185D285209709F451C080916A0481FF99
:1036D00031C0FA80F1102EC080919B0490919C041F
:1036E000978386838091930490919404918380833F
:1036F00080919504909196049383828380919F0496
:103700009091A004982789279827089719F00E947C
:103710002627F82EFA82FF2069F08F2D0E947D283F
:103720008C012AE230E040914F0560E070E08F2D7F
:103730000E94C92780916A0483FF18C08D81882365
:10374000A9F08C81809351058AE280934E056881AF
:1037500079816A52710980916F0490917004DF91B0
:10376000CF911F910F91FF900C94030FDF91CF9198
:103770001F910F91FF900895EF92FF920F931F9367
:10378000CF93DF93C82FE0908A04F12C84E1E81AEC
:10379000F1082091890430E0322F2227E20EF31E37
:1037A00048E050E063E974E0C7018C0F911D0E946E
:1037B0008728C13131F0C091A704C695C695CC7356
:1037C00001C0C8E0D0E0AE016BE974E00E94872838
:1037D0008C01CE15DF0508F04CC0A7014C1B5D0B1A
:1037E000BE016E5D7F4F809151050E944328EC0120
:1037F000219760E085E30E948C248AE38EBD0DB49E
:1038000007FEFDCFA80160E070E06C177D07C8F4EB
:103810001EBC0DB407FEFDCF2EB530E0322F22279F
:103820001EBC0DB407FEFDCF8EB5280F311D420F13
:10383000531F4217530710F44F5F5F4F6E5F7F4F68
:10384000E4CF8A016C177D0781F41EBC0DB407FE1E
:10385000FDCF8EB590E0982F88278A01080F191F99
:103860000817190710F40F5F1F4F61E085E30E94EE
:103870008C240115110519F0902F812F02C08FEFB4
:103880009FEFDF91CF911F910F91FF90EF900895DF
:1038900044E150E067E874E080E090E00E9487280F
:1038A000009721F098278927982708958FEF9FEF99
:1038B0000895CF93DF931F92CDB7DEB7FC01828DC1
:1038C000238D24FB992790F99627692F70E0778F35
:1038D000668F80FF2DC080914D038823E1F0248DF9
:1038E000358D273483E8380719F02235324531F415
:1038F000911102C082E007C086E005C0911102C0AC
:103900008AE001C088E08983AE014F5F5F4F61E0CC
:1039100081E090E00AC0911103C080E290E002C013
:1039200081E290E040E050E060E00E9448082EC054
:10393000848D958D873222E9920780F4853222E9C1
:103940009207A0F4803224E59207C1F0833927E77B
:103950009207A1F084359140A9F408C0863223E98A
:10396000920761F08930954B69F408C0660F771FA4
:10397000660F771F636187E090E006C0626081E0B8
:1039800094E002C081E690E00E944B090F90DF9125
:10399000CF9108950F931F93CF93DF93EC018B0189
:1039A00010161106B4F4FE01859194912496FE013F
:1039B0003297659174918F3F2FEF920729F480E041
:1039C00090E00E94642502C00E944B090450110936
:1039D000E7CFDF91CF911F910F910895BF92CF92C2
:1039E000DF92EF92FF920F931F93CF93DF93CDB7A8
:1039F000DEB768970FB6F894DEBF0FBECDBF8C015F
:103A00007B018EEFC82EDD24DA941E141F0464F5AA
:103A1000F80184913196B4900E5F1F4F8F3729F0D3
:103A2000202FDE011196F80108C06B2D70E080E0B8
:103A300090E00E946425B12C11C09E2F921B9B1513
:103A400020F494919D933196F8CF0B0D111DAE018A
:103A50004F5F5F4F6B2D90E00E944808C6018B19A5
:103A60009109E80EF91ED1CF68960FB6F894DEBF23
:103A70000FBECDBFDF91CF911F910F91FF90EF90BF
:103A8000DF90CF90BF9008958F929F92AF92BF9298
:103A9000CF92DF92EF92FF920F931F93CF93DF931A
:103AA00000D01F92CDB7DEB77C014B016A015901EE
:103AB000FC01848D958D8732F3E99F0799F4F70116
:103AC0008589823031F4F0E2CF0ED11C005E1F4FA9
:103AD0001DC08330D9F420E2820E911C80E2A80E32
:103AE000B11C14C08632954189F4F701858980FFA5
:103AF0000DC0C801841B950B19F40F5F1F4F06C042
:103B00002617370719F4A80EB91E8A01F701828D0E
:103B100080FF3BC082A599828A82BB82AC82AE01C3
:103B20004F5F5F4F64E090E00E944808F70186A570
:103B3000D982CA821B830C83AE014F5F5F4F64E062
:103B400090E00E94480880914D03882309F459C0F1
:103B5000F701848D958D8536910509F052C09982C3
:103B60008A82AE014F5F5F4F62E084A195A10E94FF
:103B70004808D982CA82AE014F5F5F4F62E0F70109
:103B800086A197A10E9448083CC0B401F70184A116
:103B900095A10E944B09B601F70186A197A10E9449
:103BA0004B098A149B0419F4C016D10651F1F70190
:103BB000828D85FF0EC0858980FF06C0102F0027EB
:103BC000C02AD12A860105C0BA2CAA248A289B289B
:103BD0005401B401F70182A593A50E944B09B601D7
:103BE000F70186A597A50E944B09B501F70184A5A9
:103BF00095A50E944B09B801F70180A991A90E94DF
:103C00004B090F900F900F900F90DF91CF911F9164
:103C10000F91FF90EF90DF90CF90BF90AF909F906B
:103C20008F900895AF92BF92CF92DF92EF92FF9262
:103C30000F931F93CF93DF93EC0180914C03882364
:103C400049F0C7018F719927880F991FE1ECEE2287
:103C5000E82AF92A37FF05C0620F731F31952195B5
:103C60003109260F371F77FF02C060E070E08885BA
:103C70009985821793070CF49C016901C61AD70A2B
:103C800017FF05C0400F511F119501951109040F31
:103C9000151F57FF02C040E050E08A859B858017C2
:103CA00091070CF48C015801A41AB50A01501109AE
:103CB00021503109CE01E8DE8B988A9888A599A514
:103CC00050910201292F3327F901E07CFF27B3E04F
:103CD000F595E795BA95E1F7B9016370772715E097
:103CE000660F771F1A95E1F74E2F462B5778452B15
:103CF0004093020165B1A9014C725527440F551F2D
:103D0000440F551F562F5F74452B45B944B320719E
:103D10003327220F331F342F3F7D232B24BB899859
:103D2000899A30910201BC01607C7727E3E07595A8
:103D30006795EA95E1F7AC0143705527F5E0440F2C
:103D4000551FFA95E1F7262F242B3778232B209344
:103D5000020145B19C012C723327220F331F220F21
:103D6000331F342F3F74232B25B924B38071992737
:103D7000880F991F922F9F7D892B84BB8998899AE0
:103D80008A9ACA14DB042CF49C2D8D2D6501A92E72
:103D9000B82E8F2D99279C0123703327A90125E088
:103DA000440F551F2A95E1F79C01207C332753E0EF
:103DB000359527955A95E1F7242BBC016C7277272E
:103DC000660F660F80719927880FF701E370FF2750
:103DD00075E0EE0FFF1F7A95E1F7A701407C5527AC
:103DE000F3E055954795FA95E1F79E2F942BA7019F
:103DF0004C725527742F770F770F30E1E322FF24A1
:103E0000EE0C1A141B0444F5A60130910201377818
:103E1000322B3093020135B13F74362B35B934B3B0
:103E20003F7D382B34BB8998899A309102013778CD
:103E3000392B3093020135B13F74372B35B934B388
:103E40003F7D3E2934BB8998899A41505109E9F652
:103E5000E1E0AE1AB108D5CF8B9A8A8D80FF08C0F9
:103E60008C8D9D8D8632954189F48D8980FF0EC0A1
:103E70000A851B8501501109288539852150310992
:103E800040E050E060E070E0CE01FEDDDF91CF91D8
:103E90001F910F91FF90EF90DF90CF90BF90AF9068
:103EA0000895EF92FF920F931F93CF93DF937C01BE
:103EB000E90177FD29C057FD27C0FC018085918568
:103EC000681779070CF58285938548175907E4F43C
:103ED00080914C03882341F0CE018F719927880F80
:103EE000991FC17CC82BD92B8A019B01C701CCDD4E
:103EF000BE01F70180A591A5DF91CF911F910F9190
:103F0000FF90EF900C944B09DF91CF911F910F918F
:103F1000FF90EF900895EF92FF920F931F93CF932E
:103F2000DF93CDB7DEB72A970FB6F894DEBF0FBE8A
:103F3000CDBF7C01862F8370D70155968C93559702
:103F4000462F417060FF05C016962D913C91179742
:103F500003C0F70124813581D70119963C932E9334
:103F60001897442329F014962D913C91159703C07E
:103F7000F70126813781D7011B963C932E931A9720
:103F8000823041F0833041F0813011F088E405C087
:103F900088E203C088E901C088EF8A87F701228D93
:103FA000338D30FF03C08A8580588A8731FF04C073
:103FB0009A8580E489278A8733FF04C09A8588E040
:103FC00089278A87D7015C968D919C915D9720FF08
:103FD000D3C08431B8E69B07F9F49A85892F881FEE
:103FE0008827881F8295880F880F807C96FD02C0E5
:103FF00020E001C020E298729A871F828260822BA3
:1040000088878BE38987AE01495F5F4F63E086EB6A
:1040100090E00E94480884C08336E9E19E0741F0A1
:104020008138F4E99F0721F0813125E1920709F5F4
:104030002A8527FF02C021602A872A8526FF02C021
:1040400022602A87833639E1930719F48A858F73B2
:104050000EC0813844E9940719F48A858F7207C02D
:104060008131954109F05CC08A858F7E806C8A879A
:1040700057C020914D03222309F452C062E070E042
:10408000F70175A364A326E030E037A326A3E2E29C
:10409000F0E0D7019996FC93EE9398979B967C93CA
:1040A0006E939A9764E070E09D967C936E939C97D4
:1040B0009F963C932E939E9728E030E0D1963C93B8
:1040C0002E93D0978536910501F59A8594FD03C00E
:1040D00081E889278A87442351F082E890E0F7013C
:1040E00095A384A380E890E097A386A32EC080E8E0
:1040F00090E0D70195969C938E93949782E890E0F8
:1041000097969C938E93969720C082359245E9F4BA
:104110008A8584FD02C0826001C086608A8715C0DE
:104120002AE230E0F70135A324A38BE290E097A3C5
:1041300086A34CE250E051A740A733A722A735A79A
:1041400024A797A786A791AB80AB80914D038111DF
:1041500003C086E390E002C086E190E0AE01465FD6
:104160005F4F61E00E9448088A8590E0D7019196F0
:104170009C938E939097E6C02A858339B7E79B0777
:1041800009F448C050F48435F1E09F0781F0803293
:1041900034E5930709F081C03DC0863243E99407B6
:1041A000C9F18930A5EB9A0709F077C033C087E3DE
:1041B00090E0F70193A782A786E390E095A784A7F4
:1041C00089E390E097A786A788E390E091AB80AB66
:1041D00080E290E095A384A381E290E097A386A378
:1041E00082E290E091A780A7822F022E000C990B0B
:1041F0008827990F881F9927982F8827990F26FDC0
:1042000003C060E070E002C060E071E08862682B8B
:10421000792B82C040E052E0D70195965C934E9393
:10422000949741E052E097965C934E93969742E0C4
:1042300052E099965C934E93989740E152E09B969A
:104240005C934E939A9741E152E09D965C934E9316
:104250009C9742E152E09F965C934E939E9743E178
:1042600052E0D1965C934E93D09727FD03C020E097
:1042700030E002C020E030E88632B3E99B0731F03D
:104280008032944519F060E07AE602C060E075E3A0
:10429000622B732B80E094E035C080E290E0D70180
:1042A00095969C938E93949781E290E097969C9339
:1042B0008E93969782E290E099969C938E9398972E
:1042C00080E590E09B969C938E939A9781E590E091
:1042D0009D969C938E939C9782E590E09F969C93ED
:1042E0008E939E9783E590E0D1969C938E93D09782
:1042F00027FD03C060E070E002C060E070E8776214
:1043000080E690E00E944B098A8586FD03C060E04C
:1043100070E002C060E071E081E090E00E944B0933
:104320008A8585FD03C060E070E002C068E070E04F
:1043300083FD70616063F70171A360A383E090E087
:104340000E944B09D70155968C91559780FF36C036
:104350005A968D919C915B9792FD30C094968D9169
:104360009C91959796962D913C91979795963C9315
:104370002E93949797969C938E9396979A968D9159
:104380009C919B979E962D913C919F979B963C93D9
:104390002E939A979F969C938E939E979C968D9121
:1043A0009C919D97D0962D913C91D1979D963C9351
:1043B0002E939C97D1969C938E93D097F70102856C
:1043C000138501501109208531852150310940E0C4
:1043D00050E060E070E0C70157DBD70116966D91A1
:1043E0007C9117975C968D919C915D978732B3E98C
:1043F0009B0749F4F70125892250223008F4A6C012
:1044000000E010E0A5C000E010E020E030E0D701BF
:104410005A964C9140FF49C01982102F0A837B8322
:104420006C831D822E8380914D03811103C083E331
:1044300090E002C08EE090E0AE014F5F5F4F66E01B
:104440000E94480819821A8380914D03811103C08C
:1044500087E390E002C084E190E0AE014F5F5F4FE0
:1044600062E00E94480880914D03882389F01982F8
:10447000F701848D958D8734934819F081E090E0A1
:1044800002C088E190E0AE014F5F5F4F61E00AC07B
:10449000D7015A968C9180FF60C040E050E060E008
:1044A00083E190E00E94480858C08339B7E79B0732
:1044B00089F160F48032F4E59F0761F1833827E7E2
:1044C000920791F08435914099F512C0863243E904
:1044D000940701F128F485529249029748F028C0C8
:1044E0008930954BB9F024C0F701668D778D24C0D3
:1044F000600F711F6150710981E390E00E944B09C8
:10450000B80182E390E00E944B0960E070E083E331
:1045100090E019C0D7015E966D917C915F976260C3
:1045200081E094E00E944B09B80184E094E00BC064
:10453000F701668D778D626081E690E00E944B09FD
:10454000B8018AE690E00E944B0907C000E210E043
:1045500020E230E0201B310B5ACF2A960FB6F89498
:10456000DEBF0FBECDBFDF91CF911F910F91FF90A6
:10457000EF900895FC01538D448D252F30E0842F5A
:1045800090E0821B930B541710F0CF96089501977B
:104590000895FC01918D828D981761F0828DDF0165
:1045A000A80FB11D5D968C91928D9F5F9F73928F26
:1045B00090E008958FEF9FEF0895FC01918D828D1B
:1045C000981731F0828DE80FF11D858D90E00895E8
:1045D0008FEF9FEF0895FC01918D228D892F90E040
:1045E000805C9F4F821B91098F739927089588EFF4
:1045F00096E0F1DF21E0892B09F420E0822F089575
:10460000FC01848DDF01A80FB11DA35ABF4F2C916F
:10461000848D90E001968F739927848FA689B7893E
:104620002C93A089B1898C9180648C93938D848D17
:10463000981306C00288F389E02D80818F7D8083E6
:104640000895EF92FF920F931F93CF93DF93EC01A6
:1046500081E0888F9B8D8C8D981305C0E889F9893E
:10466000808185FD23C0F62E0B8D10E00F5F1F4F5C
:104670000F731127E02E8C8DE8120BC00FB607FCCC
:10468000FACFE889F989808185FFF5CFCE01B8DFBF
:10469000F2CF8B8DFE01E80FF11DE35AFF4FF08240
:1046A0000B8FEA89FB898081806207C0EE89FF89D0
:1046B0006083E889F98980818064808381E090E06B
:1046C000DF91CF911F910F91FF90EF900895CF93BD
:1046D000DF93EC01888D8823C1F0EA89FB89808112
:1046E00085FD05C0A889B9898C9186FD0EC00FB6DD
:1046F00007FCF5CF808185FFF2CFA889B9898C911D
:1047000085FFEDCFCE017CDFE8CFDF91CF9108951B
:1047100080E090E0892B19F06ADF811125C080E0EC
:1047200090E0892B41F080E090E0892B21F00E94FD
:10473000000081111CC080E090E0892B41F080E0F6
:1047400090E0892B21F00E940000811113C080E0CD
:1047500090E0892BA1F080E090E0892B81F00E940D
:10476000000081110AC008950E940000D8CF0E9465
:104770000000E1CF0E940000EACF0C9400000895F1
:104780003FB7F8948091650690916606A091670600
:10479000B091680626B5A89B05C02F3F19F0019679
:1047A000A11DB11D3FBFBA2FA92F982F8827820FB7
:1047B000911DA11DB11DBC01CD0142E0660F771F07
:1047C000881F991F4A95D1F708958F929F92AF92B3
:1047D000BF92CF92DF92EF92FF920F931F93CF93EE
:1047E000DF937C018B016C0182E0C80ED11C470174
:1047F000E5E08E0E911CC0E0D0E0F60141916F0122
:1048000050E060E070E02AE0C8010E945C2F5C018B
:104810006EE2C8010E94402F8A0D9B1DC80FD91F50
:10482000C814D90451F7F701458150E060E070E009
:104830002AE0C8010E945C2F8C0F9D1FDF91CF9151
:104840001F910F91FF90EF90DF90CF90BF90AF90AE
:104850009F908F9008950E94C43E1F920F920FB6B2
:104860000F9211240BB60F922F933F934F935F93A8
:104870006F937F938F939F93AF93BF93EF93FF9328
:1048800088EF96E0BDDEFF91EF91BF91AF919F91D0
:104890008F917F916F915F914F913F912F910F90E9
:1048A0000BBE0F900FBE0F901F9018951F920F9286
:1048B0000FB60F9211240BB60F922F938F939F93E5
:1048C000EF93FF93E0910807F09109078081E09151
:1048D0000E07F0910F0782FD12C0908180911107A1
:1048E0008F5F8F7320911207821751F0E0911107AB
:1048F000F0E0E850F94F958F8093110701C0808157
:10490000FF91EF919F918F912F910F900BBE0F9080
:104910000FBE0F901F901895362F90E0FC01E75ABC
:10492000F74F4491FC01ED5EF74F2491FC01E353F6
:10493000F84F9491992309F46BC0442309F455C0AE
:1049400050E0FA013197E231F10508F04EC08827B6
:10495000E658FF4F8F4F0C94AB3C809180008F77CF
:1049600007C0809180008F7D03C080918000877F89
:10497000809380003AC084B58F7702C084B58F7D64
:1049800084BD33C08091B0008F7703C08091B000A8
:104990008F7D8093B00029C0809190008F7707C0F1
:1049A000809190008F7D03C080919000877F8093DD
:1049B00090001BC08091A0008F7707C08091A0005D
:1049C0008F7D03C08091A000877F8093A0000DC0E1
:1049D000809120018F7707C0809120018F7D03C0D7
:1049E00080912001877F80932001E92FF0E0EE0F76
:1049F000FF1FED54F84FA591B4918FB7F894EC9147
:104A0000311103C020952E2301C02E2B2C938FBF74
:104A10000895CF93DF9390E0FC01ED5EF74F249172
:104A2000FC01E353F84F8491882361F190E0880FF3
:104A3000991FFC01E756F84FC591D491FC01ED5444
:104A4000F84FA591B491611109C09FB7F89488817E
:104A5000209582238883EC912E230BC0623061F471
:104A60009FB7F8943881822F809583238883EC91B7
:104A70002E2B2C939FBF06C08FB7F894E8812E2B66
:104A800028838FBFDF91CF910895863308F0865336
:104A900090917B00282F2870977F922B90937B001A
:104AA0008770806480937C0080917A00806480931A
:104AB0007A0080917A0086FDFCCF80917800209169
:104AC000790090E0922B08958F929F92AF92BF92BF
:104AD000CF92DF92EF92FF926B017C0151DE4B018E
:104AE0005C01C114D104E104F104E9F049DEDC0108
:104AF000CB0188199909AA09BB09883E9340A105F1
:104B0000B10578F321E0C21AD108E108F10888EE76
:104B1000880E83E0981EA11CB11CC114D104E104CD
:104B2000F10421F7DECFFF90EF90DF90CF90BF90A0
:104B3000AF909F908F9008952FB7F8946091610681
:104B40007091620680916306909164062FBF08956C
:104B50001F920F920FB60F9211242F933F938F93B2
:104B60009F93AF93BF938091610690916206A0914D
:104B70006306B09164063091600623E0230F2D3761
:104B800020F40196A11DB11D05C026E8230F029651
:104B9000A11DB11D2093600680936106909362066B
:104BA000A0936306B09364068091650690916606B3
:104BB000A0916706B09168060196A11DB11D809372
:104BC000650690936606A0936706B0936806BF914A
:104BD000AF919F918F913F912F910F900FBE0F90AA
:104BE0001F9018958823E9F0A7E5B5E025E0149615
:104BF0009C91149798130DC095E0899FF0011124A2
:104C0000E95AFA4F848114968C931382128214828B
:104C10000895992331F0299FD0011124A95ABA4F40
:104C2000E6CF08950F931F93CF93DF938C01EB0191
:104C300060E085E371DE8AE38EBD0DB407FEFDCF33
:104C40000C0F1D1FC017D10739F01EBC0DB407FE95
:104C5000FDCF8EB58993F6CF61E085E3DF91CF91EB
:104C60001F910F9159CE0F931F93CF93DF931F92F4
:104C7000CDB7DEB7182F062F60E085E349834CDE01
:104C8000802F8F71812B8EBD49810DB407FEFDCF22
:104C90004EBD0DB407FEFDCF61E085E30F90DF91BF
:104CA000CF911F910F9138CE1F93CF93DF93182F81
:104CB0001076C12FD0E02091000230E0C217D30758
:104CC00079F043E06FE180EACEDFAE0185E05595F3
:104CD00047958A95E1F76FE180E8C5DF1093000200
:104CE000DF91CF911F9108951F93CF93DF931F9270
:104CF0001F92CDB7DEB7182F69837A83D5DF49813C
:104D0000612F80E4B0DF61E0610F7A81472F80E49A
:104D10000F900F90DF91CF911F91A5CFCF93DF938D
:104D2000C82FD62F60E085E3F7DD8D2F8F71C82B5C
:104D3000CEBD0DB407FEFDCF1EBC0DB407FEFDCFEA
:104D4000D7FD07C061E085E3E7DD8EB5DF91CF9148
:104D500008951EBC0DB407FEFDCFF4CFCF93C62F30
:104D6000BC0182E0C1DF60E085E3D6DD8AE78EBD6D
:104D70000DB407FEFDCFCEBD0DB407FEFDCF61E043
:104D800085E3CF91C9CDBC0180E0AEDF60E085E373
:104D9000C3DD8AE38EBD0DB407FEFDCF1EBC0DB48E
:104DA00007FEFDCF61E085E3B7DD8EB50895CF92B4
:104DB000DF92EF92FF920F931F93CF93DF936C01DB
:104DC0008B014130510569F4CB01DDDF682FC6014D
:104DD000DF91CF911F910F91FF90EF90DF90CF90D7
:104DE000BDCFEA01C60FD71F7E0181E0E81AF108A6
:104DF00080E17ADFB60184E177DF0115184038F4ED
:104E0000E11488E0F80618F07E0188E0F81AB7018E
:104E100082E16ADF40E16FE180EA25DF40E26FE195
:104E200080E821DF6FE180E079DF85FF06C061E087
:104E300070E080E090E048DEF5CFDF91CF911F91E8
:104E40000F91FF90EF90DF90CF900895CF92DF9277
:104E5000EF92FF920F931F93CF93DF938C0160919A
:104E60005705709158056150784EC12C98E1D92EA4
:104E7000E7E5F5E080E0C0E0D0E045E094819923EB
:104E800049F0499F90011124295A3A4FD9012D9197
:104E90003C9101C09B01E080F1802E193F09028006
:104EA000F381E02D2E1B3F0B2017310739F4B5E0BD
:104EB0008B9FE0011124C95ADA4F48C0021713072B
:104EC00048F42C153D0530F4489FE0011124C95ADF
:104ED000DA4F6901911107C02097C1F5C7E5D5E008
:104EE00085E0D82E1DC0499FF0011124E95AFA4FE0
:104EF000892FC4CFEA80FB8028813981E20EF31E1E
:104F0000D89EE0011124C95ADA4F68817981E616EA
:104F1000F70631F04A815B81C70149DFF982E882F7
:104F20008C818111E7CF20915705309158058881F8
:104F30009981281B390B8A819B81281B390B2150B1
:104F4000384E2017310710F480E01AC091E0ECE5EC
:104F5000F5E022813381232B29F035969F5F95332D
:104F6000C1F7F2CF4A815B8128813981240F351F37
:104F700031832083138302838C8184839C83892FD4
:104F8000DF91CF911F910F91FF90EF90DF90CF9025
:104F900008950F931F93DB01E42FA80190E0EF3FEA
:104FA00001F165E0E69FF0011124E95AFA4F02C0D1
:104FB000E2E5F5E00190F081E02D2E0F3F1F65E066
:104FC000689FF001699FF00D1124E95AFA4F808122
:104FD0009181B9018A0F9B1FEADE1F910F910C94FA
:104FE000CD0DE0915205F0915305E20FF31FE1154D
:104FF00068E0F607E8F29F012F5F3740E0CFCF92DD
:10500000DF92EF92FF920F931F93CF93DF937B0179
:105010008A01690125E0829FC0011124EC01C95A6F
:10502000DA4F688179816E0D7F1D82E05DDE0A8036
:10503000DB81C02DCE19DF09CC16DD0608F4E601B0
:1050400060E085E369DC8AE78EBD0DB407FEFDCF25
:10505000C8018C0F9D1F0817190741F0F801219115
:105060008F012EBD0DB407FEFDCFF5CF61E085E3C6
:1050700053DCCE01DF91CF911F910F91FF90EF9004
:10508000DF90CF900895EF92FF920F931F93CF93ED
:10509000DF938B017A018F3FC9F025E0829FE00109
:1050A0001124C95ADA4F02C0C2E5D5E0888199813E
:1050B000B801680F791F80E017DE8A819B81801B11
:1050C000910BE816F90690F4C70110C080915205C3
:1050D00090915305860F971F811528E0920720F3C2
:1050E000BC016F5F7740C2E5D5E0E5CFDF91CF919E
:1050F0001F910F91FF90EF90089580E090E0089548
:10510000DC01ED91FC91048CF58DE02D1994FB01EF
:1051100041505109460F571FE417F50778F42081D5
:1051200030E0322F22276181260F311D820F931F1D
:105130008217930708F401963296EECFE417F5072D
:1051400051F4208130E0322F2227820F931F8217E3
:10515000930708F40196089590915005892F827065
:1051600091FF10C020914E0530E049E754E060E027
:1051700070E08091510543DF809150058D7F8093D1
:10518000500516C020916D0430916E042115310533
:1051900011F0C9015BDE80935105882381F02091D5
:1051A0006D0430916E0449E754E060E070E027DF61
:1051B0008091510517DD1092510581E0089580E03E
:1051C00008950895CF92DF92EF92FF920F931F936D
:1051D000CF93DF93A0916B04B0916C045C96CD915A
:1051E000DC915D9750916A04209749F556FF6EC097
:1051F000E9E6F6E080E090E0208121111AC061E14B
:10520000689F9001699F300D1124E901C759D94F5A
:10521000806188832659394F80E1F90111928A957E
:10522000E9F7209709F452C05D96DC93CE935C9722
:1052300006C00196719684309105F1F647C051FF82
:1052400007C080916D0490916E04892B09F054C0C1
:10525000888187FF0EC08F77888380916A0482607F
:1052600080936A04E0916B04F0916C04818D8F7ED1
:10527000818F80916A04982F9071D92E84FF7DC010
:105280007E01E6E0EE0EF11C6E01FBE0CF0ED11CBC
:10529000F7018081A7DCF70111927F01EC15FD0574
:1052A000B9F78981882309F46BC0E0916B04F09110
:1052B0006C04848195819F838E8388818064888338
:1052C000E0916B04F0916C04158E148EE12CF12C9E
:1052D000B70180916F04909170040E94030FF092C7
:1052E0006E04E0926D04DF91CF911F910F91FF90BA
:1052F000EF90DF90CF9008958881807609F0A8CF55
:105300006E01FFEFCF1ADF0AF12CF60180818111C7
:1053100020C020916D0430916E042115310511F0EB
:10532000C90194DDF6018083882399F000916D0412
:1053300010916E0420916F0430917004295734400D
:1053400040914F0560E070E024DEF4E0FF1280CF72
:105350000CC0F3942FEFC21AD20A35E0F312D5CF66
:10536000809150058E7F80935005E0916B04F09101
:105370006C04818D8061818F6BCF87FF03C080CFEC
:1053800018829ECF80FF0EC08E812CDCDE01179626
:10539000FE013696CE010A962D912193E817F90762
:1053A000D9F71A8680916A048C7009F440C0EE81A6
:1053B000EE2309F43CC08F8181110FC0EB84FC8483
:1053C000E114F10409F484CF25E0E29FF0011124F7
:1053D000E95AFA4FF382E28206C08E2F8EDE7C01FC
:1053E000892B09F475CF80916F04909170048957CF
:1053F000944080934E05F701E80FF11DCF01EF2B8C
:1054000011F024DDD82ED0925105DD2009F460CFB3
:1054100060914E0570E0870120E030E04E818D2DD7
:10542000B8DD8091500582608093500551CF88810E
:1054300085FF4CCF8E8181110BC01882E0916B04E7
:10544000F0916C04158E148E80E180936A043ECF37
:10545000E0916B04F0916C04818D8061818F36CF77
:105460002F923F924F925F926F927F928F929F9274
:10547000AF92BF92CF92DF92EF92FF920F931F9362
:10548000CF93DF93CDB7DEB729970FB6F894DEBF81
:105490000FBECDBF8C01FC01258130E0F901E35343
:1054A000F84FC490FC018281A82FB0E0FD01E353C6
:1054B000F84FE490F801648170E0FB01E353F84F8A
:1054C000A490F801438150E0FA01E353F84F24908F
:1054D000F901ED5EF74F7490FD01ED5EF74F6490BA
:1054E000FB01ED5EF74FB490FA01ED5EF74F94913A
:1054F0009F8360E08EDA60E0F80183818ADAF12C24
:10550000F701EE0FFF1FCF018D54984F7C01FC0176
:10551000A591B4918C91962D9095988789238C9321
:10552000312CF101EE0FFF1FCF018D54984F1C015C
:10553000FC01A591B4919C918F81809589238C93D6
:1055400061E0F801858165DA61E0F801848161DA62
:10555000D12CF601EE0FFF1FCF018D54984F6C0137
:10556000FC01A591B4918C9187298C93EA2DF0E0F0
:10557000EE0FFF1FED54F84FA591B491EC91B0944C
:10558000BE22BC92F801828180DA4C01F80182814E
:105590007CDA2C012FEF33E05901A81AB90A60E038
:1055A000F801858136DA60E0F801848132DAF601AB
:1055B000A591B4918C917094798687218C9361E048
:1055C000F801828126DAF701A591B491EC916E2A57
:1055D0006C9261E0F80183811CDAF801848155DA6C
:1055E0003C01F801848151DA6816790629F47724A0
:1055F00073948414950409F0712C4FEF53E04A0121
:10560000881A990A61E0F801858103DAF601A5910B
:10561000B491EC91F985EF23EC93F101A591B4914C
:10562000EC918F81E82BEC93F701A591B4918C91CB
:10563000988589238C9360E0F8018281EAD9F8018A
:10564000848123DA7C01F80182811FDAF801068166
:1056500017810115110509F43FC0BC01990F880B92
:10566000990B0E942C3A1B012C01B701FF0C880BEF
:10567000990B0E942C3A9B01AC01C201B1010E941E
:105680000A3C20E030E040E85FE30E94A53B6B016C
:105690007C01B5010B2C000C880B990B0E942C3A55
:1056A0009B01AC01C701B6010E948B3A6B017C01E2
:1056B000B80180E090E00E942A3A9B01AC01C7014A
:1056C000B6010E948B3A20E030E040E85AE30E94A5
:1056D0008B3A0E94723C05C0B701681B790B615080
:1056E0007C4F711002C060E070E0BA82A9829C8297
:1056F0008B827E836D832A2D3A81482D5C817E8149
:1057000080E090E029960FB6F894DEBF0FBECDBFC3
:10571000DF91CF911F910F91FF90EF90DF90CF908D
:10572000BF90AF909F908F907F906F905F904F90C1
:105730003F902F900895CF92DF92EF92FF920F93B8
:105740001F93CF93DF936C017A018B01C0E0D0E00F
:10575000CE15DF0589F0D8016D918D01D601ED914F
:10576000FC910190F081E02DC6011995892B11F46F
:105770007E0102C02196ECCFC701DF91CF911F912E
:105780000F91FF90EF90DF90CF900895E8EFF6E053
:10579000A089B18982E08C93A485B5851C92A685E9
:1057A000B7858FEC8C93108EA489B58986E08C9395
:1057B000A289B3898C9180618C93A289B3898C91E1
:1057C00088608C93A289B3898C9180688C930288BD
:1057D000F389E02D80818F7D808308952F923F9201
:1057E0004F925F926F927F928F929F92AF92BF92F1
:1057F000CF92DF92EF92FF920F931F93CF93DF939D
:10580000CDB7DEB7AC970FB6F894DEBF0FBECDBFF5
:105810009C838B837B016A0159014617570784F4E7
:105820008D2D261737070CF0B8C169015B01E42EF6
:10583000F82E2AEF30E03CA72BA76CE271E00FC0F6
:10584000241735070CF054C09C2D8D2D6501A92E11
:10585000B82E4CE251E05CA74BA76AEF70E03EE542
:10586000232E33243394CE14DF040CF0A3C19E2DD9
:105870008F2D7601C92ED82E9BA58CA5AEE5B1E063
:10588000BCA7ABA7292E382EEA14FB04F1F5BEE520
:105890002B16B1E03B066CF09BA58CA5EBA5FCA5F7
:1058A000E215F30514F4922D832D2BA43CA49BA7A1
:1058B0008CA76215730544F02BA53CA52617370766
:1058C00014F47CA76BA7B101AB81BC81ED91FC9175
:1058D00011972BA53CA5261B370B2F5F3F4F068446
:1058E000F785E02D0FEF1FEFA701CD0119956FC1CF
:1058F0006EE571E0E216F30609F461C18CE291E015
:105900009CA78BA72AEF222E312CC101EBA5FCA569
:105910008E1B9F0B96012E193F09AB014E1B5F0B8F
:105920005E834D83D501AE19BF09BA87A987FB01F4
:10593000E219F309FE87ED87A5014C195D095E8B1D
:105940004D8BCA14DB0431F0B601615071097A8FB6
:10595000698F02C0DA8EC98E4701412C512C320169
:10596000198A1A8A1B8A1C8AA901330F660B770BC6
:105970004B8F5C8F6D8F7E8F29853A85032E000CAF
:10598000440B550B2F8F38A349A35AA3AC01990F91
:10599000660B770B4BA35CA36DA37EA36D817E8109
:1059A000072E000C880B990B6FA378A789A79AA7DD
:1059B000698D7A8D681579050CF458C069897A89E2
:1059C0008B899C892B8D3C8D4D8D5E8D0E94703B0B
:1059D0008BA59CA5820F931F9A838983C301B20173
:1059E0002F8D38A149A15AA10E94703BABA5BCA53F
:1059F0002A0F3B1F49895A896B897C898BA19CA1FD
:105A0000ADA1BEA1480F591F6A1F7B1F498B5A8B3E
:105A10006B8B7C8B4FA158A569A57AA5440E551EAA
:105A2000661E771E69817A812617370734F49981BB
:105A30008A813A832983292F382FAB81BC81ED914C
:105A4000FC91119749815A81241B350B2F5F3F4FE1
:105A50000684F785E02D0FEF1FEFA40169817A819D
:105A6000CD0119955FEF851A950AA2CFC4018C1953
:105A70009D09AD85BE85A89F2001A99F500CB89FA8
:105A8000500C1124052C000C6608770894012E197F
:105A90003F09ED81FE81E29FC001E39F900DF29FDF
:105AA000900D11246C01990FEE08FF082D893E8995
:105AB000032E000C440B550B2D8B3E8B4F8B588FB8
:105AC00049855A85052E000C660B770B49875A8746
:105AD0006B877C87BD01072E000C880B990B6D87A7
