:1000000050C400007FC400007DC400007BC4000019
:1000100079C4000077C4000075C4000073C40000F8
:1000200071C400006FC400006DC400006BC4000008
:1000300069C4000067C4000065C4000063C4000018
:1000400061C400005FC400005DC400005BC4000028
:1000500059C4000057C4000055C400000C94011B93
:1000600051C400000C94AF190C9486194BC40000C5
:1000700049C4000047C4000045C4000043C4000058
:1000800041C400003FC400003DC400003BC4000068
:1000900039C4000037C4000035C400000C94622944
:1000A00031C400002FC400002DC400002BC4000088
:1000B00029C4000027C4000025C4000023C4000098
:1000C00021C400001FC400001DC400001BC40000A8
:1000D00019C4000017C4000015C4000013C40000B8
:1000E00011C400002F154715BF15B116D116F11612
:1000F000F916A616141A171A061A0A1A0E1A4E1A02
:100100001B1A1F1A251A291A2D1A331A371A3B1AC5
:100110004E1A411A451A491A00407A10F35A00A0A3
:10012000724E18090010A5D4E80000E876481700C0
:1001300000E40B54020000CA9A3B000000E1F50500
:10014000000080969800000040420F000000A0864A
:1001500001000000102700000000E803000000007C
:100160006400000000000A00000000000100000020
:1001700000002C76D888DC674F0823DFC1DFAE593A
:10018000E1B1B796E5E3E453C63AE651997696E8CD
:10019000E6C28426EB898C9B62ED407C6FFCEFBC51
:1001A0009C9F40F2BAA56FA5F490055A2AF75C937C
:1001B0006B6CF9676DC11BFCE0E40D47FEF520E6B2
:1001C000B500D0ED902E0300943577050080841E95
:1001D000080000204E0A000000C80C333333330FF0
:1001E000986E12831141EF8D2114893BE65516CF8D
:1001F000FEE6DB18D1844B381BF77C1D901DA4BB99
:10020000E424203284725E228100C9F124ECA1E54D
:100210003D27E50110E70110E80148EC0109ED0177
:100220006C23016F240157250171E201181B011590
:100230000101001C01031901017F051F018C1F0131
:10024000847F0A1F01947F0A1F01D47F05400D009F
:100250002B293E3D3F24740806070D17500D000260
:100260000116143F0B5B08121819175D01FF1601E8
:10027000082801207F282801387F2828013C020215
:100280000000040200EF060200000802018F800255
:100290000000820200001701050000210024002751
:1002A000002A002D00300033000101000004010786
:1002B000010A0100002200250028002B002E003139
:1002C00000340002010000050108010B01050505CD
:1002D00005070508080808020202020A0A080804BD
:1002E00004040401010101010101010303030303EB
:1002F000030303040707070C0C0C0C0C0C0C0C027A
:1003000002020206060606060606060B0B0B0B0B80
:100310000B0B0B0102102020080810204010204079
:1003200080020102010804020101020408102040B9
:1003300080804020100804020180040201804020D7
:100340001008040201080402010102040810204000
:1003500080010204081020408000000A0B02090CF2
:100360000D0E08070304010000000000000000005B
:10037000000000000000000000000000000000007D
:10038000000000000012111000000000000000003A
:10039000000000000000000000000000000000005D
:1003A000000000003E5B4F5B3E3E6B4F6B3E1C3ED1
:1003B0007C3E1C183C7E3C181C577D571C1C5E7FE5
:1003C0005E1C00183C1800FFE7C3E7FF0018241864
:1003D00000FFE7DBE7FF30483A060E262979292699
:1003E000407F050507407F05253F5A3CE73C5A7F83
:1003F0003E1C1C08081C1C3E7F14227F22145F5FD9
:10040000005F5F06097F017F006689956A60606012
:10041000606094A2FFA29408047E040810207E204D
:100420001008082A1C08081C2A08081E10101010A2
:100430000C1E0C1E0C30383E3830060E3E0E0600E8
:100440000000000000005F00000007000700147FAC
:10045000147F14242A7F2A12231308646236495613
:1004600020500008070300001C2241000041221C0C
:10047000002A1C7F1C2A08083E08080080703000F3
:100480000808080808000060600020100804023E08
:100490005149453E00427F40007249494946214149
:1004A000494D331814127F1027454545393C4A49B8
:1004B00049314121110907364949493646494929F7
:1004C0001E00001400000040340000000814224107
:1004D0001414141414004122140802015909063E90
:1004E000415D594E7C1211127C7F494949363E418B
:1004F0004141227F4141413E7F494949417F0909AC
:1005000009013E414151737F0808087F00417F4146
:10051000002040413F017F081422417F404040407D
:100520007F021C027F7F0408107F3E4141413E7FD5
:10053000090909063E4151215E7F091929462649CC
:1005400049493203017F01033F4040403F1F2040A3
:10055000201F3F4038403F631408146303047804AD
:10056000036159494D43007F414141020408102075
:10057000004141417F0402010204404040404000EC
:100580000307080020545478407F284444383844F6
:10059000444428384444287F385454541800087E72
:1005A000090218A4A49C787F0804047800447D40C4
:1005B000002040403D007F1028440000417F400063
:1005C0007C047804787C080404783844444438FC7B
:1005D0001824241818242418FC7C080404084854FF
:1005E00054542404043F44243C4040207C1C2040BC
:1005F000201C3C4030403C44281028444C909090B3
:100600007C4464544C4400083641000000770000EC
:10061000004136080002010204023C2623263C1E4B
:10062000A1A161123A4040207A38545455592155BD
:1006300055794122545478422155547840205455DC
:1006400079400C1E5272123955555559395454542B
:100650005939555454580000457C410002457D42AB
:100660000001457C407D1211127DF0282528F07C88
:10067000545545002054547C547C0A097F49324922
:100680004949323A4444443A324A4848303A41416E
:10069000217A3A42402078009DA0A07D3D4242420E
:1006A0003D3D4040403D3C24FF2424487E49436674
:1006B0002B2FFC2F2BFF0929F620C0887E09032051
:1006C000545479410000447D413048484A32384012
:1006D00040227A007A0A0A727D0D19317D26292975
:1006E0002F28262929292630484D40203808080877
:1006F0000808080808382F10C8ACBA2F102834FA98
:1007000000007B000008142A142222142A14085521
:1007100000550055AA55AA55AAFF55FF55FF0000E0
:1007200000FF00101010FF00141414FF001010FF41
:1007300000FF1010F010F0141414FC001414F70053
:10074000FF0000FF00FF1414F404FC141417101F22
:1007500010101F101F1414141F00101010F00000B0
:1007600000001F101010101F10101010F0100000CB
:1007700000FF101010101010101010FF10000000DB
:10078000FF140000FF00FF00001F10170000FC0412
:10079000F414141710171414F404F40000FF00F7F5
:1007A00014141414141414F700F714141417141058
:1007B000101F101F141414F4141010F010F0000087
:1007C0001F101F0000001F14000000FC140000F0A8
:1007D00010F01010FF10FF141414FF141010101F4D
:1007E00000000000F010FFFFFFFFFFF0F0F0F0F05E
:1007F000FFFFFF0000000000FFFF0F0F0F0F0F387B
:1008000044443844FC4A4A4A347E02020606027EC8
:10081000027E0263554941633844443C04407E20D3
:100820001E2006027E020299A5E7A5991C2A492AE4
:100830001C4C7201724C304A4D4D30304878483073
:10084000BC625A463D3E494949007E0101017E2A6B
:100850002A2A2A2A44445F444440514A444040449E
:100860004A51400000FF0103E080FF000008086BD0
:100870006B083612362436060F090F0600001818CA
:100880000000001010003040FF0101001F01011E98
:1008900000191D1712003C3C3C3C00000000000009
:1008A000BD4A11241FBECFEFD1E2DEBFCDBF00E0B5
:1008B0000CBF15E0A0E0B2E0E4E3F6EA00E00BBF15
:1008C00002C007900D92A43FB107D9F72BE0A4EF27
:1008D000B5E001C01D92A032B207E1F714E0C1E516
:1008E000D4E000E006C021970109802FFE010E949C
:1008F000D050C035D10780E00807A9F70E94C4385E
:100900000C9418537DCB089580E090E00895EF9209
:10091000FF920F931F93DC01ED91FC9111971A96B2
:100920000D911C911B9718962D913C911997028857
:10093000F389E02D7B0140E050E060E070E0199524
:100940001F910F91FF90EF900895CF93DF931F9227
:10095000CDB7DEB7698320913A092223D1F02091E7
:100960005D09203240F021E030E0FC013383228336
:1009700080E090E015C080913B09E82FF0E0E45C56
:10098000F64F998190838F5F80933B0980935D0937
:1009900005C061E0CE0101960E94932A81E090E0BB
:1009A0000F90DF91CF910895CF93DF93EC010E94D8
:1009B000F51A20E63AEE40E050E00E946A4F888146
:1009C0009981B901681B790BCB01DF91CF91089513
:1009D000CF92DF92EF92FF920F931F93CF93DF930B
:1009E0008C01EB01CB010E94012F0E94F51A20E639
:1009F0003AEE40E050E00E946A4FCE010D2E000C0E
:100A0000AA0BBB0B69017A01C81AD90AEA0AFB0AC8
:100A100021EAC21625E0D206E104F10468F4F801E7
:100A2000808191810E94012FF801D183C083CE0182
:100A30000E94012F81E000C0DF91CF911F910F91A3
:100A4000FF90EF90DF90CF900895CF93DF93EC016C
:100A5000ABDF9C012F5F3F4F8C859D8582179307ED
:100A60002CF48E859F852817390764F08889998929
:100A7000821793074CF481E04A895B892417350774
:100A800024F002C081E001C080E0DF91CF910895A1
:100A9000CF93DF93EC0188DF9C012F5F3F4F8C8168
:100AA0009D81821793072CF48E819F812817390727
:100AB00064F088859985821793074CF481E04A8514
:100AC0005B852417350724F002C081E001C080E077
:100AD000DF91CF910895FF920F931F93CF93DF93F0
:100AE0008C0160E00E94C02EF801808191E090931B
:100AF0003A0980935C0910923B0910925D0960E00D
:100B00008FE49AE022DF81E00E94632EF8012081C9
:100B1000809139098111FCCF81E08093390980935C
:100B200038099FEF90933709109236098093350961
:100B30008093140990911409822F880F892B809338
:100B4000140980911309813061F410921309809186
:100B500014098093BB008091BC0083FDF8CF85EC25
:100B600001C085EE8093BC00809139098130E1F3AA
:100B700080913609823018F48091360901C082E0F4
:100B8000A5E1B9E02CEA38E0F9019E2F921B9817F5
:100B900018F49D919193F9CF1092F5058093F40587
:100BA0008FE49AE00E948127F82E8FE49AE00E9459
:100BB0008127EC0161E0C8010E94C02E60E070E076
:100BC0007F2D6C2B7D2B072E000C880B990B0E9420
:100BD000574E20E030E040E05DE30E94B64E20E05A
:100BE00030E040E05EE30E94B64EDF91CF911F916E
:100BF0000F91FF900895CF93DF93EC011DA660E065
:100C00008BA50E94E51919A660E08FA10E94E51945
:100C100062E974E08EE599E0DF91CF910C949F3802
:100C20001F93CF93DF93EC0111E01DA761E08BA52B
:100C30000E94E51919A761E08FA10E94E51962EAF7
:100C400074E08EE599E0DF91CF911F910C949F386D
:100C50002F923F924F925F926F927F928F929F92CC
:100C6000AF92BF92CF92DF92EF92FF920F931F93BA
:100C7000CF93DF93CDB7DEB766970FB6F894DEBF9C
:100C80000FBECDBF3C016B8B4C8B29011801FE8A36
:100C9000ED8A60E070E03BDE83E0F301848BEE24BC
:100CA000EA94FE2C04E110E020E530E040E050E062
:100CB00060E070E0C3010E946330F301138A128A7E
:100CC000118A108A85E090E09587848717861686BA
:100CD00069E973E0C3010E949F38FB89F11103C0E9
:100CE00080E090EF02C080EC9FEC7C0109E110E015
:100CF00028E330E045E050E061E970E0C3010E9484
:100D000063308C89811103C080E090EF02C080ECD9
:100D10009FEC7C0109E110E024E430E045E050E084
:100D200067E271E0C3010E94633082E0F301848BCB
:100D30008FEF9FEF938B828B918B808B86E990E076
:100D4000958784870AE010E01787068768E273E0DA
:100D5000C3010E949F388CE291E0F301958784875C
:100D6000178706876DE273E0C3010E949F3881E90F
:100D700090E0F3019587848782E390E097878687E8
:100D8000C2016CE370E00E94BD502B018C014AE06F
:100D9000BC01CE010D960E94EC370A3011051CF003
:100DA0000BEE12E002C008ED12E04AE0B201CE0103
:100DB00007960E94EC37FAE04F1651041CF06BEED8
:100DC00072E002C068ED72E0CE0101960E94183810
:100DD000BE01695F7F4FCE0101960E94512F6EE0E8
:100DE00073E00E943A2FB8010E943A2FBE01635F60
:100DF0007F4F0E94512FBC01C3010E94B138CE0128
:100E000001960E94962FCE0107960E94962FCE0142
:100E10000D960E94962F81E990E0F30195878487D3
:100E200084E690E097878687C1016CE370E00E94BA
:100E3000BD502B018C014AE0BC01CE010D960E94F1
:100E4000EC370A3011051CF00BEE12E002C008ED81
:100E500012E04AE0B201CE0107960E94EC37FAE0B8
:100E60004F1651041CF06BEE72E002C068ED72E0A8
:100E7000CE0101960E941838BE01695F7F4FCE01F6
:100E800001960E94512F6EE073E00E943A2FB80144
:100E90000E943A2FBE01635F7F4F0E94512FBC0119
:100EA000C3010E94B138CE0101960E94962FCE0157
:100EB00007960E94962FCE010D960E94962F81E9EB
:100EC00090E0F3019587848786E990E0978786878D
:100ED0008D899E896CE370E00E94BD502B018C01CE
:100EE0004AE0BC01CE010D960E94EC370A30110594
:100EF0001CF00BEE12E002C008ED12E04AE0B20175
:100F0000CE0107960E94EC37FAE04F1651041CF010
:100F10006BEE72E002C068ED72E0CE0101960E94B5
:100F20001838BE01695F7F4FCE0101960E94512F94
:100F30006EE073E00E943A2FB8010E943A2FBE0182
:100F4000635F7F4F0E94512FBC01C3010E94B138E3
:100F5000CE0101960E94962FCE0107960E94962FF1
:100F6000CE010D960E94962F81E990E0F3019587BE
:100F7000848788EC90E097878687C6016CE370E0F1
:100F80000E94BD506B018C014AE0BC01CE010D9660
:100F90000E94EC370A3011051CF00BEE12E002C083
:100FA00008ED12E04AE0B601CE0107960E94EC3748
:100FB000FAE0CF16D1041CF06BEE72E002C068EDCF
:100FC00072E0CE0101960E941838BE01695F7F4F22
:100FD000CE0101960E94512F6EE073E00E943A2FDD
:100FE000B8010E943A2FBE01635F7F4F0E94512FCC
:100FF000BC01C3010E94B138CE0101960E94962F18
:10100000CE0107960E94962FCE010D960E94962F34
:101010008CE291E0F3019587848782E390E09787E3
:101020008687C5016CE370E00E94BD506B018C01A6
:101030004AE0BC01CE010D960E94EC370A30110542
:101040001CF00BEE12E002C008ED12E04AE0B6011F
:10105000CE0107960E94EC37FAE0CF16D1041CF0BF
:101060006BEE72E002C068ED72E0CE0101960E9464
:101070001838BE01695F7F4FCE0101960E94512F43
:101080006EE073E00E943A2FB8010E943A2FBE0131
:10109000635F7F4F0E94512FBC01C3010E94B13892
:1010A000CE0101960E94962FCE0107960E94962FA0
:1010B000CE010D960E94962F8CE291E0F301958768
:1010C000848784E690E097878687C4016CE370E0AC
:1010D0000E94BD502B018C014AE0BC01CE010D964F
:1010E0000E94EC370A3011051CF00BEE12E002C032
:1010F00008ED12E04AE0B201CE0107960E94EC37FB
:10110000FAE04F1651041CF06BEE72E002C068ED7D
:1011100072E0CE0101960E941838BE01695F7F4FD0
:10112000CE0101960E94512F6EE073E00E943A2F8B
:10113000B8010E943A2FBE01635F7F4F0E94512F7A
:10114000BC01C3010E94B138CE0101960E94962FC6
:10115000CE0107960E94962FCE010D960E94962FE3
:101160008CE291E0F3019587848786E990E0978788
:1011700086878CA59DA56CE370E00E94BD502B0175
:101180008C014AE0BC01CE010D960E94EC370A307A
:1011900011051CF00BEE12E002C008ED12E04AE06F
:1011A000B201CE0107960E94EC37FAE04F165104C7
:1011B0001CF06BEE72E002C068ED72E0CE010196A9
:1011C0000E941838BE01695F7F4FCE0101960E94D0
:1011D000512F6EE073E00E943A2FB8010E943A2F1F
:1011E000BE01635F7F4F0E94512FBC01C3010E946B
:1011F000B138CE0101960E94962FCE0107960E942B
:10120000962FCE010D960E94962F8CE291E0F3016D
:101210009587848788EC90E0978786878EA59FA521
:101220006CE370E00E94BD502B018C014AE0BC01D0
:10123000CE010D960E94EC370A3011051CF00BEE22
:1012400012E002C008ED12E04AE0B201CE010796BA
:101250000E94EC37FAE04F1651041CF06BEE72E07E
:1012600002C068ED72E0CE0101960E941838BE01FE
:10127000695F7F4FCE0101960E94512F6EE073E0AF
:101280000E943A2FB8010E943A2FBE01635F7F4F40
:101290000E94512FBC01C3010E94B138CE010196BA
:1012A0000E94962FCE0107960E94962FCE010D9692
:1012B0000E94962F02E310E028E7A22EB12C37ED12
:1012C000C32ED12CF301B586A4861787068767E95C
:1012D00073E0C3010E94C338F301D586C486178723
:1012E000068765E973E0C3010E94C3380E5C1F4F97
:1012F0000A3F110539F702E310E083E1A82EBB2471
:10130000B39492E7C92EDD24D394F301B586A48665
:101310001787068767E973E0C3010E94C338F301AA
:10132000D586C4861787068765E973E0C3010E94E6
:10133000C3380E5C1F4F0A3F110539F781E0F301F6
:10134000848B1586148682E390E09787868769EB05
:1013500074E0C3010E949F38F3011586148684E669
:1013600090E09787868765EC74E0C3010E949F3800
:10137000F3011586148686E990E09787868762EDEB
:1013800074E0C3010E949F38F3011586148688EC2F
:1013900090E09787868760EE74E0C3010E949F38D3
:1013A00066960FB6F894DEBF0FBECDBFDF91CF912A
:1013B0001F910F91FF90EF90DF90CF90BF90AF9073
:1013C0009F908F907F906F905F904F903F902F9065
:1013D00008952F923F924F925F926F927F928F92D9
:1013E0009F92AF92BF92CF92DF92EF92FF920F93B4
:1013F0001F93CF93DF93CDB7DEB766970FB6F89400
:10140000DEBF0FBECDBF6C016B8BFC0127A930E0A6
:10141000F901E353FD4F8490FC0184A9A82FB0E0AB
:10142000FD01E353FD4FA490F60166A970E0FB01B6
:10143000E353FD4F0491F60145A950E0FA01E3534F
:10144000FD4F2490F901ED5EFC4F7490FD01ED5EBF
:10145000FC4F6490FB01ED5EFC4F1491FA01ED5ED0
:10146000FC4F24912C8B60E00E94621A60E0F60130
:1014700085A90E94621AB12CF501EE0FFF1FCF0162
:101480008D549D4F5C01FC01A591B4918C91262D4A
:1014900020952D8B82238C93312CF101EE0FFF1FB1
:1014A000CF018D549D4F1C01FC01A591B4919C91DD
:1014B0008C89809589238C9361E0F60187A90E942D
:1014C000621A61E0F60186A90E94621A912CF40169
:1014D000EE0FFF1FCF018D549D4F4C01FC01A591D4
:1014E000B4918C9187298C93E02FF0E0EE0FFF1FD1
:1014F000ED54FD4FA591B491EC9110951E231C93D2
:10150000F60184A90E949E1A8C01F60184A90E940A
:101510009E1A2C018FEF93E07C01E418F50860E03F
:10152000F60187A90E94621A60E0F60186A90E946E
:10153000621AF401A591B4918C9170947E8A8721EE
:101540008C9361E0F60184A90E94621AF501A591CD
:10155000B491EC916E2A6C9261E0F60185A90E942B
:10156000621AF60186A90E949E1A3C01F60186A91C
:101570000E949E1A6816790629F47724739404153C
:10158000150509F0712C0FEF13E0081B190B61E032
:10159000F60187A90E94621AF401A591B491EC9119
:1015A0002E89E223EC93F101A591B491EC914C8941
:1015B000E42BEC93F501A591B4918C912D898223B4
:1015C0008C9360E0F60184A90E94621AF60186A954
:1015D0000E949E1A5C01F60184A90E949E1AF601DF
:1015E00080AC91AC8114910409F440C0BC01990F06
:1015F000880B990B0E94574E1B012C01B501BB0CA7
:10160000880B990B0E94574E9B01AC01C201B1019E
:101610000E941C5020E030E040E85FE30E94B74F9A
:101620005B016C01B7010F2C000C880B990B0E9419
:10163000574E9B01AC01C601B5010E94B64E5B013D
:101640006C01B40180E090E00E94554E9B01AC011A
:10165000C601B5010E94B64E20E030E040E85AE3F2
:101660000E94B64E0E9484506B0107C0A81AB90AA6
:101670006501F1E0CF1AFCEFDF0A711002C0C12C46
:10168000D12C61E088E30E94621A61E087E30E9446
:10169000621AB601695C71096F31734008F0DEC0EF
:1016A0004B89411141C26FEE74E08EE599E00E94D2
:1016B0009F384AE0B801CE010D960E94EC374AE00F
:1016C000B701CE0101960E94EC3718861F821A8658
:1016D00019861C861B8669817A816115710531F036
:1016E0004D815E81CE0107960E94622F6BED75E001
:1016F000CE0107960E943A2FBE01635F7F4F0E9482
:10170000512FBC018EE599E00E94B138CE010796B9
:101710000E94962FCE0101960E94962FCE010D9623
:101720000E94962FC701805392408D38910570F426
:10173000C801845F9140893C910540F465EF74E0F5
:101740008EE599E00E949F3883E0EFC197012A540B
:1017500031402739310570F4C801845F9140893CDC
:10176000910540F463E075E08EE599E00E949F38B2
:1017700084E0DBC1C701885592408E35910570F435
:10178000C8018C5B9240893C910540F46FE075E0A4
:101790008EE599E00E949F3881E0C7C1C70185545A
:1017A00091408C34910570F4C8018C5B9240893C67
:1017B000910540F46BE175E08EE599E00E949F3859
:1017C00082E0B3C1C7018E5B91098536910570F443
:1017D000A801485A5240413F510540F469E275E082
:1017E0008EE599E00E949F3885E09FC1EAE3EE1AFA
:1017F000E2E0FE0AF3E8EF16F10470F498012054D9
:101800003140253B3105C8F461E475E08EE599E08F
:101810000E949F3889E189C12D38310570F4980103
:1018200020543140253B310540F465E575E08EE5F7
:1018300099E00E949F388AE178C1CD9708F074C181
:10184000085C11090739110508F06EC167E675E0FB
:101850008EE599E00E949F388BE167C12B8921308A
:1018600009F0BCC0C701845393408734910538F414
:10187000C801885C91098937910508F4F5C0C70152
:10188000845992408437910568F4C8018856914084
:101890008932910508F4D2C0845B910981359105A4
:1018A00008F4CEC0C701825192408135910568F499
:1018B000C801885691408932910508F4C3C0845B01
:1018C00091098135910508F4BFC097012757314030
:1018D00020363105A0F4C80188569140893291051F
:1018E00008F4B4C0845B91098135910540F465E743
:1018F00075E08EE599E00E949F388CE016C1C70123
:10190000875D910980369105A8F4A8014856514099
:101910004932510540F460E975E08EE599E00E9496
:101920009F388DE002C1A8014C515240413551050C
:1019300008F48EC0A7014D5A52404E35510568F447
:10194000A8014A5852404135510508F483C0485C0B
:1019500051094D33510508F47FC04DEFE40EF41EDC
:10196000EAE6EE16F10470F4A8014A5852404135F7
:10197000510508F473C0485C51094D335105A8F472
:1019800082E1D3C02036310598F498012A583240BC
:101990002135310508F464C09801225533402D33B8
:1019A000310508F083C084E1C0C020363105A0F3C2
:1019B0008036910508F0B8C0C8018A589240813538
:1019C000910508F44FC00235F3E01F070CF4ACC0DA
:1019D0000F3813400CF0A8C086E1A7C04B894230F5
:1019E00009F0A2C0C701845393408734910530F4B5
:1019F000C801885C910989379105B0F1C7018B5CFA
:101A000092408635910530F49801205431402D33B1
:101A1000310560F1E0EFEE1AF108F5E6EF16F1049A
:101A200040F49801205431402D33310508F58DE103
:101A30007CC08635910508F466C076C087E075C025
:101A400088E073C089E071C08AE06FC08BE06DC030
:101A50008EE06BC08FE069C080E167C081E165C046
:101A600083E163C085E161C086E05FC08CE15DC059
:101A70008635910500F1C801805991408135910565
:101A800088F0C8018A5392408C34910568F0093976
:101A900042E014070CF448C0003E12400CF044C071
:101AA00083E243C08FE141C081E23FC080369105AF
:101AB00008F489CF39C0003941E014076CF0013EC9
:101AC00021E0120714F48EE130C0E5E6EE16F104D1
:101AD00018F18635910540F50A3342E01407BCF051
:101AE0000638E2E01E0714F480E21FC0F5E6EF16A8
:101AF000F104B8F40939F2E01F07B4F0003E1240D7
:101B00009CF482E212C00039E1E01E07C4F625E62B
:101B1000E216F10448F005C00A33F2E01F0704F7AB
:101B2000E9CF8635910530F380E066960FB6F894DC
:101B3000DEBF0FBECDBFDF91CF911F910F91FF9000
:101B4000EF90DF90CF90BF90AF909F908F907F905D
:101B50006F905F904F903F902F9008952F923F92FB
:101B60004F925F926F927F928F929F92AF92BF92AD
:101B7000CF92DF92EF92FF920F931F93CF93DF9359
:101B8000CDB7DEB7AF970FB6F894DEBF0FBECDBFAF
:101B90004C017FA76EA7B42ED22E1701280160E05A
:101BA00070E00E94870482E0F401848B8FEF9FEF46
:101BB000938B828B918B808B2A968FAD2A97811184
:101BC00003C080E090EF02C080EC9FEC7C0103E258
:101BD00010E02BE430E046E450E068EC70E0C40133
:101BE0000E9463302B968FAD2B97811103C080E04C
:101BF00090EF02C080EC9FEC7C0103E210E02BE44C
:101C000030E041E950E068EC70E0C4010E946330CC
:101C100001ED10E0F4011587048770E5672E712C43
:101C20007786668669E173E0C4010E949F38F401FB
:101C3000158704878BE990E09787868769E173E0D1
:101C4000C4010E949F38B11018C0E12C60EFF62E3D
:101C500003E210E020E530E046E450E064E670E0A6
:101C6000C4010E94633088E790E0F401958784877F
:101C70007786668664ED72E037C0F1E0BF1219C066
:101C80005CE1E52E55E9F52E03E210E020E530E0B9
:101C900046E450E064E670E0C4010E9463308EE6E2
:101CA00090E0F40195878487778666866FE173E01C
:101CB0001BC0F2E0BF121BC040ECE42E4FECF42E30
:101CC00003E210E020E530E046E450E064E670E036
:101CD000C4010E9463308DE790E0F401958784870A
:101CE0007786668665E273E0C4010E949F38D11052
:101CF0001AC0E12C30EFF32E03E210E020E530E0D3
:101D000041E950E064E670E0C4010E94633088E776
:101D100090E0F401958784878BE990E09787868728
:101D200064ED72E03BC0F1E0DF121BC02CE1E22E5B
:101D300025E9F22E03E210E020E530E041E950E031
:101D400064E670E0C4010E9463308EE690E0F40126
:101D5000958784878BE990E0978786876FE173E0AA
:101D60001DC0F2E0DF121DC090ECE92E9FECF92EB1
:101D700003E210E020E530E041E950E064E670E085
:101D8000C4010E9463308DE790E0F4019587848759
:101D90008BE990E09787868765E273E0C4010E9433
:101DA0009F38F4011586148680E590E09787868732
:101DB0006BEA75E0C4010E949F38F4011586148611
:101DC0008BE990E09787868764EB75E0C4010E94F9
:101DD0009F38F4011586148603E010E01787068704
:101DE0008FEF9FEF918B808B138A128A6BEB75E0DC
:101DF000C4010E94C33880EA90E0F401958784878B
:101E0000178706871BA21AA21DA21CA21FA21EA230
:101E10008E010F5F1F4F22E044E0C201B1010E941A
:101E20006F4BBC01CE0182960E94812FBE016E5D78
:101E30007F4FC4010E943438CE0182960E94962FB3
:101E4000F4011586148604E110E0178706876AEC12
:101E500075E0C4010E949F3887ED90E0F4019587FA
:101E6000848717870687C11003C064ED72E002C043
:101E700060ED72E0CE0101960E941838BE016F5FDE
:101E80007F4FC4010E943438CE0101960E94962FE4
:101E90006DED75E0C4010E94C33888E691E0F4015D
:101EA0009587848784E190E097878687A11003C097
:101EB00064ED72E002C060ED72E0CE0101960E9416
:101EC0001838BE016F5F7F4FC4010E943438CE01C5
:101ED00001960E94962F2AE530E04AE550E066E43C
:101EE00070E0C4010E944E2C25EA30E045EA50E043
:101EF00069EB70E0C4010E944E2CEE24EA94FE2CA3
:101F00000EE110E024E630E04DEC50E062E271E0DA
:101F1000C4010E946330F401138A128A118A108A64
:101F200086E391E09587848785ED90E097878687A3
:101F30006FE173E0C4010E949F388FEF9FEFF401BF
:101F4000938B828B918B808B83E0848B87E291E0F3
:101F50009587848783E790E09787868729964CAD9D
:101F60005DAD6EAD7FAD2997C4010E94782B8EE1E7
:101F700090E0F4019587848782ED90E097878687CB
:101F80008EA59FA56CE370E00E94BD506B018C0193
:101F90004AE0BC01CE0188960E94EC370A30110558
:101FA0001CF00BEE12E002C008ED12E04AE0B601B0
:101FB000CE0182960E94EC37FAE0CF16D1041CF0D5
:101FC0006BEE72E002C068ED72E0CE0101960E94F5
:101FD0001838BE016E5D7F4FCE0101960E94512FD1
:101FE0006EE073E00E943A2FB8010E943A2FBE01C2
:101FF000685D7F4F0E94512FBC01C4010E94B1381F
:10200000CE0101960E94962FCE0182960E94962FB5
:10201000CE0188960E94962FAF960FB6F894DEBF39
:102020000FBECDBFDF91CF911F910F91FF90EF9029
:10203000DF90CF90BF90AF909F908F907F906F90E8
:102040005F904F903F902F900895EF92FF920F93E3
:102050001F93CF93DF939C01FB0110921E0790E02A
:102060008BE0983031F1899F70011124E701CA5348
:10207000D94F6881798161157105C9F04A815B8109
:1020800041155105A1F0D9010D911C911197061729
:10209000170769F412966D917C9113976417750771
:1020A00031F490931E07D701A653B94F2AC09F5F02
:1020B000D8CF90E08BE0983091F0899FE001112417
:1020C000CA53D94F48815981452B39F44A815B81E4
:1020D000452B19F490931E070AC09F5FECCF109216
:1020E000C1061092C00610921E07C6ECD6E0D901B8
:1020F0004D915D916D917C91DE014D935D936D935A
:102100007D9386E001900D928A95E1F71A86DF9122
:10211000CF911F910F91FF90EF9008959C01AB011B
:102120007093BF066093BE061616170654F480918E
:10213000BC069091BD062817390719F0B9010C9417
:1021400001530895EF92FF921F93CF93DF93C091B5
:10215000AA06D091AB06843009F4ECC12DE537E036
:102160003093C5062093C4063093BD062093BC0669
:10217000833059F4898D8F70833009F0D5C68889F2
:102180009989892B09F0D0C67EC0823009F07FC0C2
:102190008091BB068F5F8093BB06811113C0809135
:1021A000BA068F5F8093BA0681110CC08091B90680
:1021B0008F5F8093B906811105C08091B8068F5F4B
:1021C0008093B8061092C3061092C2061092BF0602
:1021D0001092BE06898D982F9D7F953041F48A8D8F
:1021E0008F5F8A8F883709F09FC6198E9DC6882316
:1021F00009F49AC628893989232B09F440C09A8D9D
:102200002FEF290F2A8F91118FC69B8D983031F0B7
:102210002FEF280F223048F4953039F4198E80E8DA
:102220008093A9060E94F23538C5953038F423E032
:10223000092E01C0220F0A94EAF701C020E32A8F79
:102240009F5F9B8F8F708330A1F048F4813009F439
:102250004EC3823009F068C6109256074BC38630D1
:1022600009F4B7C4883009F4B4C4843009F05CC6FA
:10227000B0C484E08093A9060E94F23540C58F70F7
:10228000833009F051C688E08093A906FBC48530ED
:1022900019F5E091A706F091A80684819581892B14
:1022A00009F442C61092AB061092AA0681E597E0A7
:1022B0009093C5068093C4069093BD068093BC0698
:1022C0001092BF061092BE061092C3061092C2066C
:1022D00088E08093A9062CC180913507853409F0E8
:1022E00023C6C0913707D0E0DC2FCC278091380778
:1022F000C80FD11D8091C2069091C3068C179D070F
:1023000008F412C6D093C306C093C20680913B075F
:102310008F7309F009C610913C07111105C6E090B2
:102320002307F0902407E114F10439F48091250784
:1023300090912607892B09F442C080913E07209195
:10234000450730914607813151F52F3F4FEF340754
:1023500039F48091470790914807019609F471C0BC
:1023600080911F0790912007809590958E299F2935
:1023700028173907A1F480912107909122078095B1
:1023800090954091250750912607842B952B4091DD
:102390004707509148074817590709F452C02E15AE
:1023A0003F0509F0C1C5209147073091480780914A
:1023B0002507909126072817390709F0B5C50E940F
:1023C000A835019609F0B0C580913E07863009F422
:1023D00015C18131B1F1813009F0A6C5809149075D
:1023E000883009F0A1C51092490780914B07909160
:1023F0004C07873FCFEF9C0710F0099601C0089665
:1024000090934C0780934B0780914107909142072E
:102410009093460780934507809143079091440726
:102420009093480780934707F0924207E092410754
:102430008091250790912607909344078093430746
:1024400077C56C97D093C306C093C20681E597E029
:102450009093C5068093C40680914F0790915007D2
:10246000892B99F420914B0730914C0740914907F3
:1024700050914A076091410770914207A09143072C
:10248000B0914407EBE7F6E00CC081E10E94F42331
:10249000019609F049C5E6CF84819581009731F412
:1024A0003B9686E0E73AF807B8F324C028173907C7
:1024B000B9F786819781009719F04817590781F776
:1024C00080819181009729F4C281D381CD2B49F479
:1024D00016C08F3FCFEF9C0721F4C281D381219694
:1024E00071F068177907E1F682819381A817B9071F
:1024F000B9F605C0F093A806E093A70615C5F093BA
:10250000A806E093A7061092AB061092AA0682E0F6
:102510008093A90681E597E09093C5068093C40651
:102520009093BD068093BC061092BF061092BE0623
:102530000E9492238091BE069091BF06009709F4F5
:10254000F3C49C01245E3F4F3093C3062093C20620
:102550003093370720933807E091A706F091A8063B
:10256000208520933D0721E120933E070896982778
:102570008927982790934E0780934D071092500714
:1025800010924F078481958190934A078093490761
:102590008681978190934C0780934B078091230706
:1025A00090912407909342078093410780912507DB
:1025B00090912607909344078093430780819181EF
:1025C00090934607809345078281938190934807B3
:1025D000809347078DE597E09093C5068093C406E6
:1025E00081E10E94F42380959095009711F48FEF7C
:1025F0009FEF9093500780934F0773C486E00E942B
:10260000F423019609F090C420914B0730914C07B8
:102610008091490790914A07609141077091420764
:10262000E0914307F0914407C3E0D6E0498D44238D
:10263000A9F0AC81BD812A173B0781F4AE81BF812F
:102640008A179B0759F4A881B9816A177B0731F46F
:10265000AA81BB81EA17FB0709F463C16E9646E0C5
:10266000CB37D40719F7809156078F738230A1F4C6
:102670003093B7062093B60680E0843059F08F5F20
:1026800021153105D1F71092B50680E0C0E0D0E009
:102690009EE178C08093B5068091560782FD44C4C0
:1026A00084E18093560788E290E09093C30680937C
:1026B000C20680E5809355073091500780915407FA
:1026C0008093500720914F078091530780934F07C5
:1026D0002093530790914E078091520780934E07A5
:1026E0009093520780914D078093B5064091510712
:1026F00040934D07809351073F5F3093540731114A
:102700000DC02F5F20935307211108C09F5F909346
:102710005207911103C08F5F809351078091490741
:1027200090914A079093B7068093B60620914B0785
:1027300030914C0730934A072093490790934C07F8
:1027400080934B07809141079091420790934607F1
:1027500080934507809143079091440790934807E1
:1027600080934707F0924207E09241078091250746
:1027700090912607909344078093430796C3473070
:1027800099F08F5F8430F1F0282F30E0929FF001B4
:10279000939FF00D1124ED5FF94F418D4111EFCF63
:1027A0008093B506EF0110C0209721F0528D4A8D1D
:1027B000451738F7929FE001939FD00D1124CD5F0C
:1027C000D94FDFCF8093B506209709F4ADC3D093DE
:1027D000AB06C093AA0683E08A8F888F1E8A84E0A6
:1027E0008F8B1B8E80914B0790914C079D838C8320
:1027F0008091490790914A079F838E83809141077A
:102800009091420799838883809143079091440770
:102810009B838A8381E0898F8091B8068C87809121
:10282000B9068D878091BA068E878091BB068F8707
:1028300081E090E0998B888B809150078B87809105
:102840004F078A8780914E07898780914D07888737
:1028500081E090E00E94A64A80915507982F907FD2
:10286000913508F444C082958F7090E00597880FE9
:10287000991F880F991F2091B406E12FF0E0E81707
:10288000F9078CF5E95DF84F26A9211105C01093D1
:10289000B5061092B4062BC0213011F41F5FEDCFA6
:1028A0002230E1F437A93430C9F41093B5062093EF
:1028B000B40680AD90E0982F882721AD822B9093AD
:1028C000B7068093B606813062E0960710F080E08C
:1028D00092E09B8B8A8B9D8B8C8B09C037A933230D
:1028E00011F0130FCACF1093B5062093B40680E100
:1028F000809356078091560782608093560782E046
:1029000080935D0794E090935E0780935F07109239
:1029100060078CE290E09093C3068093C20680E645
:1029200072C2D093AB06C093AA061092A90630914A
:102930005607132F147032FF03C0198E80E20CC2A9
:102940002091550722952F70220F220F2093B50654
:102950008091C2069091C3064497821B910990937F
:10296000C3068093C2064F70423021F4232F2F7389
:102970002231C9F0892B19F4832F8370A1F0909133
:102980004D078885981335C290914E078985981315
:1029900030C290914F078A8598132BC290915007AF
:1029A0008B85981326C234FF49C0688979896115DF
:1029B000710509F443C0CE010C960E94704A309113
:1029C00051078091B006381339C020915207809189
:1029D000B106281333C0909153078091B206981323
:1029E0002DC0809154074091B306841327C03C87C3
:1029F0002D879E878F878B8D811119C09E89888D29
:102A00002A8D821B292F269526952695821B980FA5
:102A10009E8B87FD81952F89322F36953695231B06
:102A2000820F8F8B969596959695890F888F81E06A
:102A30008093A906888D8A8F198A188A298DE22F9A
:102A4000EF708E2F90E0FC013197E830F10508F02F
:102A50006BC28827EE58FF4F8F4F0C94D050809157
:102A6000A90680FF61C283E0898F80E48093A90674
:102A7000198A188A8091C2069091C306009709F4BA
:102A8000FDC022E42093A9060E94A64AF7C08091C7
:102A9000A90680FF6DC0809156078F73823109F0BF
:102AA00067C080915507982F907F913508F444C0F6
:102AB00082958F7090E00597880F991F880F991F56
:102AC0002091B406E12FF0E0E817F9078CF5E95DF5
:102AD000F84F26A9211105C01093B5061092B4062F
:102AE0002BC0213011F41F5FEDCF2230E1F437A964
:102AF0003430C9F41093B5062093B40680AD90E04D
:102B0000982F882721AD822B9093B7068093B60625
:102B1000813072E0970710F080E092E09B8B8A8B07
:102B20009D8B8C8B09C037A9332311F0130FCACFAB
:102B30001093B5062093B40683E0898F80914D07EA
:102B4000888780914E07898780914F078A87809177
:102B500050078B8781E090E00E94A64A82E4809330
:102B6000A906198A188A1092C3061092C20686C056
:102B700080E28093A9060E94F235198E8DCD809156
:102B8000560780FF28C024FD26C088899989892B93
:102B900009F0CAC18091C2069091C30601960E94B5
:102BA000A64A8091A906982F90619093A90620913A
:102BB000C2063091C306232B19F082618093A906C7
:102BC0000E94F23581E090E0998B888B88E0898FB4
:102BD0001B8E81E10FC185FF1DC080915B0790E0D6
:102BE000982F882730915C07832B4091C406509121
:102BF000C506480F591F5093C5064093C40640911F
:102C0000C2065091C306BA01681B790B7093C306C4
:102C10006093C2064091C2065091C306411551050A
:102C200051F024FD08C09091A90692609093A906E6
:102C3000CA010E94A64A8091570790E0982F8827E2
:102C400020915807820F911D9093B7068093B60686
:102C50002C893D892817390710F0892B21F43093EE
:102C6000B7062093B6068091B6069091B7069B8B67
:102C70008A8B8091A906837009F456C11092BF0611
:102C80001092BE060E94F2358091A90685FF07C00A
:102C90001092BF061092BE06198E84E1ABC084FF6D
:102CA0000AC01092BF061092BE0681E090E0998B98
:102CB000888B84E08CCF2091BE063091BF06211511
:102CC0003105E1F080FF02C0198A188A8889998944
:102CD000009781F48A899B898217930720F4909347
:102CE000BF068093BE068091BE069091BF06998B69
:102CF000888B04C09093BF068093BE061B8E809184
:102D0000BC069091BD069093C5068093C406809141
:102D1000BE069091BF06892B59F088899989009742
:102D200039F088969093C3068093C20688E10BC061
:102D30008091A90681FFF8C088E290E09093C306D5
:102D40008093C20680E1809356075CC08091A906FB
:102D500080FFEAC0198E80E18093A9060E94F235B7
:102D6000E3C08091C2069091C306009711F00E94C3
:102D7000A64A909156078091A90690FF0BC080FF4C
:102D800006C087E0898F1A8E198A188A19C086E0D2
:102D9000898F16C080FF1EC085E0898F198A188A26
:102DA000C3C08091C2069091C306009711F00E94A3
:102DB000A64A8091560780FF0DC087E0898F1A8E42
:102DC00081E090E00E94A64A80E18093A9060E94DB
:102DD000F2350FC08091C2069091C306892B49F449
:102DE000A3C08091A90680FF9FC087E0898F1A8EBB
:102DF0009BC080E18093560788E290E09093C306E1
:102E00008093C20680E5809355078885809351079B
:102E10008985809352078A85809353078B85809399
:102E200054078C8580934D078D8580934E078E8542
:102E300080934F078F858093500786E080933E07ED
:102E40008C819D8190934A07809349078E819F8151
:102E500090934C0780934B07809123079091240710
:102E60009093420780934107809125079091260710
:102E700090934407809343078881998190934607F4
:102E8000809345078A819B819093480780934707E9
:102E9000898D84FF05C0109258071092570705C00E
:102EA00082E0809357071092580780E480933D0793
:102EB0008091C2069091C30690933707809338079C
:102EC00010925C0710925B0710925A0710925907F4
:102ED00086E00E94F4238095909590935A07809302
:102EE000590785E4809335071092360710923C0706
:102EF00010923B078091AE069091AF060196909399
:102F0000AF068093AE069093390780933A071092EC
:102F1000400710923F070E94A835809590959093A6
:102F2000400780933F0704C01092C3061092C20668
:102F30001092A906DF91CF911F91FF90EF90089515
:102F40000F931F93CF93DF93DC012091AC06309158
:102F5000AD062F5F3F4F21158DE7380710F020E0B9
:102F600030E1522F432FEBE7F6E080E0843041F070
:102F7000C481D5818F5F3B96C417D507B9F7E9CFD8
:102F80003093AD062093AC0690E08BE09430D1F006
:102F9000292F30E041E0490F829FF001839FF00D1F
:102FA0001124E558F94FEF01249604811581012B76
:102FB00039F49093B506309741F480E090E02EC04C
:102FC000942FE4CF9093B506F8CF8091AC06909102
:102FD000AD06982789279827998388837783668306
:102FE000109729F410821182128213820BC08D91E6
:102FF0009C9111979183808312968D919C91139748
:10300000938382838BE0829FD001839FB00D112434
:10301000A558B94F80E418968C93CF01DF91CF91DA
:103020001F910F910895FC01538D448D252F30E0A1
:10303000842F90E0821B930B541710F0CF960895C5
:1030400001970895FC01918D828D981761F0828D12
:10305000DF01A80FB11D5D968C91928D9F5F9F73CC
:10306000928F90E008958FEF9FEF0895FC01918D6E
:10307000828D981731F0828DE80FF11D858D90E0DB
:1030800008958FEF9FEF0895FC01918D228D892F78
:1030900090E0805C9F4F821B91098F739927089560
:1030A0008EE599E0F1DF21E0892B09F420E0822F01
:1030B0000895FC01848DDF01A80FB11DA35ABF4FF5
:1030C0002C91848D90E001968F739927848FA68927
:1030D000B7892C93A089B1898C9180648C93938D4E
:1030E000848D981306C00288F389E02D80818F7D3E
:1030F00080830895EF92FF920F931F93CF93DF93F6
:10310000EC0181E0888F9B8D8C8D981305C0E88938
:10311000F989808185FD23C0F62E0B8D10E00F5FAD
:103120001F4F0F731127E02E8C8DE8120BC00FB6C6
:1031300007FCFACFE889F989808185FFF5CFCE01B8
:10314000B8DFF2CF8B8DFE01E80FF11DE35AFF4F80
:10315000F0820B8FEA89FB898081806207C0EE894B
:10316000FF896083E889F98980818064808381E0B8
:1031700090E0DF91CF911F910F91FF90EF90089514
:10318000CF93DF93EC01888D8823C1F0EA89FB8916
:10319000808185FD05C0A889B9898C9186FD0EC006
:1031A0000FB607FCF5CF808185FFF2CFA889B989DA
:1031B0008C9185FFEDCFCE017CDFE8CFDF91CF9101
:1031C000089580E090E0892B19F06ADF811125C015
:1031D00080E090E0892B41F080E090E0892B21F0A5
:1031E0000E94000081111CC080E090E0892B41F01A
:1031F00080E090E0892B21F00E940000811113C033
:1032000080E090E0892BA1F080E090E0892B81F0B4
:103210000E94000081110AC008950E940000D8CFCA
:103220000E940000E1CF0E940000EACF0C94000051
:1032300008953FB7F8948091A4089091A508A091B3
:10324000A608B091A70826B5A89B05C02F3F19F086
:103250000196A11DB11D3FBFBA2FA92F982F882716
:10326000820F911DA11DB11DBC01CD0142E0660F71
:10327000771F881F991F4A95D1F708958F929F92C3
:10328000AF92BF92CF92DF92EF92FF920F931F9374
:10329000CF93DF937C018B016C0182E0C80ED11CBF
:1032A0004701E5E08E0E911CC0E0D0E0F6014191AF
:1032B0006F0150E060E070E02AE0C8010E945738DA
:1032C0005C016EE2C8010E942D388A0D9B1DC80F5B
:1032D000D91FC814D90451F7F701458150E060E0C7
:1032E00070E02AE0C8010E9457388C0F9D1FDF91C3
:1032F000CF911F910F91FF90EF90DF90CF90BF90F3
:10330000AF909F908F9008950E94FD521F920F9250
:103310000FB60F9211240BB60F922F933F934F933A
:103320005F936F937F938F939F93AF93BF93EF932D
:10333000FF938EE599E0BDDEFF91EF91BF91AF91D4
:103340009F918F917F916F915F914F913F912F91BD
:103350000F900BBE0F900FBE0F901F9018951F92ED
:103360000F920FB60F9211240BB60F922F938F93DB
:103370009F93EF93FF93E0916E09F0916F09808125
:10338000E0917409F091750982FD12C090818091DD
:1033900077098F5F8F7320917809821751F0E09140
:1033A0007709F0E0E25AF64F958F8093770901C0D4
:1033B0008081FF91EF919F918F912F910F900BBE84
:1033C0000F900FBE0F901F901895362F90E0FC01C4
:1033D000E75AFC4F4491FC01ED5EFC4F2491FC0147
:1033E000E353FD4F9491992309F46BC0442309F4EE
:1033F00055C050E0FA013197E231F10508F04EC0B6
:103400008827E658FF4F8F4F0C94D0508091800052
:103410008F7707C0809180008F7D03C080918000EE
:10342000877F809380003AC084B58F7702C084B5CF
:103430008F7D84BD33C08091B0008F7703C08091B1
:10344000B0008F7D8093B00029C0809190008F776D
:1034500007C0809190008F7D03C080919000877F8E
:10346000809390001BC08091A0008F7707C080914F
:10347000A0008F7D03C08091A000877F8093A00073
:103480000DC0809120018F7707C0809120018F7D32
:1034900003C080912001877F80932001E92FF0E015
:1034A000EE0FFF1FED54FD4FA591B4918FB7F89427
:1034B000EC91311103C020952E2301C02E2B2C93AB
:1034C0008FBF0895CF93DF9390E0FC01ED5EFC4F3A
:1034D0002491FC01E353FD4F8491882361F190E036
:1034E000880F991FFC01E756FD4FC591D491FC014F
:1034F000ED54FD4FA591B491611109C09FB7F894A7
:103500008881209582238883EC912E230BC0623022
:1035100061F49FB7F8943881822F80958323888344
:10352000EC912E2B2C939FBF06C08FB7F894E881A7
:103530002E2B28838FBFDF91CF910895863308F01B
:10354000865390917B00282F2870977F922B909321
:103550007B008770806480937C0080917A00806417
:1035600080937A0080917A0086FDFCCF809178006C
:103570002091790090E0922B08958F929F92AF92C4
:10358000BF92CF92DF92EF92FF926B017C0151DEEE
:103590004B015C01C114D104E104F104E9F049DEFE
:1035A000DC01CB0188199909AA09BB09883E93401F
:1035B000A105B10578F321E0C21AD108E108F108AC
:1035C00088EE880E83E0981EA11CB11CC114D104A2
:1035D000E104F10421F7DECFFF90EF90DF90CF9070
:1035E000BF90AF909F908F9008952FB7F8946091FF
:1035F000A0087091A1088091A2089091A3082FBF04
:1036000008951F920F920FB60F9211242F933F939C
:103610008F939F93AF93BF938091A0089091A1083F
:10362000A091A208B091A30830919F0823E0230F36
:103630002D3720F40196A11DB11D05C026E8230FEA
:103640000296A11DB11D20939F088093A00890931E
:10365000A108A093A208B093A3088091A408909118
:10366000A508A091A608B091A7080196A11DB11DBB
:103670008093A4089093A508A093A608B093A708E8
:10368000BF91AF919F918F913F912F910F900FBE5E
:103690000F901F9018958823E9F0A2E9B7E025E084
:1036A00014969C91149798130DC095E0899FF00192
:1036B0001124EE56F84F848114968C931382128253
:1036C00014820895992331F0299FD0011124AE5618
:1036D000B84FE6CF08950F931F93CF93DF938C01DC
:1036E000EB0160E085E371DE8AE38EBD0DB407FE79
:1036F000FDCF0C0F1D1FC017D10739F01EBC0DB434
:1037000007FEFDCF8EB58993F6CF61E085E3DF91AB
:10371000CF911F910F9159CE0F931F93CF93DF93AA
:103720001F92CDB7DEB7182F062F60E085E34983DF
:103730004CDE802F8F71812B8EBD49810DB407FE29
:10374000FDCF4EBD0DB407FEFDCF61E085E30F90C8
:10375000DF91CF911F910F9138CE1F93CF93DF93BD
:10376000182F1076C12FD0E02091000230E0C21750
:10377000D30779F043E06FE180EACEDFAE0185E068
:10378000559547958A95E1F76FE180E8C5DF10937D
:103790000002DF91CF911F9108951F93CF93DF9384
:1037A0001F921F92CDB7DEB7182F69837A83D5DFBA
:1037B0004981612F80E4B0DF61E0610F7A81472F9A
:1037C00080E40F900F90DF91CF911F91A5CFCF9301
:1037D000DF93C82FD62F60E085E3F7DD8D2F8F7143
:1037E000C82BCEBD0DB407FEFDCF1EBC0DB407FE29
:1037F000FDCFD7FD07C061E085E3E7DD8EB5DF9142
:10380000CF9108951EBC0DB407FEFDCFF4CFCF932A
:10381000C62FBC0182E0C1DF60E085E3D6DD8AE728
:103820008EBD0DB407FEFDCFCEBD0DB407FEFDCF9E
:1038300061E085E3CF91C9CDBC0180E0AEDF60E0FF
:1038400085E3C3DD8AE38EBD0DB407FEFDCF1EBC4C
:103850000DB407FEFDCF61E085E3B7DD8EB50895B9
:10386000CF92DF92EF92FF920F931F93CF93DF934C
:103870006C018B014130510569F4CB01DDDF682F0C
:10388000C601DF91CF911F910F91FF90EF90DF90D4
:10389000CF90BDCFEA01C60FD71F7E0181E0E81AA5
:1038A000F10880E17ADFB60184E177DF0115184085
:1038B00038F4E11488E0F80618F07E0188E0F81A80
:1038C000B70182E16ADF40E16FE180EA25DF40E293
:1038D0006FE180E821DF6FE180E079DF85FF06C0DE
:1038E00061E070E080E090E048DEF5CFDF91CF91BD
:1038F0001F910F91FF90EF90DF90CF900895CF929E
:10390000DF92EF92FF920F931F93CF93DF938C017F
:1039100060919207709193076150784EC12C98E1A5
:10392000D92EE2E9F7E080E0C0E0D0E045E0948104
:10393000992349F0499F900111242E56384FD901FF
:103940002D913C9101C09B01E080F1802E193F092F
:103950000280F381E02D2E1B3F0B2017310739F435
:10396000B5E08B9FE0011124CE56D84F48C0021716
:10397000130748F42C153D0530F4489FE00111244D
:10398000CE56D84F6901911107C02097C1F5C2E901
:10399000D7E085E0D82E1DC0499FF0011124EE56D6
:1039A000F84F892FC4CFEA80FB8028813981E20E4D
:1039B000F31ED89EE0011124CE56D84F688179813C
:1039C000E616F70631F04A815B81C70149DFF982CB
:1039D000E8828C818111E7CF209192073091930783
:1039E00088819981281B390B8A819B81281B390B7F
:1039F0002150384E2017310710F480E01AC091E0B2
:103A0000E7E9F7E022813381232B29F035969F5F88
:103A10009533C1F7F2CF4A815B8128813981240F28
:103A2000351F31832083138302838C8184839C839D
:103A3000892FDF91CF911F910F91FF90EF90DF9031
:103A4000CF900895CF92DF92EF92FF920F931F9342
:103A5000CF93DF937B018A01690125E0829FC0013A
:103A60001124EC01CE56D84F688179816E0D7F1DEF
:103A700082E093DE0A80DB81C02DCE19DF09CC16EF
:103A8000DD0608F4E60160E085E39FDC8AE78EBD91
:103A90000DB407FEFDCFC8018C0F9D1F0817190735
:103AA00041F0F80121918F012EBD0DB407FEFDCF2D
:103AB000F5CF61E085E389DCCE01DF91CF911F91E5
:103AC0000F91FF90EF90DF90CF900895EF92FF92CB
:103AD0000F931F93CF93DF938B017A018F3FC9F030
:103AE00025E0829FE0011124CE56D84F02C0CDE8D8
:103AF000D7E088819981B801680F791F80E04DDE99
:103B00008A819B81801B910BE816F90690F4C7010E
:103B100010C080918D0790918E07860F971F811599
:103B200028E0920720F3BC016F5F7740CDE8D7E033
:103B3000E5CFDF91CF911F910F91FF90EF90089506
:103B400080E090E0089560918B0770918C0761157B
:103B5000710549F061507109611588E0780728F016
:103B600060E070E002C06FEF77E060FF02C061507C
:103B700071098CE012CE0F931F93DB01E42FA80193
:103B800090E0EF3FF9F065E0E69FF0011124EE567A
:103B9000F84F02C0EDE8F7E00190F081E02D2E0F24
:103BA0003F1F65E0689FF001699FF00D1124EE56FC
:103BB000F84F80819181B9018A0F9B1F51DE1F91BF
:103BC0000F91C1CFE0918D07F0918E07E20FF31FA7
:103BD000E11568E0F607F0F29F012F5F3740E1CF73
:103BE0000F931F93CF93DF930091450710914607E2
:103BF000C0914707D09148070F3F8FEF180741F456
:103C0000CF3F9FEFD90721F486E0EBE2F2E021C03D
:103C100010939C0800939B08D0939E08C0939D0826
:103C200080E09BE001C08F5F883071F1989FF001C8
:103C30001124EA53F94F208131810217130799F7B4
:103C400022813381C217D30771F780931E07349600
:103C500086E0A7E2B7E001900D928A95E1F786E051
:103C6000E5E2F2E0ADE2B7E001900D928A95E1F76E
:103C700088E090E090933407809333078091C206E8
:103C80009091C3060E9657C080931E0746E050E001
:103C90006FEF70E087E297E00E940A5386E0E7E466
:103CA000F7E0DF01982F1D929A95E9F7E5E2F2E03F
:103CB000ADE2B7E0982F01900D929A95E1F7E5E219
:103CC000F2E0ADE3B7E0982F01900D929A95E1F7FD
:103CD00010934E0700934D07D0935007C0934F07A2
:103CE000109244071092430710924607109245071E
:103CF00020E031E030933C0720933B0730933607B8
:103D00002093350728E030E03093380720933707B9
:103D10008093390784E080933A0788E096E0909397
:103D20003407809333078DE597E09093C506809321
:103D3000C4068AE290E09093C3068093C206DF91A6
:103D4000CF911F910F910895DC011C96ED91FC918C
:103D50001D97309731F0868197819827892798277A
:103D6000089580E090E00895CF93DF93FC01EB018C
:103D7000AC85BD85109791F012969C911297139681
:103D80008C9113973C9111962C9148EC52E0518301
:103D90004083328323839483858308C088EC92E038
:103DA000918380831282138214821582CF01DF9166
:103DB000CF910895CF93DF931F92CDB7DEB7DC018B
:103DC000ED91FC91048CF58DE02D41E050E0BE01B9
:103DD0006F5F7F4F1995181619061CF4898190E0C2
:103DE00002C08FEF9FEF0F90DF91CF910895CF9397
:103DF000DF931F92CDB7DEB76983DC01ED91FC91B3
:103E00000280F381E02D41E050E0BE016F5F7F4F03
:103E100019950F90DF91CF91089580E00895CF9389
:103E2000DF93EC010E94F135898935DC198ADF9135
:103E3000CF910895CF93DF93EC010E94F1358989EA
:103E4000DF91CF917DCECF93DF93EC010E94F135CE
:103E50008989811120DC8889898B188ADF91CF912B
:103E60006FCE0F931F93CF93DF931F92CDB7DEB723
:103E70008C010E94F135F8018189882381F041E0AD
:103E800050E060E070E022DE8C01BE016F5F7F4F8A
:103E900022DC0130110519F4898190E002C08FEF16
:103EA0009FEF0F90DF91CF911F910F910895CF92C7
:103EB000DF92EF92FF920F931F93CF93DF931F92A6
:103EC0001F92CDB7DEB77C016B0149835A830E94F4
:103ED000F135F701818949815A81882331F160E008
:103EE00070E0F4DD8C01B601F6DBF701D1888D2D91
:103EF00027DE0817190729F48D2DCDDBF701118A6C
:103F000012C085E0D89EF0011124EE56F84F808152
:103F10009181800F911F9183808382819381801B87
:103F2000910B93838283C80102C080E090E00F90E0
:103F30000F90DF91CF911F910F91FF90EF90DF9045
:103F4000CF900895CF93DF93EC018A89882361F0A5
:103F50009A01AB016E857F8575DD2E853F85280F23
:103F6000391F3F872E8702C080E090E0DF91CF911C
:103F70000895CF93DF93DC011C96ED91FC911D9782
:103F8000309799F0EC0115821482128611861D86F5
:103F90001C86898980DB88897EDB8A897CDB2E967A
:103FA00086E0FE0111928A95E9F7DF91CF9108959D
:103FB000CF92DF92EF92FF920F931F93CF93DF93F5
:103FC00000D01F92CDB7DEB78C016B017A010E9441
:103FD000F135F60182819381A481B581892B8A2BE9
:103FE0008B2B41F1E114F10429F1828190E0982FAB
:103FF00088272381822B9827892798279A8389836A
:10400000248130E0322F22274581242B3227232799
:1040100032273C832B83D8011C96ED91FC911D9790
:104020007E2D6F2D309721F1778366839183808376
:1040300033832283D8011C968D919C911D97892BE7
:10404000A1F052968C91811110C086E096E057DC69
:10405000F801828B2AE230E03787268721E090E062
:10406000811101C020E0822F15C080E090E012C0D5
:10407000CE0101960E94A017D8011D969C938E93A5
:104080001C97009791F39801225F3F4FFC01328704
:104090002187D0CF0F900F900F900F90DF91CF918D
:1040A0001F910F91FF90EF90DF90CF9008950F93A5
:1040B0001F93CF93DF93EC018B018C859D85892B1A
:1040C00041F460E070E080E090E00E94A0179D87DE
:1040D0008C87EC85FD85309751F01027012710273C
:1040E000158304832E96D287C18781E001C080E0CA
:1040F000DF91CF911F910F910895CF93DF93EC0142
:104100006FDD2091C2063091C3069091AA082A3231
:10411000310521F41092AB089D7F03C01D821C82E3
:1041200092609093AA08DF91CF910C94B835CF9309
:10413000DF93EC018C859D85892B19F480E090E05C
:1041400023C0EA89EE23D1F381E08B8B8E859F8596
:1041500025E0E29FF0011124EE56F84F938382830D
:104160008C859D859093A8068093A70685E00E9484
:10417000A2108091C2069091C306892BF9F2CE015C
:104180000E96BBDF81E090E0DF91CF9108954F92D2
:104190005F926F927F928F929F92AF92BF92CF92D7
:1041A000DF92EF92FF920F931F93CF93DF93CDB7E0
:1041B000DEB7E5970FB6F894DEBF0FBECDBF7C012A
:1041C0008B016A0188EC92E09A8389831C861B86A6
:1041D00048EE53E060E070E04D875E876F87788B34
:1041E00020E732E03A8729871E8A1D8AFE017796EA
:1041F00026E0DF011D922A95E9F79AA789A71BA659
:104200001CA61DA61EA68091450A9091460AA09163
:10421000470AB091480A8F8F98A3A9A3BAA38B83AA
:104220009C83AD83BE8318861F82F801D8018D91CF
:10423000882331F08E32D9F380538A30C0F34EC0D8
:1042400080E090E020E030E05AE04191442311F119
:10425000243031050CF042C04E3281F48F3F91057D
:1042600009F0E4F5ABE2B0E0AC0FBD1FA20FB31F45
:104270008C932F5F3F4F80E090E0E7CF589FB001D5
:10428000599F700D1124842F440F990BC097860FEE
:10429000971FDBCF8F3F910509F004F524303105DE
:1042A000ECF4FE01E20FF31F83A7D701ED91FC911F
:1042B0000488F589E02D88EC92E09E8F8D8F8BA588
:1042C0009CA5ADA5BEA58F8F98A3A9A3BAA3A6014F
:1042D000BE01635E7F4FC70119950DC24B815C81A2
:1042E0006D817E8180914B0A90914C0AA0914D0A7C
:1042F000B0914E0A481759076A077B0709F4F9C1BC
:1043000074D96F7077277C5FCE010996D0DE81303B
:1043100009F0ECC188EC92E09E8F8D8F8B819C819F
:10432000AD81BE818F8F98A3A9A3BAA345E350E0C6
:10433000BE01635E7F4FCE0109963ADE892B19F4E8
:1043400000E010E0B3C151D978876F8342E050E0BC
:10435000BE01695F7F4FCE010996F4DD81E090E0F8
:104360009E8F8D8F42E050E0BE01635E7F4FCE0195
:104370000996E8DD80E091E09E8F8D8F42E050E06D
:10438000BE01635E7F4FCE010996DCDD1E8E1D8E61
:1043900042E050E0BE01635E7F4FCE010996D2DD60
:1043A00042E050E0BE01635E7F4FCE010996CADD58
:1043B00042E050E0BE01635E7F4FCE010996C2DD50
:1043C0005801F5018081882309F1F8015F0181918D
:1043D000811115C04501801A910A1814190494F42A
:1043E0008FA641E050E0BE01615D7F4FCE0109968E
:1043F000A9DDA401B801CE010996A4DD03C08E3267
:1044000029F7E8CF85010F5F1F4FDBCF1FA641E0E3
:1044100050E0BE01615D7F4FCE01099693DD00E063
:1044200011E01E8F0D8F42E050E0BE01635E7F4FB2
:10443000CE01099687DD1E8F0D8F42E050E0BE0150
:10444000635E7F4FCE0109967DDDCE0109966FDE5A
:10445000892B09F475CF83E0A82EB12CC6D82B0187
:104460003C01CE010996EFDC181619069CF0BDD868
:10447000DC01CB0184199509A609B7098938934154
:10448000A105B10508F001C162E370E080E090E0B1
:1044900074D8E7CF4B805C806D807E80BE01675F03
:1044A0007F4FCE014D9660DC8F8D98A1A9A1BAA156
:1044B000481659066A067B0609F0EAC0CE0109963D
:1044C00043DCC59709F0E4C0CE010996B3DC0C9734
:1044D0000CF4E1C04CE050E0BE01635E7F4FCE01C2
:1044E00009960E940B358F8D98A1982789279827C8
:1044F0009CAB8BAB4F8158852D8D3E8D421753075A
:1045000011F497FD06C0CE01099689DC0CEF1FEF70
:10451000C4C08F709270892B31F0CE0109967FDC78
:104520000BEF1FEFBAC00BA11CA11027012710270A
:104530000115110531F4CE01099671DC0AEF1FEF68
:10454000ACC0812C912C89A19AA198278927982702
:104550008816990648F541E050E0BE01615D7F4F45
:10456000CE0109960E940B358FA5811113C08FA52E
:104570008111F1CFCE0109961DDCCE0109961ADC1E
:10458000CE01099617DCCE01099614DC2FEF821AB2
:10459000920AD9CF8FA59FEF980F9FA7882339F351
:1045A000CE01099607DCF6CF812C912C41E050E03A
:1045B000BE016B5C7F4FCE0109960E940B358DA921
:1045C000982F907C61F4882371F08DA99FEF980F4C
:1045D0009DAB882341F0CE010996ECDBF6CFCE01EE
:1045E0000996E8DB1DAA8DA98111E0CF42E050E0D9
:1045F000BE016F5C7F4FCE0109960E940B3542E0F1
:1046000050E0BE01615D7F4FCE0109960E940B35DF
:10461000CE010996CFDBCE010996CCDBCE010996FF
:10462000C9DBCE010996C6DB42E050E0BE016D5CFD
:104630007F4FCE0109960E940B3589A99AA9811551
:10464000914029F48FA598A981159140C1F1612C61
:10465000712C8BA99CA99827892798276816790619
:1046600038F4CE010996A6DBEFEF6E1A7E0AF1CF81
:10467000FFEF8F1A9F0A8016910609F097CFCE019F
:104680000996CDDB06EF1FEF08C00FEF1FEF05C047
:104690000EEF1FEF02C00DEF1FEF21E0A21AB108CD
:1046A00029F00F3F8FEF180709F4D8CECE010996F5
:1046B00060DC0130110509F4F8CDC8011CC08BA9DC
:1046C0009CA98115944031F0CE010996A8DB07EF33
:1046D0001FEFE3CF44E050E0BE01655D7F4FCE01A8
:1046E00009960E940B3501E010E0D7CF80E090E002
:1046F00002C08EEF9FEFE5960FB6F894DEBF0FBEB7
:10470000CDBFDF91CF911F910F91FF90EF90DF9080
:10471000CF90BF90AF909F908F907F906F905F9061
:104720004F900895FF920F931F93CF93DF93E091E3
:10473000A706F091A806C185D285209709F44EC03E
:104740008091A90681FF2EC0FA80F1102BC08091C4
:10475000490790914A0797838683809141079091FA
:10476000420791838083809143079091440793830C
:10477000828380914D0790914E079827892798272B
:10478000089711F0BCD8F82EFA82FF2059F08F2D2F
:10479000D7D98C012AE230E04091A90860E070E0AE
:1047A0008F2DE9D98091A90683FF18C08D818823B8
:1047B000A9F08C818093AB088AE28093A808688175
:1047C00079816A5271098091C4069091C506DF9182
:1047D000CF911F910F91FF900C948E10DF91CF918C
:1047E0001F910F91FF900895EF92FF920F931F93E7
:1047F000CF93DF93C82FE0903807F12C84E1E81ABB
:10480000F1082091370730E0322F2227E20EF31E05
:1048100048E050E061E477E0C7018C0F911D0E94F1
:104820008335C13131F0C0915507C695C695CC731B
:1048300001C0C8E0D0E0AE0169E477E00E948335B2
:104840008C01CE15DF0508F04BC0A7014C1B5D0B9A
:10485000BE016E5D7F4F8091AB0838D9EC01219786
:1048600060E085E30E94E5198AE38EBD0DB407FE82
:10487000FDCFA80160E070E06C177D07C8F41EBC96
:104880000DB407FEFDCF2EB530E0322F22271EBC1F
:104890000DB407FEFDCF8EB5280F311D420F531FFB
:1048A0004217530710F44F5F5F4F6E5F7F4FE4CFA7
:1048B0008A016C177D0781F41EBC0DB407FEFDCF85
:1048C0008EB590E0982F88278A01080F191F0817C6
:1048D000190710F40F5F1F4F61E085E30E94E5198F
:1048E0000115110519F0902F812F02C08FEF9FEF56
:1048F000DF91CF911F910F91FF90EF900895EF926C
:10490000FF920F931F93DC01ED91FC910288F389D4
:10491000E02D780101E010E019951F910F91FF90B3
:10492000EF900895EF92FF920F931F93DC01ED91AA
:10493000FC910288F389E02D7801890121E030E0C3
:1049400019951F910F91FF90EF90089508952F9260
:104950003F924F925F926F927F928F929F92AF920F
:10496000BF92CF92DF92EF92FF920F931F93CF935C
:10497000DF93CDB7DEB72D970FB6F894DEBF0FBE2D
:10498000CDBF9D878C876A30A1F4DC0154962C91B1
:1049900054971E968D919C911F97B8E02B9F800D88
:1049A000911D1124EC85FD859787868715861486D1
:1049B000FBC06D3009F4F8C0AC85BD855496BC9140
:1049C000B983EC85FD850288F389E02DFD83EC83B6
:1049D000AC85BD8550960D90BC91A02DBF83AE8354
:1049E000EC85FD8586849784C484D58480859185F3
:1049F000C816D906C4F0AC85BD8554964C91549721
:104A0000242F30E01C968D919C911D97B6E04B9F12
:104A1000800D911D1124EC85FD859587848746893D
:104A200041119EC0C1C0AC85BD851A968D919C91E7
:104A30001B9788169906FCF6B981AB2EB12CC601DE
:104A4000E6E0BE9F800D911D1124181619069CF6F4
:104A5000C50123E0880F991F2A95E1F7880D991D5C
:104A60001816190644F6AC85BD8557968C918111B0
:104A700003C0603B08F06F5FB5E06B9FB00111248D
:104A800016011A82FB01EC19FD09F987E8879401E8
:104A9000285F3F4F3B872A873A81353049F0E885C8
:104AA000F985E20DF31DE156FC4F54915B8301C083
:104AB0001B82240134018B8180FF13C0AC85BD852E
:104AC000ED91FC91B981B13031F40084F185E02D94
:104AD0002E813F8119C00288F389E02DEE80FF808E
:104AE0001EC0EC81FD812E813F81E217F307F1F0BA
:104AF000AC85BD85ED91FC91B981B13059F400844C
:104B0000F185E02D2C813D81A301B1018C859D852E
:104B100019950CC00288F389E02DEC80FD80850199
:104B20009501A201B6018C859D851995EB81E695CD
:104B3000EB83FFEF6F1A7F0A4A0C5B1C2A853B85CB
:104B40006216730609F0B7CF3A813F5F3A835FEF91
:104B5000251A350ACA0CDB1C363009F09DCF4BCF25
:104B60004AEF4203B001439F700D1124AC85BD850F
:104B700018964D915C911997460F571F4817590782
:104B80009CF483E0220F331F8A95E1F71E968D91E6
:104B90009C911F97280F391F1F963C932E931E97A9
:104BA0001D961C921E921C9781E090E02D960FB6E8
:104BB000F894DEBF0FBECDBFDF91CF911F910F9153
:104BC000FF90EF90DF90CF90BF90AF909F908F902D
:104BD0007F906F905F904F903F902F900895EF924D
:104BE000FF920F931F93DC01ED91FC9111971A96A0
:104BF0000D911C911B9718962D913C911997028845
:104C0000F389E02D7B0140E050E060E070E0199511
:104C10001F910F91FF90EF9008956F927F928F9266
:104C20009F92AF92BF92CF92DF92EF92FF920F933B
:104C30001F93CF93DF936C015A014801EB013B01B5
:104C4000620E731EC615D70574F4D601ED91FC9162
:104C50000484F585E02D87019401A501BE01C601FC
:104C600019952196EFCFDF91CF911F910F91FF9072
:104C7000EF90DF90CF90BF90AF909F908F907F90FC
:104C80006F900895EF92FF920F931F93DC01ED91C7
:104C9000FC91260F371F215031090284F385E02D46
:104CA00078018A0119951F910F91FF90EF90089557
:104CB000EF92FF920F931F937801DC01ED91FC912D
:104CC000240F351F8901015011090284F385E02D5D
:104CD0009B0119951F910F91FF90EF9008956F928E
:104CE0007F928F929F92AF92BF92CF92DF92EF927C
:104CF000FF920F931F93CF93DF93EC014B015A0167
:104D000069013801E881F9810684F785E02D870182
:104D10001995E881F981A501460D571D41505109AA
:104D20000684F785E02D9601B401CE011995E8813E
:104D3000F9810484F585E02D9301A501B401CE012C
:104D40001995E881F981C80CD91CB6016150710927
:104D50000484F585E02D9301A501CE011995DF911D
:104D6000CF911F910F91FF90EF90DF90CF90BF9068
:104D7000AF909F908F907F906F9008952F923F9269
:104D80004F925F926F927F928F929F92AF92BF925B
:104D9000CF92DF92EF92FF920F931F93CF93DF9307
:104DA00000D0CDB7DEB74C017B836A836A0159011D
:104DB00017019801241B350B37FF03C0319521954E
:104DC0003109C5014A815B81841B950B97FF03C0A4
:104DD00091958195910951E059838217930714F0B9
:104DE00019820BC09A2D8B2D5801092F182F9A81EB
:104DF0008B81DB82CA82C92ED82E8A819B81A8161C
:104E0000B9065CF49C2D8D2D6801092F182F9A810D
:104E10008B81BB82AA82A92EB82E2501AA81BB81D3
:104E20004A1A5B0A38016C187D0877FE03C071943A
:104E300061947108720157FE03C0BFEFEB1AFB0AC1
:104E4000F594E794C016D1061CF00FEF1FEF1FC0BA
:104E500001E010E01CC0D401ED91FC91B981008407
:104E6000F185E02D9101BB23C1F04A815B81B60140
:104E7000C4011995E618F708F7FE04C0C00ED11E4C
:104E8000E40CF51CEA81FB813196FB83EA834A81BD
:104E90005B81A416B506FCF604C0A6016A817B817D
:104EA000E7CF0F900F900F90DF91CF911F910F914F
:104EB000FF90EF90DF90CF90BF90AF909F908F903A
:104EC0007F906F905F904F903F902F90089585ED69
:104ED0008093BC008091BC0084FDFCCF1092390906
:104EE00008950895E091F5058091F405E81730F4F0
:104EF000F0E0E455F74F808190E008958FEF9FEF49
:104F000008959091F5058091F405981750F4E92FD4
:104F1000F0E0E455F74F208130E09F5F9093F50576
:104F200002C02FEF3FEFC90108958091F40590E092
:104F30002091F505821B91090895CF93DF938B98FB
:104F40008A98E0910201292F3327E901C07CDD27EF
:104F5000F3E0D595C795FA95E1F7D901A370BB2782
:104F6000D5E0AA0FBB1FDA95E1F77C2F7A2BE77803
:104F70007E2B7093020175B1F901EC72FF27EE0FE1
:104F8000FF1FEE0FFF1F7F74E72BE5B974B320718D
:104F90003327220F331F372F3F7D232B24BB8998C4
:104FA000899A30910201DC01A07CBB27C3E0B59552
:104FB000A795CA95E1F7FC01E370FF27D5E0EE0F56
:104FC000FF1FDA95E1F72A2F2E2B3778232B20931A
:104FD000020175B19C012C723327220F331F220F5F
:104FE000331F372F3F74232B25B974B39C012071D5
:104FF0003327220F331F372F3F7D232B24BB899864
:10500000899A8A9AFA017FEF760F16160CF094C0EF
:10501000219140910201322F307C3695369536959C
:10502000522F537060E2569FD00111243A2B4778DB
:10503000342B3093020165B1322F3C72A4E03A9FC9
:10504000A0011124362F3F74432B45B934B320718E
:10505000220F3F7D232B24BB8998899A772309F45B
:1050600069C02091F705222309F464C001968A984B
:1050700050910201292F3327E901C07CDD2743E04D
:10508000D595C7954A95E1F7D901A370BB2765E08F
:10509000AA0FBB1F6A95E1F74C2F4A2B5778452B77
:1050A0004093020165B1A9014C725527440F551F69
:1050B000440F551F562F5F74452B45B944B32071DB
:1050C0003327220F331F342F3F7D232B24BB899896
:1050D000899A30910201DC01A07CBB27C3E0B59521
:1050E000A795CA95E1F7AC0143705527D5E0440F69
:1050F000551FDA95E1F72A2F242B3778232B20939D
:10510000020145B19C012C723327220F331F220F5D
:10511000331F342F3F74232B25B944B39C012071D6
:105120003327220F331F342F3F7D232B24BB899835
:10513000899A8A9A672F67CF8B9ADF91CF910895CA
:10514000CF93DF938B988A98E2E0F1E05081292F8A
:105150003327E901C07CDD2743E0D595C7954A9503
:10516000E1F7D901A370BB27D5E0AA0FBB1FDA95E1
:10517000E1F74C2F4A2B5778452B4083A5B1A90165
:105180004C725527440F551F440F551F5A2F5F74FB
:10519000452B45B944B320713327220F331F342FD9
:1051A0003F7D232B24BB8998899A3081DC01A07C28
:1051B000BB27D3E0B595A795DA95E1F7AC0143702D
:1051C000552725E0440F551F2A95E1F72A2F242B58
:1051D0003778232B208345B19C012C723327220F73
:1051E000331F220F331F342F3F74232B25B924B3D1
:1051F00080719927880F991F922F9F7D892B84BBDF
:105200008998899A8A9A3081872F9927DC01A07C16
:10521000BB27C3E0B595A795CA95E1F7AC014370EC
:105220005527D5E0440F551FDA95E1F72A2F242B97
:105230003778232B208345B19C012C723327220F12
:10524000331F220F331F342F3F74232B25B924B370
:1052500080719927880F991F922F9F7D892B84BB7E
:105260008998899A9081AB01407C5527B3E0559588
:105270004795BA95E1F79B0123703327C5E0220FCC
:10528000331FCA95E1F7842F822B9778892B80836F
:1052900025B1CB018C729927880F991F880F991F10
:1052A000922F9F74892B85B984B360717727660F1D
:1052B000771F8F7D682B64BB8998899A8B9ADF91C1
:1052C000CF9108951F920F920FB60F9211240BB633
:1052D0000F922F933F934F935F936F937F938F938F
:1052E0009F93AF93BF93EF93FF938091B900887F13
:1052F000803609F49CC068F5883209F45BC090F4EC
:10530000803109F454C038F4882309F4F6C0883099
:1053100009F44DC0F5C0883109F44CC0803209F45D
:105320005DC0EEC0803409F468C048F4803309F4ED
:1053300055C0883309F0E4C080933709D8C0803560
:1053400009F44FC0883509F45DC0883409F0D8C02D
:10535000D6C0883909F4C7C0A8F4883709F467C0F3
:1053600038F4883609F463C0803709F460C0C8C0D7
:10537000883809F4B8C0803909F45FC0803809F072
:10538000BFC05BC0803B09F486C038F4803A09F4A2
:1053900066C0883A09F47FC0B3C0803C09F4A7C056
:1053A000883C09F4A4C0883B09F48AC0A9C0809154
:1053B000140910C09091360980913509981770F53D
:1053C000E091360981E08E0F80933609F0E0EB5EC4
:1053D000F64F80818093BB0085EC86C080933709AF
:1053E0008EC0E091360981E08E0F8093360980915E
:1053F000BB00F0E0EB5EF64F808390913609809120
:1054000035096EC0E091360981E08E0F8093360930
:105410008091BB00F0E0EB5EF64F8083809138090D
:1054200081116DC081E08093130984EA61C083E03B
:105430008093390910921209CFCF809112098032DE
:1054400008F051C0E091120981E08E0F809312099B
:105450008091BB00F0E0EE50F74F8083BDCF85EC2C
:105460008093BC001092390980911209803230F487
:10547000E0911209F0E0EE50F74F108260911209AE
:1054800070E0E091F008F091F10882EF98E0199552
:105490001092120935C084E0809339091092EF0808
:1054A0001092EE08E091EC08F091ED0819958091CA
:1054B000EE08811105C081E08093EE081092CC08BF
:1054C000E091EF0881E08E0F8093EF08F0E0E45365
:1054D000F74F80818093BB009091EF088091EE0898
:1054E000981708F479CF85E88093BC0009C085EC53
:1054F0008093BC001092390903C010923709E7DC91
:10550000FF91EF91BF91AF919F918F917F916F919B
:105510005F914F913F912F910F900BBE0F900FBE57
:105520000F901F9018954091EE08262F30E0240F21
:10553000311D21323105DCF4209139092430C9F4C0
:10554000FC0180E090E0861758F43091EE0821913C
:10555000DC01A453B74FA30FB11D2C930196F3CFD9
:105560008091EE08680F6093EE0880E0089581E076
:10557000089582E00895CF92DF92EF92FF920F9309
:105580001F93CF93DF937C01262F972F8A01809161
:105590003A09882391F0C62FD72F6E01C40ED51E6D
:1055A000CC15DD0569F06991D701ED91FC91019071
:1055B000F081E02DC7011995F3CF642F822FB3DF5F
:1055C000C801DF91CF911F910F91FF90EF90DF9075
:1055D000CF9008950F931F93CF93DF93EC018881B1
:1055E0009981009729F02A813B812617370788F493
:1055F0008B016F5F7F4F0E941952009761F0998372
:1056000088831B830A832C813D81232B11F4FC01A9
:10561000108281E001C080E0DF91CF911F910F9156
:105620000895EF92FF920F931F93CF93DF93FC01A6
:10563000248135816115710511F480E018C0411590
:105640005105A1F07B01EC018A01020F131FB80183
:10565000C1DF882391F3288139818C819D81B70135
:10566000820F931F0E9411531D830C8381E0DF91F1
:10567000CF911F910F91FF90EF900895CF93DF93FB
:10568000EC0188819981009711F00E948151198263
:1056900018821D821C821B821A82DF91CF9108958D
:1056A000EEE5F9E0A089B18982E08C93A485B58507
:1056B0001C92A685B7858FEC8C93108EA489B58932
:1056C00086E08C93A289B3898C9180618C93A289A6
:1056D000B3898C9188608C93A289B3898C918068FE
:1056E0008C930288F389E02D80818F7D80830895DB
:1056F0004F925F926F927F928F929F92AF92BF92E2
:10570000CF92DF92EF92FF92CF93DF93EC016A0189
:105710007B019A01AB01C701B6010E94B9508823F1
:1057200019F067EE75E01AC046015701E894B7F822
:105730002FEF3FEF4FE75FE7C501B4010E94B9507B
:10574000811111C02FEF3FEF4FE75FE7C501B401B3
:105750000E94514E18163CF46BEE75E0CE010E948B
:1057600042387C0185C02FEF3FEF4FE75FE4C70170
:10577000B6010E94B55018161CF46FEE75E0EECF1E
:105780002FEF3FEF4FE75FECC701B6010E94514E8C
:1057900087FDF3CF20E030E0A901C701B6010E94E8
:1057A000514E87FF0AC06DE2CE010E942D385C0188
:1057B000F7FAF094F7F8F09402C0A12CB12C2AE08B
:1057C00037ED43EA5BE3C701B6010E94B84F2B01F6
:1057D0003C010E9489506B017C010E94554E9B0147
:1057E000AC01C301B2010E94B74F2B013C012AE07A
:1057F000B701A601CE010E9457387C01EA0CFB1CC0
:105800006EE2CE010E942D38E80EF91E20E030E055
:1058100040E251E4C301B2010E94B64E2B013C01AB
:105820000E9489504B01A12CB12C2AE0B501A401A2
:10583000CE010E945738E80EF91EC501B4010E943E
:10584000554E9B01AC01C301B2010E94B74F20E04D
:1058500030E040E251E40E94B64E0E948950AB0114
:1058600060E070E02AE0CE010E945738E80EF91E91
:1058700069EE72E0CE010E9442388E0D9F1DDF91CD
:10588000CF91FF90EF90DF90CF90BF90AF909F901F
:105890008F907F906F905F904F9008952F923F92DE
:1058A0004F925F926F927F928F929F92AF92BF9230
:1058B000CF92DF92EF92FF920F931F93CF93DF93DC
:1058C000CDB7DEB7AC970FB6F894DEBF0FBECDBF35
:1058D0009C838B837B016A0159014617570784F427
:1058E0008D2D261737070CF0BAC169015B01E42E34
:1058F000F82E22E231E03CA72BA764E571E00FC04F
:10590000241735070CF055C09C2D8D2D6501A92E4F
:10591000B82E44E551E05CA74BA762E271E036E89F
:10592000232E33243394CE14DF040CF0A5C19E2D16
:105930008F2D7601C92ED82E9BA58CA5A6E8B1E0A7
:10594000BCA7ABA7292E382EEA14FB0409F03FC0F0
:10595000B6E82B16B1E03B066CF09BA58CA5EBA539
:10596000FCA5E215F30514F4922D832D2BA43CA481
:105970009BA78CA76215730544F02BA53CA52617A1
:10598000370714F47CA76BA7B101AB81BC81ED9103
:10599000FC9111972BA53CA5261B370B2F5F3F4F82
:1059A0000684F785E02D0FEF1FEFA701CD011995B4
:1059B00071C166E871E0E216F30609F462C184E59C
:1059C00091E09CA78BA722E2222E33243394C101BD
:1059D000EBA5FCA58E1B9F0B96012E193F09AB0171
:1059E0004E1B5F0B5E834D83D501AE19BF09BA878D
:1059F000A987FB01E219F309FE87ED87A5014C1980
:105A00005D095E8B4D8BCA14DB0431F0B601615029
:105A100071097A8F698F02C0DA8EC98E4701412CD5
:105A2000512C3201198A1A8A1B8A1C8AA901330F48
:105A3000660B770B4B8F5C8F6D8F7E8F29853A8538
:105A4000032E000C440B550B2F8F38A349A35AA3E8
:105A5000AC01990F660B770B4BA35CA36DA37EA3E0
:105A60006D817E81072E000C880B990B6FA378A7A0
:105A700089A79AA7698D7A8D681579050CF458C0A5
:105A800069897A898B899C892B8D3C8D4D8D5E8DA2
:105A90000E948C4F8BA59CA5820F931F9A838983AC
:105AA000C301B2012F8D38A149A15AA10E948C4F88
:105AB000ABA5BCA52A0F3B1F49895A896B897C89F4
:105AC0008BA19CA1ADA1BEA1480F591F6A1F7B1FCE
:105AD000498B5A8B6B8B7C8B4FA158A569A57AA5F6
