:1000000050C400007FC400007DC400007BC4000019
:1000100079C4000077C4000075C4000073C40000F8
:1000200071C400006FC400006DC400006BC4000008
:1000300069C4000067C4000065C4000063C4000018
:1000400061C400005FC400005DC400005BC4000028
:1000500059C4000057C4000055C400000C94021796
:1000600051C400000C94B0150C9487154BC40000CB
:1000700049C4000047C4000045C4000043C4000058
:1000800041C400003FC400003DC400003BC4000068
:1000900039C4000037C4000035C400000C940D0AB8
:1000A00031C400002FC400002DC400002BC4000088
:1000B00029C4000027C4000025C4000023C4000098
:1000C00021C400001FC400001DC400001BC40000A8
:1000D00019C4000017C4000015C4000013C40000B8
:1000E00011C4000016112E11A6119812B812D812C0
:1000F000E0128D121516181607160B160F164F164E
:100100001C16201626162A162E16341638163C16DD
:100110004F16421646164A1600407A10F35A00A0AF
:10012000724E18090010A5D4E80000E876481700C0
:1001300000E40B54020000CA9A3B000000E1F50500
:10014000000080969800000040420F000000A0864A
:1001500001000000102700000000E803000000007C
:100160006400000000000A00000000000100000020
:1001700000002C76D888DC674F0823DFC1DFAE593A
:10018000E1B1B796E5E3E453C63AE651997696E8CD
:10019000E6C28426EB898C9B62ED407C6FFCEFBC51
:1001A0009C9F40F2BAA56FA5F490055A2AF75C937C
:1001B0006B6CF9676DC11BFCE0E40D47FEF520E6B2
:1001C000B500D0ED902E0300943577050080841E95
:1001D000080000204E0A000000C80C333333330FF0
:1001E000986E12831141EF8D2114893BE65516CF8D
:1001F000FEE6DB18D1844B381BF77C1D901DA4BB99
:10020000E424203284725E228100C9F124ECA1E54D
:100210003D27E50110E70110E80148EC0109ED0177
:100220006C23016F240157250171E201181B011590
:100230000101001C01031901017F051F018C1F0131
:10024000847F0A1F01947F0A1F01D47F05400D009F
:100250002B293E3D3F24740806070D17500D000260
:100260000116143F0B5B08121819175D01FF1601E8
:10027000082801207F282801387F2828013C020215
:100280000000040200EF060200000802018F800255
:10029000000082020000170105000022002500284E
:1002A000002B002E0031003400020100000501087F
:1002B000010B0101021020200808102040102040EE
:1002C000800201020108040201010204081020401A
:1002D0008080402010080402018004020180402038
:1002E0001008040201080402010102040810204061
:1002F0008001020408102040800505050507050857
:10030000080808020202020A0A0808040404040198
:1003100001010101010101030303030303030304BA
:100320000707070C0C0C0C0C0C0C0C02020202064A
:10033000060606060606060B0B0B0B0B0B0B0B003B
:10034000000000003E5B4F5B3E3E6B4F6B3E1C3E31
:100350007C3E1C183C7E3C181C577D571C1C5E7F45
:100360005E1C00183C1800FFE7C3E7FF00182418C4
:1003700000FFE7DBE7FF30483A060E2629792926F9
:10038000407F050507407F05253F5A3CE73C5A7FE3
:100390003E1C1C08081C1C3E7F14227F22145F5F39
:1003A000005F5F06097F017F006689956A60606073
:1003B000606094A2FFA29408047E040810207E20AE
:1003C0001008082A1C08081C2A08081E1010101003
:1003D0000C1E0C1E0C30383E3830060E3E0E060049
:1003E0000000000000005F00000007000700147F0D
:1003F000147F14242A7F2A12231308646236495674
:1004000020500008070300001C2241000041221C6C
:10041000002A1C7F1C2A08083E0808008070300053
:100420000808080808000060600020100804023E68
:100430005149453E00427F400072494949462141A9
:10044000494D331814127F1027454545393C4A4918
:100450004931412111090736494949364649492957
:100460001E00001400000040340000000814224167
:100470001414141414004122140802015909063EF0
:10048000415D594E7C1211127C7F494949363E41EB
:100490004141227F4141413E7F494949417F09090C
:1004A00009013E414151737F0808087F00417F41A7
:1004B000002040413F017F081422417F40404040DE
:1004C0007F021C027F7F0408107F3E4141413E7F36
:1004D000090909063E4151215E7F0919294626492D
:1004E00049493203017F01033F4040403F1F204004
:1004F000201F3F4038403F6314081463030478040E
:10050000036159494D43007F4141410204081020D5
:10051000004141417F04020102044040404040004C
:100520000307080020545478407F28444438384456
:10053000444428384444287F385454541800087ED2
:10054000090218A4A49C787F0804047800447D4024
:10055000002040403D007F1028440000417F4000C3
:100560007C047804787C080404783844444438FCDB
:100570001824241818242418FC7C0804040848545F
:1005800054542404043F44243C4040207C1C20401C
:10059000201C3C4030403C44281028444C90909013
:1005A0007C4464544C44000836410000007700004D
:1005B000004136080002010204023C2623263C1EAC
:1005C000A1A161123A4040207A385454555921551E
:1005D000557941225454784221555478402054553D
:1005E00079400C1E5272123955555559395454548C
:1005F0005939555454580000457C410002457D420C
:100600000001457C407D1211127DF0282528F07CE8
:10061000545545002054547C547C0A097F49324982
:100620004949323A4444443A324A4848303A4141CE
:10063000217A3A42402078009DA0A07D3D4242426E
:100640003D3D4040403D3C24FF2424487E494366D4
:100650002B2FFC2F2BFF0929F620C0887E090320B1
:10066000545479410000447D413048484A32384072
:1006700040227A007A0A0A727D0D19317D262929D5
:100680002F28262929292630484D402038080808D7
:100690000808080808382F10C8ACBA2F102834FAF8
:1006A00000007B000008142A142222142A14085582
:1006B00000550055AA55AA55AAFF55FF55FF000041
:1006C00000FF00101010FF00141414FF001010FFA2
:1006D00000FF1010F010F0141414FC001414F700B4
:1006E000FF0000FF00FF1414F404FC141417101F83
:1006F00010101F101F1414141F00101010F0000011
:1007000000001F101010101F10101010F01000002B
:1007100000FF101010101010101010FF100000003B
:10072000FF140000FF00FF00001F10170000FC0472
:10073000F414141710171414F404F40000FF00F755
:1007400014141414141414F700F7141414171410B8
:10075000101F101F141414F4141010F010F00000E7
:100760001F101F0000001F14000000FC140000F008
:1007700010F01010FF10FF141414FF141010101FAD
:1007800000000000F010FFFFFFFFFFF0F0F0F0F0BE
:10079000FFFFFF0000000000FFFF0F0F0F0F0F38DB
:1007A00044443844FC4A4A4A347E02020606027E29
:1007B000027E0263554941633844443C04407E2034
:1007C0001E2006027E020299A5E7A5991C2A492A45
:1007D0001C4C7201724C304A4D4D303048784830D4
:1007E000BC625A463D3E494949007E0101017E2ACC
:1007F0002A2A2A2A44445F444440514A44404044FF
:100800004A51400000FF0103E080FF000008086B30
:100810006B083612362436060F090F06000018182A
:100820000000001010003040FF0101001F01011EF8
:1008300000191D1712003C3C3C3C00000000000069
:10084000002100240027002A002D00300033000181
:10085000010000040107010A0100000A0B02090C53
:100860000D0E080703040100000000000000000056
:100870000000000000000000000000000000000078
:100880000000000000121110000000000000000035
:100890000000000000000000000000000000000058
:1008A000D53911241FBECFEFD1E2DEBFCDBF00E0AE
:1008B0000CBF14E0A0E0B2E0E2E0F4E800E00BBF1F
:1008C00002C007900D92A63FB107D9F72AE0A6EF24
:1008D000B4E001C01D92A232B207E1F714E0C1E515
:1008E000D4E000E006C021970109802FFE010E949C
:1008F000CB3FC035D10780E00807A9F70E94922DB1
:100900000C94FF417DCBEF92FF920F931F93DC017C
:10091000ED91FC910288F389E02D780101E010E06F
:1009200019951F910F91FF90EF900895EF92FF920C
:100930000F931F93DC01ED91FC910288F389E02D68
:100940007801890121E030E019951F910F91FF9006
:10095000EF90089508952F923F924F925F926F9279
:100960007F928F929F92AF92BF92CF92DF92EF923F
:10097000FF920F931F93CF93DF93CDB7DEB72D97E1
:100980000FB6F894DEBF0FBECDBF9D878C876A304F
:10099000A1F4DC0154962C9154971E968D919C9154
:1009A0001F97B8E02B9F800D911D1124EC85FD85CC
:1009B0009787868715861486FBC06D3009F4F8C0CA
:1009C000AC85BD855496BC91B983EC85FD850288C4
:1009D000F389E02DFD83EC83AC85BD8550960D90A9
:1009E000BC91A02DBF83AE83EC85FD858684978462
:1009F000C484D58480859185C816D906C4F0AC8599
:100A0000BD8554964C915497242F30E01C968D91BF
:100A10009C911D97B6E04B9F800D911D1124EC8594
:100A2000FD8595878487468941119EC0C1C0AC85EC
:100A3000BD851A968D919C911B9788169906FCF698
:100A4000B981AB2EB12CC601E6E0BE9F800D911D91
:100A50001124181619069CF6C50123E0880F991F6A
:100A60002A95E1F7880D991D1816190644F6AC85EC
:100A7000BD8557968C91811103C0603B08F06F5F74
:100A8000B5E06B9FB001112416011A82FB01EC192D
:100A9000FD09F987E8879401285F3F4F3B872A8744
:100AA0003A81353049F0E885F985E20DF31DE15CC6
:100AB000FC4F54915B8301C01B82240134018B8164
:100AC00080FF13C0AC85BD85ED91FC91B981B1303B
:100AD00031F40084F185E02D2E813F8119C0028818
:100AE000F389E02DEE80FF801EC0EC81FD812E8118
:100AF0003F81E217F307F1F0AC85BD85ED91FC91E4
:100B0000B981B13059F40084F185E02D2C813D810B
:100B1000A301B1018C859D8519950CC00288F389CC
:100B2000E02DEC80FD8085019501A201B6018C8548
:100B30009D851995EB81E695EB83FFEF6F1A7F0A90
:100B40004A0C5B1C2A853B856216730609F0B7CFF9
:100B50003A813F5F3A835FEF251A350ACA0CDB1CE6
:100B6000363009F09DCF4BCF4AEF4203B001439F8F
:100B7000700D1124AC85BD8518964D915C91199727
:100B8000460F571F481759079CF483E0220F331F65
:100B90008A95E1F71E968D919C911F97280F391F1A
:100BA0001F963C932E931E971D961C921E921C9787
:100BB00081E090E02D960FB6F894DEBF0FBECDBF5A
:100BC000DF91CF911F910F91FF90EF90DF90CF9029
:100BD000BF90AF909F908F907F906F905F904F905D
:100BE0003F902F900895EF92FF920F931F93DC0197
:100BF000ED91FC9111971A960D911C911B971896E7
:100C00002D913C9119970288F389E02D7B0140E0FA
:100C100050E060E070E019951F910F91FF90EF9008
:100C200008956F927F928F929F92AF92BF92CF92D0
:100C3000DF92EF92FF920F931F93CF93DF936C019C
:100C40005A014801EB013B01620E731EC615D70520
:100C500074F4D601ED91FC910484F585E02D8701B3
:100C60009401A501BE01C60119952196EFCFDF9130
:100C7000CF911F910F91FF90EF90DF90CF90BF9099
:100C8000AF909F908F907F906F900895EF92FF921A
:100C90000F931F93DC01ED91FC91260F371F21501C
:100CA00031090284F385E02D78018A0119951F919D
:100CB0000F91FF90EF900895EF92FF920F931F9383
:100CC0007801DC01ED91FC91240F351F8901015061
:100CD00011090284F385E02D9B0119951F910F9155
:100CE000FF90EF9008956F927F928F929F92AF92B4
:100CF000BF92CF92DF92EF92FF920F931F93CF9309
:100D0000DF93EC014B015A0169013801E881F98157
:100D10000684F785E02D87011995E881F981A50101
:100D2000460D571D415051090684F785E02D960167
:100D3000B401CE011995E881F9810484F585E02D8F
:100D40009301A501B401CE011995E881F981C80C80
:100D5000D91CB601615071090484F585E02D930119
:100D6000A501CE011995DF91CF911F910F91FF90B1
:100D7000EF90DF90CF90BF90AF909F908F907F903B
:100D80006F9008952F923F924F925F926F927F9251
:100D90008F929F92AF92BF92CF92DF92EF92FF928B
:100DA0000F931F93CF93DF9300D0CDB7DEB74C01E5
:100DB0007B836A836A01590117019801241B350B53
:100DC00037FF03C0319521953109C5014A815B8107
:100DD000841B950B97FF03C091958195910951E074
:100DE00059838217930714F019820BC09A2D8B2D0B
:100DF0005801092F182F9A818B81DB82CA82C92E54
:100E0000D82E8A819B81A816B9065CF49C2D8D2D65
:100E10006801092F182F9A818B81BB82AA82A92E83
:100E2000B82E2501AA81BB814A1A5B0A38016C18C9
:100E30007D0877FE03C0719461947108720157FEBA
:100E400003C0BFEFEB1AFB0AF594E794C016D10676
:100E50001CF00FEF1FEF1FC001E010E01CC0D40119
:100E6000ED91FC91B9810084F185E02D9101BB23C6
:100E7000C1F04A815B81B601C4011995E618F708F3
:100E8000F7FE04C0C00ED11EE40CF51CEA81FB8104
:100E90003196FB83EA834A815B81A416B506FCF692
:100EA00004C0A6016A817B81E7CF0F900F900F905D
:100EB000DF91CF911F910F91FF90EF90DF90CF9036
:100EC000BF90AF909F908F907F906F905F904F906A
:100ED0003F902F90089585ED8093BC008091BC00D9
:100EE00084FDFCCF10927F08089540914705262F7E
:100EF00030E0240F311D21323105DCF420917F08D0
:100F00002430C9F4FC0180E090E0861758F4309159
:100F100047052191DC01AB5DBA4FA30FB11D2C93A6
:100F20000196F3CF80914705680F6093470580E0F5
:100F3000089581E0089582E008950895E091F7040E
:100F40008091F604E81730F4F0E0EB5FFA4F80810F
:100F500090E008958FEF9FEF08959091F7048091AE
:100F6000F604981750F4E92FF0E0EB5FFA4F208178
:100F700030E09F5F9093F70402C02FEF3FEFC9016D
:100F800008958091F60490E02091F704821B910966
:100F90000895CF92DF92EF92FF920F931F93CF931A
:100FA000DF937C01262F972F8A0180918008882368
:100FB00091F0C62FD72F6E01C40ED51ECC15DD05BE
:100FC00069F06991D701ED91FC910190F081E02DDC
:100FD000C7011995F3CF642F822F87DFC801DF91F6
:100FE000CF911F910F91FF90EF90DF90CF900895D8
:100FF000CF93DF931F92CDB7DEB76983209180082E
:101000002223D1F02091A308203240F021E030E0EB
:10101000FC013383228380E090E014C0809181083A
:10102000E82FF0E0EE57F74F998190838F5F809320
:1010300081088093A30804C061E0CE01019655DFCA
:1010400081E090E00F90DF91CF910895089580E0C6
:1010500090E00895EF92FF920F931F93DC01ED91C2
:10106000FC9111971A960D911C911B9718962D9132
:101070003C9119970288F389E02D7B0140E050E014
:1010800060E070E019951F910F91FF90EF90089527
:10109000CF93DF938B988A98E0910201292F332711
:1010A000E901C07CDD27F3E0D595C795FA95E1F716
:1010B000D901A370BB27D5E0AA0FBB1FDA95E1F7D2
:1010C0007C2F7A2BE7787E2B7093020175B1F901A2
:1010D000EC72FF27EE0FFF1FEE0FFF1F7F74E72B51
:1010E000E5B974B320713327220F331F372F3F7DAB
:1010F000232B24BB8998899A30910201DC01A07CC2
:10110000BB27C3E0B595A795CA95E1F7FC01E3704D
:10111000FF27D5E0EE0FFF1FDA95E1F72A2F2E2BE0
:101120003778232B2093020175B19C012C72332751
:10113000220F331F220F331F372F3F74232B25B964
:1011400074B39C0120713327220F331F372F3F7D4B
:10115000232B24BB8998899A8A9AFA017FEF760F0C
:1011600016160CF094C0219140910201322F307C70
:10117000369536953695522F537060E2569FD001C2
:1011800011243A2B4778342B3093020165B1322F6A
:101190003C72A4E03A9FA0011124362F3F74432BE8
:1011A00045B934B32071220F3F7D232B24BB89988E
:1011B000899A772309F469C02091F904222309F45C
:1011C00064C001968A9850910201292F3327E901C2
:1011D000C07CDD2743E0D595C7954A95E1F7D90155
:1011E000A370BB2765E0AA0FBB1F6A95E1F74C2FE0
:1011F0004A2B5778452B4093020165B1A9014C72E7
:101200005527440F551F440F551F562F5F74452B0C
:1012100045B944B320713327220F331F342F3F7D4C
:10122000232B24BB8998899A30910201DC01A07C90
:10123000BB27C3E0B595A795CA95E1F7AC0143700C
:101240005527D5E0440F551FDA95E1F72A2F242BB7
:101250003778232B2093020145B19C012C72332750
:10126000220F331F220F331F342F3F74232B25B936
:1012700044B39C0120713327220F331F342F3F7D4D
:10128000232B24BB8998899A8A9A672F67CF8B9AD8
:10129000DF91CF910895CF93DF938B988A98E2E006
:1012A000F1E05081292F3327E901C07CDD2743E09D
:1012B000D595C7954A95E1F7D901A370BB27D5E02D
:1012C000AA0FBB1FDA95E1F74C2F4A2B5778452B15
:1012D0004083A5B1A9014C725527440F551F440FF7
:1012E000551F5A2F5F74452B45B944B320713327DE
:1012F000220F331F342F3F7D232B24BB8998899ADB
:101300003081DC01A07CBB27D3E0B595A795DA95A9
:10131000E1F7AC014370552725E0440F551F2A958E
:10132000E1F72A2F242B3778232B208345B19C010A
:101330002C723327220F331F220F331F342F3F7499
:10134000232B25B924B380719927880F991F922FD9
:101350009F7D892B84BB8998899A8A9A3081872FAF
:101360009927DC01A07CBB27C3E0B595A795CA955A
:10137000E1F7AC0143705527D5E0440F551FDA95CE
:10138000E1F72A2F242B3778232B208345B19C01AA
:101390002C723327220F331F220F331F342F3F7439
:1013A000232B25B924B380719927880F991F922F79
:1013B0009F7D892B84BB8998899A9081AB01407C61
:1013C0005527B3E055954795BA95E1F79B012370F2
:1013D0003327C5E0220F331FCA95E1F7842F822BF4
:1013E0009778892B808325B1CB018C729927880F40
:1013F000991F880F991F922F9F74892B85B984B3E9
:1014000060717727660F771F8F7D682B64BB899883
:10141000899A8B9ADF91CF9108951F920F920FB600
:101420000F9211240BB60F922F933F934F935F931C
:101430006F937F938F939F93AF93BF93EF93FF939C
:101440008091B900887F803609F49CC068F58832A5
:1014500009F45BC090F4803109F454C038F4882357
:1014600009F4F6C0883009F44DC0F5C0883109F49C
:101470004CC0803209F45DC0EEC0803409F468C00D
:1014800048F4803309F455C0883309F0E4C08093F0
:101490007D08D8C0803509F44FC0883509F45DC097
:1014A000883409F0D8C0D6C0883909F4C7C0A8F478
:1014B000883709F467C038F4883609F463C0803788
:1014C00009F460C0C8C0883809F4B8C0803909F48C
:1014D0005FC0803809F0BFC05BC0803B09F486C0A4
:1014E00038F4803A09F466C0883A09F47FC0B3C082
:1014F000803C09F4A7C0883C09F4A4C0883B09F4E7
:101500008AC0A9C080915A0810C090917C0880912F
:101510007B08981770F5E0917C0881E08E0F80932E
:101520007C08F0E0E55AF74F80818093BB0085ECA2
:1015300086C080937D088EC0E0917C0881E08E0F8C
:1015400080937C088091BB00F0E0E55AF74F8083E0
:1015500090917C0880917B086EC0E0917C0881E0CE
:101560008E0F80937C088091BB00F0E0E55AF74F26
:10157000808380917E0881116DC081E0809359083D
:1015800084EA61C083E080937F0810926B05CFCF1F
:1015900080916B05803208F051C0E0916B0581E0CD
:1015A0008E0F80936B058091BB00F0E0E55BFA4FF6
:1015B0008083BDCF85EC8093BC0010927F08809122
:1015C0006B05803230F4E0916B05F0E0E55BFA4F9B
:1015D000108260916B0570E0E0914905F0914A0539
:1015E0008BE495E0199510926B0535C084E08093EB
:1015F0007F081092480510924705E0914505F0914B
:101600004605199580914705811105C081E08093B9
:10161000470510922505E091480581E08E0F8093E3
:101620004805F0E0EB5DFA4F80818093BB0090911C
:10163000480580914705981708F479CF85E880938D
:10164000BC0009C085EC8093BC0010927F0803C0E9
:1016500010927D0840DCFF91EF91BF91AF919F9177
:101660008F917F916F915F914F913F912F910F904B
:101670000BBE0F900FBE0F901F901895FF920F9307
:101680001F93CF93DF938C0160E00E94B826F8018E
:10169000808191E0909380088093A2081092810845
:1016A0001092A30860E085E999E0A2DC81E00E9445
:1016B0005B26F801208180917F088111FCCF81E0B9
:1016C00080937F0880937E089FEF90937D0810920F
:1016D0007C0880937B0880935A0890915A08822F47
:1016E000880F892B80935A0880915908813061F4C2
:1016F0001092590880915A088093BB008091BC00D9
:1017000083FDF8CF85EC01C085EE8093BC0080910D
:101710007F088130E1F380917C08823018F4809159
:101720007C0801C082E0ABE5B8E025E035E0F901D6
:101730009E2F921B981718F49D919193F9CF1092B8
:10174000F7048093F60485E999E007DCF82E85E933
:1017500099E003DCEC0161E0C8010E94B82660E07A
:1017600070E07F2D6C2B7D2B072E000C880B990BC6
:101770000E94653D20E030E040E05DE30E94C43D12
:1017800020E030E040E05EE30E94C43DDF91CF9175
:101790001F910F91FF900895FC01878D811183A106
:1017A0000895FC01138665EC74E084EA98E00C94DB
:1017B000F427CF93DF93EC011BA260E089A10E9484
:1017C000E6151F8E60E08D8D0E94E61569ED74E0D0
:1017D00084EA98E0DF91CF910C94F427DC011C9609
:1017E000ED91FC911D97309731F086819781982774
:1017F00089279827089580E090E00895CF93DF939C
:10180000FC01EB01AC85BD85109791F012969C917F
:10181000129713968C9113973C9111962C9148EC4A
:1018200052E051834083328323839483858308C0AD
:1018300088EC92E091838083128213821482158255
:10184000CF01DF91CF910895EF92FF920F931F93F5
:10185000CF93DF93E0911406F0911506C185D285F0
:10186000209709F450C0E0901606E1FE31C0FA80DE
:10187000F1102EC080915B0690915C069783868361
:1018800080915306909154069183808380915506F0
:10189000909156069383828380915F0690916006B3
:1018A000982789279827089719F00E948018F82E02
:1018B000FA82FF2069F08F2D0E94A1198C012AE283
:1018C00030E040916D0560E070E08F2D0E94BC1902
:1018D000E3FE19C08D818823B1F08C8180936F0560
:1018E0008AE280936C05688179816A5271098091DE
:1018F0002F0690913006DF91CF911F910F91FF90AD
:10190000EF900C940E1BDF91CF911F910F91FF90E0
:10191000EF900895EF92FF921F93CF93DF93C091C2
:101920001706D0911806843009F4EBC12FE636E093
:101930003093300620932F0630932A0620932906F1
:10194000833059F4898D8F70833009F0D4C688892B
:101950009989892B09F0CFC67EC0823009F07FC0FB
:10196000809128068F5F80932806811113C0809193
:1019700027068F5F8093270681110CC08091260671
:101980008F5F80932606811105C0809125068F5FA9
:101990008093250610922E0610922D0610922C068A
:1019A00010922B06898D982F9D7F953041F48A8D5A
:1019B0008F5F8A8F883709F09EC6198E9CC6882350
:1019C00009F499C628893989232B09F440C09A8DD6
:1019D0002FEF290F2A8F91118EC69B8D983031F0F1
:1019E0002FEF280F223048F4953039F4198E80E813
:1019F000809316060E94A82237C5953038F423E05C
:101A0000092E01C0220F0A94EAF701C020E32A8FB1
:101A10009F5F9B8F8F708330A1F048F4813009F471
:101A20004DC3823009F067C6109268064AC38630FB
:101A300009F4B6C4883009F4B3C4843009F05BC635
:101A4000AFC484E0809316060E94A8223FC58F7021
:101A5000833009F050C688E080931606FAC48530BA
:101A600019F5E0911406F091150684819581892B72
:101A700009F441C6109218061092170683E696E004
:101A80009093300680932F0690932A068093290620
:101A900010922C0610922B0610922E0610922D06F4
:101AA00088E0809316062CC180914706853409F0A2
:101AB00022C6C0914906D0E0DC2FCC2780914A068F
:101AC000C80FD11D80912D0690912E068C179D0771
:101AD00008F411C6D0932E06C0932D0680914D06B2
:101AE0008F7309F008C610914E06111104C6E090DC
:101AF0003506F0903606E114F10439F4809137068A
:101B000090913806892B09F442C0809150062091AB
:101B1000570630915806813151F52F3F4FEF34076A
:101B200039F48091590690915A06019609F471C0D2
:101B30008091310690913206809590958E299F294B
:101B400028173907A1F480913306909134068095C7
:101B500090954091370650913806842B952B4091F3
:101B6000590650915A064817590709F452C02E15C4
:101B70003F0509F0C0C52091590630915A06809161
:101B80003706909138062817390709F0B4C50E9426
:101B90005E22019609F0AFC580915006863009F4A7
:101BA00014C18131B1F1813009F0A5C580915B0686
:101BB000883009F0A0C510925B0680915D06909177
:101BC0005E06873FCFEF9C0710F0099601C008968C
:101BD00090935E0680935D06809153069091540623
:101BE000909358068093570680915506909156061B
:101BF00090935A0680935906F0925406E092530649
:101C0000809137069091380690935606809355063A
:101C100076C56C97D0932E06C0932D0683E696E08A
:101C20009093300680932F06809161069091620612
:101C3000892B99F420915D0630915E0640915B06F8
:101C400050915C066091530670915406A091550620
:101C5000B0915606E8EEF5E00CC081E10E94D42177
:101C6000019609F048C5E6CF84819581009731F44B
:101C70003B9686E0E431F807B8F324C0281739070B
:101C8000B9F786819781009719F04817590781F7AE
:101C900080819181009729F4C281D381CD2B49F4B1
:101CA00016C08F3FCFEF9C0721F4C281D3812196CC
:101CB00071F068177907E1F682819381A817B90757
:101CC000B9F605C0F0931506E093140614C5F09319
:101CD0001506E0931406109218061092170682E07B
:101CE0008093160683E696E09093300680932F0645
:101CF00090932A068093290610922C0610922B06A8
:101D0000A3DD80912B0690912C06009709F4F3C473
:101D10009C01245E3F4F30932E0620932D06309376
:101D2000490620934A06E0911406F0911506208595
:101D300020934F0621E12093500608969827892783
:101D400098279093600680935F0610926206109227
:101D500061068481958190935C0680935B06868101
:101D6000978190935E0680935D06809135069091F1
:101D700036069093540680935306809137069091CF
:101D800038069093560680935506808191819093F2
:101D90005806809357068281938190935A068093C8
:101DA00059068FE696E09093300680932F0681E1E6
:101DB0000E94D42180959095009711F48FEF9FEFAA
:101DC000909362068093610673C486E00E94D421DA
:101DD000019609F090C420915D0630915E068091D5
:101DE0005B0690915C066091530670915406E091F9
:101DF0005506F0915606C0E7D5E0498D4423A9F079
:101E0000AC81BD812A173B0781F4AE81BF818A175F
:101E10009B0759F4A881B9816A177B0731F4AA811D
:101E2000BB81EA17FB0709F463C16E9645E0C83E23
:101E3000D40719F7809168068F738230A1F430932C
:101E400024062093230680E0843059F08F5F21150B
:101E50003105D1F71092220680E0C0E0D0E09EE18B
:101E600078C0809322068091680682FD44C484E194
:101E70008093680688E290E090932E0680932D066A
:101E800080E58093670630916206809166068093B4
:101E90006206209161068091650680936106209319
:101EA0006506909160068091640680936006909329
:101EB000640680915F0680932206409163064093FA
:101EC0005F06809363063F5F3093660631110DC055
:101ED0002F5F20936506211108C09F5F90936406D1
:101EE000911103C08F5F8093630680915B06909190
:101EF0005C06909324068093230620915D06309122
:101F00005E0630935C0620935B0690935E0680939A
:101F10005D068091530690915406909358068093E5
:101F20005706809155069091560690935A068093D5
:101F30005906F0925406E09253068091370690912C
:101F40003806909356068093550696C3473099F00D
:101F50008F5F8430F1F0282F30E0929FF001939F43
:101F6000F00D1124E059FA4F418D4111EFCF8093CC
:101F70002206EF0110C0209721F0528D4A8D45179F
:101F800038F7929FE001939FD00D1124C059DA4F8A
:101F9000DFCF80932206209709F4ADC3D0931806B3
:101FA000C093170683E08A8F888F1E8A84E08F8B08
:101FB0001B8E80915D0690915E069D838C8380913F
:101FC0005B0690915C069F838E838091530690916F
:101FD00054069983888380915506909156069B8379
:101FE0008A8381E0898F809125068C8780912606DF
:101FF0008D87809127068E87809128068F8781E0C4
:1020000090E0998B888B809162068B878091610626
:102010008A8780916006898780915F06888781E042
:1020200090E00E94BE3980916706982F907F91358D
:1020300008F444C082958F7090E00597880F991F2F
:10204000880F991F20912106E12FF0E0E817F9078A
:102050008CF5E75CF94F26A9211105C010932206E3
:10206000109221062BC0213011F41F5FEDCF2230DA
:10207000E1F437A93430C9F41093220620932106E5
:1020800080AD90E0982F882721AD822B9093240675
:1020900080932306813062E0960710F080E092E0A2
:1020A0009B8B8A8B9D8B8C8B09C037A9332311F0B6
:1020B000130FCACF109322062093210680E180934C
:1020C00068068091680682608093680682E080934B
:1020D0006F0694E0909370068093710610927206DA
:1020E0008CE290E090932E0680932D0680E672C2DB
:1020F000D0931806C0931706109216063091680602
:10210000132F147032FF03C0198E80E20CC220918D
:10211000670622952F70220F220F209322068091AE
:102120002D0690912E064497821B910990932E06BE
:1021300080932D064F70423021F4232F2F732231CC
:10214000C9F0892B19F4832F8370A1F090915F0659
:102150008885981335C2909160068985981330C29E
:10216000909161068A8598132BC2909162068B85A7
:10217000981326C234FF49C06889798961157105B1
:1021800009F443C0CE010C960E9488393091630651
:1021900080911D06381339C02091640680911E0677
:1021A000281333C09091650680911F0698132DC0A7
:1021B0008091660640912006841327C03C872D87B6
:1021C0009E878F878B8D811119C09E89888D2A8D5E
:1021D000821B292F269526952695821B980F9E8B6C
:1021E00087FD81952F89322F36953695231B820FD7
:1021F0008F8B969596959695890F888F81E0809321
:102200001606888D8A8F198A188A298DE22FEF7019
:102210008E2F90E0FC013197E830F10508F06BC299
:102220008827EE58FF4F8F4F0C94CB3F80911606B6
:1022300080FF61C283E0898F80E480931606198A4B
:10224000188A80912D0690912E06009709F4FDC002
:1022500022E4209316060E94BE39F7C0809116062C
:1022600080FF6DC0809168068F73823109F067C06E
:1022700080916706982F907F913508F444C082952D
:102280008F7090E00597880F991F880F991F2091F4
:102290002106E12FF0E0E817F9078CF5E75CF94F2C
:1022A00026A9211105C010932206109221062BC0E9
:1022B000213011F41F5FEDCF2230E1F437A9343023
:1022C000C9F4109322062093210680AD90E0982F48
:1022D000882721AD822B909324068093230681309A
:1022E00072E0970710F080E092E09B8B8A8B9D8BC9
:1022F0008C8B09C037A9332311F0130FCACF109369
:1023000022062093210683E0898F80915F068887CB
:10231000809160068987809161068A878091620634
:102320008B8781E090E00E94BE3982E4809316069C
:10233000198A188A10922E0610922D0686C080E205
:10234000809316060E94A822198E8DCD8091680672
:1023500080FF28C024FD26C088899989892B09F02F
:10236000CAC180912D0690912E0601960E94BE3919
:1023700080911606982F90619093160620912D0655
:1023800030912E06232B19F08261809316060E944D
:10239000A82281E090E0998B888B88E0898F1B8E42
:1023A00081E10FC185FF1DC080916D0690E0982FDF
:1023B000882730916E06832B40912F06509130066E
:1023C000480F591F5093300640932F0640912D0619
:1023D00050912E06BA01681B790B70932E066093FC
:1023E0002D0640912D0650912E064115510551F0B4
:1023F00024FD08C090911606926090931606CA01BB
:102400000E94BE398091690690E0982F882720911C
:102410006A06820F911D90932406809323062C89CF
:102420003D892817390710F0892B21F430932406B1
:102430002093230680912306909124069B8B8A8B00
:1024400080911606837009F456C110922C061092E2
:102450002B060E94A8228091160685FF07C01092C5
:102460002C0610922B06198E84E1ABC084FF0AC0A3
:1024700010922C0610922B0681E090E0998B888BAD
:1024800084E08CCF20912B0630912C06211531054C
:10249000E1F080FF02C0198A188A8889998900971B
:1024A00081F48A899B898217930720F490932C06E4
:1024B00080932B0680912B0690912C06998B888B0C
:1024C00004C090932C0680932B061B8E80912906C6
:1024D00090912A069093300680932F0680912B06C8
:1024E00090912C06892B59F088899989009739F0A9
:1024F000889690932E0680932D0688E10BC08091DC
:10250000160681FFF8C088E290E090932E06809333
:102510002D0680E1809368065CC08091160680FFDE
:10252000EAC0198E80E1809316060E94A822E3C0BB
:1025300080912D0690912E06009711F00E94BE39D1
:10254000909168068091160690FF0BC080FF06C030
:1025500087E0898F1A8E198A188A19C086E0898FB8
:1025600016C080FF1EC085E0898F198A188AC3C0F3
:1025700080912D0690912E06009711F00E94BE3991
:102580008091680680FF0DC087E0898F1A8E81E0F8
:1025900090E00E94BE3980E1809316060E94A82236
:1025A0000FC080912D0690912E06892B49F4A3C06F
:1025B0008091160680FF9FC087E0898F1A8E9BC08E
:1025C00080E18093680688E290E090932E068093E5
:1025D0002D0680E58093670688858093630689854C
:1025E000809364068A85809365068B858093660652
:1025F0008C8580935F068D85809360068E858093A1
:1026000061068F858093620686E0809350068C81F8
:102610009D8190935C0680935B068E819F81909351
:102620005E0680935D068091350690913606909304
:102630005406809353068091370690913806909304
:102640005606809355068881998190935806809309
:1026500057068A819B8190935A0680935906898DEB
:1026600084FF05C010926A061092690605C082E0D8
:102670008093690610926A0680E480934F068091E9
:102680002D0690912E069093490680934A0610924B
:102690006E0610926D0610926C0610926B0686E024
:1026A0000E94D4218095909590936C0680936B0640
:1026B00085E4809347061092480610924E061092C9
:1026C0004D0680911B0690911C06019690931C0666
:1026D00080931B0690934B0680934C0610925206F3
:1026E000109251060E945E2280959095909352061A
:1026F0008093510604C010922E0610922D0610925F
:102700001606DF91CF911F91FF90EF9008950F93E0
:102710001F93CF93DF93DC012091190630911A06A5
:102720002F5F3F4F21158DE7380710F020E030E193
:10273000522F432FE8EEF5E080E0843041F0C48171
:10274000D5818F5F3B96C417D507B9F7E9CF309392
:102750001A062093190690E08BE09430D1F0292FCF
:1027600030E041E0490F829FF001839FF00D11247A
:10277000E851FA4FEF01249604811581012B39F4B9
:1027800090932206309741F480E090E02EC0942F81
:10279000E4CF90932206F8CF8091190690911A0603
:1027A000982789279827998388837783668310974A
:1027B00029F410821182128213820BC08D919C9198
:1027C00011979183808312968D919C911397938397
:1027D00082838BE0829FD001839FB00D1124A8518A
:1027E000BA4F80E418968C93CF01DF91CF911F915F
:1027F0000F910895CF93DF93EC01F3D520912D062F
:1028000030912E0690916E052A32310521F41092F6
:102810006F059D7F03C01D821C82926090936E05A0
:10282000DF91CF910C946E22FC01538D448D252FA6
:1028300030E0842F90E0821B930B541710F0CF965A
:10284000089501970895FC01918D828D981761F08C
:10285000828DDF01A80FB11D5D968C91928D9F5FD7
:102860009F73928F90E008958FEF9FEF0895FC0182
:10287000918D828D981731F0828DE80FF11D858D35
:1028800090E008958FEF9FEF0895FC01918D228DC8
:10289000892F90E0805C9F4F821B91098F7399274D
:1028A000089584EA98E0F1DF21E0892B09F420E023
:1028B000822F0895FC01848DDF01A80FB11DA35A5A
:1028C000BF4F2C91848D90E001968F739927848F50
:1028D000A689B7892C93A089B1898C9180648C9347
:1028E000938D848D981306C00288F389E02D808132
:1028F0008F7D80830895EF92FF920F931F93CF9364
:10290000DF93EC0181E0888F9B8D8C8D981305C03F
:10291000E889F989808185FD23C0F62E0B8D10E0B2
:102920000F5F1F4F0F731127E02E8C8DE8120BC025
:102930000FB607FCFACFE889F989808185FFF5CFCA
:10294000CE01B8DFF2CF8B8DFE01E80FF11DE35A07
:10295000FF4FF0820B8FEA89FB898081806207C07C
:10296000EE89FF896083E889F989808180648083AA
:1029700081E090E0DF91CF911F910F91FF90EF9058
:102980000895CF93DF93EC01888D8823C1F0EA8905
:10299000FB89808185FD05C0A889B9898C9186FD58
:1029A0000EC00FB607FCF5CF808185FFF2CFA88956
:1029B000B9898C9185FFEDCFCE017CDFE8CFDF9127
:1029C000CF91089580E090E0892B19F06ADF8111A2
:1029D00025C080E090E0892B41F080E090E0892BD9
:1029E00021F00E94000081111CC080E090E0892B42
:1029F00041F080E090E0892B21F00E9400008111DD
:102A000013C080E090E0892BA1F080E090E0892B5A
:102A100081F00E94000081110AC008950E94000008
:102A2000D8CF0E940000E1CF0E940000EACF0C94B2
:102A3000000008953FB7F894809111089091120812
:102A4000A0911308B091140826B5A89B05C02F3F8C
:102A500019F00196A11DB11D3FBFBA2FA92F982FC4
:102A60008827820F911DA11DB11DBC01CD0142E03F
:102A7000660F771F881F991F4A95D1F708958F9287
:102A80009F92AF92BF92CF92DF92EF92FF920F93FD
:102A90001F93CF93DF937C018B016C0182E0C80E02
:102AA000D11C4701E5E08E0E911CC0E0D0E0F6019C
:102AB00041916F0150E060E070E02AE0C8010E949F
:102AC000AC275C016EE2C8010E9406288A0D9B1D9E
:102AD000C80FD91FC814D90451F7F701458150E038
:102AE00060E070E02AE0C8010E94AC278C0F9D1FB7
:102AF000DF91CF911F910F91FF90EF90DF90CF90DA
:102B0000BF90AF909F908F9008950E94E4411F92D4
:102B10000F920FB60F9211240BB60F922F933F9383
:102B20004F935F936F937F938F939F93AF93BF93D5
:102B3000EF93FF9384EA98E0BDDEFF91EF91BF91A0
:102B4000AF919F918F917F916F915F914F913F9145
:102B50002F910F900BBE0F900FBE0F901F901895E6
:102B60001F920F920FB60F9211240BB60F922F9354
:102B70008F939F93EF93FF93E091B408F091B50882
:102B80008081E091BA08F091BB0882FD12C090816B
:102B90008091BD088F5F8F732091BE08821751F01E
:102BA000E091BD08F0E0EC55F74F958F8093BD089C
:102BB00001C08081FF91EF919F918F912F910F9094
:102BC0000BBE0F900FBE0F901F901895362F90E000
:102BD000FC01E75AF74F4491FC01ED54FD4F24915D
:102BE000FC01E750FD4F9491992309F46BC04423F5
:102BF00009F455C050E0FA013197E231F10508F0CF
:102C00004EC08827E658FF4F8F4F0C94CB3F8091E2
:102C100080008F7707C0809180008F7D03C08091F6
:102C20008000877F809380003AC084B58F7702C090
:102C300084B58F7D84BD33C08091B0008F7703C091
:102C40008091B0008F7D8093B00029C0809190006A
:102C50008F7707C0809190008F7D03C08091900096
:102C6000877F809390001BC08091A0008F7707C062
:102C70008091A0008F7D03C08091A000877F80930A
:102C8000A0000DC0809120018F7707C080912001A6
:102C90008F7D03C080912001877F80932001E92FE1
:102CA000F0E0EE0FFF1FE756FD4FA591B4918FB7EF
:102CB000F894EC91311103C020952E2301C02E2BE6
:102CC0002C938FBF0895CF93DF9390E0FC01ED54D8
:102CD000FD4F2491FC01E750FD4F8491882361F161
:102CE00090E0880F991FFC01E15CF74FC591D491EA
:102CF000FC01E756FD4FA591B491611109C09FB742
:102D0000F8948881209582238883EC912E230BC030
:102D1000623061F49FB7F8943881822F80958323C5
:102D20008883EC912E2B2C939FBF06C08FB7F8940D
:102D3000E8812E2B28838FBFDF91CF9108958633B2
:102D400008F0865390917B00282F2870977F922B54
:102D500090937B008770806480937C0080917A00E0
:102D6000806480937A0080917A0086FDFCCF809108
:102D700078002091790090E0922B08958F929F9295
:102D8000AF92BF92CF92DF92EF92FF926B017C01E4
:102D900051DE4B015C01C114D104E104F104E9F0FE
:102DA00049DEDC01CB0188199909AA09BB09883ED3
:102DB0009340A105B10578F321E0C21AD108E108DA
:102DC000F10888EE880E83E0981EA11CB11CC11486
:102DD000D104E104F10421F7DECFFF90EF90DF9002
:102DE000CF90BF90AF909F908F9008952FB7F89499
:102DF00060910D0870910E0880910F089091100855
:102E00002FBF08951F920F920FB60F9211242F9388
:102E10003F938F939F93AF93BF9380910D089091B1
:102E20000E08A0910F08B091100830910C0823E013
:102E3000230F2D3720F40196A11DB11D05C026E8F2
:102E4000230F0296A11DB11D20930C0880930D083D
:102E500090930E08A0930F08B0931008809111086A
:102E600090911208A0911308B09114080196A11D29
:102E7000B11D8093110890931208A0931308B0938A
:102E80001408BF91AF919F918F913F912F910F9017
:102E90000FBE0F901F9018958823E9F0A4EAB6E0C2
:102EA00025E014969C91149798130DC095E0899F86
:102EB000F0011124EC55F94F848114968C93138200
:102EC000128214820895992331F0299FD001112490
:102ED000AC55B94FE6CF08950F931F93CF93DF936F
:102EE0008C01EB0160E085E371DE8AE38EBD0DB4F9
:102EF00007FEFDCF0C0F1D1FC017D10739F01EBCF8
:102F00000DB407FEFDCF8EB58993F6CF61E085E362
:102F1000DF91CF911F910F9159CE0F931F93CF93B4
:102F2000DF931F92CDB7DEB7182F062F60E085E341
:102F300049834CDE802F8F71812B8EBD49810DB46A
:102F400007FEFDCF4EBD0DB407FEFDCF61E085E36A
:102F50000F90DF91CF911F910F9138CE1F93CF9398
:102F6000DF93182F1076C12FD0E02091000230E0BF
:102F7000C217D30779F043E06FE180EACEDFAE01FC
:102F800085E0559547958A95E1F76FE180E8C5DFC3
:102F900010930002DF91CF911F9108951F93CF935B
:102FA000DF931F921F92CDB7DEB7182F69837A8304
:102FB000D5DF4981612F80E4B0DF61E0610F7A8164
:102FC000472F80E40F900F90DF91CF911F91A5CFF5
:102FD000CF93DF93C82FD62F60E085E3F7DD8D2FE9
:102FE0008F71C82BCEBD0DB407FEFDCF1EBC0DB436
:102FF00007FEFDCFD7FD07C061E085E3E7DD8EB5B5
:10300000DF91CF9108951EBC0DB407FEFDCFF4CF24
:10301000CF93C62FBC0182E0C1DF60E085E3D6DD3F
:103020008AE78EBD0DB407FEFDCFCEBD0DB407FE01
:10303000FDCF61E085E3CF91C9CDBC0180E0AEDF7B
:1030400060E085E3C3DD8AE38EBD0DB407FEFDCFEE
:103050001EBC0DB407FEFDCF61E085E3B7DD8EB584
:103060000895CF92DF92EF92FF920F931F93CF9329
:10307000DF936C018B014130510569F4CB01DDDF39
:10308000682FC601DF91CF911F910F91FF90EF90B4
:10309000DF90CF90BDCFEA01C60FD71F7E0181E040
:1030A000E81AF10880E17ADFB60184E177DF0115E3
:1030B000184038F4E11488E0F80618F07E0188E042
:1030C000F81AB70182E16ADF40E16FE180EA25DFAB
:1030D00040E26FE180E821DF6FE180E079DF85FF8A
:1030E00006C061E070E080E090E048DEF5CFDF915F
:1030F000CF911F910F91FF90EF90DF90CF900895A7
:10310000CF92DF92EF92FF920F931F93CF93DF93B3
:103110008C016091A4067091A5066150784EC12C77
:1031200098E1D92EE4EAF6E080E0C0E0D0E045E0A6
:103130009481992349F0499F900111242C55394FCE
:10314000D9012D913C9101C09B01E080F1802E19A5
:103150003F090280F381E02D2E1B3F0B2017310722
:1031600039F4B5E08B9FE0011124CC55D94F48C00C
:103170000217130748F42C153D0530F4489FE00171
:103180001124CC55D94F6901911107C02097C1F581
:10319000C4EAD6E085E0D82E1DC0499FF001112475
:1031A000EC55F94F892FC4CFEA80FB802881398103
:1031B000E20EF31ED89EE0011124CC55D94F688150
:1031C0007981E616F70631F04A815B81C70149DF54
:1031D000F982E8828C818111E7CF2091A406309199
:1031E000A50688819981281B390B8A819B81281B20
:1031F000390B2150384E2017310710F480E01AC0E7
:1032000091E0E9EAF6E022813381232B29F035961B
:103210009F5F9533C1F7F2CF4A815B812881398165
:10322000240F351F31832083138302838C81848391
:103230009C83892FDF91CF911F910F91FF90EF9089
:10324000DF90CF900895CF92DF92EF92FF920F938D
:103250001F93CF93DF937B018A01690125E0829F51
:10326000C0011124EC01CC55D94F688179816E0DD4
:103270007F1D82E093DE0A80DB81C02DCE19DF093D
:10328000CC16DD0608F4E60160E085E39FDC8AE702
:103290008EBD0DB407FEFDCFC8018C0F9D1F081712
:1032A000190741F0F80121918F012EBD0DB407FEE1
:1032B000FDCFF5CF61E085E389DCCE01DF91CF91D1
:1032C0001F910F91FF90EF90DF90CF900895EF92B4
:1032D000FF920F931F93CF93DF938B017A018F3F60
:1032E000C9F025E0829FE0011124CC55D94F02C0DE
:1032F000CFE9D6E088819981B801680F791F80E015
:103300004DDE8A819B81801B910BE816F90690F4B3
:10331000C70110C080919F069091A006860F971F4D
:10332000811528E0920720F3BC016F5F7740CFE959
:10333000D6E0E5CFDF91CF911F910F91FF90EF90F5
:10334000089580E090E0089560919D0670919E063A
:103350006115710549F061507109611588E07807C0
:1033600028F060E070E002C06FEF77E060FF02C01D
:10337000615071098CE012CE0F931F93DB01E42F93
:10338000A80190E0EF3FF9F065E0E69FF00111241D
:10339000EC55F94F02C0EFE9F6E00190F081E02D25
:1033A0002E0F3F1F65E0689FF001699FF00D11240B
:1033B000EC55F94F80819181B9018A0F9B1F51DE35
:1033C0001F910F91C1CFE0919F06F091A006E20FEF
:1033D000F31FE11568E0F607F0F29F012F5F374019
:1033E000E1CF0F931F93CF93DF9300915706109176
:1033F0005806C0915906D0915A060F3F8FEF180713
:1034000041F4CF3F9FEFD90721F486E0EBE2F2E0F1
:1034100021C01093090800930808D0930B08C093AB
:103420000A0880E09BE001C08F5F883071F1989FAF
:10343000F0011124E155F84F208131810217130763
:1034400099F722813381C217D30771F78093070858
:10345000349686E0A9E3B6E001900D928A95E1F7F3
:1034600086E0E5E2F2E0AFE3B6E001900D928A95E6
:10347000E1F788E090E090934606809345068091BE
:103480002D0690912E060E9657C08093070846E0B1
:1034900050E06FEF70E089E396E00E94F14186E032
:1034A000E9E5F6E0DF01982F1D929A95E9F7E5E24C
:1034B000F2E0AFE3B6E0982F01900D929A95E1F714
:1034C000E5E2F2E0AFE4B6E0982F01900D929A9514
:1034D000E1F71093600600935F06D0936206C093F5
:1034E00061061092560610925506109258061092D8
:1034F000570620E031E030934E0620934D0630937E
:1035000048062093470628E030E030934A0620938F
:10351000490680934B0684E080934C0688E096E051
:1035200090934606809345068FE696E0909330068A
:1035300080932F068AE290E090932E0680932D06CA
:10354000DF91CF911F910F910895EF92FF920F930A
:103550001F93CF93DF939C01FB011092070890E02B
:103560008BE0983031F1899F70011124E701C1553A
:10357000D84F6881798161157105C9F04A815B81F5
:1035800041155105A1F0D9010D911C911197061714
:10359000170769F412966D917C911397641775075C
:1035A00031F490930708D701AD54B84F2AC09F5FFC
:1035B000D8CF90E08BE0983091F0899FE001112402
:1035C000C155D84F48815981452B39F44A815B81D7
:1035D000452B19F4909307080AC09F5FECCF109217
:1035E000AE071092AD0710920708CFEAD7E0D901D5
:1035F0004D915D916D917C91DE014D935D936D9345
:103600007D9386E001900D928A95E1F71A86DF910D
:10361000CF911F910F91FF90EF9008959C01AB0106
:1036200070932C0660932B061616170654F480919F
:10363000290690912A062817390719F0B9010C9428
:10364000E8410895CF93DF931F92CDB7DEB7FC0119
:10365000828D238D24FB992790F99627692F70E09E
:10366000778F668F80FF2DC08091F9048823E1F069
:10367000248D358D273483E8380719F022353245FB
:1036800031F4911102C082E007C086E005C09111BB
:1036900002C08AE001C088E08983AE014F5F5F4FBE
:1036A00061E081E090E00AC0911103C080E290E007
:1036B00002C081E290E040E050E060E00E944808F3
:1036C0002EC0848D958D873222E9920780F4853251
:1036D00022E99207A0F4803224E59207C1F08339F1
:1036E00027E79207A1F084359140A9F408C08632FB
:1036F00023E9920761F08930954B69F408C0660FA1
:10370000771F660F771F636187E090E006C06260F5
:1037100081E094E002C081E690E00E944B090F90A6
:10372000DF91CF910895BF92CF92DF92EF92FF92F7
:103730000F931F93CF93DF93CDB7DEB768970FB684
:10374000F894DEBF0FBECDBF8C017B018EEFC82E7B
:10375000DD24DA941E141F045CF5F801849131967F
:10376000B4900E5F1F4F8F3729F0202FDE01119686
:10377000F80107C06B2D70E080E090E0FFDAB12C1B
:1037800011C09E2F921B9B1520F494919D9331960E
:10379000F8CF0B0D111DAE014F5F5F4F6B2D90E009
:1037A0000E944808C6018B199109E80EF91ED2CF74
:1037B00068960FB6F894DEBF0FBECDBFDF91CF91F4
:1037C0001F910F91FF90EF90DF90CF90BF900895E1
:1037D0008F929F92AF92BF92CF92DF92EF92FF9221
:1037E0000F931F93CF93DF9300D01F92CDB7DEB717
:1037F0007C014B016A015901FC01848D958D873252
:10380000F3E99F0799F4F7018589823031F4F0E2FA
:10381000CF0ED11C005E1F4F1DC08330D9F420E2B3
:10382000820E911C80E2A80EB11C14C08632954114
:1038300089F4F701858980FF0DC0C801841B950BB1
:1038400019F40F5F1F4F06C02617370719F4A80E8B
:10385000B91E8A01F701828D80FF3BC082A5998243
:103860008A82BB82AC82AE014F5F5F4F64E090E022
:103870000E944808F70186A5D982CA821B830C835F
:10388000AE014F5F5F4F64E090E00E944808809176
:10389000F904882309F459C0F701848D958D853684
:1038A000910509F052C099828A82AE014F5F5F4F45
:1038B00062E084A195A10E944808D982CA82AE0123
:1038C0004F5F5F4F62E0F70186A197A10E94480811
:1038D0003CC0B401F70184A195A10E944B09B60137
:1038E000F70186A197A10E944B098A149B0419F441
:1038F000C016D10651F1F701828D85FF0EC0858972
:1039000080FF06C0102F0027C02AD12A860105C0DB
:10391000BA2CAA248A289B285401B401F70182A555
:1039200093A50E944B09B601F70186A597A50E94B1
:103930004B09B501F70184A595A50E944B09B80173
:10394000F70180A991A90E944B090F900F900F9049
:103950000F90DF91CF911F910F91FF90EF90DF902B
:10396000CF90BF90AF909F908F900895AF92BF92ED
:10397000CF92DF92EF92FF920F931F93CF93DF933B
:10398000EC018091F804882349F0C7018F719927D1
:10399000880F991FE1ECEE22E82AF92A37FF05C0CB
:1039A000620F731F319521953109260F371F77FF5D
:1039B00002C060E070E088859985821793070CF457
:1039C0009C016901C61AD70A17FF05C0400F511F95
:1039D000119501951109040F151F57FF02C040E012
:1039E00050E08A859B85801791070CF48C01580163
:1039F000A41AB50A0150110921503109CE01E8DE9F
:103A00008B988A9888A599A550910201292F332770
:103A1000F901E07CFF27B3E0F595E795BA95E1F76A
:103A2000B9016370772715E0660F771F1A95E1F7E4
:103A30004E2F462B5778452B4093020165B1A901C3
:103A40004C725527440F551F440F551F562F5F7456
:103A5000452B45B944B320713327220F331F342F30
:103A60003F7D232B24BB8998899A30910201BC01A8
:103A7000607C7727E3E075956795EA95E1F7AC01FF
:103A800043705527F5E0440F551FFA95E1F7262FAF
:103A9000242B3778232B2093020145B19C012C72F3
:103AA0003327220F331F220F331F342F3F74232B52
:103AB00025B924B380719927880F991F922F9F7D74
:103AC000892B84BB8998899A8A9ACA14DB042CF4BE
:103AD0009C2D8D2D6501A92EB82E8F2D99279C0127
:103AE00023703327A90125E0440F551F2A95E1F7DC
:103AF0009C01207C332753E0359527955A95E1F7B3
:103B0000242BBC016C727727660F660F8071992792
:103B1000880FF701E370FF2775E0EE0FFF1F7A951E
:103B2000E1F7A701407C5527F3E055954795FA95B5
:103B3000E1F79E2F942BA7014C725527742F770F16
:103B4000770F30E1E322FF24EE0C1A141B0444F536
:103B5000A601309102013778322B3093020135B142
:103B60003F74362B35B934B33F7D382B34BB89983D
:103B7000899A309102013778392B3093020135B19F
:103B80003F74372B35B934B33F7D3E2934BB899818
:103B9000899A41505109E9F6E1E0AE1AB108D5CF52
:103BA0008B9A8A8D80FF08C08C8D9D8D86329541C1
:103BB00089F48D8980FF0EC00A851B85015011098B
:103BC000288539852150310940E050E060E070E0FF
:103BD000CE01FEDDDF91CF911F910F91FF90EF900D
:103BE000DF90CF90BF90AF900895EF92FF920F9328
:103BF0001F93CF93DF937C01E90177FD29C057FD27
:103C000027C0FC0180859185681779070CF58285AE
:103C1000938548175907E4F48091F804882341F00C
:103C2000CE018F719927880F991FC17CC82BD92B82
:103C30008A019B01C701CCDDBE01F70180A591A5DA
:103C4000DF91CF911F910F91FF90EF900C944B0952
:103C5000DF91CF911F910F91FF90EF900895EF9218
:103C6000FF920F931F93CF93DF93CDB7DEB72A97C1
:103C70000FB6F894DEBF0FBECDBF7C01862F8370D8
:103C8000D70155968C935597462F417060FF05C01C
:103C900016962D913C91179703C0F7012481358129
:103CA000D70119963C932E931897442329F0149624
:103CB0002D913C91159703C0F70126813781D701DB
:103CC0001B963C932E931A97823041F0833041F03B
:103CD000813011F088E405C088E203C088E901C0A2
:103CE00088EF8A87F701228D338D30FF03C08A85E4
:103CF00080588A8731FF04C09A8580E489278A87A3
:103D000033FF04C09A8588E089278A87D7015C96AB
:103D10008D919C915D9720FFD3C08431B8E69B07BD
:103D2000F9F49A85892F881F8827881F8295880F24
:103D3000880F807C96FD02C020E001C020E29872CE
:103D40009A871F828260822B88878BE38987AE01E6
:103D5000495F5F4F63E086EB90E00E94480884C0B3
:103D60008336E9E19E0741F08138F4E99F0721F0AD
:103D7000813125E1920709F52A8527FF02C02160DC
:103D80002A872A8526FF02C022602A87833639E1E6
:103D9000930719F48A858F730EC0813844E994071C
:103DA00019F48A858F7207C08131954109F05CC092
:103DB0008A858F7E806C8A8757C02091F9042223E0
:103DC00009F452C062E070E0F70175A364A326E035
:103DD00030E037A326A3E2E2F0E0D7019996FC9306
:103DE000EE9398979B967C936E939A9764E070E01D
:103DF0009D967C936E939C979F963C932E939E9753
:103E000028E030E0D1963C932E93D09785369105EB
:103E100001F59A8594FD03C081E889278A874423A8
:103E200051F082E890E0F70195A384A380E890E048
:103E300097A386A32EC080E890E0D70195969C9327
:103E40008E93949782E890E097969C938E939697A2
:103E500020C082359245E9F48A8584FD02C08260E3
:103E600001C086608A8715C02AE230E0F70135A3D9
:103E700024A38BE290E097A386A34CE250E051A7E5
:103E800040A733A722A735A724A797A786A791AB5A
:103E900080AB8091F904811103C086E390E002C0F9
:103EA00086E190E0AE01465F5F4F61E00E94480806
:103EB0008A8590E0D70191969C938E939097E6C067
:103EC0002A858339B7E79B0709F448C050F4843545
:103ED000F1E09F0781F0803234E5930709F081C05B
:103EE0003DC0863243E99407C9F18930A5EB9A07B2
:103EF00009F077C033C087E390E0F70193A782A76A
:103F000086E390E095A784A789E390E097A786A72A
:103F100088E390E091AB80AB80E290E095A384A32E
:103F200081E290E097A386A382E290E091A780A728
:103F3000822F022E000C990B8827990F881F992732
:103F4000982F8827990F26FD03C060E070E002C01B
:103F500060E071E08862682B792B82C040E052E01B
:103F6000D70195965C934E93949741E052E09796D3
:103F70005C934E93969742E052E099965C934E93F1
:103F8000989740E152E09B965C934E939A9741E15B
:103F900052E09D965C934E939C9742E152E09F962F
:103FA0005C934E939E9743E152E0D1965C934E937F
:103FB000D09727FD03C020E030E002C020E030E8C9
:103FC0008632B3E99B0731F08032944519F060E006
:103FD0007AE602C060E075E3622B732B80E094E028
:103FE00035C080E290E0D70195969C938E9394978C
:103FF00081E290E097969C938E93969782E290E070
:1040000099969C938E93989780E590E09B969C93CD
:104010008E939A9781E590E09D969C938E939C97C2
:1040200082E590E09F969C938E939E9783E590E027
:10403000D1969C938E93D09727FD03C060E070E0EB
:1040400002C060E070E8776280E690E00E944B0971
:104050008A8586FD03C060E070E002C060E071E028
:1040600081E090E00E944B098A8585FD03C060E0F5
:1040700070E002C068E070E083FD70616063F7018A
:1040800071A360A383E090E00E944B09D70155968D
:104090008C91559780FF36C05A968D919C915B9775
:1040A00092FD30C094968D919C91959796962D9106
:1040B0003C91979795963C932E93949797969C93C3
:1040C0008E9396979A968D919C919B979E962D9103
:1040D0003C919F979B963C932E939A979F969C9387
:1040E0008E939E979C968D919C919D97D0962D91A5
:1040F0003C91D1979D963C932E939C97D1969C93FF
:104100008E93D097F7010285138501501109208500
:1041100031852150310940E050E060E070E0C70196
:1041200057DBD70116966D917C9117975C968D9110
:104130009C915D978732B3E99B0749F4F701258984
:104140002250223008F4A6C000E010E0A5C000E034
:1041500010E020E030E0D7015A964C9140FF49C072
:104160001982102F0A837B836C831D822E8380919A
:10417000F904811103C083E390E002C08EE090E077
:10418000AE014F5F5F4F66E00E94480819821A83B4
:104190008091F904811103C087E390E002C084E1BB
:1041A00090E0AE014F5F5F4F62E00E94480880914F
:1041B000F904882389F01982F701848D958D87345D
:1041C000934819F081E090E002C088E190E0AE01F0
:1041D0004F5F5F4F61E00AC0D7015A968C9180FF14
:1041E00060C040E050E060E083E190E00E94480859
:1041F00058C08339B7E79B0789F160F48032F4E552
:104200009F0761F1833827E7920791F08435914049
:1042100099F512C0863243E9940701F128F48552DA
:104220009249029748F028C08930954BB9F024C0D4
:10423000F701668D778D24C0600F711F6150710981
:1042400081E390E00E944B09B80182E390E00E9474
:104250004B0960E070E083E390E019C0D7015E96FF
:104260006D917C915F97626081E094E00E944B09C0
:10427000B80184E094E00BC0F701668D778D626031
:1042800081E690E00E944B09B8018AE690E00E9426
:104290004B0907C000E210E020E230E0201B310BA8
:1042A0005ACF2A960FB6F894DEBF0FBECDBFDF916E
:1042B000CF911F910F91FF90EF90089580E00895A6
:1042C000FB0141505109460F571FE417F50778F4D9
:1042D000208130E0322F22276181260F311D820F8D
:1042E000931F8217930708F401963296EECFE417D6
:1042F000F50751F4208130E0322F2227820F931FDF
:104300008217930708F401960895DC01ED91FC9162
:10431000048CF58DE02D1994CF93DF93DC011C966E
:10432000ED91FC911D973097B1F0EC01158214824C
:10433000128611861D861C8689890E944C178889E1
:104340000E944C178A890E944C172E9686E0FE0127
:1043500011928A95E9F7DF91CF9108950F931F93FA
:10436000CF93DF93EC018B018C859D85892B41F4E4
:1043700060E070E080E090E00E9487139D878C876A
:10438000EC85FD85309751F0102701271027158304
:1043900004832E96D287C18781E001C080E0DF913F
:1043A000CF911F910F910895EF92FF920F931F935A
:1043B000CF93DF93C82FE0904A06F12C84E1E81AEE
:1043C000F1082091490630E0322F2227E20EF31E39
:1043D00048E050E063E576E0C7018C0F911D70DF87
:1043E000C13131F0C0916706C695C695CC7301C046
:1043F000C8E0D0E0AE016BE576E062DF8C01CE155F
:10440000DF0508F04CC0A7014C1B5D0BBE016E5DC3
:104410007F4F80916F050E946719EC01219760E042
:1044200085E30E94E6158AE38EBD0DB407FEFDCF3D
:10443000A80160E070E06C177D07C8F41EBC0DB4E5
:1044400007FEFDCF2EB530E0322F22271EBC0DB463
:1044500007FEFDCF8EB5280F311D420F531F4217A7
:10446000530710F44F5F5F4F6E5F7F4FE4CF8A01B9
:104470006C177D0781F41EBC0DB407FEFDCF8EB511
:1044800090E0982F88278A01080F191F081719072D
:1044900010F40F5F1F4F61E085E30E94E6150115E0
:1044A000110519F0902F812F02C08FEF9FEFDF9140
:1044B000CF911F910F91FF90EF90089544E150E04C
:1044C00067E476E080E090E0FBDE009721F098273B
:1044D0008927982708958FEF9FEF089590916E0593
:1044E000892F827091FF11C020916C0530E049E363
:1044F00056E060E070E080916F050E942319809182
:104500006E058D7F80936E0518C020912D06309129
:104510002E062115310519F0C9010E9480188093DB
:104520006F05882391F020912D0630912E0649E3E6
:1045300056E060E070E00E94231980916F050E94B0
:104540004C1710926F0581E0089580E0089508955A
:10455000CF92DF92EF92FF920F931F93CF93DF934F
:10456000A0911706B09118065C96CD91DC915D97ED
:1045700050911606209749F556FF6FC0E5E1F8E027
:1045800080E090E0208121111AC061E1689F9001D4
:10459000699F300D1124E901CB5ED74F806188837C
:1045A0002A5E374F80E1F90111928A95E9F7209749
:1045B00009F453C05D96DC93CE935C9706C00196D8
:1045C000719684309105F1F648C051FF07C0809183
:1045D0002D0690912E06892B09F055C0888187FF02
:1045E0000EC08F77888380911606826080931606AE
:1045F000E0911706F0911806818D8F7E818F809152
:104600001606982F9071D92E84FF80C07E01E6E0B7
:10461000EE0EF11C6E01FBE0CF0ED11CF701808184
:104620000E944C17F70111927F01EC15FD05B1F7BF
:104630008981882309F46DC0E0911706F09118066E
:10464000848195819F838E83888180648883E091B3
:104650001706F0911806158E148EE12CF12CB70177
:1046600080912F06909130060E940E1BF0922E062C
:10467000E0922D06DF91CF911F910F91FF90EF9067
:10468000DF90CF9008958881807609F0A7CF6E01E2
:10469000FFEFCF1ADF0AF12CF6018081811122C0D1
:1046A00020912D0630912E062115310519F0C901F2
:1046B0000E948018F60180838823A1F000912D06C6
:1046C00010912E0620912F06309130062953364046
:1046D00040916D0560E070E00E94BC19F4E0FF12AB
:1046E0007DCF0CC0F3942FEFC21AD20A35E0F3123B
:1046F000D3CF80916E058E7F80936E05E091170673
:10470000F0911806818D8061818F68CF87FF03C08B
:104710007DCF18829CCF80FF0FC08E810E944C17E6
:10472000DE011796FE013696CE010A962D91219351
:10473000E817F907D9F71A86809116068C7009F4E4
:1047400043C0EE81EE2309F43FC08F8181110FC079
:10475000EB84FC84E114F10409F481CF25E0E29FAD
:10476000F0011124EC55F94FF382E28207C08E2F3D
:104770000E94A1197C01892B09F471CF80912F0629
:10478000909130068953964080936C05F701E80FAD
:10479000F11DCF01EF2B19F00E948018D82ED09276
:1047A0006F05DD2009F45BCF60916C0570E0870137
:1047B00020E030E04E818D2D0E94BC1980916E0565
:1047C000826080936E054BCF888185FF46CF8E81B6
:1047D00081110BC01882E0911706F0911806158E12
:1047E000148E80E18093160638CFE0911706F09181
:1047F0001806818D8061818F30CF0F931F93CF93E7
:10480000DF93EC018B0110161106B4F4FE018591C3
:1048100094912496FE013297659174918F3F2FEF0A
:10482000920729F480E090E00E94BE1602C00E9428
:104830004B0904501109E7CFDF91CF911F910F91E0
:104840000895E4EAF8E0A089B18982E08C93A48518
:10485000B5851C92A685B7858FEC8C93108EA489A4
:10486000B58986E08C93A289B3898C9180618C9301
:10487000A289B3898C9188608C93A289B3898C9129
:1048800080688C930288F389E02D80818F7D8083FE
:1048900008952F923F924F925F926F927F928F92E4
:1048A0009F92AF92BF92CF92DF92EF92FF920F93BF
:1048B0001F93CF93DF93CDB7DEB7AC970FB6F894C5
:1048C000DEBF0FBECDBF9C838B837B016A01590184
:1048D0004617570784F48D2D261737070CF0B8C1FB
:1048E00069015B01E42EF82E2AEF30E03CA72BA7EC
:1048F0006CE271E00FC0241735070CF054C09C2DFA
:104900008D2D6501A92EB82E4CE251E05CA74BA776
:104910006AEF70E03EE5232E33243394CE14DF0497
:104920000CF0A3C19E2D8F2D7601C92ED82E9BA5EC
:104930008CA5AEE5B1E0BCA7ABA7292E382EEA14B2
:10494000FB04F1F5BEE52B16B1E03B066CF09BA530
:104950008CA5EBA5FCA5E215F30514F4922D832D8F
:104960002BA43CA49BA78CA76215730544F02BA530
:104970003CA52617370714F47CA76BA7B101AB81C0
:10498000BC81ED91FC9111972BA53CA5261B370B03
:104990002F5F3F4F0684F785E02D0FEF1FEFA70134
:1049A000CD0119956FC16EE571E0E216F30609F4C9
:1049B00061C18CE291E09CA78BA72AEF222E312CBB
:1049C000C101EBA5FCA58E1B9F0B96012E193F097B
:1049D000AB014E1B5F0B5E834D83D501AE19BF0942
:1049E000BA87A987FB01E219F309FE87ED87A501C4
:1049F0004C195D095E8B4D8BCA14DB0431F0B60196
:104A0000615071097A8F698F02C0DA8EC98E4701B1
:104A1000412C512C3201198A1A8A1B8A1C8AA9013D
:104A2000330F660B770B4B8F5C8F6D8F7E8F2985D5
:104A30003A85032E000C440B550B2F8F38A349A346
:104A40005AA3AC01990F660B770B4BA35CA36DA324
:104A50007EA36D817E81072E000C880B990B6FA3BE
:104A600078A789A79AA7698D7A8D681579050CF4BE
:104A700058C069897A898B899C892B8D3C8D4D8D95
:104A80005E8D0E949A3E8BA59CA5820F931F9A83F0
:104A90008983C301B2012F8D38A149A15AA10E9477
:104AA0009A3EABA5BCA52A0F3B1F49895A896B8941
:104AB0007C898BA19CA1ADA1BEA1480F591F6A1F83
:104AC0007B1F498B5A8B6B8B7C8B4FA158A569A59B
:104AD0007AA5440E551E661E771E69817A812617B7
:104AE000370734F499818A813A832983292F382F13
:104AF000AB81BC81ED91FC91119749815A81241BB6
:104B0000350B2F5F3F4F0684F785E02D0FEF1FEF2A
:104B1000A40169817A81CD0119955FEF851A950A03
:104B2000A2CFC4018C199D09AD85BE85A89F200127
:104B3000A99F500CB89F500C1124052C000C66083E
:104B4000770894012E193F09ED81FE81E29FC00193
:104B5000E39F900DF29F900D11246C01990FEE08C8
:104B6000FF082D893E89032E000C440B550B2D8B1D
:104B70003E8B4F8B588F49855A85052E000C660B4E
:104B8000770B49875A876B877C87BD01072E000CFE
:104B9000880B990B6D877E878F87988BCF01092EA5
:104BA000000CAA0BBB0B8D839E83AF83B887A81420
:104BB000B9040CF467C0C301B2012D893E894F8945
:104BC000588D0E949A3ED101A20FB31FBA83A983C8
:104BD000C701B60129853A854B855C850E949A3EBE
:104BE000EBA5FCA52E0F3F1F4D855E856F8578894F
:104BF000440E551E661E771E6D817E818F819885BD
:104C0000C60ED71EE81EF91E89819A81281739071A
:104C100034F499818A813A832983292F382FAB81F3
:104C2000BC81ED91FC91119749815A81241B350B70
:104C30002F5F3F4F0684F785E02D0FEF1FEFA40194
:104C400069817A81CD0119955FEF851A950AAFCFF9
:104C50006B01E42EF82EAAEFB0E0BCA7ABA76EE57F
:104C600071E09CE2292E33243394EA14FB0409F00A
:104C7000A7CE6DCEECE2F1E0FCA7EBA78AEF282EE1
:104C8000312C75CEAC960FB6F894DEBF0FBECDBFFB
:104C9000DF91CF911F910F91FF90EF90DF90CF9018
:104CA000BF90AF909F908F907F906F905F904F904C
:104CB0003F902F900895382F2091A3089091A2083B
:104CC000213208F049C080917F088111FCCF42E079
:104CD00040937F0830937E083FEF30937D08109219
:104CE0007C0820937B08A2E8B8E04BE558E0FA0185
:104CF0003E2F341B321718F43D913193F9CF1092A7
:104D00005A0820915A08990F922B90935A08909123
:104D10005908913061F41092590890915A08909373
:104D2000BB009091BC0093FDF8CF95EC01C095EECF
:104D30009093BC0090917F089230E1F390917D08B0
:104D40009F3F79F080917D08803241F080917D080D
:104D5000803331F084E005C081E003C082E001C00F
:104D600083E0109281081092A308109280080895A1
:104D7000CF93C62FFC01808191E0909380088093AF
:104D8000A208109281081092A30861E085E999E0D9
:104D90000E94F8076C2F85E999E00E94F80781E0EE
:104DA000CF9189CF8F929F92AF92BF92CF92DF9295
:104DB000EF92FF926B017C010E94F6164B015C01A1
:104DC000C60ED71EE81EF91E0E94F6166815790554
:104DD0008A059B0528F0C616D706E806F906A0F74F
:104DE000FF90EF90DF90CF90BF90AF909F908F900B
:104DF00008950F931F93CF93DF93EC0188819981DE
:104E0000009729F02A813B812617370788F48B0108
:104E10006F5F7F4F0E940041009761F09983888304
:104E20001B830A832C813D81232B11F4FC0110820A
:104E300081E001C080E0DF91CF911F910F91089533
:104E4000EF92FF920F931F93CF93DF93FC01248186
:104E500035816115710511F480E018C041155105C7
:104E6000A1F07B01EC018A01020F131FB801C1DF21
:104E7000882391F3288139818C819D81B701820F2C
:104E8000931F0E94F8411D830C8381E0DF91CF9135
:104E90001F910F91FF90EF900895CF93DF93EC0156
:104EA00088819981009711F00E94684019821882C8
:104EB0001D821C821B821A82DF91CF910895EF928E
:104EC000FF920F931F93CF93DF93EC017B018A0135
:104ED000BA018FDF811103C0CE01DFDF07C01D8360
:104EE0000C83B701888199810E94F841CE01DF913E
:104EF000CF911F910F91FF90EF900895CF93DF9383
:104F0000EC016115710551F0FB0101900020E9F7FA
:104F10003197AF01461B570BD2DF01C0BEDFCE0178
:104F2000DF91CF910895FC01808191810C946840BC
:104F3000FC01118210821382128215821482611583
:104F4000710549F0FB0101900020E9F73197AF01AD
:104F5000461B570BB4CF08954F925F926F927F928A
:104F6000EF92FF920F931F93CF93DF93CDB7DEB7EE
:104F7000A1970FB6F894DEBF0FBECDBF7C01FA013A
:104F8000CB0119A2223008F42AE08E010F5D1F4FD9
:104F9000422E512C612C712CBF01A30192010E9461
:104FA000783EF901CA01015011096A3014F4605DBC
:104FB00001C0695CD8016C93232B242B252B61F74E
:104FC000B801C7019AD5A1960FB6F894DEBF0FBEFF
:104FD000CDBFDF91CF911F910F91FF90EF907F9008
:104FE0006F905F904F9008950F931F93CF93DF932F
:104FF000EC0183D58C0167EE72E0CE017ED5800F87
:10500000911FDF91CF911F910F910895DC01ED91D8
:10501000FC910190F081E02D19944F925F926F9274
:105020007F928F929F92AF92BF92CF92DF92EF9238
:10503000FF92CF93DF93EC016A017B019A01AB01F0
:10504000C701B6010E94C73F882319F069EE74E0DA
:105050001AC046015701E894B7F82FEF3FEF4FE72A
:105060005FE7C501B4010E94C73F811110C02FEF57
:105070003FEF4FE75FE7C501B4010E945F3D18169F
:1050800034F46DEE74E0CE0138D57C0180C02FEF92
:105090003FEF4FE75FE4C701B6010E94C33F181618
:1050A0001CF461EF74E0EFCF2FEF3FEF4FE75FECC1
:1050B000C701B6010E945F3D87FDF3CF20E030E0DD
:1050C000A901C701B6010E945F3D87FF09C06DE2DB
:1050D000CE019CDF5C01F7FAF094F7F8F09402C07F
:1050E000A12CB12C2AE037ED43EA5BE3C701B601FE
:1050F0000E94C63E2B013C010E94973F6B017C0140
:105100000E94633D9B01AC01C301B2010E94C53EF8
:105110002B013C012AE0B701A601CE011DDF7C0175
:10512000EA0CFB1C6EE2CE0171DFE80EF91E20E0F6
:1051300030E040E251E4C301B2010E94C43D2B01C2
:105140003C010E94973F4B01A12CB12C2AE0B501F4
:10515000A401CE0101DFE80EF91EC501B4010E94D1
:10516000633D9B01AC01C301B2010E94C53E20E03A
:1051700030E040E251E40E94C43D0E94973FAB0101
:1051800060E070E02AE0CE01E7DEE80EF91E67EE8F
:1051900072E0CE01B2D48E0D9F1DDF91CF91FF90B2
:1051A000EF90DF90CF90BF90AF909F908F907F90C7
:1051B0006F905F904F900895A0C4CF93DF931F929C
:1051C000CDB7DEB7DC01ED91FC91048CF58DE02DBF
:1051D00041E050E0BE016F5F7F4F19951816190628
:1051E0001CF4898190E002C08FEF9FEF0F90DF9158
:1051F000CF910895CF93DF931F92CDB7DEB7698328
:10520000DC01ED91FC910280F381E02D41E050E062
:10521000BE016F5F7F4F19950F90DF91CF91089579
:10522000CF93DF93EC0193D989890E944C17198A97
:10523000DF91CF9108950F931F93CF93DF931F9228
:10524000CDB7DEB78C0183D9F8018189882391F02D
:1052500041E050E060E070E00E9467198C01BE01FF
:105260006F5F7F4F0E946C170130110519F489811F
:1052700090E002C08FEF9FEF0F90DF91CF911F91D1
:105280000F910895CF92DF92EF92FF920F931F93A9
:10529000CF93DF931F921F92CDB7DEB77C016B01D6
:1052A00049835A8354D9F701818949815A818823D6
:1052B00051F160E070E00E9467198C01B6010E9414
:1052C0006C17F701D1888D2D0E94A11908171907B5
:1052D00031F48D2D0E944C17F701118A12C085E020
:1052E000D89EF0011124EC55F94F80819181800FF7
:1052F000911F9183808382819381801B910B938383
:105300008283C80102C080E090E00F900F90DF918F
:10531000CF911F910F91FF90EF90DF90CF90089564
:10532000CF93DF93EC0113D98989DF91CF910C944E
:10533000A119CF93DF93EC010AD9898981110E94C9
:105340004C178889898B188ADF91CF910C94A11909
:10535000CF93DF93EC018A89882369F09A01AB012E
:105360006E857F850E9423192E853F85280F391F62
:105370003F872E8702C080E090E0DF91CF910895B3
:10538000CF93DF93EC018C859D85892B19F480E008
:1053900090E024C0EA89EE23D1F381E08B8B8E85E7
:1053A0009F8525E0E29FF0011124EC55F94F93838E
:1053B00082838C859D85909315068093140685E0E5
:1053C0000E948A0C80912D0690912E06892BF9F26D
:1053D000CE010E960E94FA1381E090E0DF91CF910A
:1053E0000895CF92DF92EF92FF920F931F93CF9386
:1053F000DF9300D01F92CDB7DEB78C016B017A012D
:10540000A6D8F60182819381A481B581892B8A2B4C
:105410008B2B41F1E114F10429F1828190E0982F66
:1054200088272381822B9827892798279A83898325
:10543000248130E0322F22274581242B3227232755
:1054400032273C832B83D8011C96ED91FC911D974C
:105450007E2D6F2D309729F177836683918380832A
:1054600033832283D8011C968D919C911D97892BA3
:10547000A9F052968C91811111C086E096E00E94AD
:105480008018F801828B2AE230E03787268721E0F6
:1054900090E0811101C020E0822F15C080E090E0F3
:1054A00012C0CE0101960E948713D8011D969C93CD
:1054B0008E931C97009791F39801225F3F4FFC0158
:1054C00032872187CFCF0F900F900F900F90DF91F1
:1054D000CF911F910F91FF90EF90DF90CF900895A3
:1054E0004F925F926F927F928F929F92AF92BF92F4
:1054F000CF92DF92EF92FF920F931F93CF93DF93A0
:10550000CDB7DEB7E5970FB6F894DEBF0FBECDBFBF
:105510007C018B016A0188EC92E09A8389831C8666
:105520001B8648EE53E060E070E04D875E876F8732
:10553000788B20E732E03A8729871E8A1D8AFE0190
:10554000779626E0DF011D922A95E9F79AA789A7A9
:105550001BA61CA61DA61EA680918B0990918C09E6
:10556000A0918D09B0918E098F8F98A3A9A3BAA39A
:105570008B839C83AD83BE8318861F82F801D8017C
:105580008D91882331F08E32D9F380538A30C0F365
:105590004EC080E090E020E030E05AE041914423AA
:1055A00011F1243031050CF042C04E3281F48F3FAE
:1055B000910509F0E4F5ABE2B0E0AC0FBD1FA20F1E
:1055C000B31F8C932F5F3F4F80E090E0E7CF589F51
:1055D000B001599F700D1124842F440F990BC0976F
:1055E000860F971FDBCF8F3F910509F004F524301C
:1055F0003105ECF4FE01E20FF31F83A7D701ED9113
:10560000FC910488F589E02D88EC92E09E8F8D8FC7
:105610008BA59CA5ADA5BEA58F8F98A3A9A3BAA362
:10562000A601BE01635E7F4FC701199516C24B816B
:105630005C816D817E818091910990919209A09108
:105640009309B0919409481759076A077B0709F431
:1056500002C20E94F6166F7077277C5FCE01099612
:105660000E94AE21813009F0F3C188EC92E09E8F58
:105670008D8F8B819C81AD81BE818F8F98A3A9A3D3
:10568000BAA345E350E0BE01635E7F4FCE010996A9
:10569000A8DE892B19F400E010E0B9C10E94F616CB
:1056A00078876F8342E050E0BE01695F7F4FCE0193
:1056B00009964EDE81E090E09E8F8D8F42E050E0B3
:1056C000BE01635E7F4FCE01099642DE80E091E02D
:1056D0009E8F8D8F42E050E0BE01635E7F4FCE0112
:1056E000099636DE1E8E1D8E42E050E0BE01635EDE
:1056F0007F4FCE0109962CDE42E050E0BE01635E92
:105700007F4FCE01099624DE42E050E0BE01635E89
:105710007F4FCE0109961CDE5801F5018081882358
:1057200009F1F8015F018191811115C04501801ACD
:10573000910A1814190494F48FA641E050E0BE01B8
:10574000615D7F4FCE01099603DEA401B801CE0151
:105750000996FEDD03C08E3229F7E8CF85010F5F81
:105760001F4FDBCF1FA641E050E0BE01615D7F4FC0
:10577000CE010996EDDD00E011E01E8F0D8F42E0B5
:1057800050E0BE01635E7F4FCE010996E1DD1E8FC2
:105790000D8F42E050E0BE01635E7F4FCE0109965F
:1057A000D7DDCE010996ECDD892B09F474CF83E0B7
:1057B000A82EB12C0E94F6162B013C01CE010996B1
:1057C000B8DD18161906ACF00E94F616DC01CB0104
:1057D00084199509A609B70989389341A105B1052E
:1057E00008F004C162E370E080E090E00E94BE1621
:1057F000E5CF4B805C806D807E80BE01675F7F4F10
:10580000CE014D960E94FE0B8F8D98A1A9A1BAA141
:10581000481659066A067B0609F0EBC0CE010996C8
:105820000E94EE0BC59709F0E4C0CE01099678DD21
:105830000C970CF4E1C04CE050E0BE01635E7F4F7A
:10584000CE0109960E9485218F8D98A198278927DE
:1058500098279CAB8BAB4F8158852D8D3E8D421781
:10586000530711F497FD06C0CE010996D9DC0CEF61
:105870001FEFC4C08F709270892B31F0CE01099652
:10588000CFDC0BEF1FEFBAC00BA11CA11027012723
:1058900010270115110531F4CE010996C1DC0AEF7C
:1058A0001FEFACC0812C912C89A19AA19827892740
:1058B00098278816990648F541E050E0BE01615DE1
:1058C0007F4FCE0109960E9485218FA5811113C0BB
:1058D0008FA58111F1CFCE0109966FDCCE0109961B
:1058E0006CDCCE01099669DCCE01099666DC2FEFEF
:1058F000821A920AD9CF8FA59FEF980F9FA788236E
:1059000039F3CE01099659DCF6CF812C912C41E078
:1059100050E0BE016B5C7F4FCE0109960E9485214D
:105920008DA9982F907C61F4882371F08DA99FEF49
:10593000980F9DAB882341F0CE0109963EDCF6CF4F
:10594000CE0109963ADC1DAA8DA98111E0CF42E073
:1059500050E0BE016F5C7F4FCE0109960E94852109
:1059600042E050E0BE01615D7F4FCE0109960E948A
:105970008521CE01099621DCCE0109961EDCCE01DF
:1059800009961BDCCE01099618DC42E050E0BE010E
:105990006D5C7F4FCE0109960E94852189A99AA945
:1059A0008115914029F48FA598A981159140C9F1DD
:1059B000612C712C8BA99CA9982789279827681698
:1059C000790638F4CE010996F8DBEFEF6E1A7E0AFD
:1059D000F1CFFFEF8F1A9F0A8016910609F097CF3B
:1059E000CE0109961DDC06EF1FEF08C00FEF1FEF79
:1059F00005C00EEF1FEF02C00DEF1FEF21E0A21A4E
:105A0000B10829F00F3F8FEF180709F4D3CECE016C
:105A100009960E948C210130110509F4EFCDC801CF
:105A20001CC08BA99CA98115944031F0CE01099628
:105A3000F7DB07EF1FEFE2CF44E050E0BE01655D0A
:105A40007F4FCE0109960E94852101E010E0D6CF5C
:105A500080E090E002C08EEF9FEFE5960FB6F894DD
:105A6000DEBF0FBECDBFDF91CF911F910F91FF9091
:105A7000EF90DF90CF90BF90AF909F908F907F90EE
:105A80006F905F904F900895CF92DF92EF92FF92C8
:105A90000F931F93CF93DF936C017A018B01C0E0CA
:105AA000D0E0CE15DF0589F0D8016D918D01D601CA
:105AB000ED91FC910190F081E02DC6011995892BA3
:105AC00011F47E0102C02196ECCFC701DF91CF9186
:105AD0001F910F91FF90EF90DF90CF900895DC0120
